{
	"contracts/ClaimHandling.sol": {
		"ClaimHandlingContract": {
			"abi": [
				{
					"inputs": [
						{
							"internalType": "address",
							"name": "customerContractAddress",
							"type": "address"
						}
					],
					"stateMutability": "nonpayable",
					"type": "constructor"
				},
				{
					"anonymous": false,
					"inputs": [
						{
							"indexed": true,
							"internalType": "uint256",
							"name": "_customerId",
							"type": "uint256"
						},
						{
							"indexed": false,
							"internalType": "string",
							"name": "_notification",
							"type": "string"
						}
					],
					"name": "CustomerAdvNotif",
					"type": "event"
				},
				{
					"inputs": [
						{
							"internalType": "uint256",
							"name": "id",
							"type": "uint256"
						}
					],
					"name": "getClaim",
					"outputs": [
						{
							"components": [
								{
									"internalType": "uint256",
									"name": "id",
									"type": "uint256"
								},
								{
									"internalType": "uint256",
									"name": "customerId",
									"type": "uint256"
								},
								{
									"internalType": "enum InsuranceCompanyContract.insurancePolicy",
									"name": "policyType",
									"type": "uint8"
								},
								{
									"internalType": "uint256",
									"name": "claimDate",
									"type": "uint256"
								},
								{
									"internalType": "uint256",
									"name": "damagePercentage",
									"type": "uint256"
								}
							],
							"internalType": "struct InsuranceCompanyContract.Claim",
							"name": "claim",
							"type": "tuple"
						}
					],
					"stateMutability": "view",
					"type": "function"
				},
				{
					"inputs": [
						{
							"internalType": "uint256",
							"name": "customerId",
							"type": "uint256"
						},
						{
							"internalType": "enum InsuranceCompanyContract.insurancePolicy",
							"name": "policyType",
							"type": "uint8"
						},
						{
							"internalType": "uint256",
							"name": "damagePercentage",
							"type": "uint256"
						}
					],
					"name": "receiveAClaim",
					"outputs": [],
					"stateMutability": "nonpayable",
					"type": "function"
				}
			],
			"devdoc": {
				"kind": "dev",
				"methods": {},
				"version": 1
			},
			"evm": {
				"assembly": "    /* \"contracts/ClaimHandling.sol\":124:2165  contract ClaimHandlingContract is InsuranceCompanyContract {\r... */\n  mstore(0x40, 0x80)\n    /* \"contracts/ClaimHandling.sol\":250:251  0 */\n  0x00\n    /* \"contracts/ClaimHandling.sol\":234:251  uint numClaim = 0 */\n  0x01\n  sstore\n    /* \"contracts/ClaimHandling.sol\":360:484  constructor(address customerContractAddress) {\r... */\n  callvalue\n  dup1\n  iszero\n  tag_1\n  jumpi\n  0x00\n  dup1\n  revert\ntag_1:\n  pop\n  mload(0x40)\n  sub(codesize, bytecodeSize)\n  dup1\n  bytecodeSize\n  dup4\n  codecopy\n  dup2\n  dup2\n  add\n  0x40\n  mstore\n  dup2\n  add\n  swap1\n  tag_2\n  swap2\n  swap1\n  tag_3\n  jump\t// in\ntag_2:\n    /* \"contracts/ClaimHandling.sol\":452:475  customerContractAddress */\n  dup1\n    /* \"contracts/ClaimHandling.sol\":416:432  customerContract */\n  0x00\n  dup1\n    /* \"contracts/ClaimHandling.sol\":416:476  customerContract = CustomerContract(customerContractAddress) */\n  0x0100\n  exp\n  dup2\n  sload\n  dup2\n  0xffffffffffffffffffffffffffffffffffffffff\n  mul\n  not\n  and\n  swap1\n  dup4\n  0xffffffffffffffffffffffffffffffffffffffff\n  and\n  mul\n  or\n  swap1\n  sstore\n  pop\n    /* \"contracts/ClaimHandling.sol\":360:484  constructor(address customerContractAddress) {\r... */\n  pop\n    /* \"contracts/ClaimHandling.sol\":124:2165  contract ClaimHandlingContract is InsuranceCompanyContract {\r... */\n  jump(tag_6)\n    /* \"#utility.yul\":7:150   */\ntag_8:\n    /* \"#utility.yul\":64:69   */\n  0x00\n    /* \"#utility.yul\":95:101   */\n  dup2\n    /* \"#utility.yul\":89:102   */\n  mload\n    /* \"#utility.yul\":80:102   */\n  swap1\n  pop\n    /* \"#utility.yul\":111:144   */\n  tag_10\n    /* \"#utility.yul\":138:143   */\n  dup2\n    /* \"#utility.yul\":111:144   */\n  tag_11\n  jump\t// in\ntag_10:\n    /* \"#utility.yul\":7:150   */\n  swap3\n  swap2\n  pop\n  pop\n  jump\t// out\n    /* \"#utility.yul\":156:507   */\ntag_3:\n    /* \"#utility.yul\":226:232   */\n  0x00\n    /* \"#utility.yul\":275:277   */\n  0x20\n    /* \"#utility.yul\":263:272   */\n  dup3\n    /* \"#utility.yul\":254:261   */\n  dup5\n    /* \"#utility.yul\":250:273   */\n  sub\n    /* \"#utility.yul\":246:278   */\n  slt\n    /* \"#utility.yul\":243:362   */\n  iszero\n  tag_13\n  jumpi\n    /* \"#utility.yul\":281:360   */\n  tag_14\n  tag_15\n  jump\t// in\ntag_14:\n    /* \"#utility.yul\":243:362   */\ntag_13:\n    /* \"#utility.yul\":401:402   */\n  0x00\n    /* \"#utility.yul\":426:490   */\n  tag_16\n    /* \"#utility.yul\":482:489   */\n  dup5\n    /* \"#utility.yul\":473:479   */\n  dup3\n    /* \"#utility.yul\":462:471   */\n  dup6\n    /* \"#utility.yul\":458:480   */\n  add\n    /* \"#utility.yul\":426:490   */\n  tag_8\n  jump\t// in\ntag_16:\n    /* \"#utility.yul\":416:490   */\n  swap2\n  pop\n    /* \"#utility.yul\":372:500   */\n  pop\n    /* \"#utility.yul\":156:507   */\n  swap3\n  swap2\n  pop\n  pop\n  jump\t// out\n    /* \"#utility.yul\":594:690   */\ntag_19:\n    /* \"#utility.yul\":631:638   */\n  0x00\n    /* \"#utility.yul\":660:684   */\n  tag_21\n    /* \"#utility.yul\":678:683   */\n  dup3\n    /* \"#utility.yul\":660:684   */\n  tag_22\n  jump\t// in\ntag_21:\n    /* \"#utility.yul\":649:684   */\n  swap1\n  pop\n    /* \"#utility.yul\":594:690   */\n  swap2\n  swap1\n  pop\n  jump\t// out\n    /* \"#utility.yul\":696:822   */\ntag_22:\n    /* \"#utility.yul\":733:740   */\n  0x00\n    /* \"#utility.yul\":773:815   */\n  0xffffffffffffffffffffffffffffffffffffffff\n    /* \"#utility.yul\":766:771   */\n  dup3\n    /* \"#utility.yul\":762:816   */\n  and\n    /* \"#utility.yul\":751:816   */\n  swap1\n  pop\n    /* \"#utility.yul\":696:822   */\n  swap2\n  swap1\n  pop\n  jump\t// out\n    /* \"#utility.yul\":951:1068   */\ntag_15:\n    /* \"#utility.yul\":1060:1061   */\n  0x00\n    /* \"#utility.yul\":1057:1058   */\n  dup1\n    /* \"#utility.yul\":1050:1062   */\n  revert\n    /* \"#utility.yul\":1074:1196   */\ntag_11:\n    /* \"#utility.yul\":1147:1171   */\n  tag_28\n    /* \"#utility.yul\":1165:1170   */\n  dup2\n    /* \"#utility.yul\":1147:1171   */\n  tag_19\n  jump\t// in\ntag_28:\n    /* \"#utility.yul\":1140:1145   */\n  dup2\n    /* \"#utility.yul\":1137:1172   */\n  eq\n    /* \"#utility.yul\":1127:1190   */\n  tag_29\n  jumpi\n    /* \"#utility.yul\":1186:1187   */\n  0x00\n    /* \"#utility.yul\":1183:1184   */\n  dup1\n    /* \"#utility.yul\":1176:1188   */\n  revert\n    /* \"#utility.yul\":1127:1190   */\ntag_29:\n    /* \"#utility.yul\":1074:1196   */\n  pop\n  jump\t// out\n    /* \"contracts/ClaimHandling.sol\":124:2165  contract ClaimHandlingContract is InsuranceCompanyContract {\r... */\ntag_6:\n  dataSize(sub_0)\n  dup1\n  dataOffset(sub_0)\n  0x00\n  codecopy\n  0x00\n  return\nstop\n\nsub_0: assembly {\n        /* \"contracts/ClaimHandling.sol\":124:2165  contract ClaimHandlingContract is InsuranceCompanyContract {\r... */\n      mstore(0x40, 0x80)\n      callvalue\n      dup1\n      iszero\n      tag_1\n      jumpi\n      0x00\n      dup1\n      revert\n    tag_1:\n      pop\n      jumpi(tag_2, lt(calldatasize, 0x04))\n      shr(0xe0, calldataload(0x00))\n      dup1\n      0x5aef2447\n      eq\n      tag_3\n      jumpi\n      dup1\n      0x91bbdc49\n      eq\n      tag_4\n      jumpi\n    tag_2:\n      0x00\n      dup1\n      revert\n        /* \"contracts/ClaimHandling.sol\":988:1292  function getClaim(uint id) public view returns (Claim memory claim){\r... */\n    tag_3:\n      tag_5\n      0x04\n      dup1\n      calldatasize\n      sub\n      dup2\n      add\n      swap1\n      tag_6\n      swap2\n      swap1\n      tag_7\n      jump\t// in\n    tag_6:\n      tag_8\n      jump\t// in\n    tag_5:\n      mload(0x40)\n      tag_9\n      swap2\n      swap1\n      tag_10\n      jump\t// in\n    tag_9:\n      mload(0x40)\n      dup1\n      swap2\n      sub\n      swap1\n      return\n        /* \"contracts/ClaimHandling.sol\":492:980  function receiveAClaim(uint customerId, insurancePolicy policyType, uint damagePercentage) public checkIdentity(customerId)\r... */\n    tag_4:\n      tag_11\n      0x04\n      dup1\n      calldatasize\n      sub\n      dup2\n      add\n      swap1\n      tag_12\n      swap2\n      swap1\n      tag_13\n      jump\t// in\n    tag_12:\n      tag_14\n      jump\t// in\n    tag_11:\n      stop\n        /* \"contracts/ClaimHandling.sol\":988:1292  function getClaim(uint id) public view returns (Claim memory claim){\r... */\n    tag_8:\n        /* \"contracts/ClaimHandling.sol\":1036:1054  Claim memory claim */\n      tag_15\n      tag_16\n      jump\t// in\n    tag_15:\n        /* \"contracts/ClaimHandling.sol\":1151:1157  uint i */\n      0x00\n        /* \"contracts/ClaimHandling.sol\":1146:1285  for (uint i = 0; i < claims.length; i++){\r... */\n    tag_18:\n        /* \"contracts/ClaimHandling.sol\":1167:1173  claims */\n      0x02\n        /* \"contracts/ClaimHandling.sol\":1167:1180  claims.length */\n      dup1\n      sload\n      swap1\n      pop\n        /* \"contracts/ClaimHandling.sol\":1163:1164  i */\n      dup2\n        /* \"contracts/ClaimHandling.sol\":1163:1180  i < claims.length */\n      lt\n        /* \"contracts/ClaimHandling.sol\":1146:1285  for (uint i = 0; i < claims.length; i++){\r... */\n      iszero\n      tag_19\n      jumpi\n        /* \"contracts/ClaimHandling.sol\":1220:1222  id */\n      dup3\n        /* \"contracts/ClaimHandling.sol\":1204:1210  claims */\n      0x02\n        /* \"contracts/ClaimHandling.sol\":1211:1212  i */\n      dup3\n        /* \"contracts/ClaimHandling.sol\":1204:1213  claims[i] */\n      dup2\n      sload\n      dup2\n      lt\n      tag_21\n      jumpi\n      tag_22\n      tag_23\n      jump\t// in\n    tag_22:\n    tag_21:\n      swap1\n      0x00\n      mstore\n      keccak256(0x00, 0x20)\n      swap1\n      0x05\n      mul\n      add\n        /* \"contracts/ClaimHandling.sol\":1204:1216  claims[i].id */\n      0x00\n      add\n      sload\n        /* \"contracts/ClaimHandling.sol\":1204:1222  claims[i].id == id */\n      eq\n        /* \"contracts/ClaimHandling.sol\":1201:1274  if(claims[i].id == id){\r... */\n      iszero\n      tag_25\n      jumpi\n        /* \"contracts/ClaimHandling.sol\":1249:1255  claims */\n      0x02\n        /* \"contracts/ClaimHandling.sol\":1256:1257  i */\n      dup2\n        /* \"contracts/ClaimHandling.sol\":1249:1258  claims[i] */\n      dup2\n      sload\n      dup2\n      lt\n      tag_26\n      jumpi\n      tag_27\n      tag_23\n      jump\t// in\n    tag_27:\n    tag_26:\n      swap1\n      0x00\n      mstore\n      keccak256(0x00, 0x20)\n      swap1\n      0x05\n      mul\n      add\n        /* \"contracts/ClaimHandling.sol\":1242:1258  return claims[i] */\n      mload(0x40)\n      dup1\n      0xa0\n      add\n      0x40\n      mstore\n      swap1\n      dup2\n      0x00\n      dup3\n      add\n      sload\n      dup2\n      mstore\n      0x20\n      add\n      0x01\n      dup3\n      add\n      sload\n      dup2\n      mstore\n      0x20\n      add\n      0x02\n      dup3\n      add\n      0x00\n      swap1\n      sload\n      swap1\n      0x0100\n      exp\n      swap1\n      div\n      0xff\n      and\n      0x01\n      dup2\n      gt\n      iszero\n      tag_29\n      jumpi\n      tag_30\n      tag_31\n      jump\t// in\n    tag_30:\n    tag_29:\n      0x01\n      dup2\n      gt\n      iszero\n      tag_32\n      jumpi\n      tag_33\n      tag_31\n      jump\t// in\n    tag_33:\n    tag_32:\n      dup2\n      mstore\n      0x20\n      add\n      0x03\n      dup3\n      add\n      sload\n      dup2\n      mstore\n      0x20\n      add\n      0x04\n      dup3\n      add\n      sload\n      dup2\n      mstore\n      pop\n      pop\n      swap2\n      pop\n      pop\n      jump(tag_17)\n        /* \"contracts/ClaimHandling.sol\":1201:1274  if(claims[i].id == id){\r... */\n    tag_25:\n        /* \"contracts/ClaimHandling.sol\":1182:1185  i++ */\n      dup1\n      dup1\n      tag_34\n      swap1\n      tag_35\n      jump\t// in\n    tag_34:\n      swap2\n      pop\n      pop\n        /* \"contracts/ClaimHandling.sol\":1146:1285  for (uint i = 0; i < claims.length; i++){\r... */\n      jump(tag_18)\n    tag_19:\n      pop\n        /* \"contracts/ClaimHandling.sol\":988:1292  function getClaim(uint id) public view returns (Claim memory claim){\r... */\n    tag_17:\n      swap2\n      swap1\n      pop\n      jump\t// out\n        /* \"contracts/ClaimHandling.sol\":492:980  function receiveAClaim(uint customerId, insurancePolicy policyType, uint damagePercentage) public checkIdentity(customerId)\r... */\n    tag_14:\n        /* \"contracts/ClaimHandling.sol\":604:614  customerId */\n      dup3\n        /* \"contracts/ClaimHandling.sol\":1406:1407  0 */\n      0x00\n        /* \"contracts/ClaimHandling.sol\":1359:1375  customerContract */\n      dup1\n      0x00\n      swap1\n      sload\n      swap1\n      0x0100\n      exp\n      swap1\n      div\n      0xffffffffffffffffffffffffffffffffffffffff\n      and\n        /* \"contracts/ClaimHandling.sol\":1359:1387  customerContract.getCustomer */\n      0xffffffffffffffffffffffffffffffffffffffff\n      and\n      0xeb876f27\n        /* \"contracts/ClaimHandling.sol\":1388:1398  customerId */\n      dup4\n        /* \"contracts/ClaimHandling.sol\":1359:1399  customerContract.getCustomer(customerId) */\n      mload(0x40)\n      dup3\n      0xffffffff\n      and\n      0xe0\n      shl\n      dup2\n      mstore\n      0x04\n      add\n      tag_37\n      swap2\n      swap1\n      tag_38\n      jump\t// in\n    tag_37:\n      0x00\n      mload(0x40)\n      dup1\n      dup4\n      sub\n      dup2\n      dup7\n      dup1\n      extcodesize\n      iszero\n      dup1\n      iszero\n      tag_39\n      jumpi\n      0x00\n      dup1\n      revert\n    tag_39:\n      pop\n      gas\n      staticcall\n      iszero\n      dup1\n      iszero\n      tag_41\n      jumpi\n      returndatasize\n      0x00\n      dup1\n      returndatacopy\n      revert(0x00, returndatasize)\n    tag_41:\n      pop\n      pop\n      pop\n      pop\n      mload(0x40)\n      returndatasize\n      0x00\n      dup3\n      returndatacopy\n      returndatasize\n      not(0x1f)\n      0x1f\n      dup3\n      add\n      and\n      dup3\n      add\n      dup1\n      0x40\n      mstore\n      pop\n      dup2\n      add\n      swap1\n      tag_42\n      swap2\n      swap1\n      tag_43\n      jump\t// in\n    tag_42:\n        /* \"contracts/ClaimHandling.sol\":1359:1402  customerContract.getCustomer(customerId).id */\n      0x00\n      add\n      mload\n        /* \"contracts/ClaimHandling.sol\":1359:1407  customerContract.getCustomer(customerId).id != 0 */\n      eq\n      iszero\n        /* \"contracts/ClaimHandling.sol\":1351:1431  require(customerContract.getCustomer(customerId).id != 0, \"Customer not found.\") */\n      tag_44\n      jumpi\n      mload(0x40)\n      0x08c379a000000000000000000000000000000000000000000000000000000000\n      dup2\n      mstore\n      0x04\n      add\n      tag_45\n      swap1\n      tag_46\n      jump\t// in\n    tag_45:\n      mload(0x40)\n      dup1\n      swap2\n      sub\n      swap1\n      revert\n    tag_44:\n        /* \"contracts/ClaimHandling.sol\":1464:1474  customerId */\n      dup1\n        /* \"contracts/ClaimHandling.sol\":1447:1510  CustomerAdvNotif(customerId, \"Customer identity is not valid.\") */\n      0xb6fadf247b8bf1dbf11ca028d218285198ec9cf906a4e1955b03661b91e2d415\n      mload(0x40)\n      tag_47\n      swap1\n      tag_48\n      jump\t// in\n    tag_47:\n      mload(0x40)\n      dup1\n      swap2\n      sub\n      swap1\n      log2\n        /* \"contracts/ClaimHandling.sol\":654:664  customerId */\n      dup4\n        /* \"contracts/ClaimHandling.sol\":667:682  block.timestamp */\n      timestamp\n        /* \"contracts/ClaimHandling.sol\":1679:1688  claimDate */\n      dup1\n        /* \"contracts/ClaimHandling.sol\":1623:1639  customerContract */\n      0x00\n      dup1\n      sload\n      swap1\n      0x0100\n      exp\n      swap1\n      div\n      0xffffffffffffffffffffffffffffffffffffffff\n      and\n        /* \"contracts/ClaimHandling.sol\":1623:1651  customerContract.getCustomer */\n      0xffffffffffffffffffffffffffffffffffffffff\n      and\n      0xeb876f27\n        /* \"contracts/ClaimHandling.sol\":1652:1662  customerId */\n      dup5\n        /* \"contracts/ClaimHandling.sol\":1623:1663  customerContract.getCustomer(customerId) */\n      mload(0x40)\n      dup3\n      0xffffffff\n      and\n      0xe0\n      shl\n      dup2\n      mstore\n      0x04\n      add\n      tag_50\n      swap2\n      swap1\n      tag_38\n      jump\t// in\n    tag_50:\n      0x00\n      mload(0x40)\n      dup1\n      dup4\n      sub\n      dup2\n      dup7\n      dup1\n      extcodesize\n      iszero\n      dup1\n      iszero\n      tag_51\n      jumpi\n      0x00\n      dup1\n      revert\n    tag_51:\n      pop\n      gas\n      staticcall\n      iszero\n      dup1\n      iszero\n      tag_53\n      jumpi\n      returndatasize\n      0x00\n      dup1\n      returndatacopy\n      revert(0x00, returndatasize)\n    tag_53:\n      pop\n      pop\n      pop\n      pop\n      mload(0x40)\n      returndatasize\n      0x00\n      dup3\n      returndatacopy\n      returndatasize\n      not(0x1f)\n      0x1f\n      dup3\n      add\n      and\n      dup3\n      add\n      dup1\n      0x40\n      mstore\n      pop\n      dup2\n      add\n      swap1\n      tag_54\n      swap2\n      swap1\n      tag_43\n      jump\t// in\n    tag_54:\n        /* \"contracts/ClaimHandling.sol\":1623:1676  customerContract.getCustomer(customerId).validityDate */\n      0x60\n      add\n      mload\n        /* \"contracts/ClaimHandling.sol\":1623:1688  customerContract.getCustomer(customerId).validityDate > claimDate */\n      gt\n        /* \"contracts/ClaimHandling.sol\":1615:1712  require(customerContract.getCustomer(customerId).validityDate > claimDate, \"Policy has expired.\") */\n      tag_55\n      jumpi\n      mload(0x40)\n      0x08c379a000000000000000000000000000000000000000000000000000000000\n      dup2\n      mstore\n      0x04\n      add\n      tag_56\n      swap1\n      tag_57\n      jump\t// in\n    tag_56:\n      mload(0x40)\n      dup1\n      swap2\n      sub\n      swap1\n      revert\n    tag_55:\n        /* \"contracts/ClaimHandling.sol\":1745:1755  customerId */\n      dup2\n        /* \"contracts/ClaimHandling.sol\":1728:1813  CustomerAdvNotif(customerId, \"Policy date has expired, please update your contract.\") */\n      0xb6fadf247b8bf1dbf11ca028d218285198ec9cf906a4e1955b03661b91e2d415\n      mload(0x40)\n      tag_58\n      swap1\n      tag_59\n      jump\t// in\n    tag_58:\n      mload(0x40)\n      dup1\n      swap2\n      sub\n      swap1\n      log2\n        /* \"contracts/ClaimHandling.sol\":703:713  customerId */\n      dup6\n        /* \"contracts/ClaimHandling.sol\":715:725  policyType */\n      dup6\n        /* \"contracts/ClaimHandling.sol\":1987:1997  policyType */\n      dup1\n        /* \"contracts/ClaimHandling.sol\":1932:1997  customerContract.getCustomer(customerId).policyType == policyType */\n      0x01\n      dup2\n      gt\n      iszero\n      tag_61\n      jumpi\n      tag_62\n      tag_31\n      jump\t// in\n    tag_62:\n    tag_61:\n        /* \"contracts/ClaimHandling.sol\":1932:1948  customerContract */\n      0x00\n      dup1\n      sload\n      swap1\n      0x0100\n      exp\n      swap1\n      div\n      0xffffffffffffffffffffffffffffffffffffffff\n      and\n        /* \"contracts/ClaimHandling.sol\":1932:1960  customerContract.getCustomer */\n      0xffffffffffffffffffffffffffffffffffffffff\n      and\n      0xeb876f27\n        /* \"contracts/ClaimHandling.sol\":1961:1971  customerId */\n      dup5\n        /* \"contracts/ClaimHandling.sol\":1932:1972  customerContract.getCustomer(customerId) */\n      mload(0x40)\n      dup3\n      0xffffffff\n      and\n      0xe0\n      shl\n      dup2\n      mstore\n      0x04\n      add\n      tag_63\n      swap2\n      swap1\n      tag_38\n      jump\t// in\n    tag_63:\n      0x00\n      mload(0x40)\n      dup1\n      dup4\n      sub\n      dup2\n      dup7\n      dup1\n      extcodesize\n      iszero\n      dup1\n      iszero\n      tag_64\n      jumpi\n      0x00\n      dup1\n      revert\n    tag_64:\n      pop\n      gas\n      staticcall\n      iszero\n      dup1\n      iszero\n      tag_66\n      jumpi\n      returndatasize\n      0x00\n      dup1\n      returndatacopy\n      revert(0x00, returndatasize)\n    tag_66:\n      pop\n      pop\n      pop\n      pop\n      mload(0x40)\n      returndatasize\n      0x00\n      dup3\n      returndatacopy\n      returndatasize\n      not(0x1f)\n      0x1f\n      dup3\n      add\n      and\n      dup3\n      add\n      dup1\n      0x40\n      mstore\n      pop\n      dup2\n      add\n      swap1\n      tag_67\n      swap2\n      swap1\n      tag_43\n      jump\t// in\n    tag_67:\n        /* \"contracts/ClaimHandling.sol\":1932:1983  customerContract.getCustomer(customerId).policyType */\n      0x40\n      add\n      mload\n        /* \"contracts/ClaimHandling.sol\":1932:1997  customerContract.getCustomer(customerId).policyType == policyType */\n      0x01\n      dup2\n      gt\n      iszero\n      tag_68\n      jumpi\n      tag_69\n      tag_31\n      jump\t// in\n    tag_69:\n    tag_68:\n      eq\n        /* \"contracts/ClaimHandling.sol\":1924:2048  require(customerContract.getCustomer(customerId).policyType == policyType, \"Customer and claim policy cannot be different.\") */\n      tag_70\n      jumpi\n      mload(0x40)\n      0x08c379a000000000000000000000000000000000000000000000000000000000\n      dup2\n      mstore\n      0x04\n      add\n      tag_71\n      swap1\n      tag_72\n      jump\t// in\n    tag_71:\n      mload(0x40)\n      dup1\n      swap2\n      sub\n      swap1\n      revert\n    tag_70:\n        /* \"contracts/ClaimHandling.sol\":2081:2091  customerId */\n      dup2\n        /* \"contracts/ClaimHandling.sol\":2064:2142  CustomerAdvNotif(customerId, \"Customer and claim policy have to be the same.\") */\n      0xb6fadf247b8bf1dbf11ca028d218285198ec9cf906a4e1955b03661b91e2d415\n      mload(0x40)\n      tag_73\n      swap1\n      tag_74\n      jump\t// in\n    tag_73:\n      mload(0x40)\n      dup1\n      swap2\n      sub\n      swap1\n      log2\n        /* \"contracts/ClaimHandling.sol\":737:745  numClaim */\n      0x01\n      0x00\n        /* \"contracts/ClaimHandling.sol\":737:747  numClaim++ */\n      dup2\n      sload\n      dup1\n      swap3\n      swap2\n      swap1\n      tag_76\n      swap1\n      tag_35\n      jump\t// in\n    tag_76:\n      swap2\n      swap1\n      pop\n      sstore\n      pop\n        /* \"contracts/ClaimHandling.sol\":758:764  claims */\n      0x02\n        /* \"contracts/ClaimHandling.sol\":784:961  Claim(\r... */\n      mload(0x40)\n      dup1\n      0xa0\n      add\n      0x40\n      mstore\n      dup1\n        /* \"contracts/ClaimHandling.sol\":808:816  numClaim */\n      sload(0x01)\n        /* \"contracts/ClaimHandling.sol\":784:961  Claim(\r... */\n      dup2\n      mstore\n      0x20\n      add\n        /* \"contracts/ClaimHandling.sol\":836:846  customerId */\n      dup11\n        /* \"contracts/ClaimHandling.sol\":784:961  Claim(\r... */\n      dup2\n      mstore\n      0x20\n      add\n        /* \"contracts/ClaimHandling.sol\":866:876  policyType */\n      dup10\n        /* \"contracts/ClaimHandling.sol\":784:961  Claim(\r... */\n      0x01\n      dup2\n      gt\n      iszero\n      tag_77\n      jumpi\n      tag_78\n      tag_31\n      jump\t// in\n    tag_78:\n    tag_77:\n      dup2\n      mstore\n      0x20\n      add\n        /* \"contracts/ClaimHandling.sol\":895:910  block.timestamp */\n      timestamp\n        /* \"contracts/ClaimHandling.sol\":784:961  Claim(\r... */\n      dup2\n      mstore\n      0x20\n      add\n        /* \"contracts/ClaimHandling.sol\":930:946  damagePercentage */\n      dup9\n        /* \"contracts/ClaimHandling.sol\":784:961  Claim(\r... */\n      dup2\n      mstore\n      pop\n        /* \"contracts/ClaimHandling.sol\":758:972  claims.push(\r... */\n      swap1\n      dup1\n      0x01\n      dup2\n      sload\n      add\n      dup1\n      dup3\n      sstore\n      dup1\n      swap2\n      pop\n      pop\n      0x01\n      swap1\n      sub\n      swap1\n      0x00\n      mstore\n      keccak256(0x00, 0x20)\n      swap1\n      0x05\n      mul\n      add\n      0x00\n      swap1\n      swap2\n      swap1\n      swap2\n      swap1\n      swap2\n      pop\n      0x00\n      dup3\n      add\n      mload\n      dup2\n      0x00\n      add\n      sstore\n      0x20\n      dup3\n      add\n      mload\n      dup2\n      0x01\n      add\n      sstore\n      0x40\n      dup3\n      add\n      mload\n      dup2\n      0x02\n      add\n      exp(0x0100, 0x00)\n      dup2\n      sload\n      dup2\n      0xff\n      mul\n      not\n      and\n      swap1\n      dup4\n      0x01\n      dup2\n      gt\n      iszero\n      tag_80\n      jumpi\n      tag_81\n      tag_31\n      jump\t// in\n    tag_81:\n    tag_80:\n      mul\n      or\n      swap1\n      sstore\n      pop\n      0x60\n      dup3\n      add\n      mload\n      dup2\n      0x03\n      add\n      sstore\n      0x80\n      dup3\n      add\n      mload\n      dup2\n      0x04\n      add\n      sstore\n      pop\n      pop\n        /* \"contracts/ClaimHandling.sol\":1824:1825  _ */\n      pop\n      pop\n        /* \"contracts/ClaimHandling.sol\":1521:1522  _ */\n      pop\n      pop\n        /* \"contracts/ClaimHandling.sol\":492:980  function receiveAClaim(uint customerId, insurancePolicy policyType, uint damagePercentage) public checkIdentity(customerId)\r... */\n      pop\n      pop\n      pop\n      pop\n      jump\t// out\n    tag_16:\n      mload(0x40)\n      dup1\n      0xa0\n      add\n      0x40\n      mstore\n      dup1\n      0x00\n      dup2\n      mstore\n      0x20\n      add\n      0x00\n      dup2\n      mstore\n      0x20\n      add\n      0x00\n      0x01\n      dup2\n      gt\n      iszero\n      tag_82\n      jumpi\n      tag_83\n      tag_31\n      jump\t// in\n    tag_83:\n    tag_82:\n      dup2\n      mstore\n      0x20\n      add\n      0x00\n      dup2\n      mstore\n      0x20\n      add\n      0x00\n      dup2\n      mstore\n      pop\n      swap1\n      jump\t// out\n        /* \"#utility.yul\":7:428   */\n    tag_85:\n        /* \"#utility.yul\":96:101   */\n      0x00\n        /* \"#utility.yul\":121:187   */\n      tag_87\n        /* \"#utility.yul\":137:186   */\n      tag_88\n        /* \"#utility.yul\":179:185   */\n      dup5\n        /* \"#utility.yul\":137:186   */\n      tag_89\n      jump\t// in\n    tag_88:\n        /* \"#utility.yul\":121:187   */\n      tag_90\n      jump\t// in\n    tag_87:\n        /* \"#utility.yul\":112:187   */\n      swap1\n      pop\n        /* \"#utility.yul\":210:216   */\n      dup3\n        /* \"#utility.yul\":203:208   */\n      dup2\n        /* \"#utility.yul\":196:217   */\n      mstore\n        /* \"#utility.yul\":248:252   */\n      0x20\n        /* \"#utility.yul\":241:246   */\n      dup2\n        /* \"#utility.yul\":237:253   */\n      add\n        /* \"#utility.yul\":286:289   */\n      dup5\n        /* \"#utility.yul\":277:283   */\n      dup5\n        /* \"#utility.yul\":272:275   */\n      dup5\n        /* \"#utility.yul\":268:284   */\n      add\n        /* \"#utility.yul\":265:290   */\n      gt\n        /* \"#utility.yul\":262:374   */\n      iszero\n      tag_91\n      jumpi\n        /* \"#utility.yul\":293:372   */\n      tag_92\n      tag_93\n      jump\t// in\n    tag_92:\n        /* \"#utility.yul\":262:374   */\n    tag_91:\n        /* \"#utility.yul\":383:422   */\n      tag_94\n        /* \"#utility.yul\":415:421   */\n      dup5\n        /* \"#utility.yul\":410:413   */\n      dup3\n        /* \"#utility.yul\":405:408   */\n      dup6\n        /* \"#utility.yul\":383:422   */\n      tag_95\n      jump\t// in\n    tag_94:\n        /* \"#utility.yul\":102:428   */\n      pop\n        /* \"#utility.yul\":7:428   */\n      swap4\n      swap3\n      pop\n      pop\n      pop\n      jump\t// out\n        /* \"#utility.yul\":434:577   */\n    tag_96:\n        /* \"#utility.yul\":491:496   */\n      0x00\n        /* \"#utility.yul\":522:528   */\n      dup2\n        /* \"#utility.yul\":516:529   */\n      mload\n        /* \"#utility.yul\":507:529   */\n      swap1\n      pop\n        /* \"#utility.yul\":538:571   */\n      tag_98\n        /* \"#utility.yul\":565:570   */\n      dup2\n        /* \"#utility.yul\":538:571   */\n      tag_99\n      jump\t// in\n    tag_98:\n        /* \"#utility.yul\":434:577   */\n      swap3\n      swap2\n      pop\n      pop\n      jump\t// out\n        /* \"#utility.yul\":583:760   */\n    tag_100:\n        /* \"#utility.yul\":648:653   */\n      0x00\n        /* \"#utility.yul\":686:692   */\n      dup2\n        /* \"#utility.yul\":673:693   */\n      calldataload\n        /* \"#utility.yul\":664:693   */\n      swap1\n      pop\n        /* \"#utility.yul\":702:754   */\n      tag_102\n        /* \"#utility.yul\":748:753   */\n      dup2\n        /* \"#utility.yul\":702:754   */\n      tag_103\n      jump\t// in\n    tag_102:\n        /* \"#utility.yul\":583:760   */\n      swap3\n      swap2\n      pop\n      pop\n      jump\t// out\n        /* \"#utility.yul\":766:947   */\n    tag_104:\n        /* \"#utility.yul\":842:847   */\n      0x00\n        /* \"#utility.yul\":873:879   */\n      dup2\n        /* \"#utility.yul\":867:880   */\n      mload\n        /* \"#utility.yul\":858:880   */\n      swap1\n      pop\n        /* \"#utility.yul\":889:941   */\n      tag_106\n        /* \"#utility.yul\":935:940   */\n      dup2\n        /* \"#utility.yul\":889:941   */\n      tag_103\n      jump\t// in\n    tag_106:\n        /* \"#utility.yul\":766:947   */\n      swap3\n      swap2\n      pop\n      pop\n      jump\t// out\n        /* \"#utility.yul\":967:1322   */\n    tag_107:\n        /* \"#utility.yul\":1034:1039   */\n      0x00\n        /* \"#utility.yul\":1083:1086   */\n      dup3\n        /* \"#utility.yul\":1076:1080   */\n      0x1f\n        /* \"#utility.yul\":1068:1074   */\n      dup4\n        /* \"#utility.yul\":1064:1081   */\n      add\n        /* \"#utility.yul\":1060:1087   */\n      slt\n        /* \"#utility.yul\":1050:1172   */\n      tag_109\n      jumpi\n        /* \"#utility.yul\":1091:1170   */\n      tag_110\n      tag_111\n      jump\t// in\n    tag_110:\n        /* \"#utility.yul\":1050:1172   */\n    tag_109:\n        /* \"#utility.yul\":1201:1207   */\n      dup2\n        /* \"#utility.yul\":1195:1208   */\n      mload\n        /* \"#utility.yul\":1226:1316   */\n      tag_112\n        /* \"#utility.yul\":1312:1315   */\n      dup5\n        /* \"#utility.yul\":1304:1310   */\n      dup3\n        /* \"#utility.yul\":1297:1301   */\n      0x20\n        /* \"#utility.yul\":1289:1295   */\n      dup7\n        /* \"#utility.yul\":1285:1302   */\n      add\n        /* \"#utility.yul\":1226:1316   */\n      tag_85\n      jump\t// in\n    tag_112:\n        /* \"#utility.yul\":1217:1316   */\n      swap2\n      pop\n        /* \"#utility.yul\":1040:1322   */\n      pop\n        /* \"#utility.yul\":967:1322   */\n      swap3\n      swap2\n      pop\n      pop\n      jump\t// out\n        /* \"#utility.yul\":1376:2704   */\n    tag_113:\n        /* \"#utility.yul\":1461:1466   */\n      0x00\n        /* \"#utility.yul\":1505:1509   */\n      0xa0\n        /* \"#utility.yul\":1493:1502   */\n      dup3\n        /* \"#utility.yul\":1488:1491   */\n      dup5\n        /* \"#utility.yul\":1484:1503   */\n      sub\n        /* \"#utility.yul\":1480:1510   */\n      slt\n        /* \"#utility.yul\":1477:1594   */\n      iszero\n      tag_115\n      jumpi\n        /* \"#utility.yul\":1513:1592   */\n      tag_116\n      tag_117\n      jump\t// in\n    tag_116:\n        /* \"#utility.yul\":1477:1594   */\n    tag_115:\n        /* \"#utility.yul\":1612:1633   */\n      tag_118\n        /* \"#utility.yul\":1628:1632   */\n      0xa0\n        /* \"#utility.yul\":1612:1633   */\n      tag_90\n      jump\t// in\n    tag_118:\n        /* \"#utility.yul\":1603:1633   */\n      swap1\n      pop\n        /* \"#utility.yul\":1690:1691   */\n      0x00\n        /* \"#utility.yul\":1730:1790   */\n      tag_119\n        /* \"#utility.yul\":1786:1789   */\n      dup5\n        /* \"#utility.yul\":1777:1783   */\n      dup3\n        /* \"#utility.yul\":1766:1775   */\n      dup6\n        /* \"#utility.yul\":1762:1784   */\n      add\n        /* \"#utility.yul\":1730:1790   */\n      tag_120\n      jump\t// in\n    tag_119:\n        /* \"#utility.yul\":1723:1727   */\n      0x00\n        /* \"#utility.yul\":1716:1721   */\n      dup4\n        /* \"#utility.yul\":1712:1728   */\n      add\n        /* \"#utility.yul\":1705:1791   */\n      mstore\n        /* \"#utility.yul\":1643:1802   */\n      pop\n        /* \"#utility.yul\":1882:1884   */\n      0x20\n        /* \"#utility.yul\":1871:1880   */\n      dup3\n        /* \"#utility.yul\":1867:1885   */\n      add\n        /* \"#utility.yul\":1861:1886   */\n      mload\n        /* \"#utility.yul\":1913:1931   */\n      0xffffffffffffffff\n        /* \"#utility.yul\":1905:1911   */\n      dup2\n        /* \"#utility.yul\":1902:1932   */\n      gt\n        /* \"#utility.yul\":1899:2016   */\n      iszero\n      tag_121\n      jumpi\n        /* \"#utility.yul\":1935:2014   */\n      tag_122\n      tag_123\n      jump\t// in\n    tag_122:\n        /* \"#utility.yul\":1899:2016   */\n    tag_121:\n        /* \"#utility.yul\":2055:2125   */\n      tag_124\n        /* \"#utility.yul\":2121:2124   */\n      dup5\n        /* \"#utility.yul\":2112:2118   */\n      dup3\n        /* \"#utility.yul\":2101:2110   */\n      dup6\n        /* \"#utility.yul\":2097:2119   */\n      add\n        /* \"#utility.yul\":2055:2125   */\n      tag_107\n      jump\t// in\n    tag_124:\n        /* \"#utility.yul\":2048:2052   */\n      0x20\n        /* \"#utility.yul\":2041:2046   */\n      dup4\n        /* \"#utility.yul\":2037:2053   */\n      add\n        /* \"#utility.yul\":2030:2126   */\n      mstore\n        /* \"#utility.yul\":1812:2137   */\n      pop\n        /* \"#utility.yul\":2202:2204   */\n      0x40\n        /* \"#utility.yul\":2243:2322   */\n      tag_125\n        /* \"#utility.yul\":2318:2321   */\n      dup5\n        /* \"#utility.yul\":2309:2315   */\n      dup3\n        /* \"#utility.yul\":2298:2307   */\n      dup6\n        /* \"#utility.yul\":2294:2316   */\n      add\n        /* \"#utility.yul\":2243:2322   */\n      tag_104\n      jump\t// in\n    tag_125:\n        /* \"#utility.yul\":2236:2240   */\n      0x40\n        /* \"#utility.yul\":2229:2234   */\n      dup4\n        /* \"#utility.yul\":2225:2241   */\n      add\n        /* \"#utility.yul\":2218:2323   */\n      mstore\n        /* \"#utility.yul\":2147:2334   */\n      pop\n        /* \"#utility.yul\":2401:2403   */\n      0x60\n        /* \"#utility.yul\":2442:2502   */\n      tag_126\n        /* \"#utility.yul\":2498:2501   */\n      dup5\n        /* \"#utility.yul\":2489:2495   */\n      dup3\n        /* \"#utility.yul\":2478:2487   */\n      dup6\n        /* \"#utility.yul\":2474:2496   */\n      add\n        /* \"#utility.yul\":2442:2502   */\n      tag_120\n      jump\t// in\n    tag_126:\n        /* \"#utility.yul\":2435:2439   */\n      0x60\n        /* \"#utility.yul\":2428:2433   */\n      dup4\n        /* \"#utility.yul\":2424:2440   */\n      add\n        /* \"#utility.yul\":2417:2503   */\n      mstore\n        /* \"#utility.yul\":2344:2514   */\n      pop\n        /* \"#utility.yul\":2583:2586   */\n      0x80\n        /* \"#utility.yul\":2625:2685   */\n      tag_127\n        /* \"#utility.yul\":2681:2684   */\n      dup5\n        /* \"#utility.yul\":2672:2678   */\n      dup3\n        /* \"#utility.yul\":2661:2670   */\n      dup6\n        /* \"#utility.yul\":2657:2679   */\n      add\n        /* \"#utility.yul\":2625:2685   */\n      tag_96\n      jump\t// in\n    tag_127:\n        /* \"#utility.yul\":2618:2622   */\n      0x80\n        /* \"#utility.yul\":2611:2616   */\n      dup4\n        /* \"#utility.yul\":2607:2623   */\n      add\n        /* \"#utility.yul\":2600:2686   */\n      mstore\n        /* \"#utility.yul\":2524:2697   */\n      pop\n        /* \"#utility.yul\":1376:2704   */\n      swap3\n      swap2\n      pop\n      pop\n      jump\t// out\n        /* \"#utility.yul\":2710:2849   */\n    tag_128:\n        /* \"#utility.yul\":2756:2761   */\n      0x00\n        /* \"#utility.yul\":2794:2800   */\n      dup2\n        /* \"#utility.yul\":2781:2801   */\n      calldataload\n        /* \"#utility.yul\":2772:2801   */\n      swap1\n      pop\n        /* \"#utility.yul\":2810:2843   */\n      tag_130\n        /* \"#utility.yul\":2837:2842   */\n      dup2\n        /* \"#utility.yul\":2810:2843   */\n      tag_131\n      jump\t// in\n    tag_130:\n        /* \"#utility.yul\":2710:2849   */\n      swap3\n      swap2\n      pop\n      pop\n      jump\t// out\n        /* \"#utility.yul\":2855:2998   */\n    tag_120:\n        /* \"#utility.yul\":2912:2917   */\n      0x00\n        /* \"#utility.yul\":2943:2949   */\n      dup2\n        /* \"#utility.yul\":2937:2950   */\n      mload\n        /* \"#utility.yul\":2928:2950   */\n      swap1\n      pop\n        /* \"#utility.yul\":2959:2992   */\n      tag_133\n        /* \"#utility.yul\":2986:2991   */\n      dup2\n        /* \"#utility.yul\":2959:2992   */\n      tag_131\n      jump\t// in\n    tag_133:\n        /* \"#utility.yul\":2855:2998   */\n      swap3\n      swap2\n      pop\n      pop\n      jump\t// out\n        /* \"#utility.yul\":3004:3558   */\n    tag_43:\n        /* \"#utility.yul\":3099:3105   */\n      0x00\n        /* \"#utility.yul\":3148:3150   */\n      0x20\n        /* \"#utility.yul\":3136:3145   */\n      dup3\n        /* \"#utility.yul\":3127:3134   */\n      dup5\n        /* \"#utility.yul\":3123:3146   */\n      sub\n        /* \"#utility.yul\":3119:3151   */\n      slt\n        /* \"#utility.yul\":3116:3235   */\n      iszero\n      tag_135\n      jumpi\n        /* \"#utility.yul\":3154:3233   */\n      tag_136\n      tag_137\n      jump\t// in\n    tag_136:\n        /* \"#utility.yul\":3116:3235   */\n    tag_135:\n        /* \"#utility.yul\":3295:3296   */\n      0x00\n        /* \"#utility.yul\":3284:3293   */\n      dup3\n        /* \"#utility.yul\":3280:3297   */\n      add\n        /* \"#utility.yul\":3274:3298   */\n      mload\n        /* \"#utility.yul\":3325:3343   */\n      0xffffffffffffffff\n        /* \"#utility.yul\":3317:3323   */\n      dup2\n        /* \"#utility.yul\":3314:3344   */\n      gt\n        /* \"#utility.yul\":3311:3428   */\n      iszero\n      tag_138\n      jumpi\n        /* \"#utility.yul\":3347:3426   */\n      tag_139\n      tag_140\n      jump\t// in\n    tag_139:\n        /* \"#utility.yul\":3311:3428   */\n    tag_138:\n        /* \"#utility.yul\":3452:3541   */\n      tag_141\n        /* \"#utility.yul\":3533:3540   */\n      dup5\n        /* \"#utility.yul\":3524:3530   */\n      dup3\n        /* \"#utility.yul\":3513:3522   */\n      dup6\n        /* \"#utility.yul\":3509:3531   */\n      add\n        /* \"#utility.yul\":3452:3541   */\n      tag_113\n      jump\t// in\n    tag_141:\n        /* \"#utility.yul\":3442:3541   */\n      swap2\n      pop\n        /* \"#utility.yul\":3245:3551   */\n      pop\n        /* \"#utility.yul\":3004:3558   */\n      swap3\n      swap2\n      pop\n      pop\n      jump\t// out\n        /* \"#utility.yul\":3564:3893   */\n    tag_7:\n        /* \"#utility.yul\":3623:3629   */\n      0x00\n        /* \"#utility.yul\":3672:3674   */\n      0x20\n        /* \"#utility.yul\":3660:3669   */\n      dup3\n        /* \"#utility.yul\":3651:3658   */\n      dup5\n        /* \"#utility.yul\":3647:3670   */\n      sub\n        /* \"#utility.yul\":3643:3675   */\n      slt\n        /* \"#utility.yul\":3640:3759   */\n      iszero\n      tag_143\n      jumpi\n        /* \"#utility.yul\":3678:3757   */\n      tag_144\n      tag_137\n      jump\t// in\n    tag_144:\n        /* \"#utility.yul\":3640:3759   */\n    tag_143:\n        /* \"#utility.yul\":3798:3799   */\n      0x00\n        /* \"#utility.yul\":3823:3876   */\n      tag_145\n        /* \"#utility.yul\":3868:3875   */\n      dup5\n        /* \"#utility.yul\":3859:3865   */\n      dup3\n        /* \"#utility.yul\":3848:3857   */\n      dup6\n        /* \"#utility.yul\":3844:3866   */\n      add\n        /* \"#utility.yul\":3823:3876   */\n      tag_128\n      jump\t// in\n    tag_145:\n        /* \"#utility.yul\":3813:3876   */\n      swap2\n      pop\n        /* \"#utility.yul\":3769:3886   */\n      pop\n        /* \"#utility.yul\":3564:3893   */\n      swap3\n      swap2\n      pop\n      pop\n      jump\t// out\n        /* \"#utility.yul\":3899:4556   */\n    tag_13:\n        /* \"#utility.yul\":3995:4001   */\n      0x00\n        /* \"#utility.yul\":4003:4009   */\n      dup1\n        /* \"#utility.yul\":4011:4017   */\n      0x00\n        /* \"#utility.yul\":4060:4062   */\n      0x60\n        /* \"#utility.yul\":4048:4057   */\n      dup5\n        /* \"#utility.yul\":4039:4046   */\n      dup7\n        /* \"#utility.yul\":4035:4058   */\n      sub\n        /* \"#utility.yul\":4031:4063   */\n      slt\n        /* \"#utility.yul\":4028:4147   */\n      iszero\n      tag_147\n      jumpi\n        /* \"#utility.yul\":4066:4145   */\n      tag_148\n      tag_137\n      jump\t// in\n    tag_148:\n        /* \"#utility.yul\":4028:4147   */\n    tag_147:\n        /* \"#utility.yul\":4186:4187   */\n      0x00\n        /* \"#utility.yul\":4211:4264   */\n      tag_149\n        /* \"#utility.yul\":4256:4263   */\n      dup7\n        /* \"#utility.yul\":4247:4253   */\n      dup3\n        /* \"#utility.yul\":4236:4245   */\n      dup8\n        /* \"#utility.yul\":4232:4254   */\n      add\n        /* \"#utility.yul\":4211:4264   */\n      tag_128\n      jump\t// in\n    tag_149:\n        /* \"#utility.yul\":4201:4264   */\n      swap4\n      pop\n        /* \"#utility.yul\":4157:4274   */\n      pop\n        /* \"#utility.yul\":4313:4315   */\n      0x20\n        /* \"#utility.yul\":4339:4411   */\n      tag_150\n        /* \"#utility.yul\":4403:4410   */\n      dup7\n        /* \"#utility.yul\":4394:4400   */\n      dup3\n        /* \"#utility.yul\":4383:4392   */\n      dup8\n        /* \"#utility.yul\":4379:4401   */\n      add\n        /* \"#utility.yul\":4339:4411   */\n      tag_100\n      jump\t// in\n    tag_150:\n        /* \"#utility.yul\":4329:4411   */\n      swap3\n      pop\n        /* \"#utility.yul\":4284:4421   */\n      pop\n        /* \"#utility.yul\":4460:4462   */\n      0x40\n        /* \"#utility.yul\":4486:4539   */\n      tag_151\n        /* \"#utility.yul\":4531:4538   */\n      dup7\n        /* \"#utility.yul\":4522:4528   */\n      dup3\n        /* \"#utility.yul\":4511:4520   */\n      dup8\n        /* \"#utility.yul\":4507:4529   */\n      add\n        /* \"#utility.yul\":4486:4539   */\n      tag_128\n      jump\t// in\n    tag_151:\n        /* \"#utility.yul\":4476:4539   */\n      swap2\n      pop\n        /* \"#utility.yul\":4431:4549   */\n      pop\n        /* \"#utility.yul\":3899:4556   */\n      swap3\n      pop\n      swap3\n      pop\n      swap3\n      jump\t// out\n        /* \"#utility.yul\":4562:4717   */\n    tag_152:\n        /* \"#utility.yul\":4656:4710   */\n      tag_154\n        /* \"#utility.yul\":4704:4709   */\n      dup2\n        /* \"#utility.yul\":4656:4710   */\n      tag_155\n      jump\t// in\n    tag_154:\n        /* \"#utility.yul\":4651:4654   */\n      dup3\n        /* \"#utility.yul\":4644:4711   */\n      mstore\n        /* \"#utility.yul\":4562:4717   */\n      pop\n      pop\n      jump\t// out\n        /* \"#utility.yul\":4723:5089   */\n    tag_156:\n        /* \"#utility.yul\":4865:4868   */\n      0x00\n        /* \"#utility.yul\":4886:4953   */\n      tag_158\n        /* \"#utility.yul\":4950:4952   */\n      0x2e\n        /* \"#utility.yul\":4945:4948   */\n      dup4\n        /* \"#utility.yul\":4886:4953   */\n      tag_159\n      jump\t// in\n    tag_158:\n        /* \"#utility.yul\":4879:4953   */\n      swap2\n      pop\n        /* \"#utility.yul\":4962:5055   */\n      tag_160\n        /* \"#utility.yul\":5051:5054   */\n      dup3\n        /* \"#utility.yul\":4962:5055   */\n      tag_161\n      jump\t// in\n    tag_160:\n        /* \"#utility.yul\":5080:5082   */\n      0x40\n        /* \"#utility.yul\":5075:5078   */\n      dup3\n        /* \"#utility.yul\":5071:5083   */\n      add\n        /* \"#utility.yul\":5064:5083   */\n      swap1\n      pop\n        /* \"#utility.yul\":4723:5089   */\n      swap2\n      swap1\n      pop\n      jump\t// out\n        /* \"#utility.yul\":5095:5461   */\n    tag_162:\n        /* \"#utility.yul\":5237:5240   */\n      0x00\n        /* \"#utility.yul\":5258:5325   */\n      tag_164\n        /* \"#utility.yul\":5322:5324   */\n      0x35\n        /* \"#utility.yul\":5317:5320   */\n      dup4\n        /* \"#utility.yul\":5258:5325   */\n      tag_159\n      jump\t// in\n    tag_164:\n        /* \"#utility.yul\":5251:5325   */\n      swap2\n      pop\n        /* \"#utility.yul\":5334:5427   */\n      tag_165\n        /* \"#utility.yul\":5423:5426   */\n      dup3\n        /* \"#utility.yul\":5334:5427   */\n      tag_166\n      jump\t// in\n    tag_165:\n        /* \"#utility.yul\":5452:5454   */\n      0x40\n        /* \"#utility.yul\":5447:5450   */\n      dup3\n        /* \"#utility.yul\":5443:5455   */\n      add\n        /* \"#utility.yul\":5436:5455   */\n      swap1\n      pop\n        /* \"#utility.yul\":5095:5461   */\n      swap2\n      swap1\n      pop\n      jump\t// out\n        /* \"#utility.yul\":5467:5833   */\n    tag_167:\n        /* \"#utility.yul\":5609:5612   */\n      0x00\n        /* \"#utility.yul\":5630:5697   */\n      tag_169\n        /* \"#utility.yul\":5694:5696   */\n      0x2e\n        /* \"#utility.yul\":5689:5692   */\n      dup4\n        /* \"#utility.yul\":5630:5697   */\n      tag_159\n      jump\t// in\n    tag_169:\n        /* \"#utility.yul\":5623:5697   */\n      swap2\n      pop\n        /* \"#utility.yul\":5706:5799   */\n      tag_170\n        /* \"#utility.yul\":5795:5798   */\n      dup3\n        /* \"#utility.yul\":5706:5799   */\n      tag_171\n      jump\t// in\n    tag_170:\n        /* \"#utility.yul\":5824:5826   */\n      0x40\n        /* \"#utility.yul\":5819:5822   */\n      dup3\n        /* \"#utility.yul\":5815:5827   */\n      add\n        /* \"#utility.yul\":5808:5827   */\n      swap1\n      pop\n        /* \"#utility.yul\":5467:5833   */\n      swap2\n      swap1\n      pop\n      jump\t// out\n        /* \"#utility.yul\":5839:6205   */\n    tag_172:\n        /* \"#utility.yul\":5981:5984   */\n      0x00\n        /* \"#utility.yul\":6002:6069   */\n      tag_174\n        /* \"#utility.yul\":6066:6068   */\n      0x13\n        /* \"#utility.yul\":6061:6064   */\n      dup4\n        /* \"#utility.yul\":6002:6069   */\n      tag_159\n      jump\t// in\n    tag_174:\n        /* \"#utility.yul\":5995:6069   */\n      swap2\n      pop\n        /* \"#utility.yul\":6078:6171   */\n      tag_175\n        /* \"#utility.yul\":6167:6170   */\n      dup3\n        /* \"#utility.yul\":6078:6171   */\n      tag_176\n      jump\t// in\n    tag_175:\n        /* \"#utility.yul\":6196:6198   */\n      0x20\n        /* \"#utility.yul\":6191:6194   */\n      dup3\n        /* \"#utility.yul\":6187:6199   */\n      add\n        /* \"#utility.yul\":6180:6199   */\n      swap1\n      pop\n        /* \"#utility.yul\":5839:6205   */\n      swap2\n      swap1\n      pop\n      jump\t// out\n        /* \"#utility.yul\":6211:6577   */\n    tag_177:\n        /* \"#utility.yul\":6353:6356   */\n      0x00\n        /* \"#utility.yul\":6374:6441   */\n      tag_179\n        /* \"#utility.yul\":6438:6440   */\n      0x13\n        /* \"#utility.yul\":6433:6436   */\n      dup4\n        /* \"#utility.yul\":6374:6441   */\n      tag_159\n      jump\t// in\n    tag_179:\n        /* \"#utility.yul\":6367:6441   */\n      swap2\n      pop\n        /* \"#utility.yul\":6450:6543   */\n      tag_180\n        /* \"#utility.yul\":6539:6542   */\n      dup3\n        /* \"#utility.yul\":6450:6543   */\n      tag_181\n      jump\t// in\n    tag_180:\n        /* \"#utility.yul\":6568:6570   */\n      0x20\n        /* \"#utility.yul\":6563:6566   */\n      dup3\n        /* \"#utility.yul\":6559:6571   */\n      add\n        /* \"#utility.yul\":6552:6571   */\n      swap1\n      pop\n        /* \"#utility.yul\":6211:6577   */\n      swap2\n      swap1\n      pop\n      jump\t// out\n        /* \"#utility.yul\":6583:6949   */\n    tag_182:\n        /* \"#utility.yul\":6725:6728   */\n      0x00\n        /* \"#utility.yul\":6746:6813   */\n      tag_184\n        /* \"#utility.yul\":6810:6812   */\n      0x1f\n        /* \"#utility.yul\":6805:6808   */\n      dup4\n        /* \"#utility.yul\":6746:6813   */\n      tag_159\n      jump\t// in\n    tag_184:\n        /* \"#utility.yul\":6739:6813   */\n      swap2\n      pop\n        /* \"#utility.yul\":6822:6915   */\n      tag_185\n        /* \"#utility.yul\":6911:6914   */\n      dup3\n        /* \"#utility.yul\":6822:6915   */\n      tag_186\n      jump\t// in\n    tag_185:\n        /* \"#utility.yul\":6940:6942   */\n      0x20\n        /* \"#utility.yul\":6935:6938   */\n      dup3\n        /* \"#utility.yul\":6931:6943   */\n      add\n        /* \"#utility.yul\":6924:6943   */\n      swap1\n      pop\n        /* \"#utility.yul\":6583:6949   */\n      swap2\n      swap1\n      pop\n      jump\t// out\n        /* \"#utility.yul\":7041:8108   */\n    tag_187:\n        /* \"#utility.yul\":7182:7186   */\n      0xa0\n        /* \"#utility.yul\":7177:7180   */\n      dup3\n        /* \"#utility.yul\":7173:7187   */\n      add\n        /* \"#utility.yul\":7267:7271   */\n      0x00\n        /* \"#utility.yul\":7260:7265   */\n      dup3\n        /* \"#utility.yul\":7256:7272   */\n      add\n        /* \"#utility.yul\":7250:7273   */\n      mload\n        /* \"#utility.yul\":7286:7349   */\n      tag_189\n        /* \"#utility.yul\":7343:7347   */\n      0x00\n        /* \"#utility.yul\":7338:7341   */\n      dup6\n        /* \"#utility.yul\":7334:7348   */\n      add\n        /* \"#utility.yul\":7320:7332   */\n      dup3\n        /* \"#utility.yul\":7286:7349   */\n      tag_190\n      jump\t// in\n    tag_189:\n        /* \"#utility.yul\":7197:7359   */\n      pop\n        /* \"#utility.yul\":7447:7451   */\n      0x20\n        /* \"#utility.yul\":7440:7445   */\n      dup3\n        /* \"#utility.yul\":7436:7452   */\n      add\n        /* \"#utility.yul\":7430:7453   */\n      mload\n        /* \"#utility.yul\":7466:7529   */\n      tag_191\n        /* \"#utility.yul\":7523:7527   */\n      0x20\n        /* \"#utility.yul\":7518:7521   */\n      dup6\n        /* \"#utility.yul\":7514:7528   */\n      add\n        /* \"#utility.yul\":7500:7512   */\n      dup3\n        /* \"#utility.yul\":7466:7529   */\n      tag_190\n      jump\t// in\n    tag_191:\n        /* \"#utility.yul\":7369:7539   */\n      pop\n        /* \"#utility.yul\":7627:7631   */\n      0x40\n        /* \"#utility.yul\":7620:7625   */\n      dup3\n        /* \"#utility.yul\":7616:7632   */\n      add\n        /* \"#utility.yul\":7610:7633   */\n      mload\n        /* \"#utility.yul\":7646:7726   */\n      tag_192\n        /* \"#utility.yul\":7720:7724   */\n      0x40\n        /* \"#utility.yul\":7715:7718   */\n      dup6\n        /* \"#utility.yul\":7711:7725   */\n      add\n        /* \"#utility.yul\":7697:7709   */\n      dup3\n        /* \"#utility.yul\":7646:7726   */\n      tag_152\n      jump\t// in\n    tag_192:\n        /* \"#utility.yul\":7549:7736   */\n      pop\n        /* \"#utility.yul\":7823:7827   */\n      0x60\n        /* \"#utility.yul\":7816:7821   */\n      dup3\n        /* \"#utility.yul\":7812:7828   */\n      add\n        /* \"#utility.yul\":7806:7829   */\n      mload\n        /* \"#utility.yul\":7842:7905   */\n      tag_193\n        /* \"#utility.yul\":7899:7903   */\n      0x60\n        /* \"#utility.yul\":7894:7897   */\n      dup6\n        /* \"#utility.yul\":7890:7904   */\n      add\n        /* \"#utility.yul\":7876:7888   */\n      dup3\n        /* \"#utility.yul\":7842:7905   */\n      tag_190\n      jump\t// in\n    tag_193:\n        /* \"#utility.yul\":7746:7915   */\n      pop\n        /* \"#utility.yul\":8009:8013   */\n      0x80\n        /* \"#utility.yul\":8002:8007   */\n      dup3\n        /* \"#utility.yul\":7998:8014   */\n      add\n        /* \"#utility.yul\":7992:8015   */\n      mload\n        /* \"#utility.yul\":8028:8091   */\n      tag_194\n        /* \"#utility.yul\":8085:8089   */\n      0x80\n        /* \"#utility.yul\":8080:8083   */\n      dup6\n        /* \"#utility.yul\":8076:8090   */\n      add\n        /* \"#utility.yul\":8062:8074   */\n      dup3\n        /* \"#utility.yul\":8028:8091   */\n      tag_190\n      jump\t// in\n    tag_194:\n        /* \"#utility.yul\":7925:8101   */\n      pop\n        /* \"#utility.yul\":7151:8108   */\n      pop\n        /* \"#utility.yul\":7041:8108   */\n      pop\n      pop\n      jump\t// out\n        /* \"#utility.yul\":8114:8222   */\n    tag_190:\n        /* \"#utility.yul\":8191:8215   */\n      tag_196\n        /* \"#utility.yul\":8209:8214   */\n      dup2\n        /* \"#utility.yul\":8191:8215   */\n      tag_197\n      jump\t// in\n    tag_196:\n        /* \"#utility.yul\":8186:8189   */\n      dup3\n        /* \"#utility.yul\":8179:8216   */\n      mstore\n        /* \"#utility.yul\":8114:8222   */\n      pop\n      pop\n      jump\t// out\n        /* \"#utility.yul\":8228:8346   */\n    tag_198:\n        /* \"#utility.yul\":8315:8339   */\n      tag_200\n        /* \"#utility.yul\":8333:8338   */\n      dup2\n        /* \"#utility.yul\":8315:8339   */\n      tag_197\n      jump\t// in\n    tag_200:\n        /* \"#utility.yul\":8310:8313   */\n      dup3\n        /* \"#utility.yul\":8303:8340   */\n      mstore\n        /* \"#utility.yul\":8228:8346   */\n      pop\n      pop\n      jump\t// out\n        /* \"#utility.yul\":8352:8771   */\n    tag_74:\n        /* \"#utility.yul\":8518:8522   */\n      0x00\n        /* \"#utility.yul\":8556:8558   */\n      0x20\n        /* \"#utility.yul\":8545:8554   */\n      dup3\n        /* \"#utility.yul\":8541:8559   */\n      add\n        /* \"#utility.yul\":8533:8559   */\n      swap1\n      pop\n        /* \"#utility.yul\":8605:8614   */\n      dup2\n        /* \"#utility.yul\":8599:8603   */\n      dup2\n        /* \"#utility.yul\":8595:8615   */\n      sub\n        /* \"#utility.yul\":8591:8592   */\n      0x00\n        /* \"#utility.yul\":8580:8589   */\n      dup4\n        /* \"#utility.yul\":8576:8593   */\n      add\n        /* \"#utility.yul\":8569:8616   */\n      mstore\n        /* \"#utility.yul\":8633:8764   */\n      tag_202\n        /* \"#utility.yul\":8759:8763   */\n      dup2\n        /* \"#utility.yul\":8633:8764   */\n      tag_156\n      jump\t// in\n    tag_202:\n        /* \"#utility.yul\":8625:8764   */\n      swap1\n      pop\n        /* \"#utility.yul\":8352:8771   */\n      swap2\n      swap1\n      pop\n      jump\t// out\n        /* \"#utility.yul\":8777:9196   */\n    tag_59:\n        /* \"#utility.yul\":8943:8947   */\n      0x00\n        /* \"#utility.yul\":8981:8983   */\n      0x20\n        /* \"#utility.yul\":8970:8979   */\n      dup3\n        /* \"#utility.yul\":8966:8984   */\n      add\n        /* \"#utility.yul\":8958:8984   */\n      swap1\n      pop\n        /* \"#utility.yul\":9030:9039   */\n      dup2\n        /* \"#utility.yul\":9024:9028   */\n      dup2\n        /* \"#utility.yul\":9020:9040   */\n      sub\n        /* \"#utility.yul\":9016:9017   */\n      0x00\n        /* \"#utility.yul\":9005:9014   */\n      dup4\n        /* \"#utility.yul\":9001:9018   */\n      add\n        /* \"#utility.yul\":8994:9041   */\n      mstore\n        /* \"#utility.yul\":9058:9189   */\n      tag_204\n        /* \"#utility.yul\":9184:9188   */\n      dup2\n        /* \"#utility.yul\":9058:9189   */\n      tag_162\n      jump\t// in\n    tag_204:\n        /* \"#utility.yul\":9050:9189   */\n      swap1\n      pop\n        /* \"#utility.yul\":8777:9196   */\n      swap2\n      swap1\n      pop\n      jump\t// out\n        /* \"#utility.yul\":9202:9621   */\n    tag_72:\n        /* \"#utility.yul\":9368:9372   */\n      0x00\n        /* \"#utility.yul\":9406:9408   */\n      0x20\n        /* \"#utility.yul\":9395:9404   */\n      dup3\n        /* \"#utility.yul\":9391:9409   */\n      add\n        /* \"#utility.yul\":9383:9409   */\n      swap1\n      pop\n        /* \"#utility.yul\":9455:9464   */\n      dup2\n        /* \"#utility.yul\":9449:9453   */\n      dup2\n        /* \"#utility.yul\":9445:9465   */\n      sub\n        /* \"#utility.yul\":9441:9442   */\n      0x00\n        /* \"#utility.yul\":9430:9439   */\n      dup4\n        /* \"#utility.yul\":9426:9443   */\n      add\n        /* \"#utility.yul\":9419:9466   */\n      mstore\n        /* \"#utility.yul\":9483:9614   */\n      tag_206\n        /* \"#utility.yul\":9609:9613   */\n      dup2\n        /* \"#utility.yul\":9483:9614   */\n      tag_167\n      jump\t// in\n    tag_206:\n        /* \"#utility.yul\":9475:9614   */\n      swap1\n      pop\n        /* \"#utility.yul\":9202:9621   */\n      swap2\n      swap1\n      pop\n      jump\t// out\n        /* \"#utility.yul\":9627:10046   */\n    tag_46:\n        /* \"#utility.yul\":9793:9797   */\n      0x00\n        /* \"#utility.yul\":9831:9833   */\n      0x20\n        /* \"#utility.yul\":9820:9829   */\n      dup3\n        /* \"#utility.yul\":9816:9834   */\n      add\n        /* \"#utility.yul\":9808:9834   */\n      swap1\n      pop\n        /* \"#utility.yul\":9880:9889   */\n      dup2\n        /* \"#utility.yul\":9874:9878   */\n      dup2\n        /* \"#utility.yul\":9870:9890   */\n      sub\n        /* \"#utility.yul\":9866:9867   */\n      0x00\n        /* \"#utility.yul\":9855:9864   */\n      dup4\n        /* \"#utility.yul\":9851:9868   */\n      add\n        /* \"#utility.yul\":9844:9891   */\n      mstore\n        /* \"#utility.yul\":9908:10039   */\n      tag_208\n        /* \"#utility.yul\":10034:10038   */\n      dup2\n        /* \"#utility.yul\":9908:10039   */\n      tag_172\n      jump\t// in\n    tag_208:\n        /* \"#utility.yul\":9900:10039   */\n      swap1\n      pop\n        /* \"#utility.yul\":9627:10046   */\n      swap2\n      swap1\n      pop\n      jump\t// out\n        /* \"#utility.yul\":10052:10471   */\n    tag_57:\n        /* \"#utility.yul\":10218:10222   */\n      0x00\n        /* \"#utility.yul\":10256:10258   */\n      0x20\n        /* \"#utility.yul\":10245:10254   */\n      dup3\n        /* \"#utility.yul\":10241:10259   */\n      add\n        /* \"#utility.yul\":10233:10259   */\n      swap1\n      pop\n        /* \"#utility.yul\":10305:10314   */\n      dup2\n        /* \"#utility.yul\":10299:10303   */\n      dup2\n        /* \"#utility.yul\":10295:10315   */\n      sub\n        /* \"#utility.yul\":10291:10292   */\n      0x00\n        /* \"#utility.yul\":10280:10289   */\n      dup4\n        /* \"#utility.yul\":10276:10293   */\n      add\n        /* \"#utility.yul\":10269:10316   */\n      mstore\n        /* \"#utility.yul\":10333:10464   */\n      tag_210\n        /* \"#utility.yul\":10459:10463   */\n      dup2\n        /* \"#utility.yul\":10333:10464   */\n      tag_177\n      jump\t// in\n    tag_210:\n        /* \"#utility.yul\":10325:10464   */\n      swap1\n      pop\n        /* \"#utility.yul\":10052:10471   */\n      swap2\n      swap1\n      pop\n      jump\t// out\n        /* \"#utility.yul\":10477:10896   */\n    tag_48:\n        /* \"#utility.yul\":10643:10647   */\n      0x00\n        /* \"#utility.yul\":10681:10683   */\n      0x20\n        /* \"#utility.yul\":10670:10679   */\n      dup3\n        /* \"#utility.yul\":10666:10684   */\n      add\n        /* \"#utility.yul\":10658:10684   */\n      swap1\n      pop\n        /* \"#utility.yul\":10730:10739   */\n      dup2\n        /* \"#utility.yul\":10724:10728   */\n      dup2\n        /* \"#utility.yul\":10720:10740   */\n      sub\n        /* \"#utility.yul\":10716:10717   */\n      0x00\n        /* \"#utility.yul\":10705:10714   */\n      dup4\n        /* \"#utility.yul\":10701:10718   */\n      add\n        /* \"#utility.yul\":10694:10741   */\n      mstore\n        /* \"#utility.yul\":10758:10889   */\n      tag_212\n        /* \"#utility.yul\":10884:10888   */\n      dup2\n        /* \"#utility.yul\":10758:10889   */\n      tag_182\n      jump\t// in\n    tag_212:\n        /* \"#utility.yul\":10750:10889   */\n      swap1\n      pop\n        /* \"#utility.yul\":10477:10896   */\n      swap2\n      swap1\n      pop\n      jump\t// out\n        /* \"#utility.yul\":10902:11213   */\n    tag_10:\n        /* \"#utility.yul\":11039:11043   */\n      0x00\n        /* \"#utility.yul\":11077:11080   */\n      0xa0\n        /* \"#utility.yul\":11066:11075   */\n      dup3\n        /* \"#utility.yul\":11062:11081   */\n      add\n        /* \"#utility.yul\":11054:11081   */\n      swap1\n      pop\n        /* \"#utility.yul\":11091:11206   */\n      tag_214\n        /* \"#utility.yul\":11203:11204   */\n      0x00\n        /* \"#utility.yul\":11192:11201   */\n      dup4\n        /* \"#utility.yul\":11188:11205   */\n      add\n        /* \"#utility.yul\":11179:11185   */\n      dup5\n        /* \"#utility.yul\":11091:11206   */\n      tag_187\n      jump\t// in\n    tag_214:\n        /* \"#utility.yul\":10902:11213   */\n      swap3\n      swap2\n      pop\n      pop\n      jump\t// out\n        /* \"#utility.yul\":11219:11441   */\n    tag_38:\n        /* \"#utility.yul\":11312:11316   */\n      0x00\n        /* \"#utility.yul\":11350:11352   */\n      0x20\n        /* \"#utility.yul\":11339:11348   */\n      dup3\n        /* \"#utility.yul\":11335:11353   */\n      add\n        /* \"#utility.yul\":11327:11353   */\n      swap1\n      pop\n        /* \"#utility.yul\":11363:11434   */\n      tag_216\n        /* \"#utility.yul\":11431:11432   */\n      0x00\n        /* \"#utility.yul\":11420:11429   */\n      dup4\n        /* \"#utility.yul\":11416:11433   */\n      add\n        /* \"#utility.yul\":11407:11413   */\n      dup5\n        /* \"#utility.yul\":11363:11434   */\n      tag_198\n      jump\t// in\n    tag_216:\n        /* \"#utility.yul\":11219:11441   */\n      swap3\n      swap2\n      pop\n      pop\n      jump\t// out\n        /* \"#utility.yul\":11447:11576   */\n    tag_90:\n        /* \"#utility.yul\":11481:11487   */\n      0x00\n        /* \"#utility.yul\":11508:11528   */\n      tag_218\n      tag_219\n      jump\t// in\n    tag_218:\n        /* \"#utility.yul\":11498:11528   */\n      swap1\n      pop\n        /* \"#utility.yul\":11537:11570   */\n      tag_220\n        /* \"#utility.yul\":11565:11569   */\n      dup3\n        /* \"#utility.yul\":11557:11563   */\n      dup3\n        /* \"#utility.yul\":11537:11570   */\n      tag_221\n      jump\t// in\n    tag_220:\n        /* \"#utility.yul\":11447:11576   */\n      swap2\n      swap1\n      pop\n      jump\t// out\n        /* \"#utility.yul\":11582:11657   */\n    tag_219:\n        /* \"#utility.yul\":11615:11621   */\n      0x00\n        /* \"#utility.yul\":11648:11650   */\n      0x40\n        /* \"#utility.yul\":11642:11651   */\n      mload\n        /* \"#utility.yul\":11632:11651   */\n      swap1\n      pop\n        /* \"#utility.yul\":11582:11657   */\n      swap1\n      jump\t// out\n        /* \"#utility.yul\":11663:11971   */\n    tag_89:\n        /* \"#utility.yul\":11725:11729   */\n      0x00\n        /* \"#utility.yul\":11815:11833   */\n      0xffffffffffffffff\n        /* \"#utility.yul\":11807:11813   */\n      dup3\n        /* \"#utility.yul\":11804:11834   */\n      gt\n        /* \"#utility.yul\":11801:11857   */\n      iszero\n      tag_224\n      jumpi\n        /* \"#utility.yul\":11837:11855   */\n      tag_225\n      tag_226\n      jump\t// in\n    tag_225:\n        /* \"#utility.yul\":11801:11857   */\n    tag_224:\n        /* \"#utility.yul\":11875:11904   */\n      tag_227\n        /* \"#utility.yul\":11897:11903   */\n      dup3\n        /* \"#utility.yul\":11875:11904   */\n      tag_228\n      jump\t// in\n    tag_227:\n        /* \"#utility.yul\":11867:11904   */\n      swap1\n      pop\n        /* \"#utility.yul\":11959:11963   */\n      0x20\n        /* \"#utility.yul\":11953:11957   */\n      dup2\n        /* \"#utility.yul\":11949:11964   */\n      add\n        /* \"#utility.yul\":11941:11964   */\n      swap1\n      pop\n        /* \"#utility.yul\":11663:11971   */\n      swap2\n      swap1\n      pop\n      jump\t// out\n        /* \"#utility.yul\":11977:12146   */\n    tag_159:\n        /* \"#utility.yul\":12061:12072   */\n      0x00\n        /* \"#utility.yul\":12095:12101   */\n      dup3\n        /* \"#utility.yul\":12090:12093   */\n      dup3\n        /* \"#utility.yul\":12083:12102   */\n      mstore\n        /* \"#utility.yul\":12135:12139   */\n      0x20\n        /* \"#utility.yul\":12130:12133   */\n      dup3\n        /* \"#utility.yul\":12126:12140   */\n      add\n        /* \"#utility.yul\":12111:12140   */\n      swap1\n      pop\n        /* \"#utility.yul\":11977:12146   */\n      swap3\n      swap2\n      pop\n      pop\n      jump\t// out\n        /* \"#utility.yul\":12152:12248   */\n    tag_230:\n        /* \"#utility.yul\":12189:12196   */\n      0x00\n        /* \"#utility.yul\":12218:12242   */\n      tag_232\n        /* \"#utility.yul\":12236:12241   */\n      dup3\n        /* \"#utility.yul\":12218:12242   */\n      tag_233\n      jump\t// in\n    tag_232:\n        /* \"#utility.yul\":12207:12242   */\n      swap1\n      pop\n        /* \"#utility.yul\":12152:12248   */\n      swap2\n      swap1\n      pop\n      jump\t// out\n        /* \"#utility.yul\":12254:12403   */\n    tag_234:\n        /* \"#utility.yul\":12310:12317   */\n      0x00\n        /* \"#utility.yul\":12339:12344   */\n      dup2\n        /* \"#utility.yul\":12328:12344   */\n      swap1\n      pop\n        /* \"#utility.yul\":12345:12397   */\n      tag_236\n        /* \"#utility.yul\":12391:12396   */\n      dup3\n        /* \"#utility.yul\":12345:12397   */\n      tag_237\n      jump\t// in\n    tag_236:\n        /* \"#utility.yul\":12254:12403   */\n      swap2\n      swap1\n      pop\n      jump\t// out\n        /* \"#utility.yul\":12409:12535   */\n    tag_233:\n        /* \"#utility.yul\":12446:12453   */\n      0x00\n        /* \"#utility.yul\":12486:12528   */\n      0xffffffffffffffffffffffffffffffffffffffff\n        /* \"#utility.yul\":12479:12484   */\n      dup3\n        /* \"#utility.yul\":12475:12529   */\n      and\n        /* \"#utility.yul\":12464:12529   */\n      swap1\n      pop\n        /* \"#utility.yul\":12409:12535   */\n      swap2\n      swap1\n      pop\n      jump\t// out\n        /* \"#utility.yul\":12541:12618   */\n    tag_197:\n        /* \"#utility.yul\":12578:12585   */\n      0x00\n        /* \"#utility.yul\":12607:12612   */\n      dup2\n        /* \"#utility.yul\":12596:12612   */\n      swap1\n      pop\n        /* \"#utility.yul\":12541:12618   */\n      swap2\n      swap1\n      pop\n      jump\t// out\n        /* \"#utility.yul\":12624:12773   */\n    tag_155:\n        /* \"#utility.yul\":12691:12700   */\n      0x00\n        /* \"#utility.yul\":12724:12767   */\n      tag_241\n        /* \"#utility.yul\":12761:12766   */\n      dup3\n        /* \"#utility.yul\":12724:12767   */\n      tag_234\n      jump\t// in\n    tag_241:\n        /* \"#utility.yul\":12711:12767   */\n      swap1\n      pop\n        /* \"#utility.yul\":12624:12773   */\n      swap2\n      swap1\n      pop\n      jump\t// out\n        /* \"#utility.yul\":12779:13086   */\n    tag_95:\n        /* \"#utility.yul\":12847:12848   */\n      0x00\n        /* \"#utility.yul\":12857:12970   */\n    tag_243:\n        /* \"#utility.yul\":12871:12877   */\n      dup4\n        /* \"#utility.yul\":12868:12869   */\n      dup2\n        /* \"#utility.yul\":12865:12878   */\n      lt\n        /* \"#utility.yul\":12857:12970   */\n      iszero\n      tag_245\n      jumpi\n        /* \"#utility.yul\":12956:12957   */\n      dup1\n        /* \"#utility.yul\":12951:12954   */\n      dup3\n        /* \"#utility.yul\":12947:12958   */\n      add\n        /* \"#utility.yul\":12941:12959   */\n      mload\n        /* \"#utility.yul\":12937:12938   */\n      dup2\n        /* \"#utility.yul\":12932:12935   */\n      dup5\n        /* \"#utility.yul\":12928:12939   */\n      add\n        /* \"#utility.yul\":12921:12960   */\n      mstore\n        /* \"#utility.yul\":12893:12895   */\n      0x20\n        /* \"#utility.yul\":12890:12891   */\n      dup2\n        /* \"#utility.yul\":12886:12896   */\n      add\n        /* \"#utility.yul\":12881:12896   */\n      swap1\n      pop\n        /* \"#utility.yul\":12857:12970   */\n      jump(tag_243)\n    tag_245:\n        /* \"#utility.yul\":12988:12994   */\n      dup4\n        /* \"#utility.yul\":12985:12986   */\n      dup2\n        /* \"#utility.yul\":12982:12995   */\n      gt\n        /* \"#utility.yul\":12979:13080   */\n      iszero\n      tag_246\n      jumpi\n        /* \"#utility.yul\":13068:13069   */\n      0x00\n        /* \"#utility.yul\":13059:13065   */\n      dup5\n        /* \"#utility.yul\":13054:13057   */\n      dup5\n        /* \"#utility.yul\":13050:13066   */\n      add\n        /* \"#utility.yul\":13043:13070   */\n      mstore\n        /* \"#utility.yul\":12979:13080   */\n    tag_246:\n        /* \"#utility.yul\":12828:13086   */\n      pop\n        /* \"#utility.yul\":12779:13086   */\n      pop\n      pop\n      pop\n      jump\t// out\n        /* \"#utility.yul\":13092:13373   */\n    tag_221:\n        /* \"#utility.yul\":13175:13202   */\n      tag_248\n        /* \"#utility.yul\":13197:13201   */\n      dup3\n        /* \"#utility.yul\":13175:13202   */\n      tag_228\n      jump\t// in\n    tag_248:\n        /* \"#utility.yul\":13167:13173   */\n      dup2\n        /* \"#utility.yul\":13163:13203   */\n      add\n        /* \"#utility.yul\":13305:13311   */\n      dup2\n        /* \"#utility.yul\":13293:13303   */\n      dup2\n        /* \"#utility.yul\":13290:13312   */\n      lt\n        /* \"#utility.yul\":13269:13287   */\n      0xffffffffffffffff\n        /* \"#utility.yul\":13257:13267   */\n      dup3\n        /* \"#utility.yul\":13254:13288   */\n      gt\n        /* \"#utility.yul\":13251:13313   */\n      or\n        /* \"#utility.yul\":13248:13336   */\n      iszero\n      tag_249\n      jumpi\n        /* \"#utility.yul\":13316:13334   */\n      tag_250\n      tag_226\n      jump\t// in\n    tag_250:\n        /* \"#utility.yul\":13248:13336   */\n    tag_249:\n        /* \"#utility.yul\":13356:13366   */\n      dup1\n        /* \"#utility.yul\":13352:13354   */\n      0x40\n        /* \"#utility.yul\":13345:13367   */\n      mstore\n        /* \"#utility.yul\":13135:13373   */\n      pop\n        /* \"#utility.yul\":13092:13373   */\n      pop\n      pop\n      jump\t// out\n        /* \"#utility.yul\":13379:13612   */\n    tag_35:\n        /* \"#utility.yul\":13418:13421   */\n      0x00\n        /* \"#utility.yul\":13441:13465   */\n      tag_252\n        /* \"#utility.yul\":13459:13464   */\n      dup3\n        /* \"#utility.yul\":13441:13465   */\n      tag_197\n      jump\t// in\n    tag_252:\n        /* \"#utility.yul\":13432:13465   */\n      swap2\n      pop\n        /* \"#utility.yul\":13487:13553   */\n      0xffffffffffffffffffffffffffffffffffffffffffffffffffffffffffffffff\n        /* \"#utility.yul\":13480:13485   */\n      dup3\n        /* \"#utility.yul\":13477:13554   */\n      eq\n        /* \"#utility.yul\":13474:13577   */\n      iszero\n      tag_253\n      jumpi\n        /* \"#utility.yul\":13557:13575   */\n      tag_254\n      tag_255\n      jump\t// in\n    tag_254:\n        /* \"#utility.yul\":13474:13577   */\n    tag_253:\n        /* \"#utility.yul\":13604:13605   */\n      0x01\n        /* \"#utility.yul\":13597:13602   */\n      dup3\n        /* \"#utility.yul\":13593:13606   */\n      add\n        /* \"#utility.yul\":13586:13606   */\n      swap1\n      pop\n        /* \"#utility.yul\":13379:13612   */\n      swap2\n      swap1\n      pop\n      jump\t// out\n        /* \"#utility.yul\":13618:13798   */\n    tag_255:\n        /* \"#utility.yul\":13666:13743   */\n      0x4e487b7100000000000000000000000000000000000000000000000000000000\n        /* \"#utility.yul\":13663:13664   */\n      0x00\n        /* \"#utility.yul\":13656:13744   */\n      mstore\n        /* \"#utility.yul\":13763:13767   */\n      0x11\n        /* \"#utility.yul\":13760:13761   */\n      0x04\n        /* \"#utility.yul\":13753:13768   */\n      mstore\n        /* \"#utility.yul\":13787:13791   */\n      0x24\n        /* \"#utility.yul\":13784:13785   */\n      0x00\n        /* \"#utility.yul\":13777:13792   */\n      revert\n        /* \"#utility.yul\":13804:13984   */\n    tag_31:\n        /* \"#utility.yul\":13852:13929   */\n      0x4e487b7100000000000000000000000000000000000000000000000000000000\n        /* \"#utility.yul\":13849:13850   */\n      0x00\n        /* \"#utility.yul\":13842:13930   */\n      mstore\n        /* \"#utility.yul\":13949:13953   */\n      0x21\n        /* \"#utility.yul\":13946:13947   */\n      0x04\n        /* \"#utility.yul\":13939:13954   */\n      mstore\n        /* \"#utility.yul\":13973:13977   */\n      0x24\n        /* \"#utility.yul\":13970:13971   */\n      0x00\n        /* \"#utility.yul\":13963:13978   */\n      revert\n        /* \"#utility.yul\":13990:14170   */\n    tag_23:\n        /* \"#utility.yul\":14038:14115   */\n      0x4e487b7100000000000000000000000000000000000000000000000000000000\n        /* \"#utility.yul\":14035:14036   */\n      0x00\n        /* \"#utility.yul\":14028:14116   */\n      mstore\n        /* \"#utility.yul\":14135:14139   */\n      0x32\n        /* \"#utility.yul\":14132:14133   */\n      0x04\n        /* \"#utility.yul\":14125:14140   */\n      mstore\n        /* \"#utility.yul\":14159:14163   */\n      0x24\n        /* \"#utility.yul\":14156:14157   */\n      0x00\n        /* \"#utility.yul\":14149:14164   */\n      revert\n        /* \"#utility.yul\":14176:14356   */\n    tag_226:\n        /* \"#utility.yul\":14224:14301   */\n      0x4e487b7100000000000000000000000000000000000000000000000000000000\n        /* \"#utility.yul\":14221:14222   */\n      0x00\n        /* \"#utility.yul\":14214:14302   */\n      mstore\n        /* \"#utility.yul\":14321:14325   */\n      0x41\n        /* \"#utility.yul\":14318:14319   */\n      0x04\n        /* \"#utility.yul\":14311:14326   */\n      mstore\n        /* \"#utility.yul\":14345:14349   */\n      0x24\n        /* \"#utility.yul\":14342:14343   */\n      0x00\n        /* \"#utility.yul\":14335:14350   */\n      revert\n        /* \"#utility.yul\":14362:14479   */\n    tag_111:\n        /* \"#utility.yul\":14471:14472   */\n      0x00\n        /* \"#utility.yul\":14468:14469   */\n      dup1\n        /* \"#utility.yul\":14461:14473   */\n      revert\n        /* \"#utility.yul\":14485:14602   */\n    tag_117:\n        /* \"#utility.yul\":14594:14595   */\n      0x00\n        /* \"#utility.yul\":14591:14592   */\n      dup1\n        /* \"#utility.yul\":14584:14596   */\n      revert\n        /* \"#utility.yul\":14608:14725   */\n    tag_123:\n        /* \"#utility.yul\":14717:14718   */\n      0x00\n        /* \"#utility.yul\":14714:14715   */\n      dup1\n        /* \"#utility.yul\":14707:14719   */\n      revert\n        /* \"#utility.yul\":14731:14848   */\n    tag_93:\n        /* \"#utility.yul\":14840:14841   */\n      0x00\n        /* \"#utility.yul\":14837:14838   */\n      dup1\n        /* \"#utility.yul\":14830:14842   */\n      revert\n        /* \"#utility.yul\":14854:14971   */\n    tag_140:\n        /* \"#utility.yul\":14963:14964   */\n      0x00\n        /* \"#utility.yul\":14960:14961   */\n      dup1\n        /* \"#utility.yul\":14953:14965   */\n      revert\n        /* \"#utility.yul\":14977:15094   */\n    tag_137:\n        /* \"#utility.yul\":15086:15087   */\n      0x00\n        /* \"#utility.yul\":15083:15084   */\n      dup1\n        /* \"#utility.yul\":15076:15088   */\n      revert\n        /* \"#utility.yul\":15100:15202   */\n    tag_228:\n        /* \"#utility.yul\":15141:15147   */\n      0x00\n        /* \"#utility.yul\":15192:15194   */\n      0x1f\n        /* \"#utility.yul\":15188:15195   */\n      not\n        /* \"#utility.yul\":15183:15185   */\n      0x1f\n        /* \"#utility.yul\":15176:15181   */\n      dup4\n        /* \"#utility.yul\":15172:15186   */\n      add\n        /* \"#utility.yul\":15168:15196   */\n      and\n        /* \"#utility.yul\":15158:15196   */\n      swap1\n      pop\n        /* \"#utility.yul\":15100:15202   */\n      swap2\n      swap1\n      pop\n      jump\t// out\n        /* \"#utility.yul\":15208:15441   */\n    tag_161:\n        /* \"#utility.yul\":15348:15382   */\n      0x437573746f6d657220616e6420636c61696d20706f6c69637920686176652074\n        /* \"#utility.yul\":15344:15345   */\n      0x00\n        /* \"#utility.yul\":15336:15342   */\n      dup3\n        /* \"#utility.yul\":15332:15346   */\n      add\n        /* \"#utility.yul\":15325:15383   */\n      mstore\n        /* \"#utility.yul\":15417:15433   */\n      0x6f206265207468652073616d652e000000000000000000000000000000000000\n        /* \"#utility.yul\":15412:15414   */\n      0x20\n        /* \"#utility.yul\":15404:15410   */\n      dup3\n        /* \"#utility.yul\":15400:15415   */\n      add\n        /* \"#utility.yul\":15393:15434   */\n      mstore\n        /* \"#utility.yul\":15208:15441   */\n      pop\n      jump\t// out\n        /* \"#utility.yul\":15447:15687   */\n    tag_166:\n        /* \"#utility.yul\":15587:15621   */\n      0x506f6c69637920646174652068617320657870697265642c20706c6561736520\n        /* \"#utility.yul\":15583:15584   */\n      0x00\n        /* \"#utility.yul\":15575:15581   */\n      dup3\n        /* \"#utility.yul\":15571:15585   */\n      add\n        /* \"#utility.yul\":15564:15622   */\n      mstore\n        /* \"#utility.yul\":15656:15679   */\n      0x75706461746520796f757220636f6e74726163742e0000000000000000000000\n        /* \"#utility.yul\":15651:15653   */\n      0x20\n        /* \"#utility.yul\":15643:15649   */\n      dup3\n        /* \"#utility.yul\":15639:15654   */\n      add\n        /* \"#utility.yul\":15632:15680   */\n      mstore\n        /* \"#utility.yul\":15447:15687   */\n      pop\n      jump\t// out\n        /* \"#utility.yul\":15693:15926   */\n    tag_171:\n        /* \"#utility.yul\":15833:15867   */\n      0x437573746f6d657220616e6420636c61696d20706f6c6963792063616e6e6f74\n        /* \"#utility.yul\":15829:15830   */\n      0x00\n        /* \"#utility.yul\":15821:15827   */\n      dup3\n        /* \"#utility.yul\":15817:15831   */\n      add\n        /* \"#utility.yul\":15810:15868   */\n      mstore\n        /* \"#utility.yul\":15902:15918   */\n      0x20626520646966666572656e742e000000000000000000000000000000000000\n        /* \"#utility.yul\":15897:15899   */\n      0x20\n        /* \"#utility.yul\":15889:15895   */\n      dup3\n        /* \"#utility.yul\":15885:15900   */\n      add\n        /* \"#utility.yul\":15878:15919   */\n      mstore\n        /* \"#utility.yul\":15693:15926   */\n      pop\n      jump\t// out\n        /* \"#utility.yul\":15932:16101   */\n    tag_176:\n        /* \"#utility.yul\":16072:16093   */\n      0x437573746f6d6572206e6f7420666f756e642e00000000000000000000000000\n        /* \"#utility.yul\":16068:16069   */\n      0x00\n        /* \"#utility.yul\":16060:16066   */\n      dup3\n        /* \"#utility.yul\":16056:16070   */\n      add\n        /* \"#utility.yul\":16049:16094   */\n      mstore\n        /* \"#utility.yul\":15932:16101   */\n      pop\n      jump\t// out\n        /* \"#utility.yul\":16107:16276   */\n    tag_181:\n        /* \"#utility.yul\":16247:16268   */\n      0x506f6c6963792068617320657870697265642e00000000000000000000000000\n        /* \"#utility.yul\":16243:16244   */\n      0x00\n        /* \"#utility.yul\":16235:16241   */\n      dup3\n        /* \"#utility.yul\":16231:16245   */\n      add\n        /* \"#utility.yul\":16224:16269   */\n      mstore\n        /* \"#utility.yul\":16107:16276   */\n      pop\n      jump\t// out\n        /* \"#utility.yul\":16282:16463   */\n    tag_186:\n        /* \"#utility.yul\":16422:16455   */\n      0x437573746f6d6572206964656e74697479206973206e6f742076616c69642e00\n        /* \"#utility.yul\":16418:16419   */\n      0x00\n        /* \"#utility.yul\":16410:16416   */\n      dup3\n        /* \"#utility.yul\":16406:16420   */\n      add\n        /* \"#utility.yul\":16399:16456   */\n      mstore\n        /* \"#utility.yul\":16282:16463   */\n      pop\n      jump\t// out\n        /* \"#utility.yul\":16469:16593   */\n    tag_237:\n        /* \"#utility.yul\":16561:16562   */\n      0x02\n        /* \"#utility.yul\":16554:16559   */\n      dup2\n        /* \"#utility.yul\":16551:16563   */\n      lt\n        /* \"#utility.yul\":16541:16587   */\n      tag_274\n      jumpi\n        /* \"#utility.yul\":16567:16585   */\n      tag_275\n      tag_31\n      jump\t// in\n    tag_275:\n        /* \"#utility.yul\":16541:16587   */\n    tag_274:\n        /* \"#utility.yul\":16469:16593   */\n      pop\n      jump\t// out\n        /* \"#utility.yul\":16599:16721   */\n    tag_99:\n        /* \"#utility.yul\":16672:16696   */\n      tag_277\n        /* \"#utility.yul\":16690:16695   */\n      dup2\n        /* \"#utility.yul\":16672:16696   */\n      tag_230\n      jump\t// in\n    tag_277:\n        /* \"#utility.yul\":16665:16670   */\n      dup2\n        /* \"#utility.yul\":16662:16697   */\n      eq\n        /* \"#utility.yul\":16652:16715   */\n      tag_278\n      jumpi\n        /* \"#utility.yul\":16711:16712   */\n      0x00\n        /* \"#utility.yul\":16708:16709   */\n      dup1\n        /* \"#utility.yul\":16701:16713   */\n      revert\n        /* \"#utility.yul\":16652:16715   */\n    tag_278:\n        /* \"#utility.yul\":16599:16721   */\n      pop\n      jump\t// out\n        /* \"#utility.yul\":16727:16845   */\n    tag_103:\n        /* \"#utility.yul\":16819:16820   */\n      0x02\n        /* \"#utility.yul\":16812:16817   */\n      dup2\n        /* \"#utility.yul\":16809:16821   */\n      lt\n        /* \"#utility.yul\":16799:16839   */\n      tag_280\n      jumpi\n        /* \"#utility.yul\":16835:16836   */\n      0x00\n        /* \"#utility.yul\":16832:16833   */\n      dup1\n        /* \"#utility.yul\":16825:16837   */\n      revert\n        /* \"#utility.yul\":16799:16839   */\n    tag_280:\n        /* \"#utility.yul\":16727:16845   */\n      pop\n      jump\t// out\n        /* \"#utility.yul\":16851:16973   */\n    tag_131:\n        /* \"#utility.yul\":16924:16948   */\n      tag_282\n        /* \"#utility.yul\":16942:16947   */\n      dup2\n        /* \"#utility.yul\":16924:16948   */\n      tag_197\n      jump\t// in\n    tag_282:\n        /* \"#utility.yul\":16917:16922   */\n      dup2\n        /* \"#utility.yul\":16914:16949   */\n      eq\n        /* \"#utility.yul\":16904:16967   */\n      tag_283\n      jumpi\n        /* \"#utility.yul\":16963:16964   */\n      0x00\n        /* \"#utility.yul\":16960:16961   */\n      dup1\n        /* \"#utility.yul\":16953:16965   */\n      revert\n        /* \"#utility.yul\":16904:16967   */\n    tag_283:\n        /* \"#utility.yul\":16851:16973   */\n      pop\n      jump\t// out\n\n    auxdata: 0xa26469706673582212209c4b20b1e0844cbb9de7287e8b12dc037ec553e6e3e8617a839170bfca35493564736f6c63430008070033\n}\n",
				"bytecode": {
					"linkReferences": {},
					"object": "608060405260006001553480156200001657600080fd5b506040516200106e3803806200106e83398181016040528101906200003c91906200009a565b806000806101000a81548173ffffffffffffffffffffffffffffffffffffffff021916908373ffffffffffffffffffffffffffffffffffffffff160217905550506200011f565b600081519050620000948162000105565b92915050565b600060208284031215620000b357620000b262000100565b5b6000620000c38482850162000083565b91505092915050565b6000620000d982620000e0565b9050919050565b600073ffffffffffffffffffffffffffffffffffffffff82169050919050565b600080fd5b6200011081620000cc565b81146200011c57600080fd5b50565b610f3f806200012f6000396000f3fe608060405234801561001057600080fd5b50600436106100365760003560e01c80635aef24471461003b57806391bbdc491461006b575b600080fd5b61005560048036038101906100509190610812565b610087565b6040516100629190610ab9565b60405180910390f35b6100856004803603810190610080919061083f565b61017e565b005b61008f610607565b60005b6002805490508110156101775782600282815481106100b4576100b3610cc2565b5b906000526020600020906005020160000154141561016457600281815481106100e0576100df610cc2565b5b90600052602060002090600502016040518060a001604052908160008201548152602001600182015481526020016002820160009054906101000a900460ff16600181111561013257610131610c93565b5b600181111561014457610143610c93565b5b815260200160038201548152602001600482015481525050915050610179565b808061016f90610c1b565b915050610092565b505b919050565b8260008060009054906101000a900473ffffffffffffffffffffffffffffffffffffffff1673ffffffffffffffffffffffffffffffffffffffff1663eb876f27836040518263ffffffff1660e01b81526004016101db9190610ad4565b60006040518083038186803b1580156101f357600080fd5b505afa158015610207573d6000803e3d6000fd5b505050506040513d6000823e3d601f19601f8201168201806040525081019061023091906107c9565b600001511415610275576040517f08c379a000000000000000000000000000000000000000000000000000000000815260040161026c90610a59565b60405180910390fd5b807fb6fadf247b8bf1dbf11ca028d218285198ec9cf906a4e1955b03661b91e2d4156040516102a390610a99565b60405180910390a283428060008054906101000a900473ffffffffffffffffffffffffffffffffffffffff1673ffffffffffffffffffffffffffffffffffffffff1663eb876f27846040518263ffffffff1660e01b81526004016103079190610ad4565b60006040518083038186803b15801561031f57600080fd5b505afa158015610333573d6000803e3d6000fd5b505050506040513d6000823e3d601f19601f8201168201806040525081019061035c91906107c9565b60600151116103a0576040517f08c379a000000000000000000000000000000000000000000000000000000000815260040161039790610a79565b60405180910390fd5b817fb6fadf247b8bf1dbf11ca028d218285198ec9cf906a4e1955b03661b91e2d4156040516103ce90610a19565b60405180910390a285858060018111156103eb576103ea610c93565b5b60008054906101000a900473ffffffffffffffffffffffffffffffffffffffff1673ffffffffffffffffffffffffffffffffffffffff1663eb876f27846040518263ffffffff1660e01b81526004016104449190610ad4565b60006040518083038186803b15801561045c57600080fd5b505afa158015610470573d6000803e3d6000fd5b505050506040513d6000823e3d601f19601f8201168201806040525081019061049991906107c9565b6040015160018111156104af576104ae610c93565b5b146104ef576040517f08c379a00000000000000000000000000000000000000000000000000000000081526004016104e690610a39565b60405180910390fd5b817fb6fadf247b8bf1dbf11ca028d218285198ec9cf906a4e1955b03661b91e2d41560405161051d906109f9565b60405180910390a26001600081548092919061053890610c1b565b919050555060026040518060a0016040528060015481526020018a815260200189600181111561056b5761056a610c93565b5b8152602001428152602001888152509080600181540180825580915050600190039060005260206000209060050201600090919091909150600082015181600001556020820151816001015560408201518160020160006101000a81548160ff021916908360018111156105e2576105e1610c93565b5b0217905550606082015181600301556080820151816004015550505050505050505050565b6040518060a0016040528060008152602001600081526020016000600181111561063457610633610c93565b5b815260200160008152602001600081525090565b600061065b61065684610b14565b610aef565b90508281526020810184848401111561067757610676610d2f565b5b610682848285610bb7565b509392505050565b60008151905061069981610ecb565b92915050565b6000813590506106ae81610ee2565b92915050565b6000815190506106c381610ee2565b92915050565b600082601f8301126106de576106dd610d20565b5b81516106ee848260208601610648565b91505092915050565b600060a0828403121561070d5761070c610d25565b5b61071760a0610aef565b90506000610727848285016107b4565b600083015250602082015167ffffffffffffffff81111561074b5761074a610d2a565b5b610757848285016106c9565b602083015250604061076b848285016106b4565b604083015250606061077f848285016107b4565b60608301525060806107938482850161068a565b60808301525092915050565b6000813590506107ae81610ef2565b92915050565b6000815190506107c381610ef2565b92915050565b6000602082840312156107df576107de610d39565b5b600082015167ffffffffffffffff8111156107fd576107fc610d34565b5b610809848285016106f7565b91505092915050565b60006020828403121561082857610827610d39565b5b60006108368482850161079f565b91505092915050565b60008060006060848603121561085857610857610d39565b5b60006108668682870161079f565b93505060206108778682870161069f565b92505060406108888682870161079f565b9150509250925092565b61089b81610ba5565b82525050565b60006108ae602e83610b45565b91506108b982610d4f565b604082019050919050565b60006108d1603583610b45565b91506108dc82610d9e565b604082019050919050565b60006108f4602e83610b45565b91506108ff82610ded565b604082019050919050565b6000610917601383610b45565b915061092282610e3c565b602082019050919050565b600061093a601383610b45565b915061094582610e65565b602082019050919050565b600061095d601f83610b45565b915061096882610e8e565b602082019050919050565b60a08201600082015161098960008501826109db565b50602082015161099c60208501826109db565b5060408201516109af6040850182610892565b5060608201516109c260608501826109db565b5060808201516109d560808501826109db565b50505050565b6109e481610b9b565b82525050565b6109f381610b9b565b82525050565b60006020820190508181036000830152610a12816108a1565b9050919050565b60006020820190508181036000830152610a32816108c4565b9050919050565b60006020820190508181036000830152610a52816108e7565b9050919050565b60006020820190508181036000830152610a728161090a565b9050919050565b60006020820190508181036000830152610a928161092d565b9050919050565b60006020820190508181036000830152610ab281610950565b9050919050565b600060a082019050610ace6000830184610973565b92915050565b6000602082019050610ae960008301846109ea565b92915050565b6000610af9610b0a565b9050610b058282610bea565b919050565b6000604051905090565b600067ffffffffffffffff821115610b2f57610b2e610cf1565b5b610b3882610d3e565b9050602081019050919050565b600082825260208201905092915050565b6000610b6182610b7b565b9050919050565b6000819050610b7682610eb7565b919050565b600073ffffffffffffffffffffffffffffffffffffffff82169050919050565b6000819050919050565b6000610bb082610b68565b9050919050565b60005b83811015610bd5578082015181840152602081019050610bba565b83811115610be4576000848401525b50505050565b610bf382610d3e565b810181811067ffffffffffffffff82111715610c1257610c11610cf1565b5b80604052505050565b6000610c2682610b9b565b91507fffffffffffffffffffffffffffffffffffffffffffffffffffffffffffffffff821415610c5957610c58610c64565b5b600182019050919050565b7f4e487b7100000000000000000000000000000000000000000000000000000000600052601160045260246000fd5b7f4e487b7100000000000000000000000000000000000000000000000000000000600052602160045260246000fd5b7f4e487b7100000000000000000000000000000000000000000000000000000000600052603260045260246000fd5b7f4e487b7100000000000000000000000000000000000000000000000000000000600052604160045260246000fd5b600080fd5b600080fd5b600080fd5b600080fd5b600080fd5b600080fd5b6000601f19601f8301169050919050565b7f437573746f6d657220616e6420636c61696d20706f6c6963792068617665207460008201527f6f206265207468652073616d652e000000000000000000000000000000000000602082015250565b7f506f6c69637920646174652068617320657870697265642c20706c656173652060008201527f75706461746520796f757220636f6e74726163742e0000000000000000000000602082015250565b7f437573746f6d657220616e6420636c61696d20706f6c6963792063616e6e6f7460008201527f20626520646966666572656e742e000000000000000000000000000000000000602082015250565b7f437573746f6d6572206e6f7420666f756e642e00000000000000000000000000600082015250565b7f506f6c6963792068617320657870697265642e00000000000000000000000000600082015250565b7f437573746f6d6572206964656e74697479206973206e6f742076616c69642e00600082015250565b60028110610ec857610ec7610c93565b5b50565b610ed481610b56565b8114610edf57600080fd5b50565b60028110610eef57600080fd5b50565b610efb81610b9b565b8114610f0657600080fd5b5056fea26469706673582212209c4b20b1e0844cbb9de7287e8b12dc037ec553e6e3e8617a839170bfca35493564736f6c63430008070033",
					"opcodes": "PUSH1 0x80 PUSH1 0x40 MSTORE PUSH1 0x0 PUSH1 0x1 SSTORE CALLVALUE DUP1 ISZERO PUSH3 0x16 JUMPI PUSH1 0x0 DUP1 REVERT JUMPDEST POP PUSH1 0x40 MLOAD PUSH3 0x106E CODESIZE SUB DUP1 PUSH3 0x106E DUP4 CODECOPY DUP2 DUP2 ADD PUSH1 0x40 MSTORE DUP2 ADD SWAP1 PUSH3 0x3C SWAP2 SWAP1 PUSH3 0x9A JUMP JUMPDEST DUP1 PUSH1 0x0 DUP1 PUSH2 0x100 EXP DUP2 SLOAD DUP2 PUSH20 0xFFFFFFFFFFFFFFFFFFFFFFFFFFFFFFFFFFFFFFFF MUL NOT AND SWAP1 DUP4 PUSH20 0xFFFFFFFFFFFFFFFFFFFFFFFFFFFFFFFFFFFFFFFF AND MUL OR SWAP1 SSTORE POP POP PUSH3 0x11F JUMP JUMPDEST PUSH1 0x0 DUP2 MLOAD SWAP1 POP PUSH3 0x94 DUP2 PUSH3 0x105 JUMP JUMPDEST SWAP3 SWAP2 POP POP JUMP JUMPDEST PUSH1 0x0 PUSH1 0x20 DUP3 DUP5 SUB SLT ISZERO PUSH3 0xB3 JUMPI PUSH3 0xB2 PUSH3 0x100 JUMP JUMPDEST JUMPDEST PUSH1 0x0 PUSH3 0xC3 DUP5 DUP3 DUP6 ADD PUSH3 0x83 JUMP JUMPDEST SWAP2 POP POP SWAP3 SWAP2 POP POP JUMP JUMPDEST PUSH1 0x0 PUSH3 0xD9 DUP3 PUSH3 0xE0 JUMP JUMPDEST SWAP1 POP SWAP2 SWAP1 POP JUMP JUMPDEST PUSH1 0x0 PUSH20 0xFFFFFFFFFFFFFFFFFFFFFFFFFFFFFFFFFFFFFFFF DUP3 AND SWAP1 POP SWAP2 SWAP1 POP JUMP JUMPDEST PUSH1 0x0 DUP1 REVERT JUMPDEST PUSH3 0x110 DUP2 PUSH3 0xCC JUMP JUMPDEST DUP2 EQ PUSH3 0x11C JUMPI PUSH1 0x0 DUP1 REVERT JUMPDEST POP JUMP JUMPDEST PUSH2 0xF3F DUP1 PUSH3 0x12F PUSH1 0x0 CODECOPY PUSH1 0x0 RETURN INVALID PUSH1 0x80 PUSH1 0x40 MSTORE CALLVALUE DUP1 ISZERO PUSH2 0x10 JUMPI PUSH1 0x0 DUP1 REVERT JUMPDEST POP PUSH1 0x4 CALLDATASIZE LT PUSH2 0x36 JUMPI PUSH1 0x0 CALLDATALOAD PUSH1 0xE0 SHR DUP1 PUSH4 0x5AEF2447 EQ PUSH2 0x3B JUMPI DUP1 PUSH4 0x91BBDC49 EQ PUSH2 0x6B JUMPI JUMPDEST PUSH1 0x0 DUP1 REVERT JUMPDEST PUSH2 0x55 PUSH1 0x4 DUP1 CALLDATASIZE SUB DUP2 ADD SWAP1 PUSH2 0x50 SWAP2 SWAP1 PUSH2 0x812 JUMP JUMPDEST PUSH2 0x87 JUMP JUMPDEST PUSH1 0x40 MLOAD PUSH2 0x62 SWAP2 SWAP1 PUSH2 0xAB9 JUMP JUMPDEST PUSH1 0x40 MLOAD DUP1 SWAP2 SUB SWAP1 RETURN JUMPDEST PUSH2 0x85 PUSH1 0x4 DUP1 CALLDATASIZE SUB DUP2 ADD SWAP1 PUSH2 0x80 SWAP2 SWAP1 PUSH2 0x83F JUMP JUMPDEST PUSH2 0x17E JUMP JUMPDEST STOP JUMPDEST PUSH2 0x8F PUSH2 0x607 JUMP JUMPDEST PUSH1 0x0 JUMPDEST PUSH1 0x2 DUP1 SLOAD SWAP1 POP DUP2 LT ISZERO PUSH2 0x177 JUMPI DUP3 PUSH1 0x2 DUP3 DUP2 SLOAD DUP2 LT PUSH2 0xB4 JUMPI PUSH2 0xB3 PUSH2 0xCC2 JUMP JUMPDEST JUMPDEST SWAP1 PUSH1 0x0 MSTORE PUSH1 0x20 PUSH1 0x0 KECCAK256 SWAP1 PUSH1 0x5 MUL ADD PUSH1 0x0 ADD SLOAD EQ ISZERO PUSH2 0x164 JUMPI PUSH1 0x2 DUP2 DUP2 SLOAD DUP2 LT PUSH2 0xE0 JUMPI PUSH2 0xDF PUSH2 0xCC2 JUMP JUMPDEST JUMPDEST SWAP1 PUSH1 0x0 MSTORE PUSH1 0x20 PUSH1 0x0 KECCAK256 SWAP1 PUSH1 0x5 MUL ADD PUSH1 0x40 MLOAD DUP1 PUSH1 0xA0 ADD PUSH1 0x40 MSTORE SWAP1 DUP2 PUSH1 0x0 DUP3 ADD SLOAD DUP2 MSTORE PUSH1 0x20 ADD PUSH1 0x1 DUP3 ADD SLOAD DUP2 MSTORE PUSH1 0x20 ADD PUSH1 0x2 DUP3 ADD PUSH1 0x0 SWAP1 SLOAD SWAP1 PUSH2 0x100 EXP SWAP1 DIV PUSH1 0xFF AND PUSH1 0x1 DUP2 GT ISZERO PUSH2 0x132 JUMPI PUSH2 0x131 PUSH2 0xC93 JUMP JUMPDEST JUMPDEST PUSH1 0x1 DUP2 GT ISZERO PUSH2 0x144 JUMPI PUSH2 0x143 PUSH2 0xC93 JUMP JUMPDEST JUMPDEST DUP2 MSTORE PUSH1 0x20 ADD PUSH1 0x3 DUP3 ADD SLOAD DUP2 MSTORE PUSH1 0x20 ADD PUSH1 0x4 DUP3 ADD SLOAD DUP2 MSTORE POP POP SWAP2 POP POP PUSH2 0x179 JUMP JUMPDEST DUP1 DUP1 PUSH2 0x16F SWAP1 PUSH2 0xC1B JUMP JUMPDEST SWAP2 POP POP PUSH2 0x92 JUMP JUMPDEST POP JUMPDEST SWAP2 SWAP1 POP JUMP JUMPDEST DUP3 PUSH1 0x0 DUP1 PUSH1 0x0 SWAP1 SLOAD SWAP1 PUSH2 0x100 EXP SWAP1 DIV PUSH20 0xFFFFFFFFFFFFFFFFFFFFFFFFFFFFFFFFFFFFFFFF AND PUSH20 0xFFFFFFFFFFFFFFFFFFFFFFFFFFFFFFFFFFFFFFFF AND PUSH4 0xEB876F27 DUP4 PUSH1 0x40 MLOAD DUP3 PUSH4 0xFFFFFFFF AND PUSH1 0xE0 SHL DUP2 MSTORE PUSH1 0x4 ADD PUSH2 0x1DB SWAP2 SWAP1 PUSH2 0xAD4 JUMP JUMPDEST PUSH1 0x0 PUSH1 0x40 MLOAD DUP1 DUP4 SUB DUP2 DUP7 DUP1 EXTCODESIZE ISZERO DUP1 ISZERO PUSH2 0x1F3 JUMPI PUSH1 0x0 DUP1 REVERT JUMPDEST POP GAS STATICCALL ISZERO DUP1 ISZERO PUSH2 0x207 JUMPI RETURNDATASIZE PUSH1 0x0 DUP1 RETURNDATACOPY RETURNDATASIZE PUSH1 0x0 REVERT JUMPDEST POP POP POP POP PUSH1 0x40 MLOAD RETURNDATASIZE PUSH1 0x0 DUP3 RETURNDATACOPY RETURNDATASIZE PUSH1 0x1F NOT PUSH1 0x1F DUP3 ADD AND DUP3 ADD DUP1 PUSH1 0x40 MSTORE POP DUP2 ADD SWAP1 PUSH2 0x230 SWAP2 SWAP1 PUSH2 0x7C9 JUMP JUMPDEST PUSH1 0x0 ADD MLOAD EQ ISZERO PUSH2 0x275 JUMPI PUSH1 0x40 MLOAD PUSH32 0x8C379A000000000000000000000000000000000000000000000000000000000 DUP2 MSTORE PUSH1 0x4 ADD PUSH2 0x26C SWAP1 PUSH2 0xA59 JUMP JUMPDEST PUSH1 0x40 MLOAD DUP1 SWAP2 SUB SWAP1 REVERT JUMPDEST DUP1 PUSH32 0xB6FADF247B8BF1DBF11CA028D218285198EC9CF906A4E1955B03661B91E2D415 PUSH1 0x40 MLOAD PUSH2 0x2A3 SWAP1 PUSH2 0xA99 JUMP JUMPDEST PUSH1 0x40 MLOAD DUP1 SWAP2 SUB SWAP1 LOG2 DUP4 TIMESTAMP DUP1 PUSH1 0x0 DUP1 SLOAD SWAP1 PUSH2 0x100 EXP SWAP1 DIV PUSH20 0xFFFFFFFFFFFFFFFFFFFFFFFFFFFFFFFFFFFFFFFF AND PUSH20 0xFFFFFFFFFFFFFFFFFFFFFFFFFFFFFFFFFFFFFFFF AND PUSH4 0xEB876F27 DUP5 PUSH1 0x40 MLOAD DUP3 PUSH4 0xFFFFFFFF AND PUSH1 0xE0 SHL DUP2 MSTORE PUSH1 0x4 ADD PUSH2 0x307 SWAP2 SWAP1 PUSH2 0xAD4 JUMP JUMPDEST PUSH1 0x0 PUSH1 0x40 MLOAD DUP1 DUP4 SUB DUP2 DUP7 DUP1 EXTCODESIZE ISZERO DUP1 ISZERO PUSH2 0x31F JUMPI PUSH1 0x0 DUP1 REVERT JUMPDEST POP GAS STATICCALL ISZERO DUP1 ISZERO PUSH2 0x333 JUMPI RETURNDATASIZE PUSH1 0x0 DUP1 RETURNDATACOPY RETURNDATASIZE PUSH1 0x0 REVERT JUMPDEST POP POP POP POP PUSH1 0x40 MLOAD RETURNDATASIZE PUSH1 0x0 DUP3 RETURNDATACOPY RETURNDATASIZE PUSH1 0x1F NOT PUSH1 0x1F DUP3 ADD AND DUP3 ADD DUP1 PUSH1 0x40 MSTORE POP DUP2 ADD SWAP1 PUSH2 0x35C SWAP2 SWAP1 PUSH2 0x7C9 JUMP JUMPDEST PUSH1 0x60 ADD MLOAD GT PUSH2 0x3A0 JUMPI PUSH1 0x40 MLOAD PUSH32 0x8C379A000000000000000000000000000000000000000000000000000000000 DUP2 MSTORE PUSH1 0x4 ADD PUSH2 0x397 SWAP1 PUSH2 0xA79 JUMP JUMPDEST PUSH1 0x40 MLOAD DUP1 SWAP2 SUB SWAP1 REVERT JUMPDEST DUP2 PUSH32 0xB6FADF247B8BF1DBF11CA028D218285198EC9CF906A4E1955B03661B91E2D415 PUSH1 0x40 MLOAD PUSH2 0x3CE SWAP1 PUSH2 0xA19 JUMP JUMPDEST PUSH1 0x40 MLOAD DUP1 SWAP2 SUB SWAP1 LOG2 DUP6 DUP6 DUP1 PUSH1 0x1 DUP2 GT ISZERO PUSH2 0x3EB JUMPI PUSH2 0x3EA PUSH2 0xC93 JUMP JUMPDEST JUMPDEST PUSH1 0x0 DUP1 SLOAD SWAP1 PUSH2 0x100 EXP SWAP1 DIV PUSH20 0xFFFFFFFFFFFFFFFFFFFFFFFFFFFFFFFFFFFFFFFF AND PUSH20 0xFFFFFFFFFFFFFFFFFFFFFFFFFFFFFFFFFFFFFFFF AND PUSH4 0xEB876F27 DUP5 PUSH1 0x40 MLOAD DUP3 PUSH4 0xFFFFFFFF AND PUSH1 0xE0 SHL DUP2 MSTORE PUSH1 0x4 ADD PUSH2 0x444 SWAP2 SWAP1 PUSH2 0xAD4 JUMP JUMPDEST PUSH1 0x0 PUSH1 0x40 MLOAD DUP1 DUP4 SUB DUP2 DUP7 DUP1 EXTCODESIZE ISZERO DUP1 ISZERO PUSH2 0x45C JUMPI PUSH1 0x0 DUP1 REVERT JUMPDEST POP GAS STATICCALL ISZERO DUP1 ISZERO PUSH2 0x470 JUMPI RETURNDATASIZE PUSH1 0x0 DUP1 RETURNDATACOPY RETURNDATASIZE PUSH1 0x0 REVERT JUMPDEST POP POP POP POP PUSH1 0x40 MLOAD RETURNDATASIZE PUSH1 0x0 DUP3 RETURNDATACOPY RETURNDATASIZE PUSH1 0x1F NOT PUSH1 0x1F DUP3 ADD AND DUP3 ADD DUP1 PUSH1 0x40 MSTORE POP DUP2 ADD SWAP1 PUSH2 0x499 SWAP2 SWAP1 PUSH2 0x7C9 JUMP JUMPDEST PUSH1 0x40 ADD MLOAD PUSH1 0x1 DUP2 GT ISZERO PUSH2 0x4AF JUMPI PUSH2 0x4AE PUSH2 0xC93 JUMP JUMPDEST JUMPDEST EQ PUSH2 0x4EF JUMPI PUSH1 0x40 MLOAD PUSH32 0x8C379A000000000000000000000000000000000000000000000000000000000 DUP2 MSTORE PUSH1 0x4 ADD PUSH2 0x4E6 SWAP1 PUSH2 0xA39 JUMP JUMPDEST PUSH1 0x40 MLOAD DUP1 SWAP2 SUB SWAP1 REVERT JUMPDEST DUP2 PUSH32 0xB6FADF247B8BF1DBF11CA028D218285198EC9CF906A4E1955B03661B91E2D415 PUSH1 0x40 MLOAD PUSH2 0x51D SWAP1 PUSH2 0x9F9 JUMP JUMPDEST PUSH1 0x40 MLOAD DUP1 SWAP2 SUB SWAP1 LOG2 PUSH1 0x1 PUSH1 0x0 DUP2 SLOAD DUP1 SWAP3 SWAP2 SWAP1 PUSH2 0x538 SWAP1 PUSH2 0xC1B JUMP JUMPDEST SWAP2 SWAP1 POP SSTORE POP PUSH1 0x2 PUSH1 0x40 MLOAD DUP1 PUSH1 0xA0 ADD PUSH1 0x40 MSTORE DUP1 PUSH1 0x1 SLOAD DUP2 MSTORE PUSH1 0x20 ADD DUP11 DUP2 MSTORE PUSH1 0x20 ADD DUP10 PUSH1 0x1 DUP2 GT ISZERO PUSH2 0x56B JUMPI PUSH2 0x56A PUSH2 0xC93 JUMP JUMPDEST JUMPDEST DUP2 MSTORE PUSH1 0x20 ADD TIMESTAMP DUP2 MSTORE PUSH1 0x20 ADD DUP9 DUP2 MSTORE POP SWAP1 DUP1 PUSH1 0x1 DUP2 SLOAD ADD DUP1 DUP3 SSTORE DUP1 SWAP2 POP POP PUSH1 0x1 SWAP1 SUB SWAP1 PUSH1 0x0 MSTORE PUSH1 0x20 PUSH1 0x0 KECCAK256 SWAP1 PUSH1 0x5 MUL ADD PUSH1 0x0 SWAP1 SWAP2 SWAP1 SWAP2 SWAP1 SWAP2 POP PUSH1 0x0 DUP3 ADD MLOAD DUP2 PUSH1 0x0 ADD SSTORE PUSH1 0x20 DUP3 ADD MLOAD DUP2 PUSH1 0x1 ADD SSTORE PUSH1 0x40 DUP3 ADD MLOAD DUP2 PUSH1 0x2 ADD PUSH1 0x0 PUSH2 0x100 EXP DUP2 SLOAD DUP2 PUSH1 0xFF MUL NOT AND SWAP1 DUP4 PUSH1 0x1 DUP2 GT ISZERO PUSH2 0x5E2 JUMPI PUSH2 0x5E1 PUSH2 0xC93 JUMP JUMPDEST JUMPDEST MUL OR SWAP1 SSTORE POP PUSH1 0x60 DUP3 ADD MLOAD DUP2 PUSH1 0x3 ADD SSTORE PUSH1 0x80 DUP3 ADD MLOAD DUP2 PUSH1 0x4 ADD SSTORE POP POP POP POP POP POP POP POP POP POP JUMP JUMPDEST PUSH1 0x40 MLOAD DUP1 PUSH1 0xA0 ADD PUSH1 0x40 MSTORE DUP1 PUSH1 0x0 DUP2 MSTORE PUSH1 0x20 ADD PUSH1 0x0 DUP2 MSTORE PUSH1 0x20 ADD PUSH1 0x0 PUSH1 0x1 DUP2 GT ISZERO PUSH2 0x634 JUMPI PUSH2 0x633 PUSH2 0xC93 JUMP JUMPDEST JUMPDEST DUP2 MSTORE PUSH1 0x20 ADD PUSH1 0x0 DUP2 MSTORE PUSH1 0x20 ADD PUSH1 0x0 DUP2 MSTORE POP SWAP1 JUMP JUMPDEST PUSH1 0x0 PUSH2 0x65B PUSH2 0x656 DUP5 PUSH2 0xB14 JUMP JUMPDEST PUSH2 0xAEF JUMP JUMPDEST SWAP1 POP DUP3 DUP2 MSTORE PUSH1 0x20 DUP2 ADD DUP5 DUP5 DUP5 ADD GT ISZERO PUSH2 0x677 JUMPI PUSH2 0x676 PUSH2 0xD2F JUMP JUMPDEST JUMPDEST PUSH2 0x682 DUP5 DUP3 DUP6 PUSH2 0xBB7 JUMP JUMPDEST POP SWAP4 SWAP3 POP POP POP JUMP JUMPDEST PUSH1 0x0 DUP2 MLOAD SWAP1 POP PUSH2 0x699 DUP2 PUSH2 0xECB JUMP JUMPDEST SWAP3 SWAP2 POP POP JUMP JUMPDEST PUSH1 0x0 DUP2 CALLDATALOAD SWAP1 POP PUSH2 0x6AE DUP2 PUSH2 0xEE2 JUMP JUMPDEST SWAP3 SWAP2 POP POP JUMP JUMPDEST PUSH1 0x0 DUP2 MLOAD SWAP1 POP PUSH2 0x6C3 DUP2 PUSH2 0xEE2 JUMP JUMPDEST SWAP3 SWAP2 POP POP JUMP JUMPDEST PUSH1 0x0 DUP3 PUSH1 0x1F DUP4 ADD SLT PUSH2 0x6DE JUMPI PUSH2 0x6DD PUSH2 0xD20 JUMP JUMPDEST JUMPDEST DUP2 MLOAD PUSH2 0x6EE DUP5 DUP3 PUSH1 0x20 DUP7 ADD PUSH2 0x648 JUMP JUMPDEST SWAP2 POP POP SWAP3 SWAP2 POP POP JUMP JUMPDEST PUSH1 0x0 PUSH1 0xA0 DUP3 DUP5 SUB SLT ISZERO PUSH2 0x70D JUMPI PUSH2 0x70C PUSH2 0xD25 JUMP JUMPDEST JUMPDEST PUSH2 0x717 PUSH1 0xA0 PUSH2 0xAEF JUMP JUMPDEST SWAP1 POP PUSH1 0x0 PUSH2 0x727 DUP5 DUP3 DUP6 ADD PUSH2 0x7B4 JUMP JUMPDEST PUSH1 0x0 DUP4 ADD MSTORE POP PUSH1 0x20 DUP3 ADD MLOAD PUSH8 0xFFFFFFFFFFFFFFFF DUP2 GT ISZERO PUSH2 0x74B JUMPI PUSH2 0x74A PUSH2 0xD2A JUMP JUMPDEST JUMPDEST PUSH2 0x757 DUP5 DUP3 DUP6 ADD PUSH2 0x6C9 JUMP JUMPDEST PUSH1 0x20 DUP4 ADD MSTORE POP PUSH1 0x40 PUSH2 0x76B DUP5 DUP3 DUP6 ADD PUSH2 0x6B4 JUMP JUMPDEST PUSH1 0x40 DUP4 ADD MSTORE POP PUSH1 0x60 PUSH2 0x77F DUP5 DUP3 DUP6 ADD PUSH2 0x7B4 JUMP JUMPDEST PUSH1 0x60 DUP4 ADD MSTORE POP PUSH1 0x80 PUSH2 0x793 DUP5 DUP3 DUP6 ADD PUSH2 0x68A JUMP JUMPDEST PUSH1 0x80 DUP4 ADD MSTORE POP SWAP3 SWAP2 POP POP JUMP JUMPDEST PUSH1 0x0 DUP2 CALLDATALOAD SWAP1 POP PUSH2 0x7AE DUP2 PUSH2 0xEF2 JUMP JUMPDEST SWAP3 SWAP2 POP POP JUMP JUMPDEST PUSH1 0x0 DUP2 MLOAD SWAP1 POP PUSH2 0x7C3 DUP2 PUSH2 0xEF2 JUMP JUMPDEST SWAP3 SWAP2 POP POP JUMP JUMPDEST PUSH1 0x0 PUSH1 0x20 DUP3 DUP5 SUB SLT ISZERO PUSH2 0x7DF JUMPI PUSH2 0x7DE PUSH2 0xD39 JUMP JUMPDEST JUMPDEST PUSH1 0x0 DUP3 ADD MLOAD PUSH8 0xFFFFFFFFFFFFFFFF DUP2 GT ISZERO PUSH2 0x7FD JUMPI PUSH2 0x7FC PUSH2 0xD34 JUMP JUMPDEST JUMPDEST PUSH2 0x809 DUP5 DUP3 DUP6 ADD PUSH2 0x6F7 JUMP JUMPDEST SWAP2 POP POP SWAP3 SWAP2 POP POP JUMP JUMPDEST PUSH1 0x0 PUSH1 0x20 DUP3 DUP5 SUB SLT ISZERO PUSH2 0x828 JUMPI PUSH2 0x827 PUSH2 0xD39 JUMP JUMPDEST JUMPDEST PUSH1 0x0 PUSH2 0x836 DUP5 DUP3 DUP6 ADD PUSH2 0x79F JUMP JUMPDEST SWAP2 POP POP SWAP3 SWAP2 POP POP JUMP JUMPDEST PUSH1 0x0 DUP1 PUSH1 0x0 PUSH1 0x60 DUP5 DUP7 SUB SLT ISZERO PUSH2 0x858 JUMPI PUSH2 0x857 PUSH2 0xD39 JUMP JUMPDEST JUMPDEST PUSH1 0x0 PUSH2 0x866 DUP7 DUP3 DUP8 ADD PUSH2 0x79F JUMP JUMPDEST SWAP4 POP POP PUSH1 0x20 PUSH2 0x877 DUP7 DUP3 DUP8 ADD PUSH2 0x69F JUMP JUMPDEST SWAP3 POP POP PUSH1 0x40 PUSH2 0x888 DUP7 DUP3 DUP8 ADD PUSH2 0x79F JUMP JUMPDEST SWAP2 POP POP SWAP3 POP SWAP3 POP SWAP3 JUMP JUMPDEST PUSH2 0x89B DUP2 PUSH2 0xBA5 JUMP JUMPDEST DUP3 MSTORE POP POP JUMP JUMPDEST PUSH1 0x0 PUSH2 0x8AE PUSH1 0x2E DUP4 PUSH2 0xB45 JUMP JUMPDEST SWAP2 POP PUSH2 0x8B9 DUP3 PUSH2 0xD4F JUMP JUMPDEST PUSH1 0x40 DUP3 ADD SWAP1 POP SWAP2 SWAP1 POP JUMP JUMPDEST PUSH1 0x0 PUSH2 0x8D1 PUSH1 0x35 DUP4 PUSH2 0xB45 JUMP JUMPDEST SWAP2 POP PUSH2 0x8DC DUP3 PUSH2 0xD9E JUMP JUMPDEST PUSH1 0x40 DUP3 ADD SWAP1 POP SWAP2 SWAP1 POP JUMP JUMPDEST PUSH1 0x0 PUSH2 0x8F4 PUSH1 0x2E DUP4 PUSH2 0xB45 JUMP JUMPDEST SWAP2 POP PUSH2 0x8FF DUP3 PUSH2 0xDED JUMP JUMPDEST PUSH1 0x40 DUP3 ADD SWAP1 POP SWAP2 SWAP1 POP JUMP JUMPDEST PUSH1 0x0 PUSH2 0x917 PUSH1 0x13 DUP4 PUSH2 0xB45 JUMP JUMPDEST SWAP2 POP PUSH2 0x922 DUP3 PUSH2 0xE3C JUMP JUMPDEST PUSH1 0x20 DUP3 ADD SWAP1 POP SWAP2 SWAP1 POP JUMP JUMPDEST PUSH1 0x0 PUSH2 0x93A PUSH1 0x13 DUP4 PUSH2 0xB45 JUMP JUMPDEST SWAP2 POP PUSH2 0x945 DUP3 PUSH2 0xE65 JUMP JUMPDEST PUSH1 0x20 DUP3 ADD SWAP1 POP SWAP2 SWAP1 POP JUMP JUMPDEST PUSH1 0x0 PUSH2 0x95D PUSH1 0x1F DUP4 PUSH2 0xB45 JUMP JUMPDEST SWAP2 POP PUSH2 0x968 DUP3 PUSH2 0xE8E JUMP JUMPDEST PUSH1 0x20 DUP3 ADD SWAP1 POP SWAP2 SWAP1 POP JUMP JUMPDEST PUSH1 0xA0 DUP3 ADD PUSH1 0x0 DUP3 ADD MLOAD PUSH2 0x989 PUSH1 0x0 DUP6 ADD DUP3 PUSH2 0x9DB JUMP JUMPDEST POP PUSH1 0x20 DUP3 ADD MLOAD PUSH2 0x99C PUSH1 0x20 DUP6 ADD DUP3 PUSH2 0x9DB JUMP JUMPDEST POP PUSH1 0x40 DUP3 ADD MLOAD PUSH2 0x9AF PUSH1 0x40 DUP6 ADD DUP3 PUSH2 0x892 JUMP JUMPDEST POP PUSH1 0x60 DUP3 ADD MLOAD PUSH2 0x9C2 PUSH1 0x60 DUP6 ADD DUP3 PUSH2 0x9DB JUMP JUMPDEST POP PUSH1 0x80 DUP3 ADD MLOAD PUSH2 0x9D5 PUSH1 0x80 DUP6 ADD DUP3 PUSH2 0x9DB JUMP JUMPDEST POP POP POP POP JUMP JUMPDEST PUSH2 0x9E4 DUP2 PUSH2 0xB9B JUMP JUMPDEST DUP3 MSTORE POP POP JUMP JUMPDEST PUSH2 0x9F3 DUP2 PUSH2 0xB9B JUMP JUMPDEST DUP3 MSTORE POP POP JUMP JUMPDEST PUSH1 0x0 PUSH1 0x20 DUP3 ADD SWAP1 POP DUP2 DUP2 SUB PUSH1 0x0 DUP4 ADD MSTORE PUSH2 0xA12 DUP2 PUSH2 0x8A1 JUMP JUMPDEST SWAP1 POP SWAP2 SWAP1 POP JUMP JUMPDEST PUSH1 0x0 PUSH1 0x20 DUP3 ADD SWAP1 POP DUP2 DUP2 SUB PUSH1 0x0 DUP4 ADD MSTORE PUSH2 0xA32 DUP2 PUSH2 0x8C4 JUMP JUMPDEST SWAP1 POP SWAP2 SWAP1 POP JUMP JUMPDEST PUSH1 0x0 PUSH1 0x20 DUP3 ADD SWAP1 POP DUP2 DUP2 SUB PUSH1 0x0 DUP4 ADD MSTORE PUSH2 0xA52 DUP2 PUSH2 0x8E7 JUMP JUMPDEST SWAP1 POP SWAP2 SWAP1 POP JUMP JUMPDEST PUSH1 0x0 PUSH1 0x20 DUP3 ADD SWAP1 POP DUP2 DUP2 SUB PUSH1 0x0 DUP4 ADD MSTORE PUSH2 0xA72 DUP2 PUSH2 0x90A JUMP JUMPDEST SWAP1 POP SWAP2 SWAP1 POP JUMP JUMPDEST PUSH1 0x0 PUSH1 0x20 DUP3 ADD SWAP1 POP DUP2 DUP2 SUB PUSH1 0x0 DUP4 ADD MSTORE PUSH2 0xA92 DUP2 PUSH2 0x92D JUMP JUMPDEST SWAP1 POP SWAP2 SWAP1 POP JUMP JUMPDEST PUSH1 0x0 PUSH1 0x20 DUP3 ADD SWAP1 POP DUP2 DUP2 SUB PUSH1 0x0 DUP4 ADD MSTORE PUSH2 0xAB2 DUP2 PUSH2 0x950 JUMP JUMPDEST SWAP1 POP SWAP2 SWAP1 POP JUMP JUMPDEST PUSH1 0x0 PUSH1 0xA0 DUP3 ADD SWAP1 POP PUSH2 0xACE PUSH1 0x0 DUP4 ADD DUP5 PUSH2 0x973 JUMP JUMPDEST SWAP3 SWAP2 POP POP JUMP JUMPDEST PUSH1 0x0 PUSH1 0x20 DUP3 ADD SWAP1 POP PUSH2 0xAE9 PUSH1 0x0 DUP4 ADD DUP5 PUSH2 0x9EA JUMP JUMPDEST SWAP3 SWAP2 POP POP JUMP JUMPDEST PUSH1 0x0 PUSH2 0xAF9 PUSH2 0xB0A JUMP JUMPDEST SWAP1 POP PUSH2 0xB05 DUP3 DUP3 PUSH2 0xBEA JUMP JUMPDEST SWAP2 SWAP1 POP JUMP JUMPDEST PUSH1 0x0 PUSH1 0x40 MLOAD SWAP1 POP SWAP1 JUMP JUMPDEST PUSH1 0x0 PUSH8 0xFFFFFFFFFFFFFFFF DUP3 GT ISZERO PUSH2 0xB2F JUMPI PUSH2 0xB2E PUSH2 0xCF1 JUMP JUMPDEST JUMPDEST PUSH2 0xB38 DUP3 PUSH2 0xD3E JUMP JUMPDEST SWAP1 POP PUSH1 0x20 DUP2 ADD SWAP1 POP SWAP2 SWAP1 POP JUMP JUMPDEST PUSH1 0x0 DUP3 DUP3 MSTORE PUSH1 0x20 DUP3 ADD SWAP1 POP SWAP3 SWAP2 POP POP JUMP JUMPDEST PUSH1 0x0 PUSH2 0xB61 DUP3 PUSH2 0xB7B JUMP JUMPDEST SWAP1 POP SWAP2 SWAP1 POP JUMP JUMPDEST PUSH1 0x0 DUP2 SWAP1 POP PUSH2 0xB76 DUP3 PUSH2 0xEB7 JUMP JUMPDEST SWAP2 SWAP1 POP JUMP JUMPDEST PUSH1 0x0 PUSH20 0xFFFFFFFFFFFFFFFFFFFFFFFFFFFFFFFFFFFFFFFF DUP3 AND SWAP1 POP SWAP2 SWAP1 POP JUMP JUMPDEST PUSH1 0x0 DUP2 SWAP1 POP SWAP2 SWAP1 POP JUMP JUMPDEST PUSH1 0x0 PUSH2 0xBB0 DUP3 PUSH2 0xB68 JUMP JUMPDEST SWAP1 POP SWAP2 SWAP1 POP JUMP JUMPDEST PUSH1 0x0 JUMPDEST DUP4 DUP2 LT ISZERO PUSH2 0xBD5 JUMPI DUP1 DUP3 ADD MLOAD DUP2 DUP5 ADD MSTORE PUSH1 0x20 DUP2 ADD SWAP1 POP PUSH2 0xBBA JUMP JUMPDEST DUP4 DUP2 GT ISZERO PUSH2 0xBE4 JUMPI PUSH1 0x0 DUP5 DUP5 ADD MSTORE JUMPDEST POP POP POP POP JUMP JUMPDEST PUSH2 0xBF3 DUP3 PUSH2 0xD3E JUMP JUMPDEST DUP2 ADD DUP2 DUP2 LT PUSH8 0xFFFFFFFFFFFFFFFF DUP3 GT OR ISZERO PUSH2 0xC12 JUMPI PUSH2 0xC11 PUSH2 0xCF1 JUMP JUMPDEST JUMPDEST DUP1 PUSH1 0x40 MSTORE POP POP POP JUMP JUMPDEST PUSH1 0x0 PUSH2 0xC26 DUP3 PUSH2 0xB9B JUMP JUMPDEST SWAP2 POP PUSH32 0xFFFFFFFFFFFFFFFFFFFFFFFFFFFFFFFFFFFFFFFFFFFFFFFFFFFFFFFFFFFFFFFF DUP3 EQ ISZERO PUSH2 0xC59 JUMPI PUSH2 0xC58 PUSH2 0xC64 JUMP JUMPDEST JUMPDEST PUSH1 0x1 DUP3 ADD SWAP1 POP SWAP2 SWAP1 POP JUMP JUMPDEST PUSH32 0x4E487B7100000000000000000000000000000000000000000000000000000000 PUSH1 0x0 MSTORE PUSH1 0x11 PUSH1 0x4 MSTORE PUSH1 0x24 PUSH1 0x0 REVERT JUMPDEST PUSH32 0x4E487B7100000000000000000000000000000000000000000000000000000000 PUSH1 0x0 MSTORE PUSH1 0x21 PUSH1 0x4 MSTORE PUSH1 0x24 PUSH1 0x0 REVERT JUMPDEST PUSH32 0x4E487B7100000000000000000000000000000000000000000000000000000000 PUSH1 0x0 MSTORE PUSH1 0x32 PUSH1 0x4 MSTORE PUSH1 0x24 PUSH1 0x0 REVERT JUMPDEST PUSH32 0x4E487B7100000000000000000000000000000000000000000000000000000000 PUSH1 0x0 MSTORE PUSH1 0x41 PUSH1 0x4 MSTORE PUSH1 0x24 PUSH1 0x0 REVERT JUMPDEST PUSH1 0x0 DUP1 REVERT JUMPDEST PUSH1 0x0 DUP1 REVERT JUMPDEST PUSH1 0x0 DUP1 REVERT JUMPDEST PUSH1 0x0 DUP1 REVERT JUMPDEST PUSH1 0x0 DUP1 REVERT JUMPDEST PUSH1 0x0 DUP1 REVERT JUMPDEST PUSH1 0x0 PUSH1 0x1F NOT PUSH1 0x1F DUP4 ADD AND SWAP1 POP SWAP2 SWAP1 POP JUMP JUMPDEST PUSH32 0x437573746F6D657220616E6420636C61696D20706F6C69637920686176652074 PUSH1 0x0 DUP3 ADD MSTORE PUSH32 0x6F206265207468652073616D652E000000000000000000000000000000000000 PUSH1 0x20 DUP3 ADD MSTORE POP JUMP JUMPDEST PUSH32 0x506F6C69637920646174652068617320657870697265642C20706C6561736520 PUSH1 0x0 DUP3 ADD MSTORE PUSH32 0x75706461746520796F757220636F6E74726163742E0000000000000000000000 PUSH1 0x20 DUP3 ADD MSTORE POP JUMP JUMPDEST PUSH32 0x437573746F6D657220616E6420636C61696D20706F6C6963792063616E6E6F74 PUSH1 0x0 DUP3 ADD MSTORE PUSH32 0x20626520646966666572656E742E000000000000000000000000000000000000 PUSH1 0x20 DUP3 ADD MSTORE POP JUMP JUMPDEST PUSH32 0x437573746F6D6572206E6F7420666F756E642E00000000000000000000000000 PUSH1 0x0 DUP3 ADD MSTORE POP JUMP JUMPDEST PUSH32 0x506F6C6963792068617320657870697265642E00000000000000000000000000 PUSH1 0x0 DUP3 ADD MSTORE POP JUMP JUMPDEST PUSH32 0x437573746F6D6572206964656E74697479206973206E6F742076616C69642E00 PUSH1 0x0 DUP3 ADD MSTORE POP JUMP JUMPDEST PUSH1 0x2 DUP2 LT PUSH2 0xEC8 JUMPI PUSH2 0xEC7 PUSH2 0xC93 JUMP JUMPDEST JUMPDEST POP JUMP JUMPDEST PUSH2 0xED4 DUP2 PUSH2 0xB56 JUMP JUMPDEST DUP2 EQ PUSH2 0xEDF JUMPI PUSH1 0x0 DUP1 REVERT JUMPDEST POP JUMP JUMPDEST PUSH1 0x2 DUP2 LT PUSH2 0xEEF JUMPI PUSH1 0x0 DUP1 REVERT JUMPDEST POP JUMP JUMPDEST PUSH2 0xEFB DUP2 PUSH2 0xB9B JUMP JUMPDEST DUP2 EQ PUSH2 0xF06 JUMPI PUSH1 0x0 DUP1 REVERT JUMPDEST POP JUMP INVALID LOG2 PUSH5 0x6970667358 0x22 SLT KECCAK256 SWAP13 0x4B KECCAK256 0xB1 0xE0 DUP5 0x4C 0xBB SWAP14 0xE7 0x28 PUSH31 0x8B12DC037EC553E6E3E8617A839170BFCA35493564736F6C63430008070033 "
				},
				"gasEstimates": {
					"creation": {
						"codeDepositCost": "780600",
						"executionCost": "infinite",
						"totalCost": "infinite"
					},
					"external": {
						"getClaim(uint256)": "infinite",
						"receiveAClaim(uint256,uint8,uint256)": "infinite"
					}
				},
				"methodIdentifiers": {
					"getClaim(uint256)": "5aef2447",
					"receiveAClaim(uint256,uint8,uint256)": "91bbdc49"
				}
			},
			"storageLayout": {
				"storage": [
					{
						"astId": 8,
						"contract": "contracts/ClaimHandling.sol:ClaimHandlingContract",
						"label": "customerContract",
						"offset": 0,
						"slot": "0",
						"type": "t_contract(CustomerContract)346"
					},
					{
						"astId": 11,
						"contract": "contracts/ClaimHandling.sol:ClaimHandlingContract",
						"label": "numClaim",
						"offset": 0,
						"slot": "1",
						"type": "t_uint256"
					},
					{
						"astId": 15,
						"contract": "contracts/ClaimHandling.sol:ClaimHandlingContract",
						"label": "claims",
						"offset": 0,
						"slot": "2",
						"type": "t_array(t_struct(Claim)375_storage)dyn_storage"
					}
				],
				"types": {
					"t_array(t_struct(Claim)375_storage)dyn_storage": {
						"base": "t_struct(Claim)375_storage",
						"encoding": "dynamic_array",
						"label": "struct InsuranceCompanyContract.Claim[]",
						"numberOfBytes": "32"
					},
					"t_contract(CustomerContract)346": {
						"encoding": "inplace",
						"label": "contract CustomerContract",
						"numberOfBytes": "20"
					},
					"t_enum(insurancePolicy)351": {
						"encoding": "inplace",
						"label": "enum InsuranceCompanyContract.insurancePolicy",
						"numberOfBytes": "1"
					},
					"t_struct(Claim)375_storage": {
						"encoding": "inplace",
						"label": "struct InsuranceCompanyContract.Claim",
						"members": [
							{
								"astId": 365,
								"contract": "contracts/ClaimHandling.sol:ClaimHandlingContract",
								"label": "id",
								"offset": 0,
								"slot": "0",
								"type": "t_uint256"
							},
							{
								"astId": 367,
								"contract": "contracts/ClaimHandling.sol:ClaimHandlingContract",
								"label": "customerId",
								"offset": 0,
								"slot": "1",
								"type": "t_uint256"
							},
							{
								"astId": 370,
								"contract": "contracts/ClaimHandling.sol:ClaimHandlingContract",
								"label": "policyType",
								"offset": 0,
								"slot": "2",
								"type": "t_enum(insurancePolicy)351"
							},
							{
								"astId": 372,
								"contract": "contracts/ClaimHandling.sol:ClaimHandlingContract",
								"label": "claimDate",
								"offset": 0,
								"slot": "3",
								"type": "t_uint256"
							},
							{
								"astId": 374,
								"contract": "contracts/ClaimHandling.sol:ClaimHandlingContract",
								"label": "damagePercentage",
								"offset": 0,
								"slot": "4",
								"type": "t_uint256"
							}
						],
						"numberOfBytes": "160"
					},
					"t_uint256": {
						"encoding": "inplace",
						"label": "uint256",
						"numberOfBytes": "32"
					}
				}
			},
			"userdoc": {
				"kind": "user",
				"methods": {},
				"version": 1
			}
		}
	}
}