{
	"contracts/Customer.sol": {
		"CustomerContract": {
			"abi": [
				{
					"inputs": [],
					"stateMutability": "nonpayable",
					"type": "constructor"
				},
				{
					"inputs": [
						{
							"internalType": "string",
							"name": "name",
							"type": "string"
						},
						{
							"internalType": "enum InsurranceCompanyContract.insurancePolicy",
							"name": "policyType",
							"type": "uint8"
						},
						{
							"internalType": "uint256",
							"name": "validityInDays",
							"type": "uint256"
						}
					],
					"name": "addCustomer",
					"outputs": [],
					"stateMutability": "nonpayable",
					"type": "function"
				},
				{
					"inputs": [
						{
							"internalType": "uint256",
							"name": "customerId",
							"type": "uint256"
						}
					],
					"name": "getCustomer",
					"outputs": [
						{
							"components": [
								{
									"internalType": "uint256",
									"name": "id",
									"type": "uint256"
								},
								{
									"internalType": "string",
									"name": "name",
									"type": "string"
								},
								{
									"internalType": "enum InsurranceCompanyContract.insurancePolicy",
									"name": "policyType",
									"type": "uint8"
								},
								{
									"internalType": "uint256",
									"name": "validityDate",
									"type": "uint256"
								}
							],
							"internalType": "struct InsurranceCompanyContract.Customer",
							"name": "customer",
							"type": "tuple"
						}
					],
					"stateMutability": "view",
					"type": "function"
				},
				{
					"inputs": [
						{
							"internalType": "uint256",
							"name": "customerId",
							"type": "uint256"
						},
						{
							"internalType": "string",
							"name": "newName",
							"type": "string"
						}
					],
					"name": "updateCustomerInformations",
					"outputs": [
						{
							"internalType": "bool",
							"name": "",
							"type": "bool"
						}
					],
					"stateMutability": "nonpayable",
					"type": "function"
				}
			],
			"devdoc": {
				"kind": "dev",
				"methods": {},
				"version": 1
			},
			"evm": {
				"assembly": "    /* \"contracts/Customer.sol\":99:1351  contract CustomerContract is InsurranceCompanyContract {\r... */\n  mstore(0x40, 0x80)\n    /* \"contracts/Customer.sol\":180:181  0 */\n  0x00\n    /* \"contracts/Customer.sol\":161:181  uint numCustomer = 0 */\n  dup1\n  sstore\n    /* \"contracts/Customer.sol\":217:297  constructor(){\r... */\n  callvalue\n  dup1\n  iszero\n  tag_1\n  jumpi\n  0x00\n  dup1\n  revert\ntag_1:\n  pop\n    /* \"contracts/Customer.sol\":241:289  addCustomer(\"Tom\", insurancePolicy.AllRisk, 300) */\n  tag_4\n  mload(0x40)\n  dup1\n  0x40\n  add\n  0x40\n  mstore\n  dup1\n  0x03\n  dup2\n  mstore\n  0x20\n  add\n  0x546f6d0000000000000000000000000000000000000000000000000000000000\n  dup2\n  mstore\n  pop\n    /* \"contracts/Customer.sol\":260:283  insurancePolicy.AllRisk */\n  0x01\n    /* \"contracts/Customer.sol\":285:288  300 */\n  0x012c\n    /* \"contracts/Customer.sol\":241:252  addCustomer */\n  shl(0x20, tag_5)\n    /* \"contracts/Customer.sol\":241:289  addCustomer(\"Tom\", insurancePolicy.AllRisk, 300) */\n  0x20\n  shr\n  jump\t// in\ntag_4:\n    /* \"contracts/Customer.sol\":99:1351  contract CustomerContract is InsurranceCompanyContract {\r... */\n  jump(tag_6)\n    /* \"contracts/Customer.sol\":305:655  function addCustomer(string memory name, insurancePolicy policyType, uint validityInDays) public {\r... */\ntag_5:\n    /* \"contracts/Customer.sol\":413:424  numCustomer */\n  0x00\n  dup1\n    /* \"contracts/Customer.sol\":413:426  numCustomer++ */\n  dup2\n  sload\n  dup1\n  swap3\n  swap2\n  swap1\n  tag_8\n  swap1\n  tag_9\n  jump\t// in\ntag_8:\n  swap2\n  swap1\n  pop\n  sstore\n  pop\n    /* \"contracts/Customer.sol\":437:446  customers */\n  0x01\n    /* \"contracts/Customer.sol\":466:636  Customer(\r... */\n  mload(0x40)\n  dup1\n  0x80\n  add\n  0x40\n  mstore\n  dup1\n    /* \"contracts/Customer.sol\":493:504  numCustomer */\n  sload(0x00)\n    /* \"contracts/Customer.sol\":466:636  Customer(\r... */\n  dup2\n  mstore\n  0x20\n  add\n    /* \"contracts/Customer.sol\":524:528  name */\n  dup6\n    /* \"contracts/Customer.sol\":466:636  Customer(\r... */\n  dup2\n  mstore\n  0x20\n  add\n    /* \"contracts/Customer.sol\":548:558  policyType */\n  dup5\n    /* \"contracts/Customer.sol\":466:636  Customer(\r... */\n  0x01\n  dup2\n  gt\n  iszero\n  tag_10\n  jumpi\n  tag_11\n  tag_12\n  jump\t// in\ntag_11:\ntag_10:\n  dup2\n  mstore\n  0x20\n  add\n    /* \"contracts/Customer.sol\":614:620  1 days */\n  0x015180\n    /* \"contracts/Customer.sol\":597:611  validityInDays */\n  dup5\n    /* \"contracts/Customer.sol\":597:620  validityInDays * 1 days */\n  tag_13\n  swap2\n  swap1\n  tag_14\n  jump\t// in\ntag_13:\n    /* \"contracts/Customer.sol\":578:593  block.timestamp */\n  timestamp\n    /* \"contracts/Customer.sol\":578:621  block.timestamp + (validityInDays * 1 days) */\n  tag_15\n  swap2\n  swap1\n  tag_16\n  jump\t// in\ntag_15:\n    /* \"contracts/Customer.sol\":466:636  Customer(\r... */\n  dup2\n  mstore\n  pop\n    /* \"contracts/Customer.sol\":437:647  customers.push(\r... */\n  swap1\n  dup1\n  0x01\n  dup2\n  sload\n  add\n  dup1\n  dup3\n  sstore\n  dup1\n  swap2\n  pop\n  pop\n  0x01\n  swap1\n  sub\n  swap1\n  0x00\n  mstore\n  keccak256(0x00, 0x20)\n  swap1\n  0x04\n  mul\n  add\n  0x00\n  swap1\n  swap2\n  swap1\n  swap2\n  swap1\n  swap2\n  pop\n  0x00\n  dup3\n  add\n  mload\n  dup2\n  0x00\n  add\n  sstore\n  0x20\n  dup3\n  add\n  mload\n  dup2\n  0x01\n  add\n  swap1\n  dup1\n  mload\n  swap1\n  0x20\n  add\n  swap1\n  tag_18\n  swap3\n  swap2\n  swap1\n  tag_19\n  jump\t// in\ntag_18:\n  pop\n  0x40\n  dup3\n  add\n  mload\n  dup2\n  0x02\n  add\n  exp(0x0100, 0x00)\n  dup2\n  sload\n  dup2\n  0xff\n  mul\n  not\n  and\n  swap1\n  dup4\n  0x01\n  dup2\n  gt\n  iszero\n  tag_20\n  jumpi\n  tag_21\n  tag_12\n  jump\t// in\ntag_21:\ntag_20:\n  mul\n  or\n  swap1\n  sstore\n  pop\n  0x60\n  dup3\n  add\n  mload\n  dup2\n  0x03\n  add\n  sstore\n  pop\n  pop\n    /* \"contracts/Customer.sol\":305:655  function addCustomer(string memory name, insurancePolicy policyType, uint validityInDays) public {\r... */\n  pop\n  pop\n  pop\n  jump\t// out\n    /* \"contracts/Customer.sol\":99:1351  contract CustomerContract is InsurranceCompanyContract {\r... */\ntag_19:\n  dup3\n  dup1\n  sload\n  tag_22\n  swap1\n  tag_23\n  jump\t// in\ntag_22:\n  swap1\n  0x00\n  mstore\n  keccak256(0x00, 0x20)\n  swap1\n  0x1f\n  add\n  0x20\n  swap1\n  div\n  dup2\n  add\n  swap3\n  dup3\n  tag_25\n  jumpi\n  0x00\n  dup6\n  sstore\n  jump(tag_24)\ntag_25:\n  dup3\n  0x1f\n  lt\n  tag_26\n  jumpi\n  dup1\n  mload\n  not(0xff)\n  and\n  dup4\n  dup1\n  add\n  or\n  dup6\n  sstore\n  jump(tag_24)\ntag_26:\n  dup3\n  dup1\n  add\n  0x01\n  add\n  dup6\n  sstore\n  dup3\n  iszero\n  tag_24\n  jumpi\n  swap2\n  dup3\n  add\ntag_27:\n  dup3\n  dup2\n  gt\n  iszero\n  tag_28\n  jumpi\n  dup3\n  mload\n  dup3\n  sstore\n  swap2\n  0x20\n  add\n  swap2\n  swap1\n  0x01\n  add\n  swap1\n  jump(tag_27)\ntag_28:\ntag_24:\n  pop\n  swap1\n  pop\n  tag_29\n  swap2\n  swap1\n  tag_30\n  jump\t// in\ntag_29:\n  pop\n  swap1\n  jump\t// out\ntag_30:\ntag_31:\n  dup1\n  dup3\n  gt\n  iszero\n  tag_32\n  jumpi\n  0x00\n  dup2\n  0x00\n  swap1\n  sstore\n  pop\n  0x01\n  add\n  jump(tag_31)\ntag_32:\n  pop\n  swap1\n  jump\t// out\n    /* \"#utility.yul\":7:312   */\ntag_16:\n    /* \"#utility.yul\":47:50   */\n  0x00\n    /* \"#utility.yul\":66:86   */\n  tag_35\n    /* \"#utility.yul\":84:85   */\n  dup3\n    /* \"#utility.yul\":66:86   */\n  tag_36\n  jump\t// in\ntag_35:\n    /* \"#utility.yul\":61:86   */\n  swap2\n  pop\n    /* \"#utility.yul\":100:120   */\n  tag_37\n    /* \"#utility.yul\":118:119   */\n  dup4\n    /* \"#utility.yul\":100:120   */\n  tag_36\n  jump\t// in\ntag_37:\n    /* \"#utility.yul\":95:120   */\n  swap3\n  pop\n    /* \"#utility.yul\":254:255   */\n  dup3\n    /* \"#utility.yul\":186:252   */\n  0xffffffffffffffffffffffffffffffffffffffffffffffffffffffffffffffff\n    /* \"#utility.yul\":182:256   */\n  sub\n    /* \"#utility.yul\":179:180   */\n  dup3\n    /* \"#utility.yul\":176:257   */\n  gt\n    /* \"#utility.yul\":173:280   */\n  iszero\n  tag_38\n  jumpi\n    /* \"#utility.yul\":260:278   */\n  tag_39\n  tag_40\n  jump\t// in\ntag_39:\n    /* \"#utility.yul\":173:280   */\ntag_38:\n    /* \"#utility.yul\":304:305   */\n  dup3\n    /* \"#utility.yul\":301:302   */\n  dup3\n    /* \"#utility.yul\":297:306   */\n  add\n    /* \"#utility.yul\":290:306   */\n  swap1\n  pop\n    /* \"#utility.yul\":7:312   */\n  swap3\n  swap2\n  pop\n  pop\n  jump\t// out\n    /* \"#utility.yul\":318:666   */\ntag_14:\n    /* \"#utility.yul\":358:365   */\n  0x00\n    /* \"#utility.yul\":381:401   */\n  tag_42\n    /* \"#utility.yul\":399:400   */\n  dup3\n    /* \"#utility.yul\":381:401   */\n  tag_36\n  jump\t// in\ntag_42:\n    /* \"#utility.yul\":376:401   */\n  swap2\n  pop\n    /* \"#utility.yul\":415:435   */\n  tag_43\n    /* \"#utility.yul\":433:434   */\n  dup4\n    /* \"#utility.yul\":415:435   */\n  tag_36\n  jump\t// in\ntag_43:\n    /* \"#utility.yul\":410:435   */\n  swap3\n  pop\n    /* \"#utility.yul\":603:604   */\n  dup2\n    /* \"#utility.yul\":535:601   */\n  0xffffffffffffffffffffffffffffffffffffffffffffffffffffffffffffffff\n    /* \"#utility.yul\":531:605   */\n  div\n    /* \"#utility.yul\":528:529   */\n  dup4\n    /* \"#utility.yul\":525:606   */\n  gt\n    /* \"#utility.yul\":520:521   */\n  dup3\n    /* \"#utility.yul\":513:522   */\n  iszero\n    /* \"#utility.yul\":506:523   */\n  iszero\n    /* \"#utility.yul\":502:607   */\n  and\n    /* \"#utility.yul\":499:630   */\n  iszero\n  tag_44\n  jumpi\n    /* \"#utility.yul\":610:628   */\n  tag_45\n  tag_40\n  jump\t// in\ntag_45:\n    /* \"#utility.yul\":499:630   */\ntag_44:\n    /* \"#utility.yul\":658:659   */\n  dup3\n    /* \"#utility.yul\":655:656   */\n  dup3\n    /* \"#utility.yul\":651:660   */\n  mul\n    /* \"#utility.yul\":640:660   */\n  swap1\n  pop\n    /* \"#utility.yul\":318:666   */\n  swap3\n  swap2\n  pop\n  pop\n  jump\t// out\n    /* \"#utility.yul\":672:749   */\ntag_36:\n    /* \"#utility.yul\":709:716   */\n  0x00\n    /* \"#utility.yul\":738:743   */\n  dup2\n    /* \"#utility.yul\":727:743   */\n  swap1\n  pop\n    /* \"#utility.yul\":672:749   */\n  swap2\n  swap1\n  pop\n  jump\t// out\n    /* \"#utility.yul\":755:1075   */\ntag_23:\n    /* \"#utility.yul\":799:805   */\n  0x00\n    /* \"#utility.yul\":836:837   */\n  0x02\n    /* \"#utility.yul\":830:834   */\n  dup3\n    /* \"#utility.yul\":826:838   */\n  div\n    /* \"#utility.yul\":816:838   */\n  swap1\n  pop\n    /* \"#utility.yul\":883:884   */\n  0x01\n    /* \"#utility.yul\":877:881   */\n  dup3\n    /* \"#utility.yul\":873:885   */\n  and\n    /* \"#utility.yul\":904:922   */\n  dup1\n    /* \"#utility.yul\":894:975   */\n  tag_48\n  jumpi\n    /* \"#utility.yul\":960:964   */\n  0x7f\n    /* \"#utility.yul\":952:958   */\n  dup3\n    /* \"#utility.yul\":948:965   */\n  and\n    /* \"#utility.yul\":938:965   */\n  swap2\n  pop\n    /* \"#utility.yul\":894:975   */\ntag_48:\n    /* \"#utility.yul\":1022:1024   */\n  0x20\n    /* \"#utility.yul\":1014:1020   */\n  dup3\n    /* \"#utility.yul\":1011:1025   */\n  lt\n    /* \"#utility.yul\":991:1009   */\n  dup2\n    /* \"#utility.yul\":988:1026   */\n  eq\n    /* \"#utility.yul\":985:1069   */\n  iszero\n  tag_49\n  jumpi\n    /* \"#utility.yul\":1041:1059   */\n  tag_50\n  tag_51\n  jump\t// in\ntag_50:\n    /* \"#utility.yul\":985:1069   */\ntag_49:\n    /* \"#utility.yul\":806:1075   */\n  pop\n    /* \"#utility.yul\":755:1075   */\n  swap2\n  swap1\n  pop\n  jump\t// out\n    /* \"#utility.yul\":1081:1314   */\ntag_9:\n    /* \"#utility.yul\":1120:1123   */\n  0x00\n    /* \"#utility.yul\":1143:1167   */\n  tag_53\n    /* \"#utility.yul\":1161:1166   */\n  dup3\n    /* \"#utility.yul\":1143:1167   */\n  tag_36\n  jump\t// in\ntag_53:\n    /* \"#utility.yul\":1134:1167   */\n  swap2\n  pop\n    /* \"#utility.yul\":1189:1255   */\n  0xffffffffffffffffffffffffffffffffffffffffffffffffffffffffffffffff\n    /* \"#utility.yul\":1182:1187   */\n  dup3\n    /* \"#utility.yul\":1179:1256   */\n  eq\n    /* \"#utility.yul\":1176:1279   */\n  iszero\n  tag_54\n  jumpi\n    /* \"#utility.yul\":1259:1277   */\n  tag_55\n  tag_40\n  jump\t// in\ntag_55:\n    /* \"#utility.yul\":1176:1279   */\ntag_54:\n    /* \"#utility.yul\":1306:1307   */\n  0x01\n    /* \"#utility.yul\":1299:1304   */\n  dup3\n    /* \"#utility.yul\":1295:1308   */\n  add\n    /* \"#utility.yul\":1288:1308   */\n  swap1\n  pop\n    /* \"#utility.yul\":1081:1314   */\n  swap2\n  swap1\n  pop\n  jump\t// out\n    /* \"#utility.yul\":1320:1500   */\ntag_40:\n    /* \"#utility.yul\":1368:1445   */\n  0x4e487b7100000000000000000000000000000000000000000000000000000000\n    /* \"#utility.yul\":1365:1366   */\n  0x00\n    /* \"#utility.yul\":1358:1446   */\n  mstore\n    /* \"#utility.yul\":1465:1469   */\n  0x11\n    /* \"#utility.yul\":1462:1463   */\n  0x04\n    /* \"#utility.yul\":1455:1470   */\n  mstore\n    /* \"#utility.yul\":1489:1493   */\n  0x24\n    /* \"#utility.yul\":1486:1487   */\n  0x00\n    /* \"#utility.yul\":1479:1494   */\n  revert\n    /* \"#utility.yul\":1506:1686   */\ntag_12:\n    /* \"#utility.yul\":1554:1631   */\n  0x4e487b7100000000000000000000000000000000000000000000000000000000\n    /* \"#utility.yul\":1551:1552   */\n  0x00\n    /* \"#utility.yul\":1544:1632   */\n  mstore\n    /* \"#utility.yul\":1651:1655   */\n  0x21\n    /* \"#utility.yul\":1648:1649   */\n  0x04\n    /* \"#utility.yul\":1641:1656   */\n  mstore\n    /* \"#utility.yul\":1675:1679   */\n  0x24\n    /* \"#utility.yul\":1672:1673   */\n  0x00\n    /* \"#utility.yul\":1665:1680   */\n  revert\n    /* \"#utility.yul\":1692:1872   */\ntag_51:\n    /* \"#utility.yul\":1740:1817   */\n  0x4e487b7100000000000000000000000000000000000000000000000000000000\n    /* \"#utility.yul\":1737:1738   */\n  0x00\n    /* \"#utility.yul\":1730:1818   */\n  mstore\n    /* \"#utility.yul\":1837:1841   */\n  0x22\n    /* \"#utility.yul\":1834:1835   */\n  0x04\n    /* \"#utility.yul\":1827:1842   */\n  mstore\n    /* \"#utility.yul\":1861:1865   */\n  0x24\n    /* \"#utility.yul\":1858:1859   */\n  0x00\n    /* \"#utility.yul\":1851:1866   */\n  revert\n    /* \"contracts/Customer.sol\":99:1351  contract CustomerContract is InsurranceCompanyContract {\r... */\ntag_6:\n  dataSize(sub_0)\n  dup1\n  dataOffset(sub_0)\n  0x00\n  codecopy\n  0x00\n  return\nstop\n\nsub_0: assembly {\n        /* \"contracts/Customer.sol\":99:1351  contract CustomerContract is InsurranceCompanyContract {\r... */\n      mstore(0x40, 0x80)\n      callvalue\n      dup1\n      iszero\n      tag_1\n      jumpi\n      0x00\n      dup1\n      revert\n    tag_1:\n      pop\n      jumpi(tag_2, lt(calldatasize, 0x04))\n      shr(0xe0, calldataload(0x00))\n      dup1\n      0x0db92a72\n      eq\n      tag_3\n      jumpi\n      dup1\n      0x9b4e051c\n      eq\n      tag_4\n      jumpi\n      dup1\n      0xeb876f27\n      eq\n      tag_5\n      jumpi\n    tag_2:\n      0x00\n      dup1\n      revert\n        /* \"contracts/Customer.sol\":1014:1348  function updateCustomerInformations(uint customerId, string memory newName) public returns (bool) {\r... */\n    tag_3:\n      tag_6\n      0x04\n      dup1\n      calldatasize\n      sub\n      dup2\n      add\n      swap1\n      tag_7\n      swap2\n      swap1\n      tag_8\n      jump\t// in\n    tag_7:\n      tag_9\n      jump\t// in\n    tag_6:\n      mload(0x40)\n      tag_10\n      swap2\n      swap1\n      tag_11\n      jump\t// in\n    tag_10:\n      mload(0x40)\n      dup1\n      swap2\n      sub\n      swap1\n      return\n        /* \"contracts/Customer.sol\":305:655  function addCustomer(string memory name, insurancePolicy policyType, uint validityInDays) public {\r... */\n    tag_4:\n      tag_12\n      0x04\n      dup1\n      calldatasize\n      sub\n      dup2\n      add\n      swap1\n      tag_13\n      swap2\n      swap1\n      tag_14\n      jump\t// in\n    tag_13:\n      tag_15\n      jump\t// in\n    tag_12:\n      stop\n        /* \"contracts/Customer.sol\":663:1006  function getCustomer(uint customerId) public view returns (Customer memory customer){\r... */\n    tag_5:\n      tag_16\n      0x04\n      dup1\n      calldatasize\n      sub\n      dup2\n      add\n      swap1\n      tag_17\n      swap2\n      swap1\n      tag_18\n      jump\t// in\n    tag_17:\n      tag_19\n      jump\t// in\n    tag_16:\n      mload(0x40)\n      tag_20\n      swap2\n      swap1\n      tag_21\n      jump\t// in\n    tag_20:\n      mload(0x40)\n      dup1\n      swap2\n      sub\n      swap1\n      return\n        /* \"contracts/Customer.sol\":1014:1348  function updateCustomerInformations(uint customerId, string memory newName) public returns (bool) {\r... */\n    tag_9:\n        /* \"contracts/Customer.sol\":1106:1110  bool */\n      0x00\n        /* \"contracts/Customer.sol\":1127:1133  uint i */\n      dup1\n        /* \"contracts/Customer.sol\":1136:1137  0 */\n      0x00\n        /* \"contracts/Customer.sol\":1127:1137  uint i = 0 */\n      swap1\n      pop\n        /* \"contracts/Customer.sol\":1123:1318  for(uint i = 0; i < customers.length; i++) {\r... */\n    tag_23:\n        /* \"contracts/Customer.sol\":1143:1152  customers */\n      0x01\n        /* \"contracts/Customer.sol\":1143:1159  customers.length */\n      dup1\n      sload\n      swap1\n      pop\n        /* \"contracts/Customer.sol\":1139:1140  i */\n      dup2\n        /* \"contracts/Customer.sol\":1139:1159  i < customers.length */\n      lt\n        /* \"contracts/Customer.sol\":1123:1318  for(uint i = 0; i < customers.length; i++) {\r... */\n      iszero\n      tag_24\n      jumpi\n        /* \"contracts/Customer.sol\":1203:1213  customerId */\n      dup4\n        /* \"contracts/Customer.sol\":1184:1193  customers */\n      0x01\n        /* \"contracts/Customer.sol\":1194:1195  i */\n      dup3\n        /* \"contracts/Customer.sol\":1184:1196  customers[i] */\n      dup2\n      sload\n      dup2\n      lt\n      tag_26\n      jumpi\n      tag_27\n      tag_28\n      jump\t// in\n    tag_27:\n    tag_26:\n      swap1\n      0x00\n      mstore\n      keccak256(0x00, 0x20)\n      swap1\n      0x04\n      mul\n      add\n        /* \"contracts/Customer.sol\":1184:1199  customers[i].id */\n      0x00\n      add\n      sload\n        /* \"contracts/Customer.sol\":1184:1213  customers[i].id == customerId */\n      eq\n        /* \"contracts/Customer.sol\":1181:1307  if(customers[i].id == customerId) {\r... */\n      iszero\n      tag_30\n      jumpi\n        /* \"contracts/Customer.sol\":1254:1261  newName */\n      dup3\n        /* \"contracts/Customer.sol\":1234:1243  customers */\n      0x01\n        /* \"contracts/Customer.sol\":1244:1245  i */\n      dup3\n        /* \"contracts/Customer.sol\":1234:1246  customers[i] */\n      dup2\n      sload\n      dup2\n      lt\n      tag_31\n      jumpi\n      tag_32\n      tag_28\n      jump\t// in\n    tag_32:\n    tag_31:\n      swap1\n      0x00\n      mstore\n      keccak256(0x00, 0x20)\n      swap1\n      0x04\n      mul\n      add\n        /* \"contracts/Customer.sol\":1234:1251  customers[i].name */\n      0x01\n      add\n        /* \"contracts/Customer.sol\":1234:1261  customers[i].name = newName */\n      swap1\n      dup1\n      mload\n      swap1\n      0x20\n      add\n      swap1\n      tag_34\n      swap3\n      swap2\n      swap1\n      tag_35\n      jump\t// in\n    tag_34:\n      pop\n        /* \"contracts/Customer.sol\":1287:1291  true */\n      0x01\n        /* \"contracts/Customer.sol\":1280:1291  return true */\n      swap2\n      pop\n      pop\n      jump(tag_22)\n        /* \"contracts/Customer.sol\":1181:1307  if(customers[i].id == customerId) {\r... */\n    tag_30:\n        /* \"contracts/Customer.sol\":1161:1164  i++ */\n      dup1\n      dup1\n      tag_36\n      swap1\n      tag_37\n      jump\t// in\n    tag_36:\n      swap2\n      pop\n      pop\n        /* \"contracts/Customer.sol\":1123:1318  for(uint i = 0; i < customers.length; i++) {\r... */\n      jump(tag_23)\n    tag_24:\n      pop\n        /* \"contracts/Customer.sol\":1335:1340  false */\n      0x00\n        /* \"contracts/Customer.sol\":1328:1340  return false */\n      swap1\n      pop\n        /* \"contracts/Customer.sol\":1014:1348  function updateCustomerInformations(uint customerId, string memory newName) public returns (bool) {\r... */\n    tag_22:\n      swap3\n      swap2\n      pop\n      pop\n      jump\t// out\n        /* \"contracts/Customer.sol\":305:655  function addCustomer(string memory name, insurancePolicy policyType, uint validityInDays) public {\r... */\n    tag_15:\n        /* \"contracts/Customer.sol\":413:424  numCustomer */\n      0x00\n      dup1\n        /* \"contracts/Customer.sol\":413:426  numCustomer++ */\n      dup2\n      sload\n      dup1\n      swap3\n      swap2\n      swap1\n      tag_39\n      swap1\n      tag_37\n      jump\t// in\n    tag_39:\n      swap2\n      swap1\n      pop\n      sstore\n      pop\n        /* \"contracts/Customer.sol\":437:446  customers */\n      0x01\n        /* \"contracts/Customer.sol\":466:636  Customer(\r... */\n      mload(0x40)\n      dup1\n      0x80\n      add\n      0x40\n      mstore\n      dup1\n        /* \"contracts/Customer.sol\":493:504  numCustomer */\n      sload(0x00)\n        /* \"contracts/Customer.sol\":466:636  Customer(\r... */\n      dup2\n      mstore\n      0x20\n      add\n        /* \"contracts/Customer.sol\":524:528  name */\n      dup6\n        /* \"contracts/Customer.sol\":466:636  Customer(\r... */\n      dup2\n      mstore\n      0x20\n      add\n        /* \"contracts/Customer.sol\":548:558  policyType */\n      dup5\n        /* \"contracts/Customer.sol\":466:636  Customer(\r... */\n      0x01\n      dup2\n      gt\n      iszero\n      tag_40\n      jumpi\n      tag_41\n      tag_42\n      jump\t// in\n    tag_41:\n    tag_40:\n      dup2\n      mstore\n      0x20\n      add\n        /* \"contracts/Customer.sol\":614:620  1 days */\n      0x015180\n        /* \"contracts/Customer.sol\":597:611  validityInDays */\n      dup5\n        /* \"contracts/Customer.sol\":597:620  validityInDays * 1 days */\n      tag_43\n      swap2\n      swap1\n      tag_44\n      jump\t// in\n    tag_43:\n        /* \"contracts/Customer.sol\":578:593  block.timestamp */\n      timestamp\n        /* \"contracts/Customer.sol\":578:621  block.timestamp + (validityInDays * 1 days) */\n      tag_45\n      swap2\n      swap1\n      tag_46\n      jump\t// in\n    tag_45:\n        /* \"contracts/Customer.sol\":466:636  Customer(\r... */\n      dup2\n      mstore\n      pop\n        /* \"contracts/Customer.sol\":437:647  customers.push(\r... */\n      swap1\n      dup1\n      0x01\n      dup2\n      sload\n      add\n      dup1\n      dup3\n      sstore\n      dup1\n      swap2\n      pop\n      pop\n      0x01\n      swap1\n      sub\n      swap1\n      0x00\n      mstore\n      keccak256(0x00, 0x20)\n      swap1\n      0x04\n      mul\n      add\n      0x00\n      swap1\n      swap2\n      swap1\n      swap2\n      swap1\n      swap2\n      pop\n      0x00\n      dup3\n      add\n      mload\n      dup2\n      0x00\n      add\n      sstore\n      0x20\n      dup3\n      add\n      mload\n      dup2\n      0x01\n      add\n      swap1\n      dup1\n      mload\n      swap1\n      0x20\n      add\n      swap1\n      tag_48\n      swap3\n      swap2\n      swap1\n      tag_35\n      jump\t// in\n    tag_48:\n      pop\n      0x40\n      dup3\n      add\n      mload\n      dup2\n      0x02\n      add\n      exp(0x0100, 0x00)\n      dup2\n      sload\n      dup2\n      0xff\n      mul\n      not\n      and\n      swap1\n      dup4\n      0x01\n      dup2\n      gt\n      iszero\n      tag_49\n      jumpi\n      tag_50\n      tag_42\n      jump\t// in\n    tag_50:\n    tag_49:\n      mul\n      or\n      swap1\n      sstore\n      pop\n      0x60\n      dup3\n      add\n      mload\n      dup2\n      0x03\n      add\n      sstore\n      pop\n      pop\n        /* \"contracts/Customer.sol\":305:655  function addCustomer(string memory name, insurancePolicy policyType, uint validityInDays) public {\r... */\n      pop\n      pop\n      pop\n      jump\t// out\n        /* \"contracts/Customer.sol\":663:1006  function getCustomer(uint customerId) public view returns (Customer memory customer){\r... */\n    tag_19:\n        /* \"contracts/Customer.sol\":722:746  Customer memory customer */\n      tag_51\n      tag_52\n      jump\t// in\n    tag_51:\n        /* \"contracts/Customer.sol\":848:854  uint i */\n      0x00\n        /* \"contracts/Customer.sol\":843:999  for (uint i = 0; i < customers.length; i++){\r... */\n    tag_54:\n        /* \"contracts/Customer.sol\":864:873  customers */\n      0x01\n        /* \"contracts/Customer.sol\":864:880  customers.length */\n      dup1\n      sload\n      swap1\n      pop\n        /* \"contracts/Customer.sol\":860:861  i */\n      dup2\n        /* \"contracts/Customer.sol\":860:880  i < customers.length */\n      lt\n        /* \"contracts/Customer.sol\":843:999  for (uint i = 0; i < customers.length; i++){\r... */\n      iszero\n      tag_55\n      jumpi\n        /* \"contracts/Customer.sol\":923:933  customerId */\n      dup3\n        /* \"contracts/Customer.sol\":904:913  customers */\n      0x01\n        /* \"contracts/Customer.sol\":914:915  i */\n      dup3\n        /* \"contracts/Customer.sol\":904:916  customers[i] */\n      dup2\n      sload\n      dup2\n      lt\n      tag_57\n      jumpi\n      tag_58\n      tag_28\n      jump\t// in\n    tag_58:\n    tag_57:\n      swap1\n      0x00\n      mstore\n      keccak256(0x00, 0x20)\n      swap1\n      0x04\n      mul\n      add\n        /* \"contracts/Customer.sol\":904:919  customers[i].id */\n      0x00\n      add\n      sload\n        /* \"contracts/Customer.sol\":904:933  customers[i].id == customerId */\n      eq\n        /* \"contracts/Customer.sol\":901:988  if(customers[i].id == customerId){\r... */\n      iszero\n      tag_60\n      jumpi\n        /* \"contracts/Customer.sol\":960:969  customers */\n      0x01\n        /* \"contracts/Customer.sol\":970:971  i */\n      dup2\n        /* \"contracts/Customer.sol\":960:972  customers[i] */\n      dup2\n      sload\n      dup2\n      lt\n      tag_61\n      jumpi\n      tag_62\n      tag_28\n      jump\t// in\n    tag_62:\n    tag_61:\n      swap1\n      0x00\n      mstore\n      keccak256(0x00, 0x20)\n      swap1\n      0x04\n      mul\n      add\n        /* \"contracts/Customer.sol\":953:972  return customers[i] */\n      mload(0x40)\n      dup1\n      0x80\n      add\n      0x40\n      mstore\n      swap1\n      dup2\n      0x00\n      dup3\n      add\n      sload\n      dup2\n      mstore\n      0x20\n      add\n      0x01\n      dup3\n      add\n      dup1\n      sload\n      tag_64\n      swap1\n      tag_65\n      jump\t// in\n    tag_64:\n      dup1\n      0x1f\n      add\n      0x20\n      dup1\n      swap2\n      div\n      mul\n      0x20\n      add\n      mload(0x40)\n      swap1\n      dup2\n      add\n      0x40\n      mstore\n      dup1\n      swap3\n      swap2\n      swap1\n      dup2\n      dup2\n      mstore\n      0x20\n      add\n      dup3\n      dup1\n      sload\n      tag_66\n      swap1\n      tag_65\n      jump\t// in\n    tag_66:\n      dup1\n      iszero\n      tag_67\n      jumpi\n      dup1\n      0x1f\n      lt\n      tag_68\n      jumpi\n      0x0100\n      dup1\n      dup4\n      sload\n      div\n      mul\n      dup4\n      mstore\n      swap2\n      0x20\n      add\n      swap2\n      jump(tag_67)\n    tag_68:\n      dup3\n      add\n      swap2\n      swap1\n      0x00\n      mstore\n      keccak256(0x00, 0x20)\n      swap1\n    tag_69:\n      dup2\n      sload\n      dup2\n      mstore\n      swap1\n      0x01\n      add\n      swap1\n      0x20\n      add\n      dup1\n      dup4\n      gt\n      tag_69\n      jumpi\n      dup3\n      swap1\n      sub\n      0x1f\n      and\n      dup3\n      add\n      swap2\n    tag_67:\n      pop\n      pop\n      pop\n      pop\n      pop\n      dup2\n      mstore\n      0x20\n      add\n      0x02\n      dup3\n      add\n      0x00\n      swap1\n      sload\n      swap1\n      0x0100\n      exp\n      swap1\n      div\n      0xff\n      and\n      0x01\n      dup2\n      gt\n      iszero\n      tag_70\n      jumpi\n      tag_71\n      tag_42\n      jump\t// in\n    tag_71:\n    tag_70:\n      0x01\n      dup2\n      gt\n      iszero\n      tag_72\n      jumpi\n      tag_73\n      tag_42\n      jump\t// in\n    tag_73:\n    tag_72:\n      dup2\n      mstore\n      0x20\n      add\n      0x03\n      dup3\n      add\n      sload\n      dup2\n      mstore\n      pop\n      pop\n      swap2\n      pop\n      pop\n      jump(tag_53)\n        /* \"contracts/Customer.sol\":901:988  if(customers[i].id == customerId){\r... */\n    tag_60:\n        /* \"contracts/Customer.sol\":882:885  i++ */\n      dup1\n      dup1\n      tag_74\n      swap1\n      tag_37\n      jump\t// in\n    tag_74:\n      swap2\n      pop\n      pop\n        /* \"contracts/Customer.sol\":843:999  for (uint i = 0; i < customers.length; i++){\r... */\n      jump(tag_54)\n    tag_55:\n      pop\n        /* \"contracts/Customer.sol\":663:1006  function getCustomer(uint customerId) public view returns (Customer memory customer){\r... */\n    tag_53:\n      swap2\n      swap1\n      pop\n      jump\t// out\n    tag_35:\n      dup3\n      dup1\n      sload\n      tag_75\n      swap1\n      tag_65\n      jump\t// in\n    tag_75:\n      swap1\n      0x00\n      mstore\n      keccak256(0x00, 0x20)\n      swap1\n      0x1f\n      add\n      0x20\n      swap1\n      div\n      dup2\n      add\n      swap3\n      dup3\n      tag_77\n      jumpi\n      0x00\n      dup6\n      sstore\n      jump(tag_76)\n    tag_77:\n      dup3\n      0x1f\n      lt\n      tag_78\n      jumpi\n      dup1\n      mload\n      not(0xff)\n      and\n      dup4\n      dup1\n      add\n      or\n      dup6\n      sstore\n      jump(tag_76)\n    tag_78:\n      dup3\n      dup1\n      add\n      0x01\n      add\n      dup6\n      sstore\n      dup3\n      iszero\n      tag_76\n      jumpi\n      swap2\n      dup3\n      add\n    tag_79:\n      dup3\n      dup2\n      gt\n      iszero\n      tag_80\n      jumpi\n      dup3\n      mload\n      dup3\n      sstore\n      swap2\n      0x20\n      add\n      swap2\n      swap1\n      0x01\n      add\n      swap1\n      jump(tag_79)\n    tag_80:\n    tag_76:\n      pop\n      swap1\n      pop\n      tag_81\n      swap2\n      swap1\n      tag_82\n      jump\t// in\n    tag_81:\n      pop\n      swap1\n      jump\t// out\n    tag_52:\n      mload(0x40)\n      dup1\n      0x80\n      add\n      0x40\n      mstore\n      dup1\n      0x00\n      dup2\n      mstore\n      0x20\n      add\n      0x60\n      dup2\n      mstore\n      0x20\n      add\n      0x00\n      0x01\n      dup2\n      gt\n      iszero\n      tag_83\n      jumpi\n      tag_84\n      tag_42\n      jump\t// in\n    tag_84:\n    tag_83:\n      dup2\n      mstore\n      0x20\n      add\n      0x00\n      dup2\n      mstore\n      pop\n      swap1\n      jump\t// out\n    tag_82:\n    tag_85:\n      dup1\n      dup3\n      gt\n      iszero\n      tag_86\n      jumpi\n      0x00\n      dup2\n      0x00\n      swap1\n      sstore\n      pop\n      0x01\n      add\n      jump(tag_85)\n    tag_86:\n      pop\n      swap1\n      jump\t// out\n        /* \"#utility.yul\":7:419   */\n    tag_88:\n        /* \"#utility.yul\":85:90   */\n      0x00\n        /* \"#utility.yul\":110:176   */\n      tag_90\n        /* \"#utility.yul\":126:175   */\n      tag_91\n        /* \"#utility.yul\":168:174   */\n      dup5\n        /* \"#utility.yul\":126:175   */\n      tag_92\n      jump\t// in\n    tag_91:\n        /* \"#utility.yul\":110:176   */\n      tag_93\n      jump\t// in\n    tag_90:\n        /* \"#utility.yul\":101:176   */\n      swap1\n      pop\n        /* \"#utility.yul\":199:205   */\n      dup3\n        /* \"#utility.yul\":192:197   */\n      dup2\n        /* \"#utility.yul\":185:206   */\n      mstore\n        /* \"#utility.yul\":237:241   */\n      0x20\n        /* \"#utility.yul\":230:235   */\n      dup2\n        /* \"#utility.yul\":226:242   */\n      add\n        /* \"#utility.yul\":275:278   */\n      dup5\n        /* \"#utility.yul\":266:272   */\n      dup5\n        /* \"#utility.yul\":261:264   */\n      dup5\n        /* \"#utility.yul\":257:273   */\n      add\n        /* \"#utility.yul\":254:279   */\n      gt\n        /* \"#utility.yul\":251:363   */\n      iszero\n      tag_94\n      jumpi\n        /* \"#utility.yul\":282:361   */\n      tag_95\n      tag_96\n      jump\t// in\n    tag_95:\n        /* \"#utility.yul\":251:363   */\n    tag_94:\n        /* \"#utility.yul\":372:413   */\n      tag_97\n        /* \"#utility.yul\":406:412   */\n      dup5\n        /* \"#utility.yul\":401:404   */\n      dup3\n        /* \"#utility.yul\":396:399   */\n      dup6\n        /* \"#utility.yul\":372:413   */\n      tag_98\n      jump\t// in\n    tag_97:\n        /* \"#utility.yul\":91:419   */\n      pop\n        /* \"#utility.yul\":7:419   */\n      swap4\n      swap3\n      pop\n      pop\n      pop\n      jump\t// out\n        /* \"#utility.yul\":425:602   */\n    tag_99:\n        /* \"#utility.yul\":490:495   */\n      0x00\n        /* \"#utility.yul\":528:534   */\n      dup2\n        /* \"#utility.yul\":515:535   */\n      calldataload\n        /* \"#utility.yul\":506:535   */\n      swap1\n      pop\n        /* \"#utility.yul\":544:596   */\n      tag_101\n        /* \"#utility.yul\":590:595   */\n      dup2\n        /* \"#utility.yul\":544:596   */\n      tag_102\n      jump\t// in\n    tag_101:\n        /* \"#utility.yul\":425:602   */\n      swap3\n      swap2\n      pop\n      pop\n      jump\t// out\n        /* \"#utility.yul\":622:962   */\n    tag_103:\n        /* \"#utility.yul\":678:683   */\n      0x00\n        /* \"#utility.yul\":727:730   */\n      dup3\n        /* \"#utility.yul\":720:724   */\n      0x1f\n        /* \"#utility.yul\":712:718   */\n      dup4\n        /* \"#utility.yul\":708:725   */\n      add\n        /* \"#utility.yul\":704:731   */\n      slt\n        /* \"#utility.yul\":694:816   */\n      tag_105\n      jumpi\n        /* \"#utility.yul\":735:814   */\n      tag_106\n      tag_107\n      jump\t// in\n    tag_106:\n        /* \"#utility.yul\":694:816   */\n    tag_105:\n        /* \"#utility.yul\":852:858   */\n      dup2\n        /* \"#utility.yul\":839:859   */\n      calldataload\n        /* \"#utility.yul\":877:956   */\n      tag_108\n        /* \"#utility.yul\":952:955   */\n      dup5\n        /* \"#utility.yul\":944:950   */\n      dup3\n        /* \"#utility.yul\":937:941   */\n      0x20\n        /* \"#utility.yul\":929:935   */\n      dup7\n        /* \"#utility.yul\":925:942   */\n      add\n        /* \"#utility.yul\":877:956   */\n      tag_88\n      jump\t// in\n    tag_108:\n        /* \"#utility.yul\":868:956   */\n      swap2\n      pop\n        /* \"#utility.yul\":684:962   */\n      pop\n        /* \"#utility.yul\":622:962   */\n      swap3\n      swap2\n      pop\n      pop\n      jump\t// out\n        /* \"#utility.yul\":968:1107   */\n    tag_109:\n        /* \"#utility.yul\":1014:1019   */\n      0x00\n        /* \"#utility.yul\":1052:1058   */\n      dup2\n        /* \"#utility.yul\":1039:1059   */\n      calldataload\n        /* \"#utility.yul\":1030:1059   */\n      swap1\n      pop\n        /* \"#utility.yul\":1068:1101   */\n      tag_111\n        /* \"#utility.yul\":1095:1100   */\n      dup2\n        /* \"#utility.yul\":1068:1101   */\n      tag_112\n      jump\t// in\n    tag_111:\n        /* \"#utility.yul\":968:1107   */\n      swap3\n      swap2\n      pop\n      pop\n      jump\t// out\n        /* \"#utility.yul\":1113:1950   */\n    tag_14:\n        /* \"#utility.yul\":1219:1225   */\n      0x00\n        /* \"#utility.yul\":1227:1233   */\n      dup1\n        /* \"#utility.yul\":1235:1241   */\n      0x00\n        /* \"#utility.yul\":1284:1286   */\n      0x60\n        /* \"#utility.yul\":1272:1281   */\n      dup5\n        /* \"#utility.yul\":1263:1270   */\n      dup7\n        /* \"#utility.yul\":1259:1282   */\n      sub\n        /* \"#utility.yul\":1255:1287   */\n      slt\n        /* \"#utility.yul\":1252:1371   */\n      iszero\n      tag_114\n      jumpi\n        /* \"#utility.yul\":1290:1369   */\n      tag_115\n      tag_116\n      jump\t// in\n    tag_115:\n        /* \"#utility.yul\":1252:1371   */\n    tag_114:\n        /* \"#utility.yul\":1438:1439   */\n      0x00\n        /* \"#utility.yul\":1427:1436   */\n      dup5\n        /* \"#utility.yul\":1423:1440   */\n      add\n        /* \"#utility.yul\":1410:1441   */\n      calldataload\n        /* \"#utility.yul\":1468:1486   */\n      0xffffffffffffffff\n        /* \"#utility.yul\":1460:1466   */\n      dup2\n        /* \"#utility.yul\":1457:1487   */\n      gt\n        /* \"#utility.yul\":1454:1571   */\n      iszero\n      tag_117\n      jumpi\n        /* \"#utility.yul\":1490:1569   */\n      tag_118\n      tag_119\n      jump\t// in\n    tag_118:\n        /* \"#utility.yul\":1454:1571   */\n    tag_117:\n        /* \"#utility.yul\":1595:1658   */\n      tag_120\n        /* \"#utility.yul\":1650:1657   */\n      dup7\n        /* \"#utility.yul\":1641:1647   */\n      dup3\n        /* \"#utility.yul\":1630:1639   */\n      dup8\n        /* \"#utility.yul\":1626:1648   */\n      add\n        /* \"#utility.yul\":1595:1658   */\n      tag_103\n      jump\t// in\n    tag_120:\n        /* \"#utility.yul\":1585:1658   */\n      swap4\n      pop\n        /* \"#utility.yul\":1381:1668   */\n      pop\n        /* \"#utility.yul\":1707:1709   */\n      0x20\n        /* \"#utility.yul\":1733:1805   */\n      tag_121\n        /* \"#utility.yul\":1797:1804   */\n      dup7\n        /* \"#utility.yul\":1788:1794   */\n      dup3\n        /* \"#utility.yul\":1777:1786   */\n      dup8\n        /* \"#utility.yul\":1773:1795   */\n      add\n        /* \"#utility.yul\":1733:1805   */\n      tag_99\n      jump\t// in\n    tag_121:\n        /* \"#utility.yul\":1723:1805   */\n      swap3\n      pop\n        /* \"#utility.yul\":1678:1815   */\n      pop\n        /* \"#utility.yul\":1854:1856   */\n      0x40\n        /* \"#utility.yul\":1880:1933   */\n      tag_122\n        /* \"#utility.yul\":1925:1932   */\n      dup7\n        /* \"#utility.yul\":1916:1922   */\n      dup3\n        /* \"#utility.yul\":1905:1914   */\n      dup8\n        /* \"#utility.yul\":1901:1923   */\n      add\n        /* \"#utility.yul\":1880:1933   */\n      tag_109\n      jump\t// in\n    tag_122:\n        /* \"#utility.yul\":1870:1933   */\n      swap2\n      pop\n        /* \"#utility.yul\":1825:1943   */\n      pop\n        /* \"#utility.yul\":1113:1950   */\n      swap3\n      pop\n      swap3\n      pop\n      swap3\n      jump\t// out\n        /* \"#utility.yul\":1956:2285   */\n    tag_18:\n        /* \"#utility.yul\":2015:2021   */\n      0x00\n        /* \"#utility.yul\":2064:2066   */\n      0x20\n        /* \"#utility.yul\":2052:2061   */\n      dup3\n        /* \"#utility.yul\":2043:2050   */\n      dup5\n        /* \"#utility.yul\":2039:2062   */\n      sub\n        /* \"#utility.yul\":2035:2067   */\n      slt\n        /* \"#utility.yul\":2032:2151   */\n      iszero\n      tag_124\n      jumpi\n        /* \"#utility.yul\":2070:2149   */\n      tag_125\n      tag_116\n      jump\t// in\n    tag_125:\n        /* \"#utility.yul\":2032:2151   */\n    tag_124:\n        /* \"#utility.yul\":2190:2191   */\n      0x00\n        /* \"#utility.yul\":2215:2268   */\n      tag_126\n        /* \"#utility.yul\":2260:2267   */\n      dup5\n        /* \"#utility.yul\":2251:2257   */\n      dup3\n        /* \"#utility.yul\":2240:2249   */\n      dup6\n        /* \"#utility.yul\":2236:2258   */\n      add\n        /* \"#utility.yul\":2215:2268   */\n      tag_109\n      jump\t// in\n    tag_126:\n        /* \"#utility.yul\":2205:2268   */\n      swap2\n      pop\n        /* \"#utility.yul\":2161:2278   */\n      pop\n        /* \"#utility.yul\":1956:2285   */\n      swap3\n      swap2\n      pop\n      pop\n      jump\t// out\n        /* \"#utility.yul\":2291:2945   */\n    tag_8:\n        /* \"#utility.yul\":2369:2375   */\n      0x00\n        /* \"#utility.yul\":2377:2383   */\n      dup1\n        /* \"#utility.yul\":2426:2428   */\n      0x40\n        /* \"#utility.yul\":2414:2423   */\n      dup4\n        /* \"#utility.yul\":2405:2412   */\n      dup6\n        /* \"#utility.yul\":2401:2424   */\n      sub\n        /* \"#utility.yul\":2397:2429   */\n      slt\n        /* \"#utility.yul\":2394:2513   */\n      iszero\n      tag_128\n      jumpi\n        /* \"#utility.yul\":2432:2511   */\n      tag_129\n      tag_116\n      jump\t// in\n    tag_129:\n        /* \"#utility.yul\":2394:2513   */\n    tag_128:\n        /* \"#utility.yul\":2552:2553   */\n      0x00\n        /* \"#utility.yul\":2577:2630   */\n      tag_130\n        /* \"#utility.yul\":2622:2629   */\n      dup6\n        /* \"#utility.yul\":2613:2619   */\n      dup3\n        /* \"#utility.yul\":2602:2611   */\n      dup7\n        /* \"#utility.yul\":2598:2620   */\n      add\n        /* \"#utility.yul\":2577:2630   */\n      tag_109\n      jump\t// in\n    tag_130:\n        /* \"#utility.yul\":2567:2630   */\n      swap3\n      pop\n        /* \"#utility.yul\":2523:2640   */\n      pop\n        /* \"#utility.yul\":2707:2709   */\n      0x20\n        /* \"#utility.yul\":2696:2705   */\n      dup4\n        /* \"#utility.yul\":2692:2710   */\n      add\n        /* \"#utility.yul\":2679:2711   */\n      calldataload\n        /* \"#utility.yul\":2738:2756   */\n      0xffffffffffffffff\n        /* \"#utility.yul\":2730:2736   */\n      dup2\n        /* \"#utility.yul\":2727:2757   */\n      gt\n        /* \"#utility.yul\":2724:2841   */\n      iszero\n      tag_131\n      jumpi\n        /* \"#utility.yul\":2760:2839   */\n      tag_132\n      tag_119\n      jump\t// in\n    tag_132:\n        /* \"#utility.yul\":2724:2841   */\n    tag_131:\n        /* \"#utility.yul\":2865:2928   */\n      tag_133\n        /* \"#utility.yul\":2920:2927   */\n      dup6\n        /* \"#utility.yul\":2911:2917   */\n      dup3\n        /* \"#utility.yul\":2900:2909   */\n      dup7\n        /* \"#utility.yul\":2896:2918   */\n      add\n        /* \"#utility.yul\":2865:2928   */\n      tag_103\n      jump\t// in\n    tag_133:\n        /* \"#utility.yul\":2855:2928   */\n      swap2\n      pop\n        /* \"#utility.yul\":2650:2938   */\n      pop\n        /* \"#utility.yul\":2291:2945   */\n      swap3\n      pop\n      swap3\n      swap1\n      pop\n      jump\t// out\n        /* \"#utility.yul\":2951:3060   */\n    tag_134:\n        /* \"#utility.yul\":3032:3053   */\n      tag_136\n        /* \"#utility.yul\":3047:3052   */\n      dup2\n        /* \"#utility.yul\":3032:3053   */\n      tag_137\n      jump\t// in\n    tag_136:\n        /* \"#utility.yul\":3027:3030   */\n      dup3\n        /* \"#utility.yul\":3020:3054   */\n      mstore\n        /* \"#utility.yul\":2951:3060   */\n      pop\n      pop\n      jump\t// out\n        /* \"#utility.yul\":3066:3221   */\n    tag_138:\n        /* \"#utility.yul\":3160:3214   */\n      tag_140\n        /* \"#utility.yul\":3208:3213   */\n      dup2\n        /* \"#utility.yul\":3160:3214   */\n      tag_141\n      jump\t// in\n    tag_140:\n        /* \"#utility.yul\":3155:3158   */\n      dup3\n        /* \"#utility.yul\":3148:3215   */\n      mstore\n        /* \"#utility.yul\":3066:3221   */\n      pop\n      pop\n      jump\t// out\n        /* \"#utility.yul\":3227:3571   */\n    tag_142:\n        /* \"#utility.yul\":3305:3308   */\n      0x00\n        /* \"#utility.yul\":3333:3372   */\n      tag_144\n        /* \"#utility.yul\":3366:3371   */\n      dup3\n        /* \"#utility.yul\":3333:3372   */\n      tag_145\n      jump\t// in\n    tag_144:\n        /* \"#utility.yul\":3388:3449   */\n      tag_146\n        /* \"#utility.yul\":3442:3448   */\n      dup2\n        /* \"#utility.yul\":3437:3440   */\n      dup6\n        /* \"#utility.yul\":3388:3449   */\n      tag_147\n      jump\t// in\n    tag_146:\n        /* \"#utility.yul\":3381:3449   */\n      swap4\n      pop\n        /* \"#utility.yul\":3458:3510   */\n      tag_148\n        /* \"#utility.yul\":3503:3509   */\n      dup2\n        /* \"#utility.yul\":3498:3501   */\n      dup6\n        /* \"#utility.yul\":3491:3495   */\n      0x20\n        /* \"#utility.yul\":3484:3489   */\n      dup7\n        /* \"#utility.yul\":3480:3496   */\n      add\n        /* \"#utility.yul\":3458:3510   */\n      tag_149\n      jump\t// in\n    tag_148:\n        /* \"#utility.yul\":3535:3564   */\n      tag_150\n        /* \"#utility.yul\":3557:3563   */\n      dup2\n        /* \"#utility.yul\":3535:3564   */\n      tag_151\n      jump\t// in\n    tag_150:\n        /* \"#utility.yul\":3530:3533   */\n      dup5\n        /* \"#utility.yul\":3526:3565   */\n      add\n        /* \"#utility.yul\":3519:3565   */\n      swap2\n      pop\n        /* \"#utility.yul\":3309:3571   */\n      pop\n        /* \"#utility.yul\":3227:3571   */\n      swap3\n      swap2\n      pop\n      pop\n      jump\t// out\n        /* \"#utility.yul\":3671:4654   */\n    tag_152:\n        /* \"#utility.yul\":3790:3793   */\n      0x00\n        /* \"#utility.yul\":3826:3830   */\n      0x80\n        /* \"#utility.yul\":3821:3824   */\n      dup4\n        /* \"#utility.yul\":3817:3831   */\n      add\n        /* \"#utility.yul\":3911:3915   */\n      0x00\n        /* \"#utility.yul\":3904:3909   */\n      dup4\n        /* \"#utility.yul\":3900:3916   */\n      add\n        /* \"#utility.yul\":3894:3917   */\n      mload\n        /* \"#utility.yul\":3930:3993   */\n      tag_154\n        /* \"#utility.yul\":3987:3991   */\n      0x00\n        /* \"#utility.yul\":3982:3985   */\n      dup7\n        /* \"#utility.yul\":3978:3992   */\n      add\n        /* \"#utility.yul\":3964:3976   */\n      dup3\n        /* \"#utility.yul\":3930:3993   */\n      tag_155\n      jump\t// in\n    tag_154:\n        /* \"#utility.yul\":3841:4003   */\n      pop\n        /* \"#utility.yul\":4085:4089   */\n      0x20\n        /* \"#utility.yul\":4078:4083   */\n      dup4\n        /* \"#utility.yul\":4074:4090   */\n      add\n        /* \"#utility.yul\":4068:4091   */\n      mload\n        /* \"#utility.yul\":4138:4141   */\n      dup5\n        /* \"#utility.yul\":4132:4136   */\n      dup3\n        /* \"#utility.yul\":4128:4142   */\n      sub\n        /* \"#utility.yul\":4121:4125   */\n      0x20\n        /* \"#utility.yul\":4116:4119   */\n      dup7\n        /* \"#utility.yul\":4112:4126   */\n      add\n        /* \"#utility.yul\":4105:4143   */\n      mstore\n        /* \"#utility.yul\":4164:4237   */\n      tag_156\n        /* \"#utility.yul\":4232:4236   */\n      dup3\n        /* \"#utility.yul\":4218:4230   */\n      dup3\n        /* \"#utility.yul\":4164:4237   */\n      tag_142\n      jump\t// in\n    tag_156:\n        /* \"#utility.yul\":4156:4237   */\n      swap2\n      pop\n        /* \"#utility.yul\":4013:4248   */\n      pop\n        /* \"#utility.yul\":4336:4340   */\n      0x40\n        /* \"#utility.yul\":4329:4334   */\n      dup4\n        /* \"#utility.yul\":4325:4341   */\n      add\n        /* \"#utility.yul\":4319:4342   */\n      mload\n        /* \"#utility.yul\":4355:4435   */\n      tag_157\n        /* \"#utility.yul\":4429:4433   */\n      0x40\n        /* \"#utility.yul\":4424:4427   */\n      dup7\n        /* \"#utility.yul\":4420:4434   */\n      add\n        /* \"#utility.yul\":4406:4418   */\n      dup3\n        /* \"#utility.yul\":4355:4435   */\n      tag_138\n      jump\t// in\n    tag_157:\n        /* \"#utility.yul\":4258:4445   */\n      pop\n        /* \"#utility.yul\":4535:4539   */\n      0x60\n        /* \"#utility.yul\":4528:4533   */\n      dup4\n        /* \"#utility.yul\":4524:4540   */\n      add\n        /* \"#utility.yul\":4518:4541   */\n      mload\n        /* \"#utility.yul\":4554:4617   */\n      tag_158\n        /* \"#utility.yul\":4611:4615   */\n      0x60\n        /* \"#utility.yul\":4606:4609   */\n      dup7\n        /* \"#utility.yul\":4602:4616   */\n      add\n        /* \"#utility.yul\":4588:4600   */\n      dup3\n        /* \"#utility.yul\":4554:4617   */\n      tag_155\n      jump\t// in\n    tag_158:\n        /* \"#utility.yul\":4455:4627   */\n      pop\n        /* \"#utility.yul\":4644:4648   */\n      dup1\n        /* \"#utility.yul\":4637:4648   */\n      swap2\n      pop\n        /* \"#utility.yul\":3795:4654   */\n      pop\n        /* \"#utility.yul\":3671:4654   */\n      swap3\n      swap2\n      pop\n      pop\n      jump\t// out\n        /* \"#utility.yul\":4660:4768   */\n    tag_155:\n        /* \"#utility.yul\":4737:4761   */\n      tag_160\n        /* \"#utility.yul\":4755:4760   */\n      dup2\n        /* \"#utility.yul\":4737:4761   */\n      tag_161\n      jump\t// in\n    tag_160:\n        /* \"#utility.yul\":4732:4735   */\n      dup3\n        /* \"#utility.yul\":4725:4762   */\n      mstore\n        /* \"#utility.yul\":4660:4768   */\n      pop\n      pop\n      jump\t// out\n        /* \"#utility.yul\":4774:4984   */\n    tag_11:\n        /* \"#utility.yul\":4861:4865   */\n      0x00\n        /* \"#utility.yul\":4899:4901   */\n      0x20\n        /* \"#utility.yul\":4888:4897   */\n      dup3\n        /* \"#utility.yul\":4884:4902   */\n      add\n        /* \"#utility.yul\":4876:4902   */\n      swap1\n      pop\n        /* \"#utility.yul\":4912:4977   */\n      tag_163\n        /* \"#utility.yul\":4974:4975   */\n      0x00\n        /* \"#utility.yul\":4963:4972   */\n      dup4\n        /* \"#utility.yul\":4959:4976   */\n      add\n        /* \"#utility.yul\":4950:4956   */\n      dup5\n        /* \"#utility.yul\":4912:4977   */\n      tag_134\n      jump\t// in\n    tag_163:\n        /* \"#utility.yul\":4774:4984   */\n      swap3\n      swap2\n      pop\n      pop\n      jump\t// out\n        /* \"#utility.yul\":4990:5363   */\n    tag_21:\n        /* \"#utility.yul\":5133:5137   */\n      0x00\n        /* \"#utility.yul\":5171:5173   */\n      0x20\n        /* \"#utility.yul\":5160:5169   */\n      dup3\n        /* \"#utility.yul\":5156:5174   */\n      add\n        /* \"#utility.yul\":5148:5174   */\n      swap1\n      pop\n        /* \"#utility.yul\":5220:5229   */\n      dup2\n        /* \"#utility.yul\":5214:5218   */\n      dup2\n        /* \"#utility.yul\":5210:5230   */\n      sub\n        /* \"#utility.yul\":5206:5207   */\n      0x00\n        /* \"#utility.yul\":5195:5204   */\n      dup4\n        /* \"#utility.yul\":5191:5208   */\n      add\n        /* \"#utility.yul\":5184:5231   */\n      mstore\n        /* \"#utility.yul\":5248:5356   */\n      tag_165\n        /* \"#utility.yul\":5351:5355   */\n      dup2\n        /* \"#utility.yul\":5342:5348   */\n      dup5\n        /* \"#utility.yul\":5248:5356   */\n      tag_152\n      jump\t// in\n    tag_165:\n        /* \"#utility.yul\":5240:5356   */\n      swap1\n      pop\n        /* \"#utility.yul\":4990:5363   */\n      swap3\n      swap2\n      pop\n      pop\n      jump\t// out\n        /* \"#utility.yul\":5369:5498   */\n    tag_93:\n        /* \"#utility.yul\":5403:5409   */\n      0x00\n        /* \"#utility.yul\":5430:5450   */\n      tag_167\n      tag_168\n      jump\t// in\n    tag_167:\n        /* \"#utility.yul\":5420:5450   */\n      swap1\n      pop\n        /* \"#utility.yul\":5459:5492   */\n      tag_169\n        /* \"#utility.yul\":5487:5491   */\n      dup3\n        /* \"#utility.yul\":5479:5485   */\n      dup3\n        /* \"#utility.yul\":5459:5492   */\n      tag_170\n      jump\t// in\n    tag_169:\n        /* \"#utility.yul\":5369:5498   */\n      swap2\n      swap1\n      pop\n      jump\t// out\n        /* \"#utility.yul\":5504:5579   */\n    tag_168:\n        /* \"#utility.yul\":5537:5543   */\n      0x00\n        /* \"#utility.yul\":5570:5572   */\n      0x40\n        /* \"#utility.yul\":5564:5573   */\n      mload\n        /* \"#utility.yul\":5554:5573   */\n      swap1\n      pop\n        /* \"#utility.yul\":5504:5579   */\n      swap1\n      jump\t// out\n        /* \"#utility.yul\":5585:5893   */\n    tag_92:\n        /* \"#utility.yul\":5647:5651   */\n      0x00\n        /* \"#utility.yul\":5737:5755   */\n      0xffffffffffffffff\n        /* \"#utility.yul\":5729:5735   */\n      dup3\n        /* \"#utility.yul\":5726:5756   */\n      gt\n        /* \"#utility.yul\":5723:5779   */\n      iszero\n      tag_173\n      jumpi\n        /* \"#utility.yul\":5759:5777   */\n      tag_174\n      tag_175\n      jump\t// in\n    tag_174:\n        /* \"#utility.yul\":5723:5779   */\n    tag_173:\n        /* \"#utility.yul\":5797:5826   */\n      tag_176\n        /* \"#utility.yul\":5819:5825   */\n      dup3\n        /* \"#utility.yul\":5797:5826   */\n      tag_151\n      jump\t// in\n    tag_176:\n        /* \"#utility.yul\":5789:5826   */\n      swap1\n      pop\n        /* \"#utility.yul\":5881:5885   */\n      0x20\n        /* \"#utility.yul\":5875:5879   */\n      dup2\n        /* \"#utility.yul\":5871:5886   */\n      add\n        /* \"#utility.yul\":5863:5886   */\n      swap1\n      pop\n        /* \"#utility.yul\":5585:5893   */\n      swap2\n      swap1\n      pop\n      jump\t// out\n        /* \"#utility.yul\":5899:5998   */\n    tag_145:\n        /* \"#utility.yul\":5951:5957   */\n      0x00\n        /* \"#utility.yul\":5985:5990   */\n      dup2\n        /* \"#utility.yul\":5979:5991   */\n      mload\n        /* \"#utility.yul\":5969:5991   */\n      swap1\n      pop\n        /* \"#utility.yul\":5899:5998   */\n      swap2\n      swap1\n      pop\n      jump\t// out\n        /* \"#utility.yul\":6004:6163   */\n    tag_147:\n        /* \"#utility.yul\":6078:6089   */\n      0x00\n        /* \"#utility.yul\":6112:6118   */\n      dup3\n        /* \"#utility.yul\":6107:6110   */\n      dup3\n        /* \"#utility.yul\":6100:6119   */\n      mstore\n        /* \"#utility.yul\":6152:6156   */\n      0x20\n        /* \"#utility.yul\":6147:6150   */\n      dup3\n        /* \"#utility.yul\":6143:6157   */\n      add\n        /* \"#utility.yul\":6128:6157   */\n      swap1\n      pop\n        /* \"#utility.yul\":6004:6163   */\n      swap3\n      swap2\n      pop\n      pop\n      jump\t// out\n        /* \"#utility.yul\":6169:6474   */\n    tag_46:\n        /* \"#utility.yul\":6209:6212   */\n      0x00\n        /* \"#utility.yul\":6228:6248   */\n      tag_180\n        /* \"#utility.yul\":6246:6247   */\n      dup3\n        /* \"#utility.yul\":6228:6248   */\n      tag_161\n      jump\t// in\n    tag_180:\n        /* \"#utility.yul\":6223:6248   */\n      swap2\n      pop\n        /* \"#utility.yul\":6262:6282   */\n      tag_181\n        /* \"#utility.yul\":6280:6281   */\n      dup4\n        /* \"#utility.yul\":6262:6282   */\n      tag_161\n      jump\t// in\n    tag_181:\n        /* \"#utility.yul\":6257:6282   */\n      swap3\n      pop\n        /* \"#utility.yul\":6416:6417   */\n      dup3\n        /* \"#utility.yul\":6348:6414   */\n      0xffffffffffffffffffffffffffffffffffffffffffffffffffffffffffffffff\n        /* \"#utility.yul\":6344:6418   */\n      sub\n        /* \"#utility.yul\":6341:6342   */\n      dup3\n        /* \"#utility.yul\":6338:6419   */\n      gt\n        /* \"#utility.yul\":6335:6442   */\n      iszero\n      tag_182\n      jumpi\n        /* \"#utility.yul\":6422:6440   */\n      tag_183\n      tag_184\n      jump\t// in\n    tag_183:\n        /* \"#utility.yul\":6335:6442   */\n    tag_182:\n        /* \"#utility.yul\":6466:6467   */\n      dup3\n        /* \"#utility.yul\":6463:6464   */\n      dup3\n        /* \"#utility.yul\":6459:6468   */\n      add\n        /* \"#utility.yul\":6452:6468   */\n      swap1\n      pop\n        /* \"#utility.yul\":6169:6474   */\n      swap3\n      swap2\n      pop\n      pop\n      jump\t// out\n        /* \"#utility.yul\":6480:6828   */\n    tag_44:\n        /* \"#utility.yul\":6520:6527   */\n      0x00\n        /* \"#utility.yul\":6543:6563   */\n      tag_186\n        /* \"#utility.yul\":6561:6562   */\n      dup3\n        /* \"#utility.yul\":6543:6563   */\n      tag_161\n      jump\t// in\n    tag_186:\n        /* \"#utility.yul\":6538:6563   */\n      swap2\n      pop\n        /* \"#utility.yul\":6577:6597   */\n      tag_187\n        /* \"#utility.yul\":6595:6596   */\n      dup4\n        /* \"#utility.yul\":6577:6597   */\n      tag_161\n      jump\t// in\n    tag_187:\n        /* \"#utility.yul\":6572:6597   */\n      swap3\n      pop\n        /* \"#utility.yul\":6765:6766   */\n      dup2\n        /* \"#utility.yul\":6697:6763   */\n      0xffffffffffffffffffffffffffffffffffffffffffffffffffffffffffffffff\n        /* \"#utility.yul\":6693:6767   */\n      div\n        /* \"#utility.yul\":6690:6691   */\n      dup4\n        /* \"#utility.yul\":6687:6768   */\n      gt\n        /* \"#utility.yul\":6682:6683   */\n      dup3\n        /* \"#utility.yul\":6675:6684   */\n      iszero\n        /* \"#utility.yul\":6668:6685   */\n      iszero\n        /* \"#utility.yul\":6664:6769   */\n      and\n        /* \"#utility.yul\":6661:6792   */\n      iszero\n      tag_188\n      jumpi\n        /* \"#utility.yul\":6772:6790   */\n      tag_189\n      tag_184\n      jump\t// in\n    tag_189:\n        /* \"#utility.yul\":6661:6792   */\n    tag_188:\n        /* \"#utility.yul\":6820:6821   */\n      dup3\n        /* \"#utility.yul\":6817:6818   */\n      dup3\n        /* \"#utility.yul\":6813:6822   */\n      mul\n        /* \"#utility.yul\":6802:6822   */\n      swap1\n      pop\n        /* \"#utility.yul\":6480:6828   */\n      swap3\n      swap2\n      pop\n      pop\n      jump\t// out\n        /* \"#utility.yul\":6834:6924   */\n    tag_137:\n        /* \"#utility.yul\":6868:6875   */\n      0x00\n        /* \"#utility.yul\":6911:6916   */\n      dup2\n        /* \"#utility.yul\":6904:6917   */\n      iszero\n        /* \"#utility.yul\":6897:6918   */\n      iszero\n        /* \"#utility.yul\":6886:6918   */\n      swap1\n      pop\n        /* \"#utility.yul\":6834:6924   */\n      swap2\n      swap1\n      pop\n      jump\t// out\n        /* \"#utility.yul\":6930:7079   */\n    tag_191:\n        /* \"#utility.yul\":6986:6993   */\n      0x00\n        /* \"#utility.yul\":7015:7020   */\n      dup2\n        /* \"#utility.yul\":7004:7020   */\n      swap1\n      pop\n        /* \"#utility.yul\":7021:7073   */\n      tag_193\n        /* \"#utility.yul\":7067:7072   */\n      dup3\n        /* \"#utility.yul\":7021:7073   */\n      tag_194\n      jump\t// in\n    tag_193:\n        /* \"#utility.yul\":6930:7079   */\n      swap2\n      swap1\n      pop\n      jump\t// out\n        /* \"#utility.yul\":7085:7162   */\n    tag_161:\n        /* \"#utility.yul\":7122:7129   */\n      0x00\n        /* \"#utility.yul\":7151:7156   */\n      dup2\n        /* \"#utility.yul\":7140:7156   */\n      swap1\n      pop\n        /* \"#utility.yul\":7085:7162   */\n      swap2\n      swap1\n      pop\n      jump\t// out\n        /* \"#utility.yul\":7168:7317   */\n    tag_141:\n        /* \"#utility.yul\":7235:7244   */\n      0x00\n        /* \"#utility.yul\":7268:7311   */\n      tag_197\n        /* \"#utility.yul\":7305:7310   */\n      dup3\n        /* \"#utility.yul\":7268:7311   */\n      tag_191\n      jump\t// in\n    tag_197:\n        /* \"#utility.yul\":7255:7311   */\n      swap1\n      pop\n        /* \"#utility.yul\":7168:7317   */\n      swap2\n      swap1\n      pop\n      jump\t// out\n        /* \"#utility.yul\":7323:7477   */\n    tag_98:\n        /* \"#utility.yul\":7407:7413   */\n      dup3\n        /* \"#utility.yul\":7402:7405   */\n      dup2\n        /* \"#utility.yul\":7397:7400   */\n      dup4\n        /* \"#utility.yul\":7384:7414   */\n      calldatacopy\n        /* \"#utility.yul\":7469:7470   */\n      0x00\n        /* \"#utility.yul\":7460:7466   */\n      dup4\n        /* \"#utility.yul\":7455:7458   */\n      dup4\n        /* \"#utility.yul\":7451:7467   */\n      add\n        /* \"#utility.yul\":7444:7471   */\n      mstore\n        /* \"#utility.yul\":7323:7477   */\n      pop\n      pop\n      pop\n      jump\t// out\n        /* \"#utility.yul\":7483:7790   */\n    tag_149:\n        /* \"#utility.yul\":7551:7552   */\n      0x00\n        /* \"#utility.yul\":7561:7674   */\n    tag_200:\n        /* \"#utility.yul\":7575:7581   */\n      dup4\n        /* \"#utility.yul\":7572:7573   */\n      dup2\n        /* \"#utility.yul\":7569:7582   */\n      lt\n        /* \"#utility.yul\":7561:7674   */\n      iszero\n      tag_202\n      jumpi\n        /* \"#utility.yul\":7660:7661   */\n      dup1\n        /* \"#utility.yul\":7655:7658   */\n      dup3\n        /* \"#utility.yul\":7651:7662   */\n      add\n        /* \"#utility.yul\":7645:7663   */\n      mload\n        /* \"#utility.yul\":7641:7642   */\n      dup2\n        /* \"#utility.yul\":7636:7639   */\n      dup5\n        /* \"#utility.yul\":7632:7643   */\n      add\n        /* \"#utility.yul\":7625:7664   */\n      mstore\n        /* \"#utility.yul\":7597:7599   */\n      0x20\n        /* \"#utility.yul\":7594:7595   */\n      dup2\n        /* \"#utility.yul\":7590:7600   */\n      add\n        /* \"#utility.yul\":7585:7600   */\n      swap1\n      pop\n        /* \"#utility.yul\":7561:7674   */\n      jump(tag_200)\n    tag_202:\n        /* \"#utility.yul\":7692:7698   */\n      dup4\n        /* \"#utility.yul\":7689:7690   */\n      dup2\n        /* \"#utility.yul\":7686:7699   */\n      gt\n        /* \"#utility.yul\":7683:7784   */\n      iszero\n      tag_203\n      jumpi\n        /* \"#utility.yul\":7772:7773   */\n      0x00\n        /* \"#utility.yul\":7763:7769   */\n      dup5\n        /* \"#utility.yul\":7758:7761   */\n      dup5\n        /* \"#utility.yul\":7754:7770   */\n      add\n        /* \"#utility.yul\":7747:7774   */\n      mstore\n        /* \"#utility.yul\":7683:7784   */\n    tag_203:\n        /* \"#utility.yul\":7532:7790   */\n      pop\n        /* \"#utility.yul\":7483:7790   */\n      pop\n      pop\n      pop\n      jump\t// out\n        /* \"#utility.yul\":7796:8116   */\n    tag_65:\n        /* \"#utility.yul\":7840:7846   */\n      0x00\n        /* \"#utility.yul\":7877:7878   */\n      0x02\n        /* \"#utility.yul\":7871:7875   */\n      dup3\n        /* \"#utility.yul\":7867:7879   */\n      div\n        /* \"#utility.yul\":7857:7879   */\n      swap1\n      pop\n        /* \"#utility.yul\":7924:7925   */\n      0x01\n        /* \"#utility.yul\":7918:7922   */\n      dup3\n        /* \"#utility.yul\":7914:7926   */\n      and\n        /* \"#utility.yul\":7945:7963   */\n      dup1\n        /* \"#utility.yul\":7935:8016   */\n      tag_205\n      jumpi\n        /* \"#utility.yul\":8001:8005   */\n      0x7f\n        /* \"#utility.yul\":7993:7999   */\n      dup3\n        /* \"#utility.yul\":7989:8006   */\n      and\n        /* \"#utility.yul\":7979:8006   */\n      swap2\n      pop\n        /* \"#utility.yul\":7935:8016   */\n    tag_205:\n        /* \"#utility.yul\":8063:8065   */\n      0x20\n        /* \"#utility.yul\":8055:8061   */\n      dup3\n        /* \"#utility.yul\":8052:8066   */\n      lt\n        /* \"#utility.yul\":8032:8050   */\n      dup2\n        /* \"#utility.yul\":8029:8067   */\n      eq\n        /* \"#utility.yul\":8026:8110   */\n      iszero\n      tag_206\n      jumpi\n        /* \"#utility.yul\":8082:8100   */\n      tag_207\n      tag_208\n      jump\t// in\n    tag_207:\n        /* \"#utility.yul\":8026:8110   */\n    tag_206:\n        /* \"#utility.yul\":7847:8116   */\n      pop\n        /* \"#utility.yul\":7796:8116   */\n      swap2\n      swap1\n      pop\n      jump\t// out\n        /* \"#utility.yul\":8122:8403   */\n    tag_170:\n        /* \"#utility.yul\":8205:8232   */\n      tag_210\n        /* \"#utility.yul\":8227:8231   */\n      dup3\n        /* \"#utility.yul\":8205:8232   */\n      tag_151\n      jump\t// in\n    tag_210:\n        /* \"#utility.yul\":8197:8203   */\n      dup2\n        /* \"#utility.yul\":8193:8233   */\n      add\n        /* \"#utility.yul\":8335:8341   */\n      dup2\n        /* \"#utility.yul\":8323:8333   */\n      dup2\n        /* \"#utility.yul\":8320:8342   */\n      lt\n        /* \"#utility.yul\":8299:8317   */\n      0xffffffffffffffff\n        /* \"#utility.yul\":8287:8297   */\n      dup3\n        /* \"#utility.yul\":8284:8318   */\n      gt\n        /* \"#utility.yul\":8281:8343   */\n      or\n        /* \"#utility.yul\":8278:8366   */\n      iszero\n      tag_211\n      jumpi\n        /* \"#utility.yul\":8346:8364   */\n      tag_212\n      tag_175\n      jump\t// in\n    tag_212:\n        /* \"#utility.yul\":8278:8366   */\n    tag_211:\n        /* \"#utility.yul\":8386:8396   */\n      dup1\n        /* \"#utility.yul\":8382:8384   */\n      0x40\n        /* \"#utility.yul\":8375:8397   */\n      mstore\n        /* \"#utility.yul\":8165:8403   */\n      pop\n        /* \"#utility.yul\":8122:8403   */\n      pop\n      pop\n      jump\t// out\n        /* \"#utility.yul\":8409:8642   */\n    tag_37:\n        /* \"#utility.yul\":8448:8451   */\n      0x00\n        /* \"#utility.yul\":8471:8495   */\n      tag_214\n        /* \"#utility.yul\":8489:8494   */\n      dup3\n        /* \"#utility.yul\":8471:8495   */\n      tag_161\n      jump\t// in\n    tag_214:\n        /* \"#utility.yul\":8462:8495   */\n      swap2\n      pop\n        /* \"#utility.yul\":8517:8583   */\n      0xffffffffffffffffffffffffffffffffffffffffffffffffffffffffffffffff\n        /* \"#utility.yul\":8510:8515   */\n      dup3\n        /* \"#utility.yul\":8507:8584   */\n      eq\n        /* \"#utility.yul\":8504:8607   */\n      iszero\n      tag_215\n      jumpi\n        /* \"#utility.yul\":8587:8605   */\n      tag_216\n      tag_184\n      jump\t// in\n    tag_216:\n        /* \"#utility.yul\":8504:8607   */\n    tag_215:\n        /* \"#utility.yul\":8634:8635   */\n      0x01\n        /* \"#utility.yul\":8627:8632   */\n      dup3\n        /* \"#utility.yul\":8623:8636   */\n      add\n        /* \"#utility.yul\":8616:8636   */\n      swap1\n      pop\n        /* \"#utility.yul\":8409:8642   */\n      swap2\n      swap1\n      pop\n      jump\t// out\n        /* \"#utility.yul\":8648:8828   */\n    tag_184:\n        /* \"#utility.yul\":8696:8773   */\n      0x4e487b7100000000000000000000000000000000000000000000000000000000\n        /* \"#utility.yul\":8693:8694   */\n      0x00\n        /* \"#utility.yul\":8686:8774   */\n      mstore\n        /* \"#utility.yul\":8793:8797   */\n      0x11\n        /* \"#utility.yul\":8790:8791   */\n      0x04\n        /* \"#utility.yul\":8783:8798   */\n      mstore\n        /* \"#utility.yul\":8817:8821   */\n      0x24\n        /* \"#utility.yul\":8814:8815   */\n      0x00\n        /* \"#utility.yul\":8807:8822   */\n      revert\n        /* \"#utility.yul\":8834:9014   */\n    tag_42:\n        /* \"#utility.yul\":8882:8959   */\n      0x4e487b7100000000000000000000000000000000000000000000000000000000\n        /* \"#utility.yul\":8879:8880   */\n      0x00\n        /* \"#utility.yul\":8872:8960   */\n      mstore\n        /* \"#utility.yul\":8979:8983   */\n      0x21\n        /* \"#utility.yul\":8976:8977   */\n      0x04\n        /* \"#utility.yul\":8969:8984   */\n      mstore\n        /* \"#utility.yul\":9003:9007   */\n      0x24\n        /* \"#utility.yul\":9000:9001   */\n      0x00\n        /* \"#utility.yul\":8993:9008   */\n      revert\n        /* \"#utility.yul\":9020:9200   */\n    tag_208:\n        /* \"#utility.yul\":9068:9145   */\n      0x4e487b7100000000000000000000000000000000000000000000000000000000\n        /* \"#utility.yul\":9065:9066   */\n      0x00\n        /* \"#utility.yul\":9058:9146   */\n      mstore\n        /* \"#utility.yul\":9165:9169   */\n      0x22\n        /* \"#utility.yul\":9162:9163   */\n      0x04\n        /* \"#utility.yul\":9155:9170   */\n      mstore\n        /* \"#utility.yul\":9189:9193   */\n      0x24\n        /* \"#utility.yul\":9186:9187   */\n      0x00\n        /* \"#utility.yul\":9179:9194   */\n      revert\n        /* \"#utility.yul\":9206:9386   */\n    tag_28:\n        /* \"#utility.yul\":9254:9331   */\n      0x4e487b7100000000000000000000000000000000000000000000000000000000\n        /* \"#utility.yul\":9251:9252   */\n      0x00\n        /* \"#utility.yul\":9244:9332   */\n      mstore\n        /* \"#utility.yul\":9351:9355   */\n      0x32\n        /* \"#utility.yul\":9348:9349   */\n      0x04\n        /* \"#utility.yul\":9341:9356   */\n      mstore\n        /* \"#utility.yul\":9375:9379   */\n      0x24\n        /* \"#utility.yul\":9372:9373   */\n      0x00\n        /* \"#utility.yul\":9365:9380   */\n      revert\n        /* \"#utility.yul\":9392:9572   */\n    tag_175:\n        /* \"#utility.yul\":9440:9517   */\n      0x4e487b7100000000000000000000000000000000000000000000000000000000\n        /* \"#utility.yul\":9437:9438   */\n      0x00\n        /* \"#utility.yul\":9430:9518   */\n      mstore\n        /* \"#utility.yul\":9537:9541   */\n      0x41\n        /* \"#utility.yul\":9534:9535   */\n      0x04\n        /* \"#utility.yul\":9527:9542   */\n      mstore\n        /* \"#utility.yul\":9561:9565   */\n      0x24\n        /* \"#utility.yul\":9558:9559   */\n      0x00\n        /* \"#utility.yul\":9551:9566   */\n      revert\n        /* \"#utility.yul\":9578:9695   */\n    tag_107:\n        /* \"#utility.yul\":9687:9688   */\n      0x00\n        /* \"#utility.yul\":9684:9685   */\n      dup1\n        /* \"#utility.yul\":9677:9689   */\n      revert\n        /* \"#utility.yul\":9701:9818   */\n    tag_96:\n        /* \"#utility.yul\":9810:9811   */\n      0x00\n        /* \"#utility.yul\":9807:9808   */\n      dup1\n        /* \"#utility.yul\":9800:9812   */\n      revert\n        /* \"#utility.yul\":9824:9941   */\n    tag_119:\n        /* \"#utility.yul\":9933:9934   */\n      0x00\n        /* \"#utility.yul\":9930:9931   */\n      dup1\n        /* \"#utility.yul\":9923:9935   */\n      revert\n        /* \"#utility.yul\":9947:10064   */\n    tag_116:\n        /* \"#utility.yul\":10056:10057   */\n      0x00\n        /* \"#utility.yul\":10053:10054   */\n      dup1\n        /* \"#utility.yul\":10046:10058   */\n      revert\n        /* \"#utility.yul\":10070:10172   */\n    tag_151:\n        /* \"#utility.yul\":10111:10117   */\n      0x00\n        /* \"#utility.yul\":10162:10164   */\n      0x1f\n        /* \"#utility.yul\":10158:10165   */\n      not\n        /* \"#utility.yul\":10153:10155   */\n      0x1f\n        /* \"#utility.yul\":10146:10151   */\n      dup4\n        /* \"#utility.yul\":10142:10156   */\n      add\n        /* \"#utility.yul\":10138:10166   */\n      and\n        /* \"#utility.yul\":10128:10166   */\n      swap1\n      pop\n        /* \"#utility.yul\":10070:10172   */\n      swap2\n      swap1\n      pop\n      jump\t// out\n        /* \"#utility.yul\":10178:10302   */\n    tag_194:\n        /* \"#utility.yul\":10270:10271   */\n      0x02\n        /* \"#utility.yul\":10263:10268   */\n      dup2\n        /* \"#utility.yul\":10260:10272   */\n      lt\n        /* \"#utility.yul\":10250:10296   */\n      tag_228\n      jumpi\n        /* \"#utility.yul\":10276:10294   */\n      tag_229\n      tag_42\n      jump\t// in\n    tag_229:\n        /* \"#utility.yul\":10250:10296   */\n    tag_228:\n        /* \"#utility.yul\":10178:10302   */\n      pop\n      jump\t// out\n        /* \"#utility.yul\":10308:10426   */\n    tag_102:\n        /* \"#utility.yul\":10400:10401   */\n      0x02\n        /* \"#utility.yul\":10393:10398   */\n      dup2\n        /* \"#utility.yul\":10390:10402   */\n      lt\n        /* \"#utility.yul\":10380:10420   */\n      tag_231\n      jumpi\n        /* \"#utility.yul\":10416:10417   */\n      0x00\n        /* \"#utility.yul\":10413:10414   */\n      dup1\n        /* \"#utility.yul\":10406:10418   */\n      revert\n        /* \"#utility.yul\":10380:10420   */\n    tag_231:\n        /* \"#utility.yul\":10308:10426   */\n      pop\n      jump\t// out\n        /* \"#utility.yul\":10432:10554   */\n    tag_112:\n        /* \"#utility.yul\":10505:10529   */\n      tag_233\n        /* \"#utility.yul\":10523:10528   */\n      dup2\n        /* \"#utility.yul\":10505:10529   */\n      tag_161\n      jump\t// in\n    tag_233:\n        /* \"#utility.yul\":10498:10503   */\n      dup2\n        /* \"#utility.yul\":10495:10530   */\n      eq\n        /* \"#utility.yul\":10485:10548   */\n      tag_234\n      jumpi\n        /* \"#utility.yul\":10544:10545   */\n      0x00\n        /* \"#utility.yul\":10541:10542   */\n      dup1\n        /* \"#utility.yul\":10534:10546   */\n      revert\n        /* \"#utility.yul\":10485:10548   */\n    tag_234:\n        /* \"#utility.yul\":10432:10554   */\n      pop\n      jump\t// out\n\n    auxdata: 0xa264697066735822122008ca3a05e8fbfea11af4cc038c0fca330215e464bd0390090e92a4a4e306fbd664736f6c63430008070033\n}\n",
				"bytecode": {
					"linkReferences": {},
					"object": "6080604052600080553480156200001557600080fd5b50620000616040518060400160405280600381526020017f546f6d0000000000000000000000000000000000000000000000000000000000815250600161012c6200006760201b60201c565b620003f6565b6000808154809291906200007b906200031b565b9190505550600160405180608001604052806000548152602001858152602001846001811115620000b157620000b062000398565b5b81526020016201518084620000c791906200027a565b42620000d491906200021d565b8152509080600181540180825580915050600190039060005260206000209060040201600090919091909150600082015181600001556020820151816001019080519060200190620001289291906200016d565b5060408201518160020160006101000a81548160ff0219169083600181111562000157576200015662000398565b5b0217905550606082015181600301555050505050565b8280546200017b90620002e5565b90600052602060002090601f0160209004810192826200019f5760008555620001eb565b82601f10620001ba57805160ff1916838001178555620001eb565b82800160010185558215620001eb579182015b82811115620001ea578251825591602001919060010190620001cd565b5b509050620001fa9190620001fe565b5090565b5b8082111562000219576000816000905550600101620001ff565b5090565b60006200022a82620002db565b91506200023783620002db565b9250827fffffffffffffffffffffffffffffffffffffffffffffffffffffffffffffffff038211156200026f576200026e62000369565b5b828201905092915050565b60006200028782620002db565b91506200029483620002db565b9250817fffffffffffffffffffffffffffffffffffffffffffffffffffffffffffffffff0483118215151615620002d057620002cf62000369565b5b828202905092915050565b6000819050919050565b60006002820490506001821680620002fe57607f821691505b60208210811415620003155762000314620003c7565b5b50919050565b60006200032882620002db565b91507fffffffffffffffffffffffffffffffffffffffffffffffffffffffffffffffff8214156200035e576200035d62000369565b5b600182019050919050565b7f4e487b7100000000000000000000000000000000000000000000000000000000600052601160045260246000fd5b7f4e487b7100000000000000000000000000000000000000000000000000000000600052602160045260246000fd5b7f4e487b7100000000000000000000000000000000000000000000000000000000600052602260045260246000fd5b610b1580620004066000396000f3fe608060405234801561001057600080fd5b50600436106100415760003560e01c80630db92a72146100465780639b4e051c14610076578063eb876f2714610092575b600080fd5b610060600480360381019061005b91906105e7565b6100c2565b60405161006d919061070c565b60405180910390f35b610090600480360381019061008b919061054b565b610167565b005b6100ac60048036038101906100a791906105ba565b61025f565b6040516100b99190610727565b60405180910390f35b600080600090505b60018054905081101561015b5783600182815481106100ec576100eb610a21565b5b906000526020600020906004020160000154141561014857826001828154811061011957610118610a21565b5b9060005260206000209060040201600101908051906020019061013d9291906103d4565b506001915050610161565b80806101539061094b565b9150506100ca565b50600090505b92915050565b6000808154809291906101799061094b565b91905055506001604051806080016040528060005481526020018581526020018460018111156101ac576101ab6109c3565b5b815260200162015180846101c09190610811565b426101cb91906107bb565b815250908060018154018082558091505060019003906000526020600020906004020160009091909190915060008201518160000155602082015181600101908051906020019061021d9291906103d4565b5060408201518160020160006101000a81548160ff02191690836001811115610249576102486109c3565b5b0217905550606082015181600301555050505050565b61026761045a565b60005b6001805490508110156103cd57826001828154811061028c5761028b610a21565b5b90600052602060002090600402016000015414156103ba57600181815481106102b8576102b7610a21565b5b9060005260206000209060040201604051806080016040529081600082015481526020016001820180546102eb906108e8565b80601f0160208091040260200160405190810160405280929190818152602001828054610317906108e8565b80156103645780601f1061033957610100808354040283529160200191610364565b820191906000526020600020905b81548152906001019060200180831161034757829003601f168201915b505050505081526020016002820160009054906101000a900460ff166001811115610392576103916109c3565b5b60018111156103a4576103a36109c3565b5b81526020016003820154815250509150506103cf565b80806103c59061094b565b91505061026a565b505b919050565b8280546103e0906108e8565b90600052602060002090601f0160209004810192826104025760008555610449565b82601f1061041b57805160ff1916838001178555610449565b82800160010185558215610449579182015b8281111561044857825182559160200191906001019061042d565b5b5090506104569190610494565b5090565b6040518060800160405280600081526020016060815260200160006001811115610487576104866109c3565b5b8152602001600081525090565b5b808211156104ad576000816000905550600101610495565b5090565b60006104c46104bf8461076e565b610749565b9050828152602081018484840111156104e0576104df610a84565b5b6104eb8482856108a6565b509392505050565b60008135905061050281610ab8565b92915050565b600082601f83011261051d5761051c610a7f565b5b813561052d8482602086016104b1565b91505092915050565b60008135905061054581610ac8565b92915050565b60008060006060848603121561056457610563610a8e565b5b600084013567ffffffffffffffff81111561058257610581610a89565b5b61058e86828701610508565b935050602061059f868287016104f3565b92505060406105b086828701610536565b9150509250925092565b6000602082840312156105d0576105cf610a8e565b5b60006105de84828501610536565b91505092915050565b600080604083850312156105fe576105fd610a8e565b5b600061060c85828601610536565b925050602083013567ffffffffffffffff81111561062d5761062c610a89565b5b61063985828601610508565b9150509250929050565b61064c8161086b565b82525050565b61065b81610894565b82525050565b600061066c8261079f565b61067681856107aa565b93506106868185602086016108b5565b61068f81610a93565b840191505092915050565b60006080830160008301516106b260008601826106fd565b50602083015184820360208601526106ca8282610661565b91505060408301516106df6040860182610652565b5060608301516106f260608601826106fd565b508091505092915050565b6107068161088a565b82525050565b60006020820190506107216000830184610643565b92915050565b60006020820190508181036000830152610741818461069a565b905092915050565b6000610753610764565b905061075f828261091a565b919050565b6000604051905090565b600067ffffffffffffffff82111561078957610788610a50565b5b61079282610a93565b9050602081019050919050565b600081519050919050565b600082825260208201905092915050565b60006107c68261088a565b91506107d18361088a565b9250827fffffffffffffffffffffffffffffffffffffffffffffffffffffffffffffffff0382111561080657610805610994565b5b828201905092915050565b600061081c8261088a565b91506108278361088a565b9250817fffffffffffffffffffffffffffffffffffffffffffffffffffffffffffffffff04831182151516156108605761085f610994565b5b828202905092915050565b60008115159050919050565b600081905061088582610aa4565b919050565b6000819050919050565b600061089f82610877565b9050919050565b82818337600083830152505050565b60005b838110156108d35780820151818401526020810190506108b8565b838111156108e2576000848401525b50505050565b6000600282049050600182168061090057607f821691505b60208210811415610914576109136109f2565b5b50919050565b61092382610a93565b810181811067ffffffffffffffff8211171561094257610941610a50565b5b80604052505050565b60006109568261088a565b91507fffffffffffffffffffffffffffffffffffffffffffffffffffffffffffffffff82141561098957610988610994565b5b600182019050919050565b7f4e487b7100000000000000000000000000000000000000000000000000000000600052601160045260246000fd5b7f4e487b7100000000000000000000000000000000000000000000000000000000600052602160045260246000fd5b7f4e487b7100000000000000000000000000000000000000000000000000000000600052602260045260246000fd5b7f4e487b7100000000000000000000000000000000000000000000000000000000600052603260045260246000fd5b7f4e487b7100000000000000000000000000000000000000000000000000000000600052604160045260246000fd5b600080fd5b600080fd5b600080fd5b600080fd5b6000601f19601f8301169050919050565b60028110610ab557610ab46109c3565b5b50565b60028110610ac557600080fd5b50565b610ad18161088a565b8114610adc57600080fd5b5056fea264697066735822122008ca3a05e8fbfea11af4cc038c0fca330215e464bd0390090e92a4a4e306fbd664736f6c63430008070033",
					"opcodes": "PUSH1 0x80 PUSH1 0x40 MSTORE PUSH1 0x0 DUP1 SSTORE CALLVALUE DUP1 ISZERO PUSH3 0x15 JUMPI PUSH1 0x0 DUP1 REVERT JUMPDEST POP PUSH3 0x61 PUSH1 0x40 MLOAD DUP1 PUSH1 0x40 ADD PUSH1 0x40 MSTORE DUP1 PUSH1 0x3 DUP2 MSTORE PUSH1 0x20 ADD PUSH32 0x546F6D0000000000000000000000000000000000000000000000000000000000 DUP2 MSTORE POP PUSH1 0x1 PUSH2 0x12C PUSH3 0x67 PUSH1 0x20 SHL PUSH1 0x20 SHR JUMP JUMPDEST PUSH3 0x3F6 JUMP JUMPDEST PUSH1 0x0 DUP1 DUP2 SLOAD DUP1 SWAP3 SWAP2 SWAP1 PUSH3 0x7B SWAP1 PUSH3 0x31B JUMP JUMPDEST SWAP2 SWAP1 POP SSTORE POP PUSH1 0x1 PUSH1 0x40 MLOAD DUP1 PUSH1 0x80 ADD PUSH1 0x40 MSTORE DUP1 PUSH1 0x0 SLOAD DUP2 MSTORE PUSH1 0x20 ADD DUP6 DUP2 MSTORE PUSH1 0x20 ADD DUP5 PUSH1 0x1 DUP2 GT ISZERO PUSH3 0xB1 JUMPI PUSH3 0xB0 PUSH3 0x398 JUMP JUMPDEST JUMPDEST DUP2 MSTORE PUSH1 0x20 ADD PUSH3 0x15180 DUP5 PUSH3 0xC7 SWAP2 SWAP1 PUSH3 0x27A JUMP JUMPDEST TIMESTAMP PUSH3 0xD4 SWAP2 SWAP1 PUSH3 0x21D JUMP JUMPDEST DUP2 MSTORE POP SWAP1 DUP1 PUSH1 0x1 DUP2 SLOAD ADD DUP1 DUP3 SSTORE DUP1 SWAP2 POP POP PUSH1 0x1 SWAP1 SUB SWAP1 PUSH1 0x0 MSTORE PUSH1 0x20 PUSH1 0x0 KECCAK256 SWAP1 PUSH1 0x4 MUL ADD PUSH1 0x0 SWAP1 SWAP2 SWAP1 SWAP2 SWAP1 SWAP2 POP PUSH1 0x0 DUP3 ADD MLOAD DUP2 PUSH1 0x0 ADD SSTORE PUSH1 0x20 DUP3 ADD MLOAD DUP2 PUSH1 0x1 ADD SWAP1 DUP1 MLOAD SWAP1 PUSH1 0x20 ADD SWAP1 PUSH3 0x128 SWAP3 SWAP2 SWAP1 PUSH3 0x16D JUMP JUMPDEST POP PUSH1 0x40 DUP3 ADD MLOAD DUP2 PUSH1 0x2 ADD PUSH1 0x0 PUSH2 0x100 EXP DUP2 SLOAD DUP2 PUSH1 0xFF MUL NOT AND SWAP1 DUP4 PUSH1 0x1 DUP2 GT ISZERO PUSH3 0x157 JUMPI PUSH3 0x156 PUSH3 0x398 JUMP JUMPDEST JUMPDEST MUL OR SWAP1 SSTORE POP PUSH1 0x60 DUP3 ADD MLOAD DUP2 PUSH1 0x3 ADD SSTORE POP POP POP POP POP JUMP JUMPDEST DUP3 DUP1 SLOAD PUSH3 0x17B SWAP1 PUSH3 0x2E5 JUMP JUMPDEST SWAP1 PUSH1 0x0 MSTORE PUSH1 0x20 PUSH1 0x0 KECCAK256 SWAP1 PUSH1 0x1F ADD PUSH1 0x20 SWAP1 DIV DUP2 ADD SWAP3 DUP3 PUSH3 0x19F JUMPI PUSH1 0x0 DUP6 SSTORE PUSH3 0x1EB JUMP JUMPDEST DUP3 PUSH1 0x1F LT PUSH3 0x1BA JUMPI DUP1 MLOAD PUSH1 0xFF NOT AND DUP4 DUP1 ADD OR DUP6 SSTORE PUSH3 0x1EB JUMP JUMPDEST DUP3 DUP1 ADD PUSH1 0x1 ADD DUP6 SSTORE DUP3 ISZERO PUSH3 0x1EB JUMPI SWAP2 DUP3 ADD JUMPDEST DUP3 DUP2 GT ISZERO PUSH3 0x1EA JUMPI DUP3 MLOAD DUP3 SSTORE SWAP2 PUSH1 0x20 ADD SWAP2 SWAP1 PUSH1 0x1 ADD SWAP1 PUSH3 0x1CD JUMP JUMPDEST JUMPDEST POP SWAP1 POP PUSH3 0x1FA SWAP2 SWAP1 PUSH3 0x1FE JUMP JUMPDEST POP SWAP1 JUMP JUMPDEST JUMPDEST DUP1 DUP3 GT ISZERO PUSH3 0x219 JUMPI PUSH1 0x0 DUP2 PUSH1 0x0 SWAP1 SSTORE POP PUSH1 0x1 ADD PUSH3 0x1FF JUMP JUMPDEST POP SWAP1 JUMP JUMPDEST PUSH1 0x0 PUSH3 0x22A DUP3 PUSH3 0x2DB JUMP JUMPDEST SWAP2 POP PUSH3 0x237 DUP4 PUSH3 0x2DB JUMP JUMPDEST SWAP3 POP DUP3 PUSH32 0xFFFFFFFFFFFFFFFFFFFFFFFFFFFFFFFFFFFFFFFFFFFFFFFFFFFFFFFFFFFFFFFF SUB DUP3 GT ISZERO PUSH3 0x26F JUMPI PUSH3 0x26E PUSH3 0x369 JUMP JUMPDEST JUMPDEST DUP3 DUP3 ADD SWAP1 POP SWAP3 SWAP2 POP POP JUMP JUMPDEST PUSH1 0x0 PUSH3 0x287 DUP3 PUSH3 0x2DB JUMP JUMPDEST SWAP2 POP PUSH3 0x294 DUP4 PUSH3 0x2DB JUMP JUMPDEST SWAP3 POP DUP2 PUSH32 0xFFFFFFFFFFFFFFFFFFFFFFFFFFFFFFFFFFFFFFFFFFFFFFFFFFFFFFFFFFFFFFFF DIV DUP4 GT DUP3 ISZERO ISZERO AND ISZERO PUSH3 0x2D0 JUMPI PUSH3 0x2CF PUSH3 0x369 JUMP JUMPDEST JUMPDEST DUP3 DUP3 MUL SWAP1 POP SWAP3 SWAP2 POP POP JUMP JUMPDEST PUSH1 0x0 DUP2 SWAP1 POP SWAP2 SWAP1 POP JUMP JUMPDEST PUSH1 0x0 PUSH1 0x2 DUP3 DIV SWAP1 POP PUSH1 0x1 DUP3 AND DUP1 PUSH3 0x2FE JUMPI PUSH1 0x7F DUP3 AND SWAP2 POP JUMPDEST PUSH1 0x20 DUP3 LT DUP2 EQ ISZERO PUSH3 0x315 JUMPI PUSH3 0x314 PUSH3 0x3C7 JUMP JUMPDEST JUMPDEST POP SWAP2 SWAP1 POP JUMP JUMPDEST PUSH1 0x0 PUSH3 0x328 DUP3 PUSH3 0x2DB JUMP JUMPDEST SWAP2 POP PUSH32 0xFFFFFFFFFFFFFFFFFFFFFFFFFFFFFFFFFFFFFFFFFFFFFFFFFFFFFFFFFFFFFFFF DUP3 EQ ISZERO PUSH3 0x35E JUMPI PUSH3 0x35D PUSH3 0x369 JUMP JUMPDEST JUMPDEST PUSH1 0x1 DUP3 ADD SWAP1 POP SWAP2 SWAP1 POP JUMP JUMPDEST PUSH32 0x4E487B7100000000000000000000000000000000000000000000000000000000 PUSH1 0x0 MSTORE PUSH1 0x11 PUSH1 0x4 MSTORE PUSH1 0x24 PUSH1 0x0 REVERT JUMPDEST PUSH32 0x4E487B7100000000000000000000000000000000000000000000000000000000 PUSH1 0x0 MSTORE PUSH1 0x21 PUSH1 0x4 MSTORE PUSH1 0x24 PUSH1 0x0 REVERT JUMPDEST PUSH32 0x4E487B7100000000000000000000000000000000000000000000000000000000 PUSH1 0x0 MSTORE PUSH1 0x22 PUSH1 0x4 MSTORE PUSH1 0x24 PUSH1 0x0 REVERT JUMPDEST PUSH2 0xB15 DUP1 PUSH3 0x406 PUSH1 0x0 CODECOPY PUSH1 0x0 RETURN INVALID PUSH1 0x80 PUSH1 0x40 MSTORE CALLVALUE DUP1 ISZERO PUSH2 0x10 JUMPI PUSH1 0x0 DUP1 REVERT JUMPDEST POP PUSH1 0x4 CALLDATASIZE LT PUSH2 0x41 JUMPI PUSH1 0x0 CALLDATALOAD PUSH1 0xE0 SHR DUP1 PUSH4 0xDB92A72 EQ PUSH2 0x46 JUMPI DUP1 PUSH4 0x9B4E051C EQ PUSH2 0x76 JUMPI DUP1 PUSH4 0xEB876F27 EQ PUSH2 0x92 JUMPI JUMPDEST PUSH1 0x0 DUP1 REVERT JUMPDEST PUSH2 0x60 PUSH1 0x4 DUP1 CALLDATASIZE SUB DUP2 ADD SWAP1 PUSH2 0x5B SWAP2 SWAP1 PUSH2 0x5E7 JUMP JUMPDEST PUSH2 0xC2 JUMP JUMPDEST PUSH1 0x40 MLOAD PUSH2 0x6D SWAP2 SWAP1 PUSH2 0x70C JUMP JUMPDEST PUSH1 0x40 MLOAD DUP1 SWAP2 SUB SWAP1 RETURN JUMPDEST PUSH2 0x90 PUSH1 0x4 DUP1 CALLDATASIZE SUB DUP2 ADD SWAP1 PUSH2 0x8B SWAP2 SWAP1 PUSH2 0x54B JUMP JUMPDEST PUSH2 0x167 JUMP JUMPDEST STOP JUMPDEST PUSH2 0xAC PUSH1 0x4 DUP1 CALLDATASIZE SUB DUP2 ADD SWAP1 PUSH2 0xA7 SWAP2 SWAP1 PUSH2 0x5BA JUMP JUMPDEST PUSH2 0x25F JUMP JUMPDEST PUSH1 0x40 MLOAD PUSH2 0xB9 SWAP2 SWAP1 PUSH2 0x727 JUMP JUMPDEST PUSH1 0x40 MLOAD DUP1 SWAP2 SUB SWAP1 RETURN JUMPDEST PUSH1 0x0 DUP1 PUSH1 0x0 SWAP1 POP JUMPDEST PUSH1 0x1 DUP1 SLOAD SWAP1 POP DUP2 LT ISZERO PUSH2 0x15B JUMPI DUP4 PUSH1 0x1 DUP3 DUP2 SLOAD DUP2 LT PUSH2 0xEC JUMPI PUSH2 0xEB PUSH2 0xA21 JUMP JUMPDEST JUMPDEST SWAP1 PUSH1 0x0 MSTORE PUSH1 0x20 PUSH1 0x0 KECCAK256 SWAP1 PUSH1 0x4 MUL ADD PUSH1 0x0 ADD SLOAD EQ ISZERO PUSH2 0x148 JUMPI DUP3 PUSH1 0x1 DUP3 DUP2 SLOAD DUP2 LT PUSH2 0x119 JUMPI PUSH2 0x118 PUSH2 0xA21 JUMP JUMPDEST JUMPDEST SWAP1 PUSH1 0x0 MSTORE PUSH1 0x20 PUSH1 0x0 KECCAK256 SWAP1 PUSH1 0x4 MUL ADD PUSH1 0x1 ADD SWAP1 DUP1 MLOAD SWAP1 PUSH1 0x20 ADD SWAP1 PUSH2 0x13D SWAP3 SWAP2 SWAP1 PUSH2 0x3D4 JUMP JUMPDEST POP PUSH1 0x1 SWAP2 POP POP PUSH2 0x161 JUMP JUMPDEST DUP1 DUP1 PUSH2 0x153 SWAP1 PUSH2 0x94B JUMP JUMPDEST SWAP2 POP POP PUSH2 0xCA JUMP JUMPDEST POP PUSH1 0x0 SWAP1 POP JUMPDEST SWAP3 SWAP2 POP POP JUMP JUMPDEST PUSH1 0x0 DUP1 DUP2 SLOAD DUP1 SWAP3 SWAP2 SWAP1 PUSH2 0x179 SWAP1 PUSH2 0x94B JUMP JUMPDEST SWAP2 SWAP1 POP SSTORE POP PUSH1 0x1 PUSH1 0x40 MLOAD DUP1 PUSH1 0x80 ADD PUSH1 0x40 MSTORE DUP1 PUSH1 0x0 SLOAD DUP2 MSTORE PUSH1 0x20 ADD DUP6 DUP2 MSTORE PUSH1 0x20 ADD DUP5 PUSH1 0x1 DUP2 GT ISZERO PUSH2 0x1AC JUMPI PUSH2 0x1AB PUSH2 0x9C3 JUMP JUMPDEST JUMPDEST DUP2 MSTORE PUSH1 0x20 ADD PUSH3 0x15180 DUP5 PUSH2 0x1C0 SWAP2 SWAP1 PUSH2 0x811 JUMP JUMPDEST TIMESTAMP PUSH2 0x1CB SWAP2 SWAP1 PUSH2 0x7BB JUMP JUMPDEST DUP2 MSTORE POP SWAP1 DUP1 PUSH1 0x1 DUP2 SLOAD ADD DUP1 DUP3 SSTORE DUP1 SWAP2 POP POP PUSH1 0x1 SWAP1 SUB SWAP1 PUSH1 0x0 MSTORE PUSH1 0x20 PUSH1 0x0 KECCAK256 SWAP1 PUSH1 0x4 MUL ADD PUSH1 0x0 SWAP1 SWAP2 SWAP1 SWAP2 SWAP1 SWAP2 POP PUSH1 0x0 DUP3 ADD MLOAD DUP2 PUSH1 0x0 ADD SSTORE PUSH1 0x20 DUP3 ADD MLOAD DUP2 PUSH1 0x1 ADD SWAP1 DUP1 MLOAD SWAP1 PUSH1 0x20 ADD SWAP1 PUSH2 0x21D SWAP3 SWAP2 SWAP1 PUSH2 0x3D4 JUMP JUMPDEST POP PUSH1 0x40 DUP3 ADD MLOAD DUP2 PUSH1 0x2 ADD PUSH1 0x0 PUSH2 0x100 EXP DUP2 SLOAD DUP2 PUSH1 0xFF MUL NOT AND SWAP1 DUP4 PUSH1 0x1 DUP2 GT ISZERO PUSH2 0x249 JUMPI PUSH2 0x248 PUSH2 0x9C3 JUMP JUMPDEST JUMPDEST MUL OR SWAP1 SSTORE POP PUSH1 0x60 DUP3 ADD MLOAD DUP2 PUSH1 0x3 ADD SSTORE POP POP POP POP POP JUMP JUMPDEST PUSH2 0x267 PUSH2 0x45A JUMP JUMPDEST PUSH1 0x0 JUMPDEST PUSH1 0x1 DUP1 SLOAD SWAP1 POP DUP2 LT ISZERO PUSH2 0x3CD JUMPI DUP3 PUSH1 0x1 DUP3 DUP2 SLOAD DUP2 LT PUSH2 0x28C JUMPI PUSH2 0x28B PUSH2 0xA21 JUMP JUMPDEST JUMPDEST SWAP1 PUSH1 0x0 MSTORE PUSH1 0x20 PUSH1 0x0 KECCAK256 SWAP1 PUSH1 0x4 MUL ADD PUSH1 0x0 ADD SLOAD EQ ISZERO PUSH2 0x3BA JUMPI PUSH1 0x1 DUP2 DUP2 SLOAD DUP2 LT PUSH2 0x2B8 JUMPI PUSH2 0x2B7 PUSH2 0xA21 JUMP JUMPDEST JUMPDEST SWAP1 PUSH1 0x0 MSTORE PUSH1 0x20 PUSH1 0x0 KECCAK256 SWAP1 PUSH1 0x4 MUL ADD PUSH1 0x40 MLOAD DUP1 PUSH1 0x80 ADD PUSH1 0x40 MSTORE SWAP1 DUP2 PUSH1 0x0 DUP3 ADD SLOAD DUP2 MSTORE PUSH1 0x20 ADD PUSH1 0x1 DUP3 ADD DUP1 SLOAD PUSH2 0x2EB SWAP1 PUSH2 0x8E8 JUMP JUMPDEST DUP1 PUSH1 0x1F ADD PUSH1 0x20 DUP1 SWAP2 DIV MUL PUSH1 0x20 ADD PUSH1 0x40 MLOAD SWAP1 DUP2 ADD PUSH1 0x40 MSTORE DUP1 SWAP3 SWAP2 SWAP1 DUP2 DUP2 MSTORE PUSH1 0x20 ADD DUP3 DUP1 SLOAD PUSH2 0x317 SWAP1 PUSH2 0x8E8 JUMP JUMPDEST DUP1 ISZERO PUSH2 0x364 JUMPI DUP1 PUSH1 0x1F LT PUSH2 0x339 JUMPI PUSH2 0x100 DUP1 DUP4 SLOAD DIV MUL DUP4 MSTORE SWAP2 PUSH1 0x20 ADD SWAP2 PUSH2 0x364 JUMP JUMPDEST DUP3 ADD SWAP2 SWAP1 PUSH1 0x0 MSTORE PUSH1 0x20 PUSH1 0x0 KECCAK256 SWAP1 JUMPDEST DUP2 SLOAD DUP2 MSTORE SWAP1 PUSH1 0x1 ADD SWAP1 PUSH1 0x20 ADD DUP1 DUP4 GT PUSH2 0x347 JUMPI DUP3 SWAP1 SUB PUSH1 0x1F AND DUP3 ADD SWAP2 JUMPDEST POP POP POP POP POP DUP2 MSTORE PUSH1 0x20 ADD PUSH1 0x2 DUP3 ADD PUSH1 0x0 SWAP1 SLOAD SWAP1 PUSH2 0x100 EXP SWAP1 DIV PUSH1 0xFF AND PUSH1 0x1 DUP2 GT ISZERO PUSH2 0x392 JUMPI PUSH2 0x391 PUSH2 0x9C3 JUMP JUMPDEST JUMPDEST PUSH1 0x1 DUP2 GT ISZERO PUSH2 0x3A4 JUMPI PUSH2 0x3A3 PUSH2 0x9C3 JUMP JUMPDEST JUMPDEST DUP2 MSTORE PUSH1 0x20 ADD PUSH1 0x3 DUP3 ADD SLOAD DUP2 MSTORE POP POP SWAP2 POP POP PUSH2 0x3CF JUMP JUMPDEST DUP1 DUP1 PUSH2 0x3C5 SWAP1 PUSH2 0x94B JUMP JUMPDEST SWAP2 POP POP PUSH2 0x26A JUMP JUMPDEST POP JUMPDEST SWAP2 SWAP1 POP JUMP JUMPDEST DUP3 DUP1 SLOAD PUSH2 0x3E0 SWAP1 PUSH2 0x8E8 JUMP JUMPDEST SWAP1 PUSH1 0x0 MSTORE PUSH1 0x20 PUSH1 0x0 KECCAK256 SWAP1 PUSH1 0x1F ADD PUSH1 0x20 SWAP1 DIV DUP2 ADD SWAP3 DUP3 PUSH2 0x402 JUMPI PUSH1 0x0 DUP6 SSTORE PUSH2 0x449 JUMP JUMPDEST DUP3 PUSH1 0x1F LT PUSH2 0x41B JUMPI DUP1 MLOAD PUSH1 0xFF NOT AND DUP4 DUP1 ADD OR DUP6 SSTORE PUSH2 0x449 JUMP JUMPDEST DUP3 DUP1 ADD PUSH1 0x1 ADD DUP6 SSTORE DUP3 ISZERO PUSH2 0x449 JUMPI SWAP2 DUP3 ADD JUMPDEST DUP3 DUP2 GT ISZERO PUSH2 0x448 JUMPI DUP3 MLOAD DUP3 SSTORE SWAP2 PUSH1 0x20 ADD SWAP2 SWAP1 PUSH1 0x1 ADD SWAP1 PUSH2 0x42D JUMP JUMPDEST JUMPDEST POP SWAP1 POP PUSH2 0x456 SWAP2 SWAP1 PUSH2 0x494 JUMP JUMPDEST POP SWAP1 JUMP JUMPDEST PUSH1 0x40 MLOAD DUP1 PUSH1 0x80 ADD PUSH1 0x40 MSTORE DUP1 PUSH1 0x0 DUP2 MSTORE PUSH1 0x20 ADD PUSH1 0x60 DUP2 MSTORE PUSH1 0x20 ADD PUSH1 0x0 PUSH1 0x1 DUP2 GT ISZERO PUSH2 0x487 JUMPI PUSH2 0x486 PUSH2 0x9C3 JUMP JUMPDEST JUMPDEST DUP2 MSTORE PUSH1 0x20 ADD PUSH1 0x0 DUP2 MSTORE POP SWAP1 JUMP JUMPDEST JUMPDEST DUP1 DUP3 GT ISZERO PUSH2 0x4AD JUMPI PUSH1 0x0 DUP2 PUSH1 0x0 SWAP1 SSTORE POP PUSH1 0x1 ADD PUSH2 0x495 JUMP JUMPDEST POP SWAP1 JUMP JUMPDEST PUSH1 0x0 PUSH2 0x4C4 PUSH2 0x4BF DUP5 PUSH2 0x76E JUMP JUMPDEST PUSH2 0x749 JUMP JUMPDEST SWAP1 POP DUP3 DUP2 MSTORE PUSH1 0x20 DUP2 ADD DUP5 DUP5 DUP5 ADD GT ISZERO PUSH2 0x4E0 JUMPI PUSH2 0x4DF PUSH2 0xA84 JUMP JUMPDEST JUMPDEST PUSH2 0x4EB DUP5 DUP3 DUP6 PUSH2 0x8A6 JUMP JUMPDEST POP SWAP4 SWAP3 POP POP POP JUMP JUMPDEST PUSH1 0x0 DUP2 CALLDATALOAD SWAP1 POP PUSH2 0x502 DUP2 PUSH2 0xAB8 JUMP JUMPDEST SWAP3 SWAP2 POP POP JUMP JUMPDEST PUSH1 0x0 DUP3 PUSH1 0x1F DUP4 ADD SLT PUSH2 0x51D JUMPI PUSH2 0x51C PUSH2 0xA7F JUMP JUMPDEST JUMPDEST DUP2 CALLDATALOAD PUSH2 0x52D DUP5 DUP3 PUSH1 0x20 DUP7 ADD PUSH2 0x4B1 JUMP JUMPDEST SWAP2 POP POP SWAP3 SWAP2 POP POP JUMP JUMPDEST PUSH1 0x0 DUP2 CALLDATALOAD SWAP1 POP PUSH2 0x545 DUP2 PUSH2 0xAC8 JUMP JUMPDEST SWAP3 SWAP2 POP POP JUMP JUMPDEST PUSH1 0x0 DUP1 PUSH1 0x0 PUSH1 0x60 DUP5 DUP7 SUB SLT ISZERO PUSH2 0x564 JUMPI PUSH2 0x563 PUSH2 0xA8E JUMP JUMPDEST JUMPDEST PUSH1 0x0 DUP5 ADD CALLDATALOAD PUSH8 0xFFFFFFFFFFFFFFFF DUP2 GT ISZERO PUSH2 0x582 JUMPI PUSH2 0x581 PUSH2 0xA89 JUMP JUMPDEST JUMPDEST PUSH2 0x58E DUP7 DUP3 DUP8 ADD PUSH2 0x508 JUMP JUMPDEST SWAP4 POP POP PUSH1 0x20 PUSH2 0x59F DUP7 DUP3 DUP8 ADD PUSH2 0x4F3 JUMP JUMPDEST SWAP3 POP POP PUSH1 0x40 PUSH2 0x5B0 DUP7 DUP3 DUP8 ADD PUSH2 0x536 JUMP JUMPDEST SWAP2 POP POP SWAP3 POP SWAP3 POP SWAP3 JUMP JUMPDEST PUSH1 0x0 PUSH1 0x20 DUP3 DUP5 SUB SLT ISZERO PUSH2 0x5D0 JUMPI PUSH2 0x5CF PUSH2 0xA8E JUMP JUMPDEST JUMPDEST PUSH1 0x0 PUSH2 0x5DE DUP5 DUP3 DUP6 ADD PUSH2 0x536 JUMP JUMPDEST SWAP2 POP POP SWAP3 SWAP2 POP POP JUMP JUMPDEST PUSH1 0x0 DUP1 PUSH1 0x40 DUP4 DUP6 SUB SLT ISZERO PUSH2 0x5FE JUMPI PUSH2 0x5FD PUSH2 0xA8E JUMP JUMPDEST JUMPDEST PUSH1 0x0 PUSH2 0x60C DUP6 DUP3 DUP7 ADD PUSH2 0x536 JUMP JUMPDEST SWAP3 POP POP PUSH1 0x20 DUP4 ADD CALLDATALOAD PUSH8 0xFFFFFFFFFFFFFFFF DUP2 GT ISZERO PUSH2 0x62D JUMPI PUSH2 0x62C PUSH2 0xA89 JUMP JUMPDEST JUMPDEST PUSH2 0x639 DUP6 DUP3 DUP7 ADD PUSH2 0x508 JUMP JUMPDEST SWAP2 POP POP SWAP3 POP SWAP3 SWAP1 POP JUMP JUMPDEST PUSH2 0x64C DUP2 PUSH2 0x86B JUMP JUMPDEST DUP3 MSTORE POP POP JUMP JUMPDEST PUSH2 0x65B DUP2 PUSH2 0x894 JUMP JUMPDEST DUP3 MSTORE POP POP JUMP JUMPDEST PUSH1 0x0 PUSH2 0x66C DUP3 PUSH2 0x79F JUMP JUMPDEST PUSH2 0x676 DUP2 DUP6 PUSH2 0x7AA JUMP JUMPDEST SWAP4 POP PUSH2 0x686 DUP2 DUP6 PUSH1 0x20 DUP7 ADD PUSH2 0x8B5 JUMP JUMPDEST PUSH2 0x68F DUP2 PUSH2 0xA93 JUMP JUMPDEST DUP5 ADD SWAP2 POP POP SWAP3 SWAP2 POP POP JUMP JUMPDEST PUSH1 0x0 PUSH1 0x80 DUP4 ADD PUSH1 0x0 DUP4 ADD MLOAD PUSH2 0x6B2 PUSH1 0x0 DUP7 ADD DUP3 PUSH2 0x6FD JUMP JUMPDEST POP PUSH1 0x20 DUP4 ADD MLOAD DUP5 DUP3 SUB PUSH1 0x20 DUP7 ADD MSTORE PUSH2 0x6CA DUP3 DUP3 PUSH2 0x661 JUMP JUMPDEST SWAP2 POP POP PUSH1 0x40 DUP4 ADD MLOAD PUSH2 0x6DF PUSH1 0x40 DUP7 ADD DUP3 PUSH2 0x652 JUMP JUMPDEST POP PUSH1 0x60 DUP4 ADD MLOAD PUSH2 0x6F2 PUSH1 0x60 DUP7 ADD DUP3 PUSH2 0x6FD JUMP JUMPDEST POP DUP1 SWAP2 POP POP SWAP3 SWAP2 POP POP JUMP JUMPDEST PUSH2 0x706 DUP2 PUSH2 0x88A JUMP JUMPDEST DUP3 MSTORE POP POP JUMP JUMPDEST PUSH1 0x0 PUSH1 0x20 DUP3 ADD SWAP1 POP PUSH2 0x721 PUSH1 0x0 DUP4 ADD DUP5 PUSH2 0x643 JUMP JUMPDEST SWAP3 SWAP2 POP POP JUMP JUMPDEST PUSH1 0x0 PUSH1 0x20 DUP3 ADD SWAP1 POP DUP2 DUP2 SUB PUSH1 0x0 DUP4 ADD MSTORE PUSH2 0x741 DUP2 DUP5 PUSH2 0x69A JUMP JUMPDEST SWAP1 POP SWAP3 SWAP2 POP POP JUMP JUMPDEST PUSH1 0x0 PUSH2 0x753 PUSH2 0x764 JUMP JUMPDEST SWAP1 POP PUSH2 0x75F DUP3 DUP3 PUSH2 0x91A JUMP JUMPDEST SWAP2 SWAP1 POP JUMP JUMPDEST PUSH1 0x0 PUSH1 0x40 MLOAD SWAP1 POP SWAP1 JUMP JUMPDEST PUSH1 0x0 PUSH8 0xFFFFFFFFFFFFFFFF DUP3 GT ISZERO PUSH2 0x789 JUMPI PUSH2 0x788 PUSH2 0xA50 JUMP JUMPDEST JUMPDEST PUSH2 0x792 DUP3 PUSH2 0xA93 JUMP JUMPDEST SWAP1 POP PUSH1 0x20 DUP2 ADD SWAP1 POP SWAP2 SWAP1 POP JUMP JUMPDEST PUSH1 0x0 DUP2 MLOAD SWAP1 POP SWAP2 SWAP1 POP JUMP JUMPDEST PUSH1 0x0 DUP3 DUP3 MSTORE PUSH1 0x20 DUP3 ADD SWAP1 POP SWAP3 SWAP2 POP POP JUMP JUMPDEST PUSH1 0x0 PUSH2 0x7C6 DUP3 PUSH2 0x88A JUMP JUMPDEST SWAP2 POP PUSH2 0x7D1 DUP4 PUSH2 0x88A JUMP JUMPDEST SWAP3 POP DUP3 PUSH32 0xFFFFFFFFFFFFFFFFFFFFFFFFFFFFFFFFFFFFFFFFFFFFFFFFFFFFFFFFFFFFFFFF SUB DUP3 GT ISZERO PUSH2 0x806 JUMPI PUSH2 0x805 PUSH2 0x994 JUMP JUMPDEST JUMPDEST DUP3 DUP3 ADD SWAP1 POP SWAP3 SWAP2 POP POP JUMP JUMPDEST PUSH1 0x0 PUSH2 0x81C DUP3 PUSH2 0x88A JUMP JUMPDEST SWAP2 POP PUSH2 0x827 DUP4 PUSH2 0x88A JUMP JUMPDEST SWAP3 POP DUP2 PUSH32 0xFFFFFFFFFFFFFFFFFFFFFFFFFFFFFFFFFFFFFFFFFFFFFFFFFFFFFFFFFFFFFFFF DIV DUP4 GT DUP3 ISZERO ISZERO AND ISZERO PUSH2 0x860 JUMPI PUSH2 0x85F PUSH2 0x994 JUMP JUMPDEST JUMPDEST DUP3 DUP3 MUL SWAP1 POP SWAP3 SWAP2 POP POP JUMP JUMPDEST PUSH1 0x0 DUP2 ISZERO ISZERO SWAP1 POP SWAP2 SWAP1 POP JUMP JUMPDEST PUSH1 0x0 DUP2 SWAP1 POP PUSH2 0x885 DUP3 PUSH2 0xAA4 JUMP JUMPDEST SWAP2 SWAP1 POP JUMP JUMPDEST PUSH1 0x0 DUP2 SWAP1 POP SWAP2 SWAP1 POP JUMP JUMPDEST PUSH1 0x0 PUSH2 0x89F DUP3 PUSH2 0x877 JUMP JUMPDEST SWAP1 POP SWAP2 SWAP1 POP JUMP JUMPDEST DUP3 DUP2 DUP4 CALLDATACOPY PUSH1 0x0 DUP4 DUP4 ADD MSTORE POP POP POP JUMP JUMPDEST PUSH1 0x0 JUMPDEST DUP4 DUP2 LT ISZERO PUSH2 0x8D3 JUMPI DUP1 DUP3 ADD MLOAD DUP2 DUP5 ADD MSTORE PUSH1 0x20 DUP2 ADD SWAP1 POP PUSH2 0x8B8 JUMP JUMPDEST DUP4 DUP2 GT ISZERO PUSH2 0x8E2 JUMPI PUSH1 0x0 DUP5 DUP5 ADD MSTORE JUMPDEST POP POP POP POP JUMP JUMPDEST PUSH1 0x0 PUSH1 0x2 DUP3 DIV SWAP1 POP PUSH1 0x1 DUP3 AND DUP1 PUSH2 0x900 JUMPI PUSH1 0x7F DUP3 AND SWAP2 POP JUMPDEST PUSH1 0x20 DUP3 LT DUP2 EQ ISZERO PUSH2 0x914 JUMPI PUSH2 0x913 PUSH2 0x9F2 JUMP JUMPDEST JUMPDEST POP SWAP2 SWAP1 POP JUMP JUMPDEST PUSH2 0x923 DUP3 PUSH2 0xA93 JUMP JUMPDEST DUP2 ADD DUP2 DUP2 LT PUSH8 0xFFFFFFFFFFFFFFFF DUP3 GT OR ISZERO PUSH2 0x942 JUMPI PUSH2 0x941 PUSH2 0xA50 JUMP JUMPDEST JUMPDEST DUP1 PUSH1 0x40 MSTORE POP POP POP JUMP JUMPDEST PUSH1 0x0 PUSH2 0x956 DUP3 PUSH2 0x88A JUMP JUMPDEST SWAP2 POP PUSH32 0xFFFFFFFFFFFFFFFFFFFFFFFFFFFFFFFFFFFFFFFFFFFFFFFFFFFFFFFFFFFFFFFF DUP3 EQ ISZERO PUSH2 0x989 JUMPI PUSH2 0x988 PUSH2 0x994 JUMP JUMPDEST JUMPDEST PUSH1 0x1 DUP3 ADD SWAP1 POP SWAP2 SWAP1 POP JUMP JUMPDEST PUSH32 0x4E487B7100000000000000000000000000000000000000000000000000000000 PUSH1 0x0 MSTORE PUSH1 0x11 PUSH1 0x4 MSTORE PUSH1 0x24 PUSH1 0x0 REVERT JUMPDEST PUSH32 0x4E487B7100000000000000000000000000000000000000000000000000000000 PUSH1 0x0 MSTORE PUSH1 0x21 PUSH1 0x4 MSTORE PUSH1 0x24 PUSH1 0x0 REVERT JUMPDEST PUSH32 0x4E487B7100000000000000000000000000000000000000000000000000000000 PUSH1 0x0 MSTORE PUSH1 0x22 PUSH1 0x4 MSTORE PUSH1 0x24 PUSH1 0x0 REVERT JUMPDEST PUSH32 0x4E487B7100000000000000000000000000000000000000000000000000000000 PUSH1 0x0 MSTORE PUSH1 0x32 PUSH1 0x4 MSTORE PUSH1 0x24 PUSH1 0x0 REVERT JUMPDEST PUSH32 0x4E487B7100000000000000000000000000000000000000000000000000000000 PUSH1 0x0 MSTORE PUSH1 0x41 PUSH1 0x4 MSTORE PUSH1 0x24 PUSH1 0x0 REVERT JUMPDEST PUSH1 0x0 DUP1 REVERT JUMPDEST PUSH1 0x0 DUP1 REVERT JUMPDEST PUSH1 0x0 DUP1 REVERT JUMPDEST PUSH1 0x0 DUP1 REVERT JUMPDEST PUSH1 0x0 PUSH1 0x1F NOT PUSH1 0x1F DUP4 ADD AND SWAP1 POP SWAP2 SWAP1 POP JUMP JUMPDEST PUSH1 0x2 DUP2 LT PUSH2 0xAB5 JUMPI PUSH2 0xAB4 PUSH2 0x9C3 JUMP JUMPDEST JUMPDEST POP JUMP JUMPDEST PUSH1 0x2 DUP2 LT PUSH2 0xAC5 JUMPI PUSH1 0x0 DUP1 REVERT JUMPDEST POP JUMP JUMPDEST PUSH2 0xAD1 DUP2 PUSH2 0x88A JUMP JUMPDEST DUP2 EQ PUSH2 0xADC JUMPI PUSH1 0x0 DUP1 REVERT JUMPDEST POP JUMP INVALID LOG2 PUSH5 0x6970667358 0x22 SLT KECCAK256 ADDMOD 0xCA GASPRICE SDIV 0xE8 0xFB INVALID LOG1 BYTE DELEGATECALL 0xCC SUB DUP13 0xF 0xCA CALLER MUL ISZERO 0xE4 PUSH5 0xBD0390090E SWAP3 LOG4 LOG4 0xE3 MOD 0xFB 0xD6 PUSH5 0x736F6C6343 STOP ADDMOD SMOD STOP CALLER "
				},
				"gasEstimates": {
					"creation": {
						"codeDepositCost": "567400",
						"executionCost": "infinite",
						"totalCost": "infinite"
					},
					"external": {
						"addCustomer(string,uint8,uint256)": "infinite",
						"getCustomer(uint256)": "infinite",
						"updateCustomerInformations(uint256,string)": "infinite"
					}
				},
				"methodIdentifiers": {
					"addCustomer(string,uint8,uint256)": "9b4e051c",
					"getCustomer(uint256)": "eb876f27",
					"updateCustomerInformations(uint256,string)": "0db92a72"
				}
			},
			"storageLayout": {
				"storage": [
					{
						"astId": 7,
						"contract": "contracts/Customer.sol:CustomerContract",
						"label": "numCustomer",
						"offset": 0,
						"slot": "0",
						"type": "t_uint256"
					},
					{
						"astId": 11,
						"contract": "contracts/Customer.sol:CustomerContract",
						"label": "customers",
						"offset": 0,
						"slot": "1",
						"type": "t_array(t_struct(Customer)145_storage)dyn_storage"
					}
				],
				"types": {
					"t_array(t_struct(Customer)145_storage)dyn_storage": {
						"base": "t_struct(Customer)145_storage",
						"encoding": "dynamic_array",
						"label": "struct InsurranceCompanyContract.Customer[]",
						"numberOfBytes": "32"
					},
					"t_enum(insurancePolicy)135": {
						"encoding": "inplace",
						"label": "enum InsurranceCompanyContract.insurancePolicy",
						"numberOfBytes": "1"
					},
					"t_string_storage": {
						"encoding": "bytes",
						"label": "string",
						"numberOfBytes": "32"
					},
					"t_struct(Customer)145_storage": {
						"encoding": "inplace",
						"label": "struct InsurranceCompanyContract.Customer",
						"members": [
							{
								"astId": 137,
								"contract": "contracts/Customer.sol:CustomerContract",
								"label": "id",
								"offset": 0,
								"slot": "0",
								"type": "t_uint256"
							},
							{
								"astId": 139,
								"contract": "contracts/Customer.sol:CustomerContract",
								"label": "name",
								"offset": 0,
								"slot": "1",
								"type": "t_string_storage"
							},
							{
								"astId": 142,
								"contract": "contracts/Customer.sol:CustomerContract",
								"label": "policyType",
								"offset": 0,
								"slot": "2",
								"type": "t_enum(insurancePolicy)135"
							},
							{
								"astId": 144,
								"contract": "contracts/Customer.sol:CustomerContract",
								"label": "validityDate",
								"offset": 0,
								"slot": "3",
								"type": "t_uint256"
							}
						],
						"numberOfBytes": "128"
					},
					"t_uint256": {
						"encoding": "inplace",
						"label": "uint256",
						"numberOfBytes": "32"
					}
				}
			},
			"userdoc": {
				"kind": "user",
				"methods": {},
				"version": 1
			}
		}
	}
}