{
	"contracts/Customer.sol": {
		"CustomerContract": {
			"abi": [
				{
					"inputs": [],
					"stateMutability": "nonpayable",
					"type": "constructor"
				},
				{
					"inputs": [
						{
							"internalType": "string",
							"name": "name",
							"type": "string"
						},
						{
							"internalType": "enum InsuranceCompanyContract.insurancePolicy",
							"name": "policyType",
							"type": "uint8"
						},
						{
							"internalType": "uint256",
							"name": "validityInDays",
							"type": "uint256"
						},
						{
							"internalType": "address",
							"name": "paymentAddress",
							"type": "address"
						}
					],
					"name": "addCustomer",
					"outputs": [],
					"stateMutability": "nonpayable",
					"type": "function"
				},
				{
					"inputs": [
						{
							"internalType": "uint256",
							"name": "customerId",
							"type": "uint256"
						}
					],
					"name": "getCustomer",
					"outputs": [
						{
							"components": [
								{
									"internalType": "uint256",
									"name": "id",
									"type": "uint256"
								},
								{
									"internalType": "string",
									"name": "name",
									"type": "string"
								},
								{
									"internalType": "enum InsuranceCompanyContract.insurancePolicy",
									"name": "policyType",
									"type": "uint8"
								},
								{
									"internalType": "uint256",
									"name": "validityDate",
									"type": "uint256"
								},
								{
									"internalType": "address",
									"name": "paymentAddress",
									"type": "address"
								}
							],
							"internalType": "struct InsuranceCompanyContract.Customer",
							"name": "customer",
							"type": "tuple"
						}
					],
					"stateMutability": "view",
					"type": "function"
				},
				{
					"inputs": [
						{
							"internalType": "uint256",
							"name": "customerId",
							"type": "uint256"
						},
						{
							"internalType": "string",
							"name": "newName",
							"type": "string"
						},
						{
							"internalType": "enum InsuranceCompanyContract.insurancePolicy",
							"name": "newInsurancePolicy",
							"type": "uint8"
						},
						{
							"internalType": "uint256",
							"name": "newValidity",
							"type": "uint256"
						},
						{
							"internalType": "address",
							"name": "newPaymentAddress",
							"type": "address"
						}
					],
					"name": "updateCustomerInformations",
					"outputs": [
						{
							"internalType": "bool",
							"name": "",
							"type": "bool"
						}
					],
					"stateMutability": "nonpayable",
					"type": "function"
				}
			],
			"devdoc": {
				"kind": "dev",
				"methods": {},
				"version": 1
			},
			"evm": {
				"assembly": "    /* \"contracts/Customer.sol\":98:1747  contract CustomerContract is InsuranceCompanyContract {\r... */\n  mstore(0x40, 0x80)\n    /* \"contracts/Customer.sol\":178:179  0 */\n  0x00\n    /* \"contracts/Customer.sol\":159:179  uint numCustomer = 0 */\n  dup1\n  sstore\n    /* \"contracts/Customer.sol\":215:339  constructor(){\r... */\n  callvalue\n  dup1\n  iszero\n  tag_1\n  jumpi\n  0x00\n  dup1\n  revert\ntag_1:\n  pop\n    /* \"contracts/Customer.sol\":239:331  addCustomer(\"Tom\", insurancePolicy.AllRisk, 300, 0x5B38Da6a701c568545dCfcB03FcB875f56beddC4) */\n  tag_4\n  mload(0x40)\n  dup1\n  0x40\n  add\n  0x40\n  mstore\n  dup1\n  0x03\n  dup2\n  mstore\n  0x20\n  add\n  0x546f6d0000000000000000000000000000000000000000000000000000000000\n  dup2\n  mstore\n  pop\n    /* \"contracts/Customer.sol\":258:281  insurancePolicy.AllRisk */\n  0x01\n    /* \"contracts/Customer.sol\":283:286  300 */\n  0x012c\n    /* \"contracts/Customer.sol\":288:330  0x5B38Da6a701c568545dCfcB03FcB875f56beddC4 */\n  0x5b38da6a701c568545dcfcb03fcb875f56beddc4\n    /* \"contracts/Customer.sol\":239:250  addCustomer */\n  shl(0x20, tag_5)\n    /* \"contracts/Customer.sol\":239:331  addCustomer(\"Tom\", insurancePolicy.AllRisk, 300, 0x5B38Da6a701c568545dCfcB03FcB875f56beddC4) */\n  0x20\n  shr\n  jump\t// in\ntag_4:\n    /* \"contracts/Customer.sol\":98:1747  contract CustomerContract is InsuranceCompanyContract {\r... */\n  jump(tag_6)\n    /* \"contracts/Customer.sol\":347:754  function addCustomer(string memory name, insurancePolicy policyType, uint validityInDays, address paymentAddress) public {\r... */\ntag_5:\n    /* \"contracts/Customer.sol\":479:490  numCustomer */\n  0x00\n  dup1\n    /* \"contracts/Customer.sol\":479:492  numCustomer++ */\n  dup2\n  sload\n  dup1\n  swap3\n  swap2\n  swap1\n  tag_8\n  swap1\n  tag_9\n  jump\t// in\ntag_8:\n  swap2\n  swap1\n  pop\n  sstore\n  pop\n    /* \"contracts/Customer.sol\":503:512  customers */\n  0x01\n    /* \"contracts/Customer.sol\":532:735  Customer(\r... */\n  mload(0x40)\n  dup1\n  0xa0\n  add\n  0x40\n  mstore\n  dup1\n    /* \"contracts/Customer.sol\":559:570  numCustomer */\n  sload(0x00)\n    /* \"contracts/Customer.sol\":532:735  Customer(\r... */\n  dup2\n  mstore\n  0x20\n  add\n    /* \"contracts/Customer.sol\":590:594  name */\n  dup7\n    /* \"contracts/Customer.sol\":532:735  Customer(\r... */\n  dup2\n  mstore\n  0x20\n  add\n    /* \"contracts/Customer.sol\":614:624  policyType */\n  dup6\n    /* \"contracts/Customer.sol\":532:735  Customer(\r... */\n  0x01\n  dup2\n  gt\n  iszero\n  tag_10\n  jumpi\n  tag_11\n  tag_12\n  jump\t// in\ntag_11:\ntag_10:\n  dup2\n  mstore\n  0x20\n  add\n    /* \"contracts/Customer.sol\":680:686  1 days */\n  0x015180\n    /* \"contracts/Customer.sol\":663:677  validityInDays */\n  dup6\n    /* \"contracts/Customer.sol\":663:686  validityInDays * 1 days */\n  tag_13\n  swap2\n  swap1\n  tag_14\n  jump\t// in\ntag_13:\n    /* \"contracts/Customer.sol\":644:659  block.timestamp */\n  timestamp\n    /* \"contracts/Customer.sol\":644:687  block.timestamp + (validityInDays * 1 days) */\n  tag_15\n  swap2\n  swap1\n  tag_16\n  jump\t// in\ntag_15:\n    /* \"contracts/Customer.sol\":532:735  Customer(\r... */\n  dup2\n  mstore\n  0x20\n  add\n    /* \"contracts/Customer.sol\":706:720  paymentAddress */\n  dup4\n    /* \"contracts/Customer.sol\":532:735  Customer(\r... */\n  0xffffffffffffffffffffffffffffffffffffffff\n  and\n  dup2\n  mstore\n  pop\n    /* \"contracts/Customer.sol\":503:746  customers.push(\r... */\n  swap1\n  dup1\n  0x01\n  dup2\n  sload\n  add\n  dup1\n  dup3\n  sstore\n  dup1\n  swap2\n  pop\n  pop\n  0x01\n  swap1\n  sub\n  swap1\n  0x00\n  mstore\n  keccak256(0x00, 0x20)\n  swap1\n  0x05\n  mul\n  add\n  0x00\n  swap1\n  swap2\n  swap1\n  swap2\n  swap1\n  swap2\n  pop\n  0x00\n  dup3\n  add\n  mload\n  dup2\n  0x00\n  add\n  sstore\n  0x20\n  dup3\n  add\n  mload\n  dup2\n  0x01\n  add\n  swap1\n  dup1\n  mload\n  swap1\n  0x20\n  add\n  swap1\n  tag_18\n  swap3\n  swap2\n  swap1\n  tag_19\n  jump\t// in\ntag_18:\n  pop\n  0x40\n  dup3\n  add\n  mload\n  dup2\n  0x02\n  add\n  exp(0x0100, 0x00)\n  dup2\n  sload\n  dup2\n  0xff\n  mul\n  not\n  and\n  swap1\n  dup4\n  0x01\n  dup2\n  gt\n  iszero\n  tag_20\n  jumpi\n  tag_21\n  tag_12\n  jump\t// in\ntag_21:\ntag_20:\n  mul\n  or\n  swap1\n  sstore\n  pop\n  0x60\n  dup3\n  add\n  mload\n  dup2\n  0x03\n  add\n  sstore\n  0x80\n  dup3\n  add\n  mload\n  dup2\n  0x04\n  add\n  exp(0x0100, 0x00)\n  dup2\n  sload\n  dup2\n  0xffffffffffffffffffffffffffffffffffffffff\n  mul\n  not\n  and\n  swap1\n  dup4\n  0xffffffffffffffffffffffffffffffffffffffff\n  and\n  mul\n  or\n  swap1\n  sstore\n  pop\n  pop\n  pop\n    /* \"contracts/Customer.sol\":347:754  function addCustomer(string memory name, insurancePolicy policyType, uint validityInDays, address paymentAddress) public {\r... */\n  pop\n  pop\n  pop\n  pop\n  jump\t// out\n    /* \"contracts/Customer.sol\":98:1747  contract CustomerContract is InsuranceCompanyContract {\r... */\ntag_19:\n  dup3\n  dup1\n  sload\n  tag_22\n  swap1\n  tag_23\n  jump\t// in\ntag_22:\n  swap1\n  0x00\n  mstore\n  keccak256(0x00, 0x20)\n  swap1\n  0x1f\n  add\n  0x20\n  swap1\n  div\n  dup2\n  add\n  swap3\n  dup3\n  tag_25\n  jumpi\n  0x00\n  dup6\n  sstore\n  jump(tag_24)\ntag_25:\n  dup3\n  0x1f\n  lt\n  tag_26\n  jumpi\n  dup1\n  mload\n  not(0xff)\n  and\n  dup4\n  dup1\n  add\n  or\n  dup6\n  sstore\n  jump(tag_24)\ntag_26:\n  dup3\n  dup1\n  add\n  0x01\n  add\n  dup6\n  sstore\n  dup3\n  iszero\n  tag_24\n  jumpi\n  swap2\n  dup3\n  add\ntag_27:\n  dup3\n  dup2\n  gt\n  iszero\n  tag_28\n  jumpi\n  dup3\n  mload\n  dup3\n  sstore\n  swap2\n  0x20\n  add\n  swap2\n  swap1\n  0x01\n  add\n  swap1\n  jump(tag_27)\ntag_28:\ntag_24:\n  pop\n  swap1\n  pop\n  tag_29\n  swap2\n  swap1\n  tag_30\n  jump\t// in\ntag_29:\n  pop\n  swap1\n  jump\t// out\ntag_30:\ntag_31:\n  dup1\n  dup3\n  gt\n  iszero\n  tag_32\n  jumpi\n  0x00\n  dup2\n  0x00\n  swap1\n  sstore\n  pop\n  0x01\n  add\n  jump(tag_31)\ntag_32:\n  pop\n  swap1\n  jump\t// out\n    /* \"#utility.yul\":7:312   */\ntag_16:\n    /* \"#utility.yul\":47:50   */\n  0x00\n    /* \"#utility.yul\":66:86   */\n  tag_35\n    /* \"#utility.yul\":84:85   */\n  dup3\n    /* \"#utility.yul\":66:86   */\n  tag_36\n  jump\t// in\ntag_35:\n    /* \"#utility.yul\":61:86   */\n  swap2\n  pop\n    /* \"#utility.yul\":100:120   */\n  tag_37\n    /* \"#utility.yul\":118:119   */\n  dup4\n    /* \"#utility.yul\":100:120   */\n  tag_36\n  jump\t// in\ntag_37:\n    /* \"#utility.yul\":95:120   */\n  swap3\n  pop\n    /* \"#utility.yul\":254:255   */\n  dup3\n    /* \"#utility.yul\":186:252   */\n  0xffffffffffffffffffffffffffffffffffffffffffffffffffffffffffffffff\n    /* \"#utility.yul\":182:256   */\n  sub\n    /* \"#utility.yul\":179:180   */\n  dup3\n    /* \"#utility.yul\":176:257   */\n  gt\n    /* \"#utility.yul\":173:280   */\n  iszero\n  tag_38\n  jumpi\n    /* \"#utility.yul\":260:278   */\n  tag_39\n  tag_40\n  jump\t// in\ntag_39:\n    /* \"#utility.yul\":173:280   */\ntag_38:\n    /* \"#utility.yul\":304:305   */\n  dup3\n    /* \"#utility.yul\":301:302   */\n  dup3\n    /* \"#utility.yul\":297:306   */\n  add\n    /* \"#utility.yul\":290:306   */\n  swap1\n  pop\n    /* \"#utility.yul\":7:312   */\n  swap3\n  swap2\n  pop\n  pop\n  jump\t// out\n    /* \"#utility.yul\":318:666   */\ntag_14:\n    /* \"#utility.yul\":358:365   */\n  0x00\n    /* \"#utility.yul\":381:401   */\n  tag_42\n    /* \"#utility.yul\":399:400   */\n  dup3\n    /* \"#utility.yul\":381:401   */\n  tag_36\n  jump\t// in\ntag_42:\n    /* \"#utility.yul\":376:401   */\n  swap2\n  pop\n    /* \"#utility.yul\":415:435   */\n  tag_43\n    /* \"#utility.yul\":433:434   */\n  dup4\n    /* \"#utility.yul\":415:435   */\n  tag_36\n  jump\t// in\ntag_43:\n    /* \"#utility.yul\":410:435   */\n  swap3\n  pop\n    /* \"#utility.yul\":603:604   */\n  dup2\n    /* \"#utility.yul\":535:601   */\n  0xffffffffffffffffffffffffffffffffffffffffffffffffffffffffffffffff\n    /* \"#utility.yul\":531:605   */\n  div\n    /* \"#utility.yul\":528:529   */\n  dup4\n    /* \"#utility.yul\":525:606   */\n  gt\n    /* \"#utility.yul\":520:521   */\n  dup3\n    /* \"#utility.yul\":513:522   */\n  iszero\n    /* \"#utility.yul\":506:523   */\n  iszero\n    /* \"#utility.yul\":502:607   */\n  and\n    /* \"#utility.yul\":499:630   */\n  iszero\n  tag_44\n  jumpi\n    /* \"#utility.yul\":610:628   */\n  tag_45\n  tag_40\n  jump\t// in\ntag_45:\n    /* \"#utility.yul\":499:630   */\ntag_44:\n    /* \"#utility.yul\":658:659   */\n  dup3\n    /* \"#utility.yul\":655:656   */\n  dup3\n    /* \"#utility.yul\":651:660   */\n  mul\n    /* \"#utility.yul\":640:660   */\n  swap1\n  pop\n    /* \"#utility.yul\":318:666   */\n  swap3\n  swap2\n  pop\n  pop\n  jump\t// out\n    /* \"#utility.yul\":672:749   */\ntag_36:\n    /* \"#utility.yul\":709:716   */\n  0x00\n    /* \"#utility.yul\":738:743   */\n  dup2\n    /* \"#utility.yul\":727:743   */\n  swap1\n  pop\n    /* \"#utility.yul\":672:749   */\n  swap2\n  swap1\n  pop\n  jump\t// out\n    /* \"#utility.yul\":755:1075   */\ntag_23:\n    /* \"#utility.yul\":799:805   */\n  0x00\n    /* \"#utility.yul\":836:837   */\n  0x02\n    /* \"#utility.yul\":830:834   */\n  dup3\n    /* \"#utility.yul\":826:838   */\n  div\n    /* \"#utility.yul\":816:838   */\n  swap1\n  pop\n    /* \"#utility.yul\":883:884   */\n  0x01\n    /* \"#utility.yul\":877:881   */\n  dup3\n    /* \"#utility.yul\":873:885   */\n  and\n    /* \"#utility.yul\":904:922   */\n  dup1\n    /* \"#utility.yul\":894:975   */\n  tag_48\n  jumpi\n    /* \"#utility.yul\":960:964   */\n  0x7f\n    /* \"#utility.yul\":952:958   */\n  dup3\n    /* \"#utility.yul\":948:965   */\n  and\n    /* \"#utility.yul\":938:965   */\n  swap2\n  pop\n    /* \"#utility.yul\":894:975   */\ntag_48:\n    /* \"#utility.yul\":1022:1024   */\n  0x20\n    /* \"#utility.yul\":1014:1020   */\n  dup3\n    /* \"#utility.yul\":1011:1025   */\n  lt\n    /* \"#utility.yul\":991:1009   */\n  dup2\n    /* \"#utility.yul\":988:1026   */\n  eq\n    /* \"#utility.yul\":985:1069   */\n  iszero\n  tag_49\n  jumpi\n    /* \"#utility.yul\":1041:1059   */\n  tag_50\n  tag_51\n  jump\t// in\ntag_50:\n    /* \"#utility.yul\":985:1069   */\ntag_49:\n    /* \"#utility.yul\":806:1075   */\n  pop\n    /* \"#utility.yul\":755:1075   */\n  swap2\n  swap1\n  pop\n  jump\t// out\n    /* \"#utility.yul\":1081:1314   */\ntag_9:\n    /* \"#utility.yul\":1120:1123   */\n  0x00\n    /* \"#utility.yul\":1143:1167   */\n  tag_53\n    /* \"#utility.yul\":1161:1166   */\n  dup3\n    /* \"#utility.yul\":1143:1167   */\n  tag_36\n  jump\t// in\ntag_53:\n    /* \"#utility.yul\":1134:1167   */\n  swap2\n  pop\n    /* \"#utility.yul\":1189:1255   */\n  0xffffffffffffffffffffffffffffffffffffffffffffffffffffffffffffffff\n    /* \"#utility.yul\":1182:1187   */\n  dup3\n    /* \"#utility.yul\":1179:1256   */\n  eq\n    /* \"#utility.yul\":1176:1279   */\n  iszero\n  tag_54\n  jumpi\n    /* \"#utility.yul\":1259:1277   */\n  tag_55\n  tag_40\n  jump\t// in\ntag_55:\n    /* \"#utility.yul\":1176:1279   */\ntag_54:\n    /* \"#utility.yul\":1306:1307   */\n  0x01\n    /* \"#utility.yul\":1299:1304   */\n  dup3\n    /* \"#utility.yul\":1295:1308   */\n  add\n    /* \"#utility.yul\":1288:1308   */\n  swap1\n  pop\n    /* \"#utility.yul\":1081:1314   */\n  swap2\n  swap1\n  pop\n  jump\t// out\n    /* \"#utility.yul\":1320:1500   */\ntag_40:\n    /* \"#utility.yul\":1368:1445   */\n  0x4e487b7100000000000000000000000000000000000000000000000000000000\n    /* \"#utility.yul\":1365:1366   */\n  0x00\n    /* \"#utility.yul\":1358:1446   */\n  mstore\n    /* \"#utility.yul\":1465:1469   */\n  0x11\n    /* \"#utility.yul\":1462:1463   */\n  0x04\n    /* \"#utility.yul\":1455:1470   */\n  mstore\n    /* \"#utility.yul\":1489:1493   */\n  0x24\n    /* \"#utility.yul\":1486:1487   */\n  0x00\n    /* \"#utility.yul\":1479:1494   */\n  revert\n    /* \"#utility.yul\":1506:1686   */\ntag_12:\n    /* \"#utility.yul\":1554:1631   */\n  0x4e487b7100000000000000000000000000000000000000000000000000000000\n    /* \"#utility.yul\":1551:1552   */\n  0x00\n    /* \"#utility.yul\":1544:1632   */\n  mstore\n    /* \"#utility.yul\":1651:1655   */\n  0x21\n    /* \"#utility.yul\":1648:1649   */\n  0x04\n    /* \"#utility.yul\":1641:1656   */\n  mstore\n    /* \"#utility.yul\":1675:1679   */\n  0x24\n    /* \"#utility.yul\":1672:1673   */\n  0x00\n    /* \"#utility.yul\":1665:1680   */\n  revert\n    /* \"#utility.yul\":1692:1872   */\ntag_51:\n    /* \"#utility.yul\":1740:1817   */\n  0x4e487b7100000000000000000000000000000000000000000000000000000000\n    /* \"#utility.yul\":1737:1738   */\n  0x00\n    /* \"#utility.yul\":1730:1818   */\n  mstore\n    /* \"#utility.yul\":1837:1841   */\n  0x22\n    /* \"#utility.yul\":1834:1835   */\n  0x04\n    /* \"#utility.yul\":1827:1842   */\n  mstore\n    /* \"#utility.yul\":1861:1865   */\n  0x24\n    /* \"#utility.yul\":1858:1859   */\n  0x00\n    /* \"#utility.yul\":1851:1866   */\n  revert\n    /* \"contracts/Customer.sol\":98:1747  contract CustomerContract is InsuranceCompanyContract {\r... */\ntag_6:\n  dataSize(sub_0)\n  dup1\n  dataOffset(sub_0)\n  0x00\n  codecopy\n  0x00\n  return\nstop\n\nsub_0: assembly {\n        /* \"contracts/Customer.sol\":98:1747  contract CustomerContract is InsuranceCompanyContract {\r... */\n      mstore(0x40, 0x80)\n      callvalue\n      dup1\n      iszero\n      tag_1\n      jumpi\n      0x00\n      dup1\n      revert\n    tag_1:\n      pop\n      jumpi(tag_2, lt(calldatasize, 0x04))\n      shr(0xe0, calldataload(0x00))\n      dup1\n      0x196502c9\n      eq\n      tag_3\n      jumpi\n      dup1\n      0xcee2c181\n      eq\n      tag_4\n      jumpi\n      dup1\n      0xeb876f27\n      eq\n      tag_5\n      jumpi\n    tag_2:\n      0x00\n      dup1\n      revert\n        /* \"contracts/Customer.sol\":1113:1744  function updateCustomerInformations(uint customerId, string memory newName, insurancePolicy newInsurancePolicy, uint newValidity, address newPaymentAddress) public returns (bool) {\r... */\n    tag_3:\n      tag_6\n      0x04\n      dup1\n      calldatasize\n      sub\n      dup2\n      add\n      swap1\n      tag_7\n      swap2\n      swap1\n      tag_8\n      jump\t// in\n    tag_7:\n      tag_9\n      jump\t// in\n    tag_6:\n      mload(0x40)\n      tag_10\n      swap2\n      swap1\n      tag_11\n      jump\t// in\n    tag_10:\n      mload(0x40)\n      dup1\n      swap2\n      sub\n      swap1\n      return\n        /* \"contracts/Customer.sol\":347:754  function addCustomer(string memory name, insurancePolicy policyType, uint validityInDays, address paymentAddress) public {\r... */\n    tag_4:\n      tag_12\n      0x04\n      dup1\n      calldatasize\n      sub\n      dup2\n      add\n      swap1\n      tag_13\n      swap2\n      swap1\n      tag_14\n      jump\t// in\n    tag_13:\n      tag_15\n      jump\t// in\n    tag_12:\n      stop\n        /* \"contracts/Customer.sol\":762:1105  function getCustomer(uint customerId) public view returns (Customer memory customer){\r... */\n    tag_5:\n      tag_16\n      0x04\n      dup1\n      calldatasize\n      sub\n      dup2\n      add\n      swap1\n      tag_17\n      swap2\n      swap1\n      tag_18\n      jump\t// in\n    tag_17:\n      tag_19\n      jump\t// in\n    tag_16:\n      mload(0x40)\n      tag_20\n      swap2\n      swap1\n      tag_21\n      jump\t// in\n    tag_20:\n      mload(0x40)\n      dup1\n      swap2\n      sub\n      swap1\n      return\n        /* \"contracts/Customer.sol\":1113:1744  function updateCustomerInformations(uint customerId, string memory newName, insurancePolicy newInsurancePolicy, uint newValidity, address newPaymentAddress) public returns (bool) {\r... */\n    tag_9:\n        /* \"contracts/Customer.sol\":1286:1290  bool */\n      0x00\n        /* \"contracts/Customer.sol\":1307:1313  uint i */\n      dup1\n        /* \"contracts/Customer.sol\":1316:1317  0 */\n      0x00\n        /* \"contracts/Customer.sol\":1307:1317  uint i = 0 */\n      swap1\n      pop\n        /* \"contracts/Customer.sol\":1303:1714  for(uint i = 0; i < customers.length; i++) {\r... */\n    tag_23:\n        /* \"contracts/Customer.sol\":1323:1332  customers */\n      0x01\n        /* \"contracts/Customer.sol\":1323:1339  customers.length */\n      dup1\n      sload\n      swap1\n      pop\n        /* \"contracts/Customer.sol\":1319:1320  i */\n      dup2\n        /* \"contracts/Customer.sol\":1319:1339  i < customers.length */\n      lt\n        /* \"contracts/Customer.sol\":1303:1714  for(uint i = 0; i < customers.length; i++) {\r... */\n      iszero\n      tag_24\n      jumpi\n        /* \"contracts/Customer.sol\":1383:1393  customerId */\n      dup7\n        /* \"contracts/Customer.sol\":1364:1373  customers */\n      0x01\n        /* \"contracts/Customer.sol\":1374:1375  i */\n      dup3\n        /* \"contracts/Customer.sol\":1364:1376  customers[i] */\n      dup2\n      sload\n      dup2\n      lt\n      tag_26\n      jumpi\n      tag_27\n      tag_28\n      jump\t// in\n    tag_27:\n    tag_26:\n      swap1\n      0x00\n      mstore\n      keccak256(0x00, 0x20)\n      swap1\n      0x05\n      mul\n      add\n        /* \"contracts/Customer.sol\":1364:1379  customers[i].id */\n      0x00\n      add\n      sload\n        /* \"contracts/Customer.sol\":1364:1393  customers[i].id == customerId */\n      eq\n        /* \"contracts/Customer.sol\":1361:1703  if(customers[i].id == customerId) {\r... */\n      iszero\n      tag_30\n      jumpi\n        /* \"contracts/Customer.sol\":1434:1441  newName */\n      dup6\n        /* \"contracts/Customer.sol\":1414:1423  customers */\n      0x01\n        /* \"contracts/Customer.sol\":1424:1425  i */\n      dup3\n        /* \"contracts/Customer.sol\":1414:1426  customers[i] */\n      dup2\n      sload\n      dup2\n      lt\n      tag_31\n      jumpi\n      tag_32\n      tag_28\n      jump\t// in\n    tag_32:\n    tag_31:\n      swap1\n      0x00\n      mstore\n      keccak256(0x00, 0x20)\n      swap1\n      0x05\n      mul\n      add\n        /* \"contracts/Customer.sol\":1414:1431  customers[i].name */\n      0x01\n      add\n        /* \"contracts/Customer.sol\":1414:1441  customers[i].name = newName */\n      swap1\n      dup1\n      mload\n      swap1\n      0x20\n      add\n      swap1\n      tag_34\n      swap3\n      swap2\n      swap1\n      tag_35\n      jump\t// in\n    tag_34:\n      pop\n        /* \"contracts/Customer.sol\":1486:1504  newInsurancePolicy */\n      dup5\n        /* \"contracts/Customer.sol\":1460:1469  customers */\n      0x01\n        /* \"contracts/Customer.sol\":1470:1471  i */\n      dup3\n        /* \"contracts/Customer.sol\":1460:1472  customers[i] */\n      dup2\n      sload\n      dup2\n      lt\n      tag_36\n      jumpi\n      tag_37\n      tag_28\n      jump\t// in\n    tag_37:\n    tag_36:\n      swap1\n      0x00\n      mstore\n      keccak256(0x00, 0x20)\n      swap1\n      0x05\n      mul\n      add\n        /* \"contracts/Customer.sol\":1460:1483  customers[i].policyType */\n      0x02\n      add\n      0x00\n        /* \"contracts/Customer.sol\":1460:1504  customers[i].policyType = newInsurancePolicy */\n      0x0100\n      exp\n      dup2\n      sload\n      dup2\n      0xff\n      mul\n      not\n      and\n      swap1\n      dup4\n      0x01\n      dup2\n      gt\n      iszero\n      tag_39\n      jumpi\n      tag_40\n      tag_41\n      jump\t// in\n    tag_40:\n    tag_39:\n      mul\n      or\n      swap1\n      sstore\n      pop\n        /* \"contracts/Customer.sol\":1584:1590  1 days */\n      0x015180\n        /* \"contracts/Customer.sol\":1570:1581  newValidity */\n      dup5\n        /* \"contracts/Customer.sol\":1570:1590  newValidity * 1 days */\n      tag_42\n      swap2\n      swap1\n      tag_43\n      jump\t// in\n    tag_42:\n        /* \"contracts/Customer.sol\":1551:1566  block.timestamp */\n      timestamp\n        /* \"contracts/Customer.sol\":1551:1591  block.timestamp + (newValidity * 1 days) */\n      tag_44\n      swap2\n      swap1\n      tag_45\n      jump\t// in\n    tag_44:\n        /* \"contracts/Customer.sol\":1523:1532  customers */\n      0x01\n        /* \"contracts/Customer.sol\":1533:1534  i */\n      dup3\n        /* \"contracts/Customer.sol\":1523:1535  customers[i] */\n      dup2\n      sload\n      dup2\n      lt\n      tag_46\n      jumpi\n      tag_47\n      tag_28\n      jump\t// in\n    tag_47:\n    tag_46:\n      swap1\n      0x00\n      mstore\n      keccak256(0x00, 0x20)\n      swap1\n      0x05\n      mul\n      add\n        /* \"contracts/Customer.sol\":1523:1548  customers[i].validityDate */\n      0x03\n      add\n        /* \"contracts/Customer.sol\":1523:1591  customers[i].validityDate = block.timestamp + (newValidity * 1 days) */\n      dup2\n      swap1\n      sstore\n      pop\n        /* \"contracts/Customer.sol\":1640:1657  newPaymentAddress */\n      dup3\n        /* \"contracts/Customer.sol\":1610:1619  customers */\n      0x01\n        /* \"contracts/Customer.sol\":1620:1621  i */\n      dup3\n        /* \"contracts/Customer.sol\":1610:1622  customers[i] */\n      dup2\n      sload\n      dup2\n      lt\n      tag_49\n      jumpi\n      tag_50\n      tag_28\n      jump\t// in\n    tag_50:\n    tag_49:\n      swap1\n      0x00\n      mstore\n      keccak256(0x00, 0x20)\n      swap1\n      0x05\n      mul\n      add\n        /* \"contracts/Customer.sol\":1610:1637  customers[i].paymentAddress */\n      0x04\n      add\n      0x00\n        /* \"contracts/Customer.sol\":1610:1657  customers[i].paymentAddress = newPaymentAddress */\n      0x0100\n      exp\n      dup2\n      sload\n      dup2\n      0xffffffffffffffffffffffffffffffffffffffff\n      mul\n      not\n      and\n      swap1\n      dup4\n      0xffffffffffffffffffffffffffffffffffffffff\n      and\n      mul\n      or\n      swap1\n      sstore\n      pop\n        /* \"contracts/Customer.sol\":1683:1687  true */\n      0x01\n        /* \"contracts/Customer.sol\":1676:1687  return true */\n      swap2\n      pop\n      pop\n      jump(tag_22)\n        /* \"contracts/Customer.sol\":1361:1703  if(customers[i].id == customerId) {\r... */\n    tag_30:\n        /* \"contracts/Customer.sol\":1341:1344  i++ */\n      dup1\n      dup1\n      tag_52\n      swap1\n      tag_53\n      jump\t// in\n    tag_52:\n      swap2\n      pop\n      pop\n        /* \"contracts/Customer.sol\":1303:1714  for(uint i = 0; i < customers.length; i++) {\r... */\n      jump(tag_23)\n    tag_24:\n      pop\n        /* \"contracts/Customer.sol\":1731:1736  false */\n      0x00\n        /* \"contracts/Customer.sol\":1724:1736  return false */\n      swap1\n      pop\n        /* \"contracts/Customer.sol\":1113:1744  function updateCustomerInformations(uint customerId, string memory newName, insurancePolicy newInsurancePolicy, uint newValidity, address newPaymentAddress) public returns (bool) {\r... */\n    tag_22:\n      swap6\n      swap5\n      pop\n      pop\n      pop\n      pop\n      pop\n      jump\t// out\n        /* \"contracts/Customer.sol\":347:754  function addCustomer(string memory name, insurancePolicy policyType, uint validityInDays, address paymentAddress) public {\r... */\n    tag_15:\n        /* \"contracts/Customer.sol\":479:490  numCustomer */\n      0x00\n      dup1\n        /* \"contracts/Customer.sol\":479:492  numCustomer++ */\n      dup2\n      sload\n      dup1\n      swap3\n      swap2\n      swap1\n      tag_55\n      swap1\n      tag_53\n      jump\t// in\n    tag_55:\n      swap2\n      swap1\n      pop\n      sstore\n      pop\n        /* \"contracts/Customer.sol\":503:512  customers */\n      0x01\n        /* \"contracts/Customer.sol\":532:735  Customer(\r... */\n      mload(0x40)\n      dup1\n      0xa0\n      add\n      0x40\n      mstore\n      dup1\n        /* \"contracts/Customer.sol\":559:570  numCustomer */\n      sload(0x00)\n        /* \"contracts/Customer.sol\":532:735  Customer(\r... */\n      dup2\n      mstore\n      0x20\n      add\n        /* \"contracts/Customer.sol\":590:594  name */\n      dup7\n        /* \"contracts/Customer.sol\":532:735  Customer(\r... */\n      dup2\n      mstore\n      0x20\n      add\n        /* \"contracts/Customer.sol\":614:624  policyType */\n      dup6\n        /* \"contracts/Customer.sol\":532:735  Customer(\r... */\n      0x01\n      dup2\n      gt\n      iszero\n      tag_56\n      jumpi\n      tag_57\n      tag_41\n      jump\t// in\n    tag_57:\n    tag_56:\n      dup2\n      mstore\n      0x20\n      add\n        /* \"contracts/Customer.sol\":680:686  1 days */\n      0x015180\n        /* \"contracts/Customer.sol\":663:677  validityInDays */\n      dup6\n        /* \"contracts/Customer.sol\":663:686  validityInDays * 1 days */\n      tag_58\n      swap2\n      swap1\n      tag_43\n      jump\t// in\n    tag_58:\n        /* \"contracts/Customer.sol\":644:659  block.timestamp */\n      timestamp\n        /* \"contracts/Customer.sol\":644:687  block.timestamp + (validityInDays * 1 days) */\n      tag_59\n      swap2\n      swap1\n      tag_45\n      jump\t// in\n    tag_59:\n        /* \"contracts/Customer.sol\":532:735  Customer(\r... */\n      dup2\n      mstore\n      0x20\n      add\n        /* \"contracts/Customer.sol\":706:720  paymentAddress */\n      dup4\n        /* \"contracts/Customer.sol\":532:735  Customer(\r... */\n      0xffffffffffffffffffffffffffffffffffffffff\n      and\n      dup2\n      mstore\n      pop\n        /* \"contracts/Customer.sol\":503:746  customers.push(\r... */\n      swap1\n      dup1\n      0x01\n      dup2\n      sload\n      add\n      dup1\n      dup3\n      sstore\n      dup1\n      swap2\n      pop\n      pop\n      0x01\n      swap1\n      sub\n      swap1\n      0x00\n      mstore\n      keccak256(0x00, 0x20)\n      swap1\n      0x05\n      mul\n      add\n      0x00\n      swap1\n      swap2\n      swap1\n      swap2\n      swap1\n      swap2\n      pop\n      0x00\n      dup3\n      add\n      mload\n      dup2\n      0x00\n      add\n      sstore\n      0x20\n      dup3\n      add\n      mload\n      dup2\n      0x01\n      add\n      swap1\n      dup1\n      mload\n      swap1\n      0x20\n      add\n      swap1\n      tag_61\n      swap3\n      swap2\n      swap1\n      tag_35\n      jump\t// in\n    tag_61:\n      pop\n      0x40\n      dup3\n      add\n      mload\n      dup2\n      0x02\n      add\n      exp(0x0100, 0x00)\n      dup2\n      sload\n      dup2\n      0xff\n      mul\n      not\n      and\n      swap1\n      dup4\n      0x01\n      dup2\n      gt\n      iszero\n      tag_62\n      jumpi\n      tag_63\n      tag_41\n      jump\t// in\n    tag_63:\n    tag_62:\n      mul\n      or\n      swap1\n      sstore\n      pop\n      0x60\n      dup3\n      add\n      mload\n      dup2\n      0x03\n      add\n      sstore\n      0x80\n      dup3\n      add\n      mload\n      dup2\n      0x04\n      add\n      exp(0x0100, 0x00)\n      dup2\n      sload\n      dup2\n      0xffffffffffffffffffffffffffffffffffffffff\n      mul\n      not\n      and\n      swap1\n      dup4\n      0xffffffffffffffffffffffffffffffffffffffff\n      and\n      mul\n      or\n      swap1\n      sstore\n      pop\n      pop\n      pop\n        /* \"contracts/Customer.sol\":347:754  function addCustomer(string memory name, insurancePolicy policyType, uint validityInDays, address paymentAddress) public {\r... */\n      pop\n      pop\n      pop\n      pop\n      jump\t// out\n        /* \"contracts/Customer.sol\":762:1105  function getCustomer(uint customerId) public view returns (Customer memory customer){\r... */\n    tag_19:\n        /* \"contracts/Customer.sol\":821:845  Customer memory customer */\n      tag_64\n      tag_65\n      jump\t// in\n    tag_64:\n        /* \"contracts/Customer.sol\":947:953  uint i */\n      0x00\n        /* \"contracts/Customer.sol\":942:1098  for (uint i = 0; i < customers.length; i++){\r... */\n    tag_67:\n        /* \"contracts/Customer.sol\":963:972  customers */\n      0x01\n        /* \"contracts/Customer.sol\":963:979  customers.length */\n      dup1\n      sload\n      swap1\n      pop\n        /* \"contracts/Customer.sol\":959:960  i */\n      dup2\n        /* \"contracts/Customer.sol\":959:979  i < customers.length */\n      lt\n        /* \"contracts/Customer.sol\":942:1098  for (uint i = 0; i < customers.length; i++){\r... */\n      iszero\n      tag_68\n      jumpi\n        /* \"contracts/Customer.sol\":1022:1032  customerId */\n      dup3\n        /* \"contracts/Customer.sol\":1003:1012  customers */\n      0x01\n        /* \"contracts/Customer.sol\":1013:1014  i */\n      dup3\n        /* \"contracts/Customer.sol\":1003:1015  customers[i] */\n      dup2\n      sload\n      dup2\n      lt\n      tag_70\n      jumpi\n      tag_71\n      tag_28\n      jump\t// in\n    tag_71:\n    tag_70:\n      swap1\n      0x00\n      mstore\n      keccak256(0x00, 0x20)\n      swap1\n      0x05\n      mul\n      add\n        /* \"contracts/Customer.sol\":1003:1018  customers[i].id */\n      0x00\n      add\n      sload\n        /* \"contracts/Customer.sol\":1003:1032  customers[i].id == customerId */\n      eq\n        /* \"contracts/Customer.sol\":1000:1087  if(customers[i].id == customerId){\r... */\n      iszero\n      tag_73\n      jumpi\n        /* \"contracts/Customer.sol\":1059:1068  customers */\n      0x01\n        /* \"contracts/Customer.sol\":1069:1070  i */\n      dup2\n        /* \"contracts/Customer.sol\":1059:1071  customers[i] */\n      dup2\n      sload\n      dup2\n      lt\n      tag_74\n      jumpi\n      tag_75\n      tag_28\n      jump\t// in\n    tag_75:\n    tag_74:\n      swap1\n      0x00\n      mstore\n      keccak256(0x00, 0x20)\n      swap1\n      0x05\n      mul\n      add\n        /* \"contracts/Customer.sol\":1052:1071  return customers[i] */\n      mload(0x40)\n      dup1\n      0xa0\n      add\n      0x40\n      mstore\n      swap1\n      dup2\n      0x00\n      dup3\n      add\n      sload\n      dup2\n      mstore\n      0x20\n      add\n      0x01\n      dup3\n      add\n      dup1\n      sload\n      tag_77\n      swap1\n      tag_78\n      jump\t// in\n    tag_77:\n      dup1\n      0x1f\n      add\n      0x20\n      dup1\n      swap2\n      div\n      mul\n      0x20\n      add\n      mload(0x40)\n      swap1\n      dup2\n      add\n      0x40\n      mstore\n      dup1\n      swap3\n      swap2\n      swap1\n      dup2\n      dup2\n      mstore\n      0x20\n      add\n      dup3\n      dup1\n      sload\n      tag_79\n      swap1\n      tag_78\n      jump\t// in\n    tag_79:\n      dup1\n      iszero\n      tag_80\n      jumpi\n      dup1\n      0x1f\n      lt\n      tag_81\n      jumpi\n      0x0100\n      dup1\n      dup4\n      sload\n      div\n      mul\n      dup4\n      mstore\n      swap2\n      0x20\n      add\n      swap2\n      jump(tag_80)\n    tag_81:\n      dup3\n      add\n      swap2\n      swap1\n      0x00\n      mstore\n      keccak256(0x00, 0x20)\n      swap1\n    tag_82:\n      dup2\n      sload\n      dup2\n      mstore\n      swap1\n      0x01\n      add\n      swap1\n      0x20\n      add\n      dup1\n      dup4\n      gt\n      tag_82\n      jumpi\n      dup3\n      swap1\n      sub\n      0x1f\n      and\n      dup3\n      add\n      swap2\n    tag_80:\n      pop\n      pop\n      pop\n      pop\n      pop\n      dup2\n      mstore\n      0x20\n      add\n      0x02\n      dup3\n      add\n      0x00\n      swap1\n      sload\n      swap1\n      0x0100\n      exp\n      swap1\n      div\n      0xff\n      and\n      0x01\n      dup2\n      gt\n      iszero\n      tag_83\n      jumpi\n      tag_84\n      tag_41\n      jump\t// in\n    tag_84:\n    tag_83:\n      0x01\n      dup2\n      gt\n      iszero\n      tag_85\n      jumpi\n      tag_86\n      tag_41\n      jump\t// in\n    tag_86:\n    tag_85:\n      dup2\n      mstore\n      0x20\n      add\n      0x03\n      dup3\n      add\n      sload\n      dup2\n      mstore\n      0x20\n      add\n      0x04\n      dup3\n      add\n      0x00\n      swap1\n      sload\n      swap1\n      0x0100\n      exp\n      swap1\n      div\n      0xffffffffffffffffffffffffffffffffffffffff\n      and\n      0xffffffffffffffffffffffffffffffffffffffff\n      and\n      0xffffffffffffffffffffffffffffffffffffffff\n      and\n      dup2\n      mstore\n      pop\n      pop\n      swap2\n      pop\n      pop\n      jump(tag_66)\n        /* \"contracts/Customer.sol\":1000:1087  if(customers[i].id == customerId){\r... */\n    tag_73:\n        /* \"contracts/Customer.sol\":981:984  i++ */\n      dup1\n      dup1\n      tag_87\n      swap1\n      tag_53\n      jump\t// in\n    tag_87:\n      swap2\n      pop\n      pop\n        /* \"contracts/Customer.sol\":942:1098  for (uint i = 0; i < customers.length; i++){\r... */\n      jump(tag_67)\n    tag_68:\n      pop\n        /* \"contracts/Customer.sol\":762:1105  function getCustomer(uint customerId) public view returns (Customer memory customer){\r... */\n    tag_66:\n      swap2\n      swap1\n      pop\n      jump\t// out\n    tag_35:\n      dup3\n      dup1\n      sload\n      tag_88\n      swap1\n      tag_78\n      jump\t// in\n    tag_88:\n      swap1\n      0x00\n      mstore\n      keccak256(0x00, 0x20)\n      swap1\n      0x1f\n      add\n      0x20\n      swap1\n      div\n      dup2\n      add\n      swap3\n      dup3\n      tag_90\n      jumpi\n      0x00\n      dup6\n      sstore\n      jump(tag_89)\n    tag_90:\n      dup3\n      0x1f\n      lt\n      tag_91\n      jumpi\n      dup1\n      mload\n      not(0xff)\n      and\n      dup4\n      dup1\n      add\n      or\n      dup6\n      sstore\n      jump(tag_89)\n    tag_91:\n      dup3\n      dup1\n      add\n      0x01\n      add\n      dup6\n      sstore\n      dup3\n      iszero\n      tag_89\n      jumpi\n      swap2\n      dup3\n      add\n    tag_92:\n      dup3\n      dup2\n      gt\n      iszero\n      tag_93\n      jumpi\n      dup3\n      mload\n      dup3\n      sstore\n      swap2\n      0x20\n      add\n      swap2\n      swap1\n      0x01\n      add\n      swap1\n      jump(tag_92)\n    tag_93:\n    tag_89:\n      pop\n      swap1\n      pop\n      tag_94\n      swap2\n      swap1\n      tag_95\n      jump\t// in\n    tag_94:\n      pop\n      swap1\n      jump\t// out\n    tag_65:\n      mload(0x40)\n      dup1\n      0xa0\n      add\n      0x40\n      mstore\n      dup1\n      0x00\n      dup2\n      mstore\n      0x20\n      add\n      0x60\n      dup2\n      mstore\n      0x20\n      add\n      0x00\n      0x01\n      dup2\n      gt\n      iszero\n      tag_96\n      jumpi\n      tag_97\n      tag_41\n      jump\t// in\n    tag_97:\n    tag_96:\n      dup2\n      mstore\n      0x20\n      add\n      0x00\n      dup2\n      mstore\n      0x20\n      add\n      and(0xffffffffffffffffffffffffffffffffffffffff, 0x00)\n      dup2\n      mstore\n      pop\n      swap1\n      jump\t// out\n    tag_95:\n    tag_98:\n      dup1\n      dup3\n      gt\n      iszero\n      tag_99\n      jumpi\n      0x00\n      dup2\n      0x00\n      swap1\n      sstore\n      pop\n      0x01\n      add\n      jump(tag_98)\n    tag_99:\n      pop\n      swap1\n      jump\t// out\n        /* \"#utility.yul\":7:419   */\n    tag_101:\n        /* \"#utility.yul\":85:90   */\n      0x00\n        /* \"#utility.yul\":110:176   */\n      tag_103\n        /* \"#utility.yul\":126:175   */\n      tag_104\n        /* \"#utility.yul\":168:174   */\n      dup5\n        /* \"#utility.yul\":126:175   */\n      tag_105\n      jump\t// in\n    tag_104:\n        /* \"#utility.yul\":110:176   */\n      tag_106\n      jump\t// in\n    tag_103:\n        /* \"#utility.yul\":101:176   */\n      swap1\n      pop\n        /* \"#utility.yul\":199:205   */\n      dup3\n        /* \"#utility.yul\":192:197   */\n      dup2\n        /* \"#utility.yul\":185:206   */\n      mstore\n        /* \"#utility.yul\":237:241   */\n      0x20\n        /* \"#utility.yul\":230:235   */\n      dup2\n        /* \"#utility.yul\":226:242   */\n      add\n        /* \"#utility.yul\":275:278   */\n      dup5\n        /* \"#utility.yul\":266:272   */\n      dup5\n        /* \"#utility.yul\":261:264   */\n      dup5\n        /* \"#utility.yul\":257:273   */\n      add\n        /* \"#utility.yul\":254:279   */\n      gt\n        /* \"#utility.yul\":251:363   */\n      iszero\n      tag_107\n      jumpi\n        /* \"#utility.yul\":282:361   */\n      tag_108\n      tag_109\n      jump\t// in\n    tag_108:\n        /* \"#utility.yul\":251:363   */\n    tag_107:\n        /* \"#utility.yul\":372:413   */\n      tag_110\n        /* \"#utility.yul\":406:412   */\n      dup5\n        /* \"#utility.yul\":401:404   */\n      dup3\n        /* \"#utility.yul\":396:399   */\n      dup6\n        /* \"#utility.yul\":372:413   */\n      tag_111\n      jump\t// in\n    tag_110:\n        /* \"#utility.yul\":91:419   */\n      pop\n        /* \"#utility.yul\":7:419   */\n      swap4\n      swap3\n      pop\n      pop\n      pop\n      jump\t// out\n        /* \"#utility.yul\":425:564   */\n    tag_112:\n        /* \"#utility.yul\":471:476   */\n      0x00\n        /* \"#utility.yul\":509:515   */\n      dup2\n        /* \"#utility.yul\":496:516   */\n      calldataload\n        /* \"#utility.yul\":487:516   */\n      swap1\n      pop\n        /* \"#utility.yul\":525:558   */\n      tag_114\n        /* \"#utility.yul\":552:557   */\n      dup2\n        /* \"#utility.yul\":525:558   */\n      tag_115\n      jump\t// in\n    tag_114:\n        /* \"#utility.yul\":425:564   */\n      swap3\n      swap2\n      pop\n      pop\n      jump\t// out\n        /* \"#utility.yul\":570:747   */\n    tag_116:\n        /* \"#utility.yul\":635:640   */\n      0x00\n        /* \"#utility.yul\":673:679   */\n      dup2\n        /* \"#utility.yul\":660:680   */\n      calldataload\n        /* \"#utility.yul\":651:680   */\n      swap1\n      pop\n        /* \"#utility.yul\":689:741   */\n      tag_118\n        /* \"#utility.yul\":735:740   */\n      dup2\n        /* \"#utility.yul\":689:741   */\n      tag_119\n      jump\t// in\n    tag_118:\n        /* \"#utility.yul\":570:747   */\n      swap3\n      swap2\n      pop\n      pop\n      jump\t// out\n        /* \"#utility.yul\":767:1107   */\n    tag_120:\n        /* \"#utility.yul\":823:828   */\n      0x00\n        /* \"#utility.yul\":872:875   */\n      dup3\n        /* \"#utility.yul\":865:869   */\n      0x1f\n        /* \"#utility.yul\":857:863   */\n      dup4\n        /* \"#utility.yul\":853:870   */\n      add\n        /* \"#utility.yul\":849:876   */\n      slt\n        /* \"#utility.yul\":839:961   */\n      tag_122\n      jumpi\n        /* \"#utility.yul\":880:959   */\n      tag_123\n      tag_124\n      jump\t// in\n    tag_123:\n        /* \"#utility.yul\":839:961   */\n    tag_122:\n        /* \"#utility.yul\":997:1003   */\n      dup2\n        /* \"#utility.yul\":984:1004   */\n      calldataload\n        /* \"#utility.yul\":1022:1101   */\n      tag_125\n        /* \"#utility.yul\":1097:1100   */\n      dup5\n        /* \"#utility.yul\":1089:1095   */\n      dup3\n        /* \"#utility.yul\":1082:1086   */\n      0x20\n        /* \"#utility.yul\":1074:1080   */\n      dup7\n        /* \"#utility.yul\":1070:1087   */\n      add\n        /* \"#utility.yul\":1022:1101   */\n      tag_101\n      jump\t// in\n    tag_125:\n        /* \"#utility.yul\":1013:1101   */\n      swap2\n      pop\n        /* \"#utility.yul\":829:1107   */\n      pop\n        /* \"#utility.yul\":767:1107   */\n      swap3\n      swap2\n      pop\n      pop\n      jump\t// out\n        /* \"#utility.yul\":1113:1252   */\n    tag_126:\n        /* \"#utility.yul\":1159:1164   */\n      0x00\n        /* \"#utility.yul\":1197:1203   */\n      dup2\n        /* \"#utility.yul\":1184:1204   */\n      calldataload\n        /* \"#utility.yul\":1175:1204   */\n      swap1\n      pop\n        /* \"#utility.yul\":1213:1246   */\n      tag_128\n        /* \"#utility.yul\":1240:1245   */\n      dup2\n        /* \"#utility.yul\":1213:1246   */\n      tag_129\n      jump\t// in\n    tag_128:\n        /* \"#utility.yul\":1113:1252   */\n      swap3\n      swap2\n      pop\n      pop\n      jump\t// out\n        /* \"#utility.yul\":1258:2241   */\n    tag_14:\n        /* \"#utility.yul\":1373:1379   */\n      0x00\n        /* \"#utility.yul\":1381:1387   */\n      dup1\n        /* \"#utility.yul\":1389:1395   */\n      0x00\n        /* \"#utility.yul\":1397:1403   */\n      dup1\n        /* \"#utility.yul\":1446:1449   */\n      0x80\n        /* \"#utility.yul\":1434:1443   */\n      dup6\n        /* \"#utility.yul\":1425:1432   */\n      dup8\n        /* \"#utility.yul\":1421:1444   */\n      sub\n        /* \"#utility.yul\":1417:1450   */\n      slt\n        /* \"#utility.yul\":1414:1534   */\n      iszero\n      tag_131\n      jumpi\n        /* \"#utility.yul\":1453:1532   */\n      tag_132\n      tag_133\n      jump\t// in\n    tag_132:\n        /* \"#utility.yul\":1414:1534   */\n    tag_131:\n        /* \"#utility.yul\":1601:1602   */\n      0x00\n        /* \"#utility.yul\":1590:1599   */\n      dup6\n        /* \"#utility.yul\":1586:1603   */\n      add\n        /* \"#utility.yul\":1573:1604   */\n      calldataload\n        /* \"#utility.yul\":1631:1649   */\n      0xffffffffffffffff\n        /* \"#utility.yul\":1623:1629   */\n      dup2\n        /* \"#utility.yul\":1620:1650   */\n      gt\n        /* \"#utility.yul\":1617:1734   */\n      iszero\n      tag_134\n      jumpi\n        /* \"#utility.yul\":1653:1732   */\n      tag_135\n      tag_136\n      jump\t// in\n    tag_135:\n        /* \"#utility.yul\":1617:1734   */\n    tag_134:\n        /* \"#utility.yul\":1758:1821   */\n      tag_137\n        /* \"#utility.yul\":1813:1820   */\n      dup8\n        /* \"#utility.yul\":1804:1810   */\n      dup3\n        /* \"#utility.yul\":1793:1802   */\n      dup9\n        /* \"#utility.yul\":1789:1811   */\n      add\n        /* \"#utility.yul\":1758:1821   */\n      tag_120\n      jump\t// in\n    tag_137:\n        /* \"#utility.yul\":1748:1821   */\n      swap5\n      pop\n        /* \"#utility.yul\":1544:1831   */\n      pop\n        /* \"#utility.yul\":1870:1872   */\n      0x20\n        /* \"#utility.yul\":1896:1968   */\n      tag_138\n        /* \"#utility.yul\":1960:1967   */\n      dup8\n        /* \"#utility.yul\":1951:1957   */\n      dup3\n        /* \"#utility.yul\":1940:1949   */\n      dup9\n        /* \"#utility.yul\":1936:1958   */\n      add\n        /* \"#utility.yul\":1896:1968   */\n      tag_116\n      jump\t// in\n    tag_138:\n        /* \"#utility.yul\":1886:1968   */\n      swap4\n      pop\n        /* \"#utility.yul\":1841:1978   */\n      pop\n        /* \"#utility.yul\":2017:2019   */\n      0x40\n        /* \"#utility.yul\":2043:2096   */\n      tag_139\n        /* \"#utility.yul\":2088:2095   */\n      dup8\n        /* \"#utility.yul\":2079:2085   */\n      dup3\n        /* \"#utility.yul\":2068:2077   */\n      dup9\n        /* \"#utility.yul\":2064:2086   */\n      add\n        /* \"#utility.yul\":2043:2096   */\n      tag_126\n      jump\t// in\n    tag_139:\n        /* \"#utility.yul\":2033:2096   */\n      swap3\n      pop\n        /* \"#utility.yul\":1988:2106   */\n      pop\n        /* \"#utility.yul\":2145:2147   */\n      0x60\n        /* \"#utility.yul\":2171:2224   */\n      tag_140\n        /* \"#utility.yul\":2216:2223   */\n      dup8\n        /* \"#utility.yul\":2207:2213   */\n      dup3\n        /* \"#utility.yul\":2196:2205   */\n      dup9\n        /* \"#utility.yul\":2192:2214   */\n      add\n        /* \"#utility.yul\":2171:2224   */\n      tag_112\n      jump\t// in\n    tag_140:\n        /* \"#utility.yul\":2161:2224   */\n      swap2\n      pop\n        /* \"#utility.yul\":2116:2234   */\n      pop\n        /* \"#utility.yul\":1258:2241   */\n      swap3\n      swap6\n      swap2\n      swap5\n      pop\n      swap3\n      pop\n      jump\t// out\n        /* \"#utility.yul\":2247:2576   */\n    tag_18:\n        /* \"#utility.yul\":2306:2312   */\n      0x00\n        /* \"#utility.yul\":2355:2357   */\n      0x20\n        /* \"#utility.yul\":2343:2352   */\n      dup3\n        /* \"#utility.yul\":2334:2341   */\n      dup5\n        /* \"#utility.yul\":2330:2353   */\n      sub\n        /* \"#utility.yul\":2326:2358   */\n      slt\n        /* \"#utility.yul\":2323:2442   */\n      iszero\n      tag_142\n      jumpi\n        /* \"#utility.yul\":2361:2440   */\n      tag_143\n      tag_133\n      jump\t// in\n    tag_143:\n        /* \"#utility.yul\":2323:2442   */\n    tag_142:\n        /* \"#utility.yul\":2481:2482   */\n      0x00\n        /* \"#utility.yul\":2506:2559   */\n      tag_144\n        /* \"#utility.yul\":2551:2558   */\n      dup5\n        /* \"#utility.yul\":2542:2548   */\n      dup3\n        /* \"#utility.yul\":2531:2540   */\n      dup6\n        /* \"#utility.yul\":2527:2549   */\n      add\n        /* \"#utility.yul\":2506:2559   */\n      tag_126\n      jump\t// in\n    tag_144:\n        /* \"#utility.yul\":2496:2559   */\n      swap2\n      pop\n        /* \"#utility.yul\":2452:2569   */\n      pop\n        /* \"#utility.yul\":2247:2576   */\n      swap3\n      swap2\n      pop\n      pop\n      jump\t// out\n        /* \"#utility.yul\":2582:3711   */\n    tag_8:\n        /* \"#utility.yul\":2706:2712   */\n      0x00\n        /* \"#utility.yul\":2714:2720   */\n      dup1\n        /* \"#utility.yul\":2722:2728   */\n      0x00\n        /* \"#utility.yul\":2730:2736   */\n      dup1\n        /* \"#utility.yul\":2738:2744   */\n      0x00\n        /* \"#utility.yul\":2787:2790   */\n      0xa0\n        /* \"#utility.yul\":2775:2784   */\n      dup7\n        /* \"#utility.yul\":2766:2773   */\n      dup9\n        /* \"#utility.yul\":2762:2785   */\n      sub\n        /* \"#utility.yul\":2758:2791   */\n      slt\n        /* \"#utility.yul\":2755:2875   */\n      iszero\n      tag_146\n      jumpi\n        /* \"#utility.yul\":2794:2873   */\n      tag_147\n      tag_133\n      jump\t// in\n    tag_147:\n        /* \"#utility.yul\":2755:2875   */\n    tag_146:\n        /* \"#utility.yul\":2914:2915   */\n      0x00\n        /* \"#utility.yul\":2939:2992   */\n      tag_148\n        /* \"#utility.yul\":2984:2991   */\n      dup9\n        /* \"#utility.yul\":2975:2981   */\n      dup3\n        /* \"#utility.yul\":2964:2973   */\n      dup10\n        /* \"#utility.yul\":2960:2982   */\n      add\n        /* \"#utility.yul\":2939:2992   */\n      tag_126\n      jump\t// in\n    tag_148:\n        /* \"#utility.yul\":2929:2992   */\n      swap6\n      pop\n        /* \"#utility.yul\":2885:3002   */\n      pop\n        /* \"#utility.yul\":3069:3071   */\n      0x20\n        /* \"#utility.yul\":3058:3067   */\n      dup7\n        /* \"#utility.yul\":3054:3072   */\n      add\n        /* \"#utility.yul\":3041:3073   */\n      calldataload\n        /* \"#utility.yul\":3100:3118   */\n      0xffffffffffffffff\n        /* \"#utility.yul\":3092:3098   */\n      dup2\n        /* \"#utility.yul\":3089:3119   */\n      gt\n        /* \"#utility.yul\":3086:3203   */\n      iszero\n      tag_149\n      jumpi\n        /* \"#utility.yul\":3122:3201   */\n      tag_150\n      tag_136\n      jump\t// in\n    tag_150:\n        /* \"#utility.yul\":3086:3203   */\n    tag_149:\n        /* \"#utility.yul\":3227:3290   */\n      tag_151\n        /* \"#utility.yul\":3282:3289   */\n      dup9\n        /* \"#utility.yul\":3273:3279   */\n      dup3\n        /* \"#utility.yul\":3262:3271   */\n      dup10\n        /* \"#utility.yul\":3258:3280   */\n      add\n        /* \"#utility.yul\":3227:3290   */\n      tag_120\n      jump\t// in\n    tag_151:\n        /* \"#utility.yul\":3217:3290   */\n      swap5\n      pop\n        /* \"#utility.yul\":3012:3300   */\n      pop\n        /* \"#utility.yul\":3339:3341   */\n      0x40\n        /* \"#utility.yul\":3365:3437   */\n      tag_152\n        /* \"#utility.yul\":3429:3436   */\n      dup9\n        /* \"#utility.yul\":3420:3426   */\n      dup3\n        /* \"#utility.yul\":3409:3418   */\n      dup10\n        /* \"#utility.yul\":3405:3427   */\n      add\n        /* \"#utility.yul\":3365:3437   */\n      tag_116\n      jump\t// in\n    tag_152:\n        /* \"#utility.yul\":3355:3437   */\n      swap4\n      pop\n        /* \"#utility.yul\":3310:3447   */\n      pop\n        /* \"#utility.yul\":3486:3488   */\n      0x60\n        /* \"#utility.yul\":3512:3565   */\n      tag_153\n        /* \"#utility.yul\":3557:3564   */\n      dup9\n        /* \"#utility.yul\":3548:3554   */\n      dup3\n        /* \"#utility.yul\":3537:3546   */\n      dup10\n        /* \"#utility.yul\":3533:3555   */\n      add\n        /* \"#utility.yul\":3512:3565   */\n      tag_126\n      jump\t// in\n    tag_153:\n        /* \"#utility.yul\":3502:3565   */\n      swap3\n      pop\n        /* \"#utility.yul\":3457:3575   */\n      pop\n        /* \"#utility.yul\":3614:3617   */\n      0x80\n        /* \"#utility.yul\":3641:3694   */\n      tag_154\n        /* \"#utility.yul\":3686:3693   */\n      dup9\n        /* \"#utility.yul\":3677:3683   */\n      dup3\n        /* \"#utility.yul\":3666:3675   */\n      dup10\n        /* \"#utility.yul\":3662:3684   */\n      add\n        /* \"#utility.yul\":3641:3694   */\n      tag_112\n      jump\t// in\n    tag_154:\n        /* \"#utility.yul\":3631:3694   */\n      swap2\n      pop\n        /* \"#utility.yul\":3585:3704   */\n      pop\n        /* \"#utility.yul\":2582:3711   */\n      swap3\n      swap6\n      pop\n      swap3\n      swap6\n      swap1\n      swap4\n      pop\n      jump\t// out\n        /* \"#utility.yul\":3717:3825   */\n    tag_155:\n        /* \"#utility.yul\":3794:3818   */\n      tag_157\n        /* \"#utility.yul\":3812:3817   */\n      dup2\n        /* \"#utility.yul\":3794:3818   */\n      tag_158\n      jump\t// in\n    tag_157:\n        /* \"#utility.yul\":3789:3792   */\n      dup3\n        /* \"#utility.yul\":3782:3819   */\n      mstore\n        /* \"#utility.yul\":3717:3825   */\n      pop\n      pop\n      jump\t// out\n        /* \"#utility.yul\":3831:3940   */\n    tag_159:\n        /* \"#utility.yul\":3912:3933   */\n      tag_161\n        /* \"#utility.yul\":3927:3932   */\n      dup2\n        /* \"#utility.yul\":3912:3933   */\n      tag_162\n      jump\t// in\n    tag_161:\n        /* \"#utility.yul\":3907:3910   */\n      dup3\n        /* \"#utility.yul\":3900:3934   */\n      mstore\n        /* \"#utility.yul\":3831:3940   */\n      pop\n      pop\n      jump\t// out\n        /* \"#utility.yul\":3946:4101   */\n    tag_163:\n        /* \"#utility.yul\":4040:4094   */\n      tag_165\n        /* \"#utility.yul\":4088:4093   */\n      dup2\n        /* \"#utility.yul\":4040:4094   */\n      tag_166\n      jump\t// in\n    tag_165:\n        /* \"#utility.yul\":4035:4038   */\n      dup3\n        /* \"#utility.yul\":4028:4095   */\n      mstore\n        /* \"#utility.yul\":3946:4101   */\n      pop\n      pop\n      jump\t// out\n        /* \"#utility.yul\":4107:4451   */\n    tag_167:\n        /* \"#utility.yul\":4185:4188   */\n      0x00\n        /* \"#utility.yul\":4213:4252   */\n      tag_169\n        /* \"#utility.yul\":4246:4251   */\n      dup3\n        /* \"#utility.yul\":4213:4252   */\n      tag_170\n      jump\t// in\n    tag_169:\n        /* \"#utility.yul\":4268:4329   */\n      tag_171\n        /* \"#utility.yul\":4322:4328   */\n      dup2\n        /* \"#utility.yul\":4317:4320   */\n      dup6\n        /* \"#utility.yul\":4268:4329   */\n      tag_172\n      jump\t// in\n    tag_171:\n        /* \"#utility.yul\":4261:4329   */\n      swap4\n      pop\n        /* \"#utility.yul\":4338:4390   */\n      tag_173\n        /* \"#utility.yul\":4383:4389   */\n      dup2\n        /* \"#utility.yul\":4378:4381   */\n      dup6\n        /* \"#utility.yul\":4371:4375   */\n      0x20\n        /* \"#utility.yul\":4364:4369   */\n      dup7\n        /* \"#utility.yul\":4360:4376   */\n      add\n        /* \"#utility.yul\":4338:4390   */\n      tag_174\n      jump\t// in\n    tag_173:\n        /* \"#utility.yul\":4415:4444   */\n      tag_175\n        /* \"#utility.yul\":4437:4443   */\n      dup2\n        /* \"#utility.yul\":4415:4444   */\n      tag_176\n      jump\t// in\n    tag_175:\n        /* \"#utility.yul\":4410:4413   */\n      dup5\n        /* \"#utility.yul\":4406:4445   */\n      add\n        /* \"#utility.yul\":4399:4445   */\n      swap2\n      pop\n        /* \"#utility.yul\":4189:4451   */\n      pop\n        /* \"#utility.yul\":4107:4451   */\n      swap3\n      swap2\n      pop\n      pop\n      jump\t// out\n        /* \"#utility.yul\":4549:5716   */\n    tag_177:\n        /* \"#utility.yul\":4668:4671   */\n      0x00\n        /* \"#utility.yul\":4704:4708   */\n      0xa0\n        /* \"#utility.yul\":4699:4702   */\n      dup4\n        /* \"#utility.yul\":4695:4709   */\n      add\n        /* \"#utility.yul\":4789:4793   */\n      0x00\n        /* \"#utility.yul\":4782:4787   */\n      dup4\n        /* \"#utility.yul\":4778:4794   */\n      add\n        /* \"#utility.yul\":4772:4795   */\n      mload\n        /* \"#utility.yul\":4808:4871   */\n      tag_179\n        /* \"#utility.yul\":4865:4869   */\n      0x00\n        /* \"#utility.yul\":4860:4863   */\n      dup7\n        /* \"#utility.yul\":4856:4870   */\n      add\n        /* \"#utility.yul\":4842:4854   */\n      dup3\n        /* \"#utility.yul\":4808:4871   */\n      tag_180\n      jump\t// in\n    tag_179:\n        /* \"#utility.yul\":4719:4881   */\n      pop\n        /* \"#utility.yul\":4963:4967   */\n      0x20\n        /* \"#utility.yul\":4956:4961   */\n      dup4\n        /* \"#utility.yul\":4952:4968   */\n      add\n        /* \"#utility.yul\":4946:4969   */\n      mload\n        /* \"#utility.yul\":5016:5019   */\n      dup5\n        /* \"#utility.yul\":5010:5014   */\n      dup3\n        /* \"#utility.yul\":5006:5020   */\n      sub\n        /* \"#utility.yul\":4999:5003   */\n      0x20\n        /* \"#utility.yul\":4994:4997   */\n      dup7\n        /* \"#utility.yul\":4990:5004   */\n      add\n        /* \"#utility.yul\":4983:5021   */\n      mstore\n        /* \"#utility.yul\":5042:5115   */\n      tag_181\n        /* \"#utility.yul\":5110:5114   */\n      dup3\n        /* \"#utility.yul\":5096:5108   */\n      dup3\n        /* \"#utility.yul\":5042:5115   */\n      tag_167\n      jump\t// in\n    tag_181:\n        /* \"#utility.yul\":5034:5115   */\n      swap2\n      pop\n        /* \"#utility.yul\":4891:5126   */\n      pop\n        /* \"#utility.yul\":5214:5218   */\n      0x40\n        /* \"#utility.yul\":5207:5212   */\n      dup4\n        /* \"#utility.yul\":5203:5219   */\n      add\n        /* \"#utility.yul\":5197:5220   */\n      mload\n        /* \"#utility.yul\":5233:5313   */\n      tag_182\n        /* \"#utility.yul\":5307:5311   */\n      0x40\n        /* \"#utility.yul\":5302:5305   */\n      dup7\n        /* \"#utility.yul\":5298:5312   */\n      add\n        /* \"#utility.yul\":5284:5296   */\n      dup3\n        /* \"#utility.yul\":5233:5313   */\n      tag_163\n      jump\t// in\n    tag_182:\n        /* \"#utility.yul\":5136:5323   */\n      pop\n        /* \"#utility.yul\":5413:5417   */\n      0x60\n        /* \"#utility.yul\":5406:5411   */\n      dup4\n        /* \"#utility.yul\":5402:5418   */\n      add\n        /* \"#utility.yul\":5396:5419   */\n      mload\n        /* \"#utility.yul\":5432:5495   */\n      tag_183\n        /* \"#utility.yul\":5489:5493   */\n      0x60\n        /* \"#utility.yul\":5484:5487   */\n      dup7\n        /* \"#utility.yul\":5480:5494   */\n      add\n        /* \"#utility.yul\":5466:5478   */\n      dup3\n        /* \"#utility.yul\":5432:5495   */\n      tag_180\n      jump\t// in\n    tag_183:\n        /* \"#utility.yul\":5333:5505   */\n      pop\n        /* \"#utility.yul\":5597:5601   */\n      0x80\n        /* \"#utility.yul\":5590:5595   */\n      dup4\n        /* \"#utility.yul\":5586:5602   */\n      add\n        /* \"#utility.yul\":5580:5603   */\n      mload\n        /* \"#utility.yul\":5616:5679   */\n      tag_184\n        /* \"#utility.yul\":5673:5677   */\n      0x80\n        /* \"#utility.yul\":5668:5671   */\n      dup7\n        /* \"#utility.yul\":5664:5678   */\n      add\n        /* \"#utility.yul\":5650:5662   */\n      dup3\n        /* \"#utility.yul\":5616:5679   */\n      tag_155\n      jump\t// in\n    tag_184:\n        /* \"#utility.yul\":5515:5689   */\n      pop\n        /* \"#utility.yul\":5706:5710   */\n      dup1\n        /* \"#utility.yul\":5699:5710   */\n      swap2\n      pop\n        /* \"#utility.yul\":4673:5716   */\n      pop\n        /* \"#utility.yul\":4549:5716   */\n      swap3\n      swap2\n      pop\n      pop\n      jump\t// out\n        /* \"#utility.yul\":5722:5830   */\n    tag_180:\n        /* \"#utility.yul\":5799:5823   */\n      tag_186\n        /* \"#utility.yul\":5817:5822   */\n      dup2\n        /* \"#utility.yul\":5799:5823   */\n      tag_187\n      jump\t// in\n    tag_186:\n        /* \"#utility.yul\":5794:5797   */\n      dup3\n        /* \"#utility.yul\":5787:5824   */\n      mstore\n        /* \"#utility.yul\":5722:5830   */\n      pop\n      pop\n      jump\t// out\n        /* \"#utility.yul\":5836:6046   */\n    tag_11:\n        /* \"#utility.yul\":5923:5927   */\n      0x00\n        /* \"#utility.yul\":5961:5963   */\n      0x20\n        /* \"#utility.yul\":5950:5959   */\n      dup3\n        /* \"#utility.yul\":5946:5964   */\n      add\n        /* \"#utility.yul\":5938:5964   */\n      swap1\n      pop\n        /* \"#utility.yul\":5974:6039   */\n      tag_189\n        /* \"#utility.yul\":6036:6037   */\n      0x00\n        /* \"#utility.yul\":6025:6034   */\n      dup4\n        /* \"#utility.yul\":6021:6038   */\n      add\n        /* \"#utility.yul\":6012:6018   */\n      dup5\n        /* \"#utility.yul\":5974:6039   */\n      tag_159\n      jump\t// in\n    tag_189:\n        /* \"#utility.yul\":5836:6046   */\n      swap3\n      swap2\n      pop\n      pop\n      jump\t// out\n        /* \"#utility.yul\":6052:6425   */\n    tag_21:\n        /* \"#utility.yul\":6195:6199   */\n      0x00\n        /* \"#utility.yul\":6233:6235   */\n      0x20\n        /* \"#utility.yul\":6222:6231   */\n      dup3\n        /* \"#utility.yul\":6218:6236   */\n      add\n        /* \"#utility.yul\":6210:6236   */\n      swap1\n      pop\n        /* \"#utility.yul\":6282:6291   */\n      dup2\n        /* \"#utility.yul\":6276:6280   */\n      dup2\n        /* \"#utility.yul\":6272:6292   */\n      sub\n        /* \"#utility.yul\":6268:6269   */\n      0x00\n        /* \"#utility.yul\":6257:6266   */\n      dup4\n        /* \"#utility.yul\":6253:6270   */\n      add\n        /* \"#utility.yul\":6246:6293   */\n      mstore\n        /* \"#utility.yul\":6310:6418   */\n      tag_191\n        /* \"#utility.yul\":6413:6417   */\n      dup2\n        /* \"#utility.yul\":6404:6410   */\n      dup5\n        /* \"#utility.yul\":6310:6418   */\n      tag_177\n      jump\t// in\n    tag_191:\n        /* \"#utility.yul\":6302:6418   */\n      swap1\n      pop\n        /* \"#utility.yul\":6052:6425   */\n      swap3\n      swap2\n      pop\n      pop\n      jump\t// out\n        /* \"#utility.yul\":6431:6560   */\n    tag_106:\n        /* \"#utility.yul\":6465:6471   */\n      0x00\n        /* \"#utility.yul\":6492:6512   */\n      tag_193\n      tag_194\n      jump\t// in\n    tag_193:\n        /* \"#utility.yul\":6482:6512   */\n      swap1\n      pop\n        /* \"#utility.yul\":6521:6554   */\n      tag_195\n        /* \"#utility.yul\":6549:6553   */\n      dup3\n        /* \"#utility.yul\":6541:6547   */\n      dup3\n        /* \"#utility.yul\":6521:6554   */\n      tag_196\n      jump\t// in\n    tag_195:\n        /* \"#utility.yul\":6431:6560   */\n      swap2\n      swap1\n      pop\n      jump\t// out\n        /* \"#utility.yul\":6566:6641   */\n    tag_194:\n        /* \"#utility.yul\":6599:6605   */\n      0x00\n        /* \"#utility.yul\":6632:6634   */\n      0x40\n        /* \"#utility.yul\":6626:6635   */\n      mload\n        /* \"#utility.yul\":6616:6635   */\n      swap1\n      pop\n        /* \"#utility.yul\":6566:6641   */\n      swap1\n      jump\t// out\n        /* \"#utility.yul\":6647:6955   */\n    tag_105:\n        /* \"#utility.yul\":6709:6713   */\n      0x00\n        /* \"#utility.yul\":6799:6817   */\n      0xffffffffffffffff\n        /* \"#utility.yul\":6791:6797   */\n      dup3\n        /* \"#utility.yul\":6788:6818   */\n      gt\n        /* \"#utility.yul\":6785:6841   */\n      iszero\n      tag_199\n      jumpi\n        /* \"#utility.yul\":6821:6839   */\n      tag_200\n      tag_201\n      jump\t// in\n    tag_200:\n        /* \"#utility.yul\":6785:6841   */\n    tag_199:\n        /* \"#utility.yul\":6859:6888   */\n      tag_202\n        /* \"#utility.yul\":6881:6887   */\n      dup3\n        /* \"#utility.yul\":6859:6888   */\n      tag_176\n      jump\t// in\n    tag_202:\n        /* \"#utility.yul\":6851:6888   */\n      swap1\n      pop\n        /* \"#utility.yul\":6943:6947   */\n      0x20\n        /* \"#utility.yul\":6937:6941   */\n      dup2\n        /* \"#utility.yul\":6933:6948   */\n      add\n        /* \"#utility.yul\":6925:6948   */\n      swap1\n      pop\n        /* \"#utility.yul\":6647:6955   */\n      swap2\n      swap1\n      pop\n      jump\t// out\n        /* \"#utility.yul\":6961:7060   */\n    tag_170:\n        /* \"#utility.yul\":7013:7019   */\n      0x00\n        /* \"#utility.yul\":7047:7052   */\n      dup2\n        /* \"#utility.yul\":7041:7053   */\n      mload\n        /* \"#utility.yul\":7031:7053   */\n      swap1\n      pop\n        /* \"#utility.yul\":6961:7060   */\n      swap2\n      swap1\n      pop\n      jump\t// out\n        /* \"#utility.yul\":7066:7225   */\n    tag_172:\n        /* \"#utility.yul\":7140:7151   */\n      0x00\n        /* \"#utility.yul\":7174:7180   */\n      dup3\n        /* \"#utility.yul\":7169:7172   */\n      dup3\n        /* \"#utility.yul\":7162:7181   */\n      mstore\n        /* \"#utility.yul\":7214:7218   */\n      0x20\n        /* \"#utility.yul\":7209:7212   */\n      dup3\n        /* \"#utility.yul\":7205:7219   */\n      add\n        /* \"#utility.yul\":7190:7219   */\n      swap1\n      pop\n        /* \"#utility.yul\":7066:7225   */\n      swap3\n      swap2\n      pop\n      pop\n      jump\t// out\n        /* \"#utility.yul\":7231:7536   */\n    tag_45:\n        /* \"#utility.yul\":7271:7274   */\n      0x00\n        /* \"#utility.yul\":7290:7310   */\n      tag_206\n        /* \"#utility.yul\":7308:7309   */\n      dup3\n        /* \"#utility.yul\":7290:7310   */\n      tag_187\n      jump\t// in\n    tag_206:\n        /* \"#utility.yul\":7285:7310   */\n      swap2\n      pop\n        /* \"#utility.yul\":7324:7344   */\n      tag_207\n        /* \"#utility.yul\":7342:7343   */\n      dup4\n        /* \"#utility.yul\":7324:7344   */\n      tag_187\n      jump\t// in\n    tag_207:\n        /* \"#utility.yul\":7319:7344   */\n      swap3\n      pop\n        /* \"#utility.yul\":7478:7479   */\n      dup3\n        /* \"#utility.yul\":7410:7476   */\n      0xffffffffffffffffffffffffffffffffffffffffffffffffffffffffffffffff\n        /* \"#utility.yul\":7406:7480   */\n      sub\n        /* \"#utility.yul\":7403:7404   */\n      dup3\n        /* \"#utility.yul\":7400:7481   */\n      gt\n        /* \"#utility.yul\":7397:7504   */\n      iszero\n      tag_208\n      jumpi\n        /* \"#utility.yul\":7484:7502   */\n      tag_209\n      tag_210\n      jump\t// in\n    tag_209:\n        /* \"#utility.yul\":7397:7504   */\n    tag_208:\n        /* \"#utility.yul\":7528:7529   */\n      dup3\n        /* \"#utility.yul\":7525:7526   */\n      dup3\n        /* \"#utility.yul\":7521:7530   */\n      add\n        /* \"#utility.yul\":7514:7530   */\n      swap1\n      pop\n        /* \"#utility.yul\":7231:7536   */\n      swap3\n      swap2\n      pop\n      pop\n      jump\t// out\n        /* \"#utility.yul\":7542:7890   */\n    tag_43:\n        /* \"#utility.yul\":7582:7589   */\n      0x00\n        /* \"#utility.yul\":7605:7625   */\n      tag_212\n        /* \"#utility.yul\":7623:7624   */\n      dup3\n        /* \"#utility.yul\":7605:7625   */\n      tag_187\n      jump\t// in\n    tag_212:\n        /* \"#utility.yul\":7600:7625   */\n      swap2\n      pop\n        /* \"#utility.yul\":7639:7659   */\n      tag_213\n        /* \"#utility.yul\":7657:7658   */\n      dup4\n        /* \"#utility.yul\":7639:7659   */\n      tag_187\n      jump\t// in\n    tag_213:\n        /* \"#utility.yul\":7634:7659   */\n      swap3\n      pop\n        /* \"#utility.yul\":7827:7828   */\n      dup2\n        /* \"#utility.yul\":7759:7825   */\n      0xffffffffffffffffffffffffffffffffffffffffffffffffffffffffffffffff\n        /* \"#utility.yul\":7755:7829   */\n      div\n        /* \"#utility.yul\":7752:7753   */\n      dup4\n        /* \"#utility.yul\":7749:7830   */\n      gt\n        /* \"#utility.yul\":7744:7745   */\n      dup3\n        /* \"#utility.yul\":7737:7746   */\n      iszero\n        /* \"#utility.yul\":7730:7747   */\n      iszero\n        /* \"#utility.yul\":7726:7831   */\n      and\n        /* \"#utility.yul\":7723:7854   */\n      iszero\n      tag_214\n      jumpi\n        /* \"#utility.yul\":7834:7852   */\n      tag_215\n      tag_210\n      jump\t// in\n    tag_215:\n        /* \"#utility.yul\":7723:7854   */\n    tag_214:\n        /* \"#utility.yul\":7882:7883   */\n      dup3\n        /* \"#utility.yul\":7879:7880   */\n      dup3\n        /* \"#utility.yul\":7875:7884   */\n      mul\n        /* \"#utility.yul\":7864:7884   */\n      swap1\n      pop\n        /* \"#utility.yul\":7542:7890   */\n      swap3\n      swap2\n      pop\n      pop\n      jump\t// out\n        /* \"#utility.yul\":7896:7992   */\n    tag_158:\n        /* \"#utility.yul\":7933:7940   */\n      0x00\n        /* \"#utility.yul\":7962:7986   */\n      tag_217\n        /* \"#utility.yul\":7980:7985   */\n      dup3\n        /* \"#utility.yul\":7962:7986   */\n      tag_218\n      jump\t// in\n    tag_217:\n        /* \"#utility.yul\":7951:7986   */\n      swap1\n      pop\n        /* \"#utility.yul\":7896:7992   */\n      swap2\n      swap1\n      pop\n      jump\t// out\n        /* \"#utility.yul\":7998:8088   */\n    tag_162:\n        /* \"#utility.yul\":8032:8039   */\n      0x00\n        /* \"#utility.yul\":8075:8080   */\n      dup2\n        /* \"#utility.yul\":8068:8081   */\n      iszero\n        /* \"#utility.yul\":8061:8082   */\n      iszero\n        /* \"#utility.yul\":8050:8082   */\n      swap1\n      pop\n        /* \"#utility.yul\":7998:8088   */\n      swap2\n      swap1\n      pop\n      jump\t// out\n        /* \"#utility.yul\":8094:8243   */\n    tag_220:\n        /* \"#utility.yul\":8150:8157   */\n      0x00\n        /* \"#utility.yul\":8179:8184   */\n      dup2\n        /* \"#utility.yul\":8168:8184   */\n      swap1\n      pop\n        /* \"#utility.yul\":8185:8237   */\n      tag_222\n        /* \"#utility.yul\":8231:8236   */\n      dup3\n        /* \"#utility.yul\":8185:8237   */\n      tag_223\n      jump\t// in\n    tag_222:\n        /* \"#utility.yul\":8094:8243   */\n      swap2\n      swap1\n      pop\n      jump\t// out\n        /* \"#utility.yul\":8249:8375   */\n    tag_218:\n        /* \"#utility.yul\":8286:8293   */\n      0x00\n        /* \"#utility.yul\":8326:8368   */\n      0xffffffffffffffffffffffffffffffffffffffff\n        /* \"#utility.yul\":8319:8324   */\n      dup3\n        /* \"#utility.yul\":8315:8369   */\n      and\n        /* \"#utility.yul\":8304:8369   */\n      swap1\n      pop\n        /* \"#utility.yul\":8249:8375   */\n      swap2\n      swap1\n      pop\n      jump\t// out\n        /* \"#utility.yul\":8381:8458   */\n    tag_187:\n        /* \"#utility.yul\":8418:8425   */\n      0x00\n        /* \"#utility.yul\":8447:8452   */\n      dup2\n        /* \"#utility.yul\":8436:8452   */\n      swap1\n      pop\n        /* \"#utility.yul\":8381:8458   */\n      swap2\n      swap1\n      pop\n      jump\t// out\n        /* \"#utility.yul\":8464:8613   */\n    tag_166:\n        /* \"#utility.yul\":8531:8540   */\n      0x00\n        /* \"#utility.yul\":8564:8607   */\n      tag_227\n        /* \"#utility.yul\":8601:8606   */\n      dup3\n        /* \"#utility.yul\":8564:8607   */\n      tag_220\n      jump\t// in\n    tag_227:\n        /* \"#utility.yul\":8551:8607   */\n      swap1\n      pop\n        /* \"#utility.yul\":8464:8613   */\n      swap2\n      swap1\n      pop\n      jump\t// out\n        /* \"#utility.yul\":8619:8773   */\n    tag_111:\n        /* \"#utility.yul\":8703:8709   */\n      dup3\n        /* \"#utility.yul\":8698:8701   */\n      dup2\n        /* \"#utility.yul\":8693:8696   */\n      dup4\n        /* \"#utility.yul\":8680:8710   */\n      calldatacopy\n        /* \"#utility.yul\":8765:8766   */\n      0x00\n        /* \"#utility.yul\":8756:8762   */\n      dup4\n        /* \"#utility.yul\":8751:8754   */\n      dup4\n        /* \"#utility.yul\":8747:8763   */\n      add\n        /* \"#utility.yul\":8740:8767   */\n      mstore\n        /* \"#utility.yul\":8619:8773   */\n      pop\n      pop\n      pop\n      jump\t// out\n        /* \"#utility.yul\":8779:9086   */\n    tag_174:\n        /* \"#utility.yul\":8847:8848   */\n      0x00\n        /* \"#utility.yul\":8857:8970   */\n    tag_230:\n        /* \"#utility.yul\":8871:8877   */\n      dup4\n        /* \"#utility.yul\":8868:8869   */\n      dup2\n        /* \"#utility.yul\":8865:8878   */\n      lt\n        /* \"#utility.yul\":8857:8970   */\n      iszero\n      tag_232\n      jumpi\n        /* \"#utility.yul\":8956:8957   */\n      dup1\n        /* \"#utility.yul\":8951:8954   */\n      dup3\n        /* \"#utility.yul\":8947:8958   */\n      add\n        /* \"#utility.yul\":8941:8959   */\n      mload\n        /* \"#utility.yul\":8937:8938   */\n      dup2\n        /* \"#utility.yul\":8932:8935   */\n      dup5\n        /* \"#utility.yul\":8928:8939   */\n      add\n        /* \"#utility.yul\":8921:8960   */\n      mstore\n        /* \"#utility.yul\":8893:8895   */\n      0x20\n        /* \"#utility.yul\":8890:8891   */\n      dup2\n        /* \"#utility.yul\":8886:8896   */\n      add\n        /* \"#utility.yul\":8881:8896   */\n      swap1\n      pop\n        /* \"#utility.yul\":8857:8970   */\n      jump(tag_230)\n    tag_232:\n        /* \"#utility.yul\":8988:8994   */\n      dup4\n        /* \"#utility.yul\":8985:8986   */\n      dup2\n        /* \"#utility.yul\":8982:8995   */\n      gt\n        /* \"#utility.yul\":8979:9080   */\n      iszero\n      tag_233\n      jumpi\n        /* \"#utility.yul\":9068:9069   */\n      0x00\n        /* \"#utility.yul\":9059:9065   */\n      dup5\n        /* \"#utility.yul\":9054:9057   */\n      dup5\n        /* \"#utility.yul\":9050:9066   */\n      add\n        /* \"#utility.yul\":9043:9070   */\n      mstore\n        /* \"#utility.yul\":8979:9080   */\n    tag_233:\n        /* \"#utility.yul\":8828:9086   */\n      pop\n        /* \"#utility.yul\":8779:9086   */\n      pop\n      pop\n      pop\n      jump\t// out\n        /* \"#utility.yul\":9092:9412   */\n    tag_78:\n        /* \"#utility.yul\":9136:9142   */\n      0x00\n        /* \"#utility.yul\":9173:9174   */\n      0x02\n        /* \"#utility.yul\":9167:9171   */\n      dup3\n        /* \"#utility.yul\":9163:9175   */\n      div\n        /* \"#utility.yul\":9153:9175   */\n      swap1\n      pop\n        /* \"#utility.yul\":9220:9221   */\n      0x01\n        /* \"#utility.yul\":9214:9218   */\n      dup3\n        /* \"#utility.yul\":9210:9222   */\n      and\n        /* \"#utility.yul\":9241:9259   */\n      dup1\n        /* \"#utility.yul\":9231:9312   */\n      tag_235\n      jumpi\n        /* \"#utility.yul\":9297:9301   */\n      0x7f\n        /* \"#utility.yul\":9289:9295   */\n      dup3\n        /* \"#utility.yul\":9285:9302   */\n      and\n        /* \"#utility.yul\":9275:9302   */\n      swap2\n      pop\n        /* \"#utility.yul\":9231:9312   */\n    tag_235:\n        /* \"#utility.yul\":9359:9361   */\n      0x20\n        /* \"#utility.yul\":9351:9357   */\n      dup3\n        /* \"#utility.yul\":9348:9362   */\n      lt\n        /* \"#utility.yul\":9328:9346   */\n      dup2\n        /* \"#utility.yul\":9325:9363   */\n      eq\n        /* \"#utility.yul\":9322:9406   */\n      iszero\n      tag_236\n      jumpi\n        /* \"#utility.yul\":9378:9396   */\n      tag_237\n      tag_238\n      jump\t// in\n    tag_237:\n        /* \"#utility.yul\":9322:9406   */\n    tag_236:\n        /* \"#utility.yul\":9143:9412   */\n      pop\n        /* \"#utility.yul\":9092:9412   */\n      swap2\n      swap1\n      pop\n      jump\t// out\n        /* \"#utility.yul\":9418:9699   */\n    tag_196:\n        /* \"#utility.yul\":9501:9528   */\n      tag_240\n        /* \"#utility.yul\":9523:9527   */\n      dup3\n        /* \"#utility.yul\":9501:9528   */\n      tag_176\n      jump\t// in\n    tag_240:\n        /* \"#utility.yul\":9493:9499   */\n      dup2\n        /* \"#utility.yul\":9489:9529   */\n      add\n        /* \"#utility.yul\":9631:9637   */\n      dup2\n        /* \"#utility.yul\":9619:9629   */\n      dup2\n        /* \"#utility.yul\":9616:9638   */\n      lt\n        /* \"#utility.yul\":9595:9613   */\n      0xffffffffffffffff\n        /* \"#utility.yul\":9583:9593   */\n      dup3\n        /* \"#utility.yul\":9580:9614   */\n      gt\n        /* \"#utility.yul\":9577:9639   */\n      or\n        /* \"#utility.yul\":9574:9662   */\n      iszero\n      tag_241\n      jumpi\n        /* \"#utility.yul\":9642:9660   */\n      tag_242\n      tag_201\n      jump\t// in\n    tag_242:\n        /* \"#utility.yul\":9574:9662   */\n    tag_241:\n        /* \"#utility.yul\":9682:9692   */\n      dup1\n        /* \"#utility.yul\":9678:9680   */\n      0x40\n        /* \"#utility.yul\":9671:9693   */\n      mstore\n        /* \"#utility.yul\":9461:9699   */\n      pop\n        /* \"#utility.yul\":9418:9699   */\n      pop\n      pop\n      jump\t// out\n        /* \"#utility.yul\":9705:9938   */\n    tag_53:\n        /* \"#utility.yul\":9744:9747   */\n      0x00\n        /* \"#utility.yul\":9767:9791   */\n      tag_244\n        /* \"#utility.yul\":9785:9790   */\n      dup3\n        /* \"#utility.yul\":9767:9791   */\n      tag_187\n      jump\t// in\n    tag_244:\n        /* \"#utility.yul\":9758:9791   */\n      swap2\n      pop\n        /* \"#utility.yul\":9813:9879   */\n      0xffffffffffffffffffffffffffffffffffffffffffffffffffffffffffffffff\n        /* \"#utility.yul\":9806:9811   */\n      dup3\n        /* \"#utility.yul\":9803:9880   */\n      eq\n        /* \"#utility.yul\":9800:9903   */\n      iszero\n      tag_245\n      jumpi\n        /* \"#utility.yul\":9883:9901   */\n      tag_246\n      tag_210\n      jump\t// in\n    tag_246:\n        /* \"#utility.yul\":9800:9903   */\n    tag_245:\n        /* \"#utility.yul\":9930:9931   */\n      0x01\n        /* \"#utility.yul\":9923:9928   */\n      dup3\n        /* \"#utility.yul\":9919:9932   */\n      add\n        /* \"#utility.yul\":9912:9932   */\n      swap1\n      pop\n        /* \"#utility.yul\":9705:9938   */\n      swap2\n      swap1\n      pop\n      jump\t// out\n        /* \"#utility.yul\":9944:10124   */\n    tag_210:\n        /* \"#utility.yul\":9992:10069   */\n      0x4e487b7100000000000000000000000000000000000000000000000000000000\n        /* \"#utility.yul\":9989:9990   */\n      0x00\n        /* \"#utility.yul\":9982:10070   */\n      mstore\n        /* \"#utility.yul\":10089:10093   */\n      0x11\n        /* \"#utility.yul\":10086:10087   */\n      0x04\n        /* \"#utility.yul\":10079:10094   */\n      mstore\n        /* \"#utility.yul\":10113:10117   */\n      0x24\n        /* \"#utility.yul\":10110:10111   */\n      0x00\n        /* \"#utility.yul\":10103:10118   */\n      revert\n        /* \"#utility.yul\":10130:10310   */\n    tag_41:\n        /* \"#utility.yul\":10178:10255   */\n      0x4e487b7100000000000000000000000000000000000000000000000000000000\n        /* \"#utility.yul\":10175:10176   */\n      0x00\n        /* \"#utility.yul\":10168:10256   */\n      mstore\n        /* \"#utility.yul\":10275:10279   */\n      0x21\n        /* \"#utility.yul\":10272:10273   */\n      0x04\n        /* \"#utility.yul\":10265:10280   */\n      mstore\n        /* \"#utility.yul\":10299:10303   */\n      0x24\n        /* \"#utility.yul\":10296:10297   */\n      0x00\n        /* \"#utility.yul\":10289:10304   */\n      revert\n        /* \"#utility.yul\":10316:10496   */\n    tag_238:\n        /* \"#utility.yul\":10364:10441   */\n      0x4e487b7100000000000000000000000000000000000000000000000000000000\n        /* \"#utility.yul\":10361:10362   */\n      0x00\n        /* \"#utility.yul\":10354:10442   */\n      mstore\n        /* \"#utility.yul\":10461:10465   */\n      0x22\n        /* \"#utility.yul\":10458:10459   */\n      0x04\n        /* \"#utility.yul\":10451:10466   */\n      mstore\n        /* \"#utility.yul\":10485:10489   */\n      0x24\n        /* \"#utility.yul\":10482:10483   */\n      0x00\n        /* \"#utility.yul\":10475:10490   */\n      revert\n        /* \"#utility.yul\":10502:10682   */\n    tag_28:\n        /* \"#utility.yul\":10550:10627   */\n      0x4e487b7100000000000000000000000000000000000000000000000000000000\n        /* \"#utility.yul\":10547:10548   */\n      0x00\n        /* \"#utility.yul\":10540:10628   */\n      mstore\n        /* \"#utility.yul\":10647:10651   */\n      0x32\n        /* \"#utility.yul\":10644:10645   */\n      0x04\n        /* \"#utility.yul\":10637:10652   */\n      mstore\n        /* \"#utility.yul\":10671:10675   */\n      0x24\n        /* \"#utility.yul\":10668:10669   */\n      0x00\n        /* \"#utility.yul\":10661:10676   */\n      revert\n        /* \"#utility.yul\":10688:10868   */\n    tag_201:\n        /* \"#utility.yul\":10736:10813   */\n      0x4e487b7100000000000000000000000000000000000000000000000000000000\n        /* \"#utility.yul\":10733:10734   */\n      0x00\n        /* \"#utility.yul\":10726:10814   */\n      mstore\n        /* \"#utility.yul\":10833:10837   */\n      0x41\n        /* \"#utility.yul\":10830:10831   */\n      0x04\n        /* \"#utility.yul\":10823:10838   */\n      mstore\n        /* \"#utility.yul\":10857:10861   */\n      0x24\n        /* \"#utility.yul\":10854:10855   */\n      0x00\n        /* \"#utility.yul\":10847:10862   */\n      revert\n        /* \"#utility.yul\":10874:10991   */\n    tag_124:\n        /* \"#utility.yul\":10983:10984   */\n      0x00\n        /* \"#utility.yul\":10980:10981   */\n      dup1\n        /* \"#utility.yul\":10973:10985   */\n      revert\n        /* \"#utility.yul\":10997:11114   */\n    tag_109:\n        /* \"#utility.yul\":11106:11107   */\n      0x00\n        /* \"#utility.yul\":11103:11104   */\n      dup1\n        /* \"#utility.yul\":11096:11108   */\n      revert\n        /* \"#utility.yul\":11120:11237   */\n    tag_136:\n        /* \"#utility.yul\":11229:11230   */\n      0x00\n        /* \"#utility.yul\":11226:11227   */\n      dup1\n        /* \"#utility.yul\":11219:11231   */\n      revert\n        /* \"#utility.yul\":11243:11360   */\n    tag_133:\n        /* \"#utility.yul\":11352:11353   */\n      0x00\n        /* \"#utility.yul\":11349:11350   */\n      dup1\n        /* \"#utility.yul\":11342:11354   */\n      revert\n        /* \"#utility.yul\":11366:11468   */\n    tag_176:\n        /* \"#utility.yul\":11407:11413   */\n      0x00\n        /* \"#utility.yul\":11458:11460   */\n      0x1f\n        /* \"#utility.yul\":11454:11461   */\n      not\n        /* \"#utility.yul\":11449:11451   */\n      0x1f\n        /* \"#utility.yul\":11442:11447   */\n      dup4\n        /* \"#utility.yul\":11438:11452   */\n      add\n        /* \"#utility.yul\":11434:11462   */\n      and\n        /* \"#utility.yul\":11424:11462   */\n      swap1\n      pop\n        /* \"#utility.yul\":11366:11468   */\n      swap2\n      swap1\n      pop\n      jump\t// out\n        /* \"#utility.yul\":11474:11598   */\n    tag_223:\n        /* \"#utility.yul\":11566:11567   */\n      0x02\n        /* \"#utility.yul\":11559:11564   */\n      dup2\n        /* \"#utility.yul\":11556:11568   */\n      lt\n        /* \"#utility.yul\":11546:11592   */\n      tag_258\n      jumpi\n        /* \"#utility.yul\":11572:11590   */\n      tag_259\n      tag_41\n      jump\t// in\n    tag_259:\n        /* \"#utility.yul\":11546:11592   */\n    tag_258:\n        /* \"#utility.yul\":11474:11598   */\n      pop\n      jump\t// out\n        /* \"#utility.yul\":11604:11726   */\n    tag_115:\n        /* \"#utility.yul\":11677:11701   */\n      tag_261\n        /* \"#utility.yul\":11695:11700   */\n      dup2\n        /* \"#utility.yul\":11677:11701   */\n      tag_158\n      jump\t// in\n    tag_261:\n        /* \"#utility.yul\":11670:11675   */\n      dup2\n        /* \"#utility.yul\":11667:11702   */\n      eq\n        /* \"#utility.yul\":11657:11720   */\n      tag_262\n      jumpi\n        /* \"#utility.yul\":11716:11717   */\n      0x00\n        /* \"#utility.yul\":11713:11714   */\n      dup1\n        /* \"#utility.yul\":11706:11718   */\n      revert\n        /* \"#utility.yul\":11657:11720   */\n    tag_262:\n        /* \"#utility.yul\":11604:11726   */\n      pop\n      jump\t// out\n        /* \"#utility.yul\":11732:11850   */\n    tag_119:\n        /* \"#utility.yul\":11824:11825   */\n      0x02\n        /* \"#utility.yul\":11817:11822   */\n      dup2\n        /* \"#utility.yul\":11814:11826   */\n      lt\n        /* \"#utility.yul\":11804:11844   */\n      tag_264\n      jumpi\n        /* \"#utility.yul\":11840:11841   */\n      0x00\n        /* \"#utility.yul\":11837:11838   */\n      dup1\n        /* \"#utility.yul\":11830:11842   */\n      revert\n        /* \"#utility.yul\":11804:11844   */\n    tag_264:\n        /* \"#utility.yul\":11732:11850   */\n      pop\n      jump\t// out\n        /* \"#utility.yul\":11856:11978   */\n    tag_129:\n        /* \"#utility.yul\":11929:11953   */\n      tag_266\n        /* \"#utility.yul\":11947:11952   */\n      dup2\n        /* \"#utility.yul\":11929:11953   */\n      tag_187\n      jump\t// in\n    tag_266:\n        /* \"#utility.yul\":11922:11927   */\n      dup2\n        /* \"#utility.yul\":11919:11954   */\n      eq\n        /* \"#utility.yul\":11909:11972   */\n      tag_267\n      jumpi\n        /* \"#utility.yul\":11968:11969   */\n      0x00\n        /* \"#utility.yul\":11965:11966   */\n      dup1\n        /* \"#utility.yul\":11958:11970   */\n      revert\n        /* \"#utility.yul\":11909:11972   */\n    tag_267:\n        /* \"#utility.yul\":11856:11978   */\n      pop\n      jump\t// out\n\n    auxdata: 0xa264697066735822122019de2c6740744af561c73753de0714977ee91fb6d8eb3f0ae6322c1e57924d6064736f6c63430008070033\n}\n",
				"bytecode": {
					"linkReferences": {},
					"object": "6080604052600080553480156200001557600080fd5b50620000766040518060400160405280600381526020017f546f6d0000000000000000000000000000000000000000000000000000000000815250600161012c735b38da6a701c568545dcfcb03fcb875f56beddc46200007c60201b60201c565b6200046f565b600080815480929190620000909062000394565b919050555060016040518060a001604052806000548152602001868152602001856001811115620000c657620000c562000411565b5b81526020016201518085620000dc9190620002f3565b42620000e9919062000296565b81526020018373ffffffffffffffffffffffffffffffffffffffff16815250908060018154018082558091505060019003906000526020600020906005020160009091909190915060008201518160000155602082015181600101908051906020019062000159929190620001e6565b5060408201518160020160006101000a81548160ff0219169083600181111562000188576200018762000411565b5b02179055506060820151816003015560808201518160040160006101000a81548173ffffffffffffffffffffffffffffffffffffffff021916908373ffffffffffffffffffffffffffffffffffffffff160217905550505050505050565b828054620001f4906200035e565b90600052602060002090601f01602090048101928262000218576000855562000264565b82601f106200023357805160ff191683800117855562000264565b8280016001018555821562000264579182015b828111156200026357825182559160200191906001019062000246565b5b50905062000273919062000277565b5090565b5b808211156200029257600081600090555060010162000278565b5090565b6000620002a38262000354565b9150620002b08362000354565b9250827fffffffffffffffffffffffffffffffffffffffffffffffffffffffffffffffff03821115620002e857620002e7620003e2565b5b828201905092915050565b6000620003008262000354565b91506200030d8362000354565b9250817fffffffffffffffffffffffffffffffffffffffffffffffffffffffffffffffff0483118215151615620003495762000348620003e2565b5b828202905092915050565b6000819050919050565b600060028204905060018216806200037757607f821691505b602082108114156200038e576200038d62000440565b5b50919050565b6000620003a18262000354565b91507fffffffffffffffffffffffffffffffffffffffffffffffffffffffffffffffff821415620003d757620003d6620003e2565b5b600182019050919050565b7f4e487b7100000000000000000000000000000000000000000000000000000000600052601160045260246000fd5b7f4e487b7100000000000000000000000000000000000000000000000000000000600052602160045260246000fd5b7f4e487b7100000000000000000000000000000000000000000000000000000000600052602260045260246000fd5b610db2806200047f6000396000f3fe608060405234801561001057600080fd5b50600436106100415760003560e01c8063196502c914610046578063cee2c18114610076578063eb876f2714610092575b600080fd5b610060600480360381019061005b91906107de565b6100c2565b60405161006d9190610960565b60405180910390f35b610090600480360381019061008b919061072e565b61025e565b005b6100ac60048036038101906100a791906107b1565b6103ba565b6040516100b9919061097b565b60405180910390f35b600080600090505b60018054905081101561024f5786600182815481106100ec576100eb610ca7565b5b906000526020600020906005020160000154141561023c57856001828154811061011957610118610ca7565b5b9060005260206000209060050201600101908051906020019061013d929190610585565b50846001828154811061015357610152610ca7565b5b906000526020600020906005020160020160006101000a81548160ff0219169083600181111561018657610185610c49565b5b0217905550620151808461019a9190610a65565b426101a59190610a0f565b600182815481106101b9576101b8610ca7565b5b90600052602060002090600502016003018190555082600182815481106101e3576101e2610ca7565b5b906000526020600020906005020160040160006101000a81548173ffffffffffffffffffffffffffffffffffffffff021916908373ffffffffffffffffffffffffffffffffffffffff1602179055506001915050610255565b808061024790610bd1565b9150506100ca565b50600090505b95945050505050565b60008081548092919061027090610bd1565b919050555060016040518060a0016040528060005481526020018681526020018560018111156102a3576102a2610c49565b5b815260200162015180856102b79190610a65565b426102c29190610a0f565b81526020018373ffffffffffffffffffffffffffffffffffffffff168152509080600181540180825580915050600190039060005260206000209060050201600090919091909150600082015181600001556020820151816001019080519060200190610330929190610585565b5060408201518160020160006101000a81548160ff0219169083600181111561035c5761035b610c49565b5b02179055506060820151816003015560808201518160040160006101000a81548173ffffffffffffffffffffffffffffffffffffffff021916908373ffffffffffffffffffffffffffffffffffffffff160217905550505050505050565b6103c261060b565b60005b60018054905081101561057e5782600182815481106103e7576103e6610ca7565b5b906000526020600020906005020160000154141561056b576001818154811061041357610412610ca7565b5b90600052602060002090600502016040518060a00160405290816000820154815260200160018201805461044690610b6e565b80601f016020809104026020016040519081016040528092919081815260200182805461047290610b6e565b80156104bf5780601f10610494576101008083540402835291602001916104bf565b820191906000526020600020905b8154815290600101906020018083116104a257829003601f168201915b505050505081526020016002820160009054906101000a900460ff1660018111156104ed576104ec610c49565b5b60018111156104ff576104fe610c49565b5b8152602001600382015481526020016004820160009054906101000a900473ffffffffffffffffffffffffffffffffffffffff1673ffffffffffffffffffffffffffffffffffffffff1673ffffffffffffffffffffffffffffffffffffffff1681525050915050610580565b808061057690610bd1565b9150506103c5565b505b919050565b82805461059190610b6e565b90600052602060002090601f0160209004810192826105b357600085556105fa565b82601f106105cc57805160ff19168380011785556105fa565b828001600101855582156105fa579182015b828111156105f95782518255916020019190600101906105de565b5b5090506106079190610662565b5090565b6040518060a0016040528060008152602001606081526020016000600181111561063857610637610c49565b5b815260200160008152602001600073ffffffffffffffffffffffffffffffffffffffff1681525090565b5b8082111561067b576000816000905550600101610663565b5090565b600061069261068d846109c2565b61099d565b9050828152602081018484840111156106ae576106ad610d0a565b5b6106b9848285610b2c565b509392505050565b6000813590506106d081610d3e565b92915050565b6000813590506106e581610d55565b92915050565b600082601f830112610700576106ff610d05565b5b813561071084826020860161067f565b91505092915050565b60008135905061072881610d65565b92915050565b6000806000806080858703121561074857610747610d14565b5b600085013567ffffffffffffffff81111561076657610765610d0f565b5b610772878288016106eb565b9450506020610783878288016106d6565b935050604061079487828801610719565b92505060606107a5878288016106c1565b91505092959194509250565b6000602082840312156107c7576107c6610d14565b5b60006107d584828501610719565b91505092915050565b600080600080600060a086880312156107fa576107f9610d14565b5b600061080888828901610719565b955050602086013567ffffffffffffffff81111561082957610828610d0f565b5b610835888289016106eb565b9450506040610846888289016106d6565b935050606061085788828901610719565b9250506080610868888289016106c1565b9150509295509295909350565b61087e81610abf565b82525050565b61088d81610ad1565b82525050565b61089c81610b1a565b82525050565b60006108ad826109f3565b6108b781856109fe565b93506108c7818560208601610b3b565b6108d081610d19565b840191505092915050565b600060a0830160008301516108f36000860182610951565b506020830151848203602086015261090b82826108a2565b91505060408301516109206040860182610893565b5060608301516109336060860182610951565b5060808301516109466080860182610875565b508091505092915050565b61095a81610b10565b82525050565b60006020820190506109756000830184610884565b92915050565b6000602082019050818103600083015261099581846108db565b905092915050565b60006109a76109b8565b90506109b38282610ba0565b919050565b6000604051905090565b600067ffffffffffffffff8211156109dd576109dc610cd6565b5b6109e682610d19565b9050602081019050919050565b600081519050919050565b600082825260208201905092915050565b6000610a1a82610b10565b9150610a2583610b10565b9250827fffffffffffffffffffffffffffffffffffffffffffffffffffffffffffffffff03821115610a5a57610a59610c1a565b5b828201905092915050565b6000610a7082610b10565b9150610a7b83610b10565b9250817fffffffffffffffffffffffffffffffffffffffffffffffffffffffffffffffff0483118215151615610ab457610ab3610c1a565b5b828202905092915050565b6000610aca82610af0565b9050919050565b60008115159050919050565b6000819050610aeb82610d2a565b919050565b600073ffffffffffffffffffffffffffffffffffffffff82169050919050565b6000819050919050565b6000610b2582610add565b9050919050565b82818337600083830152505050565b60005b83811015610b59578082015181840152602081019050610b3e565b83811115610b68576000848401525b50505050565b60006002820490506001821680610b8657607f821691505b60208210811415610b9a57610b99610c78565b5b50919050565b610ba982610d19565b810181811067ffffffffffffffff82111715610bc857610bc7610cd6565b5b80604052505050565b6000610bdc82610b10565b91507fffffffffffffffffffffffffffffffffffffffffffffffffffffffffffffffff821415610c0f57610c0e610c1a565b5b600182019050919050565b7f4e487b7100000000000000000000000000000000000000000000000000000000600052601160045260246000fd5b7f4e487b7100000000000000000000000000000000000000000000000000000000600052602160045260246000fd5b7f4e487b7100000000000000000000000000000000000000000000000000000000600052602260045260246000fd5b7f4e487b7100000000000000000000000000000000000000000000000000000000600052603260045260246000fd5b7f4e487b7100000000000000000000000000000000000000000000000000000000600052604160045260246000fd5b600080fd5b600080fd5b600080fd5b600080fd5b6000601f19601f8301169050919050565b60028110610d3b57610d3a610c49565b5b50565b610d4781610abf565b8114610d5257600080fd5b50565b60028110610d6257600080fd5b50565b610d6e81610b10565b8114610d7957600080fd5b5056fea264697066735822122019de2c6740744af561c73753de0714977ee91fb6d8eb3f0ae6322c1e57924d6064736f6c63430008070033",
					"opcodes": "PUSH1 0x80 PUSH1 0x40 MSTORE PUSH1 0x0 DUP1 SSTORE CALLVALUE DUP1 ISZERO PUSH3 0x15 JUMPI PUSH1 0x0 DUP1 REVERT JUMPDEST POP PUSH3 0x76 PUSH1 0x40 MLOAD DUP1 PUSH1 0x40 ADD PUSH1 0x40 MSTORE DUP1 PUSH1 0x3 DUP2 MSTORE PUSH1 0x20 ADD PUSH32 0x546F6D0000000000000000000000000000000000000000000000000000000000 DUP2 MSTORE POP PUSH1 0x1 PUSH2 0x12C PUSH20 0x5B38DA6A701C568545DCFCB03FCB875F56BEDDC4 PUSH3 0x7C PUSH1 0x20 SHL PUSH1 0x20 SHR JUMP JUMPDEST PUSH3 0x46F JUMP JUMPDEST PUSH1 0x0 DUP1 DUP2 SLOAD DUP1 SWAP3 SWAP2 SWAP1 PUSH3 0x90 SWAP1 PUSH3 0x394 JUMP JUMPDEST SWAP2 SWAP1 POP SSTORE POP PUSH1 0x1 PUSH1 0x40 MLOAD DUP1 PUSH1 0xA0 ADD PUSH1 0x40 MSTORE DUP1 PUSH1 0x0 SLOAD DUP2 MSTORE PUSH1 0x20 ADD DUP7 DUP2 MSTORE PUSH1 0x20 ADD DUP6 PUSH1 0x1 DUP2 GT ISZERO PUSH3 0xC6 JUMPI PUSH3 0xC5 PUSH3 0x411 JUMP JUMPDEST JUMPDEST DUP2 MSTORE PUSH1 0x20 ADD PUSH3 0x15180 DUP6 PUSH3 0xDC SWAP2 SWAP1 PUSH3 0x2F3 JUMP JUMPDEST TIMESTAMP PUSH3 0xE9 SWAP2 SWAP1 PUSH3 0x296 JUMP JUMPDEST DUP2 MSTORE PUSH1 0x20 ADD DUP4 PUSH20 0xFFFFFFFFFFFFFFFFFFFFFFFFFFFFFFFFFFFFFFFF AND DUP2 MSTORE POP SWAP1 DUP1 PUSH1 0x1 DUP2 SLOAD ADD DUP1 DUP3 SSTORE DUP1 SWAP2 POP POP PUSH1 0x1 SWAP1 SUB SWAP1 PUSH1 0x0 MSTORE PUSH1 0x20 PUSH1 0x0 KECCAK256 SWAP1 PUSH1 0x5 MUL ADD PUSH1 0x0 SWAP1 SWAP2 SWAP1 SWAP2 SWAP1 SWAP2 POP PUSH1 0x0 DUP3 ADD MLOAD DUP2 PUSH1 0x0 ADD SSTORE PUSH1 0x20 DUP3 ADD MLOAD DUP2 PUSH1 0x1 ADD SWAP1 DUP1 MLOAD SWAP1 PUSH1 0x20 ADD SWAP1 PUSH3 0x159 SWAP3 SWAP2 SWAP1 PUSH3 0x1E6 JUMP JUMPDEST POP PUSH1 0x40 DUP3 ADD MLOAD DUP2 PUSH1 0x2 ADD PUSH1 0x0 PUSH2 0x100 EXP DUP2 SLOAD DUP2 PUSH1 0xFF MUL NOT AND SWAP1 DUP4 PUSH1 0x1 DUP2 GT ISZERO PUSH3 0x188 JUMPI PUSH3 0x187 PUSH3 0x411 JUMP JUMPDEST JUMPDEST MUL OR SWAP1 SSTORE POP PUSH1 0x60 DUP3 ADD MLOAD DUP2 PUSH1 0x3 ADD SSTORE PUSH1 0x80 DUP3 ADD MLOAD DUP2 PUSH1 0x4 ADD PUSH1 0x0 PUSH2 0x100 EXP DUP2 SLOAD DUP2 PUSH20 0xFFFFFFFFFFFFFFFFFFFFFFFFFFFFFFFFFFFFFFFF MUL NOT AND SWAP1 DUP4 PUSH20 0xFFFFFFFFFFFFFFFFFFFFFFFFFFFFFFFFFFFFFFFF AND MUL OR SWAP1 SSTORE POP POP POP POP POP POP POP JUMP JUMPDEST DUP3 DUP1 SLOAD PUSH3 0x1F4 SWAP1 PUSH3 0x35E JUMP JUMPDEST SWAP1 PUSH1 0x0 MSTORE PUSH1 0x20 PUSH1 0x0 KECCAK256 SWAP1 PUSH1 0x1F ADD PUSH1 0x20 SWAP1 DIV DUP2 ADD SWAP3 DUP3 PUSH3 0x218 JUMPI PUSH1 0x0 DUP6 SSTORE PUSH3 0x264 JUMP JUMPDEST DUP3 PUSH1 0x1F LT PUSH3 0x233 JUMPI DUP1 MLOAD PUSH1 0xFF NOT AND DUP4 DUP1 ADD OR DUP6 SSTORE PUSH3 0x264 JUMP JUMPDEST DUP3 DUP1 ADD PUSH1 0x1 ADD DUP6 SSTORE DUP3 ISZERO PUSH3 0x264 JUMPI SWAP2 DUP3 ADD JUMPDEST DUP3 DUP2 GT ISZERO PUSH3 0x263 JUMPI DUP3 MLOAD DUP3 SSTORE SWAP2 PUSH1 0x20 ADD SWAP2 SWAP1 PUSH1 0x1 ADD SWAP1 PUSH3 0x246 JUMP JUMPDEST JUMPDEST POP SWAP1 POP PUSH3 0x273 SWAP2 SWAP1 PUSH3 0x277 JUMP JUMPDEST POP SWAP1 JUMP JUMPDEST JUMPDEST DUP1 DUP3 GT ISZERO PUSH3 0x292 JUMPI PUSH1 0x0 DUP2 PUSH1 0x0 SWAP1 SSTORE POP PUSH1 0x1 ADD PUSH3 0x278 JUMP JUMPDEST POP SWAP1 JUMP JUMPDEST PUSH1 0x0 PUSH3 0x2A3 DUP3 PUSH3 0x354 JUMP JUMPDEST SWAP2 POP PUSH3 0x2B0 DUP4 PUSH3 0x354 JUMP JUMPDEST SWAP3 POP DUP3 PUSH32 0xFFFFFFFFFFFFFFFFFFFFFFFFFFFFFFFFFFFFFFFFFFFFFFFFFFFFFFFFFFFFFFFF SUB DUP3 GT ISZERO PUSH3 0x2E8 JUMPI PUSH3 0x2E7 PUSH3 0x3E2 JUMP JUMPDEST JUMPDEST DUP3 DUP3 ADD SWAP1 POP SWAP3 SWAP2 POP POP JUMP JUMPDEST PUSH1 0x0 PUSH3 0x300 DUP3 PUSH3 0x354 JUMP JUMPDEST SWAP2 POP PUSH3 0x30D DUP4 PUSH3 0x354 JUMP JUMPDEST SWAP3 POP DUP2 PUSH32 0xFFFFFFFFFFFFFFFFFFFFFFFFFFFFFFFFFFFFFFFFFFFFFFFFFFFFFFFFFFFFFFFF DIV DUP4 GT DUP3 ISZERO ISZERO AND ISZERO PUSH3 0x349 JUMPI PUSH3 0x348 PUSH3 0x3E2 JUMP JUMPDEST JUMPDEST DUP3 DUP3 MUL SWAP1 POP SWAP3 SWAP2 POP POP JUMP JUMPDEST PUSH1 0x0 DUP2 SWAP1 POP SWAP2 SWAP1 POP JUMP JUMPDEST PUSH1 0x0 PUSH1 0x2 DUP3 DIV SWAP1 POP PUSH1 0x1 DUP3 AND DUP1 PUSH3 0x377 JUMPI PUSH1 0x7F DUP3 AND SWAP2 POP JUMPDEST PUSH1 0x20 DUP3 LT DUP2 EQ ISZERO PUSH3 0x38E JUMPI PUSH3 0x38D PUSH3 0x440 JUMP JUMPDEST JUMPDEST POP SWAP2 SWAP1 POP JUMP JUMPDEST PUSH1 0x0 PUSH3 0x3A1 DUP3 PUSH3 0x354 JUMP JUMPDEST SWAP2 POP PUSH32 0xFFFFFFFFFFFFFFFFFFFFFFFFFFFFFFFFFFFFFFFFFFFFFFFFFFFFFFFFFFFFFFFF DUP3 EQ ISZERO PUSH3 0x3D7 JUMPI PUSH3 0x3D6 PUSH3 0x3E2 JUMP JUMPDEST JUMPDEST PUSH1 0x1 DUP3 ADD SWAP1 POP SWAP2 SWAP1 POP JUMP JUMPDEST PUSH32 0x4E487B7100000000000000000000000000000000000000000000000000000000 PUSH1 0x0 MSTORE PUSH1 0x11 PUSH1 0x4 MSTORE PUSH1 0x24 PUSH1 0x0 REVERT JUMPDEST PUSH32 0x4E487B7100000000000000000000000000000000000000000000000000000000 PUSH1 0x0 MSTORE PUSH1 0x21 PUSH1 0x4 MSTORE PUSH1 0x24 PUSH1 0x0 REVERT JUMPDEST PUSH32 0x4E487B7100000000000000000000000000000000000000000000000000000000 PUSH1 0x0 MSTORE PUSH1 0x22 PUSH1 0x4 MSTORE PUSH1 0x24 PUSH1 0x0 REVERT JUMPDEST PUSH2 0xDB2 DUP1 PUSH3 0x47F PUSH1 0x0 CODECOPY PUSH1 0x0 RETURN INVALID PUSH1 0x80 PUSH1 0x40 MSTORE CALLVALUE DUP1 ISZERO PUSH2 0x10 JUMPI PUSH1 0x0 DUP1 REVERT JUMPDEST POP PUSH1 0x4 CALLDATASIZE LT PUSH2 0x41 JUMPI PUSH1 0x0 CALLDATALOAD PUSH1 0xE0 SHR DUP1 PUSH4 0x196502C9 EQ PUSH2 0x46 JUMPI DUP1 PUSH4 0xCEE2C181 EQ PUSH2 0x76 JUMPI DUP1 PUSH4 0xEB876F27 EQ PUSH2 0x92 JUMPI JUMPDEST PUSH1 0x0 DUP1 REVERT JUMPDEST PUSH2 0x60 PUSH1 0x4 DUP1 CALLDATASIZE SUB DUP2 ADD SWAP1 PUSH2 0x5B SWAP2 SWAP1 PUSH2 0x7DE JUMP JUMPDEST PUSH2 0xC2 JUMP JUMPDEST PUSH1 0x40 MLOAD PUSH2 0x6D SWAP2 SWAP1 PUSH2 0x960 JUMP JUMPDEST PUSH1 0x40 MLOAD DUP1 SWAP2 SUB SWAP1 RETURN JUMPDEST PUSH2 0x90 PUSH1 0x4 DUP1 CALLDATASIZE SUB DUP2 ADD SWAP1 PUSH2 0x8B SWAP2 SWAP1 PUSH2 0x72E JUMP JUMPDEST PUSH2 0x25E JUMP JUMPDEST STOP JUMPDEST PUSH2 0xAC PUSH1 0x4 DUP1 CALLDATASIZE SUB DUP2 ADD SWAP1 PUSH2 0xA7 SWAP2 SWAP1 PUSH2 0x7B1 JUMP JUMPDEST PUSH2 0x3BA JUMP JUMPDEST PUSH1 0x40 MLOAD PUSH2 0xB9 SWAP2 SWAP1 PUSH2 0x97B JUMP JUMPDEST PUSH1 0x40 MLOAD DUP1 SWAP2 SUB SWAP1 RETURN JUMPDEST PUSH1 0x0 DUP1 PUSH1 0x0 SWAP1 POP JUMPDEST PUSH1 0x1 DUP1 SLOAD SWAP1 POP DUP2 LT ISZERO PUSH2 0x24F JUMPI DUP7 PUSH1 0x1 DUP3 DUP2 SLOAD DUP2 LT PUSH2 0xEC JUMPI PUSH2 0xEB PUSH2 0xCA7 JUMP JUMPDEST JUMPDEST SWAP1 PUSH1 0x0 MSTORE PUSH1 0x20 PUSH1 0x0 KECCAK256 SWAP1 PUSH1 0x5 MUL ADD PUSH1 0x0 ADD SLOAD EQ ISZERO PUSH2 0x23C JUMPI DUP6 PUSH1 0x1 DUP3 DUP2 SLOAD DUP2 LT PUSH2 0x119 JUMPI PUSH2 0x118 PUSH2 0xCA7 JUMP JUMPDEST JUMPDEST SWAP1 PUSH1 0x0 MSTORE PUSH1 0x20 PUSH1 0x0 KECCAK256 SWAP1 PUSH1 0x5 MUL ADD PUSH1 0x1 ADD SWAP1 DUP1 MLOAD SWAP1 PUSH1 0x20 ADD SWAP1 PUSH2 0x13D SWAP3 SWAP2 SWAP1 PUSH2 0x585 JUMP JUMPDEST POP DUP5 PUSH1 0x1 DUP3 DUP2 SLOAD DUP2 LT PUSH2 0x153 JUMPI PUSH2 0x152 PUSH2 0xCA7 JUMP JUMPDEST JUMPDEST SWAP1 PUSH1 0x0 MSTORE PUSH1 0x20 PUSH1 0x0 KECCAK256 SWAP1 PUSH1 0x5 MUL ADD PUSH1 0x2 ADD PUSH1 0x0 PUSH2 0x100 EXP DUP2 SLOAD DUP2 PUSH1 0xFF MUL NOT AND SWAP1 DUP4 PUSH1 0x1 DUP2 GT ISZERO PUSH2 0x186 JUMPI PUSH2 0x185 PUSH2 0xC49 JUMP JUMPDEST JUMPDEST MUL OR SWAP1 SSTORE POP PUSH3 0x15180 DUP5 PUSH2 0x19A SWAP2 SWAP1 PUSH2 0xA65 JUMP JUMPDEST TIMESTAMP PUSH2 0x1A5 SWAP2 SWAP1 PUSH2 0xA0F JUMP JUMPDEST PUSH1 0x1 DUP3 DUP2 SLOAD DUP2 LT PUSH2 0x1B9 JUMPI PUSH2 0x1B8 PUSH2 0xCA7 JUMP JUMPDEST JUMPDEST SWAP1 PUSH1 0x0 MSTORE PUSH1 0x20 PUSH1 0x0 KECCAK256 SWAP1 PUSH1 0x5 MUL ADD PUSH1 0x3 ADD DUP2 SWAP1 SSTORE POP DUP3 PUSH1 0x1 DUP3 DUP2 SLOAD DUP2 LT PUSH2 0x1E3 JUMPI PUSH2 0x1E2 PUSH2 0xCA7 JUMP JUMPDEST JUMPDEST SWAP1 PUSH1 0x0 MSTORE PUSH1 0x20 PUSH1 0x0 KECCAK256 SWAP1 PUSH1 0x5 MUL ADD PUSH1 0x4 ADD PUSH1 0x0 PUSH2 0x100 EXP DUP2 SLOAD DUP2 PUSH20 0xFFFFFFFFFFFFFFFFFFFFFFFFFFFFFFFFFFFFFFFF MUL NOT AND SWAP1 DUP4 PUSH20 0xFFFFFFFFFFFFFFFFFFFFFFFFFFFFFFFFFFFFFFFF AND MUL OR SWAP1 SSTORE POP PUSH1 0x1 SWAP2 POP POP PUSH2 0x255 JUMP JUMPDEST DUP1 DUP1 PUSH2 0x247 SWAP1 PUSH2 0xBD1 JUMP JUMPDEST SWAP2 POP POP PUSH2 0xCA JUMP JUMPDEST POP PUSH1 0x0 SWAP1 POP JUMPDEST SWAP6 SWAP5 POP POP POP POP POP JUMP JUMPDEST PUSH1 0x0 DUP1 DUP2 SLOAD DUP1 SWAP3 SWAP2 SWAP1 PUSH2 0x270 SWAP1 PUSH2 0xBD1 JUMP JUMPDEST SWAP2 SWAP1 POP SSTORE POP PUSH1 0x1 PUSH1 0x40 MLOAD DUP1 PUSH1 0xA0 ADD PUSH1 0x40 MSTORE DUP1 PUSH1 0x0 SLOAD DUP2 MSTORE PUSH1 0x20 ADD DUP7 DUP2 MSTORE PUSH1 0x20 ADD DUP6 PUSH1 0x1 DUP2 GT ISZERO PUSH2 0x2A3 JUMPI PUSH2 0x2A2 PUSH2 0xC49 JUMP JUMPDEST JUMPDEST DUP2 MSTORE PUSH1 0x20 ADD PUSH3 0x15180 DUP6 PUSH2 0x2B7 SWAP2 SWAP1 PUSH2 0xA65 JUMP JUMPDEST TIMESTAMP PUSH2 0x2C2 SWAP2 SWAP1 PUSH2 0xA0F JUMP JUMPDEST DUP2 MSTORE PUSH1 0x20 ADD DUP4 PUSH20 0xFFFFFFFFFFFFFFFFFFFFFFFFFFFFFFFFFFFFFFFF AND DUP2 MSTORE POP SWAP1 DUP1 PUSH1 0x1 DUP2 SLOAD ADD DUP1 DUP3 SSTORE DUP1 SWAP2 POP POP PUSH1 0x1 SWAP1 SUB SWAP1 PUSH1 0x0 MSTORE PUSH1 0x20 PUSH1 0x0 KECCAK256 SWAP1 PUSH1 0x5 MUL ADD PUSH1 0x0 SWAP1 SWAP2 SWAP1 SWAP2 SWAP1 SWAP2 POP PUSH1 0x0 DUP3 ADD MLOAD DUP2 PUSH1 0x0 ADD SSTORE PUSH1 0x20 DUP3 ADD MLOAD DUP2 PUSH1 0x1 ADD SWAP1 DUP1 MLOAD SWAP1 PUSH1 0x20 ADD SWAP1 PUSH2 0x330 SWAP3 SWAP2 SWAP1 PUSH2 0x585 JUMP JUMPDEST POP PUSH1 0x40 DUP3 ADD MLOAD DUP2 PUSH1 0x2 ADD PUSH1 0x0 PUSH2 0x100 EXP DUP2 SLOAD DUP2 PUSH1 0xFF MUL NOT AND SWAP1 DUP4 PUSH1 0x1 DUP2 GT ISZERO PUSH2 0x35C JUMPI PUSH2 0x35B PUSH2 0xC49 JUMP JUMPDEST JUMPDEST MUL OR SWAP1 SSTORE POP PUSH1 0x60 DUP3 ADD MLOAD DUP2 PUSH1 0x3 ADD SSTORE PUSH1 0x80 DUP3 ADD MLOAD DUP2 PUSH1 0x4 ADD PUSH1 0x0 PUSH2 0x100 EXP DUP2 SLOAD DUP2 PUSH20 0xFFFFFFFFFFFFFFFFFFFFFFFFFFFFFFFFFFFFFFFF MUL NOT AND SWAP1 DUP4 PUSH20 0xFFFFFFFFFFFFFFFFFFFFFFFFFFFFFFFFFFFFFFFF AND MUL OR SWAP1 SSTORE POP POP POP POP POP POP POP JUMP JUMPDEST PUSH2 0x3C2 PUSH2 0x60B JUMP JUMPDEST PUSH1 0x0 JUMPDEST PUSH1 0x1 DUP1 SLOAD SWAP1 POP DUP2 LT ISZERO PUSH2 0x57E JUMPI DUP3 PUSH1 0x1 DUP3 DUP2 SLOAD DUP2 LT PUSH2 0x3E7 JUMPI PUSH2 0x3E6 PUSH2 0xCA7 JUMP JUMPDEST JUMPDEST SWAP1 PUSH1 0x0 MSTORE PUSH1 0x20 PUSH1 0x0 KECCAK256 SWAP1 PUSH1 0x5 MUL ADD PUSH1 0x0 ADD SLOAD EQ ISZERO PUSH2 0x56B JUMPI PUSH1 0x1 DUP2 DUP2 SLOAD DUP2 LT PUSH2 0x413 JUMPI PUSH2 0x412 PUSH2 0xCA7 JUMP JUMPDEST JUMPDEST SWAP1 PUSH1 0x0 MSTORE PUSH1 0x20 PUSH1 0x0 KECCAK256 SWAP1 PUSH1 0x5 MUL ADD PUSH1 0x40 MLOAD DUP1 PUSH1 0xA0 ADD PUSH1 0x40 MSTORE SWAP1 DUP2 PUSH1 0x0 DUP3 ADD SLOAD DUP2 MSTORE PUSH1 0x20 ADD PUSH1 0x1 DUP3 ADD DUP1 SLOAD PUSH2 0x446 SWAP1 PUSH2 0xB6E JUMP JUMPDEST DUP1 PUSH1 0x1F ADD PUSH1 0x20 DUP1 SWAP2 DIV MUL PUSH1 0x20 ADD PUSH1 0x40 MLOAD SWAP1 DUP2 ADD PUSH1 0x40 MSTORE DUP1 SWAP3 SWAP2 SWAP1 DUP2 DUP2 MSTORE PUSH1 0x20 ADD DUP3 DUP1 SLOAD PUSH2 0x472 SWAP1 PUSH2 0xB6E JUMP JUMPDEST DUP1 ISZERO PUSH2 0x4BF JUMPI DUP1 PUSH1 0x1F LT PUSH2 0x494 JUMPI PUSH2 0x100 DUP1 DUP4 SLOAD DIV MUL DUP4 MSTORE SWAP2 PUSH1 0x20 ADD SWAP2 PUSH2 0x4BF JUMP JUMPDEST DUP3 ADD SWAP2 SWAP1 PUSH1 0x0 MSTORE PUSH1 0x20 PUSH1 0x0 KECCAK256 SWAP1 JUMPDEST DUP2 SLOAD DUP2 MSTORE SWAP1 PUSH1 0x1 ADD SWAP1 PUSH1 0x20 ADD DUP1 DUP4 GT PUSH2 0x4A2 JUMPI DUP3 SWAP1 SUB PUSH1 0x1F AND DUP3 ADD SWAP2 JUMPDEST POP POP POP POP POP DUP2 MSTORE PUSH1 0x20 ADD PUSH1 0x2 DUP3 ADD PUSH1 0x0 SWAP1 SLOAD SWAP1 PUSH2 0x100 EXP SWAP1 DIV PUSH1 0xFF AND PUSH1 0x1 DUP2 GT ISZERO PUSH2 0x4ED JUMPI PUSH2 0x4EC PUSH2 0xC49 JUMP JUMPDEST JUMPDEST PUSH1 0x1 DUP2 GT ISZERO PUSH2 0x4FF JUMPI PUSH2 0x4FE PUSH2 0xC49 JUMP JUMPDEST JUMPDEST DUP2 MSTORE PUSH1 0x20 ADD PUSH1 0x3 DUP3 ADD SLOAD DUP2 MSTORE PUSH1 0x20 ADD PUSH1 0x4 DUP3 ADD PUSH1 0x0 SWAP1 SLOAD SWAP1 PUSH2 0x100 EXP SWAP1 DIV PUSH20 0xFFFFFFFFFFFFFFFFFFFFFFFFFFFFFFFFFFFFFFFF AND PUSH20 0xFFFFFFFFFFFFFFFFFFFFFFFFFFFFFFFFFFFFFFFF AND PUSH20 0xFFFFFFFFFFFFFFFFFFFFFFFFFFFFFFFFFFFFFFFF AND DUP2 MSTORE POP POP SWAP2 POP POP PUSH2 0x580 JUMP JUMPDEST DUP1 DUP1 PUSH2 0x576 SWAP1 PUSH2 0xBD1 JUMP JUMPDEST SWAP2 POP POP PUSH2 0x3C5 JUMP JUMPDEST POP JUMPDEST SWAP2 SWAP1 POP JUMP JUMPDEST DUP3 DUP1 SLOAD PUSH2 0x591 SWAP1 PUSH2 0xB6E JUMP JUMPDEST SWAP1 PUSH1 0x0 MSTORE PUSH1 0x20 PUSH1 0x0 KECCAK256 SWAP1 PUSH1 0x1F ADD PUSH1 0x20 SWAP1 DIV DUP2 ADD SWAP3 DUP3 PUSH2 0x5B3 JUMPI PUSH1 0x0 DUP6 SSTORE PUSH2 0x5FA JUMP JUMPDEST DUP3 PUSH1 0x1F LT PUSH2 0x5CC JUMPI DUP1 MLOAD PUSH1 0xFF NOT AND DUP4 DUP1 ADD OR DUP6 SSTORE PUSH2 0x5FA JUMP JUMPDEST DUP3 DUP1 ADD PUSH1 0x1 ADD DUP6 SSTORE DUP3 ISZERO PUSH2 0x5FA JUMPI SWAP2 DUP3 ADD JUMPDEST DUP3 DUP2 GT ISZERO PUSH2 0x5F9 JUMPI DUP3 MLOAD DUP3 SSTORE SWAP2 PUSH1 0x20 ADD SWAP2 SWAP1 PUSH1 0x1 ADD SWAP1 PUSH2 0x5DE JUMP JUMPDEST JUMPDEST POP SWAP1 POP PUSH2 0x607 SWAP2 SWAP1 PUSH2 0x662 JUMP JUMPDEST POP SWAP1 JUMP JUMPDEST PUSH1 0x40 MLOAD DUP1 PUSH1 0xA0 ADD PUSH1 0x40 MSTORE DUP1 PUSH1 0x0 DUP2 MSTORE PUSH1 0x20 ADD PUSH1 0x60 DUP2 MSTORE PUSH1 0x20 ADD PUSH1 0x0 PUSH1 0x1 DUP2 GT ISZERO PUSH2 0x638 JUMPI PUSH2 0x637 PUSH2 0xC49 JUMP JUMPDEST JUMPDEST DUP2 MSTORE PUSH1 0x20 ADD PUSH1 0x0 DUP2 MSTORE PUSH1 0x20 ADD PUSH1 0x0 PUSH20 0xFFFFFFFFFFFFFFFFFFFFFFFFFFFFFFFFFFFFFFFF AND DUP2 MSTORE POP SWAP1 JUMP JUMPDEST JUMPDEST DUP1 DUP3 GT ISZERO PUSH2 0x67B JUMPI PUSH1 0x0 DUP2 PUSH1 0x0 SWAP1 SSTORE POP PUSH1 0x1 ADD PUSH2 0x663 JUMP JUMPDEST POP SWAP1 JUMP JUMPDEST PUSH1 0x0 PUSH2 0x692 PUSH2 0x68D DUP5 PUSH2 0x9C2 JUMP JUMPDEST PUSH2 0x99D JUMP JUMPDEST SWAP1 POP DUP3 DUP2 MSTORE PUSH1 0x20 DUP2 ADD DUP5 DUP5 DUP5 ADD GT ISZERO PUSH2 0x6AE JUMPI PUSH2 0x6AD PUSH2 0xD0A JUMP JUMPDEST JUMPDEST PUSH2 0x6B9 DUP5 DUP3 DUP6 PUSH2 0xB2C JUMP JUMPDEST POP SWAP4 SWAP3 POP POP POP JUMP JUMPDEST PUSH1 0x0 DUP2 CALLDATALOAD SWAP1 POP PUSH2 0x6D0 DUP2 PUSH2 0xD3E JUMP JUMPDEST SWAP3 SWAP2 POP POP JUMP JUMPDEST PUSH1 0x0 DUP2 CALLDATALOAD SWAP1 POP PUSH2 0x6E5 DUP2 PUSH2 0xD55 JUMP JUMPDEST SWAP3 SWAP2 POP POP JUMP JUMPDEST PUSH1 0x0 DUP3 PUSH1 0x1F DUP4 ADD SLT PUSH2 0x700 JUMPI PUSH2 0x6FF PUSH2 0xD05 JUMP JUMPDEST JUMPDEST DUP2 CALLDATALOAD PUSH2 0x710 DUP5 DUP3 PUSH1 0x20 DUP7 ADD PUSH2 0x67F JUMP JUMPDEST SWAP2 POP POP SWAP3 SWAP2 POP POP JUMP JUMPDEST PUSH1 0x0 DUP2 CALLDATALOAD SWAP1 POP PUSH2 0x728 DUP2 PUSH2 0xD65 JUMP JUMPDEST SWAP3 SWAP2 POP POP JUMP JUMPDEST PUSH1 0x0 DUP1 PUSH1 0x0 DUP1 PUSH1 0x80 DUP6 DUP8 SUB SLT ISZERO PUSH2 0x748 JUMPI PUSH2 0x747 PUSH2 0xD14 JUMP JUMPDEST JUMPDEST PUSH1 0x0 DUP6 ADD CALLDATALOAD PUSH8 0xFFFFFFFFFFFFFFFF DUP2 GT ISZERO PUSH2 0x766 JUMPI PUSH2 0x765 PUSH2 0xD0F JUMP JUMPDEST JUMPDEST PUSH2 0x772 DUP8 DUP3 DUP9 ADD PUSH2 0x6EB JUMP JUMPDEST SWAP5 POP POP PUSH1 0x20 PUSH2 0x783 DUP8 DUP3 DUP9 ADD PUSH2 0x6D6 JUMP JUMPDEST SWAP4 POP POP PUSH1 0x40 PUSH2 0x794 DUP8 DUP3 DUP9 ADD PUSH2 0x719 JUMP JUMPDEST SWAP3 POP POP PUSH1 0x60 PUSH2 0x7A5 DUP8 DUP3 DUP9 ADD PUSH2 0x6C1 JUMP JUMPDEST SWAP2 POP POP SWAP3 SWAP6 SWAP2 SWAP5 POP SWAP3 POP JUMP JUMPDEST PUSH1 0x0 PUSH1 0x20 DUP3 DUP5 SUB SLT ISZERO PUSH2 0x7C7 JUMPI PUSH2 0x7C6 PUSH2 0xD14 JUMP JUMPDEST JUMPDEST PUSH1 0x0 PUSH2 0x7D5 DUP5 DUP3 DUP6 ADD PUSH2 0x719 JUMP JUMPDEST SWAP2 POP POP SWAP3 SWAP2 POP POP JUMP JUMPDEST PUSH1 0x0 DUP1 PUSH1 0x0 DUP1 PUSH1 0x0 PUSH1 0xA0 DUP7 DUP9 SUB SLT ISZERO PUSH2 0x7FA JUMPI PUSH2 0x7F9 PUSH2 0xD14 JUMP JUMPDEST JUMPDEST PUSH1 0x0 PUSH2 0x808 DUP9 DUP3 DUP10 ADD PUSH2 0x719 JUMP JUMPDEST SWAP6 POP POP PUSH1 0x20 DUP7 ADD CALLDATALOAD PUSH8 0xFFFFFFFFFFFFFFFF DUP2 GT ISZERO PUSH2 0x829 JUMPI PUSH2 0x828 PUSH2 0xD0F JUMP JUMPDEST JUMPDEST PUSH2 0x835 DUP9 DUP3 DUP10 ADD PUSH2 0x6EB JUMP JUMPDEST SWAP5 POP POP PUSH1 0x40 PUSH2 0x846 DUP9 DUP3 DUP10 ADD PUSH2 0x6D6 JUMP JUMPDEST SWAP4 POP POP PUSH1 0x60 PUSH2 0x857 DUP9 DUP3 DUP10 ADD PUSH2 0x719 JUMP JUMPDEST SWAP3 POP POP PUSH1 0x80 PUSH2 0x868 DUP9 DUP3 DUP10 ADD PUSH2 0x6C1 JUMP JUMPDEST SWAP2 POP POP SWAP3 SWAP6 POP SWAP3 SWAP6 SWAP1 SWAP4 POP JUMP JUMPDEST PUSH2 0x87E DUP2 PUSH2 0xABF JUMP JUMPDEST DUP3 MSTORE POP POP JUMP JUMPDEST PUSH2 0x88D DUP2 PUSH2 0xAD1 JUMP JUMPDEST DUP3 MSTORE POP POP JUMP JUMPDEST PUSH2 0x89C DUP2 PUSH2 0xB1A JUMP JUMPDEST DUP3 MSTORE POP POP JUMP JUMPDEST PUSH1 0x0 PUSH2 0x8AD DUP3 PUSH2 0x9F3 JUMP JUMPDEST PUSH2 0x8B7 DUP2 DUP6 PUSH2 0x9FE JUMP JUMPDEST SWAP4 POP PUSH2 0x8C7 DUP2 DUP6 PUSH1 0x20 DUP7 ADD PUSH2 0xB3B JUMP JUMPDEST PUSH2 0x8D0 DUP2 PUSH2 0xD19 JUMP JUMPDEST DUP5 ADD SWAP2 POP POP SWAP3 SWAP2 POP POP JUMP JUMPDEST PUSH1 0x0 PUSH1 0xA0 DUP4 ADD PUSH1 0x0 DUP4 ADD MLOAD PUSH2 0x8F3 PUSH1 0x0 DUP7 ADD DUP3 PUSH2 0x951 JUMP JUMPDEST POP PUSH1 0x20 DUP4 ADD MLOAD DUP5 DUP3 SUB PUSH1 0x20 DUP7 ADD MSTORE PUSH2 0x90B DUP3 DUP3 PUSH2 0x8A2 JUMP JUMPDEST SWAP2 POP POP PUSH1 0x40 DUP4 ADD MLOAD PUSH2 0x920 PUSH1 0x40 DUP7 ADD DUP3 PUSH2 0x893 JUMP JUMPDEST POP PUSH1 0x60 DUP4 ADD MLOAD PUSH2 0x933 PUSH1 0x60 DUP7 ADD DUP3 PUSH2 0x951 JUMP JUMPDEST POP PUSH1 0x80 DUP4 ADD MLOAD PUSH2 0x946 PUSH1 0x80 DUP7 ADD DUP3 PUSH2 0x875 JUMP JUMPDEST POP DUP1 SWAP2 POP POP SWAP3 SWAP2 POP POP JUMP JUMPDEST PUSH2 0x95A DUP2 PUSH2 0xB10 JUMP JUMPDEST DUP3 MSTORE POP POP JUMP JUMPDEST PUSH1 0x0 PUSH1 0x20 DUP3 ADD SWAP1 POP PUSH2 0x975 PUSH1 0x0 DUP4 ADD DUP5 PUSH2 0x884 JUMP JUMPDEST SWAP3 SWAP2 POP POP JUMP JUMPDEST PUSH1 0x0 PUSH1 0x20 DUP3 ADD SWAP1 POP DUP2 DUP2 SUB PUSH1 0x0 DUP4 ADD MSTORE PUSH2 0x995 DUP2 DUP5 PUSH2 0x8DB JUMP JUMPDEST SWAP1 POP SWAP3 SWAP2 POP POP JUMP JUMPDEST PUSH1 0x0 PUSH2 0x9A7 PUSH2 0x9B8 JUMP JUMPDEST SWAP1 POP PUSH2 0x9B3 DUP3 DUP3 PUSH2 0xBA0 JUMP JUMPDEST SWAP2 SWAP1 POP JUMP JUMPDEST PUSH1 0x0 PUSH1 0x40 MLOAD SWAP1 POP SWAP1 JUMP JUMPDEST PUSH1 0x0 PUSH8 0xFFFFFFFFFFFFFFFF DUP3 GT ISZERO PUSH2 0x9DD JUMPI PUSH2 0x9DC PUSH2 0xCD6 JUMP JUMPDEST JUMPDEST PUSH2 0x9E6 DUP3 PUSH2 0xD19 JUMP JUMPDEST SWAP1 POP PUSH1 0x20 DUP2 ADD SWAP1 POP SWAP2 SWAP1 POP JUMP JUMPDEST PUSH1 0x0 DUP2 MLOAD SWAP1 POP SWAP2 SWAP1 POP JUMP JUMPDEST PUSH1 0x0 DUP3 DUP3 MSTORE PUSH1 0x20 DUP3 ADD SWAP1 POP SWAP3 SWAP2 POP POP JUMP JUMPDEST PUSH1 0x0 PUSH2 0xA1A DUP3 PUSH2 0xB10 JUMP JUMPDEST SWAP2 POP PUSH2 0xA25 DUP4 PUSH2 0xB10 JUMP JUMPDEST SWAP3 POP DUP3 PUSH32 0xFFFFFFFFFFFFFFFFFFFFFFFFFFFFFFFFFFFFFFFFFFFFFFFFFFFFFFFFFFFFFFFF SUB DUP3 GT ISZERO PUSH2 0xA5A JUMPI PUSH2 0xA59 PUSH2 0xC1A JUMP JUMPDEST JUMPDEST DUP3 DUP3 ADD SWAP1 POP SWAP3 SWAP2 POP POP JUMP JUMPDEST PUSH1 0x0 PUSH2 0xA70 DUP3 PUSH2 0xB10 JUMP JUMPDEST SWAP2 POP PUSH2 0xA7B DUP4 PUSH2 0xB10 JUMP JUMPDEST SWAP3 POP DUP2 PUSH32 0xFFFFFFFFFFFFFFFFFFFFFFFFFFFFFFFFFFFFFFFFFFFFFFFFFFFFFFFFFFFFFFFF DIV DUP4 GT DUP3 ISZERO ISZERO AND ISZERO PUSH2 0xAB4 JUMPI PUSH2 0xAB3 PUSH2 0xC1A JUMP JUMPDEST JUMPDEST DUP3 DUP3 MUL SWAP1 POP SWAP3 SWAP2 POP POP JUMP JUMPDEST PUSH1 0x0 PUSH2 0xACA DUP3 PUSH2 0xAF0 JUMP JUMPDEST SWAP1 POP SWAP2 SWAP1 POP JUMP JUMPDEST PUSH1 0x0 DUP2 ISZERO ISZERO SWAP1 POP SWAP2 SWAP1 POP JUMP JUMPDEST PUSH1 0x0 DUP2 SWAP1 POP PUSH2 0xAEB DUP3 PUSH2 0xD2A JUMP JUMPDEST SWAP2 SWAP1 POP JUMP JUMPDEST PUSH1 0x0 PUSH20 0xFFFFFFFFFFFFFFFFFFFFFFFFFFFFFFFFFFFFFFFF DUP3 AND SWAP1 POP SWAP2 SWAP1 POP JUMP JUMPDEST PUSH1 0x0 DUP2 SWAP1 POP SWAP2 SWAP1 POP JUMP JUMPDEST PUSH1 0x0 PUSH2 0xB25 DUP3 PUSH2 0xADD JUMP JUMPDEST SWAP1 POP SWAP2 SWAP1 POP JUMP JUMPDEST DUP3 DUP2 DUP4 CALLDATACOPY PUSH1 0x0 DUP4 DUP4 ADD MSTORE POP POP POP JUMP JUMPDEST PUSH1 0x0 JUMPDEST DUP4 DUP2 LT ISZERO PUSH2 0xB59 JUMPI DUP1 DUP3 ADD MLOAD DUP2 DUP5 ADD MSTORE PUSH1 0x20 DUP2 ADD SWAP1 POP PUSH2 0xB3E JUMP JUMPDEST DUP4 DUP2 GT ISZERO PUSH2 0xB68 JUMPI PUSH1 0x0 DUP5 DUP5 ADD MSTORE JUMPDEST POP POP POP POP JUMP JUMPDEST PUSH1 0x0 PUSH1 0x2 DUP3 DIV SWAP1 POP PUSH1 0x1 DUP3 AND DUP1 PUSH2 0xB86 JUMPI PUSH1 0x7F DUP3 AND SWAP2 POP JUMPDEST PUSH1 0x20 DUP3 LT DUP2 EQ ISZERO PUSH2 0xB9A JUMPI PUSH2 0xB99 PUSH2 0xC78 JUMP JUMPDEST JUMPDEST POP SWAP2 SWAP1 POP JUMP JUMPDEST PUSH2 0xBA9 DUP3 PUSH2 0xD19 JUMP JUMPDEST DUP2 ADD DUP2 DUP2 LT PUSH8 0xFFFFFFFFFFFFFFFF DUP3 GT OR ISZERO PUSH2 0xBC8 JUMPI PUSH2 0xBC7 PUSH2 0xCD6 JUMP JUMPDEST JUMPDEST DUP1 PUSH1 0x40 MSTORE POP POP POP JUMP JUMPDEST PUSH1 0x0 PUSH2 0xBDC DUP3 PUSH2 0xB10 JUMP JUMPDEST SWAP2 POP PUSH32 0xFFFFFFFFFFFFFFFFFFFFFFFFFFFFFFFFFFFFFFFFFFFFFFFFFFFFFFFFFFFFFFFF DUP3 EQ ISZERO PUSH2 0xC0F JUMPI PUSH2 0xC0E PUSH2 0xC1A JUMP JUMPDEST JUMPDEST PUSH1 0x1 DUP3 ADD SWAP1 POP SWAP2 SWAP1 POP JUMP JUMPDEST PUSH32 0x4E487B7100000000000000000000000000000000000000000000000000000000 PUSH1 0x0 MSTORE PUSH1 0x11 PUSH1 0x4 MSTORE PUSH1 0x24 PUSH1 0x0 REVERT JUMPDEST PUSH32 0x4E487B7100000000000000000000000000000000000000000000000000000000 PUSH1 0x0 MSTORE PUSH1 0x21 PUSH1 0x4 MSTORE PUSH1 0x24 PUSH1 0x0 REVERT JUMPDEST PUSH32 0x4E487B7100000000000000000000000000000000000000000000000000000000 PUSH1 0x0 MSTORE PUSH1 0x22 PUSH1 0x4 MSTORE PUSH1 0x24 PUSH1 0x0 REVERT JUMPDEST PUSH32 0x4E487B7100000000000000000000000000000000000000000000000000000000 PUSH1 0x0 MSTORE PUSH1 0x32 PUSH1 0x4 MSTORE PUSH1 0x24 PUSH1 0x0 REVERT JUMPDEST PUSH32 0x4E487B7100000000000000000000000000000000000000000000000000000000 PUSH1 0x0 MSTORE PUSH1 0x41 PUSH1 0x4 MSTORE PUSH1 0x24 PUSH1 0x0 REVERT JUMPDEST PUSH1 0x0 DUP1 REVERT JUMPDEST PUSH1 0x0 DUP1 REVERT JUMPDEST PUSH1 0x0 DUP1 REVERT JUMPDEST PUSH1 0x0 DUP1 REVERT JUMPDEST PUSH1 0x0 PUSH1 0x1F NOT PUSH1 0x1F DUP4 ADD AND SWAP1 POP SWAP2 SWAP1 POP JUMP JUMPDEST PUSH1 0x2 DUP2 LT PUSH2 0xD3B JUMPI PUSH2 0xD3A PUSH2 0xC49 JUMP JUMPDEST JUMPDEST POP JUMP JUMPDEST PUSH2 0xD47 DUP2 PUSH2 0xABF JUMP JUMPDEST DUP2 EQ PUSH2 0xD52 JUMPI PUSH1 0x0 DUP1 REVERT JUMPDEST POP JUMP JUMPDEST PUSH1 0x2 DUP2 LT PUSH2 0xD62 JUMPI PUSH1 0x0 DUP1 REVERT JUMPDEST POP JUMP JUMPDEST PUSH2 0xD6E DUP2 PUSH2 0xB10 JUMP JUMPDEST DUP2 EQ PUSH2 0xD79 JUMPI PUSH1 0x0 DUP1 REVERT JUMPDEST POP JUMP INVALID LOG2 PUSH5 0x6970667358 0x22 SLT KECCAK256 NOT 0xDE 0x2C PUSH8 0x40744AF561C73753 0xDE SMOD EQ SWAP8 PUSH31 0xE91FB6D8EB3F0AE6322C1E57924D6064736F6C634300080700330000000000 "
				},
				"gasEstimates": {
					"creation": {
						"codeDepositCost": "701200",
						"executionCost": "infinite",
						"totalCost": "infinite"
					},
					"external": {
						"addCustomer(string,uint8,uint256,address)": "infinite",
						"getCustomer(uint256)": "infinite",
						"updateCustomerInformations(uint256,string,uint8,uint256,address)": "infinite"
					}
				},
				"methodIdentifiers": {
					"addCustomer(string,uint8,uint256,address)": "cee2c181",
					"getCustomer(uint256)": "eb876f27",
					"updateCustomerInformations(uint256,string,uint8,uint256,address)": "196502c9"
				}
			},
			"storageLayout": {
				"storage": [
					{
						"astId": 7,
						"contract": "contracts/Customer.sol:CustomerContract",
						"label": "numCustomer",
						"offset": 0,
						"slot": "0",
						"type": "t_uint256"
					},
					{
						"astId": 11,
						"contract": "contracts/Customer.sol:CustomerContract",
						"label": "customers",
						"offset": 0,
						"slot": "1",
						"type": "t_array(t_struct(Customer)185_storage)dyn_storage"
					}
				],
				"types": {
					"t_address": {
						"encoding": "inplace",
						"label": "address",
						"numberOfBytes": "20"
					},
					"t_array(t_struct(Customer)185_storage)dyn_storage": {
						"base": "t_struct(Customer)185_storage",
						"encoding": "dynamic_array",
						"label": "struct InsuranceCompanyContract.Customer[]",
						"numberOfBytes": "32"
					},
					"t_enum(insurancePolicy)173": {
						"encoding": "inplace",
						"label": "enum InsuranceCompanyContract.insurancePolicy",
						"numberOfBytes": "1"
					},
					"t_string_storage": {
						"encoding": "bytes",
						"label": "string",
						"numberOfBytes": "32"
					},
					"t_struct(Customer)185_storage": {
						"encoding": "inplace",
						"label": "struct InsuranceCompanyContract.Customer",
						"members": [
							{
								"astId": 175,
								"contract": "contracts/Customer.sol:CustomerContract",
								"label": "id",
								"offset": 0,
								"slot": "0",
								"type": "t_uint256"
							},
							{
								"astId": 177,
								"contract": "contracts/Customer.sol:CustomerContract",
								"label": "name",
								"offset": 0,
								"slot": "1",
								"type": "t_string_storage"
							},
							{
								"astId": 180,
								"contract": "contracts/Customer.sol:CustomerContract",
								"label": "policyType",
								"offset": 0,
								"slot": "2",
								"type": "t_enum(insurancePolicy)173"
							},
							{
								"astId": 182,
								"contract": "contracts/Customer.sol:CustomerContract",
								"label": "validityDate",
								"offset": 0,
								"slot": "3",
								"type": "t_uint256"
							},
							{
								"astId": 184,
								"contract": "contracts/Customer.sol:CustomerContract",
								"label": "paymentAddress",
								"offset": 0,
								"slot": "4",
								"type": "t_address"
							}
						],
						"numberOfBytes": "160"
					},
					"t_uint256": {
						"encoding": "inplace",
						"label": "uint256",
						"numberOfBytes": "32"
					}
				}
			},
			"userdoc": {
				"kind": "user",
				"methods": {},
				"version": 1
			}
		}
	}
}