{
	"contracts/Cheatsheet.sol": {
		"Exercice3": {
			"abi": [
				{
					"anonymous": false,
					"inputs": [
						{
							"indexed": true,
							"internalType": "address",
							"name": "_from",
							"type": "address"
						},
						{
							"indexed": false,
							"internalType": "string",
							"name": "operation",
							"type": "string"
						},
						{
							"indexed": false,
							"internalType": "uint256",
							"name": "_value",
							"type": "uint256"
						}
					],
					"name": "GetEvent",
					"type": "event"
				},
				{
					"anonymous": false,
					"inputs": [
						{
							"indexed": true,
							"internalType": "address",
							"name": "_from",
							"type": "address"
						},
						{
							"indexed": false,
							"internalType": "string",
							"name": "operation",
							"type": "string"
						},
						{
							"indexed": false,
							"internalType": "uint256",
							"name": "_value",
							"type": "uint256"
						}
					],
					"name": "SetEvent",
					"type": "event"
				},
				{
					"inputs": [
						{
							"internalType": "address payable",
							"name": "_to",
							"type": "address"
						}
					],
					"name": "callEthers",
					"outputs": [],
					"stateMutability": "payable",
					"type": "function"
				},
				{
					"inputs": [],
					"name": "getBlockId",
					"outputs": [
						{
							"internalType": "uint256",
							"name": "",
							"type": "uint256"
						},
						{
							"internalType": "address",
							"name": "",
							"type": "address"
						}
					],
					"stateMutability": "view",
					"type": "function"
				},
				{
					"inputs": [],
					"name": "getBlockTimestamp",
					"outputs": [
						{
							"internalType": "uint256",
							"name": "",
							"type": "uint256"
						},
						{
							"internalType": "address",
							"name": "",
							"type": "address"
						}
					],
					"stateMutability": "view",
					"type": "function"
				},
				{
					"inputs": [
						{
							"internalType": "uint256",
							"name": "id",
							"type": "uint256"
						}
					],
					"name": "getFlight",
					"outputs": [
						{
							"components": [
								{
									"internalType": "uint256",
									"name": "id",
									"type": "uint256"
								},
								{
									"internalType": "string",
									"name": "departure",
									"type": "string"
								},
								{
									"internalType": "string",
									"name": "destination",
									"type": "string"
								},
								{
									"internalType": "string",
									"name": "date",
									"type": "string"
								},
								{
									"internalType": "uint256",
									"name": "price",
									"type": "uint256"
								},
								{
									"internalType": "uint256",
									"name": "seatsNumber",
									"type": "uint256"
								}
							],
							"internalType": "struct Exercice3.Flight",
							"name": "flight",
							"type": "tuple"
						}
					],
					"stateMutability": "view",
					"type": "function"
				},
				{
					"inputs": [],
					"name": "getUserCount",
					"outputs": [
						{
							"internalType": "uint256",
							"name": "",
							"type": "uint256"
						}
					],
					"stateMutability": "view",
					"type": "function"
				},
				{
					"inputs": [
						{
							"components": [
								{
									"internalType": "uint256",
									"name": "id",
									"type": "uint256"
								},
								{
									"internalType": "string",
									"name": "departure",
									"type": "string"
								},
								{
									"internalType": "string",
									"name": "destination",
									"type": "string"
								},
								{
									"internalType": "string",
									"name": "date",
									"type": "string"
								},
								{
									"internalType": "uint256",
									"name": "price",
									"type": "uint256"
								},
								{
									"internalType": "uint256",
									"name": "seatsNumber",
									"type": "uint256"
								}
							],
							"internalType": "struct Exercice3.Flight",
							"name": "flight",
							"type": "tuple"
						}
					],
					"name": "newFlight",
					"outputs": [
						{
							"internalType": "uint256",
							"name": "flightID",
							"type": "uint256"
						}
					],
					"stateMutability": "nonpayable",
					"type": "function"
				},
				{
					"inputs": [
						{
							"internalType": "address payable",
							"name": "_to",
							"type": "address"
						}
					],
					"name": "sendEthers",
					"outputs": [],
					"stateMutability": "payable",
					"type": "function"
				},
				{
					"inputs": [],
					"name": "setBlockId",
					"outputs": [],
					"stateMutability": "nonpayable",
					"type": "function"
				},
				{
					"inputs": [],
					"name": "setBlockTimestamp",
					"outputs": [],
					"stateMutability": "nonpayable",
					"type": "function"
				},
				{
					"inputs": [
						{
							"internalType": "address payable",
							"name": "_to",
							"type": "address"
						}
					],
					"name": "transferEthers",
					"outputs": [],
					"stateMutability": "payable",
					"type": "function"
				},
				{
					"inputs": [
						{
							"internalType": "uint256",
							"name": "id",
							"type": "uint256"
						},
						{
							"components": [
								{
									"internalType": "uint256",
									"name": "id",
									"type": "uint256"
								},
								{
									"internalType": "string",
									"name": "departure",
									"type": "string"
								},
								{
									"internalType": "string",
									"name": "destination",
									"type": "string"
								},
								{
									"internalType": "string",
									"name": "date",
									"type": "string"
								},
								{
									"internalType": "uint256",
									"name": "price",
									"type": "uint256"
								},
								{
									"internalType": "uint256",
									"name": "seatsNumber",
									"type": "uint256"
								}
							],
							"internalType": "struct Exercice3.Flight",
							"name": "flight",
							"type": "tuple"
						}
					],
					"name": "updateFlight",
					"outputs": [
						{
							"internalType": "uint256",
							"name": "returnedID",
							"type": "uint256"
						}
					],
					"stateMutability": "nonpayable",
					"type": "function"
				}
			],
			"devdoc": {
				"kind": "dev",
				"methods": {},
				"version": 1
			},
			"evm": {
				"assembly": "    /* \"contracts/Cheatsheet.sol\":64:3155  contract Exercice3 {\r... */\n  mstore(0x40, 0x80)\n    /* \"contracts/Cheatsheet.sol\":636:678  0x3FC03E09150c96b1d0B41E6253Aea95B3cda2E2F */\n  0x3fc03e09150c96b1d0b41e6253aea95b3cda2e2f\n    /* \"contracts/Cheatsheet.sol\":613:678  address ownerAddress = 0x3FC03E09150c96b1d0B41E6253Aea95B3cda2E2F */\n  0x06\n  exp(0x0100, 0x00)\n  dup2\n  sload\n  dup2\n  0xffffffffffffffffffffffffffffffffffffffff\n  mul\n  not\n  and\n  swap1\n  dup4\n  0xffffffffffffffffffffffffffffffffffffffff\n  and\n  mul\n  or\n  swap1\n  sstore\n  pop\n    /* \"contracts/Cheatsheet.sol\":64:3155  contract Exercice3 {\r... */\n  callvalue\n  dup1\n  iszero\n  tag_1\n  jumpi\n  0x00\n  dup1\n  revert\ntag_1:\n  pop\n  dataSize(sub_0)\n  dup1\n  dataOffset(sub_0)\n  0x00\n  codecopy\n  0x00\n  return\nstop\n\nsub_0: assembly {\n        /* \"contracts/Cheatsheet.sol\":64:3155  contract Exercice3 {\r... */\n      mstore(0x40, 0x80)\n      jumpi(tag_1, lt(calldatasize, 0x04))\n      shr(0xe0, calldataload(0x00))\n      dup1\n      0x796b89b9\n      gt\n      tag_13\n      jumpi\n      dup1\n      0x796b89b9\n      eq\n      tag_7\n      jumpi\n      dup1\n      0x818aa553\n      eq\n      tag_8\n      jumpi\n      dup1\n      0x8549085e\n      eq\n      tag_9\n      jumpi\n      dup1\n      0xb5cb15f7\n      eq\n      tag_10\n      jumpi\n      dup1\n      0xc0f3944c\n      eq\n      tag_11\n      jumpi\n      dup1\n      0xe76c0b57\n      eq\n      tag_12\n      jumpi\n      jump(tag_1)\n    tag_13:\n      dup1\n      0x240e222d\n      eq\n      tag_2\n      jumpi\n      dup1\n      0x383665fe\n      eq\n      tag_3\n      jumpi\n      dup1\n      0x3a4396cb\n      eq\n      tag_4\n      jumpi\n      dup1\n      0x74778c01\n      eq\n      tag_5\n      jumpi\n      dup1\n      0x7626da66\n      eq\n      tag_6\n      jumpi\n    tag_1:\n      0x00\n      dup1\n      revert\n        /* \"contracts/Cheatsheet.sol\":1204:1340  function setBlockId() public onlyOwner{\r... */\n    tag_2:\n      callvalue\n      dup1\n      iszero\n      tag_14\n      jumpi\n      0x00\n      dup1\n      revert\n    tag_14:\n      pop\n      tag_15\n      tag_16\n      jump\t// in\n    tag_15:\n      stop\n        /* \"contracts/Cheatsheet.sol\":2679:3035  function updateFlight(uint id, Flight memory flight) public returns (uint returnedID) {\r... */\n    tag_3:\n      callvalue\n      dup1\n      iszero\n      tag_17\n      jumpi\n      0x00\n      dup1\n      revert\n    tag_17:\n      pop\n      tag_18\n      0x04\n      dup1\n      calldatasize\n      sub\n      dup2\n      add\n      swap1\n      tag_19\n      swap2\n      swap1\n      tag_20\n      jump\t// in\n    tag_19:\n      tag_21\n      jump\t// in\n    tag_18:\n      mload(0x40)\n      tag_22\n      swap2\n      swap1\n      tag_23\n      jump\t// in\n    tag_22:\n      mload(0x40)\n      dup1\n      swap2\n      sub\n      swap1\n      return\n        /* \"contracts/Cheatsheet.sol\":3043:3152  function getFlight(uint id) public view returns (Flight memory flight){\r... */\n    tag_4:\n      callvalue\n      dup1\n      iszero\n      tag_24\n      jumpi\n      0x00\n      dup1\n      revert\n    tag_24:\n      pop\n      tag_25\n      0x04\n      dup1\n      calldatasize\n      sub\n      dup2\n      add\n      swap1\n      tag_26\n      swap2\n      swap1\n      tag_27\n      jump\t// in\n    tag_26:\n      tag_28\n      jump\t// in\n    tag_25:\n      mload(0x40)\n      tag_29\n      swap2\n      swap1\n      tag_30\n      jump\t// in\n    tag_29:\n      mload(0x40)\n      dup1\n      swap2\n      sub\n      swap1\n      return\n        /* \"contracts/Cheatsheet.sol\":1877:2063  function callEthers(address payable _to) public payable {\r... */\n    tag_5:\n      tag_31\n      0x04\n      dup1\n      calldatasize\n      sub\n      dup2\n      add\n      swap1\n      tag_32\n      swap2\n      swap1\n      tag_33\n      jump\t// in\n    tag_32:\n      tag_34\n      jump\t// in\n    tag_31:\n      stop\n        /* \"contracts/Cheatsheet.sol\":1605:1707  function transferEthers(address payable _to) public payable {\r... */\n    tag_6:\n      tag_35\n      0x04\n      dup1\n      calldatasize\n      sub\n      dup2\n      add\n      swap1\n      tag_36\n      swap2\n      swap1\n      tag_33\n      jump\t// in\n    tag_36:\n      tag_37\n      jump\t// in\n    tag_35:\n      stop\n        /* \"contracts/Cheatsheet.sol\":1074:1196  function getBlockTimestamp() public view returns (uint256, address){\r... */\n    tag_7:\n      callvalue\n      dup1\n      iszero\n      tag_38\n      jumpi\n      0x00\n      dup1\n      revert\n    tag_38:\n      pop\n      tag_39\n      tag_40\n      jump\t// in\n    tag_39:\n      mload(0x40)\n      tag_41\n      swap3\n      swap2\n      swap1\n      tag_42\n      jump\t// in\n    tag_41:\n      mload(0x40)\n      dup1\n      swap2\n      sub\n      swap1\n      return\n        /* \"contracts/Cheatsheet.sol\":1348:1501  function setBlockTimestamp() public onlyOwner{\r... */\n    tag_8:\n      callvalue\n      dup1\n      iszero\n      tag_43\n      jumpi\n      0x00\n      dup1\n      revert\n    tag_43:\n      pop\n      tag_44\n      tag_45\n      jump\t// in\n    tag_44:\n      stop\n        /* \"contracts/Cheatsheet.sol\":1715:1869  function sendEthers(address payable _to) public payable {\r... */\n    tag_9:\n      tag_46\n      0x04\n      dup1\n      calldatasize\n      sub\n      dup2\n      add\n      swap1\n      tag_47\n      swap2\n      swap1\n      tag_33\n      jump\t// in\n    tag_47:\n      tag_48\n      jump\t// in\n    tag_46:\n      stop\n        /* \"contracts/Cheatsheet.sol\":1509:1597  function getUserCount() public view returns (uint256){\r... */\n    tag_10:\n      callvalue\n      dup1\n      iszero\n      tag_49\n      jumpi\n      0x00\n      dup1\n      revert\n    tag_49:\n      pop\n      tag_50\n      tag_51\n      jump\t// in\n    tag_50:\n      mload(0x40)\n      tag_52\n      swap2\n      swap1\n      tag_23\n      jump\t// in\n    tag_52:\n      mload(0x40)\n      dup1\n      swap2\n      sub\n      swap1\n      return\n        /* \"contracts/Cheatsheet.sol\":2071:2671  function newFlight(Flight memory flight) public returns (uint flightID) {\r... */\n    tag_11:\n      callvalue\n      dup1\n      iszero\n      tag_53\n      jumpi\n      0x00\n      dup1\n      revert\n    tag_53:\n      pop\n      tag_54\n      0x04\n      dup1\n      calldatasize\n      sub\n      dup2\n      add\n      swap1\n      tag_55\n      swap2\n      swap1\n      tag_56\n      jump\t// in\n    tag_55:\n      tag_57\n      jump\t// in\n    tag_54:\n      mload(0x40)\n      tag_58\n      swap2\n      swap1\n      tag_23\n      jump\t// in\n    tag_58:\n      mload(0x40)\n      dup1\n      swap2\n      sub\n      swap1\n      return\n        /* \"contracts/Cheatsheet.sol\":958:1066  function getBlockId() public view returns (uint256, address){\r... */\n    tag_12:\n      callvalue\n      dup1\n      iszero\n      tag_59\n      jumpi\n      0x00\n      dup1\n      revert\n    tag_59:\n      pop\n      tag_60\n      tag_61\n      jump\t// in\n    tag_60:\n      mload(0x40)\n      tag_62\n      swap3\n      swap2\n      swap1\n      tag_42\n      jump\t// in\n    tag_62:\n      mload(0x40)\n      dup1\n      swap2\n      sub\n      swap1\n      return\n        /* \"contracts/Cheatsheet.sol\":1204:1340  function setBlockId() public onlyOwner{\r... */\n    tag_16:\n        /* \"contracts/Cheatsheet.sol\":893:903  msg.sender */\n      caller\n        /* \"contracts/Cheatsheet.sol\":877:903  ownerAddress == msg.sender */\n      0xffffffffffffffffffffffffffffffffffffffff\n      and\n        /* \"contracts/Cheatsheet.sol\":877:889  ownerAddress */\n      0x06\n      0x00\n      swap1\n      sload\n      swap1\n      0x0100\n      exp\n      swap1\n      div\n      0xffffffffffffffffffffffffffffffffffffffff\n      and\n        /* \"contracts/Cheatsheet.sol\":877:903  ownerAddress == msg.sender */\n      0xffffffffffffffffffffffffffffffffffffffff\n      and\n      eq\n        /* \"contracts/Cheatsheet.sol\":869:940  require(ownerAddress == msg.sender, \"Unauthorized user, access denied\") */\n      tag_64\n      jumpi\n      mload(0x40)\n      0x08c379a000000000000000000000000000000000000000000000000000000000\n      dup2\n      mstore\n      0x04\n      add\n      tag_65\n      swap1\n      tag_66\n      jump\t// in\n    tag_65:\n      mload(0x40)\n      dup1\n      swap2\n      sub\n      swap1\n      revert\n    tag_64:\n        /* \"contracts/Cheatsheet.sol\":1253:1262  userCount */\n      0x04\n      0x00\n        /* \"contracts/Cheatsheet.sol\":1253:1264  userCount++ */\n      dup2\n      sload\n      dup1\n      swap3\n      swap2\n      swap1\n      tag_68\n      swap1\n      tag_69\n      jump\t// in\n    tag_68:\n      swap2\n      swap1\n      pop\n      sstore\n      pop\n        /* \"contracts/Cheatsheet.sol\":1285:1297  block.number */\n      number\n        /* \"contracts/Cheatsheet.sol\":1275:1282  blockId */\n      0x02\n        /* \"contracts/Cheatsheet.sol\":1275:1297  blockId = block.number */\n      dup2\n      swap1\n      sstore\n      pop\n        /* \"contracts/Cheatsheet.sol\":1322:1332  msg.sender */\n      caller\n        /* \"contracts/Cheatsheet.sol\":1308:1319  userAddress */\n      0x05\n      0x00\n        /* \"contracts/Cheatsheet.sol\":1308:1332  userAddress = msg.sender */\n      0x0100\n      exp\n      dup2\n      sload\n      dup2\n      0xffffffffffffffffffffffffffffffffffffffff\n      mul\n      not\n      and\n      swap1\n      dup4\n      0xffffffffffffffffffffffffffffffffffffffff\n      and\n      mul\n      or\n      swap1\n      sstore\n      pop\n        /* \"contracts/Cheatsheet.sol\":1204:1340  function setBlockId() public onlyOwner{\r... */\n      jump\t// out\n        /* \"contracts/Cheatsheet.sol\":2679:3035  function updateFlight(uint id, Flight memory flight) public returns (uint returnedID) {\r... */\n    tag_21:\n        /* \"contracts/Cheatsheet.sol\":2748:2763  uint returnedID */\n      0x00\n        /* \"contracts/Cheatsheet.sol\":2776:2792  Flight storage f */\n      dup1\n        /* \"contracts/Cheatsheet.sol\":2795:2802  flights */\n      0x01\n        /* \"contracts/Cheatsheet.sol\":2795:2806  flights[id] */\n      0x00\n        /* \"contracts/Cheatsheet.sol\":2803:2805  id */\n      dup6\n        /* \"contracts/Cheatsheet.sol\":2795:2806  flights[id] */\n      dup2\n      mstore\n      0x20\n      add\n      swap1\n      dup2\n      mstore\n      0x20\n      add\n      0x00\n      keccak256\n        /* \"contracts/Cheatsheet.sol\":2776:2806  Flight storage f = flights[id] */\n      swap1\n      pop\n        /* \"contracts/Cheatsheet.sol\":2830:2832  id */\n      dup4\n        /* \"contracts/Cheatsheet.sol\":2817:2832  returnedID = id */\n      swap2\n      pop\n        /* \"contracts/Cheatsheet.sol\":2857:2863  flight */\n      dup3\n        /* \"contracts/Cheatsheet.sol\":2857:2873  flight.departure */\n      0x20\n      add\n      mload\n        /* \"contracts/Cheatsheet.sol\":2843:2844  f */\n      dup2\n        /* \"contracts/Cheatsheet.sol\":2843:2854  f.departure */\n      0x01\n      add\n        /* \"contracts/Cheatsheet.sol\":2843:2873  f.departure = flight.departure */\n      swap1\n      dup1\n      mload\n      swap1\n      0x20\n      add\n      swap1\n      tag_71\n      swap3\n      swap2\n      swap1\n      tag_72\n      jump\t// in\n    tag_71:\n      pop\n        /* \"contracts/Cheatsheet.sol\":2900:2906  flight */\n      dup3\n        /* \"contracts/Cheatsheet.sol\":2900:2918  flight.destination */\n      0x40\n      add\n      mload\n        /* \"contracts/Cheatsheet.sol\":2884:2885  f */\n      dup2\n        /* \"contracts/Cheatsheet.sol\":2884:2897  f.destination */\n      0x02\n      add\n        /* \"contracts/Cheatsheet.sol\":2884:2918  f.destination = flight.destination */\n      swap1\n      dup1\n      mload\n      swap1\n      0x20\n      add\n      swap1\n      tag_73\n      swap3\n      swap2\n      swap1\n      tag_72\n      jump\t// in\n    tag_73:\n      pop\n        /* \"contracts/Cheatsheet.sol\":2938:2944  flight */\n      dup3\n        /* \"contracts/Cheatsheet.sol\":2938:2949  flight.date */\n      0x60\n      add\n      mload\n        /* \"contracts/Cheatsheet.sol\":2929:2930  f */\n      dup2\n        /* \"contracts/Cheatsheet.sol\":2929:2935  f.date */\n      0x03\n      add\n        /* \"contracts/Cheatsheet.sol\":2929:2949  f.date = flight.date */\n      swap1\n      dup1\n      mload\n      swap1\n      0x20\n      add\n      swap1\n      tag_74\n      swap3\n      swap2\n      swap1\n      tag_72\n      jump\t// in\n    tag_74:\n      pop\n        /* \"contracts/Cheatsheet.sol\":2970:2976  flight */\n      dup3\n        /* \"contracts/Cheatsheet.sol\":2970:2982  flight.price */\n      0x80\n      add\n      mload\n        /* \"contracts/Cheatsheet.sol\":2960:2961  f */\n      dup2\n        /* \"contracts/Cheatsheet.sol\":2960:2967  f.price */\n      0x04\n      add\n        /* \"contracts/Cheatsheet.sol\":2960:2982  f.price = flight.price */\n      dup2\n      swap1\n      sstore\n      pop\n        /* \"contracts/Cheatsheet.sol\":3009:3015  flight */\n      dup3\n        /* \"contracts/Cheatsheet.sol\":3009:3027  flight.seatsNumber */\n      0xa0\n      add\n      mload\n        /* \"contracts/Cheatsheet.sol\":2993:2994  f */\n      dup2\n        /* \"contracts/Cheatsheet.sol\":2993:3006  f.seatsNumber */\n      0x05\n      add\n        /* \"contracts/Cheatsheet.sol\":2993:3027  f.seatsNumber = flight.seatsNumber */\n      dup2\n      swap1\n      sstore\n      pop\n        /* \"contracts/Cheatsheet.sol\":2765:3035  {\r... */\n      pop\n        /* \"contracts/Cheatsheet.sol\":2679:3035  function updateFlight(uint id, Flight memory flight) public returns (uint returnedID) {\r... */\n      swap3\n      swap2\n      pop\n      pop\n      jump\t// out\n        /* \"contracts/Cheatsheet.sol\":3043:3152  function getFlight(uint id) public view returns (Flight memory flight){\r... */\n    tag_28:\n        /* \"contracts/Cheatsheet.sol\":3092:3112  Flight memory flight */\n      tag_75\n      tag_76\n      jump\t// in\n    tag_75:\n        /* \"contracts/Cheatsheet.sol\":3133:3140  flights */\n      0x01\n        /* \"contracts/Cheatsheet.sol\":3133:3144  flights[id] */\n      0x00\n        /* \"contracts/Cheatsheet.sol\":3141:3143  id */\n      dup4\n        /* \"contracts/Cheatsheet.sol\":3133:3144  flights[id] */\n      dup2\n      mstore\n      0x20\n      add\n      swap1\n      dup2\n      mstore\n      0x20\n      add\n      0x00\n      keccak256\n        /* \"contracts/Cheatsheet.sol\":3124:3144  flight = flights[id] */\n      mload(0x40)\n      dup1\n      0xc0\n      add\n      0x40\n      mstore\n      swap1\n      dup2\n      0x00\n      dup3\n      add\n      sload\n      dup2\n      mstore\n      0x20\n      add\n      0x01\n      dup3\n      add\n      dup1\n      sload\n      tag_78\n      swap1\n      tag_79\n      jump\t// in\n    tag_78:\n      dup1\n      0x1f\n      add\n      0x20\n      dup1\n      swap2\n      div\n      mul\n      0x20\n      add\n      mload(0x40)\n      swap1\n      dup2\n      add\n      0x40\n      mstore\n      dup1\n      swap3\n      swap2\n      swap1\n      dup2\n      dup2\n      mstore\n      0x20\n      add\n      dup3\n      dup1\n      sload\n      tag_80\n      swap1\n      tag_79\n      jump\t// in\n    tag_80:\n      dup1\n      iszero\n      tag_81\n      jumpi\n      dup1\n      0x1f\n      lt\n      tag_82\n      jumpi\n      0x0100\n      dup1\n      dup4\n      sload\n      div\n      mul\n      dup4\n      mstore\n      swap2\n      0x20\n      add\n      swap2\n      jump(tag_81)\n    tag_82:\n      dup3\n      add\n      swap2\n      swap1\n      0x00\n      mstore\n      keccak256(0x00, 0x20)\n      swap1\n    tag_83:\n      dup2\n      sload\n      dup2\n      mstore\n      swap1\n      0x01\n      add\n      swap1\n      0x20\n      add\n      dup1\n      dup4\n      gt\n      tag_83\n      jumpi\n      dup3\n      swap1\n      sub\n      0x1f\n      and\n      dup3\n      add\n      swap2\n    tag_81:\n      pop\n      pop\n      pop\n      pop\n      pop\n      dup2\n      mstore\n      0x20\n      add\n      0x02\n      dup3\n      add\n      dup1\n      sload\n      tag_84\n      swap1\n      tag_79\n      jump\t// in\n    tag_84:\n      dup1\n      0x1f\n      add\n      0x20\n      dup1\n      swap2\n      div\n      mul\n      0x20\n      add\n      mload(0x40)\n      swap1\n      dup2\n      add\n      0x40\n      mstore\n      dup1\n      swap3\n      swap2\n      swap1\n      dup2\n      dup2\n      mstore\n      0x20\n      add\n      dup3\n      dup1\n      sload\n      tag_85\n      swap1\n      tag_79\n      jump\t// in\n    tag_85:\n      dup1\n      iszero\n      tag_86\n      jumpi\n      dup1\n      0x1f\n      lt\n      tag_87\n      jumpi\n      0x0100\n      dup1\n      dup4\n      sload\n      div\n      mul\n      dup4\n      mstore\n      swap2\n      0x20\n      add\n      swap2\n      jump(tag_86)\n    tag_87:\n      dup3\n      add\n      swap2\n      swap1\n      0x00\n      mstore\n      keccak256(0x00, 0x20)\n      swap1\n    tag_88:\n      dup2\n      sload\n      dup2\n      mstore\n      swap1\n      0x01\n      add\n      swap1\n      0x20\n      add\n      dup1\n      dup4\n      gt\n      tag_88\n      jumpi\n      dup3\n      swap1\n      sub\n      0x1f\n      and\n      dup3\n      add\n      swap2\n    tag_86:\n      pop\n      pop\n      pop\n      pop\n      pop\n      dup2\n      mstore\n      0x20\n      add\n      0x03\n      dup3\n      add\n      dup1\n      sload\n      tag_89\n      swap1\n      tag_79\n      jump\t// in\n    tag_89:\n      dup1\n      0x1f\n      add\n      0x20\n      dup1\n      swap2\n      div\n      mul\n      0x20\n      add\n      mload(0x40)\n      swap1\n      dup2\n      add\n      0x40\n      mstore\n      dup1\n      swap3\n      swap2\n      swap1\n      dup2\n      dup2\n      mstore\n      0x20\n      add\n      dup3\n      dup1\n      sload\n      tag_90\n      swap1\n      tag_79\n      jump\t// in\n    tag_90:\n      dup1\n      iszero\n      tag_91\n      jumpi\n      dup1\n      0x1f\n      lt\n      tag_92\n      jumpi\n      0x0100\n      dup1\n      dup4\n      sload\n      div\n      mul\n      dup4\n      mstore\n      swap2\n      0x20\n      add\n      swap2\n      jump(tag_91)\n    tag_92:\n      dup3\n      add\n      swap2\n      swap1\n      0x00\n      mstore\n      keccak256(0x00, 0x20)\n      swap1\n    tag_93:\n      dup2\n      sload\n      dup2\n      mstore\n      swap1\n      0x01\n      add\n      swap1\n      0x20\n      add\n      dup1\n      dup4\n      gt\n      tag_93\n      jumpi\n      dup3\n      swap1\n      sub\n      0x1f\n      and\n      dup3\n      add\n      swap2\n    tag_91:\n      pop\n      pop\n      pop\n      pop\n      pop\n      dup2\n      mstore\n      0x20\n      add\n      0x04\n      dup3\n      add\n      sload\n      dup2\n      mstore\n      0x20\n      add\n      0x05\n      dup3\n      add\n      sload\n      dup2\n      mstore\n      pop\n      pop\n      swap1\n      pop\n        /* \"contracts/Cheatsheet.sol\":3043:3152  function getFlight(uint id) public view returns (Flight memory flight){\r... */\n      swap2\n      swap1\n      pop\n      jump\t// out\n        /* \"contracts/Cheatsheet.sol\":1877:2063  function callEthers(address payable _to) public payable {\r... */\n    tag_34:\n        /* \"contracts/Cheatsheet.sol\":1945:1954  bool sent */\n      0x00\n        /* \"contracts/Cheatsheet.sol\":1956:1973  bytes memory data */\n      dup1\n        /* \"contracts/Cheatsheet.sol\":1977:1980  _to */\n      dup3\n        /* \"contracts/Cheatsheet.sol\":1977:1985  _to.call */\n      0xffffffffffffffffffffffffffffffffffffffff\n      and\n        /* \"contracts/Cheatsheet.sol\":1993:2002  msg.value */\n      callvalue\n        /* \"contracts/Cheatsheet.sol\":1977:2007  _to.call{value: msg.value}(\"\") */\n      mload(0x40)\n      tag_95\n      swap1\n      tag_96\n      jump\t// in\n    tag_95:\n      0x00\n      mload(0x40)\n      dup1\n      dup4\n      sub\n      dup2\n      dup6\n      dup8\n      gas\n      call\n      swap3\n      pop\n      pop\n      pop\n      returndatasize\n      dup1\n      0x00\n      dup2\n      eq\n      tag_99\n      jumpi\n      mload(0x40)\n      swap2\n      pop\n      and(add(returndatasize, 0x3f), not(0x1f))\n      dup3\n      add\n      0x40\n      mstore\n      returndatasize\n      dup3\n      mstore\n      returndatasize\n      0x00\n      0x20\n      dup5\n      add\n      returndatacopy\n      jump(tag_98)\n    tag_99:\n      0x60\n      swap2\n      pop\n    tag_98:\n      pop\n        /* \"contracts/Cheatsheet.sol\":1944:2007  (bool sent, bytes memory data) = _to.call{value: msg.value}(\"\") */\n      swap2\n      pop\n      swap2\n      pop\n        /* \"contracts/Cheatsheet.sol\":2026:2030  sent */\n      dup2\n        /* \"contracts/Cheatsheet.sol\":2018:2055  require(sent, \"Failed to send Ether\") */\n      tag_100\n      jumpi\n      mload(0x40)\n      0x08c379a000000000000000000000000000000000000000000000000000000000\n      dup2\n      mstore\n      0x04\n      add\n      tag_101\n      swap1\n      tag_102\n      jump\t// in\n    tag_101:\n      mload(0x40)\n      dup1\n      swap2\n      sub\n      swap1\n      revert\n    tag_100:\n        /* \"contracts/Cheatsheet.sol\":1933:2063  {\r... */\n      pop\n      pop\n        /* \"contracts/Cheatsheet.sol\":1877:2063  function callEthers(address payable _to) public payable {\r... */\n      pop\n      jump\t// out\n        /* \"contracts/Cheatsheet.sol\":1605:1707  function transferEthers(address payable _to) public payable {\r... */\n    tag_37:\n        /* \"contracts/Cheatsheet.sol\":1676:1679  _to */\n      dup1\n        /* \"contracts/Cheatsheet.sol\":1676:1688  _to.transfer */\n      0xffffffffffffffffffffffffffffffffffffffff\n      and\n        /* \"contracts/Cheatsheet.sol\":1676:1699  _to.transfer(msg.value) */\n      0x08fc\n        /* \"contracts/Cheatsheet.sol\":1689:1698  msg.value */\n      callvalue\n        /* \"contracts/Cheatsheet.sol\":1676:1699  _to.transfer(msg.value) */\n      swap1\n      dup2\n      iszero\n      mul\n      swap1\n      mload(0x40)\n      0x00\n      mload(0x40)\n      dup1\n      dup4\n      sub\n      dup2\n      dup6\n      dup9\n      dup9\n      call\n      swap4\n      pop\n      pop\n      pop\n      pop\n      iszero\n      dup1\n      iszero\n      tag_105\n      jumpi\n      returndatasize\n      0x00\n      dup1\n      returndatacopy\n      revert(0x00, returndatasize)\n    tag_105:\n      pop\n        /* \"contracts/Cheatsheet.sol\":1605:1707  function transferEthers(address payable _to) public payable {\r... */\n      pop\n      jump\t// out\n        /* \"contracts/Cheatsheet.sol\":1074:1196  function getBlockTimestamp() public view returns (uint256, address){\r... */\n    tag_40:\n        /* \"contracts/Cheatsheet.sol\":1124:1131  uint256 */\n      0x00\n        /* \"contracts/Cheatsheet.sol\":1133:1140  address */\n      dup1\n        /* \"contracts/Cheatsheet.sol\":1160:1174  blockTimestamp */\n      sload(0x03)\n        /* \"contracts/Cheatsheet.sol\":1176:1187  userAddress */\n      0x05\n      0x00\n      swap1\n      sload\n      swap1\n      0x0100\n      exp\n      swap1\n      div\n      0xffffffffffffffffffffffffffffffffffffffff\n      and\n        /* \"contracts/Cheatsheet.sol\":1152:1188  return (blockTimestamp, userAddress) */\n      swap2\n      pop\n      swap2\n      pop\n        /* \"contracts/Cheatsheet.sol\":1074:1196  function getBlockTimestamp() public view returns (uint256, address){\r... */\n      swap1\n      swap2\n      jump\t// out\n        /* \"contracts/Cheatsheet.sol\":1348:1501  function setBlockTimestamp() public onlyOwner{\r... */\n    tag_45:\n        /* \"contracts/Cheatsheet.sol\":893:903  msg.sender */\n      caller\n        /* \"contracts/Cheatsheet.sol\":877:903  ownerAddress == msg.sender */\n      0xffffffffffffffffffffffffffffffffffffffff\n      and\n        /* \"contracts/Cheatsheet.sol\":877:889  ownerAddress */\n      0x06\n      0x00\n      swap1\n      sload\n      swap1\n      0x0100\n      exp\n      swap1\n      div\n      0xffffffffffffffffffffffffffffffffffffffff\n      and\n        /* \"contracts/Cheatsheet.sol\":877:903  ownerAddress == msg.sender */\n      0xffffffffffffffffffffffffffffffffffffffff\n      and\n      eq\n        /* \"contracts/Cheatsheet.sol\":869:940  require(ownerAddress == msg.sender, \"Unauthorized user, access denied\") */\n      tag_108\n      jumpi\n      mload(0x40)\n      0x08c379a000000000000000000000000000000000000000000000000000000000\n      dup2\n      mstore\n      0x04\n      add\n      tag_109\n      swap1\n      tag_66\n      jump\t// in\n    tag_109:\n      mload(0x40)\n      dup1\n      swap2\n      sub\n      swap1\n      revert\n    tag_108:\n        /* \"contracts/Cheatsheet.sol\":1404:1413  userCount */\n      0x04\n      0x00\n        /* \"contracts/Cheatsheet.sol\":1404:1415  userCount++ */\n      dup2\n      sload\n      dup1\n      swap3\n      swap2\n      swap1\n      tag_111\n      swap1\n      tag_69\n      jump\t// in\n    tag_111:\n      swap2\n      swap1\n      pop\n      sstore\n      pop\n        /* \"contracts/Cheatsheet.sol\":1443:1458  block.timestamp */\n      timestamp\n        /* \"contracts/Cheatsheet.sol\":1426:1440  blockTimestamp */\n      0x03\n        /* \"contracts/Cheatsheet.sol\":1426:1458  blockTimestamp = block.timestamp */\n      dup2\n      swap1\n      sstore\n      pop\n        /* \"contracts/Cheatsheet.sol\":1483:1493  msg.sender */\n      caller\n        /* \"contracts/Cheatsheet.sol\":1469:1480  userAddress */\n      0x05\n      0x00\n        /* \"contracts/Cheatsheet.sol\":1469:1493  userAddress = msg.sender */\n      0x0100\n      exp\n      dup2\n      sload\n      dup2\n      0xffffffffffffffffffffffffffffffffffffffff\n      mul\n      not\n      and\n      swap1\n      dup4\n      0xffffffffffffffffffffffffffffffffffffffff\n      and\n      mul\n      or\n      swap1\n      sstore\n      pop\n        /* \"contracts/Cheatsheet.sol\":1348:1501  function setBlockTimestamp() public onlyOwner{\r... */\n      jump\t// out\n        /* \"contracts/Cheatsheet.sol\":1715:1869  function sendEthers(address payable _to) public payable {\r... */\n    tag_48:\n        /* \"contracts/Cheatsheet.sol\":1782:1791  bool sent */\n      0x00\n        /* \"contracts/Cheatsheet.sol\":1794:1797  _to */\n      dup2\n        /* \"contracts/Cheatsheet.sol\":1794:1802  _to.send */\n      0xffffffffffffffffffffffffffffffffffffffff\n      and\n        /* \"contracts/Cheatsheet.sol\":1794:1813  _to.send(msg.value) */\n      0x08fc\n        /* \"contracts/Cheatsheet.sol\":1803:1812  msg.value */\n      callvalue\n        /* \"contracts/Cheatsheet.sol\":1794:1813  _to.send(msg.value) */\n      swap1\n      dup2\n      iszero\n      mul\n      swap1\n      mload(0x40)\n      0x00\n      mload(0x40)\n      dup1\n      dup4\n      sub\n      dup2\n      dup6\n      dup9\n      dup9\n      call\n      swap4\n      pop\n      pop\n      pop\n      pop\n        /* \"contracts/Cheatsheet.sol\":1782:1813  bool sent = _to.send(msg.value) */\n      swap1\n      pop\n        /* \"contracts/Cheatsheet.sol\":1832:1836  sent */\n      dup1\n        /* \"contracts/Cheatsheet.sol\":1824:1861  require(sent, \"Failed to send Ether\") */\n      tag_114\n      jumpi\n      mload(0x40)\n      0x08c379a000000000000000000000000000000000000000000000000000000000\n      dup2\n      mstore\n      0x04\n      add\n      tag_115\n      swap1\n      tag_102\n      jump\t// in\n    tag_115:\n      mload(0x40)\n      dup1\n      swap2\n      sub\n      swap1\n      revert\n    tag_114:\n        /* \"contracts/Cheatsheet.sol\":1771:1869  {\r... */\n      pop\n        /* \"contracts/Cheatsheet.sol\":1715:1869  function sendEthers(address payable _to) public payable {\r... */\n      pop\n      jump\t// out\n        /* \"contracts/Cheatsheet.sol\":1509:1597  function getUserCount() public view returns (uint256){\r... */\n    tag_51:\n        /* \"contracts/Cheatsheet.sol\":1554:1561  uint256 */\n      0x00\n        /* \"contracts/Cheatsheet.sol\":1580:1589  userCount */\n      sload(0x04)\n        /* \"contracts/Cheatsheet.sol\":1573:1589  return userCount */\n      swap1\n      pop\n        /* \"contracts/Cheatsheet.sol\":1509:1597  function getUserCount() public view returns (uint256){\r... */\n      swap1\n      jump\t// out\n        /* \"contracts/Cheatsheet.sol\":2071:2671  function newFlight(Flight memory flight) public returns (uint flightID) {\r... */\n    tag_57:\n        /* \"contracts/Cheatsheet.sol\":2128:2141  uint flightID */\n      0x00\n        /* \"contracts/Cheatsheet.sol\":2165:2174  numFlight */\n      dup1\n      0x00\n        /* \"contracts/Cheatsheet.sol\":2165:2176  numFlight++ */\n      dup2\n      sload\n      dup1\n      swap3\n      swap2\n      swap1\n      tag_118\n      swap1\n      tag_69\n      jump\t// in\n    tag_118:\n      swap2\n      swap1\n      pop\n      sstore\n        /* \"contracts/Cheatsheet.sol\":2154:2176  flightID = numFlight++ */\n      swap1\n      pop\n        /* \"contracts/Cheatsheet.sol\":2406:2422  Flight storage f */\n      0x00\n        /* \"contracts/Cheatsheet.sol\":2425:2432  flights */\n      0x01\n        /* \"contracts/Cheatsheet.sol\":2425:2442  flights[flightID] */\n      0x00\n        /* \"contracts/Cheatsheet.sol\":2433:2441  flightID */\n      dup4\n        /* \"contracts/Cheatsheet.sol\":2425:2442  flights[flightID] */\n      dup2\n      mstore\n      0x20\n      add\n      swap1\n      dup2\n      mstore\n      0x20\n      add\n      0x00\n      keccak256\n        /* \"contracts/Cheatsheet.sol\":2406:2442  Flight storage f = flights[flightID] */\n      swap1\n      pop\n        /* \"contracts/Cheatsheet.sol\":2460:2468  flightID */\n      dup2\n        /* \"contracts/Cheatsheet.sol\":2453:2454  f */\n      dup2\n        /* \"contracts/Cheatsheet.sol\":2453:2457  f.id */\n      0x00\n      add\n        /* \"contracts/Cheatsheet.sol\":2453:2468  f.id = flightID */\n      dup2\n      swap1\n      sstore\n      pop\n        /* \"contracts/Cheatsheet.sol\":2493:2499  flight */\n      dup3\n        /* \"contracts/Cheatsheet.sol\":2493:2509  flight.departure */\n      0x20\n      add\n      mload\n        /* \"contracts/Cheatsheet.sol\":2479:2480  f */\n      dup2\n        /* \"contracts/Cheatsheet.sol\":2479:2490  f.departure */\n      0x01\n      add\n        /* \"contracts/Cheatsheet.sol\":2479:2509  f.departure = flight.departure */\n      swap1\n      dup1\n      mload\n      swap1\n      0x20\n      add\n      swap1\n      tag_119\n      swap3\n      swap2\n      swap1\n      tag_72\n      jump\t// in\n    tag_119:\n      pop\n        /* \"contracts/Cheatsheet.sol\":2536:2542  flight */\n      dup3\n        /* \"contracts/Cheatsheet.sol\":2536:2554  flight.destination */\n      0x40\n      add\n      mload\n        /* \"contracts/Cheatsheet.sol\":2520:2521  f */\n      dup2\n        /* \"contracts/Cheatsheet.sol\":2520:2533  f.destination */\n      0x02\n      add\n        /* \"contracts/Cheatsheet.sol\":2520:2554  f.destination = flight.destination */\n      swap1\n      dup1\n      mload\n      swap1\n      0x20\n      add\n      swap1\n      tag_120\n      swap3\n      swap2\n      swap1\n      tag_72\n      jump\t// in\n    tag_120:\n      pop\n        /* \"contracts/Cheatsheet.sol\":2574:2580  flight */\n      dup3\n        /* \"contracts/Cheatsheet.sol\":2574:2585  flight.date */\n      0x60\n      add\n      mload\n        /* \"contracts/Cheatsheet.sol\":2565:2566  f */\n      dup2\n        /* \"contracts/Cheatsheet.sol\":2565:2571  f.date */\n      0x03\n      add\n        /* \"contracts/Cheatsheet.sol\":2565:2585  f.date = flight.date */\n      swap1\n      dup1\n      mload\n      swap1\n      0x20\n      add\n      swap1\n      tag_121\n      swap3\n      swap2\n      swap1\n      tag_72\n      jump\t// in\n    tag_121:\n      pop\n        /* \"contracts/Cheatsheet.sol\":2606:2612  flight */\n      dup3\n        /* \"contracts/Cheatsheet.sol\":2606:2618  flight.price */\n      0x80\n      add\n      mload\n        /* \"contracts/Cheatsheet.sol\":2596:2597  f */\n      dup2\n        /* \"contracts/Cheatsheet.sol\":2596:2603  f.price */\n      0x04\n      add\n        /* \"contracts/Cheatsheet.sol\":2596:2618  f.price = flight.price */\n      dup2\n      swap1\n      sstore\n      pop\n        /* \"contracts/Cheatsheet.sol\":2645:2651  flight */\n      dup3\n        /* \"contracts/Cheatsheet.sol\":2645:2663  flight.seatsNumber */\n      0xa0\n      add\n      mload\n        /* \"contracts/Cheatsheet.sol\":2629:2630  f */\n      dup2\n        /* \"contracts/Cheatsheet.sol\":2629:2642  f.seatsNumber */\n      0x05\n      add\n        /* \"contracts/Cheatsheet.sol\":2629:2663  f.seatsNumber = flight.seatsNumber */\n      dup2\n      swap1\n      sstore\n      pop\n        /* \"contracts/Cheatsheet.sol\":2143:2671  {\r... */\n      pop\n        /* \"contracts/Cheatsheet.sol\":2071:2671  function newFlight(Flight memory flight) public returns (uint flightID) {\r... */\n      swap2\n      swap1\n      pop\n      jump\t// out\n        /* \"contracts/Cheatsheet.sol\":958:1066  function getBlockId() public view returns (uint256, address){\r... */\n    tag_61:\n        /* \"contracts/Cheatsheet.sol\":1001:1008  uint256 */\n      0x00\n        /* \"contracts/Cheatsheet.sol\":1010:1017  address */\n      dup1\n        /* \"contracts/Cheatsheet.sol\":1037:1044  blockId */\n      sload(0x02)\n        /* \"contracts/Cheatsheet.sol\":1046:1057  userAddress */\n      0x05\n      0x00\n      swap1\n      sload\n      swap1\n      0x0100\n      exp\n      swap1\n      div\n      0xffffffffffffffffffffffffffffffffffffffff\n      and\n        /* \"contracts/Cheatsheet.sol\":1029:1058  return (blockId, userAddress) */\n      swap2\n      pop\n      swap2\n      pop\n        /* \"contracts/Cheatsheet.sol\":958:1066  function getBlockId() public view returns (uint256, address){\r... */\n      swap1\n      swap2\n      jump\t// out\n    tag_72:\n      dup3\n      dup1\n      sload\n      tag_123\n      swap1\n      tag_79\n      jump\t// in\n    tag_123:\n      swap1\n      0x00\n      mstore\n      keccak256(0x00, 0x20)\n      swap1\n      0x1f\n      add\n      0x20\n      swap1\n      div\n      dup2\n      add\n      swap3\n      dup3\n      tag_125\n      jumpi\n      0x00\n      dup6\n      sstore\n      jump(tag_124)\n    tag_125:\n      dup3\n      0x1f\n      lt\n      tag_126\n      jumpi\n      dup1\n      mload\n      not(0xff)\n      and\n      dup4\n      dup1\n      add\n      or\n      dup6\n      sstore\n      jump(tag_124)\n    tag_126:\n      dup3\n      dup1\n      add\n      0x01\n      add\n      dup6\n      sstore\n      dup3\n      iszero\n      tag_124\n      jumpi\n      swap2\n      dup3\n      add\n    tag_127:\n      dup3\n      dup2\n      gt\n      iszero\n      tag_128\n      jumpi\n      dup3\n      mload\n      dup3\n      sstore\n      swap2\n      0x20\n      add\n      swap2\n      swap1\n      0x01\n      add\n      swap1\n      jump(tag_127)\n    tag_128:\n    tag_124:\n      pop\n      swap1\n      pop\n      tag_129\n      swap2\n      swap1\n      tag_130\n      jump\t// in\n    tag_129:\n      pop\n      swap1\n      jump\t// out\n    tag_76:\n      mload(0x40)\n      dup1\n      0xc0\n      add\n      0x40\n      mstore\n      dup1\n      0x00\n      dup2\n      mstore\n      0x20\n      add\n      0x60\n      dup2\n      mstore\n      0x20\n      add\n      0x60\n      dup2\n      mstore\n      0x20\n      add\n      0x60\n      dup2\n      mstore\n      0x20\n      add\n      0x00\n      dup2\n      mstore\n      0x20\n      add\n      0x00\n      dup2\n      mstore\n      pop\n      swap1\n      jump\t// out\n    tag_130:\n    tag_131:\n      dup1\n      dup3\n      gt\n      iszero\n      tag_132\n      jumpi\n      0x00\n      dup2\n      0x00\n      swap1\n      sstore\n      pop\n      0x01\n      add\n      jump(tag_131)\n    tag_132:\n      pop\n      swap1\n      jump\t// out\n        /* \"#utility.yul\":7:419   */\n    tag_134:\n        /* \"#utility.yul\":85:90   */\n      0x00\n        /* \"#utility.yul\":110:176   */\n      tag_136\n        /* \"#utility.yul\":126:175   */\n      tag_137\n        /* \"#utility.yul\":168:174   */\n      dup5\n        /* \"#utility.yul\":126:175   */\n      tag_138\n      jump\t// in\n    tag_137:\n        /* \"#utility.yul\":110:176   */\n      tag_139\n      jump\t// in\n    tag_136:\n        /* \"#utility.yul\":101:176   */\n      swap1\n      pop\n        /* \"#utility.yul\":199:205   */\n      dup3\n        /* \"#utility.yul\":192:197   */\n      dup2\n        /* \"#utility.yul\":185:206   */\n      mstore\n        /* \"#utility.yul\":237:241   */\n      0x20\n        /* \"#utility.yul\":230:235   */\n      dup2\n        /* \"#utility.yul\":226:242   */\n      add\n        /* \"#utility.yul\":275:278   */\n      dup5\n        /* \"#utility.yul\":266:272   */\n      dup5\n        /* \"#utility.yul\":261:264   */\n      dup5\n        /* \"#utility.yul\":257:273   */\n      add\n        /* \"#utility.yul\":254:279   */\n      gt\n        /* \"#utility.yul\":251:363   */\n      iszero\n      tag_140\n      jumpi\n        /* \"#utility.yul\":282:361   */\n      tag_141\n      tag_142\n      jump\t// in\n    tag_141:\n        /* \"#utility.yul\":251:363   */\n    tag_140:\n        /* \"#utility.yul\":372:413   */\n      tag_143\n        /* \"#utility.yul\":406:412   */\n      dup5\n        /* \"#utility.yul\":401:404   */\n      dup3\n        /* \"#utility.yul\":396:399   */\n      dup6\n        /* \"#utility.yul\":372:413   */\n      tag_144\n      jump\t// in\n    tag_143:\n        /* \"#utility.yul\":91:419   */\n      pop\n        /* \"#utility.yul\":7:419   */\n      swap4\n      swap3\n      pop\n      pop\n      pop\n      jump\t// out\n        /* \"#utility.yul\":425:580   */\n    tag_145:\n        /* \"#utility.yul\":479:484   */\n      0x00\n        /* \"#utility.yul\":517:523   */\n      dup2\n        /* \"#utility.yul\":504:524   */\n      calldataload\n        /* \"#utility.yul\":495:524   */\n      swap1\n      pop\n        /* \"#utility.yul\":533:574   */\n      tag_147\n        /* \"#utility.yul\":568:573   */\n      dup2\n        /* \"#utility.yul\":533:574   */\n      tag_148\n      jump\t// in\n    tag_147:\n        /* \"#utility.yul\":425:580   */\n      swap3\n      swap2\n      pop\n      pop\n      jump\t// out\n        /* \"#utility.yul\":600:940   */\n    tag_149:\n        /* \"#utility.yul\":656:661   */\n      0x00\n        /* \"#utility.yul\":705:708   */\n      dup3\n        /* \"#utility.yul\":698:702   */\n      0x1f\n        /* \"#utility.yul\":690:696   */\n      dup4\n        /* \"#utility.yul\":686:703   */\n      add\n        /* \"#utility.yul\":682:709   */\n      slt\n        /* \"#utility.yul\":672:794   */\n      tag_151\n      jumpi\n        /* \"#utility.yul\":713:792   */\n      tag_152\n      tag_153\n      jump\t// in\n    tag_152:\n        /* \"#utility.yul\":672:794   */\n    tag_151:\n        /* \"#utility.yul\":830:836   */\n      dup2\n        /* \"#utility.yul\":817:837   */\n      calldataload\n        /* \"#utility.yul\":855:934   */\n      tag_154\n        /* \"#utility.yul\":930:933   */\n      dup5\n        /* \"#utility.yul\":922:928   */\n      dup3\n        /* \"#utility.yul\":915:919   */\n      0x20\n        /* \"#utility.yul\":907:913   */\n      dup7\n        /* \"#utility.yul\":903:920   */\n      add\n        /* \"#utility.yul\":855:934   */\n      tag_134\n      jump\t// in\n    tag_154:\n        /* \"#utility.yul\":846:934   */\n      swap2\n      pop\n        /* \"#utility.yul\":662:940   */\n      pop\n        /* \"#utility.yul\":600:940   */\n      swap3\n      swap2\n      pop\n      pop\n      jump\t// out\n        /* \"#utility.yul\":977:2722   */\n    tag_155:\n        /* \"#utility.yul\":1048:1053   */\n      0x00\n        /* \"#utility.yul\":1092:1096   */\n      0xc0\n        /* \"#utility.yul\":1080:1089   */\n      dup3\n        /* \"#utility.yul\":1075:1078   */\n      dup5\n        /* \"#utility.yul\":1071:1090   */\n      sub\n        /* \"#utility.yul\":1067:1097   */\n      slt\n        /* \"#utility.yul\":1064:1181   */\n      iszero\n      tag_157\n      jumpi\n        /* \"#utility.yul\":1100:1179   */\n      tag_158\n      tag_159\n      jump\t// in\n    tag_158:\n        /* \"#utility.yul\":1064:1181   */\n    tag_157:\n        /* \"#utility.yul\":1199:1220   */\n      tag_160\n        /* \"#utility.yul\":1215:1219   */\n      0xc0\n        /* \"#utility.yul\":1199:1220   */\n      tag_139\n      jump\t// in\n    tag_160:\n        /* \"#utility.yul\":1190:1220   */\n      swap1\n      pop\n        /* \"#utility.yul\":1277:1278   */\n      0x00\n        /* \"#utility.yul\":1317:1366   */\n      tag_161\n        /* \"#utility.yul\":1362:1365   */\n      dup5\n        /* \"#utility.yul\":1353:1359   */\n      dup3\n        /* \"#utility.yul\":1342:1351   */\n      dup6\n        /* \"#utility.yul\":1338:1360   */\n      add\n        /* \"#utility.yul\":1317:1366   */\n      tag_162\n      jump\t// in\n    tag_161:\n        /* \"#utility.yul\":1310:1314   */\n      0x00\n        /* \"#utility.yul\":1303:1308   */\n      dup4\n        /* \"#utility.yul\":1299:1315   */\n      add\n        /* \"#utility.yul\":1292:1367   */\n      mstore\n        /* \"#utility.yul\":1230:1378   */\n      pop\n        /* \"#utility.yul\":1470:1472   */\n      0x20\n        /* \"#utility.yul\":1459:1468   */\n      dup3\n        /* \"#utility.yul\":1455:1473   */\n      add\n        /* \"#utility.yul\":1442:1474   */\n      calldataload\n        /* \"#utility.yul\":1501:1519   */\n      0xffffffffffffffff\n        /* \"#utility.yul\":1493:1499   */\n      dup2\n        /* \"#utility.yul\":1490:1520   */\n      gt\n        /* \"#utility.yul\":1487:1604   */\n      iszero\n      tag_163\n      jumpi\n        /* \"#utility.yul\":1523:1602   */\n      tag_164\n      tag_165\n      jump\t// in\n    tag_164:\n        /* \"#utility.yul\":1487:1604   */\n    tag_163:\n        /* \"#utility.yul\":1643:1702   */\n      tag_166\n        /* \"#utility.yul\":1698:1701   */\n      dup5\n        /* \"#utility.yul\":1689:1695   */\n      dup3\n        /* \"#utility.yul\":1678:1687   */\n      dup6\n        /* \"#utility.yul\":1674:1696   */\n      add\n        /* \"#utility.yul\":1643:1702   */\n      tag_149\n      jump\t// in\n    tag_166:\n        /* \"#utility.yul\":1636:1640   */\n      0x20\n        /* \"#utility.yul\":1629:1634   */\n      dup4\n        /* \"#utility.yul\":1625:1641   */\n      add\n        /* \"#utility.yul\":1618:1703   */\n      mstore\n        /* \"#utility.yul\":1388:1714   */\n      pop\n        /* \"#utility.yul\":1808:1810   */\n      0x40\n        /* \"#utility.yul\":1797:1806   */\n      dup3\n        /* \"#utility.yul\":1793:1811   */\n      add\n        /* \"#utility.yul\":1780:1812   */\n      calldataload\n        /* \"#utility.yul\":1839:1857   */\n      0xffffffffffffffff\n        /* \"#utility.yul\":1831:1837   */\n      dup2\n        /* \"#utility.yul\":1828:1858   */\n      gt\n        /* \"#utility.yul\":1825:1942   */\n      iszero\n      tag_167\n      jumpi\n        /* \"#utility.yul\":1861:1940   */\n      tag_168\n      tag_165\n      jump\t// in\n    tag_168:\n        /* \"#utility.yul\":1825:1942   */\n    tag_167:\n        /* \"#utility.yul\":1981:2040   */\n      tag_169\n        /* \"#utility.yul\":2036:2039   */\n      dup5\n        /* \"#utility.yul\":2027:2033   */\n      dup3\n        /* \"#utility.yul\":2016:2025   */\n      dup6\n        /* \"#utility.yul\":2012:2034   */\n      add\n        /* \"#utility.yul\":1981:2040   */\n      tag_149\n      jump\t// in\n    tag_169:\n        /* \"#utility.yul\":1974:1978   */\n      0x40\n        /* \"#utility.yul\":1967:1972   */\n      dup4\n        /* \"#utility.yul\":1963:1979   */\n      add\n        /* \"#utility.yul\":1956:2041   */\n      mstore\n        /* \"#utility.yul\":1724:2052   */\n      pop\n        /* \"#utility.yul\":2139:2141   */\n      0x60\n        /* \"#utility.yul\":2128:2137   */\n      dup3\n        /* \"#utility.yul\":2124:2142   */\n      add\n        /* \"#utility.yul\":2111:2143   */\n      calldataload\n        /* \"#utility.yul\":2170:2188   */\n      0xffffffffffffffff\n        /* \"#utility.yul\":2162:2168   */\n      dup2\n        /* \"#utility.yul\":2159:2189   */\n      gt\n        /* \"#utility.yul\":2156:2273   */\n      iszero\n      tag_170\n      jumpi\n        /* \"#utility.yul\":2192:2271   */\n      tag_171\n      tag_165\n      jump\t// in\n    tag_171:\n        /* \"#utility.yul\":2156:2273   */\n    tag_170:\n        /* \"#utility.yul\":2312:2371   */\n      tag_172\n        /* \"#utility.yul\":2367:2370   */\n      dup5\n        /* \"#utility.yul\":2358:2364   */\n      dup3\n        /* \"#utility.yul\":2347:2356   */\n      dup6\n        /* \"#utility.yul\":2343:2365   */\n      add\n        /* \"#utility.yul\":2312:2371   */\n      tag_149\n      jump\t// in\n    tag_172:\n        /* \"#utility.yul\":2305:2309   */\n      0x60\n        /* \"#utility.yul\":2298:2303   */\n      dup4\n        /* \"#utility.yul\":2294:2310   */\n      add\n        /* \"#utility.yul\":2287:2372   */\n      mstore\n        /* \"#utility.yul\":2062:2383   */\n      pop\n        /* \"#utility.yul\":2443:2446   */\n      0x80\n        /* \"#utility.yul\":2485:2534   */\n      tag_173\n        /* \"#utility.yul\":2530:2533   */\n      dup5\n        /* \"#utility.yul\":2521:2527   */\n      dup3\n        /* \"#utility.yul\":2510:2519   */\n      dup6\n        /* \"#utility.yul\":2506:2528   */\n      add\n        /* \"#utility.yul\":2485:2534   */\n      tag_162\n      jump\t// in\n    tag_173:\n        /* \"#utility.yul\":2478:2482   */\n      0x80\n        /* \"#utility.yul\":2471:2476   */\n      dup4\n        /* \"#utility.yul\":2467:2483   */\n      add\n        /* \"#utility.yul\":2460:2535   */\n      mstore\n        /* \"#utility.yul\":2393:2546   */\n      pop\n        /* \"#utility.yul\":2612:2615   */\n      0xa0\n        /* \"#utility.yul\":2654:2703   */\n      tag_174\n        /* \"#utility.yul\":2699:2702   */\n      dup5\n        /* \"#utility.yul\":2690:2696   */\n      dup3\n        /* \"#utility.yul\":2679:2688   */\n      dup6\n        /* \"#utility.yul\":2675:2697   */\n      add\n        /* \"#utility.yul\":2654:2703   */\n      tag_162\n      jump\t// in\n    tag_174:\n        /* \"#utility.yul\":2647:2651   */\n      0xa0\n        /* \"#utility.yul\":2640:2645   */\n      dup4\n        /* \"#utility.yul\":2636:2652   */\n      add\n        /* \"#utility.yul\":2629:2704   */\n      mstore\n        /* \"#utility.yul\":2556:2715   */\n      pop\n        /* \"#utility.yul\":977:2722   */\n      swap3\n      swap2\n      pop\n      pop\n      jump\t// out\n        /* \"#utility.yul\":2728:2867   */\n    tag_162:\n        /* \"#utility.yul\":2774:2779   */\n      0x00\n        /* \"#utility.yul\":2812:2818   */\n      dup2\n        /* \"#utility.yul\":2799:2819   */\n      calldataload\n        /* \"#utility.yul\":2790:2819   */\n      swap1\n      pop\n        /* \"#utility.yul\":2828:2861   */\n      tag_176\n        /* \"#utility.yul\":2855:2860   */\n      dup2\n        /* \"#utility.yul\":2828:2861   */\n      tag_177\n      jump\t// in\n    tag_176:\n        /* \"#utility.yul\":2728:2867   */\n      swap3\n      swap2\n      pop\n      pop\n      jump\t// out\n        /* \"#utility.yul\":2873:3218   */\n    tag_33:\n        /* \"#utility.yul\":2940:2946   */\n      0x00\n        /* \"#utility.yul\":2989:2991   */\n      0x20\n        /* \"#utility.yul\":2977:2986   */\n      dup3\n        /* \"#utility.yul\":2968:2975   */\n      dup5\n        /* \"#utility.yul\":2964:2987   */\n      sub\n        /* \"#utility.yul\":2960:2992   */\n      slt\n        /* \"#utility.yul\":2957:3076   */\n      iszero\n      tag_179\n      jumpi\n        /* \"#utility.yul\":2995:3074   */\n      tag_180\n      tag_181\n      jump\t// in\n    tag_180:\n        /* \"#utility.yul\":2957:3076   */\n    tag_179:\n        /* \"#utility.yul\":3115:3116   */\n      0x00\n        /* \"#utility.yul\":3140:3201   */\n      tag_182\n        /* \"#utility.yul\":3193:3200   */\n      dup5\n        /* \"#utility.yul\":3184:3190   */\n      dup3\n        /* \"#utility.yul\":3173:3182   */\n      dup6\n        /* \"#utility.yul\":3169:3191   */\n      add\n        /* \"#utility.yul\":3140:3201   */\n      tag_145\n      jump\t// in\n    tag_182:\n        /* \"#utility.yul\":3130:3201   */\n      swap2\n      pop\n        /* \"#utility.yul\":3086:3211   */\n      pop\n        /* \"#utility.yul\":2873:3218   */\n      swap3\n      swap2\n      pop\n      pop\n      jump\t// out\n        /* \"#utility.yul\":3224:3757   */\n    tag_56:\n        /* \"#utility.yul\":3305:3311   */\n      0x00\n        /* \"#utility.yul\":3354:3356   */\n      0x20\n        /* \"#utility.yul\":3342:3351   */\n      dup3\n        /* \"#utility.yul\":3333:3340   */\n      dup5\n        /* \"#utility.yul\":3329:3352   */\n      sub\n        /* \"#utility.yul\":3325:3357   */\n      slt\n        /* \"#utility.yul\":3322:3441   */\n      iszero\n      tag_184\n      jumpi\n        /* \"#utility.yul\":3360:3439   */\n      tag_185\n      tag_181\n      jump\t// in\n    tag_185:\n        /* \"#utility.yul\":3322:3441   */\n    tag_184:\n        /* \"#utility.yul\":3508:3509   */\n      0x00\n        /* \"#utility.yul\":3497:3506   */\n      dup3\n        /* \"#utility.yul\":3493:3510   */\n      add\n        /* \"#utility.yul\":3480:3511   */\n      calldataload\n        /* \"#utility.yul\":3538:3556   */\n      0xffffffffffffffff\n        /* \"#utility.yul\":3530:3536   */\n      dup2\n        /* \"#utility.yul\":3527:3557   */\n      gt\n        /* \"#utility.yul\":3524:3641   */\n      iszero\n      tag_186\n      jumpi\n        /* \"#utility.yul\":3560:3639   */\n      tag_187\n      tag_188\n      jump\t// in\n    tag_187:\n        /* \"#utility.yul\":3524:3641   */\n    tag_186:\n        /* \"#utility.yul\":3665:3740   */\n      tag_189\n        /* \"#utility.yul\":3732:3739   */\n      dup5\n        /* \"#utility.yul\":3723:3729   */\n      dup3\n        /* \"#utility.yul\":3712:3721   */\n      dup6\n        /* \"#utility.yul\":3708:3730   */\n      add\n        /* \"#utility.yul\":3665:3740   */\n      tag_155\n      jump\t// in\n    tag_189:\n        /* \"#utility.yul\":3655:3740   */\n      swap2\n      pop\n        /* \"#utility.yul\":3451:3750   */\n      pop\n        /* \"#utility.yul\":3224:3757   */\n      swap3\n      swap2\n      pop\n      pop\n      jump\t// out\n        /* \"#utility.yul\":3763:4092   */\n    tag_27:\n        /* \"#utility.yul\":3822:3828   */\n      0x00\n        /* \"#utility.yul\":3871:3873   */\n      0x20\n        /* \"#utility.yul\":3859:3868   */\n      dup3\n        /* \"#utility.yul\":3850:3857   */\n      dup5\n        /* \"#utility.yul\":3846:3869   */\n      sub\n        /* \"#utility.yul\":3842:3874   */\n      slt\n        /* \"#utility.yul\":3839:3958   */\n      iszero\n      tag_191\n      jumpi\n        /* \"#utility.yul\":3877:3956   */\n      tag_192\n      tag_181\n      jump\t// in\n    tag_192:\n        /* \"#utility.yul\":3839:3958   */\n    tag_191:\n        /* \"#utility.yul\":3997:3998   */\n      0x00\n        /* \"#utility.yul\":4022:4075   */\n      tag_193\n        /* \"#utility.yul\":4067:4074   */\n      dup5\n        /* \"#utility.yul\":4058:4064   */\n      dup3\n        /* \"#utility.yul\":4047:4056   */\n      dup6\n        /* \"#utility.yul\":4043:4065   */\n      add\n        /* \"#utility.yul\":4022:4075   */\n      tag_162\n      jump\t// in\n    tag_193:\n        /* \"#utility.yul\":4012:4075   */\n      swap2\n      pop\n        /* \"#utility.yul\":3968:4085   */\n      pop\n        /* \"#utility.yul\":3763:4092   */\n      swap3\n      swap2\n      pop\n      pop\n      jump\t// out\n        /* \"#utility.yul\":4098:4776   */\n    tag_20:\n        /* \"#utility.yul\":4188:4194   */\n      0x00\n        /* \"#utility.yul\":4196:4202   */\n      dup1\n        /* \"#utility.yul\":4245:4247   */\n      0x40\n        /* \"#utility.yul\":4233:4242   */\n      dup4\n        /* \"#utility.yul\":4224:4231   */\n      dup6\n        /* \"#utility.yul\":4220:4243   */\n      sub\n        /* \"#utility.yul\":4216:4248   */\n      slt\n        /* \"#utility.yul\":4213:4332   */\n      iszero\n      tag_195\n      jumpi\n        /* \"#utility.yul\":4251:4330   */\n      tag_196\n      tag_181\n      jump\t// in\n    tag_196:\n        /* \"#utility.yul\":4213:4332   */\n    tag_195:\n        /* \"#utility.yul\":4371:4372   */\n      0x00\n        /* \"#utility.yul\":4396:4449   */\n      tag_197\n        /* \"#utility.yul\":4441:4448   */\n      dup6\n        /* \"#utility.yul\":4432:4438   */\n      dup3\n        /* \"#utility.yul\":4421:4430   */\n      dup7\n        /* \"#utility.yul\":4417:4439   */\n      add\n        /* \"#utility.yul\":4396:4449   */\n      tag_162\n      jump\t// in\n    tag_197:\n        /* \"#utility.yul\":4386:4449   */\n      swap3\n      pop\n        /* \"#utility.yul\":4342:4459   */\n      pop\n        /* \"#utility.yul\":4526:4528   */\n      0x20\n        /* \"#utility.yul\":4515:4524   */\n      dup4\n        /* \"#utility.yul\":4511:4529   */\n      add\n        /* \"#utility.yul\":4498:4530   */\n      calldataload\n        /* \"#utility.yul\":4557:4575   */\n      0xffffffffffffffff\n        /* \"#utility.yul\":4549:4555   */\n      dup2\n        /* \"#utility.yul\":4546:4576   */\n      gt\n        /* \"#utility.yul\":4543:4660   */\n      iszero\n      tag_198\n      jumpi\n        /* \"#utility.yul\":4579:4658   */\n      tag_199\n      tag_188\n      jump\t// in\n    tag_199:\n        /* \"#utility.yul\":4543:4660   */\n    tag_198:\n        /* \"#utility.yul\":4684:4759   */\n      tag_200\n        /* \"#utility.yul\":4751:4758   */\n      dup6\n        /* \"#utility.yul\":4742:4748   */\n      dup3\n        /* \"#utility.yul\":4731:4740   */\n      dup7\n        /* \"#utility.yul\":4727:4749   */\n      add\n        /* \"#utility.yul\":4684:4759   */\n      tag_155\n      jump\t// in\n    tag_200:\n        /* \"#utility.yul\":4674:4759   */\n      swap2\n      pop\n        /* \"#utility.yul\":4469:4769   */\n      pop\n        /* \"#utility.yul\":4098:4776   */\n      swap3\n      pop\n      swap3\n      swap1\n      pop\n      jump\t// out\n        /* \"#utility.yul\":4782:4900   */\n    tag_201:\n        /* \"#utility.yul\":4869:4893   */\n      tag_203\n        /* \"#utility.yul\":4887:4892   */\n      dup2\n        /* \"#utility.yul\":4869:4893   */\n      tag_204\n      jump\t// in\n    tag_203:\n        /* \"#utility.yul\":4864:4867   */\n      dup3\n        /* \"#utility.yul\":4857:4894   */\n      mstore\n        /* \"#utility.yul\":4782:4900   */\n      pop\n      pop\n      jump\t// out\n        /* \"#utility.yul\":4906:5250   */\n    tag_205:\n        /* \"#utility.yul\":4984:4987   */\n      0x00\n        /* \"#utility.yul\":5012:5051   */\n      tag_207\n        /* \"#utility.yul\":5045:5050   */\n      dup3\n        /* \"#utility.yul\":5012:5051   */\n      tag_208\n      jump\t// in\n    tag_207:\n        /* \"#utility.yul\":5067:5128   */\n      tag_209\n        /* \"#utility.yul\":5121:5127   */\n      dup2\n        /* \"#utility.yul\":5116:5119   */\n      dup6\n        /* \"#utility.yul\":5067:5128   */\n      tag_210\n      jump\t// in\n    tag_209:\n        /* \"#utility.yul\":5060:5128   */\n      swap4\n      pop\n        /* \"#utility.yul\":5137:5189   */\n      tag_211\n        /* \"#utility.yul\":5182:5188   */\n      dup2\n        /* \"#utility.yul\":5177:5180   */\n      dup6\n        /* \"#utility.yul\":5170:5174   */\n      0x20\n        /* \"#utility.yul\":5163:5168   */\n      dup7\n        /* \"#utility.yul\":5159:5175   */\n      add\n        /* \"#utility.yul\":5137:5189   */\n      tag_212\n      jump\t// in\n    tag_211:\n        /* \"#utility.yul\":5214:5243   */\n      tag_213\n        /* \"#utility.yul\":5236:5242   */\n      dup2\n        /* \"#utility.yul\":5214:5243   */\n      tag_214\n      jump\t// in\n    tag_213:\n        /* \"#utility.yul\":5209:5212   */\n      dup5\n        /* \"#utility.yul\":5205:5244   */\n      add\n        /* \"#utility.yul\":5198:5244   */\n      swap2\n      pop\n        /* \"#utility.yul\":4988:5250   */\n      pop\n        /* \"#utility.yul\":4906:5250   */\n      swap3\n      swap2\n      pop\n      pop\n      jump\t// out\n        /* \"#utility.yul\":5256:5622   */\n    tag_215:\n        /* \"#utility.yul\":5398:5401   */\n      0x00\n        /* \"#utility.yul\":5419:5486   */\n      tag_217\n        /* \"#utility.yul\":5483:5485   */\n      0x14\n        /* \"#utility.yul\":5478:5481   */\n      dup4\n        /* \"#utility.yul\":5419:5486   */\n      tag_218\n      jump\t// in\n    tag_217:\n        /* \"#utility.yul\":5412:5486   */\n      swap2\n      pop\n        /* \"#utility.yul\":5495:5588   */\n      tag_219\n        /* \"#utility.yul\":5584:5587   */\n      dup3\n        /* \"#utility.yul\":5495:5588   */\n      tag_220\n      jump\t// in\n    tag_219:\n        /* \"#utility.yul\":5613:5615   */\n      0x20\n        /* \"#utility.yul\":5608:5611   */\n      dup3\n        /* \"#utility.yul\":5604:5616   */\n      add\n        /* \"#utility.yul\":5597:5616   */\n      swap1\n      pop\n        /* \"#utility.yul\":5256:5622   */\n      swap2\n      swap1\n      pop\n      jump\t// out\n        /* \"#utility.yul\":5628:5994   */\n    tag_221:\n        /* \"#utility.yul\":5770:5773   */\n      0x00\n        /* \"#utility.yul\":5791:5858   */\n      tag_223\n        /* \"#utility.yul\":5855:5857   */\n      0x20\n        /* \"#utility.yul\":5850:5853   */\n      dup4\n        /* \"#utility.yul\":5791:5858   */\n      tag_218\n      jump\t// in\n    tag_223:\n        /* \"#utility.yul\":5784:5858   */\n      swap2\n      pop\n        /* \"#utility.yul\":5867:5960   */\n      tag_224\n        /* \"#utility.yul\":5956:5959   */\n      dup3\n        /* \"#utility.yul\":5867:5960   */\n      tag_225\n      jump\t// in\n    tag_224:\n        /* \"#utility.yul\":5985:5987   */\n      0x20\n        /* \"#utility.yul\":5980:5983   */\n      dup3\n        /* \"#utility.yul\":5976:5988   */\n      add\n        /* \"#utility.yul\":5969:5988   */\n      swap1\n      pop\n        /* \"#utility.yul\":5628:5994   */\n      swap2\n      swap1\n      pop\n      jump\t// out\n        /* \"#utility.yul\":6000:6398   */\n    tag_226:\n        /* \"#utility.yul\":6159:6162   */\n      0x00\n        /* \"#utility.yul\":6180:6263   */\n      tag_228\n        /* \"#utility.yul\":6261:6262   */\n      0x00\n        /* \"#utility.yul\":6256:6259   */\n      dup4\n        /* \"#utility.yul\":6180:6263   */\n      tag_229\n      jump\t// in\n    tag_228:\n        /* \"#utility.yul\":6173:6263   */\n      swap2\n      pop\n        /* \"#utility.yul\":6272:6365   */\n      tag_230\n        /* \"#utility.yul\":6361:6364   */\n      dup3\n        /* \"#utility.yul\":6272:6365   */\n      tag_231\n      jump\t// in\n    tag_230:\n        /* \"#utility.yul\":6390:6391   */\n      0x00\n        /* \"#utility.yul\":6385:6388   */\n      dup3\n        /* \"#utility.yul\":6381:6392   */\n      add\n        /* \"#utility.yul\":6374:6392   */\n      swap1\n      pop\n        /* \"#utility.yul\":6000:6398   */\n      swap2\n      swap1\n      pop\n      jump\t// out\n        /* \"#utility.yul\":6462:7918   */\n    tag_232:\n        /* \"#utility.yul\":6575:6578   */\n      0x00\n        /* \"#utility.yul\":6611:6615   */\n      0xc0\n        /* \"#utility.yul\":6606:6609   */\n      dup4\n        /* \"#utility.yul\":6602:6616   */\n      add\n        /* \"#utility.yul\":6696:6700   */\n      0x00\n        /* \"#utility.yul\":6689:6694   */\n      dup4\n        /* \"#utility.yul\":6685:6701   */\n      add\n        /* \"#utility.yul\":6679:6702   */\n      mload\n        /* \"#utility.yul\":6715:6778   */\n      tag_234\n        /* \"#utility.yul\":6772:6776   */\n      0x00\n        /* \"#utility.yul\":6767:6770   */\n      dup7\n        /* \"#utility.yul\":6763:6777   */\n      add\n        /* \"#utility.yul\":6749:6761   */\n      dup3\n        /* \"#utility.yul\":6715:6778   */\n      tag_235\n      jump\t// in\n    tag_234:\n        /* \"#utility.yul\":6626:6788   */\n      pop\n        /* \"#utility.yul\":6875:6879   */\n      0x20\n        /* \"#utility.yul\":6868:6873   */\n      dup4\n        /* \"#utility.yul\":6864:6880   */\n      add\n        /* \"#utility.yul\":6858:6881   */\n      mload\n        /* \"#utility.yul\":6928:6931   */\n      dup5\n        /* \"#utility.yul\":6922:6926   */\n      dup3\n        /* \"#utility.yul\":6918:6932   */\n      sub\n        /* \"#utility.yul\":6911:6915   */\n      0x20\n        /* \"#utility.yul\":6906:6909   */\n      dup7\n        /* \"#utility.yul\":6902:6916   */\n      add\n        /* \"#utility.yul\":6895:6933   */\n      mstore\n        /* \"#utility.yul\":6954:7027   */\n      tag_236\n        /* \"#utility.yul\":7022:7026   */\n      dup3\n        /* \"#utility.yul\":7008:7020   */\n      dup3\n        /* \"#utility.yul\":6954:7027   */\n      tag_205\n      jump\t// in\n    tag_236:\n        /* \"#utility.yul\":6946:7027   */\n      swap2\n      pop\n        /* \"#utility.yul\":6798:7038   */\n      pop\n        /* \"#utility.yul\":7127:7131   */\n      0x40\n        /* \"#utility.yul\":7120:7125   */\n      dup4\n        /* \"#utility.yul\":7116:7132   */\n      add\n        /* \"#utility.yul\":7110:7133   */\n      mload\n        /* \"#utility.yul\":7180:7183   */\n      dup5\n        /* \"#utility.yul\":7174:7178   */\n      dup3\n        /* \"#utility.yul\":7170:7184   */\n      sub\n        /* \"#utility.yul\":7163:7167   */\n      0x40\n        /* \"#utility.yul\":7158:7161   */\n      dup7\n        /* \"#utility.yul\":7154:7168   */\n      add\n        /* \"#utility.yul\":7147:7185   */\n      mstore\n        /* \"#utility.yul\":7206:7279   */\n      tag_237\n        /* \"#utility.yul\":7274:7278   */\n      dup3\n        /* \"#utility.yul\":7260:7272   */\n      dup3\n        /* \"#utility.yul\":7206:7279   */\n      tag_205\n      jump\t// in\n    tag_237:\n        /* \"#utility.yul\":7198:7279   */\n      swap2\n      pop\n        /* \"#utility.yul\":7048:7290   */\n      pop\n        /* \"#utility.yul\":7372:7376   */\n      0x60\n        /* \"#utility.yul\":7365:7370   */\n      dup4\n        /* \"#utility.yul\":7361:7377   */\n      add\n        /* \"#utility.yul\":7355:7378   */\n      mload\n        /* \"#utility.yul\":7425:7428   */\n      dup5\n        /* \"#utility.yul\":7419:7423   */\n      dup3\n        /* \"#utility.yul\":7415:7429   */\n      sub\n        /* \"#utility.yul\":7408:7412   */\n      0x60\n        /* \"#utility.yul\":7403:7406   */\n      dup7\n        /* \"#utility.yul\":7399:7413   */\n      add\n        /* \"#utility.yul\":7392:7430   */\n      mstore\n        /* \"#utility.yul\":7451:7524   */\n      tag_238\n        /* \"#utility.yul\":7519:7523   */\n      dup3\n        /* \"#utility.yul\":7505:7517   */\n      dup3\n        /* \"#utility.yul\":7451:7524   */\n      tag_205\n      jump\t// in\n    tag_238:\n        /* \"#utility.yul\":7443:7524   */\n      swap2\n      pop\n        /* \"#utility.yul\":7300:7535   */\n      pop\n        /* \"#utility.yul\":7618:7622   */\n      0x80\n        /* \"#utility.yul\":7611:7616   */\n      dup4\n        /* \"#utility.yul\":7607:7623   */\n      add\n        /* \"#utility.yul\":7601:7624   */\n      mload\n        /* \"#utility.yul\":7637:7700   */\n      tag_239\n        /* \"#utility.yul\":7694:7698   */\n      0x80\n        /* \"#utility.yul\":7689:7692   */\n      dup7\n        /* \"#utility.yul\":7685:7699   */\n      add\n        /* \"#utility.yul\":7671:7683   */\n      dup3\n        /* \"#utility.yul\":7637:7700   */\n      tag_235\n      jump\t// in\n    tag_239:\n        /* \"#utility.yul\":7545:7710   */\n      pop\n        /* \"#utility.yul\":7799:7803   */\n      0xa0\n        /* \"#utility.yul\":7792:7797   */\n      dup4\n        /* \"#utility.yul\":7788:7804   */\n      add\n        /* \"#utility.yul\":7782:7805   */\n      mload\n        /* \"#utility.yul\":7818:7881   */\n      tag_240\n        /* \"#utility.yul\":7875:7879   */\n      0xa0\n        /* \"#utility.yul\":7870:7873   */\n      dup7\n        /* \"#utility.yul\":7866:7880   */\n      add\n        /* \"#utility.yul\":7852:7864   */\n      dup3\n        /* \"#utility.yul\":7818:7881   */\n      tag_235\n      jump\t// in\n    tag_240:\n        /* \"#utility.yul\":7720:7891   */\n      pop\n        /* \"#utility.yul\":7908:7912   */\n      dup1\n        /* \"#utility.yul\":7901:7912   */\n      swap2\n      pop\n        /* \"#utility.yul\":6580:7918   */\n      pop\n        /* \"#utility.yul\":6462:7918   */\n      swap3\n      swap2\n      pop\n      pop\n      jump\t// out\n        /* \"#utility.yul\":7924:8032   */\n    tag_235:\n        /* \"#utility.yul\":8001:8025   */\n      tag_242\n        /* \"#utility.yul\":8019:8024   */\n      dup2\n        /* \"#utility.yul\":8001:8025   */\n      tag_243\n      jump\t// in\n    tag_242:\n        /* \"#utility.yul\":7996:7999   */\n      dup3\n        /* \"#utility.yul\":7989:8026   */\n      mstore\n        /* \"#utility.yul\":7924:8032   */\n      pop\n      pop\n      jump\t// out\n        /* \"#utility.yul\":8038:8156   */\n    tag_244:\n        /* \"#utility.yul\":8125:8149   */\n      tag_246\n        /* \"#utility.yul\":8143:8148   */\n      dup2\n        /* \"#utility.yul\":8125:8149   */\n      tag_243\n      jump\t// in\n    tag_246:\n        /* \"#utility.yul\":8120:8123   */\n      dup3\n        /* \"#utility.yul\":8113:8150   */\n      mstore\n        /* \"#utility.yul\":8038:8156   */\n      pop\n      pop\n      jump\t// out\n        /* \"#utility.yul\":8162:8541   */\n    tag_96:\n        /* \"#utility.yul\":8346:8349   */\n      0x00\n        /* \"#utility.yul\":8368:8515   */\n      tag_248\n        /* \"#utility.yul\":8511:8514   */\n      dup3\n        /* \"#utility.yul\":8368:8515   */\n      tag_226\n      jump\t// in\n    tag_248:\n        /* \"#utility.yul\":8361:8515   */\n      swap2\n      pop\n        /* \"#utility.yul\":8532:8535   */\n      dup2\n        /* \"#utility.yul\":8525:8535   */\n      swap1\n      pop\n        /* \"#utility.yul\":8162:8541   */\n      swap2\n      swap1\n      pop\n      jump\t// out\n        /* \"#utility.yul\":8547:8966   */\n    tag_102:\n        /* \"#utility.yul\":8713:8717   */\n      0x00\n        /* \"#utility.yul\":8751:8753   */\n      0x20\n        /* \"#utility.yul\":8740:8749   */\n      dup3\n        /* \"#utility.yul\":8736:8754   */\n      add\n        /* \"#utility.yul\":8728:8754   */\n      swap1\n      pop\n        /* \"#utility.yul\":8800:8809   */\n      dup2\n        /* \"#utility.yul\":8794:8798   */\n      dup2\n        /* \"#utility.yul\":8790:8810   */\n      sub\n        /* \"#utility.yul\":8786:8787   */\n      0x00\n        /* \"#utility.yul\":8775:8784   */\n      dup4\n        /* \"#utility.yul\":8771:8788   */\n      add\n        /* \"#utility.yul\":8764:8811   */\n      mstore\n        /* \"#utility.yul\":8828:8959   */\n      tag_250\n        /* \"#utility.yul\":8954:8958   */\n      dup2\n        /* \"#utility.yul\":8828:8959   */\n      tag_215\n      jump\t// in\n    tag_250:\n        /* \"#utility.yul\":8820:8959   */\n      swap1\n      pop\n        /* \"#utility.yul\":8547:8966   */\n      swap2\n      swap1\n      pop\n      jump\t// out\n        /* \"#utility.yul\":8972:9391   */\n    tag_66:\n        /* \"#utility.yul\":9138:9142   */\n      0x00\n        /* \"#utility.yul\":9176:9178   */\n      0x20\n        /* \"#utility.yul\":9165:9174   */\n      dup3\n        /* \"#utility.yul\":9161:9179   */\n      add\n        /* \"#utility.yul\":9153:9179   */\n      swap1\n      pop\n        /* \"#utility.yul\":9225:9234   */\n      dup2\n        /* \"#utility.yul\":9219:9223   */\n      dup2\n        /* \"#utility.yul\":9215:9235   */\n      sub\n        /* \"#utility.yul\":9211:9212   */\n      0x00\n        /* \"#utility.yul\":9200:9209   */\n      dup4\n        /* \"#utility.yul\":9196:9213   */\n      add\n        /* \"#utility.yul\":9189:9236   */\n      mstore\n        /* \"#utility.yul\":9253:9384   */\n      tag_252\n        /* \"#utility.yul\":9379:9383   */\n      dup2\n        /* \"#utility.yul\":9253:9384   */\n      tag_221\n      jump\t// in\n    tag_252:\n        /* \"#utility.yul\":9245:9384   */\n      swap1\n      pop\n        /* \"#utility.yul\":8972:9391   */\n      swap2\n      swap1\n      pop\n      jump\t// out\n        /* \"#utility.yul\":9397:9758   */\n    tag_30:\n        /* \"#utility.yul\":9534:9538   */\n      0x00\n        /* \"#utility.yul\":9572:9574   */\n      0x20\n        /* \"#utility.yul\":9561:9570   */\n      dup3\n        /* \"#utility.yul\":9557:9575   */\n      add\n        /* \"#utility.yul\":9549:9575   */\n      swap1\n      pop\n        /* \"#utility.yul\":9621:9630   */\n      dup2\n        /* \"#utility.yul\":9615:9619   */\n      dup2\n        /* \"#utility.yul\":9611:9631   */\n      sub\n        /* \"#utility.yul\":9607:9608   */\n      0x00\n        /* \"#utility.yul\":9596:9605   */\n      dup4\n        /* \"#utility.yul\":9592:9609   */\n      add\n        /* \"#utility.yul\":9585:9632   */\n      mstore\n        /* \"#utility.yul\":9649:9751   */\n      tag_254\n        /* \"#utility.yul\":9746:9750   */\n      dup2\n        /* \"#utility.yul\":9737:9743   */\n      dup5\n        /* \"#utility.yul\":9649:9751   */\n      tag_232\n      jump\t// in\n    tag_254:\n        /* \"#utility.yul\":9641:9751   */\n      swap1\n      pop\n        /* \"#utility.yul\":9397:9758   */\n      swap3\n      swap2\n      pop\n      pop\n      jump\t// out\n        /* \"#utility.yul\":9764:9986   */\n    tag_23:\n        /* \"#utility.yul\":9857:9861   */\n      0x00\n        /* \"#utility.yul\":9895:9897   */\n      0x20\n        /* \"#utility.yul\":9884:9893   */\n      dup3\n        /* \"#utility.yul\":9880:9898   */\n      add\n        /* \"#utility.yul\":9872:9898   */\n      swap1\n      pop\n        /* \"#utility.yul\":9908:9979   */\n      tag_256\n        /* \"#utility.yul\":9976:9977   */\n      0x00\n        /* \"#utility.yul\":9965:9974   */\n      dup4\n        /* \"#utility.yul\":9961:9978   */\n      add\n        /* \"#utility.yul\":9952:9958   */\n      dup5\n        /* \"#utility.yul\":9908:9979   */\n      tag_244\n      jump\t// in\n    tag_256:\n        /* \"#utility.yul\":9764:9986   */\n      swap3\n      swap2\n      pop\n      pop\n      jump\t// out\n        /* \"#utility.yul\":9992:10324   */\n    tag_42:\n        /* \"#utility.yul\":10113:10117   */\n      0x00\n        /* \"#utility.yul\":10151:10153   */\n      0x40\n        /* \"#utility.yul\":10140:10149   */\n      dup3\n        /* \"#utility.yul\":10136:10154   */\n      add\n        /* \"#utility.yul\":10128:10154   */\n      swap1\n      pop\n        /* \"#utility.yul\":10164:10235   */\n      tag_258\n        /* \"#utility.yul\":10232:10233   */\n      0x00\n        /* \"#utility.yul\":10221:10230   */\n      dup4\n        /* \"#utility.yul\":10217:10234   */\n      add\n        /* \"#utility.yul\":10208:10214   */\n      dup6\n        /* \"#utility.yul\":10164:10235   */\n      tag_244\n      jump\t// in\n    tag_258:\n        /* \"#utility.yul\":10245:10317   */\n      tag_259\n        /* \"#utility.yul\":10313:10315   */\n      0x20\n        /* \"#utility.yul\":10302:10311   */\n      dup4\n        /* \"#utility.yul\":10298:10316   */\n      add\n        /* \"#utility.yul\":10289:10295   */\n      dup5\n        /* \"#utility.yul\":10245:10317   */\n      tag_201\n      jump\t// in\n    tag_259:\n        /* \"#utility.yul\":9992:10324   */\n      swap4\n      swap3\n      pop\n      pop\n      pop\n      jump\t// out\n        /* \"#utility.yul\":10330:10459   */\n    tag_139:\n        /* \"#utility.yul\":10364:10370   */\n      0x00\n        /* \"#utility.yul\":10391:10411   */\n      tag_261\n      tag_262\n      jump\t// in\n    tag_261:\n        /* \"#utility.yul\":10381:10411   */\n      swap1\n      pop\n        /* \"#utility.yul\":10420:10453   */\n      tag_263\n        /* \"#utility.yul\":10448:10452   */\n      dup3\n        /* \"#utility.yul\":10440:10446   */\n      dup3\n        /* \"#utility.yul\":10420:10453   */\n      tag_264\n      jump\t// in\n    tag_263:\n        /* \"#utility.yul\":10330:10459   */\n      swap2\n      swap1\n      pop\n      jump\t// out\n        /* \"#utility.yul\":10465:10540   */\n    tag_262:\n        /* \"#utility.yul\":10498:10504   */\n      0x00\n        /* \"#utility.yul\":10531:10533   */\n      0x40\n        /* \"#utility.yul\":10525:10534   */\n      mload\n        /* \"#utility.yul\":10515:10534   */\n      swap1\n      pop\n        /* \"#utility.yul\":10465:10540   */\n      swap1\n      jump\t// out\n        /* \"#utility.yul\":10546:10854   */\n    tag_138:\n        /* \"#utility.yul\":10608:10612   */\n      0x00\n        /* \"#utility.yul\":10698:10716   */\n      0xffffffffffffffff\n        /* \"#utility.yul\":10690:10696   */\n      dup3\n        /* \"#utility.yul\":10687:10717   */\n      gt\n        /* \"#utility.yul\":10684:10740   */\n      iszero\n      tag_267\n      jumpi\n        /* \"#utility.yul\":10720:10738   */\n      tag_268\n      tag_269\n      jump\t// in\n    tag_268:\n        /* \"#utility.yul\":10684:10740   */\n    tag_267:\n        /* \"#utility.yul\":10758:10787   */\n      tag_270\n        /* \"#utility.yul\":10780:10786   */\n      dup3\n        /* \"#utility.yul\":10758:10787   */\n      tag_214\n      jump\t// in\n    tag_270:\n        /* \"#utility.yul\":10750:10787   */\n      swap1\n      pop\n        /* \"#utility.yul\":10842:10846   */\n      0x20\n        /* \"#utility.yul\":10836:10840   */\n      dup2\n        /* \"#utility.yul\":10832:10847   */\n      add\n        /* \"#utility.yul\":10824:10847   */\n      swap1\n      pop\n        /* \"#utility.yul\":10546:10854   */\n      swap2\n      swap1\n      pop\n      jump\t// out\n        /* \"#utility.yul\":10860:10959   */\n    tag_208:\n        /* \"#utility.yul\":10912:10918   */\n      0x00\n        /* \"#utility.yul\":10946:10951   */\n      dup2\n        /* \"#utility.yul\":10940:10952   */\n      mload\n        /* \"#utility.yul\":10930:10952   */\n      swap1\n      pop\n        /* \"#utility.yul\":10860:10959   */\n      swap2\n      swap1\n      pop\n      jump\t// out\n        /* \"#utility.yul\":10965:11112   */\n    tag_229:\n        /* \"#utility.yul\":11066:11077   */\n      0x00\n        /* \"#utility.yul\":11103:11106   */\n      dup2\n        /* \"#utility.yul\":11088:11106   */\n      swap1\n      pop\n        /* \"#utility.yul\":10965:11112   */\n      swap3\n      swap2\n      pop\n      pop\n      jump\t// out\n        /* \"#utility.yul\":11118:11277   */\n    tag_210:\n        /* \"#utility.yul\":11192:11203   */\n      0x00\n        /* \"#utility.yul\":11226:11232   */\n      dup3\n        /* \"#utility.yul\":11221:11224   */\n      dup3\n        /* \"#utility.yul\":11214:11233   */\n      mstore\n        /* \"#utility.yul\":11266:11270   */\n      0x20\n        /* \"#utility.yul\":11261:11264   */\n      dup3\n        /* \"#utility.yul\":11257:11271   */\n      add\n        /* \"#utility.yul\":11242:11271   */\n      swap1\n      pop\n        /* \"#utility.yul\":11118:11277   */\n      swap3\n      swap2\n      pop\n      pop\n      jump\t// out\n        /* \"#utility.yul\":11283:11452   */\n    tag_218:\n        /* \"#utility.yul\":11367:11378   */\n      0x00\n        /* \"#utility.yul\":11401:11407   */\n      dup3\n        /* \"#utility.yul\":11396:11399   */\n      dup3\n        /* \"#utility.yul\":11389:11408   */\n      mstore\n        /* \"#utility.yul\":11441:11445   */\n      0x20\n        /* \"#utility.yul\":11436:11439   */\n      dup3\n        /* \"#utility.yul\":11432:11446   */\n      add\n        /* \"#utility.yul\":11417:11446   */\n      swap1\n      pop\n        /* \"#utility.yul\":11283:11452   */\n      swap3\n      swap2\n      pop\n      pop\n      jump\t// out\n        /* \"#utility.yul\":11458:11554   */\n    tag_204:\n        /* \"#utility.yul\":11495:11502   */\n      0x00\n        /* \"#utility.yul\":11524:11548   */\n      tag_276\n        /* \"#utility.yul\":11542:11547   */\n      dup3\n        /* \"#utility.yul\":11524:11548   */\n      tag_277\n      jump\t// in\n    tag_276:\n        /* \"#utility.yul\":11513:11548   */\n      swap1\n      pop\n        /* \"#utility.yul\":11458:11554   */\n      swap2\n      swap1\n      pop\n      jump\t// out\n        /* \"#utility.yul\":11560:11664   */\n    tag_278:\n        /* \"#utility.yul\":11605:11612   */\n      0x00\n        /* \"#utility.yul\":11634:11658   */\n      tag_280\n        /* \"#utility.yul\":11652:11657   */\n      dup3\n        /* \"#utility.yul\":11634:11658   */\n      tag_277\n      jump\t// in\n    tag_280:\n        /* \"#utility.yul\":11623:11658   */\n      swap1\n      pop\n        /* \"#utility.yul\":11560:11664   */\n      swap2\n      swap1\n      pop\n      jump\t// out\n        /* \"#utility.yul\":11670:11796   */\n    tag_277:\n        /* \"#utility.yul\":11707:11714   */\n      0x00\n        /* \"#utility.yul\":11747:11789   */\n      0xffffffffffffffffffffffffffffffffffffffff\n        /* \"#utility.yul\":11740:11745   */\n      dup3\n        /* \"#utility.yul\":11736:11790   */\n      and\n        /* \"#utility.yul\":11725:11790   */\n      swap1\n      pop\n        /* \"#utility.yul\":11670:11796   */\n      swap2\n      swap1\n      pop\n      jump\t// out\n        /* \"#utility.yul\":11802:11879   */\n    tag_243:\n        /* \"#utility.yul\":11839:11846   */\n      0x00\n        /* \"#utility.yul\":11868:11873   */\n      dup2\n        /* \"#utility.yul\":11857:11873   */\n      swap1\n      pop\n        /* \"#utility.yul\":11802:11879   */\n      swap2\n      swap1\n      pop\n      jump\t// out\n        /* \"#utility.yul\":11885:12039   */\n    tag_144:\n        /* \"#utility.yul\":11969:11975   */\n      dup3\n        /* \"#utility.yul\":11964:11967   */\n      dup2\n        /* \"#utility.yul\":11959:11962   */\n      dup4\n        /* \"#utility.yul\":11946:11976   */\n      calldatacopy\n        /* \"#utility.yul\":12031:12032   */\n      0x00\n        /* \"#utility.yul\":12022:12028   */\n      dup4\n        /* \"#utility.yul\":12017:12020   */\n      dup4\n        /* \"#utility.yul\":12013:12029   */\n      add\n        /* \"#utility.yul\":12006:12033   */\n      mstore\n        /* \"#utility.yul\":11885:12039   */\n      pop\n      pop\n      pop\n      jump\t// out\n        /* \"#utility.yul\":12045:12352   */\n    tag_212:\n        /* \"#utility.yul\":12113:12114   */\n      0x00\n        /* \"#utility.yul\":12123:12236   */\n    tag_285:\n        /* \"#utility.yul\":12137:12143   */\n      dup4\n        /* \"#utility.yul\":12134:12135   */\n      dup2\n        /* \"#utility.yul\":12131:12144   */\n      lt\n        /* \"#utility.yul\":12123:12236   */\n      iszero\n      tag_287\n      jumpi\n        /* \"#utility.yul\":12222:12223   */\n      dup1\n        /* \"#utility.yul\":12217:12220   */\n      dup3\n        /* \"#utility.yul\":12213:12224   */\n      add\n        /* \"#utility.yul\":12207:12225   */\n      mload\n        /* \"#utility.yul\":12203:12204   */\n      dup2\n        /* \"#utility.yul\":12198:12201   */\n      dup5\n        /* \"#utility.yul\":12194:12205   */\n      add\n        /* \"#utility.yul\":12187:12226   */\n      mstore\n        /* \"#utility.yul\":12159:12161   */\n      0x20\n        /* \"#utility.yul\":12156:12157   */\n      dup2\n        /* \"#utility.yul\":12152:12162   */\n      add\n        /* \"#utility.yul\":12147:12162   */\n      swap1\n      pop\n        /* \"#utility.yul\":12123:12236   */\n      jump(tag_285)\n    tag_287:\n        /* \"#utility.yul\":12254:12260   */\n      dup4\n        /* \"#utility.yul\":12251:12252   */\n      dup2\n        /* \"#utility.yul\":12248:12261   */\n      gt\n        /* \"#utility.yul\":12245:12346   */\n      iszero\n      tag_288\n      jumpi\n        /* \"#utility.yul\":12334:12335   */\n      0x00\n        /* \"#utility.yul\":12325:12331   */\n      dup5\n        /* \"#utility.yul\":12320:12323   */\n      dup5\n        /* \"#utility.yul\":12316:12332   */\n      add\n        /* \"#utility.yul\":12309:12336   */\n      mstore\n        /* \"#utility.yul\":12245:12346   */\n    tag_288:\n        /* \"#utility.yul\":12094:12352   */\n      pop\n        /* \"#utility.yul\":12045:12352   */\n      pop\n      pop\n      pop\n      jump\t// out\n        /* \"#utility.yul\":12358:12678   */\n    tag_79:\n        /* \"#utility.yul\":12402:12408   */\n      0x00\n        /* \"#utility.yul\":12439:12440   */\n      0x02\n        /* \"#utility.yul\":12433:12437   */\n      dup3\n        /* \"#utility.yul\":12429:12441   */\n      div\n        /* \"#utility.yul\":12419:12441   */\n      swap1\n      pop\n        /* \"#utility.yul\":12486:12487   */\n      0x01\n        /* \"#utility.yul\":12480:12484   */\n      dup3\n        /* \"#utility.yul\":12476:12488   */\n      and\n        /* \"#utility.yul\":12507:12525   */\n      dup1\n        /* \"#utility.yul\":12497:12578   */\n      tag_290\n      jumpi\n        /* \"#utility.yul\":12563:12567   */\n      0x7f\n        /* \"#utility.yul\":12555:12561   */\n      dup3\n        /* \"#utility.yul\":12551:12568   */\n      and\n        /* \"#utility.yul\":12541:12568   */\n      swap2\n      pop\n        /* \"#utility.yul\":12497:12578   */\n    tag_290:\n        /* \"#utility.yul\":12625:12627   */\n      0x20\n        /* \"#utility.yul\":12617:12623   */\n      dup3\n        /* \"#utility.yul\":12614:12628   */\n      lt\n        /* \"#utility.yul\":12594:12612   */\n      dup2\n        /* \"#utility.yul\":12591:12629   */\n      eq\n        /* \"#utility.yul\":12588:12672   */\n      iszero\n      tag_291\n      jumpi\n        /* \"#utility.yul\":12644:12662   */\n      tag_292\n      tag_293\n      jump\t// in\n    tag_292:\n        /* \"#utility.yul\":12588:12672   */\n    tag_291:\n        /* \"#utility.yul\":12409:12678   */\n      pop\n        /* \"#utility.yul\":12358:12678   */\n      swap2\n      swap1\n      pop\n      jump\t// out\n        /* \"#utility.yul\":12684:12965   */\n    tag_264:\n        /* \"#utility.yul\":12767:12794   */\n      tag_295\n        /* \"#utility.yul\":12789:12793   */\n      dup3\n        /* \"#utility.yul\":12767:12794   */\n      tag_214\n      jump\t// in\n    tag_295:\n        /* \"#utility.yul\":12759:12765   */\n      dup2\n        /* \"#utility.yul\":12755:12795   */\n      add\n        /* \"#utility.yul\":12897:12903   */\n      dup2\n        /* \"#utility.yul\":12885:12895   */\n      dup2\n        /* \"#utility.yul\":12882:12904   */\n      lt\n        /* \"#utility.yul\":12861:12879   */\n      0xffffffffffffffff\n        /* \"#utility.yul\":12849:12859   */\n      dup3\n        /* \"#utility.yul\":12846:12880   */\n      gt\n        /* \"#utility.yul\":12843:12905   */\n      or\n        /* \"#utility.yul\":12840:12928   */\n      iszero\n      tag_296\n      jumpi\n        /* \"#utility.yul\":12908:12926   */\n      tag_297\n      tag_269\n      jump\t// in\n    tag_297:\n        /* \"#utility.yul\":12840:12928   */\n    tag_296:\n        /* \"#utility.yul\":12948:12958   */\n      dup1\n        /* \"#utility.yul\":12944:12946   */\n      0x40\n        /* \"#utility.yul\":12937:12959   */\n      mstore\n        /* \"#utility.yul\":12727:12965   */\n      pop\n        /* \"#utility.yul\":12684:12965   */\n      pop\n      pop\n      jump\t// out\n        /* \"#utility.yul\":12971:13204   */\n    tag_69:\n        /* \"#utility.yul\":13010:13013   */\n      0x00\n        /* \"#utility.yul\":13033:13057   */\n      tag_299\n        /* \"#utility.yul\":13051:13056   */\n      dup3\n        /* \"#utility.yul\":13033:13057   */\n      tag_243\n      jump\t// in\n    tag_299:\n        /* \"#utility.yul\":13024:13057   */\n      swap2\n      pop\n        /* \"#utility.yul\":13079:13145   */\n      0xffffffffffffffffffffffffffffffffffffffffffffffffffffffffffffffff\n        /* \"#utility.yul\":13072:13077   */\n      dup3\n        /* \"#utility.yul\":13069:13146   */\n      eq\n        /* \"#utility.yul\":13066:13169   */\n      iszero\n      tag_300\n      jumpi\n        /* \"#utility.yul\":13149:13167   */\n      tag_301\n      tag_302\n      jump\t// in\n    tag_301:\n        /* \"#utility.yul\":13066:13169   */\n    tag_300:\n        /* \"#utility.yul\":13196:13197   */\n      0x01\n        /* \"#utility.yul\":13189:13194   */\n      dup3\n        /* \"#utility.yul\":13185:13198   */\n      add\n        /* \"#utility.yul\":13178:13198   */\n      swap1\n      pop\n        /* \"#utility.yul\":12971:13204   */\n      swap2\n      swap1\n      pop\n      jump\t// out\n        /* \"#utility.yul\":13210:13390   */\n    tag_302:\n        /* \"#utility.yul\":13258:13335   */\n      0x4e487b7100000000000000000000000000000000000000000000000000000000\n        /* \"#utility.yul\":13255:13256   */\n      0x00\n        /* \"#utility.yul\":13248:13336   */\n      mstore\n        /* \"#utility.yul\":13355:13359   */\n      0x11\n        /* \"#utility.yul\":13352:13353   */\n      0x04\n        /* \"#utility.yul\":13345:13360   */\n      mstore\n        /* \"#utility.yul\":13379:13383   */\n      0x24\n        /* \"#utility.yul\":13376:13377   */\n      0x00\n        /* \"#utility.yul\":13369:13384   */\n      revert\n        /* \"#utility.yul\":13396:13576   */\n    tag_293:\n        /* \"#utility.yul\":13444:13521   */\n      0x4e487b7100000000000000000000000000000000000000000000000000000000\n        /* \"#utility.yul\":13441:13442   */\n      0x00\n        /* \"#utility.yul\":13434:13522   */\n      mstore\n        /* \"#utility.yul\":13541:13545   */\n      0x22\n        /* \"#utility.yul\":13538:13539   */\n      0x04\n        /* \"#utility.yul\":13531:13546   */\n      mstore\n        /* \"#utility.yul\":13565:13569   */\n      0x24\n        /* \"#utility.yul\":13562:13563   */\n      0x00\n        /* \"#utility.yul\":13555:13570   */\n      revert\n        /* \"#utility.yul\":13582:13762   */\n    tag_269:\n        /* \"#utility.yul\":13630:13707   */\n      0x4e487b7100000000000000000000000000000000000000000000000000000000\n        /* \"#utility.yul\":13627:13628   */\n      0x00\n        /* \"#utility.yul\":13620:13708   */\n      mstore\n        /* \"#utility.yul\":13727:13731   */\n      0x41\n        /* \"#utility.yul\":13724:13725   */\n      0x04\n        /* \"#utility.yul\":13717:13732   */\n      mstore\n        /* \"#utility.yul\":13751:13755   */\n      0x24\n        /* \"#utility.yul\":13748:13749   */\n      0x00\n        /* \"#utility.yul\":13741:13756   */\n      revert\n        /* \"#utility.yul\":13768:13885   */\n    tag_153:\n        /* \"#utility.yul\":13877:13878   */\n      0x00\n        /* \"#utility.yul\":13874:13875   */\n      dup1\n        /* \"#utility.yul\":13867:13879   */\n      revert\n        /* \"#utility.yul\":13891:14008   */\n    tag_159:\n        /* \"#utility.yul\":14000:14001   */\n      0x00\n        /* \"#utility.yul\":13997:13998   */\n      dup1\n        /* \"#utility.yul\":13990:14002   */\n      revert\n        /* \"#utility.yul\":14014:14131   */\n    tag_165:\n        /* \"#utility.yul\":14123:14124   */\n      0x00\n        /* \"#utility.yul\":14120:14121   */\n      dup1\n        /* \"#utility.yul\":14113:14125   */\n      revert\n        /* \"#utility.yul\":14137:14254   */\n    tag_142:\n        /* \"#utility.yul\":14246:14247   */\n      0x00\n        /* \"#utility.yul\":14243:14244   */\n      dup1\n        /* \"#utility.yul\":14236:14248   */\n      revert\n        /* \"#utility.yul\":14260:14377   */\n    tag_188:\n        /* \"#utility.yul\":14369:14370   */\n      0x00\n        /* \"#utility.yul\":14366:14367   */\n      dup1\n        /* \"#utility.yul\":14359:14371   */\n      revert\n        /* \"#utility.yul\":14383:14500   */\n    tag_181:\n        /* \"#utility.yul\":14492:14493   */\n      0x00\n        /* \"#utility.yul\":14489:14490   */\n      dup1\n        /* \"#utility.yul\":14482:14494   */\n      revert\n        /* \"#utility.yul\":14506:14608   */\n    tag_214:\n        /* \"#utility.yul\":14547:14553   */\n      0x00\n        /* \"#utility.yul\":14598:14600   */\n      0x1f\n        /* \"#utility.yul\":14594:14601   */\n      not\n        /* \"#utility.yul\":14589:14591   */\n      0x1f\n        /* \"#utility.yul\":14582:14587   */\n      dup4\n        /* \"#utility.yul\":14578:14592   */\n      add\n        /* \"#utility.yul\":14574:14602   */\n      and\n        /* \"#utility.yul\":14564:14602   */\n      swap1\n      pop\n        /* \"#utility.yul\":14506:14608   */\n      swap2\n      swap1\n      pop\n      jump\t// out\n        /* \"#utility.yul\":14614:14784   */\n    tag_220:\n        /* \"#utility.yul\":14754:14776   */\n      0x4661696c656420746f2073656e64204574686572000000000000000000000000\n        /* \"#utility.yul\":14750:14751   */\n      0x00\n        /* \"#utility.yul\":14742:14748   */\n      dup3\n        /* \"#utility.yul\":14738:14752   */\n      add\n        /* \"#utility.yul\":14731:14777   */\n      mstore\n        /* \"#utility.yul\":14614:14784   */\n      pop\n      jump\t// out\n        /* \"#utility.yul\":14790:14972   */\n    tag_225:\n        /* \"#utility.yul\":14930:14964   */\n      0x556e617574686f72697a656420757365722c206163636573732064656e696564\n        /* \"#utility.yul\":14926:14927   */\n      0x00\n        /* \"#utility.yul\":14918:14924   */\n      dup3\n        /* \"#utility.yul\":14914:14928   */\n      add\n        /* \"#utility.yul\":14907:14965   */\n      mstore\n        /* \"#utility.yul\":14790:14972   */\n      pop\n      jump\t// out\n        /* \"#utility.yul\":14978:15092   */\n    tag_231:\n      pop\n      jump\t// out\n        /* \"#utility.yul\":15098:15236   */\n    tag_148:\n        /* \"#utility.yul\":15179:15211   */\n      tag_317\n        /* \"#utility.yul\":15205:15210   */\n      dup2\n        /* \"#utility.yul\":15179:15211   */\n      tag_278\n      jump\t// in\n    tag_317:\n        /* \"#utility.yul\":15172:15177   */\n      dup2\n        /* \"#utility.yul\":15169:15212   */\n      eq\n        /* \"#utility.yul\":15159:15230   */\n      tag_318\n      jumpi\n        /* \"#utility.yul\":15226:15227   */\n      0x00\n        /* \"#utility.yul\":15223:15224   */\n      dup1\n        /* \"#utility.yul\":15216:15228   */\n      revert\n        /* \"#utility.yul\":15159:15230   */\n    tag_318:\n        /* \"#utility.yul\":15098:15236   */\n      pop\n      jump\t// out\n        /* \"#utility.yul\":15242:15364   */\n    tag_177:\n        /* \"#utility.yul\":15315:15339   */\n      tag_320\n        /* \"#utility.yul\":15333:15338   */\n      dup2\n        /* \"#utility.yul\":15315:15339   */\n      tag_243\n      jump\t// in\n    tag_320:\n        /* \"#utility.yul\":15308:15313   */\n      dup2\n        /* \"#utility.yul\":15305:15340   */\n      eq\n        /* \"#utility.yul\":15295:15358   */\n      tag_321\n      jumpi\n        /* \"#utility.yul\":15354:15355   */\n      0x00\n        /* \"#utility.yul\":15351:15352   */\n      dup1\n        /* \"#utility.yul\":15344:15356   */\n      revert\n        /* \"#utility.yul\":15295:15358   */\n    tag_321:\n        /* \"#utility.yul\":15242:15364   */\n      pop\n      jump\t// out\n\n    auxdata: 0xa26469706673582212209cedb53ad46d95cc3ef1b6f590e4ec506d3b0fcfa836ac965273413edd7b8c7b64736f6c63430008070033\n}\n",
				"bytecode": {
					"linkReferences": {},
					"object": "6080604052733fc03e09150c96b1d0b41e6253aea95b3cda2e2f600660006101000a81548173ffffffffffffffffffffffffffffffffffffffff021916908373ffffffffffffffffffffffffffffffffffffffff16021790555034801561006557600080fd5b50611232806100756000396000f3fe60806040526004361061009c5760003560e01c8063796b89b911610064578063796b89b91461016a578063818aa553146101965780638549085e146101ad578063b5cb15f7146101c9578063c0f3944c146101f4578063e76c0b57146102315761009c565b8063240e222d146100a1578063383665fe146100b85780633a4396cb146100f557806374778c01146101325780637626da661461014e575b600080fd5b3480156100ad57600080fd5b506100b661025d565b005b3480156100c457600080fd5b506100df60048036038101906100da9190610c76565b61034f565b6040516100ec9190610eaf565b60405180910390f35b34801561010157600080fd5b5061011c60048036038101906101179190610c49565b6103e2565b6040516101299190610e8d565b60405180910390f35b61014c60048036038101906101479190610bd3565b6105e3565b005b61016860048036038101906101639190610bd3565b610696565b005b34801561017657600080fd5b5061017f6106e0565b60405161018d929190610eca565b60405180910390f35b3480156101a257600080fd5b506101ab610711565b005b6101c760048036038101906101c29190610bd3565b610803565b005b3480156101d557600080fd5b506101de610880565b6040516101eb9190610eaf565b60405180910390f35b34801561020057600080fd5b5061021b60048036038101906102169190610c00565b61088a565b6040516102289190610eaf565b60405180910390f35b34801561023d57600080fd5b5061024661093b565b604051610254929190610eca565b60405180910390f35b3373ffffffffffffffffffffffffffffffffffffffff16600660009054906101000a900473ffffffffffffffffffffffffffffffffffffffff1673ffffffffffffffffffffffffffffffffffffffff16146102ed576040517f08c379a00000000000000000000000000000000000000000000000000000000081526004016102e490610e6d565b60405180910390fd5b6004600081548092919061030090611074565b91905055504360028190555033600560006101000a81548173ffffffffffffffffffffffffffffffffffffffff021916908373ffffffffffffffffffffffffffffffffffffffff160217905550565b600080600160008581526020019081526020016000209050839150826020015181600101908051906020019061038692919061096c565b5082604001518160020190805190602001906103a392919061096c565b5082606001518160030190805190602001906103c092919061096c565b50826080015181600401819055508260a0015181600501819055505092915050565b6103ea6109f2565b600160008381526020019081526020016000206040518060c00160405290816000820154815260200160018201805461042290611011565b80601f016020809104026020016040519081016040528092919081815260200182805461044e90611011565b801561049b5780601f106104705761010080835404028352916020019161049b565b820191906000526020600020905b81548152906001019060200180831161047e57829003601f168201915b505050505081526020016002820180546104b490611011565b80601f01602080910402602001604051908101604052809291908181526020018280546104e090611011565b801561052d5780601f106105025761010080835404028352916020019161052d565b820191906000526020600020905b81548152906001019060200180831161051057829003601f168201915b5050505050815260200160038201805461054690611011565b80601f016020809104026020016040519081016040528092919081815260200182805461057290611011565b80156105bf5780601f10610594576101008083540402835291602001916105bf565b820191906000526020600020905b8154815290600101906020018083116105a257829003601f168201915b50505050508152602001600482015481526020016005820154815250509050919050565b6000808273ffffffffffffffffffffffffffffffffffffffff163460405161060a90610e38565b60006040518083038185875af1925050503d8060008114610647576040519150601f19603f3d011682016040523d82523d6000602084013e61064c565b606091505b509150915081610691576040517f08c379a000000000000000000000000000000000000000000000000000000000815260040161068890610e4d565b60405180910390fd5b505050565b8073ffffffffffffffffffffffffffffffffffffffff166108fc349081150290604051600060405180830381858888f193505050501580156106dc573d6000803e3d6000fd5b5050565b600080600354600560009054906101000a900473ffffffffffffffffffffffffffffffffffffffff16915091509091565b3373ffffffffffffffffffffffffffffffffffffffff16600660009054906101000a900473ffffffffffffffffffffffffffffffffffffffff1673ffffffffffffffffffffffffffffffffffffffff16146107a1576040517f08c379a000000000000000000000000000000000000000000000000000000000815260040161079890610e6d565b60405180910390fd5b600460008154809291906107b490611074565b91905055504260038190555033600560006101000a81548173ffffffffffffffffffffffffffffffffffffffff021916908373ffffffffffffffffffffffffffffffffffffffff160217905550565b60008173ffffffffffffffffffffffffffffffffffffffff166108fc349081150290604051600060405180830381858888f1935050505090508061087c576040517f08c379a000000000000000000000000000000000000000000000000000000000815260040161087390610e4d565b60405180910390fd5b5050565b6000600454905090565b600080600081548092919061089e90611074565b919050559050600060016000838152602001908152602001600020905081816000018190555082602001518160010190805190602001906108e092919061096c565b5082604001518160020190805190602001906108fd92919061096c565b50826060015181600301908051906020019061091a92919061096c565b50826080015181600401819055508260a00151816005018190555050919050565b600080600254600560009054906101000a900473ffffffffffffffffffffffffffffffffffffffff16915091509091565b82805461097890611011565b90600052602060002090601f01602090048101928261099a57600085556109e1565b82601f106109b357805160ff19168380011785556109e1565b828001600101855582156109e1579182015b828111156109e05782518255916020019190600101906109c5565b5b5090506109ee9190610a28565b5090565b6040518060c001604052806000815260200160608152602001606081526020016060815260200160008152602001600081525090565b5b80821115610a41576000816000905550600101610a29565b5090565b6000610a58610a5384610f18565b610ef3565b905082815260208101848484011115610a7457610a73611159565b5b610a7f848285610fcf565b509392505050565b600081359050610a96816111ce565b92915050565b600082601f830112610ab157610ab061114a565b5b8135610ac1848260208601610a45565b91505092915050565b600060c08284031215610ae057610adf61114f565b5b610aea60c0610ef3565b90506000610afa84828501610bbe565b600083015250602082013567ffffffffffffffff811115610b1e57610b1d611154565b5b610b2a84828501610a9c565b602083015250604082013567ffffffffffffffff811115610b4e57610b4d611154565b5b610b5a84828501610a9c565b604083015250606082013567ffffffffffffffff811115610b7e57610b7d611154565b5b610b8a84828501610a9c565b6060830152506080610b9e84828501610bbe565b60808301525060a0610bb284828501610bbe565b60a08301525092915050565b600081359050610bcd816111e5565b92915050565b600060208284031215610be957610be8611163565b5b6000610bf784828501610a87565b91505092915050565b600060208284031215610c1657610c15611163565b5b600082013567ffffffffffffffff811115610c3457610c3361115e565b5b610c4084828501610aca565b91505092915050565b600060208284031215610c5f57610c5e611163565b5b6000610c6d84828501610bbe565b91505092915050565b60008060408385031215610c8d57610c8c611163565b5b6000610c9b85828601610bbe565b925050602083013567ffffffffffffffff811115610cbc57610cbb61115e565b5b610cc885828601610aca565b9150509250929050565b610cdb81610f81565b82525050565b6000610cec82610f49565b610cf68185610f5f565b9350610d06818560208601610fde565b610d0f81611168565b840191505092915050565b6000610d27601483610f70565b9150610d3282611179565b602082019050919050565b6000610d4a602083610f70565b9150610d55826111a2565b602082019050919050565b6000610d6d600083610f54565b9150610d78826111cb565b600082019050919050565b600060c083016000830151610d9b6000860182610e1a565b5060208301518482036020860152610db38282610ce1565b91505060408301518482036040860152610dcd8282610ce1565b91505060608301518482036060860152610de78282610ce1565b9150506080830151610dfc6080860182610e1a565b5060a0830151610e0f60a0860182610e1a565b508091505092915050565b610e2381610fc5565b82525050565b610e3281610fc5565b82525050565b6000610e4382610d60565b9150819050919050565b60006020820190508181036000830152610e6681610d1a565b9050919050565b60006020820190508181036000830152610e8681610d3d565b9050919050565b60006020820190508181036000830152610ea78184610d83565b905092915050565b6000602082019050610ec46000830184610e29565b92915050565b6000604082019050610edf6000830185610e29565b610eec6020830184610cd2565b9392505050565b6000610efd610f0e565b9050610f098282611043565b919050565b6000604051905090565b600067ffffffffffffffff821115610f3357610f3261111b565b5b610f3c82611168565b9050602081019050919050565b600081519050919050565b600081905092915050565b600082825260208201905092915050565b600082825260208201905092915050565b6000610f8c82610fa5565b9050919050565b6000610f9e82610fa5565b9050919050565b600073ffffffffffffffffffffffffffffffffffffffff82169050919050565b6000819050919050565b82818337600083830152505050565b60005b83811015610ffc578082015181840152602081019050610fe1565b8381111561100b576000848401525b50505050565b6000600282049050600182168061102957607f821691505b6020821081141561103d5761103c6110ec565b5b50919050565b61104c82611168565b810181811067ffffffffffffffff8211171561106b5761106a61111b565b5b80604052505050565b600061107f82610fc5565b91507fffffffffffffffffffffffffffffffffffffffffffffffffffffffffffffffff8214156110b2576110b16110bd565b5b600182019050919050565b7f4e487b7100000000000000000000000000000000000000000000000000000000600052601160045260246000fd5b7f4e487b7100000000000000000000000000000000000000000000000000000000600052602260045260246000fd5b7f4e487b7100000000000000000000000000000000000000000000000000000000600052604160045260246000fd5b600080fd5b600080fd5b600080fd5b600080fd5b600080fd5b600080fd5b6000601f19601f8301169050919050565b7f4661696c656420746f2073656e64204574686572000000000000000000000000600082015250565b7f556e617574686f72697a656420757365722c206163636573732064656e696564600082015250565b50565b6111d781610f93565b81146111e257600080fd5b50565b6111ee81610fc5565b81146111f957600080fd5b5056fea26469706673582212209cedb53ad46d95cc3ef1b6f590e4ec506d3b0fcfa836ac965273413edd7b8c7b64736f6c63430008070033",
					"opcodes": "PUSH1 0x80 PUSH1 0x40 MSTORE PUSH20 0x3FC03E09150C96B1D0B41E6253AEA95B3CDA2E2F PUSH1 0x6 PUSH1 0x0 PUSH2 0x100 EXP DUP2 SLOAD DUP2 PUSH20 0xFFFFFFFFFFFFFFFFFFFFFFFFFFFFFFFFFFFFFFFF MUL NOT AND SWAP1 DUP4 PUSH20 0xFFFFFFFFFFFFFFFFFFFFFFFFFFFFFFFFFFFFFFFF AND MUL OR SWAP1 SSTORE POP CALLVALUE DUP1 ISZERO PUSH2 0x65 JUMPI PUSH1 0x0 DUP1 REVERT JUMPDEST POP PUSH2 0x1232 DUP1 PUSH2 0x75 PUSH1 0x0 CODECOPY PUSH1 0x0 RETURN INVALID PUSH1 0x80 PUSH1 0x40 MSTORE PUSH1 0x4 CALLDATASIZE LT PUSH2 0x9C JUMPI PUSH1 0x0 CALLDATALOAD PUSH1 0xE0 SHR DUP1 PUSH4 0x796B89B9 GT PUSH2 0x64 JUMPI DUP1 PUSH4 0x796B89B9 EQ PUSH2 0x16A JUMPI DUP1 PUSH4 0x818AA553 EQ PUSH2 0x196 JUMPI DUP1 PUSH4 0x8549085E EQ PUSH2 0x1AD JUMPI DUP1 PUSH4 0xB5CB15F7 EQ PUSH2 0x1C9 JUMPI DUP1 PUSH4 0xC0F3944C EQ PUSH2 0x1F4 JUMPI DUP1 PUSH4 0xE76C0B57 EQ PUSH2 0x231 JUMPI PUSH2 0x9C JUMP JUMPDEST DUP1 PUSH4 0x240E222D EQ PUSH2 0xA1 JUMPI DUP1 PUSH4 0x383665FE EQ PUSH2 0xB8 JUMPI DUP1 PUSH4 0x3A4396CB EQ PUSH2 0xF5 JUMPI DUP1 PUSH4 0x74778C01 EQ PUSH2 0x132 JUMPI DUP1 PUSH4 0x7626DA66 EQ PUSH2 0x14E JUMPI JUMPDEST PUSH1 0x0 DUP1 REVERT JUMPDEST CALLVALUE DUP1 ISZERO PUSH2 0xAD JUMPI PUSH1 0x0 DUP1 REVERT JUMPDEST POP PUSH2 0xB6 PUSH2 0x25D JUMP JUMPDEST STOP JUMPDEST CALLVALUE DUP1 ISZERO PUSH2 0xC4 JUMPI PUSH1 0x0 DUP1 REVERT JUMPDEST POP PUSH2 0xDF PUSH1 0x4 DUP1 CALLDATASIZE SUB DUP2 ADD SWAP1 PUSH2 0xDA SWAP2 SWAP1 PUSH2 0xC76 JUMP JUMPDEST PUSH2 0x34F JUMP JUMPDEST PUSH1 0x40 MLOAD PUSH2 0xEC SWAP2 SWAP1 PUSH2 0xEAF JUMP JUMPDEST PUSH1 0x40 MLOAD DUP1 SWAP2 SUB SWAP1 RETURN JUMPDEST CALLVALUE DUP1 ISZERO PUSH2 0x101 JUMPI PUSH1 0x0 DUP1 REVERT JUMPDEST POP PUSH2 0x11C PUSH1 0x4 DUP1 CALLDATASIZE SUB DUP2 ADD SWAP1 PUSH2 0x117 SWAP2 SWAP1 PUSH2 0xC49 JUMP JUMPDEST PUSH2 0x3E2 JUMP JUMPDEST PUSH1 0x40 MLOAD PUSH2 0x129 SWAP2 SWAP1 PUSH2 0xE8D JUMP JUMPDEST PUSH1 0x40 MLOAD DUP1 SWAP2 SUB SWAP1 RETURN JUMPDEST PUSH2 0x14C PUSH1 0x4 DUP1 CALLDATASIZE SUB DUP2 ADD SWAP1 PUSH2 0x147 SWAP2 SWAP1 PUSH2 0xBD3 JUMP JUMPDEST PUSH2 0x5E3 JUMP JUMPDEST STOP JUMPDEST PUSH2 0x168 PUSH1 0x4 DUP1 CALLDATASIZE SUB DUP2 ADD SWAP1 PUSH2 0x163 SWAP2 SWAP1 PUSH2 0xBD3 JUMP JUMPDEST PUSH2 0x696 JUMP JUMPDEST STOP JUMPDEST CALLVALUE DUP1 ISZERO PUSH2 0x176 JUMPI PUSH1 0x0 DUP1 REVERT JUMPDEST POP PUSH2 0x17F PUSH2 0x6E0 JUMP JUMPDEST PUSH1 0x40 MLOAD PUSH2 0x18D SWAP3 SWAP2 SWAP1 PUSH2 0xECA JUMP JUMPDEST PUSH1 0x40 MLOAD DUP1 SWAP2 SUB SWAP1 RETURN JUMPDEST CALLVALUE DUP1 ISZERO PUSH2 0x1A2 JUMPI PUSH1 0x0 DUP1 REVERT JUMPDEST POP PUSH2 0x1AB PUSH2 0x711 JUMP JUMPDEST STOP JUMPDEST PUSH2 0x1C7 PUSH1 0x4 DUP1 CALLDATASIZE SUB DUP2 ADD SWAP1 PUSH2 0x1C2 SWAP2 SWAP1 PUSH2 0xBD3 JUMP JUMPDEST PUSH2 0x803 JUMP JUMPDEST STOP JUMPDEST CALLVALUE DUP1 ISZERO PUSH2 0x1D5 JUMPI PUSH1 0x0 DUP1 REVERT JUMPDEST POP PUSH2 0x1DE PUSH2 0x880 JUMP JUMPDEST PUSH1 0x40 MLOAD PUSH2 0x1EB SWAP2 SWAP1 PUSH2 0xEAF JUMP JUMPDEST PUSH1 0x40 MLOAD DUP1 SWAP2 SUB SWAP1 RETURN JUMPDEST CALLVALUE DUP1 ISZERO PUSH2 0x200 JUMPI PUSH1 0x0 DUP1 REVERT JUMPDEST POP PUSH2 0x21B PUSH1 0x4 DUP1 CALLDATASIZE SUB DUP2 ADD SWAP1 PUSH2 0x216 SWAP2 SWAP1 PUSH2 0xC00 JUMP JUMPDEST PUSH2 0x88A JUMP JUMPDEST PUSH1 0x40 MLOAD PUSH2 0x228 SWAP2 SWAP1 PUSH2 0xEAF JUMP JUMPDEST PUSH1 0x40 MLOAD DUP1 SWAP2 SUB SWAP1 RETURN JUMPDEST CALLVALUE DUP1 ISZERO PUSH2 0x23D JUMPI PUSH1 0x0 DUP1 REVERT JUMPDEST POP PUSH2 0x246 PUSH2 0x93B JUMP JUMPDEST PUSH1 0x40 MLOAD PUSH2 0x254 SWAP3 SWAP2 SWAP1 PUSH2 0xECA JUMP JUMPDEST PUSH1 0x40 MLOAD DUP1 SWAP2 SUB SWAP1 RETURN JUMPDEST CALLER PUSH20 0xFFFFFFFFFFFFFFFFFFFFFFFFFFFFFFFFFFFFFFFF AND PUSH1 0x6 PUSH1 0x0 SWAP1 SLOAD SWAP1 PUSH2 0x100 EXP SWAP1 DIV PUSH20 0xFFFFFFFFFFFFFFFFFFFFFFFFFFFFFFFFFFFFFFFF AND PUSH20 0xFFFFFFFFFFFFFFFFFFFFFFFFFFFFFFFFFFFFFFFF AND EQ PUSH2 0x2ED JUMPI PUSH1 0x40 MLOAD PUSH32 0x8C379A000000000000000000000000000000000000000000000000000000000 DUP2 MSTORE PUSH1 0x4 ADD PUSH2 0x2E4 SWAP1 PUSH2 0xE6D JUMP JUMPDEST PUSH1 0x40 MLOAD DUP1 SWAP2 SUB SWAP1 REVERT JUMPDEST PUSH1 0x4 PUSH1 0x0 DUP2 SLOAD DUP1 SWAP3 SWAP2 SWAP1 PUSH2 0x300 SWAP1 PUSH2 0x1074 JUMP JUMPDEST SWAP2 SWAP1 POP SSTORE POP NUMBER PUSH1 0x2 DUP2 SWAP1 SSTORE POP CALLER PUSH1 0x5 PUSH1 0x0 PUSH2 0x100 EXP DUP2 SLOAD DUP2 PUSH20 0xFFFFFFFFFFFFFFFFFFFFFFFFFFFFFFFFFFFFFFFF MUL NOT AND SWAP1 DUP4 PUSH20 0xFFFFFFFFFFFFFFFFFFFFFFFFFFFFFFFFFFFFFFFF AND MUL OR SWAP1 SSTORE POP JUMP JUMPDEST PUSH1 0x0 DUP1 PUSH1 0x1 PUSH1 0x0 DUP6 DUP2 MSTORE PUSH1 0x20 ADD SWAP1 DUP2 MSTORE PUSH1 0x20 ADD PUSH1 0x0 KECCAK256 SWAP1 POP DUP4 SWAP2 POP DUP3 PUSH1 0x20 ADD MLOAD DUP2 PUSH1 0x1 ADD SWAP1 DUP1 MLOAD SWAP1 PUSH1 0x20 ADD SWAP1 PUSH2 0x386 SWAP3 SWAP2 SWAP1 PUSH2 0x96C JUMP JUMPDEST POP DUP3 PUSH1 0x40 ADD MLOAD DUP2 PUSH1 0x2 ADD SWAP1 DUP1 MLOAD SWAP1 PUSH1 0x20 ADD SWAP1 PUSH2 0x3A3 SWAP3 SWAP2 SWAP1 PUSH2 0x96C JUMP JUMPDEST POP DUP3 PUSH1 0x60 ADD MLOAD DUP2 PUSH1 0x3 ADD SWAP1 DUP1 MLOAD SWAP1 PUSH1 0x20 ADD SWAP1 PUSH2 0x3C0 SWAP3 SWAP2 SWAP1 PUSH2 0x96C JUMP JUMPDEST POP DUP3 PUSH1 0x80 ADD MLOAD DUP2 PUSH1 0x4 ADD DUP2 SWAP1 SSTORE POP DUP3 PUSH1 0xA0 ADD MLOAD DUP2 PUSH1 0x5 ADD DUP2 SWAP1 SSTORE POP POP SWAP3 SWAP2 POP POP JUMP JUMPDEST PUSH2 0x3EA PUSH2 0x9F2 JUMP JUMPDEST PUSH1 0x1 PUSH1 0x0 DUP4 DUP2 MSTORE PUSH1 0x20 ADD SWAP1 DUP2 MSTORE PUSH1 0x20 ADD PUSH1 0x0 KECCAK256 PUSH1 0x40 MLOAD DUP1 PUSH1 0xC0 ADD PUSH1 0x40 MSTORE SWAP1 DUP2 PUSH1 0x0 DUP3 ADD SLOAD DUP2 MSTORE PUSH1 0x20 ADD PUSH1 0x1 DUP3 ADD DUP1 SLOAD PUSH2 0x422 SWAP1 PUSH2 0x1011 JUMP JUMPDEST DUP1 PUSH1 0x1F ADD PUSH1 0x20 DUP1 SWAP2 DIV MUL PUSH1 0x20 ADD PUSH1 0x40 MLOAD SWAP1 DUP2 ADD PUSH1 0x40 MSTORE DUP1 SWAP3 SWAP2 SWAP1 DUP2 DUP2 MSTORE PUSH1 0x20 ADD DUP3 DUP1 SLOAD PUSH2 0x44E SWAP1 PUSH2 0x1011 JUMP JUMPDEST DUP1 ISZERO PUSH2 0x49B JUMPI DUP1 PUSH1 0x1F LT PUSH2 0x470 JUMPI PUSH2 0x100 DUP1 DUP4 SLOAD DIV MUL DUP4 MSTORE SWAP2 PUSH1 0x20 ADD SWAP2 PUSH2 0x49B JUMP JUMPDEST DUP3 ADD SWAP2 SWAP1 PUSH1 0x0 MSTORE PUSH1 0x20 PUSH1 0x0 KECCAK256 SWAP1 JUMPDEST DUP2 SLOAD DUP2 MSTORE SWAP1 PUSH1 0x1 ADD SWAP1 PUSH1 0x20 ADD DUP1 DUP4 GT PUSH2 0x47E JUMPI DUP3 SWAP1 SUB PUSH1 0x1F AND DUP3 ADD SWAP2 JUMPDEST POP POP POP POP POP DUP2 MSTORE PUSH1 0x20 ADD PUSH1 0x2 DUP3 ADD DUP1 SLOAD PUSH2 0x4B4 SWAP1 PUSH2 0x1011 JUMP JUMPDEST DUP1 PUSH1 0x1F ADD PUSH1 0x20 DUP1 SWAP2 DIV MUL PUSH1 0x20 ADD PUSH1 0x40 MLOAD SWAP1 DUP2 ADD PUSH1 0x40 MSTORE DUP1 SWAP3 SWAP2 SWAP1 DUP2 DUP2 MSTORE PUSH1 0x20 ADD DUP3 DUP1 SLOAD PUSH2 0x4E0 SWAP1 PUSH2 0x1011 JUMP JUMPDEST DUP1 ISZERO PUSH2 0x52D JUMPI DUP1 PUSH1 0x1F LT PUSH2 0x502 JUMPI PUSH2 0x100 DUP1 DUP4 SLOAD DIV MUL DUP4 MSTORE SWAP2 PUSH1 0x20 ADD SWAP2 PUSH2 0x52D JUMP JUMPDEST DUP3 ADD SWAP2 SWAP1 PUSH1 0x0 MSTORE PUSH1 0x20 PUSH1 0x0 KECCAK256 SWAP1 JUMPDEST DUP2 SLOAD DUP2 MSTORE SWAP1 PUSH1 0x1 ADD SWAP1 PUSH1 0x20 ADD DUP1 DUP4 GT PUSH2 0x510 JUMPI DUP3 SWAP1 SUB PUSH1 0x1F AND DUP3 ADD SWAP2 JUMPDEST POP POP POP POP POP DUP2 MSTORE PUSH1 0x20 ADD PUSH1 0x3 DUP3 ADD DUP1 SLOAD PUSH2 0x546 SWAP1 PUSH2 0x1011 JUMP JUMPDEST DUP1 PUSH1 0x1F ADD PUSH1 0x20 DUP1 SWAP2 DIV MUL PUSH1 0x20 ADD PUSH1 0x40 MLOAD SWAP1 DUP2 ADD PUSH1 0x40 MSTORE DUP1 SWAP3 SWAP2 SWAP1 DUP2 DUP2 MSTORE PUSH1 0x20 ADD DUP3 DUP1 SLOAD PUSH2 0x572 SWAP1 PUSH2 0x1011 JUMP JUMPDEST DUP1 ISZERO PUSH2 0x5BF JUMPI DUP1 PUSH1 0x1F LT PUSH2 0x594 JUMPI PUSH2 0x100 DUP1 DUP4 SLOAD DIV MUL DUP4 MSTORE SWAP2 PUSH1 0x20 ADD SWAP2 PUSH2 0x5BF JUMP JUMPDEST DUP3 ADD SWAP2 SWAP1 PUSH1 0x0 MSTORE PUSH1 0x20 PUSH1 0x0 KECCAK256 SWAP1 JUMPDEST DUP2 SLOAD DUP2 MSTORE SWAP1 PUSH1 0x1 ADD SWAP1 PUSH1 0x20 ADD DUP1 DUP4 GT PUSH2 0x5A2 JUMPI DUP3 SWAP1 SUB PUSH1 0x1F AND DUP3 ADD SWAP2 JUMPDEST POP POP POP POP POP DUP2 MSTORE PUSH1 0x20 ADD PUSH1 0x4 DUP3 ADD SLOAD DUP2 MSTORE PUSH1 0x20 ADD PUSH1 0x5 DUP3 ADD SLOAD DUP2 MSTORE POP POP SWAP1 POP SWAP2 SWAP1 POP JUMP JUMPDEST PUSH1 0x0 DUP1 DUP3 PUSH20 0xFFFFFFFFFFFFFFFFFFFFFFFFFFFFFFFFFFFFFFFF AND CALLVALUE PUSH1 0x40 MLOAD PUSH2 0x60A SWAP1 PUSH2 0xE38 JUMP JUMPDEST PUSH1 0x0 PUSH1 0x40 MLOAD DUP1 DUP4 SUB DUP2 DUP6 DUP8 GAS CALL SWAP3 POP POP POP RETURNDATASIZE DUP1 PUSH1 0x0 DUP2 EQ PUSH2 0x647 JUMPI PUSH1 0x40 MLOAD SWAP2 POP PUSH1 0x1F NOT PUSH1 0x3F RETURNDATASIZE ADD AND DUP3 ADD PUSH1 0x40 MSTORE RETURNDATASIZE DUP3 MSTORE RETURNDATASIZE PUSH1 0x0 PUSH1 0x20 DUP5 ADD RETURNDATACOPY PUSH2 0x64C JUMP JUMPDEST PUSH1 0x60 SWAP2 POP JUMPDEST POP SWAP2 POP SWAP2 POP DUP2 PUSH2 0x691 JUMPI PUSH1 0x40 MLOAD PUSH32 0x8C379A000000000000000000000000000000000000000000000000000000000 DUP2 MSTORE PUSH1 0x4 ADD PUSH2 0x688 SWAP1 PUSH2 0xE4D JUMP JUMPDEST PUSH1 0x40 MLOAD DUP1 SWAP2 SUB SWAP1 REVERT JUMPDEST POP POP POP JUMP JUMPDEST DUP1 PUSH20 0xFFFFFFFFFFFFFFFFFFFFFFFFFFFFFFFFFFFFFFFF AND PUSH2 0x8FC CALLVALUE SWAP1 DUP2 ISZERO MUL SWAP1 PUSH1 0x40 MLOAD PUSH1 0x0 PUSH1 0x40 MLOAD DUP1 DUP4 SUB DUP2 DUP6 DUP9 DUP9 CALL SWAP4 POP POP POP POP ISZERO DUP1 ISZERO PUSH2 0x6DC JUMPI RETURNDATASIZE PUSH1 0x0 DUP1 RETURNDATACOPY RETURNDATASIZE PUSH1 0x0 REVERT JUMPDEST POP POP JUMP JUMPDEST PUSH1 0x0 DUP1 PUSH1 0x3 SLOAD PUSH1 0x5 PUSH1 0x0 SWAP1 SLOAD SWAP1 PUSH2 0x100 EXP SWAP1 DIV PUSH20 0xFFFFFFFFFFFFFFFFFFFFFFFFFFFFFFFFFFFFFFFF AND SWAP2 POP SWAP2 POP SWAP1 SWAP2 JUMP JUMPDEST CALLER PUSH20 0xFFFFFFFFFFFFFFFFFFFFFFFFFFFFFFFFFFFFFFFF AND PUSH1 0x6 PUSH1 0x0 SWAP1 SLOAD SWAP1 PUSH2 0x100 EXP SWAP1 DIV PUSH20 0xFFFFFFFFFFFFFFFFFFFFFFFFFFFFFFFFFFFFFFFF AND PUSH20 0xFFFFFFFFFFFFFFFFFFFFFFFFFFFFFFFFFFFFFFFF AND EQ PUSH2 0x7A1 JUMPI PUSH1 0x40 MLOAD PUSH32 0x8C379A000000000000000000000000000000000000000000000000000000000 DUP2 MSTORE PUSH1 0x4 ADD PUSH2 0x798 SWAP1 PUSH2 0xE6D JUMP JUMPDEST PUSH1 0x40 MLOAD DUP1 SWAP2 SUB SWAP1 REVERT JUMPDEST PUSH1 0x4 PUSH1 0x0 DUP2 SLOAD DUP1 SWAP3 SWAP2 SWAP1 PUSH2 0x7B4 SWAP1 PUSH2 0x1074 JUMP JUMPDEST SWAP2 SWAP1 POP SSTORE POP TIMESTAMP PUSH1 0x3 DUP2 SWAP1 SSTORE POP CALLER PUSH1 0x5 PUSH1 0x0 PUSH2 0x100 EXP DUP2 SLOAD DUP2 PUSH20 0xFFFFFFFFFFFFFFFFFFFFFFFFFFFFFFFFFFFFFFFF MUL NOT AND SWAP1 DUP4 PUSH20 0xFFFFFFFFFFFFFFFFFFFFFFFFFFFFFFFFFFFFFFFF AND MUL OR SWAP1 SSTORE POP JUMP JUMPDEST PUSH1 0x0 DUP2 PUSH20 0xFFFFFFFFFFFFFFFFFFFFFFFFFFFFFFFFFFFFFFFF AND PUSH2 0x8FC CALLVALUE SWAP1 DUP2 ISZERO MUL SWAP1 PUSH1 0x40 MLOAD PUSH1 0x0 PUSH1 0x40 MLOAD DUP1 DUP4 SUB DUP2 DUP6 DUP9 DUP9 CALL SWAP4 POP POP POP POP SWAP1 POP DUP1 PUSH2 0x87C JUMPI PUSH1 0x40 MLOAD PUSH32 0x8C379A000000000000000000000000000000000000000000000000000000000 DUP2 MSTORE PUSH1 0x4 ADD PUSH2 0x873 SWAP1 PUSH2 0xE4D JUMP JUMPDEST PUSH1 0x40 MLOAD DUP1 SWAP2 SUB SWAP1 REVERT JUMPDEST POP POP JUMP JUMPDEST PUSH1 0x0 PUSH1 0x4 SLOAD SWAP1 POP SWAP1 JUMP JUMPDEST PUSH1 0x0 DUP1 PUSH1 0x0 DUP2 SLOAD DUP1 SWAP3 SWAP2 SWAP1 PUSH2 0x89E SWAP1 PUSH2 0x1074 JUMP JUMPDEST SWAP2 SWAP1 POP SSTORE SWAP1 POP PUSH1 0x0 PUSH1 0x1 PUSH1 0x0 DUP4 DUP2 MSTORE PUSH1 0x20 ADD SWAP1 DUP2 MSTORE PUSH1 0x20 ADD PUSH1 0x0 KECCAK256 SWAP1 POP DUP2 DUP2 PUSH1 0x0 ADD DUP2 SWAP1 SSTORE POP DUP3 PUSH1 0x20 ADD MLOAD DUP2 PUSH1 0x1 ADD SWAP1 DUP1 MLOAD SWAP1 PUSH1 0x20 ADD SWAP1 PUSH2 0x8E0 SWAP3 SWAP2 SWAP1 PUSH2 0x96C JUMP JUMPDEST POP DUP3 PUSH1 0x40 ADD MLOAD DUP2 PUSH1 0x2 ADD SWAP1 DUP1 MLOAD SWAP1 PUSH1 0x20 ADD SWAP1 PUSH2 0x8FD SWAP3 SWAP2 SWAP1 PUSH2 0x96C JUMP JUMPDEST POP DUP3 PUSH1 0x60 ADD MLOAD DUP2 PUSH1 0x3 ADD SWAP1 DUP1 MLOAD SWAP1 PUSH1 0x20 ADD SWAP1 PUSH2 0x91A SWAP3 SWAP2 SWAP1 PUSH2 0x96C JUMP JUMPDEST POP DUP3 PUSH1 0x80 ADD MLOAD DUP2 PUSH1 0x4 ADD DUP2 SWAP1 SSTORE POP DUP3 PUSH1 0xA0 ADD MLOAD DUP2 PUSH1 0x5 ADD DUP2 SWAP1 SSTORE POP POP SWAP2 SWAP1 POP JUMP JUMPDEST PUSH1 0x0 DUP1 PUSH1 0x2 SLOAD PUSH1 0x5 PUSH1 0x0 SWAP1 SLOAD SWAP1 PUSH2 0x100 EXP SWAP1 DIV PUSH20 0xFFFFFFFFFFFFFFFFFFFFFFFFFFFFFFFFFFFFFFFF AND SWAP2 POP SWAP2 POP SWAP1 SWAP2 JUMP JUMPDEST DUP3 DUP1 SLOAD PUSH2 0x978 SWAP1 PUSH2 0x1011 JUMP JUMPDEST SWAP1 PUSH1 0x0 MSTORE PUSH1 0x20 PUSH1 0x0 KECCAK256 SWAP1 PUSH1 0x1F ADD PUSH1 0x20 SWAP1 DIV DUP2 ADD SWAP3 DUP3 PUSH2 0x99A JUMPI PUSH1 0x0 DUP6 SSTORE PUSH2 0x9E1 JUMP JUMPDEST DUP3 PUSH1 0x1F LT PUSH2 0x9B3 JUMPI DUP1 MLOAD PUSH1 0xFF NOT AND DUP4 DUP1 ADD OR DUP6 SSTORE PUSH2 0x9E1 JUMP JUMPDEST DUP3 DUP1 ADD PUSH1 0x1 ADD DUP6 SSTORE DUP3 ISZERO PUSH2 0x9E1 JUMPI SWAP2 DUP3 ADD JUMPDEST DUP3 DUP2 GT ISZERO PUSH2 0x9E0 JUMPI DUP3 MLOAD DUP3 SSTORE SWAP2 PUSH1 0x20 ADD SWAP2 SWAP1 PUSH1 0x1 ADD SWAP1 PUSH2 0x9C5 JUMP JUMPDEST JUMPDEST POP SWAP1 POP PUSH2 0x9EE SWAP2 SWAP1 PUSH2 0xA28 JUMP JUMPDEST POP SWAP1 JUMP JUMPDEST PUSH1 0x40 MLOAD DUP1 PUSH1 0xC0 ADD PUSH1 0x40 MSTORE DUP1 PUSH1 0x0 DUP2 MSTORE PUSH1 0x20 ADD PUSH1 0x60 DUP2 MSTORE PUSH1 0x20 ADD PUSH1 0x60 DUP2 MSTORE PUSH1 0x20 ADD PUSH1 0x60 DUP2 MSTORE PUSH1 0x20 ADD PUSH1 0x0 DUP2 MSTORE PUSH1 0x20 ADD PUSH1 0x0 DUP2 MSTORE POP SWAP1 JUMP JUMPDEST JUMPDEST DUP1 DUP3 GT ISZERO PUSH2 0xA41 JUMPI PUSH1 0x0 DUP2 PUSH1 0x0 SWAP1 SSTORE POP PUSH1 0x1 ADD PUSH2 0xA29 JUMP JUMPDEST POP SWAP1 JUMP JUMPDEST PUSH1 0x0 PUSH2 0xA58 PUSH2 0xA53 DUP5 PUSH2 0xF18 JUMP JUMPDEST PUSH2 0xEF3 JUMP JUMPDEST SWAP1 POP DUP3 DUP2 MSTORE PUSH1 0x20 DUP2 ADD DUP5 DUP5 DUP5 ADD GT ISZERO PUSH2 0xA74 JUMPI PUSH2 0xA73 PUSH2 0x1159 JUMP JUMPDEST JUMPDEST PUSH2 0xA7F DUP5 DUP3 DUP6 PUSH2 0xFCF JUMP JUMPDEST POP SWAP4 SWAP3 POP POP POP JUMP JUMPDEST PUSH1 0x0 DUP2 CALLDATALOAD SWAP1 POP PUSH2 0xA96 DUP2 PUSH2 0x11CE JUMP JUMPDEST SWAP3 SWAP2 POP POP JUMP JUMPDEST PUSH1 0x0 DUP3 PUSH1 0x1F DUP4 ADD SLT PUSH2 0xAB1 JUMPI PUSH2 0xAB0 PUSH2 0x114A JUMP JUMPDEST JUMPDEST DUP2 CALLDATALOAD PUSH2 0xAC1 DUP5 DUP3 PUSH1 0x20 DUP7 ADD PUSH2 0xA45 JUMP JUMPDEST SWAP2 POP POP SWAP3 SWAP2 POP POP JUMP JUMPDEST PUSH1 0x0 PUSH1 0xC0 DUP3 DUP5 SUB SLT ISZERO PUSH2 0xAE0 JUMPI PUSH2 0xADF PUSH2 0x114F JUMP JUMPDEST JUMPDEST PUSH2 0xAEA PUSH1 0xC0 PUSH2 0xEF3 JUMP JUMPDEST SWAP1 POP PUSH1 0x0 PUSH2 0xAFA DUP5 DUP3 DUP6 ADD PUSH2 0xBBE JUMP JUMPDEST PUSH1 0x0 DUP4 ADD MSTORE POP PUSH1 0x20 DUP3 ADD CALLDATALOAD PUSH8 0xFFFFFFFFFFFFFFFF DUP2 GT ISZERO PUSH2 0xB1E JUMPI PUSH2 0xB1D PUSH2 0x1154 JUMP JUMPDEST JUMPDEST PUSH2 0xB2A DUP5 DUP3 DUP6 ADD PUSH2 0xA9C JUMP JUMPDEST PUSH1 0x20 DUP4 ADD MSTORE POP PUSH1 0x40 DUP3 ADD CALLDATALOAD PUSH8 0xFFFFFFFFFFFFFFFF DUP2 GT ISZERO PUSH2 0xB4E JUMPI PUSH2 0xB4D PUSH2 0x1154 JUMP JUMPDEST JUMPDEST PUSH2 0xB5A DUP5 DUP3 DUP6 ADD PUSH2 0xA9C JUMP JUMPDEST PUSH1 0x40 DUP4 ADD MSTORE POP PUSH1 0x60 DUP3 ADD CALLDATALOAD PUSH8 0xFFFFFFFFFFFFFFFF DUP2 GT ISZERO PUSH2 0xB7E JUMPI PUSH2 0xB7D PUSH2 0x1154 JUMP JUMPDEST JUMPDEST PUSH2 0xB8A DUP5 DUP3 DUP6 ADD PUSH2 0xA9C JUMP JUMPDEST PUSH1 0x60 DUP4 ADD MSTORE POP PUSH1 0x80 PUSH2 0xB9E DUP5 DUP3 DUP6 ADD PUSH2 0xBBE JUMP JUMPDEST PUSH1 0x80 DUP4 ADD MSTORE POP PUSH1 0xA0 PUSH2 0xBB2 DUP5 DUP3 DUP6 ADD PUSH2 0xBBE JUMP JUMPDEST PUSH1 0xA0 DUP4 ADD MSTORE POP SWAP3 SWAP2 POP POP JUMP JUMPDEST PUSH1 0x0 DUP2 CALLDATALOAD SWAP1 POP PUSH2 0xBCD DUP2 PUSH2 0x11E5 JUMP JUMPDEST SWAP3 SWAP2 POP POP JUMP JUMPDEST PUSH1 0x0 PUSH1 0x20 DUP3 DUP5 SUB SLT ISZERO PUSH2 0xBE9 JUMPI PUSH2 0xBE8 PUSH2 0x1163 JUMP JUMPDEST JUMPDEST PUSH1 0x0 PUSH2 0xBF7 DUP5 DUP3 DUP6 ADD PUSH2 0xA87 JUMP JUMPDEST SWAP2 POP POP SWAP3 SWAP2 POP POP JUMP JUMPDEST PUSH1 0x0 PUSH1 0x20 DUP3 DUP5 SUB SLT ISZERO PUSH2 0xC16 JUMPI PUSH2 0xC15 PUSH2 0x1163 JUMP JUMPDEST JUMPDEST PUSH1 0x0 DUP3 ADD CALLDATALOAD PUSH8 0xFFFFFFFFFFFFFFFF DUP2 GT ISZERO PUSH2 0xC34 JUMPI PUSH2 0xC33 PUSH2 0x115E JUMP JUMPDEST JUMPDEST PUSH2 0xC40 DUP5 DUP3 DUP6 ADD PUSH2 0xACA JUMP JUMPDEST SWAP2 POP POP SWAP3 SWAP2 POP POP JUMP JUMPDEST PUSH1 0x0 PUSH1 0x20 DUP3 DUP5 SUB SLT ISZERO PUSH2 0xC5F JUMPI PUSH2 0xC5E PUSH2 0x1163 JUMP JUMPDEST JUMPDEST PUSH1 0x0 PUSH2 0xC6D DUP5 DUP3 DUP6 ADD PUSH2 0xBBE JUMP JUMPDEST SWAP2 POP POP SWAP3 SWAP2 POP POP JUMP JUMPDEST PUSH1 0x0 DUP1 PUSH1 0x40 DUP4 DUP6 SUB SLT ISZERO PUSH2 0xC8D JUMPI PUSH2 0xC8C PUSH2 0x1163 JUMP JUMPDEST JUMPDEST PUSH1 0x0 PUSH2 0xC9B DUP6 DUP3 DUP7 ADD PUSH2 0xBBE JUMP JUMPDEST SWAP3 POP POP PUSH1 0x20 DUP4 ADD CALLDATALOAD PUSH8 0xFFFFFFFFFFFFFFFF DUP2 GT ISZERO PUSH2 0xCBC JUMPI PUSH2 0xCBB PUSH2 0x115E JUMP JUMPDEST JUMPDEST PUSH2 0xCC8 DUP6 DUP3 DUP7 ADD PUSH2 0xACA JUMP JUMPDEST SWAP2 POP POP SWAP3 POP SWAP3 SWAP1 POP JUMP JUMPDEST PUSH2 0xCDB DUP2 PUSH2 0xF81 JUMP JUMPDEST DUP3 MSTORE POP POP JUMP JUMPDEST PUSH1 0x0 PUSH2 0xCEC DUP3 PUSH2 0xF49 JUMP JUMPDEST PUSH2 0xCF6 DUP2 DUP6 PUSH2 0xF5F JUMP JUMPDEST SWAP4 POP PUSH2 0xD06 DUP2 DUP6 PUSH1 0x20 DUP7 ADD PUSH2 0xFDE JUMP JUMPDEST PUSH2 0xD0F DUP2 PUSH2 0x1168 JUMP JUMPDEST DUP5 ADD SWAP2 POP POP SWAP3 SWAP2 POP POP JUMP JUMPDEST PUSH1 0x0 PUSH2 0xD27 PUSH1 0x14 DUP4 PUSH2 0xF70 JUMP JUMPDEST SWAP2 POP PUSH2 0xD32 DUP3 PUSH2 0x1179 JUMP JUMPDEST PUSH1 0x20 DUP3 ADD SWAP1 POP SWAP2 SWAP1 POP JUMP JUMPDEST PUSH1 0x0 PUSH2 0xD4A PUSH1 0x20 DUP4 PUSH2 0xF70 JUMP JUMPDEST SWAP2 POP PUSH2 0xD55 DUP3 PUSH2 0x11A2 JUMP JUMPDEST PUSH1 0x20 DUP3 ADD SWAP1 POP SWAP2 SWAP1 POP JUMP JUMPDEST PUSH1 0x0 PUSH2 0xD6D PUSH1 0x0 DUP4 PUSH2 0xF54 JUMP JUMPDEST SWAP2 POP PUSH2 0xD78 DUP3 PUSH2 0x11CB JUMP JUMPDEST PUSH1 0x0 DUP3 ADD SWAP1 POP SWAP2 SWAP1 POP JUMP JUMPDEST PUSH1 0x0 PUSH1 0xC0 DUP4 ADD PUSH1 0x0 DUP4 ADD MLOAD PUSH2 0xD9B PUSH1 0x0 DUP7 ADD DUP3 PUSH2 0xE1A JUMP JUMPDEST POP PUSH1 0x20 DUP4 ADD MLOAD DUP5 DUP3 SUB PUSH1 0x20 DUP7 ADD MSTORE PUSH2 0xDB3 DUP3 DUP3 PUSH2 0xCE1 JUMP JUMPDEST SWAP2 POP POP PUSH1 0x40 DUP4 ADD MLOAD DUP5 DUP3 SUB PUSH1 0x40 DUP7 ADD MSTORE PUSH2 0xDCD DUP3 DUP3 PUSH2 0xCE1 JUMP JUMPDEST SWAP2 POP POP PUSH1 0x60 DUP4 ADD MLOAD DUP5 DUP3 SUB PUSH1 0x60 DUP7 ADD MSTORE PUSH2 0xDE7 DUP3 DUP3 PUSH2 0xCE1 JUMP JUMPDEST SWAP2 POP POP PUSH1 0x80 DUP4 ADD MLOAD PUSH2 0xDFC PUSH1 0x80 DUP7 ADD DUP3 PUSH2 0xE1A JUMP JUMPDEST POP PUSH1 0xA0 DUP4 ADD MLOAD PUSH2 0xE0F PUSH1 0xA0 DUP7 ADD DUP3 PUSH2 0xE1A JUMP JUMPDEST POP DUP1 SWAP2 POP POP SWAP3 SWAP2 POP POP JUMP JUMPDEST PUSH2 0xE23 DUP2 PUSH2 0xFC5 JUMP JUMPDEST DUP3 MSTORE POP POP JUMP JUMPDEST PUSH2 0xE32 DUP2 PUSH2 0xFC5 JUMP JUMPDEST DUP3 MSTORE POP POP JUMP JUMPDEST PUSH1 0x0 PUSH2 0xE43 DUP3 PUSH2 0xD60 JUMP JUMPDEST SWAP2 POP DUP2 SWAP1 POP SWAP2 SWAP1 POP JUMP JUMPDEST PUSH1 0x0 PUSH1 0x20 DUP3 ADD SWAP1 POP DUP2 DUP2 SUB PUSH1 0x0 DUP4 ADD MSTORE PUSH2 0xE66 DUP2 PUSH2 0xD1A JUMP JUMPDEST SWAP1 POP SWAP2 SWAP1 POP JUMP JUMPDEST PUSH1 0x0 PUSH1 0x20 DUP3 ADD SWAP1 POP DUP2 DUP2 SUB PUSH1 0x0 DUP4 ADD MSTORE PUSH2 0xE86 DUP2 PUSH2 0xD3D JUMP JUMPDEST SWAP1 POP SWAP2 SWAP1 POP JUMP JUMPDEST PUSH1 0x0 PUSH1 0x20 DUP3 ADD SWAP1 POP DUP2 DUP2 SUB PUSH1 0x0 DUP4 ADD MSTORE PUSH2 0xEA7 DUP2 DUP5 PUSH2 0xD83 JUMP JUMPDEST SWAP1 POP SWAP3 SWAP2 POP POP JUMP JUMPDEST PUSH1 0x0 PUSH1 0x20 DUP3 ADD SWAP1 POP PUSH2 0xEC4 PUSH1 0x0 DUP4 ADD DUP5 PUSH2 0xE29 JUMP JUMPDEST SWAP3 SWAP2 POP POP JUMP JUMPDEST PUSH1 0x0 PUSH1 0x40 DUP3 ADD SWAP1 POP PUSH2 0xEDF PUSH1 0x0 DUP4 ADD DUP6 PUSH2 0xE29 JUMP JUMPDEST PUSH2 0xEEC PUSH1 0x20 DUP4 ADD DUP5 PUSH2 0xCD2 JUMP JUMPDEST SWAP4 SWAP3 POP POP POP JUMP JUMPDEST PUSH1 0x0 PUSH2 0xEFD PUSH2 0xF0E JUMP JUMPDEST SWAP1 POP PUSH2 0xF09 DUP3 DUP3 PUSH2 0x1043 JUMP JUMPDEST SWAP2 SWAP1 POP JUMP JUMPDEST PUSH1 0x0 PUSH1 0x40 MLOAD SWAP1 POP SWAP1 JUMP JUMPDEST PUSH1 0x0 PUSH8 0xFFFFFFFFFFFFFFFF DUP3 GT ISZERO PUSH2 0xF33 JUMPI PUSH2 0xF32 PUSH2 0x111B JUMP JUMPDEST JUMPDEST PUSH2 0xF3C DUP3 PUSH2 0x1168 JUMP JUMPDEST SWAP1 POP PUSH1 0x20 DUP2 ADD SWAP1 POP SWAP2 SWAP1 POP JUMP JUMPDEST PUSH1 0x0 DUP2 MLOAD SWAP1 POP SWAP2 SWAP1 POP JUMP JUMPDEST PUSH1 0x0 DUP2 SWAP1 POP SWAP3 SWAP2 POP POP JUMP JUMPDEST PUSH1 0x0 DUP3 DUP3 MSTORE PUSH1 0x20 DUP3 ADD SWAP1 POP SWAP3 SWAP2 POP POP JUMP JUMPDEST PUSH1 0x0 DUP3 DUP3 MSTORE PUSH1 0x20 DUP3 ADD SWAP1 POP SWAP3 SWAP2 POP POP JUMP JUMPDEST PUSH1 0x0 PUSH2 0xF8C DUP3 PUSH2 0xFA5 JUMP JUMPDEST SWAP1 POP SWAP2 SWAP1 POP JUMP JUMPDEST PUSH1 0x0 PUSH2 0xF9E DUP3 PUSH2 0xFA5 JUMP JUMPDEST SWAP1 POP SWAP2 SWAP1 POP JUMP JUMPDEST PUSH1 0x0 PUSH20 0xFFFFFFFFFFFFFFFFFFFFFFFFFFFFFFFFFFFFFFFF DUP3 AND SWAP1 POP SWAP2 SWAP1 POP JUMP JUMPDEST PUSH1 0x0 DUP2 SWAP1 POP SWAP2 SWAP1 POP JUMP JUMPDEST DUP3 DUP2 DUP4 CALLDATACOPY PUSH1 0x0 DUP4 DUP4 ADD MSTORE POP POP POP JUMP JUMPDEST PUSH1 0x0 JUMPDEST DUP4 DUP2 LT ISZERO PUSH2 0xFFC JUMPI DUP1 DUP3 ADD MLOAD DUP2 DUP5 ADD MSTORE PUSH1 0x20 DUP2 ADD SWAP1 POP PUSH2 0xFE1 JUMP JUMPDEST DUP4 DUP2 GT ISZERO PUSH2 0x100B JUMPI PUSH1 0x0 DUP5 DUP5 ADD MSTORE JUMPDEST POP POP POP POP JUMP JUMPDEST PUSH1 0x0 PUSH1 0x2 DUP3 DIV SWAP1 POP PUSH1 0x1 DUP3 AND DUP1 PUSH2 0x1029 JUMPI PUSH1 0x7F DUP3 AND SWAP2 POP JUMPDEST PUSH1 0x20 DUP3 LT DUP2 EQ ISZERO PUSH2 0x103D JUMPI PUSH2 0x103C PUSH2 0x10EC JUMP JUMPDEST JUMPDEST POP SWAP2 SWAP1 POP JUMP JUMPDEST PUSH2 0x104C DUP3 PUSH2 0x1168 JUMP JUMPDEST DUP2 ADD DUP2 DUP2 LT PUSH8 0xFFFFFFFFFFFFFFFF DUP3 GT OR ISZERO PUSH2 0x106B JUMPI PUSH2 0x106A PUSH2 0x111B JUMP JUMPDEST JUMPDEST DUP1 PUSH1 0x40 MSTORE POP POP POP JUMP JUMPDEST PUSH1 0x0 PUSH2 0x107F DUP3 PUSH2 0xFC5 JUMP JUMPDEST SWAP2 POP PUSH32 0xFFFFFFFFFFFFFFFFFFFFFFFFFFFFFFFFFFFFFFFFFFFFFFFFFFFFFFFFFFFFFFFF DUP3 EQ ISZERO PUSH2 0x10B2 JUMPI PUSH2 0x10B1 PUSH2 0x10BD JUMP JUMPDEST JUMPDEST PUSH1 0x1 DUP3 ADD SWAP1 POP SWAP2 SWAP1 POP JUMP JUMPDEST PUSH32 0x4E487B7100000000000000000000000000000000000000000000000000000000 PUSH1 0x0 MSTORE PUSH1 0x11 PUSH1 0x4 MSTORE PUSH1 0x24 PUSH1 0x0 REVERT JUMPDEST PUSH32 0x4E487B7100000000000000000000000000000000000000000000000000000000 PUSH1 0x0 MSTORE PUSH1 0x22 PUSH1 0x4 MSTORE PUSH1 0x24 PUSH1 0x0 REVERT JUMPDEST PUSH32 0x4E487B7100000000000000000000000000000000000000000000000000000000 PUSH1 0x0 MSTORE PUSH1 0x41 PUSH1 0x4 MSTORE PUSH1 0x24 PUSH1 0x0 REVERT JUMPDEST PUSH1 0x0 DUP1 REVERT JUMPDEST PUSH1 0x0 DUP1 REVERT JUMPDEST PUSH1 0x0 DUP1 REVERT JUMPDEST PUSH1 0x0 DUP1 REVERT JUMPDEST PUSH1 0x0 DUP1 REVERT JUMPDEST PUSH1 0x0 DUP1 REVERT JUMPDEST PUSH1 0x0 PUSH1 0x1F NOT PUSH1 0x1F DUP4 ADD AND SWAP1 POP SWAP2 SWAP1 POP JUMP JUMPDEST PUSH32 0x4661696C656420746F2073656E64204574686572000000000000000000000000 PUSH1 0x0 DUP3 ADD MSTORE POP JUMP JUMPDEST PUSH32 0x556E617574686F72697A656420757365722C206163636573732064656E696564 PUSH1 0x0 DUP3 ADD MSTORE POP JUMP JUMPDEST POP JUMP JUMPDEST PUSH2 0x11D7 DUP2 PUSH2 0xF93 JUMP JUMPDEST DUP2 EQ PUSH2 0x11E2 JUMPI PUSH1 0x0 DUP1 REVERT JUMPDEST POP JUMP JUMPDEST PUSH2 0x11EE DUP2 PUSH2 0xFC5 JUMP JUMPDEST DUP2 EQ PUSH2 0x11F9 JUMPI PUSH1 0x0 DUP1 REVERT JUMPDEST POP JUMP INVALID LOG2 PUSH5 0x6970667358 0x22 SLT KECCAK256 SWAP13 0xED 0xB5 GASPRICE 0xD4 PUSH14 0x95CC3EF1B6F590E4EC506D3B0FCF 0xA8 CALLDATASIZE 0xAC SWAP7 MSTORE PUSH20 0x413EDD7B8C7B64736F6C63430008070033000000 "
				},
				"gasEstimates": {
					"creation": {
						"codeDepositCost": "931600",
						"executionCost": "25235",
						"totalCost": "956835"
					},
					"external": {
						"callEthers(address)": "infinite",
						"getBlockId()": "4846",
						"getBlockTimestamp()": "4736",
						"getFlight(uint256)": "infinite",
						"getUserCount()": "2503",
						"newFlight((uint256,string,string,string,uint256,uint256))": "infinite",
						"sendEthers(address)": "infinite",
						"setBlockId()": "73054",
						"setBlockTimestamp()": "73075",
						"transferEthers(address)": "infinite",
						"updateFlight(uint256,(uint256,string,string,string,uint256,uint256))": "infinite"
					}
				},
				"methodIdentifiers": {
					"callEthers(address)": "74778c01",
					"getBlockId()": "e76c0b57",
					"getBlockTimestamp()": "796b89b9",
					"getFlight(uint256)": "3a4396cb",
					"getUserCount()": "b5cb15f7",
					"newFlight((uint256,string,string,string,uint256,uint256))": "c0f3944c",
					"sendEthers(address)": "8549085e",
					"setBlockId()": "240e222d",
					"setBlockTimestamp()": "818aa553",
					"transferEthers(address)": "7626da66",
					"updateFlight(uint256,(uint256,string,string,string,uint256,uint256))": "383665fe"
				}
			},
			"storageLayout": {
				"storage": [
					{
						"astId": 28,
						"contract": "contracts/Cheatsheet.sol:Exercice3",
						"label": "numFlight",
						"offset": 0,
						"slot": "0",
						"type": "t_uint256"
					},
					{
						"astId": 33,
						"contract": "contracts/Cheatsheet.sol:Exercice3",
						"label": "flights",
						"offset": 0,
						"slot": "1",
						"type": "t_mapping(t_uint256,t_struct(Flight)14_storage)"
					},
					{
						"astId": 35,
						"contract": "contracts/Cheatsheet.sol:Exercice3",
						"label": "blockId",
						"offset": 0,
						"slot": "2",
						"type": "t_uint256"
					},
					{
						"astId": 37,
						"contract": "contracts/Cheatsheet.sol:Exercice3",
						"label": "blockTimestamp",
						"offset": 0,
						"slot": "3",
						"type": "t_uint256"
					},
					{
						"astId": 39,
						"contract": "contracts/Cheatsheet.sol:Exercice3",
						"label": "userCount",
						"offset": 0,
						"slot": "4",
						"type": "t_uint256"
					},
					{
						"astId": 41,
						"contract": "contracts/Cheatsheet.sol:Exercice3",
						"label": "userAddress",
						"offset": 0,
						"slot": "5",
						"type": "t_address"
					},
					{
						"astId": 44,
						"contract": "contracts/Cheatsheet.sol:Exercice3",
						"label": "ownerAddress",
						"offset": 0,
						"slot": "6",
						"type": "t_address"
					}
				],
				"types": {
					"t_address": {
						"encoding": "inplace",
						"label": "address",
						"numberOfBytes": "20"
					},
					"t_mapping(t_uint256,t_struct(Flight)14_storage)": {
						"encoding": "mapping",
						"key": "t_uint256",
						"label": "mapping(uint256 => struct Exercice3.Flight)",
						"numberOfBytes": "32",
						"value": "t_struct(Flight)14_storage"
					},
					"t_string_storage": {
						"encoding": "bytes",
						"label": "string",
						"numberOfBytes": "32"
					},
					"t_struct(Flight)14_storage": {
						"encoding": "inplace",
						"label": "struct Exercice3.Flight",
						"members": [
							{
								"astId": 3,
								"contract": "contracts/Cheatsheet.sol:Exercice3",
								"label": "id",
								"offset": 0,
								"slot": "0",
								"type": "t_uint256"
							},
							{
								"astId": 5,
								"contract": "contracts/Cheatsheet.sol:Exercice3",
								"label": "departure",
								"offset": 0,
								"slot": "1",
								"type": "t_string_storage"
							},
							{
								"astId": 7,
								"contract": "contracts/Cheatsheet.sol:Exercice3",
								"label": "destination",
								"offset": 0,
								"slot": "2",
								"type": "t_string_storage"
							},
							{
								"astId": 9,
								"contract": "contracts/Cheatsheet.sol:Exercice3",
								"label": "date",
								"offset": 0,
								"slot": "3",
								"type": "t_string_storage"
							},
							{
								"astId": 11,
								"contract": "contracts/Cheatsheet.sol:Exercice3",
								"label": "price",
								"offset": 0,
								"slot": "4",
								"type": "t_uint256"
							},
							{
								"astId": 13,
								"contract": "contracts/Cheatsheet.sol:Exercice3",
								"label": "seatsNumber",
								"offset": 0,
								"slot": "5",
								"type": "t_uint256"
							}
						],
						"numberOfBytes": "192"
					},
					"t_uint256": {
						"encoding": "inplace",
						"label": "uint256",
						"numberOfBytes": "32"
					}
				}
			},
			"userdoc": {
				"kind": "user",
				"methods": {},
				"version": 1
			}
		}
	}
}