{
	"contracts/Garage.sol": {
		"GarageContract": {
			"abi": [
				{
					"anonymous": false,
					"inputs": [
						{
							"indexed": true,
							"internalType": "uint256",
							"name": "_repairId",
							"type": "uint256"
						},
						{
							"indexed": true,
							"internalType": "uint256",
							"name": "_claimId",
							"type": "uint256"
						},
						{
							"indexed": false,
							"internalType": "uint256",
							"name": "repairCost",
							"type": "uint256"
						},
						{
							"indexed": false,
							"internalType": "string",
							"name": "_notification",
							"type": "string"
						}
					],
					"name": "SendReceipt",
					"type": "event"
				},
				{
					"inputs": [
						{
							"internalType": "uint256",
							"name": "repairId",
							"type": "uint256"
						}
					],
					"name": "achieveRepairRequest",
					"outputs": [],
					"stateMutability": "nonpayable",
					"type": "function"
				},
				{
					"inputs": [
						{
							"internalType": "uint256",
							"name": "damagePercentage",
							"type": "uint256"
						}
					],
					"name": "estimateCost",
					"outputs": [
						{
							"internalType": "uint256",
							"name": "",
							"type": "uint256"
						}
					],
					"stateMutability": "pure",
					"type": "function"
				},
				{
					"inputs": [
						{
							"internalType": "uint256",
							"name": "id",
							"type": "uint256"
						}
					],
					"name": "getRepair",
					"outputs": [
						{
							"components": [
								{
									"internalType": "uint256",
									"name": "id",
									"type": "uint256"
								},
								{
									"internalType": "uint256",
									"name": "claimId",
									"type": "uint256"
								},
								{
									"internalType": "uint256",
									"name": "damage",
									"type": "uint256"
								},
								{
									"internalType": "uint256",
									"name": "cost",
									"type": "uint256"
								},
								{
									"internalType": "bool",
									"name": "isDone",
									"type": "bool"
								}
							],
							"internalType": "struct InsuranceCompanyContract.Repair",
							"name": "repair",
							"type": "tuple"
						}
					],
					"stateMutability": "view",
					"type": "function"
				},
				{
					"inputs": [
						{
							"internalType": "uint256",
							"name": "claimId",
							"type": "uint256"
						},
						{
							"internalType": "uint256",
							"name": "damage",
							"type": "uint256"
						}
					],
					"name": "receiveRepairRequest",
					"outputs": [
						{
							"internalType": "uint256",
							"name": "repairId",
							"type": "uint256"
						}
					],
					"stateMutability": "nonpayable",
					"type": "function"
				}
			],
			"devdoc": {
				"kind": "dev",
				"methods": {},
				"version": 1
			},
			"evm": {
				"assembly": "    /* \"contracts/Garage.sol\":98:1710  contract GarageContract is InsuranceCompanyContract {\r... */\n  mstore(0x40, 0x80)\n  callvalue\n  dup1\n  iszero\n  tag_1\n  jumpi\n  0x00\n  dup1\n  revert\ntag_1:\n  pop\n  dataSize(sub_0)\n  dup1\n  dataOffset(sub_0)\n  0x00\n  codecopy\n  0x00\n  return\nstop\n\nsub_0: assembly {\n        /* \"contracts/Garage.sol\":98:1710  contract GarageContract is InsuranceCompanyContract {\r... */\n      mstore(0x40, 0x80)\n      callvalue\n      dup1\n      iszero\n      tag_1\n      jumpi\n      0x00\n      dup1\n      revert\n    tag_1:\n      pop\n      jumpi(tag_2, lt(calldatasize, 0x04))\n      shr(0xe0, calldataload(0x00))\n      dup1\n      0x1d2ff196\n      eq\n      tag_3\n      jumpi\n      dup1\n      0x41807a54\n      eq\n      tag_4\n      jumpi\n      dup1\n      0x4c95ef49\n      eq\n      tag_5\n      jumpi\n      dup1\n      0x729511fa\n      eq\n      tag_6\n      jumpi\n    tag_2:\n      0x00\n      dup1\n      revert\n        /* \"contracts/Garage.sol\":1252:1707  function achieveRepairRequest(uint repairId) public {\r... */\n    tag_3:\n      tag_7\n      0x04\n      dup1\n      calldatasize\n      sub\n      dup2\n      add\n      swap1\n      tag_8\n      swap2\n      swap1\n      tag_9\n      jump\t// in\n    tag_8:\n      tag_10\n      jump\t// in\n    tag_7:\n      stop\n        /* \"contracts/Garage.sol\":836:1244  function estimateCost(uint damagePercentage) public pure returns (uint){\r... */\n    tag_4:\n      tag_11\n      0x04\n      dup1\n      calldatasize\n      sub\n      dup2\n      add\n      swap1\n      tag_12\n      swap2\n      swap1\n      tag_9\n      jump\t// in\n    tag_12:\n      tag_13\n      jump\t// in\n    tag_11:\n      mload(0x40)\n      tag_14\n      swap2\n      swap1\n      tag_15\n      jump\t// in\n    tag_14:\n      mload(0x40)\n      dup1\n      swap2\n      sub\n      swap1\n      return\n        /* \"contracts/Garage.sol\":331:711  function receiveRepairRequest(uint claimId, uint damage) public returns (uint repairId){\r... */\n    tag_5:\n      tag_16\n      0x04\n      dup1\n      calldatasize\n      sub\n      dup2\n      add\n      swap1\n      tag_17\n      swap2\n      swap1\n      tag_18\n      jump\t// in\n    tag_17:\n      tag_19\n      jump\t// in\n    tag_16:\n      mload(0x40)\n      tag_20\n      swap2\n      swap1\n      tag_15\n      jump\t// in\n    tag_20:\n      mload(0x40)\n      dup1\n      swap2\n      sub\n      swap1\n      return\n        /* \"contracts/Garage.sol\":719:828  function getRepair(uint id) public view returns (Repair memory repair){\r... */\n    tag_6:\n      tag_21\n      0x04\n      dup1\n      calldatasize\n      sub\n      dup2\n      add\n      swap1\n      tag_22\n      swap2\n      swap1\n      tag_9\n      jump\t// in\n    tag_22:\n      tag_23\n      jump\t// in\n    tag_21:\n      mload(0x40)\n      tag_24\n      swap2\n      swap1\n      tag_25\n      jump\t// in\n    tag_24:\n      mload(0x40)\n      dup1\n      swap2\n      sub\n      swap1\n      return\n        /* \"contracts/Garage.sol\":1252:1707  function achieveRepairRequest(uint repairId) public {\r... */\n    tag_10:\n        /* \"contracts/Garage.sol\":1315:1330  uint repairCost */\n      0x00\n        /* \"contracts/Garage.sol\":1333:1371  estimateCost(repairs[repairId].damage) */\n      tag_27\n        /* \"contracts/Garage.sol\":1346:1353  repairs */\n      0x01\n        /* \"contracts/Garage.sol\":1346:1363  repairs[repairId] */\n      0x00\n        /* \"contracts/Garage.sol\":1354:1362  repairId */\n      dup5\n        /* \"contracts/Garage.sol\":1346:1363  repairs[repairId] */\n      dup2\n      mstore\n      0x20\n      add\n      swap1\n      dup2\n      mstore\n      0x20\n      add\n      0x00\n      keccak256\n        /* \"contracts/Garage.sol\":1346:1370  repairs[repairId].damage */\n      0x02\n      add\n      sload\n        /* \"contracts/Garage.sol\":1333:1345  estimateCost */\n      tag_13\n        /* \"contracts/Garage.sol\":1333:1371  estimateCost(repairs[repairId].damage) */\n      jump\t// in\n    tag_27:\n        /* \"contracts/Garage.sol\":1315:1371  uint repairCost = estimateCost(repairs[repairId].damage) */\n      swap1\n      pop\n        /* \"contracts/Garage.sol\":1398:1399  0 */\n      0x00\n        /* \"contracts/Garage.sol\":1385:1395  repairCost */\n      dup2\n        /* \"contracts/Garage.sol\":1385:1399  repairCost > 0 */\n      gt\n        /* \"contracts/Garage.sol\":1382:1596  if(repairCost > 0){\r... */\n      iszero\n      tag_28\n      jumpi\n        /* \"contracts/Garage.sol\":1442:1446  true */\n      0x01\n        /* \"contracts/Garage.sol\":1415:1422  repairs */\n      dup1\n        /* \"contracts/Garage.sol\":1415:1432  repairs[repairId] */\n      0x00\n        /* \"contracts/Garage.sol\":1423:1431  repairId */\n      dup5\n        /* \"contracts/Garage.sol\":1415:1432  repairs[repairId] */\n      dup2\n      mstore\n      0x20\n      add\n      swap1\n      dup2\n      mstore\n      0x20\n      add\n      0x00\n      keccak256\n        /* \"contracts/Garage.sol\":1415:1439  repairs[repairId].isDone */\n      0x04\n      add\n      0x00\n        /* \"contracts/Garage.sol\":1415:1446  repairs[repairId].isDone = true */\n      0x0100\n      exp\n      dup2\n      sload\n      dup2\n      0xff\n      mul\n      not\n      and\n      swap1\n      dup4\n      iszero\n      iszero\n      mul\n      or\n      swap1\n      sstore\n      pop\n        /* \"contracts/Garage.sol\":1488:1507  getRepair(repairId) */\n      tag_29\n        /* \"contracts/Garage.sol\":1498:1506  repairId */\n      dup3\n        /* \"contracts/Garage.sol\":1488:1497  getRepair */\n      tag_23\n        /* \"contracts/Garage.sol\":1488:1507  getRepair(repairId) */\n      jump\t// in\n    tag_29:\n        /* \"contracts/Garage.sol\":1488:1515  getRepair(repairId).claimId */\n      0x20\n      add\n      mload\n        /* \"contracts/Garage.sol\":1478:1486  repairId */\n      dup3\n        /* \"contracts/Garage.sol\":1466:1584  SendReceipt(repairId, getRepair(repairId).claimId, repairCost, \"The repair has been done. Please proceed to payment.\") */\n      0xafbe9b43882feefab873a3f4091fe1a4d1f74cb7e15f450a3e40c99e9ead8493\n        /* \"contracts/Garage.sol\":1517:1527  repairCost */\n      dup4\n        /* \"contracts/Garage.sol\":1466:1584  SendReceipt(repairId, getRepair(repairId).claimId, repairCost, \"The repair has been done. Please proceed to payment.\") */\n      mload(0x40)\n      tag_30\n      swap2\n      swap1\n      tag_31\n      jump\t// in\n    tag_30:\n      mload(0x40)\n      dup1\n      swap2\n      sub\n      swap1\n      log3\n        /* \"contracts/Garage.sol\":1382:1596  if(repairCost > 0){\r... */\n    tag_28:\n        /* \"contracts/Garage.sol\":1633:1652  getRepair(repairId) */\n      tag_32\n        /* \"contracts/Garage.sol\":1643:1651  repairId */\n      dup3\n        /* \"contracts/Garage.sol\":1633:1642  getRepair */\n      tag_23\n        /* \"contracts/Garage.sol\":1633:1652  getRepair(repairId) */\n      jump\t// in\n    tag_32:\n        /* \"contracts/Garage.sol\":1633:1660  getRepair(repairId).claimId */\n      0x20\n      add\n      mload\n        /* \"contracts/Garage.sol\":1623:1631  repairId */\n      dup3\n        /* \"contracts/Garage.sol\":1611:1699  SendReceipt(repairId, getRepair(repairId).claimId, repairCost, \"No reparations needed.\") */\n      0xafbe9b43882feefab873a3f4091fe1a4d1f74cb7e15f450a3e40c99e9ead8493\n        /* \"contracts/Garage.sol\":1662:1672  repairCost */\n      dup4\n        /* \"contracts/Garage.sol\":1611:1699  SendReceipt(repairId, getRepair(repairId).claimId, repairCost, \"No reparations needed.\") */\n      mload(0x40)\n      tag_33\n      swap2\n      swap1\n      tag_34\n      jump\t// in\n    tag_33:\n      mload(0x40)\n      dup1\n      swap2\n      sub\n      swap1\n      log3\n        /* \"contracts/Garage.sol\":1304:1707  {\r... */\n      pop\n        /* \"contracts/Garage.sol\":1252:1707  function achieveRepairRequest(uint repairId) public {\r... */\n      pop\n      jump\t// out\n        /* \"contracts/Garage.sol\":836:1244  function estimateCost(uint damagePercentage) public pure returns (uint){\r... */\n    tag_13:\n        /* \"contracts/Garage.sol\":902:906  uint */\n      0x00\n        /* \"contracts/Garage.sol\":940:941  0 */\n      dup1\n        /* \"contracts/Garage.sol\":921:937  damagePercentage */\n      dup3\n        /* \"contracts/Garage.sol\":921:941  damagePercentage > 0 */\n      gt\n        /* \"contracts/Garage.sol\":921:967  damagePercentage > 0 && damagePercentage <= 30 */\n      dup1\n      iszero\n      tag_36\n      jumpi\n      pop\n        /* \"contracts/Garage.sol\":965:967  30 */\n      0x1e\n        /* \"contracts/Garage.sol\":945:961  damagePercentage */\n      dup3\n        /* \"contracts/Garage.sol\":945:967  damagePercentage <= 30 */\n      gt\n      iszero\n        /* \"contracts/Garage.sol\":921:967  damagePercentage > 0 && damagePercentage <= 30 */\n    tag_36:\n        /* \"contracts/Garage.sol\":918:1237  if(damagePercentage > 0 && damagePercentage <= 30){\r... */\n      iszero\n      tag_37\n      jumpi\n        /* \"contracts/Garage.sol\":990:993  300 */\n      0x012c\n        /* \"contracts/Garage.sol\":983:993  return 300 */\n      swap1\n      pop\n      jump(tag_35)\n        /* \"contracts/Garage.sol\":918:1237  if(damagePercentage > 0 && damagePercentage <= 30){\r... */\n    tag_37:\n        /* \"contracts/Garage.sol\":1033:1035  30 */\n      0x1e\n        /* \"contracts/Garage.sol\":1014:1030  damagePercentage */\n      dup3\n        /* \"contracts/Garage.sol\":1014:1035  damagePercentage > 30 */\n      gt\n        /* \"contracts/Garage.sol\":1014:1061  damagePercentage > 30 && damagePercentage <= 60 */\n      dup1\n      iszero\n      tag_39\n      jumpi\n      pop\n        /* \"contracts/Garage.sol\":1059:1061  60 */\n      0x3c\n        /* \"contracts/Garage.sol\":1039:1055  damagePercentage */\n      dup3\n        /* \"contracts/Garage.sol\":1039:1061  damagePercentage <= 60 */\n      gt\n      iszero\n        /* \"contracts/Garage.sol\":1014:1061  damagePercentage > 30 && damagePercentage <= 60 */\n    tag_39:\n        /* \"contracts/Garage.sol\":1011:1237  if(damagePercentage > 30 && damagePercentage <= 60) {\r... */\n      iszero\n      tag_40\n      jumpi\n        /* \"contracts/Garage.sol\":1085:1088  600 */\n      0x0258\n        /* \"contracts/Garage.sol\":1078:1088  return 600 */\n      swap1\n      pop\n      jump(tag_35)\n        /* \"contracts/Garage.sol\":1011:1237  if(damagePercentage > 30 && damagePercentage <= 60) {\r... */\n    tag_40:\n        /* \"contracts/Garage.sol\":1128:1130  60 */\n      0x3c\n        /* \"contracts/Garage.sol\":1109:1125  damagePercentage */\n      dup3\n        /* \"contracts/Garage.sol\":1109:1130  damagePercentage > 60 */\n      gt\n        /* \"contracts/Garage.sol\":1109:1157  damagePercentage > 60 && damagePercentage <= 100 */\n      dup1\n      iszero\n      tag_42\n      jumpi\n      pop\n        /* \"contracts/Garage.sol\":1154:1157  100 */\n      0x64\n        /* \"contracts/Garage.sol\":1134:1150  damagePercentage */\n      dup3\n        /* \"contracts/Garage.sol\":1134:1157  damagePercentage <= 100 */\n      gt\n      iszero\n        /* \"contracts/Garage.sol\":1109:1157  damagePercentage > 60 && damagePercentage <= 100 */\n    tag_42:\n        /* \"contracts/Garage.sol\":1106:1237  if(damagePercentage > 60 && damagePercentage <= 100) {\r... */\n      iszero\n      tag_43\n      jumpi\n        /* \"contracts/Garage.sol\":1181:1184  900 */\n      0x0384\n        /* \"contracts/Garage.sol\":1174:1184  return 900 */\n      swap1\n      pop\n      jump(tag_35)\n        /* \"contracts/Garage.sol\":1106:1237  if(damagePercentage > 60 && damagePercentage <= 100) {\r... */\n    tag_43:\n        /* \"contracts/Garage.sol\":1224:1225  0 */\n      0x00\n        /* \"contracts/Garage.sol\":1217:1225  return 0 */\n      swap1\n      pop\n        /* \"contracts/Garage.sol\":836:1244  function estimateCost(uint damagePercentage) public pure returns (uint){\r... */\n    tag_35:\n      swap2\n      swap1\n      pop\n      jump\t// out\n        /* \"contracts/Garage.sol\":331:711  function receiveRepairRequest(uint claimId, uint damage) public returns (uint repairId){\r... */\n    tag_19:\n        /* \"contracts/Garage.sol\":404:417  uint repairId */\n      0x00\n        /* \"contracts/Garage.sol\":440:449  numRepair */\n      dup1\n      0x00\n        /* \"contracts/Garage.sol\":440:451  numRepair++ */\n      dup2\n      sload\n      dup1\n      swap3\n      swap2\n      swap1\n      tag_46\n      swap1\n      tag_47\n      jump\t// in\n    tag_46:\n      swap2\n      swap1\n      pop\n      sstore\n        /* \"contracts/Garage.sol\":429:451  repairId = numRepair++ */\n      swap1\n      pop\n        /* \"contracts/Garage.sol\":463:491  Repair storage repairStorage */\n      0x00\n        /* \"contracts/Garage.sol\":494:501  repairs */\n      0x01\n        /* \"contracts/Garage.sol\":494:511  repairs[repairId] */\n      0x00\n        /* \"contracts/Garage.sol\":502:510  repairId */\n      dup4\n        /* \"contracts/Garage.sol\":494:511  repairs[repairId] */\n      dup2\n      mstore\n      0x20\n      add\n      swap1\n      dup2\n      mstore\n      0x20\n      add\n      0x00\n      keccak256\n        /* \"contracts/Garage.sol\":463:511  Repair storage repairStorage = repairs[repairId] */\n      swap1\n      pop\n        /* \"contracts/Garage.sol\":541:549  repairId */\n      dup2\n        /* \"contracts/Garage.sol\":522:535  repairStorage */\n      dup2\n        /* \"contracts/Garage.sol\":522:538  repairStorage.id */\n      0x00\n      add\n        /* \"contracts/Garage.sol\":522:549  repairStorage.id = repairId */\n      dup2\n      swap1\n      sstore\n      pop\n        /* \"contracts/Garage.sol\":584:591  claimId */\n      dup4\n        /* \"contracts/Garage.sol\":560:573  repairStorage */\n      dup2\n        /* \"contracts/Garage.sol\":560:581  repairStorage.claimId */\n      0x01\n      add\n        /* \"contracts/Garage.sol\":560:591  repairStorage.claimId = claimId */\n      dup2\n      swap1\n      sstore\n      pop\n        /* \"contracts/Garage.sol\":625:631  damage */\n      dup3\n        /* \"contracts/Garage.sol\":602:615  repairStorage */\n      dup2\n        /* \"contracts/Garage.sol\":602:622  repairStorage.damage */\n      0x02\n      add\n        /* \"contracts/Garage.sol\":602:631  repairStorage.damage = damage */\n      dup2\n      swap1\n      sstore\n      pop\n        /* \"contracts/Garage.sol\":663:664  0 */\n      0x00\n        /* \"contracts/Garage.sol\":642:655  repairStorage */\n      dup2\n        /* \"contracts/Garage.sol\":642:660  repairStorage.cost */\n      0x03\n      add\n        /* \"contracts/Garage.sol\":642:664  repairStorage.cost = 0 */\n      dup2\n      swap1\n      sstore\n      pop\n        /* \"contracts/Garage.sol\":698:703  false */\n      0x00\n        /* \"contracts/Garage.sol\":675:688  repairStorage */\n      dup2\n        /* \"contracts/Garage.sol\":675:695  repairStorage.isDone */\n      0x04\n      add\n      0x00\n        /* \"contracts/Garage.sol\":675:703  repairStorage.isDone = false */\n      0x0100\n      exp\n      dup2\n      sload\n      dup2\n      0xff\n      mul\n      not\n      and\n      swap1\n      dup4\n      iszero\n      iszero\n      mul\n      or\n      swap1\n      sstore\n      pop\n        /* \"contracts/Garage.sol\":418:711  {\r... */\n      pop\n        /* \"contracts/Garage.sol\":331:711  function receiveRepairRequest(uint claimId, uint damage) public returns (uint repairId){\r... */\n      swap3\n      swap2\n      pop\n      pop\n      jump\t// out\n        /* \"contracts/Garage.sol\":719:828  function getRepair(uint id) public view returns (Repair memory repair){\r... */\n    tag_23:\n        /* \"contracts/Garage.sol\":768:788  Repair memory repair */\n      tag_48\n      tag_49\n      jump\t// in\n    tag_48:\n        /* \"contracts/Garage.sol\":809:816  repairs */\n      0x01\n        /* \"contracts/Garage.sol\":809:820  repairs[id] */\n      0x00\n        /* \"contracts/Garage.sol\":817:819  id */\n      dup4\n        /* \"contracts/Garage.sol\":809:820  repairs[id] */\n      dup2\n      mstore\n      0x20\n      add\n      swap1\n      dup2\n      mstore\n      0x20\n      add\n      0x00\n      keccak256\n        /* \"contracts/Garage.sol\":800:820  repair = repairs[id] */\n      mload(0x40)\n      dup1\n      0xa0\n      add\n      0x40\n      mstore\n      swap1\n      dup2\n      0x00\n      dup3\n      add\n      sload\n      dup2\n      mstore\n      0x20\n      add\n      0x01\n      dup3\n      add\n      sload\n      dup2\n      mstore\n      0x20\n      add\n      0x02\n      dup3\n      add\n      sload\n      dup2\n      mstore\n      0x20\n      add\n      0x03\n      dup3\n      add\n      sload\n      dup2\n      mstore\n      0x20\n      add\n      0x04\n      dup3\n      add\n      0x00\n      swap1\n      sload\n      swap1\n      0x0100\n      exp\n      swap1\n      div\n      0xff\n      and\n      iszero\n      iszero\n      iszero\n      iszero\n      dup2\n      mstore\n      pop\n      pop\n      swap1\n      pop\n        /* \"contracts/Garage.sol\":719:828  function getRepair(uint id) public view returns (Repair memory repair){\r... */\n      swap2\n      swap1\n      pop\n      jump\t// out\n    tag_49:\n      mload(0x40)\n      dup1\n      0xa0\n      add\n      0x40\n      mstore\n      dup1\n      0x00\n      dup2\n      mstore\n      0x20\n      add\n      0x00\n      dup2\n      mstore\n      0x20\n      add\n      0x00\n      dup2\n      mstore\n      0x20\n      add\n      0x00\n      dup2\n      mstore\n      0x20\n      add\n      iszero(iszero(0x00))\n      dup2\n      mstore\n      pop\n      swap1\n      jump\t// out\n        /* \"#utility.yul\":7:146   */\n    tag_52:\n        /* \"#utility.yul\":53:58   */\n      0x00\n        /* \"#utility.yul\":91:97   */\n      dup2\n        /* \"#utility.yul\":78:98   */\n      calldataload\n        /* \"#utility.yul\":69:98   */\n      swap1\n      pop\n        /* \"#utility.yul\":107:140   */\n      tag_54\n        /* \"#utility.yul\":134:139   */\n      dup2\n        /* \"#utility.yul\":107:140   */\n      tag_55\n      jump\t// in\n    tag_54:\n        /* \"#utility.yul\":7:146   */\n      swap3\n      swap2\n      pop\n      pop\n      jump\t// out\n        /* \"#utility.yul\":152:481   */\n    tag_9:\n        /* \"#utility.yul\":211:217   */\n      0x00\n        /* \"#utility.yul\":260:262   */\n      0x20\n        /* \"#utility.yul\":248:257   */\n      dup3\n        /* \"#utility.yul\":239:246   */\n      dup5\n        /* \"#utility.yul\":235:258   */\n      sub\n        /* \"#utility.yul\":231:263   */\n      slt\n        /* \"#utility.yul\":228:347   */\n      iszero\n      tag_57\n      jumpi\n        /* \"#utility.yul\":266:345   */\n      tag_58\n      tag_59\n      jump\t// in\n    tag_58:\n        /* \"#utility.yul\":228:347   */\n    tag_57:\n        /* \"#utility.yul\":386:387   */\n      0x00\n        /* \"#utility.yul\":411:464   */\n      tag_60\n        /* \"#utility.yul\":456:463   */\n      dup5\n        /* \"#utility.yul\":447:453   */\n      dup3\n        /* \"#utility.yul\":436:445   */\n      dup6\n        /* \"#utility.yul\":432:454   */\n      add\n        /* \"#utility.yul\":411:464   */\n      tag_52\n      jump\t// in\n    tag_60:\n        /* \"#utility.yul\":401:464   */\n      swap2\n      pop\n        /* \"#utility.yul\":357:474   */\n      pop\n        /* \"#utility.yul\":152:481   */\n      swap3\n      swap2\n      pop\n      pop\n      jump\t// out\n        /* \"#utility.yul\":487:961   */\n    tag_18:\n        /* \"#utility.yul\":555:561   */\n      0x00\n        /* \"#utility.yul\":563:569   */\n      dup1\n        /* \"#utility.yul\":612:614   */\n      0x40\n        /* \"#utility.yul\":600:609   */\n      dup4\n        /* \"#utility.yul\":591:598   */\n      dup6\n        /* \"#utility.yul\":587:610   */\n      sub\n        /* \"#utility.yul\":583:615   */\n      slt\n        /* \"#utility.yul\":580:699   */\n      iszero\n      tag_62\n      jumpi\n        /* \"#utility.yul\":618:697   */\n      tag_63\n      tag_59\n      jump\t// in\n    tag_63:\n        /* \"#utility.yul\":580:699   */\n    tag_62:\n        /* \"#utility.yul\":738:739   */\n      0x00\n        /* \"#utility.yul\":763:816   */\n      tag_64\n        /* \"#utility.yul\":808:815   */\n      dup6\n        /* \"#utility.yul\":799:805   */\n      dup3\n        /* \"#utility.yul\":788:797   */\n      dup7\n        /* \"#utility.yul\":784:806   */\n      add\n        /* \"#utility.yul\":763:816   */\n      tag_52\n      jump\t// in\n    tag_64:\n        /* \"#utility.yul\":753:816   */\n      swap3\n      pop\n        /* \"#utility.yul\":709:826   */\n      pop\n        /* \"#utility.yul\":865:867   */\n      0x20\n        /* \"#utility.yul\":891:944   */\n      tag_65\n        /* \"#utility.yul\":936:943   */\n      dup6\n        /* \"#utility.yul\":927:933   */\n      dup3\n        /* \"#utility.yul\":916:925   */\n      dup7\n        /* \"#utility.yul\":912:934   */\n      add\n        /* \"#utility.yul\":891:944   */\n      tag_52\n      jump\t// in\n    tag_65:\n        /* \"#utility.yul\":881:944   */\n      swap2\n      pop\n        /* \"#utility.yul\":836:954   */\n      pop\n        /* \"#utility.yul\":487:961   */\n      swap3\n      pop\n      swap3\n      swap1\n      pop\n      jump\t// out\n        /* \"#utility.yul\":967:1066   */\n    tag_66:\n        /* \"#utility.yul\":1038:1059   */\n      tag_68\n        /* \"#utility.yul\":1053:1058   */\n      dup2\n        /* \"#utility.yul\":1038:1059   */\n      tag_69\n      jump\t// in\n    tag_68:\n        /* \"#utility.yul\":1033:1036   */\n      dup3\n        /* \"#utility.yul\":1026:1060   */\n      mstore\n        /* \"#utility.yul\":967:1066   */\n      pop\n      pop\n      jump\t// out\n        /* \"#utility.yul\":1072:1438   */\n    tag_70:\n        /* \"#utility.yul\":1214:1217   */\n      0x00\n        /* \"#utility.yul\":1235:1302   */\n      tag_72\n        /* \"#utility.yul\":1299:1301   */\n      0x16\n        /* \"#utility.yul\":1294:1297   */\n      dup4\n        /* \"#utility.yul\":1235:1302   */\n      tag_73\n      jump\t// in\n    tag_72:\n        /* \"#utility.yul\":1228:1302   */\n      swap2\n      pop\n        /* \"#utility.yul\":1311:1404   */\n      tag_74\n        /* \"#utility.yul\":1400:1403   */\n      dup3\n        /* \"#utility.yul\":1311:1404   */\n      tag_75\n      jump\t// in\n    tag_74:\n        /* \"#utility.yul\":1429:1431   */\n      0x20\n        /* \"#utility.yul\":1424:1427   */\n      dup3\n        /* \"#utility.yul\":1420:1432   */\n      add\n        /* \"#utility.yul\":1413:1432   */\n      swap1\n      pop\n        /* \"#utility.yul\":1072:1438   */\n      swap2\n      swap1\n      pop\n      jump\t// out\n        /* \"#utility.yul\":1444:1810   */\n    tag_76:\n        /* \"#utility.yul\":1586:1589   */\n      0x00\n        /* \"#utility.yul\":1607:1674   */\n      tag_78\n        /* \"#utility.yul\":1671:1673   */\n      0x34\n        /* \"#utility.yul\":1666:1669   */\n      dup4\n        /* \"#utility.yul\":1607:1674   */\n      tag_73\n      jump\t// in\n    tag_78:\n        /* \"#utility.yul\":1600:1674   */\n      swap2\n      pop\n        /* \"#utility.yul\":1683:1776   */\n      tag_79\n        /* \"#utility.yul\":1772:1775   */\n      dup3\n        /* \"#utility.yul\":1683:1776   */\n      tag_80\n      jump\t// in\n    tag_79:\n        /* \"#utility.yul\":1801:1803   */\n      0x40\n        /* \"#utility.yul\":1796:1799   */\n      dup3\n        /* \"#utility.yul\":1792:1804   */\n      add\n        /* \"#utility.yul\":1785:1804   */\n      swap1\n      pop\n        /* \"#utility.yul\":1444:1810   */\n      swap2\n      swap1\n      pop\n      jump\t// out\n        /* \"#utility.yul\":1904:2928   */\n    tag_81:\n        /* \"#utility.yul\":2047:2051   */\n      0xa0\n        /* \"#utility.yul\":2042:2045   */\n      dup3\n        /* \"#utility.yul\":2038:2052   */\n      add\n        /* \"#utility.yul\":2132:2136   */\n      0x00\n        /* \"#utility.yul\":2125:2130   */\n      dup3\n        /* \"#utility.yul\":2121:2137   */\n      add\n        /* \"#utility.yul\":2115:2138   */\n      mload\n        /* \"#utility.yul\":2151:2214   */\n      tag_83\n        /* \"#utility.yul\":2208:2212   */\n      0x00\n        /* \"#utility.yul\":2203:2206   */\n      dup6\n        /* \"#utility.yul\":2199:2213   */\n      add\n        /* \"#utility.yul\":2185:2197   */\n      dup3\n        /* \"#utility.yul\":2151:2214   */\n      tag_84\n      jump\t// in\n    tag_83:\n        /* \"#utility.yul\":2062:2224   */\n      pop\n        /* \"#utility.yul\":2309:2313   */\n      0x20\n        /* \"#utility.yul\":2302:2307   */\n      dup3\n        /* \"#utility.yul\":2298:2314   */\n      add\n        /* \"#utility.yul\":2292:2315   */\n      mload\n        /* \"#utility.yul\":2328:2391   */\n      tag_85\n        /* \"#utility.yul\":2385:2389   */\n      0x20\n        /* \"#utility.yul\":2380:2383   */\n      dup6\n        /* \"#utility.yul\":2376:2390   */\n      add\n        /* \"#utility.yul\":2362:2374   */\n      dup3\n        /* \"#utility.yul\":2328:2391   */\n      tag_84\n      jump\t// in\n    tag_85:\n        /* \"#utility.yul\":2234:2401   */\n      pop\n        /* \"#utility.yul\":2485:2489   */\n      0x40\n        /* \"#utility.yul\":2478:2483   */\n      dup3\n        /* \"#utility.yul\":2474:2490   */\n      add\n        /* \"#utility.yul\":2468:2491   */\n      mload\n        /* \"#utility.yul\":2504:2567   */\n      tag_86\n        /* \"#utility.yul\":2561:2565   */\n      0x40\n        /* \"#utility.yul\":2556:2559   */\n      dup6\n        /* \"#utility.yul\":2552:2566   */\n      add\n        /* \"#utility.yul\":2538:2550   */\n      dup3\n        /* \"#utility.yul\":2504:2567   */\n      tag_84\n      jump\t// in\n    tag_86:\n        /* \"#utility.yul\":2411:2577   */\n      pop\n        /* \"#utility.yul\":2659:2663   */\n      0x60\n        /* \"#utility.yul\":2652:2657   */\n      dup3\n        /* \"#utility.yul\":2648:2664   */\n      add\n        /* \"#utility.yul\":2642:2665   */\n      mload\n        /* \"#utility.yul\":2678:2741   */\n      tag_87\n        /* \"#utility.yul\":2735:2739   */\n      0x60\n        /* \"#utility.yul\":2730:2733   */\n      dup6\n        /* \"#utility.yul\":2726:2740   */\n      add\n        /* \"#utility.yul\":2712:2724   */\n      dup3\n        /* \"#utility.yul\":2678:2741   */\n      tag_84\n      jump\t// in\n    tag_87:\n        /* \"#utility.yul\":2587:2751   */\n      pop\n        /* \"#utility.yul\":2835:2839   */\n      0x80\n        /* \"#utility.yul\":2828:2833   */\n      dup3\n        /* \"#utility.yul\":2824:2840   */\n      add\n        /* \"#utility.yul\":2818:2841   */\n      mload\n        /* \"#utility.yul\":2854:2911   */\n      tag_88\n        /* \"#utility.yul\":2905:2909   */\n      0x80\n        /* \"#utility.yul\":2900:2903   */\n      dup6\n        /* \"#utility.yul\":2896:2910   */\n      add\n        /* \"#utility.yul\":2882:2894   */\n      dup3\n        /* \"#utility.yul\":2854:2911   */\n      tag_66\n      jump\t// in\n    tag_88:\n        /* \"#utility.yul\":2761:2921   */\n      pop\n        /* \"#utility.yul\":2016:2928   */\n      pop\n        /* \"#utility.yul\":1904:2928   */\n      pop\n      pop\n      jump\t// out\n        /* \"#utility.yul\":2934:3042   */\n    tag_84:\n        /* \"#utility.yul\":3011:3035   */\n      tag_90\n        /* \"#utility.yul\":3029:3034   */\n      dup2\n        /* \"#utility.yul\":3011:3035   */\n      tag_91\n      jump\t// in\n    tag_90:\n        /* \"#utility.yul\":3006:3009   */\n      dup3\n        /* \"#utility.yul\":2999:3036   */\n      mstore\n        /* \"#utility.yul\":2934:3042   */\n      pop\n      pop\n      jump\t// out\n        /* \"#utility.yul\":3048:3166   */\n    tag_92:\n        /* \"#utility.yul\":3135:3159   */\n      tag_94\n        /* \"#utility.yul\":3153:3158   */\n      dup2\n        /* \"#utility.yul\":3135:3159   */\n      tag_91\n      jump\t// in\n    tag_94:\n        /* \"#utility.yul\":3130:3133   */\n      dup3\n        /* \"#utility.yul\":3123:3160   */\n      mstore\n        /* \"#utility.yul\":3048:3166   */\n      pop\n      pop\n      jump\t// out\n        /* \"#utility.yul\":3172:3487   */\n    tag_25:\n        /* \"#utility.yul\":3311:3315   */\n      0x00\n        /* \"#utility.yul\":3349:3352   */\n      0xa0\n        /* \"#utility.yul\":3338:3347   */\n      dup3\n        /* \"#utility.yul\":3334:3353   */\n      add\n        /* \"#utility.yul\":3326:3353   */\n      swap1\n      pop\n        /* \"#utility.yul\":3363:3480   */\n      tag_96\n        /* \"#utility.yul\":3477:3478   */\n      0x00\n        /* \"#utility.yul\":3466:3475   */\n      dup4\n        /* \"#utility.yul\":3462:3479   */\n      add\n        /* \"#utility.yul\":3453:3459   */\n      dup5\n        /* \"#utility.yul\":3363:3480   */\n      tag_81\n      jump\t// in\n    tag_96:\n        /* \"#utility.yul\":3172:3487   */\n      swap3\n      swap2\n      pop\n      pop\n      jump\t// out\n        /* \"#utility.yul\":3493:3715   */\n    tag_15:\n        /* \"#utility.yul\":3586:3590   */\n      0x00\n        /* \"#utility.yul\":3624:3626   */\n      0x20\n        /* \"#utility.yul\":3613:3622   */\n      dup3\n        /* \"#utility.yul\":3609:3627   */\n      add\n        /* \"#utility.yul\":3601:3627   */\n      swap1\n      pop\n        /* \"#utility.yul\":3637:3708   */\n      tag_98\n        /* \"#utility.yul\":3705:3706   */\n      0x00\n        /* \"#utility.yul\":3694:3703   */\n      dup4\n        /* \"#utility.yul\":3690:3707   */\n      add\n        /* \"#utility.yul\":3681:3687   */\n      dup5\n        /* \"#utility.yul\":3637:3708   */\n      tag_92\n      jump\t// in\n    tag_98:\n        /* \"#utility.yul\":3493:3715   */\n      swap3\n      swap2\n      pop\n      pop\n      jump\t// out\n        /* \"#utility.yul\":3721:4250   */\n    tag_34:\n        /* \"#utility.yul\":3915:3919   */\n      0x00\n        /* \"#utility.yul\":3953:3955   */\n      0x40\n        /* \"#utility.yul\":3942:3951   */\n      dup3\n        /* \"#utility.yul\":3938:3956   */\n      add\n        /* \"#utility.yul\":3930:3956   */\n      swap1\n      pop\n        /* \"#utility.yul\":3966:4037   */\n      tag_100\n        /* \"#utility.yul\":4034:4035   */\n      0x00\n        /* \"#utility.yul\":4023:4032   */\n      dup4\n        /* \"#utility.yul\":4019:4036   */\n      add\n        /* \"#utility.yul\":4010:4016   */\n      dup5\n        /* \"#utility.yul\":3966:4037   */\n      tag_92\n      jump\t// in\n    tag_100:\n        /* \"#utility.yul\":4084:4093   */\n      dup2\n        /* \"#utility.yul\":4078:4082   */\n      dup2\n        /* \"#utility.yul\":4074:4094   */\n      sub\n        /* \"#utility.yul\":4069:4071   */\n      0x20\n        /* \"#utility.yul\":4058:4067   */\n      dup4\n        /* \"#utility.yul\":4054:4072   */\n      add\n        /* \"#utility.yul\":4047:4095   */\n      mstore\n        /* \"#utility.yul\":4112:4243   */\n      tag_101\n        /* \"#utility.yul\":4238:4242   */\n      dup2\n        /* \"#utility.yul\":4112:4243   */\n      tag_70\n      jump\t// in\n    tag_101:\n        /* \"#utility.yul\":4104:4243   */\n      swap1\n      pop\n        /* \"#utility.yul\":3721:4250   */\n      swap3\n      swap2\n      pop\n      pop\n      jump\t// out\n        /* \"#utility.yul\":4256:4785   */\n    tag_31:\n        /* \"#utility.yul\":4450:4454   */\n      0x00\n        /* \"#utility.yul\":4488:4490   */\n      0x40\n        /* \"#utility.yul\":4477:4486   */\n      dup3\n        /* \"#utility.yul\":4473:4491   */\n      add\n        /* \"#utility.yul\":4465:4491   */\n      swap1\n      pop\n        /* \"#utility.yul\":4501:4572   */\n      tag_103\n        /* \"#utility.yul\":4569:4570   */\n      0x00\n        /* \"#utility.yul\":4558:4567   */\n      dup4\n        /* \"#utility.yul\":4554:4571   */\n      add\n        /* \"#utility.yul\":4545:4551   */\n      dup5\n        /* \"#utility.yul\":4501:4572   */\n      tag_92\n      jump\t// in\n    tag_103:\n        /* \"#utility.yul\":4619:4628   */\n      dup2\n        /* \"#utility.yul\":4613:4617   */\n      dup2\n        /* \"#utility.yul\":4609:4629   */\n      sub\n        /* \"#utility.yul\":4604:4606   */\n      0x20\n        /* \"#utility.yul\":4593:4602   */\n      dup4\n        /* \"#utility.yul\":4589:4607   */\n      add\n        /* \"#utility.yul\":4582:4630   */\n      mstore\n        /* \"#utility.yul\":4647:4778   */\n      tag_104\n        /* \"#utility.yul\":4773:4777   */\n      dup2\n        /* \"#utility.yul\":4647:4778   */\n      tag_76\n      jump\t// in\n    tag_104:\n        /* \"#utility.yul\":4639:4778   */\n      swap1\n      pop\n        /* \"#utility.yul\":4256:4785   */\n      swap3\n      swap2\n      pop\n      pop\n      jump\t// out\n        /* \"#utility.yul\":4872:5041   */\n    tag_73:\n        /* \"#utility.yul\":4956:4967   */\n      0x00\n        /* \"#utility.yul\":4990:4996   */\n      dup3\n        /* \"#utility.yul\":4985:4988   */\n      dup3\n        /* \"#utility.yul\":4978:4997   */\n      mstore\n        /* \"#utility.yul\":5030:5034   */\n      0x20\n        /* \"#utility.yul\":5025:5028   */\n      dup3\n        /* \"#utility.yul\":5021:5035   */\n      add\n        /* \"#utility.yul\":5006:5035   */\n      swap1\n      pop\n        /* \"#utility.yul\":4872:5041   */\n      swap3\n      swap2\n      pop\n      pop\n      jump\t// out\n        /* \"#utility.yul\":5047:5137   */\n    tag_69:\n        /* \"#utility.yul\":5081:5088   */\n      0x00\n        /* \"#utility.yul\":5124:5129   */\n      dup2\n        /* \"#utility.yul\":5117:5130   */\n      iszero\n        /* \"#utility.yul\":5110:5131   */\n      iszero\n        /* \"#utility.yul\":5099:5131   */\n      swap1\n      pop\n        /* \"#utility.yul\":5047:5137   */\n      swap2\n      swap1\n      pop\n      jump\t// out\n        /* \"#utility.yul\":5143:5220   */\n    tag_91:\n        /* \"#utility.yul\":5180:5187   */\n      0x00\n        /* \"#utility.yul\":5209:5214   */\n      dup2\n        /* \"#utility.yul\":5198:5214   */\n      swap1\n      pop\n        /* \"#utility.yul\":5143:5220   */\n      swap2\n      swap1\n      pop\n      jump\t// out\n        /* \"#utility.yul\":5226:5459   */\n    tag_47:\n        /* \"#utility.yul\":5265:5268   */\n      0x00\n        /* \"#utility.yul\":5288:5312   */\n      tag_111\n        /* \"#utility.yul\":5306:5311   */\n      dup3\n        /* \"#utility.yul\":5288:5312   */\n      tag_91\n      jump\t// in\n    tag_111:\n        /* \"#utility.yul\":5279:5312   */\n      swap2\n      pop\n        /* \"#utility.yul\":5334:5400   */\n      0xffffffffffffffffffffffffffffffffffffffffffffffffffffffffffffffff\n        /* \"#utility.yul\":5327:5332   */\n      dup3\n        /* \"#utility.yul\":5324:5401   */\n      eq\n        /* \"#utility.yul\":5321:5424   */\n      iszero\n      tag_112\n      jumpi\n        /* \"#utility.yul\":5404:5422   */\n      tag_113\n      tag_114\n      jump\t// in\n    tag_113:\n        /* \"#utility.yul\":5321:5424   */\n    tag_112:\n        /* \"#utility.yul\":5451:5452   */\n      0x01\n        /* \"#utility.yul\":5444:5449   */\n      dup3\n        /* \"#utility.yul\":5440:5453   */\n      add\n        /* \"#utility.yul\":5433:5453   */\n      swap1\n      pop\n        /* \"#utility.yul\":5226:5459   */\n      swap2\n      swap1\n      pop\n      jump\t// out\n        /* \"#utility.yul\":5465:5645   */\n    tag_114:\n        /* \"#utility.yul\":5513:5590   */\n      0x4e487b7100000000000000000000000000000000000000000000000000000000\n        /* \"#utility.yul\":5510:5511   */\n      0x00\n        /* \"#utility.yul\":5503:5591   */\n      mstore\n        /* \"#utility.yul\":5610:5614   */\n      0x11\n        /* \"#utility.yul\":5607:5608   */\n      0x04\n        /* \"#utility.yul\":5600:5615   */\n      mstore\n        /* \"#utility.yul\":5634:5638   */\n      0x24\n        /* \"#utility.yul\":5631:5632   */\n      0x00\n        /* \"#utility.yul\":5624:5639   */\n      revert\n        /* \"#utility.yul\":5774:5891   */\n    tag_59:\n        /* \"#utility.yul\":5883:5884   */\n      0x00\n        /* \"#utility.yul\":5880:5881   */\n      dup1\n        /* \"#utility.yul\":5873:5885   */\n      revert\n        /* \"#utility.yul\":5897:6069   */\n    tag_75:\n        /* \"#utility.yul\":6037:6061   */\n      0x4e6f2072657061726174696f6e73206e65656465642e00000000000000000000\n        /* \"#utility.yul\":6033:6034   */\n      0x00\n        /* \"#utility.yul\":6025:6031   */\n      dup3\n        /* \"#utility.yul\":6021:6035   */\n      add\n        /* \"#utility.yul\":6014:6062   */\n      mstore\n        /* \"#utility.yul\":5897:6069   */\n      pop\n      jump\t// out\n        /* \"#utility.yul\":6075:6314   */\n    tag_80:\n        /* \"#utility.yul\":6215:6249   */\n      0x5468652072657061697220686173206265656e20646f6e652e20506c65617365\n        /* \"#utility.yul\":6211:6212   */\n      0x00\n        /* \"#utility.yul\":6203:6209   */\n      dup3\n        /* \"#utility.yul\":6199:6213   */\n      add\n        /* \"#utility.yul\":6192:6250   */\n      mstore\n        /* \"#utility.yul\":6284:6306   */\n      0x2070726f6365656420746f207061796d656e742e000000000000000000000000\n        /* \"#utility.yul\":6279:6281   */\n      0x20\n        /* \"#utility.yul\":6271:6277   */\n      dup3\n        /* \"#utility.yul\":6267:6282   */\n      add\n        /* \"#utility.yul\":6260:6307   */\n      mstore\n        /* \"#utility.yul\":6075:6314   */\n      pop\n      jump\t// out\n        /* \"#utility.yul\":6320:6442   */\n    tag_55:\n        /* \"#utility.yul\":6393:6417   */\n      tag_122\n        /* \"#utility.yul\":6411:6416   */\n      dup2\n        /* \"#utility.yul\":6393:6417   */\n      tag_91\n      jump\t// in\n    tag_122:\n        /* \"#utility.yul\":6386:6391   */\n      dup2\n        /* \"#utility.yul\":6383:6418   */\n      eq\n        /* \"#utility.yul\":6373:6436   */\n      tag_123\n      jumpi\n        /* \"#utility.yul\":6432:6433   */\n      0x00\n        /* \"#utility.yul\":6429:6430   */\n      dup1\n        /* \"#utility.yul\":6422:6434   */\n      revert\n        /* \"#utility.yul\":6373:6436   */\n    tag_123:\n        /* \"#utility.yul\":6320:6442   */\n      pop\n      jump\t// out\n\n    auxdata: 0xa2646970667358221220ee9d968f533d80766cb9ad606d79c536993b76386aa7ebcec650209452a7a49264736f6c63430008070033\n}\n",
				"bytecode": {
					"linkReferences": {},
					"object": "608060405234801561001057600080fd5b506106c4806100206000396000f3fe608060405234801561001057600080fd5b506004361061004c5760003560e01c80631d2ff1961461005157806341807a541461006d5780634c95ef491461009d578063729511fa146100cd575b600080fd5b61006b60048036038101906100669190610381565b6100fd565b005b61008760048036038101906100829190610381565b6101e6565b60405161009491906104e4565b60405180910390f35b6100b760048036038101906100b291906103ae565b610251565b6040516100c491906104e4565b60405180910390f35b6100e760048036038101906100e29190610381565b6102cb565b6040516100f491906104c9565b60405180910390f35b600061011e60016000848152602001908152602001600020600201546101e6565b9050600081111561019d57600180600084815260200190815260200160002060040160006101000a81548160ff021916908315150217905550610160826102cb565b60200151827fafbe9b43882feefab873a3f4091fe1a4d1f74cb7e15f450a3e40c99e9ead849383604051610194919061052d565b60405180910390a35b6101a6826102cb565b60200151827fafbe9b43882feefab873a3f4091fe1a4d1f74cb7e15f450a3e40c99e9ead8493836040516101da91906104ff565b60405180910390a35050565b600080821180156101f85750601e8211155b156102075761012c905061024c565b601e821180156102185750603c8211155b1561022757610258905061024c565b603c82118015610238575060648211155b1561024757610384905061024c565b600090505b919050565b600080600081548092919061026590610582565b91905055905060006001600083815260200190815260200160002090508181600001819055508381600101819055508281600201819055506000816003018190555060008160040160006101000a81548160ff0219169083151502179055505092915050565b6102d361033b565b600160008381526020019081526020016000206040518060a0016040529081600082015481526020016001820154815260200160028201548152602001600382015481526020016004820160009054906101000a900460ff1615151515815250509050919050565b6040518060a00160405280600081526020016000815260200160008152602001600081526020016000151581525090565b60008135905061037b81610677565b92915050565b600060208284031215610397576103966105fa565b5b60006103a58482850161036c565b91505092915050565b600080604083850312156103c5576103c46105fa565b5b60006103d38582860161036c565b92505060206103e48582860161036c565b9150509250929050565b6103f78161056c565b82525050565b600061040a60168361055b565b9150610415826105ff565b602082019050919050565b600061042d60348361055b565b915061043882610628565b604082019050919050565b60a08201600082015161045960008501826104ab565b50602082015161046c60208501826104ab565b50604082015161047f60408501826104ab565b50606082015161049260608501826104ab565b5060808201516104a560808501826103ee565b50505050565b6104b481610578565b82525050565b6104c381610578565b82525050565b600060a0820190506104de6000830184610443565b92915050565b60006020820190506104f960008301846104ba565b92915050565b600060408201905061051460008301846104ba565b8181036020830152610525816103fd565b905092915050565b600060408201905061054260008301846104ba565b818103602083015261055381610420565b905092915050565b600082825260208201905092915050565b60008115159050919050565b6000819050919050565b600061058d82610578565b91507fffffffffffffffffffffffffffffffffffffffffffffffffffffffffffffffff8214156105c0576105bf6105cb565b5b600182019050919050565b7f4e487b7100000000000000000000000000000000000000000000000000000000600052601160045260246000fd5b600080fd5b7f4e6f2072657061726174696f6e73206e65656465642e00000000000000000000600082015250565b7f5468652072657061697220686173206265656e20646f6e652e20506c6561736560008201527f2070726f6365656420746f207061796d656e742e000000000000000000000000602082015250565b61068081610578565b811461068b57600080fd5b5056fea2646970667358221220ee9d968f533d80766cb9ad606d79c536993b76386aa7ebcec650209452a7a49264736f6c63430008070033",
					"opcodes": "PUSH1 0x80 PUSH1 0x40 MSTORE CALLVALUE DUP1 ISZERO PUSH2 0x10 JUMPI PUSH1 0x0 DUP1 REVERT JUMPDEST POP PUSH2 0x6C4 DUP1 PUSH2 0x20 PUSH1 0x0 CODECOPY PUSH1 0x0 RETURN INVALID PUSH1 0x80 PUSH1 0x40 MSTORE CALLVALUE DUP1 ISZERO PUSH2 0x10 JUMPI PUSH1 0x0 DUP1 REVERT JUMPDEST POP PUSH1 0x4 CALLDATASIZE LT PUSH2 0x4C JUMPI PUSH1 0x0 CALLDATALOAD PUSH1 0xE0 SHR DUP1 PUSH4 0x1D2FF196 EQ PUSH2 0x51 JUMPI DUP1 PUSH4 0x41807A54 EQ PUSH2 0x6D JUMPI DUP1 PUSH4 0x4C95EF49 EQ PUSH2 0x9D JUMPI DUP1 PUSH4 0x729511FA EQ PUSH2 0xCD JUMPI JUMPDEST PUSH1 0x0 DUP1 REVERT JUMPDEST PUSH2 0x6B PUSH1 0x4 DUP1 CALLDATASIZE SUB DUP2 ADD SWAP1 PUSH2 0x66 SWAP2 SWAP1 PUSH2 0x381 JUMP JUMPDEST PUSH2 0xFD JUMP JUMPDEST STOP JUMPDEST PUSH2 0x87 PUSH1 0x4 DUP1 CALLDATASIZE SUB DUP2 ADD SWAP1 PUSH2 0x82 SWAP2 SWAP1 PUSH2 0x381 JUMP JUMPDEST PUSH2 0x1E6 JUMP JUMPDEST PUSH1 0x40 MLOAD PUSH2 0x94 SWAP2 SWAP1 PUSH2 0x4E4 JUMP JUMPDEST PUSH1 0x40 MLOAD DUP1 SWAP2 SUB SWAP1 RETURN JUMPDEST PUSH2 0xB7 PUSH1 0x4 DUP1 CALLDATASIZE SUB DUP2 ADD SWAP1 PUSH2 0xB2 SWAP2 SWAP1 PUSH2 0x3AE JUMP JUMPDEST PUSH2 0x251 JUMP JUMPDEST PUSH1 0x40 MLOAD PUSH2 0xC4 SWAP2 SWAP1 PUSH2 0x4E4 JUMP JUMPDEST PUSH1 0x40 MLOAD DUP1 SWAP2 SUB SWAP1 RETURN JUMPDEST PUSH2 0xE7 PUSH1 0x4 DUP1 CALLDATASIZE SUB DUP2 ADD SWAP1 PUSH2 0xE2 SWAP2 SWAP1 PUSH2 0x381 JUMP JUMPDEST PUSH2 0x2CB JUMP JUMPDEST PUSH1 0x40 MLOAD PUSH2 0xF4 SWAP2 SWAP1 PUSH2 0x4C9 JUMP JUMPDEST PUSH1 0x40 MLOAD DUP1 SWAP2 SUB SWAP1 RETURN JUMPDEST PUSH1 0x0 PUSH2 0x11E PUSH1 0x1 PUSH1 0x0 DUP5 DUP2 MSTORE PUSH1 0x20 ADD SWAP1 DUP2 MSTORE PUSH1 0x20 ADD PUSH1 0x0 KECCAK256 PUSH1 0x2 ADD SLOAD PUSH2 0x1E6 JUMP JUMPDEST SWAP1 POP PUSH1 0x0 DUP2 GT ISZERO PUSH2 0x19D JUMPI PUSH1 0x1 DUP1 PUSH1 0x0 DUP5 DUP2 MSTORE PUSH1 0x20 ADD SWAP1 DUP2 MSTORE PUSH1 0x20 ADD PUSH1 0x0 KECCAK256 PUSH1 0x4 ADD PUSH1 0x0 PUSH2 0x100 EXP DUP2 SLOAD DUP2 PUSH1 0xFF MUL NOT AND SWAP1 DUP4 ISZERO ISZERO MUL OR SWAP1 SSTORE POP PUSH2 0x160 DUP3 PUSH2 0x2CB JUMP JUMPDEST PUSH1 0x20 ADD MLOAD DUP3 PUSH32 0xAFBE9B43882FEEFAB873A3F4091FE1A4D1F74CB7E15F450A3E40C99E9EAD8493 DUP4 PUSH1 0x40 MLOAD PUSH2 0x194 SWAP2 SWAP1 PUSH2 0x52D JUMP JUMPDEST PUSH1 0x40 MLOAD DUP1 SWAP2 SUB SWAP1 LOG3 JUMPDEST PUSH2 0x1A6 DUP3 PUSH2 0x2CB JUMP JUMPDEST PUSH1 0x20 ADD MLOAD DUP3 PUSH32 0xAFBE9B43882FEEFAB873A3F4091FE1A4D1F74CB7E15F450A3E40C99E9EAD8493 DUP4 PUSH1 0x40 MLOAD PUSH2 0x1DA SWAP2 SWAP1 PUSH2 0x4FF JUMP JUMPDEST PUSH1 0x40 MLOAD DUP1 SWAP2 SUB SWAP1 LOG3 POP POP JUMP JUMPDEST PUSH1 0x0 DUP1 DUP3 GT DUP1 ISZERO PUSH2 0x1F8 JUMPI POP PUSH1 0x1E DUP3 GT ISZERO JUMPDEST ISZERO PUSH2 0x207 JUMPI PUSH2 0x12C SWAP1 POP PUSH2 0x24C JUMP JUMPDEST PUSH1 0x1E DUP3 GT DUP1 ISZERO PUSH2 0x218 JUMPI POP PUSH1 0x3C DUP3 GT ISZERO JUMPDEST ISZERO PUSH2 0x227 JUMPI PUSH2 0x258 SWAP1 POP PUSH2 0x24C JUMP JUMPDEST PUSH1 0x3C DUP3 GT DUP1 ISZERO PUSH2 0x238 JUMPI POP PUSH1 0x64 DUP3 GT ISZERO JUMPDEST ISZERO PUSH2 0x247 JUMPI PUSH2 0x384 SWAP1 POP PUSH2 0x24C JUMP JUMPDEST PUSH1 0x0 SWAP1 POP JUMPDEST SWAP2 SWAP1 POP JUMP JUMPDEST PUSH1 0x0 DUP1 PUSH1 0x0 DUP2 SLOAD DUP1 SWAP3 SWAP2 SWAP1 PUSH2 0x265 SWAP1 PUSH2 0x582 JUMP JUMPDEST SWAP2 SWAP1 POP SSTORE SWAP1 POP PUSH1 0x0 PUSH1 0x1 PUSH1 0x0 DUP4 DUP2 MSTORE PUSH1 0x20 ADD SWAP1 DUP2 MSTORE PUSH1 0x20 ADD PUSH1 0x0 KECCAK256 SWAP1 POP DUP2 DUP2 PUSH1 0x0 ADD DUP2 SWAP1 SSTORE POP DUP4 DUP2 PUSH1 0x1 ADD DUP2 SWAP1 SSTORE POP DUP3 DUP2 PUSH1 0x2 ADD DUP2 SWAP1 SSTORE POP PUSH1 0x0 DUP2 PUSH1 0x3 ADD DUP2 SWAP1 SSTORE POP PUSH1 0x0 DUP2 PUSH1 0x4 ADD PUSH1 0x0 PUSH2 0x100 EXP DUP2 SLOAD DUP2 PUSH1 0xFF MUL NOT AND SWAP1 DUP4 ISZERO ISZERO MUL OR SWAP1 SSTORE POP POP SWAP3 SWAP2 POP POP JUMP JUMPDEST PUSH2 0x2D3 PUSH2 0x33B JUMP JUMPDEST PUSH1 0x1 PUSH1 0x0 DUP4 DUP2 MSTORE PUSH1 0x20 ADD SWAP1 DUP2 MSTORE PUSH1 0x20 ADD PUSH1 0x0 KECCAK256 PUSH1 0x40 MLOAD DUP1 PUSH1 0xA0 ADD PUSH1 0x40 MSTORE SWAP1 DUP2 PUSH1 0x0 DUP3 ADD SLOAD DUP2 MSTORE PUSH1 0x20 ADD PUSH1 0x1 DUP3 ADD SLOAD DUP2 MSTORE PUSH1 0x20 ADD PUSH1 0x2 DUP3 ADD SLOAD DUP2 MSTORE PUSH1 0x20 ADD PUSH1 0x3 DUP3 ADD SLOAD DUP2 MSTORE PUSH1 0x20 ADD PUSH1 0x4 DUP3 ADD PUSH1 0x0 SWAP1 SLOAD SWAP1 PUSH2 0x100 EXP SWAP1 DIV PUSH1 0xFF AND ISZERO ISZERO ISZERO ISZERO DUP2 MSTORE POP POP SWAP1 POP SWAP2 SWAP1 POP JUMP JUMPDEST PUSH1 0x40 MLOAD DUP1 PUSH1 0xA0 ADD PUSH1 0x40 MSTORE DUP1 PUSH1 0x0 DUP2 MSTORE PUSH1 0x20 ADD PUSH1 0x0 DUP2 MSTORE PUSH1 0x20 ADD PUSH1 0x0 DUP2 MSTORE PUSH1 0x20 ADD PUSH1 0x0 DUP2 MSTORE PUSH1 0x20 ADD PUSH1 0x0 ISZERO ISZERO DUP2 MSTORE POP SWAP1 JUMP JUMPDEST PUSH1 0x0 DUP2 CALLDATALOAD SWAP1 POP PUSH2 0x37B DUP2 PUSH2 0x677 JUMP JUMPDEST SWAP3 SWAP2 POP POP JUMP JUMPDEST PUSH1 0x0 PUSH1 0x20 DUP3 DUP5 SUB SLT ISZERO PUSH2 0x397 JUMPI PUSH2 0x396 PUSH2 0x5FA JUMP JUMPDEST JUMPDEST PUSH1 0x0 PUSH2 0x3A5 DUP5 DUP3 DUP6 ADD PUSH2 0x36C JUMP JUMPDEST SWAP2 POP POP SWAP3 SWAP2 POP POP JUMP JUMPDEST PUSH1 0x0 DUP1 PUSH1 0x40 DUP4 DUP6 SUB SLT ISZERO PUSH2 0x3C5 JUMPI PUSH2 0x3C4 PUSH2 0x5FA JUMP JUMPDEST JUMPDEST PUSH1 0x0 PUSH2 0x3D3 DUP6 DUP3 DUP7 ADD PUSH2 0x36C JUMP JUMPDEST SWAP3 POP POP PUSH1 0x20 PUSH2 0x3E4 DUP6 DUP3 DUP7 ADD PUSH2 0x36C JUMP JUMPDEST SWAP2 POP POP SWAP3 POP SWAP3 SWAP1 POP JUMP JUMPDEST PUSH2 0x3F7 DUP2 PUSH2 0x56C JUMP JUMPDEST DUP3 MSTORE POP POP JUMP JUMPDEST PUSH1 0x0 PUSH2 0x40A PUSH1 0x16 DUP4 PUSH2 0x55B JUMP JUMPDEST SWAP2 POP PUSH2 0x415 DUP3 PUSH2 0x5FF JUMP JUMPDEST PUSH1 0x20 DUP3 ADD SWAP1 POP SWAP2 SWAP1 POP JUMP JUMPDEST PUSH1 0x0 PUSH2 0x42D PUSH1 0x34 DUP4 PUSH2 0x55B JUMP JUMPDEST SWAP2 POP PUSH2 0x438 DUP3 PUSH2 0x628 JUMP JUMPDEST PUSH1 0x40 DUP3 ADD SWAP1 POP SWAP2 SWAP1 POP JUMP JUMPDEST PUSH1 0xA0 DUP3 ADD PUSH1 0x0 DUP3 ADD MLOAD PUSH2 0x459 PUSH1 0x0 DUP6 ADD DUP3 PUSH2 0x4AB JUMP JUMPDEST POP PUSH1 0x20 DUP3 ADD MLOAD PUSH2 0x46C PUSH1 0x20 DUP6 ADD DUP3 PUSH2 0x4AB JUMP JUMPDEST POP PUSH1 0x40 DUP3 ADD MLOAD PUSH2 0x47F PUSH1 0x40 DUP6 ADD DUP3 PUSH2 0x4AB JUMP JUMPDEST POP PUSH1 0x60 DUP3 ADD MLOAD PUSH2 0x492 PUSH1 0x60 DUP6 ADD DUP3 PUSH2 0x4AB JUMP JUMPDEST POP PUSH1 0x80 DUP3 ADD MLOAD PUSH2 0x4A5 PUSH1 0x80 DUP6 ADD DUP3 PUSH2 0x3EE JUMP JUMPDEST POP POP POP POP JUMP JUMPDEST PUSH2 0x4B4 DUP2 PUSH2 0x578 JUMP JUMPDEST DUP3 MSTORE POP POP JUMP JUMPDEST PUSH2 0x4C3 DUP2 PUSH2 0x578 JUMP JUMPDEST DUP3 MSTORE POP POP JUMP JUMPDEST PUSH1 0x0 PUSH1 0xA0 DUP3 ADD SWAP1 POP PUSH2 0x4DE PUSH1 0x0 DUP4 ADD DUP5 PUSH2 0x443 JUMP JUMPDEST SWAP3 SWAP2 POP POP JUMP JUMPDEST PUSH1 0x0 PUSH1 0x20 DUP3 ADD SWAP1 POP PUSH2 0x4F9 PUSH1 0x0 DUP4 ADD DUP5 PUSH2 0x4BA JUMP JUMPDEST SWAP3 SWAP2 POP POP JUMP JUMPDEST PUSH1 0x0 PUSH1 0x40 DUP3 ADD SWAP1 POP PUSH2 0x514 PUSH1 0x0 DUP4 ADD DUP5 PUSH2 0x4BA JUMP JUMPDEST DUP2 DUP2 SUB PUSH1 0x20 DUP4 ADD MSTORE PUSH2 0x525 DUP2 PUSH2 0x3FD JUMP JUMPDEST SWAP1 POP SWAP3 SWAP2 POP POP JUMP JUMPDEST PUSH1 0x0 PUSH1 0x40 DUP3 ADD SWAP1 POP PUSH2 0x542 PUSH1 0x0 DUP4 ADD DUP5 PUSH2 0x4BA JUMP JUMPDEST DUP2 DUP2 SUB PUSH1 0x20 DUP4 ADD MSTORE PUSH2 0x553 DUP2 PUSH2 0x420 JUMP JUMPDEST SWAP1 POP SWAP3 SWAP2 POP POP JUMP JUMPDEST PUSH1 0x0 DUP3 DUP3 MSTORE PUSH1 0x20 DUP3 ADD SWAP1 POP SWAP3 SWAP2 POP POP JUMP JUMPDEST PUSH1 0x0 DUP2 ISZERO ISZERO SWAP1 POP SWAP2 SWAP1 POP JUMP JUMPDEST PUSH1 0x0 DUP2 SWAP1 POP SWAP2 SWAP1 POP JUMP JUMPDEST PUSH1 0x0 PUSH2 0x58D DUP3 PUSH2 0x578 JUMP JUMPDEST SWAP2 POP PUSH32 0xFFFFFFFFFFFFFFFFFFFFFFFFFFFFFFFFFFFFFFFFFFFFFFFFFFFFFFFFFFFFFFFF DUP3 EQ ISZERO PUSH2 0x5C0 JUMPI PUSH2 0x5BF PUSH2 0x5CB JUMP JUMPDEST JUMPDEST PUSH1 0x1 DUP3 ADD SWAP1 POP SWAP2 SWAP1 POP JUMP JUMPDEST PUSH32 0x4E487B7100000000000000000000000000000000000000000000000000000000 PUSH1 0x0 MSTORE PUSH1 0x11 PUSH1 0x4 MSTORE PUSH1 0x24 PUSH1 0x0 REVERT JUMPDEST PUSH1 0x0 DUP1 REVERT JUMPDEST PUSH32 0x4E6F2072657061726174696F6E73206E65656465642E00000000000000000000 PUSH1 0x0 DUP3 ADD MSTORE POP JUMP JUMPDEST PUSH32 0x5468652072657061697220686173206265656E20646F6E652E20506C65617365 PUSH1 0x0 DUP3 ADD MSTORE PUSH32 0x2070726F6365656420746F207061796D656E742E000000000000000000000000 PUSH1 0x20 DUP3 ADD MSTORE POP JUMP JUMPDEST PUSH2 0x680 DUP2 PUSH2 0x578 JUMP JUMPDEST DUP2 EQ PUSH2 0x68B JUMPI PUSH1 0x0 DUP1 REVERT JUMPDEST POP JUMP INVALID LOG2 PUSH5 0x6970667358 0x22 SLT KECCAK256 0xEE SWAP14 SWAP7 DUP16 MSTORE8 RETURNDATASIZE DUP1 PUSH23 0x6CB9AD606D79C536993B76386AA7EBCEC650209452A7A4 SWAP3 PUSH5 0x736F6C6343 STOP ADDMOD SMOD STOP CALLER "
				},
				"gasEstimates": {
					"creation": {
						"codeDepositCost": "346400",
						"executionCost": "386",
						"totalCost": "346786"
					},
					"external": {
						"achieveRepairRequest(uint256)": "infinite",
						"estimateCost(uint256)": "infinite",
						"getRepair(uint256)": "infinite",
						"receiveRepairRequest(uint256,uint256)": "infinite"
					}
				},
				"methodIdentifiers": {
					"achieveRepairRequest(uint256)": "1d2ff196",
					"estimateCost(uint256)": "41807a54",
					"getRepair(uint256)": "729511fa",
					"receiveRepairRequest(uint256,uint256)": "4c95ef49"
				}
			},
			"storageLayout": {
				"storage": [
					{
						"astId": 6,
						"contract": "contracts/Garage.sol:GarageContract",
						"label": "numRepair",
						"offset": 0,
						"slot": "0",
						"type": "t_uint256"
					},
					{
						"astId": 11,
						"contract": "contracts/Garage.sol:GarageContract",
						"label": "repairs",
						"offset": 0,
						"slot": "1",
						"type": "t_mapping(t_uint256,t_struct(Repair)222_storage)"
					}
				],
				"types": {
					"t_bool": {
						"encoding": "inplace",
						"label": "bool",
						"numberOfBytes": "1"
					},
					"t_mapping(t_uint256,t_struct(Repair)222_storage)": {
						"encoding": "mapping",
						"key": "t_uint256",
						"label": "mapping(uint256 => struct InsuranceCompanyContract.Repair)",
						"numberOfBytes": "32",
						"value": "t_struct(Repair)222_storage"
					},
					"t_struct(Repair)222_storage": {
						"encoding": "inplace",
						"label": "struct InsuranceCompanyContract.Repair",
						"members": [
							{
								"astId": 213,
								"contract": "contracts/Garage.sol:GarageContract",
								"label": "id",
								"offset": 0,
								"slot": "0",
								"type": "t_uint256"
							},
							{
								"astId": 215,
								"contract": "contracts/Garage.sol:GarageContract",
								"label": "claimId",
								"offset": 0,
								"slot": "1",
								"type": "t_uint256"
							},
							{
								"astId": 217,
								"contract": "contracts/Garage.sol:GarageContract",
								"label": "damage",
								"offset": 0,
								"slot": "2",
								"type": "t_uint256"
							},
							{
								"astId": 219,
								"contract": "contracts/Garage.sol:GarageContract",
								"label": "cost",
								"offset": 0,
								"slot": "3",
								"type": "t_uint256"
							},
							{
								"astId": 221,
								"contract": "contracts/Garage.sol:GarageContract",
								"label": "isDone",
								"offset": 0,
								"slot": "4",
								"type": "t_bool"
							}
						],
						"numberOfBytes": "160"
					},
					"t_uint256": {
						"encoding": "inplace",
						"label": "uint256",
						"numberOfBytes": "32"
					}
				}
			},
			"userdoc": {
				"kind": "user",
				"methods": {},
				"version": 1
			}
		}
	}
}