{
	"contracts/Client.sol": {
		"ClientContract": {
			"abi": [
				{
					"inputs": [],
					"stateMutability": "nonpayable",
					"type": "constructor"
				},
				{
					"inputs": [
						{
							"internalType": "uint256",
							"name": "id",
							"type": "uint256"
						}
					],
					"name": "getClient",
					"outputs": [
						{
							"components": [
								{
									"internalType": "uint256",
									"name": "id",
									"type": "uint256"
								},
								{
									"internalType": "string",
									"name": "name",
									"type": "string"
								},
								{
									"internalType": "enum InsurranceCompanyContract.insurancePolicy",
									"name": "policyType",
									"type": "uint8"
								},
								{
									"internalType": "uint256",
									"name": "validityDate",
									"type": "uint256"
								}
							],
							"internalType": "struct InsurranceCompanyContract.Client",
							"name": "client",
							"type": "tuple"
						}
					],
					"stateMutability": "view",
					"type": "function"
				},
				{
					"inputs": [
						{
							"internalType": "string",
							"name": "name",
							"type": "string"
						},
						{
							"internalType": "enum InsurranceCompanyContract.insurancePolicy",
							"name": "policyType",
							"type": "uint8"
						},
						{
							"internalType": "uint256",
							"name": "validityInDays",
							"type": "uint256"
						}
					],
					"name": "newClient",
					"outputs": [
						{
							"internalType": "uint256",
							"name": "clientId",
							"type": "uint256"
						}
					],
					"stateMutability": "nonpayable",
					"type": "function"
				},
				{
					"inputs": [
						{
							"internalType": "uint256",
							"name": "clientId",
							"type": "uint256"
						},
						{
							"internalType": "enum InsurranceCompanyContract.insurancePolicy",
							"name": "policyType",
							"type": "uint8"
						}
					],
					"name": "submitAClaim",
					"outputs": [
						{
							"internalType": "uint256",
							"name": "claimId",
							"type": "uint256"
						}
					],
					"stateMutability": "nonpayable",
					"type": "function"
				}
			],
			"devdoc": {
				"kind": "dev",
				"methods": {},
				"version": 1
			},
			"evm": {
				"assembly": "    /* \"contracts/Client.sol\":99:1201  contract ClientContract is InsurranceCompanyContract {\r... */\n  mstore(0x40, 0x80)\n    /* \"contracts/Client.sol\":280:358  constructor(){\r... */\n  callvalue\n  dup1\n  iszero\n  tag_1\n  jumpi\n  0x00\n  dup1\n  revert\ntag_1:\n  pop\n    /* \"contracts/Client.sol\":304:350  newClient(\"Tom\", insurancePolicy.AllRisk, 300) */\n  tag_4\n  mload(0x40)\n  dup1\n  0x40\n  add\n  0x40\n  mstore\n  dup1\n  0x03\n  dup2\n  mstore\n  0x20\n  add\n  0x546f6d0000000000000000000000000000000000000000000000000000000000\n  dup2\n  mstore\n  pop\n    /* \"contracts/Client.sol\":321:344  insurancePolicy.AllRisk */\n  0x01\n    /* \"contracts/Client.sol\":346:349  300 */\n  0x012c\n    /* \"contracts/Client.sol\":304:313  newClient */\n  shl(0x20, tag_5)\n    /* \"contracts/Client.sol\":304:350  newClient(\"Tom\", insurancePolicy.AllRisk, 300) */\n  0x20\n  shr\n  jump\t// in\ntag_4:\n  pop\n    /* \"contracts/Client.sol\":99:1201  contract ClientContract is InsurranceCompanyContract {\r... */\n  jump(tag_6)\n    /* \"contracts/Client.sol\":366:731  function newClient(string memory name, insurancePolicy policyType, uint validityInDays) public returns (uint clientId) {\r... */\ntag_5:\n    /* \"contracts/Client.sol\":470:483  uint clientId */\n  0x00\n    /* \"contracts/Client.sol\":507:516  numClient */\n  dup1\n  0x00\n    /* \"contracts/Client.sol\":507:518  numClient++ */\n  dup2\n  sload\n  dup1\n  swap3\n  swap2\n  swap1\n  tag_8\n  swap1\n  tag_9\n  jump\t// in\ntag_8:\n  swap2\n  swap1\n  pop\n  sstore\n    /* \"contracts/Client.sol\":496:518  clientId = numClient++ */\n  swap1\n  pop\n    /* \"contracts/Client.sol\":530:546  Client storage c */\n  0x00\n    /* \"contracts/Client.sol\":549:556  clients */\n  0x01\n    /* \"contracts/Client.sol\":549:566  clients[clientId] */\n  0x00\n    /* \"contracts/Client.sol\":557:565  clientId */\n  dup4\n    /* \"contracts/Client.sol\":549:566  clients[clientId] */\n  dup2\n  mstore\n  0x20\n  add\n  swap1\n  dup2\n  mstore\n  0x20\n  add\n  0x00\n  keccak256\n    /* \"contracts/Client.sol\":530:566  Client storage c = clients[clientId] */\n  swap1\n  pop\n    /* \"contracts/Client.sol\":584:592  clientId */\n  dup2\n    /* \"contracts/Client.sol\":577:578  c */\n  dup2\n    /* \"contracts/Client.sol\":577:581  c.id */\n  0x00\n  add\n    /* \"contracts/Client.sol\":577:592  c.id = clientId */\n  dup2\n  swap1\n  sstore\n  pop\n    /* \"contracts/Client.sol\":612:616  name */\n  dup5\n    /* \"contracts/Client.sol\":603:604  c */\n  dup2\n    /* \"contracts/Client.sol\":603:609  c.name */\n  0x01\n  add\n    /* \"contracts/Client.sol\":603:616  c.name = name */\n  swap1\n  dup1\n  mload\n  swap1\n  0x20\n  add\n  swap1\n  tag_10\n  swap3\n  swap2\n  swap1\n  tag_11\n  jump\t// in\ntag_10:\n  pop\n    /* \"contracts/Client.sol\":642:652  policyType */\n  dup4\n    /* \"contracts/Client.sol\":627:628  c */\n  dup2\n    /* \"contracts/Client.sol\":627:639  c.policyType */\n  0x02\n  add\n  0x00\n    /* \"contracts/Client.sol\":627:652  c.policyType = policyType */\n  0x0100\n  exp\n  dup2\n  sload\n  dup2\n  0xff\n  mul\n  not\n  and\n  swap1\n  dup4\n  0x01\n  dup2\n  gt\n  iszero\n  tag_12\n  jumpi\n  tag_13\n  tag_14\n  jump\t// in\ntag_13:\ntag_12:\n  mul\n  or\n  swap1\n  sstore\n  pop\n    /* \"contracts/Client.sol\":716:722  1 days */\n  0x015180\n    /* \"contracts/Client.sol\":699:713  validityInDays */\n  dup4\n    /* \"contracts/Client.sol\":699:722  validityInDays * 1 days */\n  tag_15\n  swap2\n  swap1\n  tag_16\n  jump\t// in\ntag_15:\n    /* \"contracts/Client.sol\":680:695  block.timestamp */\n  timestamp\n    /* \"contracts/Client.sol\":680:723  block.timestamp + (validityInDays * 1 days) */\n  tag_17\n  swap2\n  swap1\n  tag_18\n  jump\t// in\ntag_17:\n    /* \"contracts/Client.sol\":663:664  c */\n  dup2\n    /* \"contracts/Client.sol\":663:677  c.validityDate */\n  0x03\n  add\n    /* \"contracts/Client.sol\":663:723  c.validityDate = block.timestamp + (validityInDays * 1 days) */\n  dup2\n  swap1\n  sstore\n  pop\n    /* \"contracts/Client.sol\":485:731  {\r... */\n  pop\n    /* \"contracts/Client.sol\":366:731  function newClient(string memory name, insurancePolicy policyType, uint validityInDays) public returns (uint clientId) {\r... */\n  swap4\n  swap3\n  pop\n  pop\n  pop\n  jump\t// out\n    /* \"contracts/Client.sol\":99:1201  contract ClientContract is InsurranceCompanyContract {\r... */\ntag_11:\n  dup3\n  dup1\n  sload\n  tag_19\n  swap1\n  tag_20\n  jump\t// in\ntag_19:\n  swap1\n  0x00\n  mstore\n  keccak256(0x00, 0x20)\n  swap1\n  0x1f\n  add\n  0x20\n  swap1\n  div\n  dup2\n  add\n  swap3\n  dup3\n  tag_22\n  jumpi\n  0x00\n  dup6\n  sstore\n  jump(tag_21)\ntag_22:\n  dup3\n  0x1f\n  lt\n  tag_23\n  jumpi\n  dup1\n  mload\n  not(0xff)\n  and\n  dup4\n  dup1\n  add\n  or\n  dup6\n  sstore\n  jump(tag_21)\ntag_23:\n  dup3\n  dup1\n  add\n  0x01\n  add\n  dup6\n  sstore\n  dup3\n  iszero\n  tag_21\n  jumpi\n  swap2\n  dup3\n  add\ntag_24:\n  dup3\n  dup2\n  gt\n  iszero\n  tag_25\n  jumpi\n  dup3\n  mload\n  dup3\n  sstore\n  swap2\n  0x20\n  add\n  swap2\n  swap1\n  0x01\n  add\n  swap1\n  jump(tag_24)\ntag_25:\ntag_21:\n  pop\n  swap1\n  pop\n  tag_26\n  swap2\n  swap1\n  tag_27\n  jump\t// in\ntag_26:\n  pop\n  swap1\n  jump\t// out\ntag_27:\ntag_28:\n  dup1\n  dup3\n  gt\n  iszero\n  tag_29\n  jumpi\n  0x00\n  dup2\n  0x00\n  swap1\n  sstore\n  pop\n  0x01\n  add\n  jump(tag_28)\ntag_29:\n  pop\n  swap1\n  jump\t// out\n    /* \"#utility.yul\":7:312   */\ntag_18:\n    /* \"#utility.yul\":47:50   */\n  0x00\n    /* \"#utility.yul\":66:86   */\n  tag_32\n    /* \"#utility.yul\":84:85   */\n  dup3\n    /* \"#utility.yul\":66:86   */\n  tag_33\n  jump\t// in\ntag_32:\n    /* \"#utility.yul\":61:86   */\n  swap2\n  pop\n    /* \"#utility.yul\":100:120   */\n  tag_34\n    /* \"#utility.yul\":118:119   */\n  dup4\n    /* \"#utility.yul\":100:120   */\n  tag_33\n  jump\t// in\ntag_34:\n    /* \"#utility.yul\":95:120   */\n  swap3\n  pop\n    /* \"#utility.yul\":254:255   */\n  dup3\n    /* \"#utility.yul\":186:252   */\n  0xffffffffffffffffffffffffffffffffffffffffffffffffffffffffffffffff\n    /* \"#utility.yul\":182:256   */\n  sub\n    /* \"#utility.yul\":179:180   */\n  dup3\n    /* \"#utility.yul\":176:257   */\n  gt\n    /* \"#utility.yul\":173:280   */\n  iszero\n  tag_35\n  jumpi\n    /* \"#utility.yul\":260:278   */\n  tag_36\n  tag_37\n  jump\t// in\ntag_36:\n    /* \"#utility.yul\":173:280   */\ntag_35:\n    /* \"#utility.yul\":304:305   */\n  dup3\n    /* \"#utility.yul\":301:302   */\n  dup3\n    /* \"#utility.yul\":297:306   */\n  add\n    /* \"#utility.yul\":290:306   */\n  swap1\n  pop\n    /* \"#utility.yul\":7:312   */\n  swap3\n  swap2\n  pop\n  pop\n  jump\t// out\n    /* \"#utility.yul\":318:666   */\ntag_16:\n    /* \"#utility.yul\":358:365   */\n  0x00\n    /* \"#utility.yul\":381:401   */\n  tag_39\n    /* \"#utility.yul\":399:400   */\n  dup3\n    /* \"#utility.yul\":381:401   */\n  tag_33\n  jump\t// in\ntag_39:\n    /* \"#utility.yul\":376:401   */\n  swap2\n  pop\n    /* \"#utility.yul\":415:435   */\n  tag_40\n    /* \"#utility.yul\":433:434   */\n  dup4\n    /* \"#utility.yul\":415:435   */\n  tag_33\n  jump\t// in\ntag_40:\n    /* \"#utility.yul\":410:435   */\n  swap3\n  pop\n    /* \"#utility.yul\":603:604   */\n  dup2\n    /* \"#utility.yul\":535:601   */\n  0xffffffffffffffffffffffffffffffffffffffffffffffffffffffffffffffff\n    /* \"#utility.yul\":531:605   */\n  div\n    /* \"#utility.yul\":528:529   */\n  dup4\n    /* \"#utility.yul\":525:606   */\n  gt\n    /* \"#utility.yul\":520:521   */\n  dup3\n    /* \"#utility.yul\":513:522   */\n  iszero\n    /* \"#utility.yul\":506:523   */\n  iszero\n    /* \"#utility.yul\":502:607   */\n  and\n    /* \"#utility.yul\":499:630   */\n  iszero\n  tag_41\n  jumpi\n    /* \"#utility.yul\":610:628   */\n  tag_42\n  tag_37\n  jump\t// in\ntag_42:\n    /* \"#utility.yul\":499:630   */\ntag_41:\n    /* \"#utility.yul\":658:659   */\n  dup3\n    /* \"#utility.yul\":655:656   */\n  dup3\n    /* \"#utility.yul\":651:660   */\n  mul\n    /* \"#utility.yul\":640:660   */\n  swap1\n  pop\n    /* \"#utility.yul\":318:666   */\n  swap3\n  swap2\n  pop\n  pop\n  jump\t// out\n    /* \"#utility.yul\":672:749   */\ntag_33:\n    /* \"#utility.yul\":709:716   */\n  0x00\n    /* \"#utility.yul\":738:743   */\n  dup2\n    /* \"#utility.yul\":727:743   */\n  swap1\n  pop\n    /* \"#utility.yul\":672:749   */\n  swap2\n  swap1\n  pop\n  jump\t// out\n    /* \"#utility.yul\":755:1075   */\ntag_20:\n    /* \"#utility.yul\":799:805   */\n  0x00\n    /* \"#utility.yul\":836:837   */\n  0x02\n    /* \"#utility.yul\":830:834   */\n  dup3\n    /* \"#utility.yul\":826:838   */\n  div\n    /* \"#utility.yul\":816:838   */\n  swap1\n  pop\n    /* \"#utility.yul\":883:884   */\n  0x01\n    /* \"#utility.yul\":877:881   */\n  dup3\n    /* \"#utility.yul\":873:885   */\n  and\n    /* \"#utility.yul\":904:922   */\n  dup1\n    /* \"#utility.yul\":894:975   */\n  tag_45\n  jumpi\n    /* \"#utility.yul\":960:964   */\n  0x7f\n    /* \"#utility.yul\":952:958   */\n  dup3\n    /* \"#utility.yul\":948:965   */\n  and\n    /* \"#utility.yul\":938:965   */\n  swap2\n  pop\n    /* \"#utility.yul\":894:975   */\ntag_45:\n    /* \"#utility.yul\":1022:1024   */\n  0x20\n    /* \"#utility.yul\":1014:1020   */\n  dup3\n    /* \"#utility.yul\":1011:1025   */\n  lt\n    /* \"#utility.yul\":991:1009   */\n  dup2\n    /* \"#utility.yul\":988:1026   */\n  eq\n    /* \"#utility.yul\":985:1069   */\n  iszero\n  tag_46\n  jumpi\n    /* \"#utility.yul\":1041:1059   */\n  tag_47\n  tag_48\n  jump\t// in\ntag_47:\n    /* \"#utility.yul\":985:1069   */\ntag_46:\n    /* \"#utility.yul\":806:1075   */\n  pop\n    /* \"#utility.yul\":755:1075   */\n  swap2\n  swap1\n  pop\n  jump\t// out\n    /* \"#utility.yul\":1081:1314   */\ntag_9:\n    /* \"#utility.yul\":1120:1123   */\n  0x00\n    /* \"#utility.yul\":1143:1167   */\n  tag_50\n    /* \"#utility.yul\":1161:1166   */\n  dup3\n    /* \"#utility.yul\":1143:1167   */\n  tag_33\n  jump\t// in\ntag_50:\n    /* \"#utility.yul\":1134:1167   */\n  swap2\n  pop\n    /* \"#utility.yul\":1189:1255   */\n  0xffffffffffffffffffffffffffffffffffffffffffffffffffffffffffffffff\n    /* \"#utility.yul\":1182:1187   */\n  dup3\n    /* \"#utility.yul\":1179:1256   */\n  eq\n    /* \"#utility.yul\":1176:1279   */\n  iszero\n  tag_51\n  jumpi\n    /* \"#utility.yul\":1259:1277   */\n  tag_52\n  tag_37\n  jump\t// in\ntag_52:\n    /* \"#utility.yul\":1176:1279   */\ntag_51:\n    /* \"#utility.yul\":1306:1307   */\n  0x01\n    /* \"#utility.yul\":1299:1304   */\n  dup3\n    /* \"#utility.yul\":1295:1308   */\n  add\n    /* \"#utility.yul\":1288:1308   */\n  swap1\n  pop\n    /* \"#utility.yul\":1081:1314   */\n  swap2\n  swap1\n  pop\n  jump\t// out\n    /* \"#utility.yul\":1320:1500   */\ntag_37:\n    /* \"#utility.yul\":1368:1445   */\n  0x4e487b7100000000000000000000000000000000000000000000000000000000\n    /* \"#utility.yul\":1365:1366   */\n  0x00\n    /* \"#utility.yul\":1358:1446   */\n  mstore\n    /* \"#utility.yul\":1465:1469   */\n  0x11\n    /* \"#utility.yul\":1462:1463   */\n  0x04\n    /* \"#utility.yul\":1455:1470   */\n  mstore\n    /* \"#utility.yul\":1489:1493   */\n  0x24\n    /* \"#utility.yul\":1486:1487   */\n  0x00\n    /* \"#utility.yul\":1479:1494   */\n  revert\n    /* \"#utility.yul\":1506:1686   */\ntag_14:\n    /* \"#utility.yul\":1554:1631   */\n  0x4e487b7100000000000000000000000000000000000000000000000000000000\n    /* \"#utility.yul\":1551:1552   */\n  0x00\n    /* \"#utility.yul\":1544:1632   */\n  mstore\n    /* \"#utility.yul\":1651:1655   */\n  0x21\n    /* \"#utility.yul\":1648:1649   */\n  0x04\n    /* \"#utility.yul\":1641:1656   */\n  mstore\n    /* \"#utility.yul\":1675:1679   */\n  0x24\n    /* \"#utility.yul\":1672:1673   */\n  0x00\n    /* \"#utility.yul\":1665:1680   */\n  revert\n    /* \"#utility.yul\":1692:1872   */\ntag_48:\n    /* \"#utility.yul\":1740:1817   */\n  0x4e487b7100000000000000000000000000000000000000000000000000000000\n    /* \"#utility.yul\":1737:1738   */\n  0x00\n    /* \"#utility.yul\":1730:1818   */\n  mstore\n    /* \"#utility.yul\":1837:1841   */\n  0x22\n    /* \"#utility.yul\":1834:1835   */\n  0x04\n    /* \"#utility.yul\":1827:1842   */\n  mstore\n    /* \"#utility.yul\":1861:1865   */\n  0x24\n    /* \"#utility.yul\":1858:1859   */\n  0x00\n    /* \"#utility.yul\":1851:1866   */\n  revert\n    /* \"contracts/Client.sol\":99:1201  contract ClientContract is InsurranceCompanyContract {\r... */\ntag_6:\n  dataSize(sub_0)\n  dup1\n  dataOffset(sub_0)\n  0x00\n  codecopy\n  0x00\n  return\nstop\n\nsub_0: assembly {\n        /* \"contracts/Client.sol\":99:1201  contract ClientContract is InsurranceCompanyContract {\r... */\n      mstore(0x40, 0x80)\n      callvalue\n      dup1\n      iszero\n      tag_1\n      jumpi\n      0x00\n      dup1\n      revert\n    tag_1:\n      pop\n      jumpi(tag_2, lt(calldatasize, 0x04))\n      shr(0xe0, calldataload(0x00))\n      dup1\n      0x68a87ab6\n      eq\n      tag_3\n      jumpi\n      dup1\n      0xbf28fa96\n      eq\n      tag_4\n      jumpi\n      dup1\n      0xd0068f80\n      eq\n      tag_5\n      jumpi\n    tag_2:\n      0x00\n      dup1\n      revert\n        /* \"contracts/Client.sol\":739:1081  function submitAClaim(uint clientId, insurancePolicy policyType) public returns (uint claimId) {\r... */\n    tag_3:\n      tag_6\n      0x04\n      dup1\n      calldatasize\n      sub\n      dup2\n      add\n      swap1\n      tag_7\n      swap2\n      swap1\n      tag_8\n      jump\t// in\n    tag_7:\n      tag_9\n      jump\t// in\n    tag_6:\n      mload(0x40)\n      tag_10\n      swap2\n      swap1\n      tag_11\n      jump\t// in\n    tag_10:\n      mload(0x40)\n      dup1\n      swap2\n      sub\n      swap1\n      return\n        /* \"contracts/Client.sol\":366:731  function newClient(string memory name, insurancePolicy policyType, uint validityInDays) public returns (uint clientId) {\r... */\n    tag_4:\n      tag_12\n      0x04\n      dup1\n      calldatasize\n      sub\n      dup2\n      add\n      swap1\n      tag_13\n      swap2\n      swap1\n      tag_14\n      jump\t// in\n    tag_13:\n      tag_15\n      jump\t// in\n    tag_12:\n      mload(0x40)\n      tag_16\n      swap2\n      swap1\n      tag_11\n      jump\t// in\n    tag_16:\n      mload(0x40)\n      dup1\n      swap2\n      sub\n      swap1\n      return\n        /* \"contracts/Client.sol\":1089:1198  function getClient(uint id) public view returns (Client memory client){\r... */\n    tag_5:\n      tag_17\n      0x04\n      dup1\n      calldatasize\n      sub\n      dup2\n      add\n      swap1\n      tag_18\n      swap2\n      swap1\n      tag_19\n      jump\t// in\n    tag_18:\n      tag_20\n      jump\t// in\n    tag_17:\n      mload(0x40)\n      tag_21\n      swap2\n      swap1\n      tag_22\n      jump\t// in\n    tag_21:\n      mload(0x40)\n      dup1\n      swap2\n      sub\n      swap1\n      return\n        /* \"contracts/Client.sol\":739:1081  function submitAClaim(uint clientId, insurancePolicy policyType) public returns (uint claimId) {\r... */\n    tag_9:\n        /* \"contracts/Client.sol\":820:832  uint claimId */\n      0x00\n        /* \"contracts/Client.sol\":855:863  numClaim */\n      0x02\n      0x00\n        /* \"contracts/Client.sol\":855:865  numClaim++ */\n      dup2\n      sload\n      dup1\n      swap3\n      swap2\n      swap1\n      tag_24\n      swap1\n      tag_25\n      jump\t// in\n    tag_24:\n      swap2\n      swap1\n      pop\n      sstore\n        /* \"contracts/Client.sol\":845:865  claimId = numClaim++ */\n      swap1\n      pop\n        /* \"contracts/Client.sol\":877:892  Claim storage c */\n      0x00\n        /* \"contracts/Client.sol\":895:901  claims */\n      0x03\n        /* \"contracts/Client.sol\":895:910  claims[claimId] */\n      0x00\n        /* \"contracts/Client.sol\":902:909  claimId */\n      dup4\n        /* \"contracts/Client.sol\":895:910  claims[claimId] */\n      dup2\n      mstore\n      0x20\n      add\n      swap1\n      dup2\n      mstore\n      0x20\n      add\n      0x00\n      keccak256\n        /* \"contracts/Client.sol\":877:910  Claim storage c = claims[claimId] */\n      swap1\n      pop\n        /* \"contracts/Client.sol\":928:935  claimId */\n      dup2\n        /* \"contracts/Client.sol\":921:922  c */\n      dup2\n        /* \"contracts/Client.sol\":921:925  c.id */\n      0x00\n      add\n        /* \"contracts/Client.sol\":921:935  c.id = claimId */\n      dup2\n      swap1\n      sstore\n      pop\n        /* \"contracts/Client.sol\":959:967  clientId */\n      dup4\n        /* \"contracts/Client.sol\":946:947  c */\n      dup2\n        /* \"contracts/Client.sol\":946:956  c.clientId */\n      0x01\n      add\n        /* \"contracts/Client.sol\":946:967  c.clientId = clientId */\n      dup2\n      swap1\n      sstore\n      pop\n        /* \"contracts/Client.sol\":993:1003  policyType */\n      dup3\n        /* \"contracts/Client.sol\":978:979  c */\n      dup2\n        /* \"contracts/Client.sol\":978:990  c.policyType */\n      0x02\n      add\n      0x00\n        /* \"contracts/Client.sol\":978:1003  c.policyType = policyType */\n      0x0100\n      exp\n      dup2\n      sload\n      dup2\n      0xff\n      mul\n      not\n      and\n      swap1\n      dup4\n      0x01\n      dup2\n      gt\n      iszero\n      tag_26\n      jumpi\n      tag_27\n      tag_28\n      jump\t// in\n    tag_27:\n    tag_26:\n      mul\n      or\n      swap1\n      sstore\n      pop\n        /* \"contracts/Client.sol\":1028:1033  false */\n      0x00\n        /* \"contracts/Client.sol\":1014:1015  c */\n      dup2\n        /* \"contracts/Client.sol\":1014:1025  c.assesment */\n      0x02\n      add\n      0x01\n        /* \"contracts/Client.sol\":1014:1033  c.assesment = false */\n      0x0100\n      exp\n      dup2\n      sload\n      dup2\n      0xff\n      mul\n      not\n      and\n      swap1\n      dup4\n      iszero\n      iszero\n      mul\n      or\n      swap1\n      sstore\n      pop\n        /* \"contracts/Client.sol\":1058:1073  block.timestamp */\n      timestamp\n        /* \"contracts/Client.sol\":1044:1045  c */\n      dup2\n        /* \"contracts/Client.sol\":1044:1055  c.claimDate */\n      0x03\n      add\n        /* \"contracts/Client.sol\":1044:1073  c.claimDate = block.timestamp */\n      dup2\n      swap1\n      sstore\n      pop\n        /* \"contracts/Client.sol\":834:1081  {\r... */\n      pop\n        /* \"contracts/Client.sol\":739:1081  function submitAClaim(uint clientId, insurancePolicy policyType) public returns (uint claimId) {\r... */\n      swap3\n      swap2\n      pop\n      pop\n      jump\t// out\n        /* \"contracts/Client.sol\":366:731  function newClient(string memory name, insurancePolicy policyType, uint validityInDays) public returns (uint clientId) {\r... */\n    tag_15:\n        /* \"contracts/Client.sol\":470:483  uint clientId */\n      0x00\n        /* \"contracts/Client.sol\":507:516  numClient */\n      dup1\n      0x00\n        /* \"contracts/Client.sol\":507:518  numClient++ */\n      dup2\n      sload\n      dup1\n      swap3\n      swap2\n      swap1\n      tag_30\n      swap1\n      tag_25\n      jump\t// in\n    tag_30:\n      swap2\n      swap1\n      pop\n      sstore\n        /* \"contracts/Client.sol\":496:518  clientId = numClient++ */\n      swap1\n      pop\n        /* \"contracts/Client.sol\":530:546  Client storage c */\n      0x00\n        /* \"contracts/Client.sol\":549:556  clients */\n      0x01\n        /* \"contracts/Client.sol\":549:566  clients[clientId] */\n      0x00\n        /* \"contracts/Client.sol\":557:565  clientId */\n      dup4\n        /* \"contracts/Client.sol\":549:566  clients[clientId] */\n      dup2\n      mstore\n      0x20\n      add\n      swap1\n      dup2\n      mstore\n      0x20\n      add\n      0x00\n      keccak256\n        /* \"contracts/Client.sol\":530:566  Client storage c = clients[clientId] */\n      swap1\n      pop\n        /* \"contracts/Client.sol\":584:592  clientId */\n      dup2\n        /* \"contracts/Client.sol\":577:578  c */\n      dup2\n        /* \"contracts/Client.sol\":577:581  c.id */\n      0x00\n      add\n        /* \"contracts/Client.sol\":577:592  c.id = clientId */\n      dup2\n      swap1\n      sstore\n      pop\n        /* \"contracts/Client.sol\":612:616  name */\n      dup5\n        /* \"contracts/Client.sol\":603:604  c */\n      dup2\n        /* \"contracts/Client.sol\":603:609  c.name */\n      0x01\n      add\n        /* \"contracts/Client.sol\":603:616  c.name = name */\n      swap1\n      dup1\n      mload\n      swap1\n      0x20\n      add\n      swap1\n      tag_31\n      swap3\n      swap2\n      swap1\n      tag_32\n      jump\t// in\n    tag_31:\n      pop\n        /* \"contracts/Client.sol\":642:652  policyType */\n      dup4\n        /* \"contracts/Client.sol\":627:628  c */\n      dup2\n        /* \"contracts/Client.sol\":627:639  c.policyType */\n      0x02\n      add\n      0x00\n        /* \"contracts/Client.sol\":627:652  c.policyType = policyType */\n      0x0100\n      exp\n      dup2\n      sload\n      dup2\n      0xff\n      mul\n      not\n      and\n      swap1\n      dup4\n      0x01\n      dup2\n      gt\n      iszero\n      tag_33\n      jumpi\n      tag_34\n      tag_28\n      jump\t// in\n    tag_34:\n    tag_33:\n      mul\n      or\n      swap1\n      sstore\n      pop\n        /* \"contracts/Client.sol\":716:722  1 days */\n      0x015180\n        /* \"contracts/Client.sol\":699:713  validityInDays */\n      dup4\n        /* \"contracts/Client.sol\":699:722  validityInDays * 1 days */\n      tag_35\n      swap2\n      swap1\n      tag_36\n      jump\t// in\n    tag_35:\n        /* \"contracts/Client.sol\":680:695  block.timestamp */\n      timestamp\n        /* \"contracts/Client.sol\":680:723  block.timestamp + (validityInDays * 1 days) */\n      tag_37\n      swap2\n      swap1\n      tag_38\n      jump\t// in\n    tag_37:\n        /* \"contracts/Client.sol\":663:664  c */\n      dup2\n        /* \"contracts/Client.sol\":663:677  c.validityDate */\n      0x03\n      add\n        /* \"contracts/Client.sol\":663:723  c.validityDate = block.timestamp + (validityInDays * 1 days) */\n      dup2\n      swap1\n      sstore\n      pop\n        /* \"contracts/Client.sol\":485:731  {\r... */\n      pop\n        /* \"contracts/Client.sol\":366:731  function newClient(string memory name, insurancePolicy policyType, uint validityInDays) public returns (uint clientId) {\r... */\n      swap4\n      swap3\n      pop\n      pop\n      pop\n      jump\t// out\n        /* \"contracts/Client.sol\":1089:1198  function getClient(uint id) public view returns (Client memory client){\r... */\n    tag_20:\n        /* \"contracts/Client.sol\":1138:1158  Client memory client */\n      tag_39\n      tag_40\n      jump\t// in\n    tag_39:\n        /* \"contracts/Client.sol\":1179:1186  clients */\n      0x01\n        /* \"contracts/Client.sol\":1179:1190  clients[id] */\n      0x00\n        /* \"contracts/Client.sol\":1187:1189  id */\n      dup4\n        /* \"contracts/Client.sol\":1179:1190  clients[id] */\n      dup2\n      mstore\n      0x20\n      add\n      swap1\n      dup2\n      mstore\n      0x20\n      add\n      0x00\n      keccak256\n        /* \"contracts/Client.sol\":1170:1190  client = clients[id] */\n      mload(0x40)\n      dup1\n      0x80\n      add\n      0x40\n      mstore\n      swap1\n      dup2\n      0x00\n      dup3\n      add\n      sload\n      dup2\n      mstore\n      0x20\n      add\n      0x01\n      dup3\n      add\n      dup1\n      sload\n      tag_42\n      swap1\n      tag_43\n      jump\t// in\n    tag_42:\n      dup1\n      0x1f\n      add\n      0x20\n      dup1\n      swap2\n      div\n      mul\n      0x20\n      add\n      mload(0x40)\n      swap1\n      dup2\n      add\n      0x40\n      mstore\n      dup1\n      swap3\n      swap2\n      swap1\n      dup2\n      dup2\n      mstore\n      0x20\n      add\n      dup3\n      dup1\n      sload\n      tag_44\n      swap1\n      tag_43\n      jump\t// in\n    tag_44:\n      dup1\n      iszero\n      tag_45\n      jumpi\n      dup1\n      0x1f\n      lt\n      tag_46\n      jumpi\n      0x0100\n      dup1\n      dup4\n      sload\n      div\n      mul\n      dup4\n      mstore\n      swap2\n      0x20\n      add\n      swap2\n      jump(tag_45)\n    tag_46:\n      dup3\n      add\n      swap2\n      swap1\n      0x00\n      mstore\n      keccak256(0x00, 0x20)\n      swap1\n    tag_47:\n      dup2\n      sload\n      dup2\n      mstore\n      swap1\n      0x01\n      add\n      swap1\n      0x20\n      add\n      dup1\n      dup4\n      gt\n      tag_47\n      jumpi\n      dup3\n      swap1\n      sub\n      0x1f\n      and\n      dup3\n      add\n      swap2\n    tag_45:\n      pop\n      pop\n      pop\n      pop\n      pop\n      dup2\n      mstore\n      0x20\n      add\n      0x02\n      dup3\n      add\n      0x00\n      swap1\n      sload\n      swap1\n      0x0100\n      exp\n      swap1\n      div\n      0xff\n      and\n      0x01\n      dup2\n      gt\n      iszero\n      tag_48\n      jumpi\n      tag_49\n      tag_28\n      jump\t// in\n    tag_49:\n    tag_48:\n      0x01\n      dup2\n      gt\n      iszero\n      tag_50\n      jumpi\n      tag_51\n      tag_28\n      jump\t// in\n    tag_51:\n    tag_50:\n      dup2\n      mstore\n      0x20\n      add\n      0x03\n      dup3\n      add\n      sload\n      dup2\n      mstore\n      pop\n      pop\n      swap1\n      pop\n        /* \"contracts/Client.sol\":1089:1198  function getClient(uint id) public view returns (Client memory client){\r... */\n      swap2\n      swap1\n      pop\n      jump\t// out\n    tag_32:\n      dup3\n      dup1\n      sload\n      tag_52\n      swap1\n      tag_43\n      jump\t// in\n    tag_52:\n      swap1\n      0x00\n      mstore\n      keccak256(0x00, 0x20)\n      swap1\n      0x1f\n      add\n      0x20\n      swap1\n      div\n      dup2\n      add\n      swap3\n      dup3\n      tag_54\n      jumpi\n      0x00\n      dup6\n      sstore\n      jump(tag_53)\n    tag_54:\n      dup3\n      0x1f\n      lt\n      tag_55\n      jumpi\n      dup1\n      mload\n      not(0xff)\n      and\n      dup4\n      dup1\n      add\n      or\n      dup6\n      sstore\n      jump(tag_53)\n    tag_55:\n      dup3\n      dup1\n      add\n      0x01\n      add\n      dup6\n      sstore\n      dup3\n      iszero\n      tag_53\n      jumpi\n      swap2\n      dup3\n      add\n    tag_56:\n      dup3\n      dup2\n      gt\n      iszero\n      tag_57\n      jumpi\n      dup3\n      mload\n      dup3\n      sstore\n      swap2\n      0x20\n      add\n      swap2\n      swap1\n      0x01\n      add\n      swap1\n      jump(tag_56)\n    tag_57:\n    tag_53:\n      pop\n      swap1\n      pop\n      tag_58\n      swap2\n      swap1\n      tag_59\n      jump\t// in\n    tag_58:\n      pop\n      swap1\n      jump\t// out\n    tag_40:\n      mload(0x40)\n      dup1\n      0x80\n      add\n      0x40\n      mstore\n      dup1\n      0x00\n      dup2\n      mstore\n      0x20\n      add\n      0x60\n      dup2\n      mstore\n      0x20\n      add\n      0x00\n      0x01\n      dup2\n      gt\n      iszero\n      tag_60\n      jumpi\n      tag_61\n      tag_28\n      jump\t// in\n    tag_61:\n    tag_60:\n      dup2\n      mstore\n      0x20\n      add\n      0x00\n      dup2\n      mstore\n      pop\n      swap1\n      jump\t// out\n    tag_59:\n    tag_62:\n      dup1\n      dup3\n      gt\n      iszero\n      tag_63\n      jumpi\n      0x00\n      dup2\n      0x00\n      swap1\n      sstore\n      pop\n      0x01\n      add\n      jump(tag_62)\n    tag_63:\n      pop\n      swap1\n      jump\t// out\n        /* \"#utility.yul\":7:419   */\n    tag_65:\n        /* \"#utility.yul\":85:90   */\n      0x00\n        /* \"#utility.yul\":110:176   */\n      tag_67\n        /* \"#utility.yul\":126:175   */\n      tag_68\n        /* \"#utility.yul\":168:174   */\n      dup5\n        /* \"#utility.yul\":126:175   */\n      tag_69\n      jump\t// in\n    tag_68:\n        /* \"#utility.yul\":110:176   */\n      tag_70\n      jump\t// in\n    tag_67:\n        /* \"#utility.yul\":101:176   */\n      swap1\n      pop\n        /* \"#utility.yul\":199:205   */\n      dup3\n        /* \"#utility.yul\":192:197   */\n      dup2\n        /* \"#utility.yul\":185:206   */\n      mstore\n        /* \"#utility.yul\":237:241   */\n      0x20\n        /* \"#utility.yul\":230:235   */\n      dup2\n        /* \"#utility.yul\":226:242   */\n      add\n        /* \"#utility.yul\":275:278   */\n      dup5\n        /* \"#utility.yul\":266:272   */\n      dup5\n        /* \"#utility.yul\":261:264   */\n      dup5\n        /* \"#utility.yul\":257:273   */\n      add\n        /* \"#utility.yul\":254:279   */\n      gt\n        /* \"#utility.yul\":251:363   */\n      iszero\n      tag_71\n      jumpi\n        /* \"#utility.yul\":282:361   */\n      tag_72\n      tag_73\n      jump\t// in\n    tag_72:\n        /* \"#utility.yul\":251:363   */\n    tag_71:\n        /* \"#utility.yul\":372:413   */\n      tag_74\n        /* \"#utility.yul\":406:412   */\n      dup5\n        /* \"#utility.yul\":401:404   */\n      dup3\n        /* \"#utility.yul\":396:399   */\n      dup6\n        /* \"#utility.yul\":372:413   */\n      tag_75\n      jump\t// in\n    tag_74:\n        /* \"#utility.yul\":91:419   */\n      pop\n        /* \"#utility.yul\":7:419   */\n      swap4\n      swap3\n      pop\n      pop\n      pop\n      jump\t// out\n        /* \"#utility.yul\":425:602   */\n    tag_76:\n        /* \"#utility.yul\":490:495   */\n      0x00\n        /* \"#utility.yul\":528:534   */\n      dup2\n        /* \"#utility.yul\":515:535   */\n      calldataload\n        /* \"#utility.yul\":506:535   */\n      swap1\n      pop\n        /* \"#utility.yul\":544:596   */\n      tag_78\n        /* \"#utility.yul\":590:595   */\n      dup2\n        /* \"#utility.yul\":544:596   */\n      tag_79\n      jump\t// in\n    tag_78:\n        /* \"#utility.yul\":425:602   */\n      swap3\n      swap2\n      pop\n      pop\n      jump\t// out\n        /* \"#utility.yul\":622:962   */\n    tag_80:\n        /* \"#utility.yul\":678:683   */\n      0x00\n        /* \"#utility.yul\":727:730   */\n      dup3\n        /* \"#utility.yul\":720:724   */\n      0x1f\n        /* \"#utility.yul\":712:718   */\n      dup4\n        /* \"#utility.yul\":708:725   */\n      add\n        /* \"#utility.yul\":704:731   */\n      slt\n        /* \"#utility.yul\":694:816   */\n      tag_82\n      jumpi\n        /* \"#utility.yul\":735:814   */\n      tag_83\n      tag_84\n      jump\t// in\n    tag_83:\n        /* \"#utility.yul\":694:816   */\n    tag_82:\n        /* \"#utility.yul\":852:858   */\n      dup2\n        /* \"#utility.yul\":839:859   */\n      calldataload\n        /* \"#utility.yul\":877:956   */\n      tag_85\n        /* \"#utility.yul\":952:955   */\n      dup5\n        /* \"#utility.yul\":944:950   */\n      dup3\n        /* \"#utility.yul\":937:941   */\n      0x20\n        /* \"#utility.yul\":929:935   */\n      dup7\n        /* \"#utility.yul\":925:942   */\n      add\n        /* \"#utility.yul\":877:956   */\n      tag_65\n      jump\t// in\n    tag_85:\n        /* \"#utility.yul\":868:956   */\n      swap2\n      pop\n        /* \"#utility.yul\":684:962   */\n      pop\n        /* \"#utility.yul\":622:962   */\n      swap3\n      swap2\n      pop\n      pop\n      jump\t// out\n        /* \"#utility.yul\":968:1107   */\n    tag_86:\n        /* \"#utility.yul\":1014:1019   */\n      0x00\n        /* \"#utility.yul\":1052:1058   */\n      dup2\n        /* \"#utility.yul\":1039:1059   */\n      calldataload\n        /* \"#utility.yul\":1030:1059   */\n      swap1\n      pop\n        /* \"#utility.yul\":1068:1101   */\n      tag_88\n        /* \"#utility.yul\":1095:1100   */\n      dup2\n        /* \"#utility.yul\":1068:1101   */\n      tag_89\n      jump\t// in\n    tag_88:\n        /* \"#utility.yul\":968:1107   */\n      swap3\n      swap2\n      pop\n      pop\n      jump\t// out\n        /* \"#utility.yul\":1113:1950   */\n    tag_14:\n        /* \"#utility.yul\":1219:1225   */\n      0x00\n        /* \"#utility.yul\":1227:1233   */\n      dup1\n        /* \"#utility.yul\":1235:1241   */\n      0x00\n        /* \"#utility.yul\":1284:1286   */\n      0x60\n        /* \"#utility.yul\":1272:1281   */\n      dup5\n        /* \"#utility.yul\":1263:1270   */\n      dup7\n        /* \"#utility.yul\":1259:1282   */\n      sub\n        /* \"#utility.yul\":1255:1287   */\n      slt\n        /* \"#utility.yul\":1252:1371   */\n      iszero\n      tag_91\n      jumpi\n        /* \"#utility.yul\":1290:1369   */\n      tag_92\n      tag_93\n      jump\t// in\n    tag_92:\n        /* \"#utility.yul\":1252:1371   */\n    tag_91:\n        /* \"#utility.yul\":1438:1439   */\n      0x00\n        /* \"#utility.yul\":1427:1436   */\n      dup5\n        /* \"#utility.yul\":1423:1440   */\n      add\n        /* \"#utility.yul\":1410:1441   */\n      calldataload\n        /* \"#utility.yul\":1468:1486   */\n      0xffffffffffffffff\n        /* \"#utility.yul\":1460:1466   */\n      dup2\n        /* \"#utility.yul\":1457:1487   */\n      gt\n        /* \"#utility.yul\":1454:1571   */\n      iszero\n      tag_94\n      jumpi\n        /* \"#utility.yul\":1490:1569   */\n      tag_95\n      tag_96\n      jump\t// in\n    tag_95:\n        /* \"#utility.yul\":1454:1571   */\n    tag_94:\n        /* \"#utility.yul\":1595:1658   */\n      tag_97\n        /* \"#utility.yul\":1650:1657   */\n      dup7\n        /* \"#utility.yul\":1641:1647   */\n      dup3\n        /* \"#utility.yul\":1630:1639   */\n      dup8\n        /* \"#utility.yul\":1626:1648   */\n      add\n        /* \"#utility.yul\":1595:1658   */\n      tag_80\n      jump\t// in\n    tag_97:\n        /* \"#utility.yul\":1585:1658   */\n      swap4\n      pop\n        /* \"#utility.yul\":1381:1668   */\n      pop\n        /* \"#utility.yul\":1707:1709   */\n      0x20\n        /* \"#utility.yul\":1733:1805   */\n      tag_98\n        /* \"#utility.yul\":1797:1804   */\n      dup7\n        /* \"#utility.yul\":1788:1794   */\n      dup3\n        /* \"#utility.yul\":1777:1786   */\n      dup8\n        /* \"#utility.yul\":1773:1795   */\n      add\n        /* \"#utility.yul\":1733:1805   */\n      tag_76\n      jump\t// in\n    tag_98:\n        /* \"#utility.yul\":1723:1805   */\n      swap3\n      pop\n        /* \"#utility.yul\":1678:1815   */\n      pop\n        /* \"#utility.yul\":1854:1856   */\n      0x40\n        /* \"#utility.yul\":1880:1933   */\n      tag_99\n        /* \"#utility.yul\":1925:1932   */\n      dup7\n        /* \"#utility.yul\":1916:1922   */\n      dup3\n        /* \"#utility.yul\":1905:1914   */\n      dup8\n        /* \"#utility.yul\":1901:1923   */\n      add\n        /* \"#utility.yul\":1880:1933   */\n      tag_86\n      jump\t// in\n    tag_99:\n        /* \"#utility.yul\":1870:1933   */\n      swap2\n      pop\n        /* \"#utility.yul\":1825:1943   */\n      pop\n        /* \"#utility.yul\":1113:1950   */\n      swap3\n      pop\n      swap3\n      pop\n      swap3\n      jump\t// out\n        /* \"#utility.yul\":1956:2285   */\n    tag_19:\n        /* \"#utility.yul\":2015:2021   */\n      0x00\n        /* \"#utility.yul\":2064:2066   */\n      0x20\n        /* \"#utility.yul\":2052:2061   */\n      dup3\n        /* \"#utility.yul\":2043:2050   */\n      dup5\n        /* \"#utility.yul\":2039:2062   */\n      sub\n        /* \"#utility.yul\":2035:2067   */\n      slt\n        /* \"#utility.yul\":2032:2151   */\n      iszero\n      tag_101\n      jumpi\n        /* \"#utility.yul\":2070:2149   */\n      tag_102\n      tag_93\n      jump\t// in\n    tag_102:\n        /* \"#utility.yul\":2032:2151   */\n    tag_101:\n        /* \"#utility.yul\":2190:2191   */\n      0x00\n        /* \"#utility.yul\":2215:2268   */\n      tag_103\n        /* \"#utility.yul\":2260:2267   */\n      dup5\n        /* \"#utility.yul\":2251:2257   */\n      dup3\n        /* \"#utility.yul\":2240:2249   */\n      dup6\n        /* \"#utility.yul\":2236:2258   */\n      add\n        /* \"#utility.yul\":2215:2268   */\n      tag_86\n      jump\t// in\n    tag_103:\n        /* \"#utility.yul\":2205:2268   */\n      swap2\n      pop\n        /* \"#utility.yul\":2161:2278   */\n      pop\n        /* \"#utility.yul\":1956:2285   */\n      swap3\n      swap2\n      pop\n      pop\n      jump\t// out\n        /* \"#utility.yul\":2291:2803   */\n    tag_8:\n        /* \"#utility.yul\":2378:2384   */\n      0x00\n        /* \"#utility.yul\":2386:2392   */\n      dup1\n        /* \"#utility.yul\":2435:2437   */\n      0x40\n        /* \"#utility.yul\":2423:2432   */\n      dup4\n        /* \"#utility.yul\":2414:2421   */\n      dup6\n        /* \"#utility.yul\":2410:2433   */\n      sub\n        /* \"#utility.yul\":2406:2438   */\n      slt\n        /* \"#utility.yul\":2403:2522   */\n      iszero\n      tag_105\n      jumpi\n        /* \"#utility.yul\":2441:2520   */\n      tag_106\n      tag_93\n      jump\t// in\n    tag_106:\n        /* \"#utility.yul\":2403:2522   */\n    tag_105:\n        /* \"#utility.yul\":2561:2562   */\n      0x00\n        /* \"#utility.yul\":2586:2639   */\n      tag_107\n        /* \"#utility.yul\":2631:2638   */\n      dup6\n        /* \"#utility.yul\":2622:2628   */\n      dup3\n        /* \"#utility.yul\":2611:2620   */\n      dup7\n        /* \"#utility.yul\":2607:2629   */\n      add\n        /* \"#utility.yul\":2586:2639   */\n      tag_86\n      jump\t// in\n    tag_107:\n        /* \"#utility.yul\":2576:2639   */\n      swap3\n      pop\n        /* \"#utility.yul\":2532:2649   */\n      pop\n        /* \"#utility.yul\":2688:2690   */\n      0x20\n        /* \"#utility.yul\":2714:2786   */\n      tag_108\n        /* \"#utility.yul\":2778:2785   */\n      dup6\n        /* \"#utility.yul\":2769:2775   */\n      dup3\n        /* \"#utility.yul\":2758:2767   */\n      dup7\n        /* \"#utility.yul\":2754:2776   */\n      add\n        /* \"#utility.yul\":2714:2786   */\n      tag_76\n      jump\t// in\n    tag_108:\n        /* \"#utility.yul\":2704:2786   */\n      swap2\n      pop\n        /* \"#utility.yul\":2659:2796   */\n      pop\n        /* \"#utility.yul\":2291:2803   */\n      swap3\n      pop\n      swap3\n      swap1\n      pop\n      jump\t// out\n        /* \"#utility.yul\":2809:2964   */\n    tag_109:\n        /* \"#utility.yul\":2903:2957   */\n      tag_111\n        /* \"#utility.yul\":2951:2956   */\n      dup2\n        /* \"#utility.yul\":2903:2957   */\n      tag_112\n      jump\t// in\n    tag_111:\n        /* \"#utility.yul\":2898:2901   */\n      dup3\n        /* \"#utility.yul\":2891:2958   */\n      mstore\n        /* \"#utility.yul\":2809:2964   */\n      pop\n      pop\n      jump\t// out\n        /* \"#utility.yul\":2970:3314   */\n    tag_113:\n        /* \"#utility.yul\":3048:3051   */\n      0x00\n        /* \"#utility.yul\":3076:3115   */\n      tag_115\n        /* \"#utility.yul\":3109:3114   */\n      dup3\n        /* \"#utility.yul\":3076:3115   */\n      tag_116\n      jump\t// in\n    tag_115:\n        /* \"#utility.yul\":3131:3192   */\n      tag_117\n        /* \"#utility.yul\":3185:3191   */\n      dup2\n        /* \"#utility.yul\":3180:3183   */\n      dup6\n        /* \"#utility.yul\":3131:3192   */\n      tag_118\n      jump\t// in\n    tag_117:\n        /* \"#utility.yul\":3124:3192   */\n      swap4\n      pop\n        /* \"#utility.yul\":3201:3253   */\n      tag_119\n        /* \"#utility.yul\":3246:3252   */\n      dup2\n        /* \"#utility.yul\":3241:3244   */\n      dup6\n        /* \"#utility.yul\":3234:3238   */\n      0x20\n        /* \"#utility.yul\":3227:3232   */\n      dup7\n        /* \"#utility.yul\":3223:3239   */\n      add\n        /* \"#utility.yul\":3201:3253   */\n      tag_120\n      jump\t// in\n    tag_119:\n        /* \"#utility.yul\":3278:3307   */\n      tag_121\n        /* \"#utility.yul\":3300:3306   */\n      dup2\n        /* \"#utility.yul\":3278:3307   */\n      tag_122\n      jump\t// in\n    tag_121:\n        /* \"#utility.yul\":3273:3276   */\n      dup5\n        /* \"#utility.yul\":3269:3308   */\n      add\n        /* \"#utility.yul\":3262:3308   */\n      swap2\n      pop\n        /* \"#utility.yul\":3052:3314   */\n      pop\n        /* \"#utility.yul\":2970:3314   */\n      swap3\n      swap2\n      pop\n      pop\n      jump\t// out\n        /* \"#utility.yul\":3410:4389   */\n    tag_123:\n        /* \"#utility.yul\":3525:3528   */\n      0x00\n        /* \"#utility.yul\":3561:3565   */\n      0x80\n        /* \"#utility.yul\":3556:3559   */\n      dup4\n        /* \"#utility.yul\":3552:3566   */\n      add\n        /* \"#utility.yul\":3646:3650   */\n      0x00\n        /* \"#utility.yul\":3639:3644   */\n      dup4\n        /* \"#utility.yul\":3635:3651   */\n      add\n        /* \"#utility.yul\":3629:3652   */\n      mload\n        /* \"#utility.yul\":3665:3728   */\n      tag_125\n        /* \"#utility.yul\":3722:3726   */\n      0x00\n        /* \"#utility.yul\":3717:3720   */\n      dup7\n        /* \"#utility.yul\":3713:3727   */\n      add\n        /* \"#utility.yul\":3699:3711   */\n      dup3\n        /* \"#utility.yul\":3665:3728   */\n      tag_126\n      jump\t// in\n    tag_125:\n        /* \"#utility.yul\":3576:3738   */\n      pop\n        /* \"#utility.yul\":3820:3824   */\n      0x20\n        /* \"#utility.yul\":3813:3818   */\n      dup4\n        /* \"#utility.yul\":3809:3825   */\n      add\n        /* \"#utility.yul\":3803:3826   */\n      mload\n        /* \"#utility.yul\":3873:3876   */\n      dup5\n        /* \"#utility.yul\":3867:3871   */\n      dup3\n        /* \"#utility.yul\":3863:3877   */\n      sub\n        /* \"#utility.yul\":3856:3860   */\n      0x20\n        /* \"#utility.yul\":3851:3854   */\n      dup7\n        /* \"#utility.yul\":3847:3861   */\n      add\n        /* \"#utility.yul\":3840:3878   */\n      mstore\n        /* \"#utility.yul\":3899:3972   */\n      tag_127\n        /* \"#utility.yul\":3967:3971   */\n      dup3\n        /* \"#utility.yul\":3953:3965   */\n      dup3\n        /* \"#utility.yul\":3899:3972   */\n      tag_113\n      jump\t// in\n    tag_127:\n        /* \"#utility.yul\":3891:3972   */\n      swap2\n      pop\n        /* \"#utility.yul\":3748:3983   */\n      pop\n        /* \"#utility.yul\":4071:4075   */\n      0x40\n        /* \"#utility.yul\":4064:4069   */\n      dup4\n        /* \"#utility.yul\":4060:4076   */\n      add\n        /* \"#utility.yul\":4054:4077   */\n      mload\n        /* \"#utility.yul\":4090:4170   */\n      tag_128\n        /* \"#utility.yul\":4164:4168   */\n      0x40\n        /* \"#utility.yul\":4159:4162   */\n      dup7\n        /* \"#utility.yul\":4155:4169   */\n      add\n        /* \"#utility.yul\":4141:4153   */\n      dup3\n        /* \"#utility.yul\":4090:4170   */\n      tag_109\n      jump\t// in\n    tag_128:\n        /* \"#utility.yul\":3993:4180   */\n      pop\n        /* \"#utility.yul\":4270:4274   */\n      0x60\n        /* \"#utility.yul\":4263:4268   */\n      dup4\n        /* \"#utility.yul\":4259:4275   */\n      add\n        /* \"#utility.yul\":4253:4276   */\n      mload\n        /* \"#utility.yul\":4289:4352   */\n      tag_129\n        /* \"#utility.yul\":4346:4350   */\n      0x60\n        /* \"#utility.yul\":4341:4344   */\n      dup7\n        /* \"#utility.yul\":4337:4351   */\n      add\n        /* \"#utility.yul\":4323:4335   */\n      dup3\n        /* \"#utility.yul\":4289:4352   */\n      tag_126\n      jump\t// in\n    tag_129:\n        /* \"#utility.yul\":4190:4362   */\n      pop\n        /* \"#utility.yul\":4379:4383   */\n      dup1\n        /* \"#utility.yul\":4372:4383   */\n      swap2\n      pop\n        /* \"#utility.yul\":3530:4389   */\n      pop\n        /* \"#utility.yul\":3410:4389   */\n      swap3\n      swap2\n      pop\n      pop\n      jump\t// out\n        /* \"#utility.yul\":4395:4503   */\n    tag_126:\n        /* \"#utility.yul\":4472:4496   */\n      tag_131\n        /* \"#utility.yul\":4490:4495   */\n      dup2\n        /* \"#utility.yul\":4472:4496   */\n      tag_132\n      jump\t// in\n    tag_131:\n        /* \"#utility.yul\":4467:4470   */\n      dup3\n        /* \"#utility.yul\":4460:4497   */\n      mstore\n        /* \"#utility.yul\":4395:4503   */\n      pop\n      pop\n      jump\t// out\n        /* \"#utility.yul\":4509:4627   */\n    tag_133:\n        /* \"#utility.yul\":4596:4620   */\n      tag_135\n        /* \"#utility.yul\":4614:4619   */\n      dup2\n        /* \"#utility.yul\":4596:4620   */\n      tag_132\n      jump\t// in\n    tag_135:\n        /* \"#utility.yul\":4591:4594   */\n      dup3\n        /* \"#utility.yul\":4584:4621   */\n      mstore\n        /* \"#utility.yul\":4509:4627   */\n      pop\n      pop\n      jump\t// out\n        /* \"#utility.yul\":4633:4998   */\n    tag_22:\n        /* \"#utility.yul\":4772:4776   */\n      0x00\n        /* \"#utility.yul\":4810:4812   */\n      0x20\n        /* \"#utility.yul\":4799:4808   */\n      dup3\n        /* \"#utility.yul\":4795:4813   */\n      add\n        /* \"#utility.yul\":4787:4813   */\n      swap1\n      pop\n        /* \"#utility.yul\":4859:4868   */\n      dup2\n        /* \"#utility.yul\":4853:4857   */\n      dup2\n        /* \"#utility.yul\":4849:4869   */\n      sub\n        /* \"#utility.yul\":4845:4846   */\n      0x00\n        /* \"#utility.yul\":4834:4843   */\n      dup4\n        /* \"#utility.yul\":4830:4847   */\n      add\n        /* \"#utility.yul\":4823:4870   */\n      mstore\n        /* \"#utility.yul\":4887:4991   */\n      tag_137\n        /* \"#utility.yul\":4986:4990   */\n      dup2\n        /* \"#utility.yul\":4977:4983   */\n      dup5\n        /* \"#utility.yul\":4887:4991   */\n      tag_123\n      jump\t// in\n    tag_137:\n        /* \"#utility.yul\":4879:4991   */\n      swap1\n      pop\n        /* \"#utility.yul\":4633:4998   */\n      swap3\n      swap2\n      pop\n      pop\n      jump\t// out\n        /* \"#utility.yul\":5004:5226   */\n    tag_11:\n        /* \"#utility.yul\":5097:5101   */\n      0x00\n        /* \"#utility.yul\":5135:5137   */\n      0x20\n        /* \"#utility.yul\":5124:5133   */\n      dup3\n        /* \"#utility.yul\":5120:5138   */\n      add\n        /* \"#utility.yul\":5112:5138   */\n      swap1\n      pop\n        /* \"#utility.yul\":5148:5219   */\n      tag_139\n        /* \"#utility.yul\":5216:5217   */\n      0x00\n        /* \"#utility.yul\":5205:5214   */\n      dup4\n        /* \"#utility.yul\":5201:5218   */\n      add\n        /* \"#utility.yul\":5192:5198   */\n      dup5\n        /* \"#utility.yul\":5148:5219   */\n      tag_133\n      jump\t// in\n    tag_139:\n        /* \"#utility.yul\":5004:5226   */\n      swap3\n      swap2\n      pop\n      pop\n      jump\t// out\n        /* \"#utility.yul\":5232:5361   */\n    tag_70:\n        /* \"#utility.yul\":5266:5272   */\n      0x00\n        /* \"#utility.yul\":5293:5313   */\n      tag_141\n      tag_142\n      jump\t// in\n    tag_141:\n        /* \"#utility.yul\":5283:5313   */\n      swap1\n      pop\n        /* \"#utility.yul\":5322:5355   */\n      tag_143\n        /* \"#utility.yul\":5350:5354   */\n      dup3\n        /* \"#utility.yul\":5342:5348   */\n      dup3\n        /* \"#utility.yul\":5322:5355   */\n      tag_144\n      jump\t// in\n    tag_143:\n        /* \"#utility.yul\":5232:5361   */\n      swap2\n      swap1\n      pop\n      jump\t// out\n        /* \"#utility.yul\":5367:5442   */\n    tag_142:\n        /* \"#utility.yul\":5400:5406   */\n      0x00\n        /* \"#utility.yul\":5433:5435   */\n      0x40\n        /* \"#utility.yul\":5427:5436   */\n      mload\n        /* \"#utility.yul\":5417:5436   */\n      swap1\n      pop\n        /* \"#utility.yul\":5367:5442   */\n      swap1\n      jump\t// out\n        /* \"#utility.yul\":5448:5756   */\n    tag_69:\n        /* \"#utility.yul\":5510:5514   */\n      0x00\n        /* \"#utility.yul\":5600:5618   */\n      0xffffffffffffffff\n        /* \"#utility.yul\":5592:5598   */\n      dup3\n        /* \"#utility.yul\":5589:5619   */\n      gt\n        /* \"#utility.yul\":5586:5642   */\n      iszero\n      tag_147\n      jumpi\n        /* \"#utility.yul\":5622:5640   */\n      tag_148\n      tag_149\n      jump\t// in\n    tag_148:\n        /* \"#utility.yul\":5586:5642   */\n    tag_147:\n        /* \"#utility.yul\":5660:5689   */\n      tag_150\n        /* \"#utility.yul\":5682:5688   */\n      dup3\n        /* \"#utility.yul\":5660:5689   */\n      tag_122\n      jump\t// in\n    tag_150:\n        /* \"#utility.yul\":5652:5689   */\n      swap1\n      pop\n        /* \"#utility.yul\":5744:5748   */\n      0x20\n        /* \"#utility.yul\":5738:5742   */\n      dup2\n        /* \"#utility.yul\":5734:5749   */\n      add\n        /* \"#utility.yul\":5726:5749   */\n      swap1\n      pop\n        /* \"#utility.yul\":5448:5756   */\n      swap2\n      swap1\n      pop\n      jump\t// out\n        /* \"#utility.yul\":5762:5861   */\n    tag_116:\n        /* \"#utility.yul\":5814:5820   */\n      0x00\n        /* \"#utility.yul\":5848:5853   */\n      dup2\n        /* \"#utility.yul\":5842:5854   */\n      mload\n        /* \"#utility.yul\":5832:5854   */\n      swap1\n      pop\n        /* \"#utility.yul\":5762:5861   */\n      swap2\n      swap1\n      pop\n      jump\t// out\n        /* \"#utility.yul\":5867:6026   */\n    tag_118:\n        /* \"#utility.yul\":5941:5952   */\n      0x00\n        /* \"#utility.yul\":5975:5981   */\n      dup3\n        /* \"#utility.yul\":5970:5973   */\n      dup3\n        /* \"#utility.yul\":5963:5982   */\n      mstore\n        /* \"#utility.yul\":6015:6019   */\n      0x20\n        /* \"#utility.yul\":6010:6013   */\n      dup3\n        /* \"#utility.yul\":6006:6020   */\n      add\n        /* \"#utility.yul\":5991:6020   */\n      swap1\n      pop\n        /* \"#utility.yul\":5867:6026   */\n      swap3\n      swap2\n      pop\n      pop\n      jump\t// out\n        /* \"#utility.yul\":6032:6337   */\n    tag_38:\n        /* \"#utility.yul\":6072:6075   */\n      0x00\n        /* \"#utility.yul\":6091:6111   */\n      tag_154\n        /* \"#utility.yul\":6109:6110   */\n      dup3\n        /* \"#utility.yul\":6091:6111   */\n      tag_132\n      jump\t// in\n    tag_154:\n        /* \"#utility.yul\":6086:6111   */\n      swap2\n      pop\n        /* \"#utility.yul\":6125:6145   */\n      tag_155\n        /* \"#utility.yul\":6143:6144   */\n      dup4\n        /* \"#utility.yul\":6125:6145   */\n      tag_132\n      jump\t// in\n    tag_155:\n        /* \"#utility.yul\":6120:6145   */\n      swap3\n      pop\n        /* \"#utility.yul\":6279:6280   */\n      dup3\n        /* \"#utility.yul\":6211:6277   */\n      0xffffffffffffffffffffffffffffffffffffffffffffffffffffffffffffffff\n        /* \"#utility.yul\":6207:6281   */\n      sub\n        /* \"#utility.yul\":6204:6205   */\n      dup3\n        /* \"#utility.yul\":6201:6282   */\n      gt\n        /* \"#utility.yul\":6198:6305   */\n      iszero\n      tag_156\n      jumpi\n        /* \"#utility.yul\":6285:6303   */\n      tag_157\n      tag_158\n      jump\t// in\n    tag_157:\n        /* \"#utility.yul\":6198:6305   */\n    tag_156:\n        /* \"#utility.yul\":6329:6330   */\n      dup3\n        /* \"#utility.yul\":6326:6327   */\n      dup3\n        /* \"#utility.yul\":6322:6331   */\n      add\n        /* \"#utility.yul\":6315:6331   */\n      swap1\n      pop\n        /* \"#utility.yul\":6032:6337   */\n      swap3\n      swap2\n      pop\n      pop\n      jump\t// out\n        /* \"#utility.yul\":6343:6691   */\n    tag_36:\n        /* \"#utility.yul\":6383:6390   */\n      0x00\n        /* \"#utility.yul\":6406:6426   */\n      tag_160\n        /* \"#utility.yul\":6424:6425   */\n      dup3\n        /* \"#utility.yul\":6406:6426   */\n      tag_132\n      jump\t// in\n    tag_160:\n        /* \"#utility.yul\":6401:6426   */\n      swap2\n      pop\n        /* \"#utility.yul\":6440:6460   */\n      tag_161\n        /* \"#utility.yul\":6458:6459   */\n      dup4\n        /* \"#utility.yul\":6440:6460   */\n      tag_132\n      jump\t// in\n    tag_161:\n        /* \"#utility.yul\":6435:6460   */\n      swap3\n      pop\n        /* \"#utility.yul\":6628:6629   */\n      dup2\n        /* \"#utility.yul\":6560:6626   */\n      0xffffffffffffffffffffffffffffffffffffffffffffffffffffffffffffffff\n        /* \"#utility.yul\":6556:6630   */\n      div\n        /* \"#utility.yul\":6553:6554   */\n      dup4\n        /* \"#utility.yul\":6550:6631   */\n      gt\n        /* \"#utility.yul\":6545:6546   */\n      dup3\n        /* \"#utility.yul\":6538:6547   */\n      iszero\n        /* \"#utility.yul\":6531:6548   */\n      iszero\n        /* \"#utility.yul\":6527:6632   */\n      and\n        /* \"#utility.yul\":6524:6655   */\n      iszero\n      tag_162\n      jumpi\n        /* \"#utility.yul\":6635:6653   */\n      tag_163\n      tag_158\n      jump\t// in\n    tag_163:\n        /* \"#utility.yul\":6524:6655   */\n    tag_162:\n        /* \"#utility.yul\":6683:6684   */\n      dup3\n        /* \"#utility.yul\":6680:6681   */\n      dup3\n        /* \"#utility.yul\":6676:6685   */\n      mul\n        /* \"#utility.yul\":6665:6685   */\n      swap1\n      pop\n        /* \"#utility.yul\":6343:6691   */\n      swap3\n      swap2\n      pop\n      pop\n      jump\t// out\n        /* \"#utility.yul\":6697:6846   */\n    tag_164:\n        /* \"#utility.yul\":6753:6760   */\n      0x00\n        /* \"#utility.yul\":6782:6787   */\n      dup2\n        /* \"#utility.yul\":6771:6787   */\n      swap1\n      pop\n        /* \"#utility.yul\":6788:6840   */\n      tag_166\n        /* \"#utility.yul\":6834:6839   */\n      dup3\n        /* \"#utility.yul\":6788:6840   */\n      tag_167\n      jump\t// in\n    tag_166:\n        /* \"#utility.yul\":6697:6846   */\n      swap2\n      swap1\n      pop\n      jump\t// out\n        /* \"#utility.yul\":6852:6929   */\n    tag_132:\n        /* \"#utility.yul\":6889:6896   */\n      0x00\n        /* \"#utility.yul\":6918:6923   */\n      dup2\n        /* \"#utility.yul\":6907:6923   */\n      swap1\n      pop\n        /* \"#utility.yul\":6852:6929   */\n      swap2\n      swap1\n      pop\n      jump\t// out\n        /* \"#utility.yul\":6935:7084   */\n    tag_112:\n        /* \"#utility.yul\":7002:7011   */\n      0x00\n        /* \"#utility.yul\":7035:7078   */\n      tag_170\n        /* \"#utility.yul\":7072:7077   */\n      dup3\n        /* \"#utility.yul\":7035:7078   */\n      tag_164\n      jump\t// in\n    tag_170:\n        /* \"#utility.yul\":7022:7078   */\n      swap1\n      pop\n        /* \"#utility.yul\":6935:7084   */\n      swap2\n      swap1\n      pop\n      jump\t// out\n        /* \"#utility.yul\":7090:7244   */\n    tag_75:\n        /* \"#utility.yul\":7174:7180   */\n      dup3\n        /* \"#utility.yul\":7169:7172   */\n      dup2\n        /* \"#utility.yul\":7164:7167   */\n      dup4\n        /* \"#utility.yul\":7151:7181   */\n      calldatacopy\n        /* \"#utility.yul\":7236:7237   */\n      0x00\n        /* \"#utility.yul\":7227:7233   */\n      dup4\n        /* \"#utility.yul\":7222:7225   */\n      dup4\n        /* \"#utility.yul\":7218:7234   */\n      add\n        /* \"#utility.yul\":7211:7238   */\n      mstore\n        /* \"#utility.yul\":7090:7244   */\n      pop\n      pop\n      pop\n      jump\t// out\n        /* \"#utility.yul\":7250:7557   */\n    tag_120:\n        /* \"#utility.yul\":7318:7319   */\n      0x00\n        /* \"#utility.yul\":7328:7441   */\n    tag_173:\n        /* \"#utility.yul\":7342:7348   */\n      dup4\n        /* \"#utility.yul\":7339:7340   */\n      dup2\n        /* \"#utility.yul\":7336:7349   */\n      lt\n        /* \"#utility.yul\":7328:7441   */\n      iszero\n      tag_175\n      jumpi\n        /* \"#utility.yul\":7427:7428   */\n      dup1\n        /* \"#utility.yul\":7422:7425   */\n      dup3\n        /* \"#utility.yul\":7418:7429   */\n      add\n        /* \"#utility.yul\":7412:7430   */\n      mload\n        /* \"#utility.yul\":7408:7409   */\n      dup2\n        /* \"#utility.yul\":7403:7406   */\n      dup5\n        /* \"#utility.yul\":7399:7410   */\n      add\n        /* \"#utility.yul\":7392:7431   */\n      mstore\n        /* \"#utility.yul\":7364:7366   */\n      0x20\n        /* \"#utility.yul\":7361:7362   */\n      dup2\n        /* \"#utility.yul\":7357:7367   */\n      add\n        /* \"#utility.yul\":7352:7367   */\n      swap1\n      pop\n        /* \"#utility.yul\":7328:7441   */\n      jump(tag_173)\n    tag_175:\n        /* \"#utility.yul\":7459:7465   */\n      dup4\n        /* \"#utility.yul\":7456:7457   */\n      dup2\n        /* \"#utility.yul\":7453:7466   */\n      gt\n        /* \"#utility.yul\":7450:7551   */\n      iszero\n      tag_176\n      jumpi\n        /* \"#utility.yul\":7539:7540   */\n      0x00\n        /* \"#utility.yul\":7530:7536   */\n      dup5\n        /* \"#utility.yul\":7525:7528   */\n      dup5\n        /* \"#utility.yul\":7521:7537   */\n      add\n        /* \"#utility.yul\":7514:7541   */\n      mstore\n        /* \"#utility.yul\":7450:7551   */\n    tag_176:\n        /* \"#utility.yul\":7299:7557   */\n      pop\n        /* \"#utility.yul\":7250:7557   */\n      pop\n      pop\n      pop\n      jump\t// out\n        /* \"#utility.yul\":7563:7883   */\n    tag_43:\n        /* \"#utility.yul\":7607:7613   */\n      0x00\n        /* \"#utility.yul\":7644:7645   */\n      0x02\n        /* \"#utility.yul\":7638:7642   */\n      dup3\n        /* \"#utility.yul\":7634:7646   */\n      div\n        /* \"#utility.yul\":7624:7646   */\n      swap1\n      pop\n        /* \"#utility.yul\":7691:7692   */\n      0x01\n        /* \"#utility.yul\":7685:7689   */\n      dup3\n        /* \"#utility.yul\":7681:7693   */\n      and\n        /* \"#utility.yul\":7712:7730   */\n      dup1\n        /* \"#utility.yul\":7702:7783   */\n      tag_178\n      jumpi\n        /* \"#utility.yul\":7768:7772   */\n      0x7f\n        /* \"#utility.yul\":7760:7766   */\n      dup3\n        /* \"#utility.yul\":7756:7773   */\n      and\n        /* \"#utility.yul\":7746:7773   */\n      swap2\n      pop\n        /* \"#utility.yul\":7702:7783   */\n    tag_178:\n        /* \"#utility.yul\":7830:7832   */\n      0x20\n        /* \"#utility.yul\":7822:7828   */\n      dup3\n        /* \"#utility.yul\":7819:7833   */\n      lt\n        /* \"#utility.yul\":7799:7817   */\n      dup2\n        /* \"#utility.yul\":7796:7834   */\n      eq\n        /* \"#utility.yul\":7793:7877   */\n      iszero\n      tag_179\n      jumpi\n        /* \"#utility.yul\":7849:7867   */\n      tag_180\n      tag_181\n      jump\t// in\n    tag_180:\n        /* \"#utility.yul\":7793:7877   */\n    tag_179:\n        /* \"#utility.yul\":7614:7883   */\n      pop\n        /* \"#utility.yul\":7563:7883   */\n      swap2\n      swap1\n      pop\n      jump\t// out\n        /* \"#utility.yul\":7889:8170   */\n    tag_144:\n        /* \"#utility.yul\":7972:7999   */\n      tag_183\n        /* \"#utility.yul\":7994:7998   */\n      dup3\n        /* \"#utility.yul\":7972:7999   */\n      tag_122\n      jump\t// in\n    tag_183:\n        /* \"#utility.yul\":7964:7970   */\n      dup2\n        /* \"#utility.yul\":7960:8000   */\n      add\n        /* \"#utility.yul\":8102:8108   */\n      dup2\n        /* \"#utility.yul\":8090:8100   */\n      dup2\n        /* \"#utility.yul\":8087:8109   */\n      lt\n        /* \"#utility.yul\":8066:8084   */\n      0xffffffffffffffff\n        /* \"#utility.yul\":8054:8064   */\n      dup3\n        /* \"#utility.yul\":8051:8085   */\n      gt\n        /* \"#utility.yul\":8048:8110   */\n      or\n        /* \"#utility.yul\":8045:8133   */\n      iszero\n      tag_184\n      jumpi\n        /* \"#utility.yul\":8113:8131   */\n      tag_185\n      tag_149\n      jump\t// in\n    tag_185:\n        /* \"#utility.yul\":8045:8133   */\n    tag_184:\n        /* \"#utility.yul\":8153:8163   */\n      dup1\n        /* \"#utility.yul\":8149:8151   */\n      0x40\n        /* \"#utility.yul\":8142:8164   */\n      mstore\n        /* \"#utility.yul\":7932:8170   */\n      pop\n        /* \"#utility.yul\":7889:8170   */\n      pop\n      pop\n      jump\t// out\n        /* \"#utility.yul\":8176:8409   */\n    tag_25:\n        /* \"#utility.yul\":8215:8218   */\n      0x00\n        /* \"#utility.yul\":8238:8262   */\n      tag_187\n        /* \"#utility.yul\":8256:8261   */\n      dup3\n        /* \"#utility.yul\":8238:8262   */\n      tag_132\n      jump\t// in\n    tag_187:\n        /* \"#utility.yul\":8229:8262   */\n      swap2\n      pop\n        /* \"#utility.yul\":8284:8350   */\n      0xffffffffffffffffffffffffffffffffffffffffffffffffffffffffffffffff\n        /* \"#utility.yul\":8277:8282   */\n      dup3\n        /* \"#utility.yul\":8274:8351   */\n      eq\n        /* \"#utility.yul\":8271:8374   */\n      iszero\n      tag_188\n      jumpi\n        /* \"#utility.yul\":8354:8372   */\n      tag_189\n      tag_158\n      jump\t// in\n    tag_189:\n        /* \"#utility.yul\":8271:8374   */\n    tag_188:\n        /* \"#utility.yul\":8401:8402   */\n      0x01\n        /* \"#utility.yul\":8394:8399   */\n      dup3\n        /* \"#utility.yul\":8390:8403   */\n      add\n        /* \"#utility.yul\":8383:8403   */\n      swap1\n      pop\n        /* \"#utility.yul\":8176:8409   */\n      swap2\n      swap1\n      pop\n      jump\t// out\n        /* \"#utility.yul\":8415:8595   */\n    tag_158:\n        /* \"#utility.yul\":8463:8540   */\n      0x4e487b7100000000000000000000000000000000000000000000000000000000\n        /* \"#utility.yul\":8460:8461   */\n      0x00\n        /* \"#utility.yul\":8453:8541   */\n      mstore\n        /* \"#utility.yul\":8560:8564   */\n      0x11\n        /* \"#utility.yul\":8557:8558   */\n      0x04\n        /* \"#utility.yul\":8550:8565   */\n      mstore\n        /* \"#utility.yul\":8584:8588   */\n      0x24\n        /* \"#utility.yul\":8581:8582   */\n      0x00\n        /* \"#utility.yul\":8574:8589   */\n      revert\n        /* \"#utility.yul\":8601:8781   */\n    tag_28:\n        /* \"#utility.yul\":8649:8726   */\n      0x4e487b7100000000000000000000000000000000000000000000000000000000\n        /* \"#utility.yul\":8646:8647   */\n      0x00\n        /* \"#utility.yul\":8639:8727   */\n      mstore\n        /* \"#utility.yul\":8746:8750   */\n      0x21\n        /* \"#utility.yul\":8743:8744   */\n      0x04\n        /* \"#utility.yul\":8736:8751   */\n      mstore\n        /* \"#utility.yul\":8770:8774   */\n      0x24\n        /* \"#utility.yul\":8767:8768   */\n      0x00\n        /* \"#utility.yul\":8760:8775   */\n      revert\n        /* \"#utility.yul\":8787:8967   */\n    tag_181:\n        /* \"#utility.yul\":8835:8912   */\n      0x4e487b7100000000000000000000000000000000000000000000000000000000\n        /* \"#utility.yul\":8832:8833   */\n      0x00\n        /* \"#utility.yul\":8825:8913   */\n      mstore\n        /* \"#utility.yul\":8932:8936   */\n      0x22\n        /* \"#utility.yul\":8929:8930   */\n      0x04\n        /* \"#utility.yul\":8922:8937   */\n      mstore\n        /* \"#utility.yul\":8956:8960   */\n      0x24\n        /* \"#utility.yul\":8953:8954   */\n      0x00\n        /* \"#utility.yul\":8946:8961   */\n      revert\n        /* \"#utility.yul\":8973:9153   */\n    tag_149:\n        /* \"#utility.yul\":9021:9098   */\n      0x4e487b7100000000000000000000000000000000000000000000000000000000\n        /* \"#utility.yul\":9018:9019   */\n      0x00\n        /* \"#utility.yul\":9011:9099   */\n      mstore\n        /* \"#utility.yul\":9118:9122   */\n      0x41\n        /* \"#utility.yul\":9115:9116   */\n      0x04\n        /* \"#utility.yul\":9108:9123   */\n      mstore\n        /* \"#utility.yul\":9142:9146   */\n      0x24\n        /* \"#utility.yul\":9139:9140   */\n      0x00\n        /* \"#utility.yul\":9132:9147   */\n      revert\n        /* \"#utility.yul\":9159:9276   */\n    tag_84:\n        /* \"#utility.yul\":9268:9269   */\n      0x00\n        /* \"#utility.yul\":9265:9266   */\n      dup1\n        /* \"#utility.yul\":9258:9270   */\n      revert\n        /* \"#utility.yul\":9282:9399   */\n    tag_73:\n        /* \"#utility.yul\":9391:9392   */\n      0x00\n        /* \"#utility.yul\":9388:9389   */\n      dup1\n        /* \"#utility.yul\":9381:9393   */\n      revert\n        /* \"#utility.yul\":9405:9522   */\n    tag_96:\n        /* \"#utility.yul\":9514:9515   */\n      0x00\n        /* \"#utility.yul\":9511:9512   */\n      dup1\n        /* \"#utility.yul\":9504:9516   */\n      revert\n        /* \"#utility.yul\":9528:9645   */\n    tag_93:\n        /* \"#utility.yul\":9637:9638   */\n      0x00\n        /* \"#utility.yul\":9634:9635   */\n      dup1\n        /* \"#utility.yul\":9627:9639   */\n      revert\n        /* \"#utility.yul\":9651:9753   */\n    tag_122:\n        /* \"#utility.yul\":9692:9698   */\n      0x00\n        /* \"#utility.yul\":9743:9745   */\n      0x1f\n        /* \"#utility.yul\":9739:9746   */\n      not\n        /* \"#utility.yul\":9734:9736   */\n      0x1f\n        /* \"#utility.yul\":9727:9732   */\n      dup4\n        /* \"#utility.yul\":9723:9737   */\n      add\n        /* \"#utility.yul\":9719:9747   */\n      and\n        /* \"#utility.yul\":9709:9747   */\n      swap1\n      pop\n        /* \"#utility.yul\":9651:9753   */\n      swap2\n      swap1\n      pop\n      jump\t// out\n        /* \"#utility.yul\":9759:9883   */\n    tag_167:\n        /* \"#utility.yul\":9851:9852   */\n      0x02\n        /* \"#utility.yul\":9844:9849   */\n      dup2\n        /* \"#utility.yul\":9841:9853   */\n      lt\n        /* \"#utility.yul\":9831:9877   */\n      tag_200\n      jumpi\n        /* \"#utility.yul\":9857:9875   */\n      tag_201\n      tag_28\n      jump\t// in\n    tag_201:\n        /* \"#utility.yul\":9831:9877   */\n    tag_200:\n        /* \"#utility.yul\":9759:9883   */\n      pop\n      jump\t// out\n        /* \"#utility.yul\":9889:10007   */\n    tag_79:\n        /* \"#utility.yul\":9981:9982   */\n      0x02\n        /* \"#utility.yul\":9974:9979   */\n      dup2\n        /* \"#utility.yul\":9971:9983   */\n      lt\n        /* \"#utility.yul\":9961:10001   */\n      tag_203\n      jumpi\n        /* \"#utility.yul\":9997:9998   */\n      0x00\n        /* \"#utility.yul\":9994:9995   */\n      dup1\n        /* \"#utility.yul\":9987:9999   */\n      revert\n        /* \"#utility.yul\":9961:10001   */\n    tag_203:\n        /* \"#utility.yul\":9889:10007   */\n      pop\n      jump\t// out\n        /* \"#utility.yul\":10013:10135   */\n    tag_89:\n        /* \"#utility.yul\":10086:10110   */\n      tag_205\n        /* \"#utility.yul\":10104:10109   */\n      dup2\n        /* \"#utility.yul\":10086:10110   */\n      tag_132\n      jump\t// in\n    tag_205:\n        /* \"#utility.yul\":10079:10084   */\n      dup2\n        /* \"#utility.yul\":10076:10111   */\n      eq\n        /* \"#utility.yul\":10066:10129   */\n      tag_206\n      jumpi\n        /* \"#utility.yul\":10125:10126   */\n      0x00\n        /* \"#utility.yul\":10122:10123   */\n      dup1\n        /* \"#utility.yul\":10115:10127   */\n      revert\n        /* \"#utility.yul\":10066:10129   */\n    tag_206:\n        /* \"#utility.yul\":10013:10135   */\n      pop\n      jump\t// out\n\n    auxdata: 0xa2646970667358221220829b3f58918fa2849d7353c204a7d54801827a8f6a28f44c187b6e3aee9a212364736f6c63430008070033\n}\n",
				"bytecode": {
					"linkReferences": {},
					"object": "60806040523480156200001157600080fd5b506200005d6040518060400160405280600381526020017f546f6d0000000000000000000000000000000000000000000000000000000000815250600161012c6200006460201b60201c565b50620003a1565b60008060008154809291906200007a90620002c6565b919050559050600060016000838152602001908152602001600020905081816000018190555084816001019080519060200190620000ba92919062000118565b50838160020160006101000a81548160ff02191690836001811115620000e557620000e462000343565b5b02179055506201518083620000fb919062000225565b42620001089190620001c8565b8160030181905550509392505050565b828054620001269062000290565b90600052602060002090601f0160209004810192826200014a576000855562000196565b82601f106200016557805160ff191683800117855562000196565b8280016001018555821562000196579182015b828111156200019557825182559160200191906001019062000178565b5b509050620001a59190620001a9565b5090565b5b80821115620001c4576000816000905550600101620001aa565b5090565b6000620001d58262000286565b9150620001e28362000286565b9250827fffffffffffffffffffffffffffffffffffffffffffffffffffffffffffffffff038211156200021a576200021962000314565b5b828201905092915050565b6000620002328262000286565b91506200023f8362000286565b9250817fffffffffffffffffffffffffffffffffffffffffffffffffffffffffffffffff04831182151516156200027b576200027a62000314565b5b828202905092915050565b6000819050919050565b60006002820490506001821680620002a957607f821691505b60208210811415620002c057620002bf62000372565b5b50919050565b6000620002d38262000286565b91507fffffffffffffffffffffffffffffffffffffffffffffffffffffffffffffffff82141562000309576200030862000314565b5b600182019050919050565b7f4e487b7100000000000000000000000000000000000000000000000000000000600052601160045260246000fd5b7f4e487b7100000000000000000000000000000000000000000000000000000000600052602160045260246000fd5b7f4e487b7100000000000000000000000000000000000000000000000000000000600052602260045260246000fd5b610a1480620003b16000396000f3fe608060405234801561001057600080fd5b50600436106100415760003560e01c806368a87ab614610046578063bf28fa9614610076578063d0068f80146100a6575b600080fd5b610060600480360381019061005b919061053d565b6100d6565b60405161006d9190610668565b60405180910390f35b610090600480360381019061008b91906104a1565b610173565b60405161009d9190610668565b60405180910390f35b6100c060048036038101906100bb9190610510565b61021c565b6040516100cd9190610646565b60405180910390f35b6000600260008154809291906100eb90610879565b9190505590506000600360008381526020019081526020016000209050818160000181905550838160010181905550828160020160006101000a81548160ff02191690836001811115610141576101406108f1565b5b021790555060008160020160016101000a81548160ff0219169083151502179055504281600301819055505092915050565b600080600081548092919061018790610879565b9190505590506000600160008381526020019081526020016000209050818160000181905550848160010190805190602001906101c592919061032a565b50838160020160006101000a81548160ff021916908360018111156101ed576101ec6108f1565b5b02179055506201518083610201919061074b565b4261020c91906106f5565b8160030181905550509392505050565b6102246103b0565b600160008381526020019081526020016000206040518060800160405290816000820154815260200160018201805461025c90610816565b80601f016020809104026020016040519081016040528092919081815260200182805461028890610816565b80156102d55780601f106102aa576101008083540402835291602001916102d5565b820191906000526020600020905b8154815290600101906020018083116102b857829003601f168201915b505050505081526020016002820160009054906101000a900460ff166001811115610303576103026108f1565b5b6001811115610315576103146108f1565b5b81526020016003820154815250509050919050565b82805461033690610816565b90600052602060002090601f016020900481019282610358576000855561039f565b82601f1061037157805160ff191683800117855561039f565b8280016001018555821561039f579182015b8281111561039e578251825591602001919060010190610383565b5b5090506103ac91906103ea565b5090565b60405180608001604052806000815260200160608152602001600060018111156103dd576103dc6108f1565b5b8152602001600081525090565b5b808211156104035760008160009055506001016103eb565b5090565b600061041a610415846106a8565b610683565b90508281526020810184848401111561043657610435610983565b5b6104418482856107d4565b509392505050565b600081359050610458816109b7565b92915050565b600082601f8301126104735761047261097e565b5b8135610483848260208601610407565b91505092915050565b60008135905061049b816109c7565b92915050565b6000806000606084860312156104ba576104b961098d565b5b600084013567ffffffffffffffff8111156104d8576104d7610988565b5b6104e48682870161045e565b93505060206104f586828701610449565b92505060406105068682870161048c565b9150509250925092565b6000602082840312156105265761052561098d565b5b60006105348482850161048c565b91505092915050565b600080604083850312156105545761055361098d565b5b60006105628582860161048c565b925050602061057385828601610449565b9150509250929050565b610586816107c2565b82525050565b6000610597826106d9565b6105a181856106e4565b93506105b18185602086016107e3565b6105ba81610992565b840191505092915050565b60006080830160008301516105dd6000860182610628565b50602083015184820360208601526105f5828261058c565b915050604083015161060a604086018261057d565b50606083015161061d6060860182610628565b508091505092915050565b610631816107b8565b82525050565b610640816107b8565b82525050565b6000602082019050818103600083015261066081846105c5565b905092915050565b600060208201905061067d6000830184610637565b92915050565b600061068d61069e565b90506106998282610848565b919050565b6000604051905090565b600067ffffffffffffffff8211156106c3576106c261094f565b5b6106cc82610992565b9050602081019050919050565b600081519050919050565b600082825260208201905092915050565b6000610700826107b8565b915061070b836107b8565b9250827fffffffffffffffffffffffffffffffffffffffffffffffffffffffffffffffff038211156107405761073f6108c2565b5b828201905092915050565b6000610756826107b8565b9150610761836107b8565b9250817fffffffffffffffffffffffffffffffffffffffffffffffffffffffffffffffff048311821515161561079a576107996108c2565b5b828202905092915050565b60008190506107b3826109a3565b919050565b6000819050919050565b60006107cd826107a5565b9050919050565b82818337600083830152505050565b60005b838110156108015780820151818401526020810190506107e6565b83811115610810576000848401525b50505050565b6000600282049050600182168061082e57607f821691505b6020821081141561084257610841610920565b5b50919050565b61085182610992565b810181811067ffffffffffffffff821117156108705761086f61094f565b5b80604052505050565b6000610884826107b8565b91507fffffffffffffffffffffffffffffffffffffffffffffffffffffffffffffffff8214156108b7576108b66108c2565b5b600182019050919050565b7f4e487b7100000000000000000000000000000000000000000000000000000000600052601160045260246000fd5b7f4e487b7100000000000000000000000000000000000000000000000000000000600052602160045260246000fd5b7f4e487b7100000000000000000000000000000000000000000000000000000000600052602260045260246000fd5b7f4e487b7100000000000000000000000000000000000000000000000000000000600052604160045260246000fd5b600080fd5b600080fd5b600080fd5b600080fd5b6000601f19601f8301169050919050565b600281106109b4576109b36108f1565b5b50565b600281106109c457600080fd5b50565b6109d0816107b8565b81146109db57600080fd5b5056fea2646970667358221220829b3f58918fa2849d7353c204a7d54801827a8f6a28f44c187b6e3aee9a212364736f6c63430008070033",
					"opcodes": "PUSH1 0x80 PUSH1 0x40 MSTORE CALLVALUE DUP1 ISZERO PUSH3 0x11 JUMPI PUSH1 0x0 DUP1 REVERT JUMPDEST POP PUSH3 0x5D PUSH1 0x40 MLOAD DUP1 PUSH1 0x40 ADD PUSH1 0x40 MSTORE DUP1 PUSH1 0x3 DUP2 MSTORE PUSH1 0x20 ADD PUSH32 0x546F6D0000000000000000000000000000000000000000000000000000000000 DUP2 MSTORE POP PUSH1 0x1 PUSH2 0x12C PUSH3 0x64 PUSH1 0x20 SHL PUSH1 0x20 SHR JUMP JUMPDEST POP PUSH3 0x3A1 JUMP JUMPDEST PUSH1 0x0 DUP1 PUSH1 0x0 DUP2 SLOAD DUP1 SWAP3 SWAP2 SWAP1 PUSH3 0x7A SWAP1 PUSH3 0x2C6 JUMP JUMPDEST SWAP2 SWAP1 POP SSTORE SWAP1 POP PUSH1 0x0 PUSH1 0x1 PUSH1 0x0 DUP4 DUP2 MSTORE PUSH1 0x20 ADD SWAP1 DUP2 MSTORE PUSH1 0x20 ADD PUSH1 0x0 KECCAK256 SWAP1 POP DUP2 DUP2 PUSH1 0x0 ADD DUP2 SWAP1 SSTORE POP DUP5 DUP2 PUSH1 0x1 ADD SWAP1 DUP1 MLOAD SWAP1 PUSH1 0x20 ADD SWAP1 PUSH3 0xBA SWAP3 SWAP2 SWAP1 PUSH3 0x118 JUMP JUMPDEST POP DUP4 DUP2 PUSH1 0x2 ADD PUSH1 0x0 PUSH2 0x100 EXP DUP2 SLOAD DUP2 PUSH1 0xFF MUL NOT AND SWAP1 DUP4 PUSH1 0x1 DUP2 GT ISZERO PUSH3 0xE5 JUMPI PUSH3 0xE4 PUSH3 0x343 JUMP JUMPDEST JUMPDEST MUL OR SWAP1 SSTORE POP PUSH3 0x15180 DUP4 PUSH3 0xFB SWAP2 SWAP1 PUSH3 0x225 JUMP JUMPDEST TIMESTAMP PUSH3 0x108 SWAP2 SWAP1 PUSH3 0x1C8 JUMP JUMPDEST DUP2 PUSH1 0x3 ADD DUP2 SWAP1 SSTORE POP POP SWAP4 SWAP3 POP POP POP JUMP JUMPDEST DUP3 DUP1 SLOAD PUSH3 0x126 SWAP1 PUSH3 0x290 JUMP JUMPDEST SWAP1 PUSH1 0x0 MSTORE PUSH1 0x20 PUSH1 0x0 KECCAK256 SWAP1 PUSH1 0x1F ADD PUSH1 0x20 SWAP1 DIV DUP2 ADD SWAP3 DUP3 PUSH3 0x14A JUMPI PUSH1 0x0 DUP6 SSTORE PUSH3 0x196 JUMP JUMPDEST DUP3 PUSH1 0x1F LT PUSH3 0x165 JUMPI DUP1 MLOAD PUSH1 0xFF NOT AND DUP4 DUP1 ADD OR DUP6 SSTORE PUSH3 0x196 JUMP JUMPDEST DUP3 DUP1 ADD PUSH1 0x1 ADD DUP6 SSTORE DUP3 ISZERO PUSH3 0x196 JUMPI SWAP2 DUP3 ADD JUMPDEST DUP3 DUP2 GT ISZERO PUSH3 0x195 JUMPI DUP3 MLOAD DUP3 SSTORE SWAP2 PUSH1 0x20 ADD SWAP2 SWAP1 PUSH1 0x1 ADD SWAP1 PUSH3 0x178 JUMP JUMPDEST JUMPDEST POP SWAP1 POP PUSH3 0x1A5 SWAP2 SWAP1 PUSH3 0x1A9 JUMP JUMPDEST POP SWAP1 JUMP JUMPDEST JUMPDEST DUP1 DUP3 GT ISZERO PUSH3 0x1C4 JUMPI PUSH1 0x0 DUP2 PUSH1 0x0 SWAP1 SSTORE POP PUSH1 0x1 ADD PUSH3 0x1AA JUMP JUMPDEST POP SWAP1 JUMP JUMPDEST PUSH1 0x0 PUSH3 0x1D5 DUP3 PUSH3 0x286 JUMP JUMPDEST SWAP2 POP PUSH3 0x1E2 DUP4 PUSH3 0x286 JUMP JUMPDEST SWAP3 POP DUP3 PUSH32 0xFFFFFFFFFFFFFFFFFFFFFFFFFFFFFFFFFFFFFFFFFFFFFFFFFFFFFFFFFFFFFFFF SUB DUP3 GT ISZERO PUSH3 0x21A JUMPI PUSH3 0x219 PUSH3 0x314 JUMP JUMPDEST JUMPDEST DUP3 DUP3 ADD SWAP1 POP SWAP3 SWAP2 POP POP JUMP JUMPDEST PUSH1 0x0 PUSH3 0x232 DUP3 PUSH3 0x286 JUMP JUMPDEST SWAP2 POP PUSH3 0x23F DUP4 PUSH3 0x286 JUMP JUMPDEST SWAP3 POP DUP2 PUSH32 0xFFFFFFFFFFFFFFFFFFFFFFFFFFFFFFFFFFFFFFFFFFFFFFFFFFFFFFFFFFFFFFFF DIV DUP4 GT DUP3 ISZERO ISZERO AND ISZERO PUSH3 0x27B JUMPI PUSH3 0x27A PUSH3 0x314 JUMP JUMPDEST JUMPDEST DUP3 DUP3 MUL SWAP1 POP SWAP3 SWAP2 POP POP JUMP JUMPDEST PUSH1 0x0 DUP2 SWAP1 POP SWAP2 SWAP1 POP JUMP JUMPDEST PUSH1 0x0 PUSH1 0x2 DUP3 DIV SWAP1 POP PUSH1 0x1 DUP3 AND DUP1 PUSH3 0x2A9 JUMPI PUSH1 0x7F DUP3 AND SWAP2 POP JUMPDEST PUSH1 0x20 DUP3 LT DUP2 EQ ISZERO PUSH3 0x2C0 JUMPI PUSH3 0x2BF PUSH3 0x372 JUMP JUMPDEST JUMPDEST POP SWAP2 SWAP1 POP JUMP JUMPDEST PUSH1 0x0 PUSH3 0x2D3 DUP3 PUSH3 0x286 JUMP JUMPDEST SWAP2 POP PUSH32 0xFFFFFFFFFFFFFFFFFFFFFFFFFFFFFFFFFFFFFFFFFFFFFFFFFFFFFFFFFFFFFFFF DUP3 EQ ISZERO PUSH3 0x309 JUMPI PUSH3 0x308 PUSH3 0x314 JUMP JUMPDEST JUMPDEST PUSH1 0x1 DUP3 ADD SWAP1 POP SWAP2 SWAP1 POP JUMP JUMPDEST PUSH32 0x4E487B7100000000000000000000000000000000000000000000000000000000 PUSH1 0x0 MSTORE PUSH1 0x11 PUSH1 0x4 MSTORE PUSH1 0x24 PUSH1 0x0 REVERT JUMPDEST PUSH32 0x4E487B7100000000000000000000000000000000000000000000000000000000 PUSH1 0x0 MSTORE PUSH1 0x21 PUSH1 0x4 MSTORE PUSH1 0x24 PUSH1 0x0 REVERT JUMPDEST PUSH32 0x4E487B7100000000000000000000000000000000000000000000000000000000 PUSH1 0x0 MSTORE PUSH1 0x22 PUSH1 0x4 MSTORE PUSH1 0x24 PUSH1 0x0 REVERT JUMPDEST PUSH2 0xA14 DUP1 PUSH3 0x3B1 PUSH1 0x0 CODECOPY PUSH1 0x0 RETURN INVALID PUSH1 0x80 PUSH1 0x40 MSTORE CALLVALUE DUP1 ISZERO PUSH2 0x10 JUMPI PUSH1 0x0 DUP1 REVERT JUMPDEST POP PUSH1 0x4 CALLDATASIZE LT PUSH2 0x41 JUMPI PUSH1 0x0 CALLDATALOAD PUSH1 0xE0 SHR DUP1 PUSH4 0x68A87AB6 EQ PUSH2 0x46 JUMPI DUP1 PUSH4 0xBF28FA96 EQ PUSH2 0x76 JUMPI DUP1 PUSH4 0xD0068F80 EQ PUSH2 0xA6 JUMPI JUMPDEST PUSH1 0x0 DUP1 REVERT JUMPDEST PUSH2 0x60 PUSH1 0x4 DUP1 CALLDATASIZE SUB DUP2 ADD SWAP1 PUSH2 0x5B SWAP2 SWAP1 PUSH2 0x53D JUMP JUMPDEST PUSH2 0xD6 JUMP JUMPDEST PUSH1 0x40 MLOAD PUSH2 0x6D SWAP2 SWAP1 PUSH2 0x668 JUMP JUMPDEST PUSH1 0x40 MLOAD DUP1 SWAP2 SUB SWAP1 RETURN JUMPDEST PUSH2 0x90 PUSH1 0x4 DUP1 CALLDATASIZE SUB DUP2 ADD SWAP1 PUSH2 0x8B SWAP2 SWAP1 PUSH2 0x4A1 JUMP JUMPDEST PUSH2 0x173 JUMP JUMPDEST PUSH1 0x40 MLOAD PUSH2 0x9D SWAP2 SWAP1 PUSH2 0x668 JUMP JUMPDEST PUSH1 0x40 MLOAD DUP1 SWAP2 SUB SWAP1 RETURN JUMPDEST PUSH2 0xC0 PUSH1 0x4 DUP1 CALLDATASIZE SUB DUP2 ADD SWAP1 PUSH2 0xBB SWAP2 SWAP1 PUSH2 0x510 JUMP JUMPDEST PUSH2 0x21C JUMP JUMPDEST PUSH1 0x40 MLOAD PUSH2 0xCD SWAP2 SWAP1 PUSH2 0x646 JUMP JUMPDEST PUSH1 0x40 MLOAD DUP1 SWAP2 SUB SWAP1 RETURN JUMPDEST PUSH1 0x0 PUSH1 0x2 PUSH1 0x0 DUP2 SLOAD DUP1 SWAP3 SWAP2 SWAP1 PUSH2 0xEB SWAP1 PUSH2 0x879 JUMP JUMPDEST SWAP2 SWAP1 POP SSTORE SWAP1 POP PUSH1 0x0 PUSH1 0x3 PUSH1 0x0 DUP4 DUP2 MSTORE PUSH1 0x20 ADD SWAP1 DUP2 MSTORE PUSH1 0x20 ADD PUSH1 0x0 KECCAK256 SWAP1 POP DUP2 DUP2 PUSH1 0x0 ADD DUP2 SWAP1 SSTORE POP DUP4 DUP2 PUSH1 0x1 ADD DUP2 SWAP1 SSTORE POP DUP3 DUP2 PUSH1 0x2 ADD PUSH1 0x0 PUSH2 0x100 EXP DUP2 SLOAD DUP2 PUSH1 0xFF MUL NOT AND SWAP1 DUP4 PUSH1 0x1 DUP2 GT ISZERO PUSH2 0x141 JUMPI PUSH2 0x140 PUSH2 0x8F1 JUMP JUMPDEST JUMPDEST MUL OR SWAP1 SSTORE POP PUSH1 0x0 DUP2 PUSH1 0x2 ADD PUSH1 0x1 PUSH2 0x100 EXP DUP2 SLOAD DUP2 PUSH1 0xFF MUL NOT AND SWAP1 DUP4 ISZERO ISZERO MUL OR SWAP1 SSTORE POP TIMESTAMP DUP2 PUSH1 0x3 ADD DUP2 SWAP1 SSTORE POP POP SWAP3 SWAP2 POP POP JUMP JUMPDEST PUSH1 0x0 DUP1 PUSH1 0x0 DUP2 SLOAD DUP1 SWAP3 SWAP2 SWAP1 PUSH2 0x187 SWAP1 PUSH2 0x879 JUMP JUMPDEST SWAP2 SWAP1 POP SSTORE SWAP1 POP PUSH1 0x0 PUSH1 0x1 PUSH1 0x0 DUP4 DUP2 MSTORE PUSH1 0x20 ADD SWAP1 DUP2 MSTORE PUSH1 0x20 ADD PUSH1 0x0 KECCAK256 SWAP1 POP DUP2 DUP2 PUSH1 0x0 ADD DUP2 SWAP1 SSTORE POP DUP5 DUP2 PUSH1 0x1 ADD SWAP1 DUP1 MLOAD SWAP1 PUSH1 0x20 ADD SWAP1 PUSH2 0x1C5 SWAP3 SWAP2 SWAP1 PUSH2 0x32A JUMP JUMPDEST POP DUP4 DUP2 PUSH1 0x2 ADD PUSH1 0x0 PUSH2 0x100 EXP DUP2 SLOAD DUP2 PUSH1 0xFF MUL NOT AND SWAP1 DUP4 PUSH1 0x1 DUP2 GT ISZERO PUSH2 0x1ED JUMPI PUSH2 0x1EC PUSH2 0x8F1 JUMP JUMPDEST JUMPDEST MUL OR SWAP1 SSTORE POP PUSH3 0x15180 DUP4 PUSH2 0x201 SWAP2 SWAP1 PUSH2 0x74B JUMP JUMPDEST TIMESTAMP PUSH2 0x20C SWAP2 SWAP1 PUSH2 0x6F5 JUMP JUMPDEST DUP2 PUSH1 0x3 ADD DUP2 SWAP1 SSTORE POP POP SWAP4 SWAP3 POP POP POP JUMP JUMPDEST PUSH2 0x224 PUSH2 0x3B0 JUMP JUMPDEST PUSH1 0x1 PUSH1 0x0 DUP4 DUP2 MSTORE PUSH1 0x20 ADD SWAP1 DUP2 MSTORE PUSH1 0x20 ADD PUSH1 0x0 KECCAK256 PUSH1 0x40 MLOAD DUP1 PUSH1 0x80 ADD PUSH1 0x40 MSTORE SWAP1 DUP2 PUSH1 0x0 DUP3 ADD SLOAD DUP2 MSTORE PUSH1 0x20 ADD PUSH1 0x1 DUP3 ADD DUP1 SLOAD PUSH2 0x25C SWAP1 PUSH2 0x816 JUMP JUMPDEST DUP1 PUSH1 0x1F ADD PUSH1 0x20 DUP1 SWAP2 DIV MUL PUSH1 0x20 ADD PUSH1 0x40 MLOAD SWAP1 DUP2 ADD PUSH1 0x40 MSTORE DUP1 SWAP3 SWAP2 SWAP1 DUP2 DUP2 MSTORE PUSH1 0x20 ADD DUP3 DUP1 SLOAD PUSH2 0x288 SWAP1 PUSH2 0x816 JUMP JUMPDEST DUP1 ISZERO PUSH2 0x2D5 JUMPI DUP1 PUSH1 0x1F LT PUSH2 0x2AA JUMPI PUSH2 0x100 DUP1 DUP4 SLOAD DIV MUL DUP4 MSTORE SWAP2 PUSH1 0x20 ADD SWAP2 PUSH2 0x2D5 JUMP JUMPDEST DUP3 ADD SWAP2 SWAP1 PUSH1 0x0 MSTORE PUSH1 0x20 PUSH1 0x0 KECCAK256 SWAP1 JUMPDEST DUP2 SLOAD DUP2 MSTORE SWAP1 PUSH1 0x1 ADD SWAP1 PUSH1 0x20 ADD DUP1 DUP4 GT PUSH2 0x2B8 JUMPI DUP3 SWAP1 SUB PUSH1 0x1F AND DUP3 ADD SWAP2 JUMPDEST POP POP POP POP POP DUP2 MSTORE PUSH1 0x20 ADD PUSH1 0x2 DUP3 ADD PUSH1 0x0 SWAP1 SLOAD SWAP1 PUSH2 0x100 EXP SWAP1 DIV PUSH1 0xFF AND PUSH1 0x1 DUP2 GT ISZERO PUSH2 0x303 JUMPI PUSH2 0x302 PUSH2 0x8F1 JUMP JUMPDEST JUMPDEST PUSH1 0x1 DUP2 GT ISZERO PUSH2 0x315 JUMPI PUSH2 0x314 PUSH2 0x8F1 JUMP JUMPDEST JUMPDEST DUP2 MSTORE PUSH1 0x20 ADD PUSH1 0x3 DUP3 ADD SLOAD DUP2 MSTORE POP POP SWAP1 POP SWAP2 SWAP1 POP JUMP JUMPDEST DUP3 DUP1 SLOAD PUSH2 0x336 SWAP1 PUSH2 0x816 JUMP JUMPDEST SWAP1 PUSH1 0x0 MSTORE PUSH1 0x20 PUSH1 0x0 KECCAK256 SWAP1 PUSH1 0x1F ADD PUSH1 0x20 SWAP1 DIV DUP2 ADD SWAP3 DUP3 PUSH2 0x358 JUMPI PUSH1 0x0 DUP6 SSTORE PUSH2 0x39F JUMP JUMPDEST DUP3 PUSH1 0x1F LT PUSH2 0x371 JUMPI DUP1 MLOAD PUSH1 0xFF NOT AND DUP4 DUP1 ADD OR DUP6 SSTORE PUSH2 0x39F JUMP JUMPDEST DUP3 DUP1 ADD PUSH1 0x1 ADD DUP6 SSTORE DUP3 ISZERO PUSH2 0x39F JUMPI SWAP2 DUP3 ADD JUMPDEST DUP3 DUP2 GT ISZERO PUSH2 0x39E JUMPI DUP3 MLOAD DUP3 SSTORE SWAP2 PUSH1 0x20 ADD SWAP2 SWAP1 PUSH1 0x1 ADD SWAP1 PUSH2 0x383 JUMP JUMPDEST JUMPDEST POP SWAP1 POP PUSH2 0x3AC SWAP2 SWAP1 PUSH2 0x3EA JUMP JUMPDEST POP SWAP1 JUMP JUMPDEST PUSH1 0x40 MLOAD DUP1 PUSH1 0x80 ADD PUSH1 0x40 MSTORE DUP1 PUSH1 0x0 DUP2 MSTORE PUSH1 0x20 ADD PUSH1 0x60 DUP2 MSTORE PUSH1 0x20 ADD PUSH1 0x0 PUSH1 0x1 DUP2 GT ISZERO PUSH2 0x3DD JUMPI PUSH2 0x3DC PUSH2 0x8F1 JUMP JUMPDEST JUMPDEST DUP2 MSTORE PUSH1 0x20 ADD PUSH1 0x0 DUP2 MSTORE POP SWAP1 JUMP JUMPDEST JUMPDEST DUP1 DUP3 GT ISZERO PUSH2 0x403 JUMPI PUSH1 0x0 DUP2 PUSH1 0x0 SWAP1 SSTORE POP PUSH1 0x1 ADD PUSH2 0x3EB JUMP JUMPDEST POP SWAP1 JUMP JUMPDEST PUSH1 0x0 PUSH2 0x41A PUSH2 0x415 DUP5 PUSH2 0x6A8 JUMP JUMPDEST PUSH2 0x683 JUMP JUMPDEST SWAP1 POP DUP3 DUP2 MSTORE PUSH1 0x20 DUP2 ADD DUP5 DUP5 DUP5 ADD GT ISZERO PUSH2 0x436 JUMPI PUSH2 0x435 PUSH2 0x983 JUMP JUMPDEST JUMPDEST PUSH2 0x441 DUP5 DUP3 DUP6 PUSH2 0x7D4 JUMP JUMPDEST POP SWAP4 SWAP3 POP POP POP JUMP JUMPDEST PUSH1 0x0 DUP2 CALLDATALOAD SWAP1 POP PUSH2 0x458 DUP2 PUSH2 0x9B7 JUMP JUMPDEST SWAP3 SWAP2 POP POP JUMP JUMPDEST PUSH1 0x0 DUP3 PUSH1 0x1F DUP4 ADD SLT PUSH2 0x473 JUMPI PUSH2 0x472 PUSH2 0x97E JUMP JUMPDEST JUMPDEST DUP2 CALLDATALOAD PUSH2 0x483 DUP5 DUP3 PUSH1 0x20 DUP7 ADD PUSH2 0x407 JUMP JUMPDEST SWAP2 POP POP SWAP3 SWAP2 POP POP JUMP JUMPDEST PUSH1 0x0 DUP2 CALLDATALOAD SWAP1 POP PUSH2 0x49B DUP2 PUSH2 0x9C7 JUMP JUMPDEST SWAP3 SWAP2 POP POP JUMP JUMPDEST PUSH1 0x0 DUP1 PUSH1 0x0 PUSH1 0x60 DUP5 DUP7 SUB SLT ISZERO PUSH2 0x4BA JUMPI PUSH2 0x4B9 PUSH2 0x98D JUMP JUMPDEST JUMPDEST PUSH1 0x0 DUP5 ADD CALLDATALOAD PUSH8 0xFFFFFFFFFFFFFFFF DUP2 GT ISZERO PUSH2 0x4D8 JUMPI PUSH2 0x4D7 PUSH2 0x988 JUMP JUMPDEST JUMPDEST PUSH2 0x4E4 DUP7 DUP3 DUP8 ADD PUSH2 0x45E JUMP JUMPDEST SWAP4 POP POP PUSH1 0x20 PUSH2 0x4F5 DUP7 DUP3 DUP8 ADD PUSH2 0x449 JUMP JUMPDEST SWAP3 POP POP PUSH1 0x40 PUSH2 0x506 DUP7 DUP3 DUP8 ADD PUSH2 0x48C JUMP JUMPDEST SWAP2 POP POP SWAP3 POP SWAP3 POP SWAP3 JUMP JUMPDEST PUSH1 0x0 PUSH1 0x20 DUP3 DUP5 SUB SLT ISZERO PUSH2 0x526 JUMPI PUSH2 0x525 PUSH2 0x98D JUMP JUMPDEST JUMPDEST PUSH1 0x0 PUSH2 0x534 DUP5 DUP3 DUP6 ADD PUSH2 0x48C JUMP JUMPDEST SWAP2 POP POP SWAP3 SWAP2 POP POP JUMP JUMPDEST PUSH1 0x0 DUP1 PUSH1 0x40 DUP4 DUP6 SUB SLT ISZERO PUSH2 0x554 JUMPI PUSH2 0x553 PUSH2 0x98D JUMP JUMPDEST JUMPDEST PUSH1 0x0 PUSH2 0x562 DUP6 DUP3 DUP7 ADD PUSH2 0x48C JUMP JUMPDEST SWAP3 POP POP PUSH1 0x20 PUSH2 0x573 DUP6 DUP3 DUP7 ADD PUSH2 0x449 JUMP JUMPDEST SWAP2 POP POP SWAP3 POP SWAP3 SWAP1 POP JUMP JUMPDEST PUSH2 0x586 DUP2 PUSH2 0x7C2 JUMP JUMPDEST DUP3 MSTORE POP POP JUMP JUMPDEST PUSH1 0x0 PUSH2 0x597 DUP3 PUSH2 0x6D9 JUMP JUMPDEST PUSH2 0x5A1 DUP2 DUP6 PUSH2 0x6E4 JUMP JUMPDEST SWAP4 POP PUSH2 0x5B1 DUP2 DUP6 PUSH1 0x20 DUP7 ADD PUSH2 0x7E3 JUMP JUMPDEST PUSH2 0x5BA DUP2 PUSH2 0x992 JUMP JUMPDEST DUP5 ADD SWAP2 POP POP SWAP3 SWAP2 POP POP JUMP JUMPDEST PUSH1 0x0 PUSH1 0x80 DUP4 ADD PUSH1 0x0 DUP4 ADD MLOAD PUSH2 0x5DD PUSH1 0x0 DUP7 ADD DUP3 PUSH2 0x628 JUMP JUMPDEST POP PUSH1 0x20 DUP4 ADD MLOAD DUP5 DUP3 SUB PUSH1 0x20 DUP7 ADD MSTORE PUSH2 0x5F5 DUP3 DUP3 PUSH2 0x58C JUMP JUMPDEST SWAP2 POP POP PUSH1 0x40 DUP4 ADD MLOAD PUSH2 0x60A PUSH1 0x40 DUP7 ADD DUP3 PUSH2 0x57D JUMP JUMPDEST POP PUSH1 0x60 DUP4 ADD MLOAD PUSH2 0x61D PUSH1 0x60 DUP7 ADD DUP3 PUSH2 0x628 JUMP JUMPDEST POP DUP1 SWAP2 POP POP SWAP3 SWAP2 POP POP JUMP JUMPDEST PUSH2 0x631 DUP2 PUSH2 0x7B8 JUMP JUMPDEST DUP3 MSTORE POP POP JUMP JUMPDEST PUSH2 0x640 DUP2 PUSH2 0x7B8 JUMP JUMPDEST DUP3 MSTORE POP POP JUMP JUMPDEST PUSH1 0x0 PUSH1 0x20 DUP3 ADD SWAP1 POP DUP2 DUP2 SUB PUSH1 0x0 DUP4 ADD MSTORE PUSH2 0x660 DUP2 DUP5 PUSH2 0x5C5 JUMP JUMPDEST SWAP1 POP SWAP3 SWAP2 POP POP JUMP JUMPDEST PUSH1 0x0 PUSH1 0x20 DUP3 ADD SWAP1 POP PUSH2 0x67D PUSH1 0x0 DUP4 ADD DUP5 PUSH2 0x637 JUMP JUMPDEST SWAP3 SWAP2 POP POP JUMP JUMPDEST PUSH1 0x0 PUSH2 0x68D PUSH2 0x69E JUMP JUMPDEST SWAP1 POP PUSH2 0x699 DUP3 DUP3 PUSH2 0x848 JUMP JUMPDEST SWAP2 SWAP1 POP JUMP JUMPDEST PUSH1 0x0 PUSH1 0x40 MLOAD SWAP1 POP SWAP1 JUMP JUMPDEST PUSH1 0x0 PUSH8 0xFFFFFFFFFFFFFFFF DUP3 GT ISZERO PUSH2 0x6C3 JUMPI PUSH2 0x6C2 PUSH2 0x94F JUMP JUMPDEST JUMPDEST PUSH2 0x6CC DUP3 PUSH2 0x992 JUMP JUMPDEST SWAP1 POP PUSH1 0x20 DUP2 ADD SWAP1 POP SWAP2 SWAP1 POP JUMP JUMPDEST PUSH1 0x0 DUP2 MLOAD SWAP1 POP SWAP2 SWAP1 POP JUMP JUMPDEST PUSH1 0x0 DUP3 DUP3 MSTORE PUSH1 0x20 DUP3 ADD SWAP1 POP SWAP3 SWAP2 POP POP JUMP JUMPDEST PUSH1 0x0 PUSH2 0x700 DUP3 PUSH2 0x7B8 JUMP JUMPDEST SWAP2 POP PUSH2 0x70B DUP4 PUSH2 0x7B8 JUMP JUMPDEST SWAP3 POP DUP3 PUSH32 0xFFFFFFFFFFFFFFFFFFFFFFFFFFFFFFFFFFFFFFFFFFFFFFFFFFFFFFFFFFFFFFFF SUB DUP3 GT ISZERO PUSH2 0x740 JUMPI PUSH2 0x73F PUSH2 0x8C2 JUMP JUMPDEST JUMPDEST DUP3 DUP3 ADD SWAP1 POP SWAP3 SWAP2 POP POP JUMP JUMPDEST PUSH1 0x0 PUSH2 0x756 DUP3 PUSH2 0x7B8 JUMP JUMPDEST SWAP2 POP PUSH2 0x761 DUP4 PUSH2 0x7B8 JUMP JUMPDEST SWAP3 POP DUP2 PUSH32 0xFFFFFFFFFFFFFFFFFFFFFFFFFFFFFFFFFFFFFFFFFFFFFFFFFFFFFFFFFFFFFFFF DIV DUP4 GT DUP3 ISZERO ISZERO AND ISZERO PUSH2 0x79A JUMPI PUSH2 0x799 PUSH2 0x8C2 JUMP JUMPDEST JUMPDEST DUP3 DUP3 MUL SWAP1 POP SWAP3 SWAP2 POP POP JUMP JUMPDEST PUSH1 0x0 DUP2 SWAP1 POP PUSH2 0x7B3 DUP3 PUSH2 0x9A3 JUMP JUMPDEST SWAP2 SWAP1 POP JUMP JUMPDEST PUSH1 0x0 DUP2 SWAP1 POP SWAP2 SWAP1 POP JUMP JUMPDEST PUSH1 0x0 PUSH2 0x7CD DUP3 PUSH2 0x7A5 JUMP JUMPDEST SWAP1 POP SWAP2 SWAP1 POP JUMP JUMPDEST DUP3 DUP2 DUP4 CALLDATACOPY PUSH1 0x0 DUP4 DUP4 ADD MSTORE POP POP POP JUMP JUMPDEST PUSH1 0x0 JUMPDEST DUP4 DUP2 LT ISZERO PUSH2 0x801 JUMPI DUP1 DUP3 ADD MLOAD DUP2 DUP5 ADD MSTORE PUSH1 0x20 DUP2 ADD SWAP1 POP PUSH2 0x7E6 JUMP JUMPDEST DUP4 DUP2 GT ISZERO PUSH2 0x810 JUMPI PUSH1 0x0 DUP5 DUP5 ADD MSTORE JUMPDEST POP POP POP POP JUMP JUMPDEST PUSH1 0x0 PUSH1 0x2 DUP3 DIV SWAP1 POP PUSH1 0x1 DUP3 AND DUP1 PUSH2 0x82E JUMPI PUSH1 0x7F DUP3 AND SWAP2 POP JUMPDEST PUSH1 0x20 DUP3 LT DUP2 EQ ISZERO PUSH2 0x842 JUMPI PUSH2 0x841 PUSH2 0x920 JUMP JUMPDEST JUMPDEST POP SWAP2 SWAP1 POP JUMP JUMPDEST PUSH2 0x851 DUP3 PUSH2 0x992 JUMP JUMPDEST DUP2 ADD DUP2 DUP2 LT PUSH8 0xFFFFFFFFFFFFFFFF DUP3 GT OR ISZERO PUSH2 0x870 JUMPI PUSH2 0x86F PUSH2 0x94F JUMP JUMPDEST JUMPDEST DUP1 PUSH1 0x40 MSTORE POP POP POP JUMP JUMPDEST PUSH1 0x0 PUSH2 0x884 DUP3 PUSH2 0x7B8 JUMP JUMPDEST SWAP2 POP PUSH32 0xFFFFFFFFFFFFFFFFFFFFFFFFFFFFFFFFFFFFFFFFFFFFFFFFFFFFFFFFFFFFFFFF DUP3 EQ ISZERO PUSH2 0x8B7 JUMPI PUSH2 0x8B6 PUSH2 0x8C2 JUMP JUMPDEST JUMPDEST PUSH1 0x1 DUP3 ADD SWAP1 POP SWAP2 SWAP1 POP JUMP JUMPDEST PUSH32 0x4E487B7100000000000000000000000000000000000000000000000000000000 PUSH1 0x0 MSTORE PUSH1 0x11 PUSH1 0x4 MSTORE PUSH1 0x24 PUSH1 0x0 REVERT JUMPDEST PUSH32 0x4E487B7100000000000000000000000000000000000000000000000000000000 PUSH1 0x0 MSTORE PUSH1 0x21 PUSH1 0x4 MSTORE PUSH1 0x24 PUSH1 0x0 REVERT JUMPDEST PUSH32 0x4E487B7100000000000000000000000000000000000000000000000000000000 PUSH1 0x0 MSTORE PUSH1 0x22 PUSH1 0x4 MSTORE PUSH1 0x24 PUSH1 0x0 REVERT JUMPDEST PUSH32 0x4E487B7100000000000000000000000000000000000000000000000000000000 PUSH1 0x0 MSTORE PUSH1 0x41 PUSH1 0x4 MSTORE PUSH1 0x24 PUSH1 0x0 REVERT JUMPDEST PUSH1 0x0 DUP1 REVERT JUMPDEST PUSH1 0x0 DUP1 REVERT JUMPDEST PUSH1 0x0 DUP1 REVERT JUMPDEST PUSH1 0x0 DUP1 REVERT JUMPDEST PUSH1 0x0 PUSH1 0x1F NOT PUSH1 0x1F DUP4 ADD AND SWAP1 POP SWAP2 SWAP1 POP JUMP JUMPDEST PUSH1 0x2 DUP2 LT PUSH2 0x9B4 JUMPI PUSH2 0x9B3 PUSH2 0x8F1 JUMP JUMPDEST JUMPDEST POP JUMP JUMPDEST PUSH1 0x2 DUP2 LT PUSH2 0x9C4 JUMPI PUSH1 0x0 DUP1 REVERT JUMPDEST POP JUMP JUMPDEST PUSH2 0x9D0 DUP2 PUSH2 0x7B8 JUMP JUMPDEST DUP2 EQ PUSH2 0x9DB JUMPI PUSH1 0x0 DUP1 REVERT JUMPDEST POP JUMP INVALID LOG2 PUSH5 0x6970667358 0x22 SLT KECCAK256 DUP3 SWAP12 EXTCODEHASH PC SWAP2 DUP16 LOG2 DUP5 SWAP14 PUSH20 0x53C204A7D54801827A8F6A28F44C187B6E3AEE9A 0x21 0x23 PUSH5 0x736F6C6343 STOP ADDMOD SMOD STOP CALLER "
				},
				"gasEstimates": {
					"creation": {
						"codeDepositCost": "516000",
						"executionCost": "infinite",
						"totalCost": "infinite"
					},
					"external": {
						"getClient(uint256)": "infinite",
						"newClient(string,uint8,uint256)": "infinite",
						"submitAClaim(uint256,uint8)": "infinite"
					}
				},
				"methodIdentifiers": {
					"getClient(uint256)": "d0068f80",
					"newClient(string,uint8,uint256)": "bf28fa96",
					"submitAClaim(uint256,uint8)": "68a87ab6"
				}
			},
			"storageLayout": {
				"storage": [
					{
						"astId": 13,
						"contract": "contracts/Client.sol:ClientContract",
						"label": "numClient",
						"offset": 0,
						"slot": "0",
						"type": "t_uint256"
					},
					{
						"astId": 18,
						"contract": "contracts/Client.sol:ClientContract",
						"label": "clients",
						"offset": 0,
						"slot": "1",
						"type": "t_mapping(t_uint256,t_struct(Client)176_storage)"
					},
					{
						"astId": 20,
						"contract": "contracts/Client.sol:ClientContract",
						"label": "numClaim",
						"offset": 0,
						"slot": "2",
						"type": "t_uint256"
					},
					{
						"astId": 25,
						"contract": "contracts/Client.sol:ClientContract",
						"label": "claims",
						"offset": 0,
						"slot": "3",
						"type": "t_mapping(t_uint256,t_struct(Claim)190_storage)"
					}
				],
				"types": {
					"t_bool": {
						"encoding": "inplace",
						"label": "bool",
						"numberOfBytes": "1"
					},
					"t_enum(insurancePolicy)166": {
						"encoding": "inplace",
						"label": "enum InsurranceCompanyContract.insurancePolicy",
						"numberOfBytes": "1"
					},
					"t_mapping(t_uint256,t_struct(Claim)190_storage)": {
						"encoding": "mapping",
						"key": "t_uint256",
						"label": "mapping(uint256 => struct InsurranceCompanyContract.Claim)",
						"numberOfBytes": "32",
						"value": "t_struct(Claim)190_storage"
					},
					"t_mapping(t_uint256,t_struct(Client)176_storage)": {
						"encoding": "mapping",
						"key": "t_uint256",
						"label": "mapping(uint256 => struct InsurranceCompanyContract.Client)",
						"numberOfBytes": "32",
						"value": "t_struct(Client)176_storage"
					},
					"t_string_storage": {
						"encoding": "bytes",
						"label": "string",
						"numberOfBytes": "32"
					},
					"t_struct(Claim)190_storage": {
						"encoding": "inplace",
						"label": "struct InsurranceCompanyContract.Claim",
						"members": [
							{
								"astId": 178,
								"contract": "contracts/Client.sol:ClientContract",
								"label": "id",
								"offset": 0,
								"slot": "0",
								"type": "t_uint256"
							},
							{
								"astId": 180,
								"contract": "contracts/Client.sol:ClientContract",
								"label": "clientId",
								"offset": 0,
								"slot": "1",
								"type": "t_uint256"
							},
							{
								"astId": 183,
								"contract": "contracts/Client.sol:ClientContract",
								"label": "policyType",
								"offset": 0,
								"slot": "2",
								"type": "t_enum(insurancePolicy)166"
							},
							{
								"astId": 185,
								"contract": "contracts/Client.sol:ClientContract",
								"label": "assesment",
								"offset": 1,
								"slot": "2",
								"type": "t_bool"
							},
							{
								"astId": 187,
								"contract": "contracts/Client.sol:ClientContract",
								"label": "claimDate",
								"offset": 0,
								"slot": "3",
								"type": "t_uint256"
							},
							{
								"astId": 189,
								"contract": "contracts/Client.sol:ClientContract",
								"label": "damagePercentage",
								"offset": 0,
								"slot": "4",
								"type": "t_uint256"
							}
						],
						"numberOfBytes": "160"
					},
					"t_struct(Client)176_storage": {
						"encoding": "inplace",
						"label": "struct InsurranceCompanyContract.Client",
						"members": [
							{
								"astId": 168,
								"contract": "contracts/Client.sol:ClientContract",
								"label": "id",
								"offset": 0,
								"slot": "0",
								"type": "t_uint256"
							},
							{
								"astId": 170,
								"contract": "contracts/Client.sol:ClientContract",
								"label": "name",
								"offset": 0,
								"slot": "1",
								"type": "t_string_storage"
							},
							{
								"astId": 173,
								"contract": "contracts/Client.sol:ClientContract",
								"label": "policyType",
								"offset": 0,
								"slot": "2",
								"type": "t_enum(insurancePolicy)166"
							},
							{
								"astId": 175,
								"contract": "contracts/Client.sol:ClientContract",
								"label": "validityDate",
								"offset": 0,
								"slot": "3",
								"type": "t_uint256"
							}
						],
						"numberOfBytes": "128"
					},
					"t_uint256": {
						"encoding": "inplace",
						"label": "uint256",
						"numberOfBytes": "32"
					}
				}
			},
			"userdoc": {
				"kind": "user",
				"methods": {},
				"version": 1
			}
		}
	}
}