{
	"data": {
		"bytecode": {
			"linkReferences": {},
			"object": "608060405260405161001090610083565b604051809103906000f08015801561002c573d6000803e3d6000fd5b506000806101000a81548173ffffffffffffffffffffffffffffffffffffffff021916908373ffffffffffffffffffffffffffffffffffffffff160217905550600060015534801561007d57600080fd5b50610090565b611231806110d983390190565b61103a8061009f6000396000f3fe608060405234801561001057600080fd5b50600436106100415760003560e01c8063356f31b5146100465780635aef24471461006257806391bbdc4914610092575b600080fd5b610060600480360381019061005b9190610881565b6100ae565b005b61007c600480360381019061007791906108f7565b610145565b6040516100899190610bc0565b60405180910390f35b6100ac60048036038101906100a79190610924565b6101f0565b005b6000600260006001548152602001908152602001600020905060015481600001819055508160200151816001018190555081604001518160020160006101000a81548160ff0219169083600181111561010a57610109610da6565b5b0217905550816080015181600301819055508160a0015181600401819055506001600081548092919061013c90610d2e565b91905055505050565b61014d610601565b600260008381526020019081526020016000206040518060c001604052908160008201548152602001600182015481526020016002820160009054906101000a900460ff1660018111156101a4576101a3610da6565b5b60018111156101b6576101b5610da6565b5b81526020016002820160019054906101000a900460ff16151515158152602001600382015481526020016004820154815250509050919050565b8260008060009054906101000a900473ffffffffffffffffffffffffffffffffffffffff1673ffffffffffffffffffffffffffffffffffffffff1663eb876f27836040518263ffffffff1660e01b815260040161024d9190610bdb565b60006040518083038186803b15801561026557600080fd5b505afa158015610279573d6000803e3d6000fd5b505050506040513d6000823e3d601f19601f820116820180604052508101906102a291906108ae565b6000015114156102e7576040517f08c379a00000000000000000000000000000000000000000000000000000000081526004016102de90610b60565b60405180910390fd5b807fb6fadf247b8bf1dbf11ca028d218285198ec9cf906a4e1955b03661b91e2d41560405161031590610ba0565b60405180910390a283428060008054906101000a900473ffffffffffffffffffffffffffffffffffffffff1673ffffffffffffffffffffffffffffffffffffffff1663eb876f27846040518263ffffffff1660e01b81526004016103799190610bdb565b60006040518083038186803b15801561039157600080fd5b505afa1580156103a5573d6000803e3d6000fd5b505050506040513d6000823e3d601f19601f820116820180604052508101906103ce91906108ae565b6060015111610412576040517f08c379a000000000000000000000000000000000000000000000000000000000815260040161040990610b80565b60405180910390fd5b817fb6fadf247b8bf1dbf11ca028d218285198ec9cf906a4e1955b03661b91e2d41560405161044090610b20565b60405180910390a2858580600181111561045d5761045c610da6565b5b60008054906101000a900473ffffffffffffffffffffffffffffffffffffffff1673ffffffffffffffffffffffffffffffffffffffff1663eb876f27846040518263ffffffff1660e01b81526004016104b69190610bdb565b60006040518083038186803b1580156104ce57600080fd5b505afa1580156104e2573d6000803e3d6000fd5b505050506040513d6000823e3d601f19601f8201168201806040525081019061050b91906108ae565b60400151600181111561052157610520610da6565b5b14610561576040517f08c379a000000000000000000000000000000000000000000000000000000000815260040161055890610b40565b60405180910390fd5b817fb6fadf247b8bf1dbf11ca028d218285198ec9cf906a4e1955b03661b91e2d41560405161058f90610b00565b60405180910390a261059f610601565b8881602001818152505087816040019060018111156105c1576105c0610da6565b5b908160018111156105d5576105d4610da6565b5b8152505042816080018181525050868160a00181815250506105f6816100ae565b505050505050505050565b6040518060c0016040528060008152602001600081526020016000600181111561062e5761062d610da6565b5b815260200160001515815260200160008152602001600081525090565b600061065e61065984610c1b565b610bf6565b90508281526020810184848401111561067a57610679610e13565b5b610685848285610cca565b509392505050565b60008151905061069c81610faf565b92915050565b6000813590506106b181610fc6565b92915050565b6000813590506106c681610fdd565b92915050565b6000815190506106db81610fdd565b92915050565b600082601f8301126106f6576106f5610e04565b5b815161070684826020860161064b565b91505092915050565b600060c0828403121561072557610724610e09565b5b61072f60c0610bf6565b9050600061073f84828501610857565b600083015250602061075384828501610857565b6020830152506040610767848285016106b7565b604083015250606061077b848285016106a2565b606083015250608061078f84828501610857565b60808301525060a06107a384828501610857565b60a08301525092915050565b600060a082840312156107c5576107c4610e09565b5b6107cf60a0610bf6565b905060006107df8482850161086c565b600083015250602082015167ffffffffffffffff81111561080357610802610e0e565b5b61080f848285016106e1565b6020830152506040610823848285016106cc565b60408301525060606108378482850161086c565b606083015250608061084b8482850161068d565b60808301525092915050565b60008135905061086681610fed565b92915050565b60008151905061087b81610fed565b92915050565b600060c0828403121561089757610896610e1d565b5b60006108a58482850161070f565b91505092915050565b6000602082840312156108c4576108c3610e1d565b5b600082015167ffffffffffffffff8111156108e2576108e1610e18565b5b6108ee848285016107af565b91505092915050565b60006020828403121561090d5761090c610e1d565b5b600061091b84828501610857565b91505092915050565b60008060006060848603121561093d5761093c610e1d565b5b600061094b86828701610857565b935050602061095c868287016106b7565b925050604061096d86828701610857565b9150509250925092565b61098081610c6f565b82525050565b61098f81610cb8565b82525050565b60006109a2602e83610c4c565b91506109ad82610e33565b604082019050919050565b60006109c5603583610c4c565b91506109d082610e82565b604082019050919050565b60006109e8602e83610c4c565b91506109f382610ed1565b604082019050919050565b6000610a0b601383610c4c565b9150610a1682610f20565b602082019050919050565b6000610a2e601383610c4c565b9150610a3982610f49565b602082019050919050565b6000610a51601f83610c4c565b9150610a5c82610f72565b602082019050919050565b60c082016000820151610a7d6000850182610ae2565b506020820151610a906020850182610ae2565b506040820151610aa36040850182610986565b506060820151610ab66060850182610977565b506080820151610ac96080850182610ae2565b5060a0820151610adc60a0850182610ae2565b50505050565b610aeb81610cae565b82525050565b610afa81610cae565b82525050565b60006020820190508181036000830152610b1981610995565b9050919050565b60006020820190508181036000830152610b39816109b8565b9050919050565b60006020820190508181036000830152610b59816109db565b9050919050565b60006020820190508181036000830152610b79816109fe565b9050919050565b60006020820190508181036000830152610b9981610a21565b9050919050565b60006020820190508181036000830152610bb981610a44565b9050919050565b600060c082019050610bd56000830184610a67565b92915050565b6000602082019050610bf06000830184610af1565b92915050565b6000610c00610c11565b9050610c0c8282610cfd565b919050565b6000604051905090565b600067ffffffffffffffff821115610c3657610c35610dd5565b5b610c3f82610e22565b9050602081019050919050565b600082825260208201905092915050565b6000610c6882610c8e565b9050919050565b60008115159050919050565b6000819050610c8982610f9b565b919050565b600073ffffffffffffffffffffffffffffffffffffffff82169050919050565b6000819050919050565b6000610cc382610c7b565b9050919050565b60005b83811015610ce8578082015181840152602081019050610ccd565b83811115610cf7576000848401525b50505050565b610d0682610e22565b810181811067ffffffffffffffff82111715610d2557610d24610dd5565b5b80604052505050565b6000610d3982610cae565b91507fffffffffffffffffffffffffffffffffffffffffffffffffffffffffffffffff821415610d6c57610d6b610d77565b5b600182019050919050565b7f4e487b7100000000000000000000000000000000000000000000000000000000600052601160045260246000fd5b7f4e487b7100000000000000000000000000000000000000000000000000000000600052602160045260246000fd5b7f4e487b7100000000000000000000000000000000000000000000000000000000600052604160045260246000fd5b600080fd5b600080fd5b600080fd5b600080fd5b600080fd5b600080fd5b6000601f19601f8301169050919050565b7f437573746f6d657220616e6420636c61696d20706f6c6963792068617665207460008201527f6f206265207468652073616d652e000000000000000000000000000000000000602082015250565b7f506f6c69637920646174652068617320657870697265642c20706c656173652060008201527f75706461746520796f757220636f6e74726163742e0000000000000000000000602082015250565b7f437573746f6d657220616e6420636c61696d20706f6c6963792063616e6e6f7460008201527f20626520646966666572656e742e000000000000000000000000000000000000602082015250565b7f437573746f6d6572206e6f7420666f756e642e00000000000000000000000000600082015250565b7f506f6c6963792068617320657870697265642e00000000000000000000000000600082015250565b7f437573746f6d6572206964656e74697479206973206e6f742076616c69642e00600082015250565b60028110610fac57610fab610da6565b5b50565b610fb881610c5d565b8114610fc357600080fd5b50565b610fcf81610c6f565b8114610fda57600080fd5b50565b60028110610fea57600080fd5b50565b610ff681610cae565b811461100157600080fd5b5056fea264697066735822122064c4735e3e864bf40be358d6c26820aead859ccec0758b8523ad2a01192761b664736f6c634300080700336080604052600080553480156200001557600080fd5b50620000766040518060400160405280600381526020017f546f6d0000000000000000000000000000000000000000000000000000000000815250600161012c735b38da6a701c568545dcfcb03fcb875f56beddc46200007c60201b60201c565b6200046f565b600080815480929190620000909062000394565b919050555060016040518060a001604052806000548152602001868152602001856001811115620000c657620000c562000411565b5b81526020016201518085620000dc9190620002f3565b42620000e9919062000296565b81526020018373ffffffffffffffffffffffffffffffffffffffff16815250908060018154018082558091505060019003906000526020600020906005020160009091909190915060008201518160000155602082015181600101908051906020019062000159929190620001e6565b5060408201518160020160006101000a81548160ff0219169083600181111562000188576200018762000411565b5b02179055506060820151816003015560808201518160040160006101000a81548173ffffffffffffffffffffffffffffffffffffffff021916908373ffffffffffffffffffffffffffffffffffffffff160217905550505050505050565b828054620001f4906200035e565b90600052602060002090601f01602090048101928262000218576000855562000264565b82601f106200023357805160ff191683800117855562000264565b8280016001018555821562000264579182015b828111156200026357825182559160200191906001019062000246565b5b50905062000273919062000277565b5090565b5b808211156200029257600081600090555060010162000278565b5090565b6000620002a38262000354565b9150620002b08362000354565b9250827fffffffffffffffffffffffffffffffffffffffffffffffffffffffffffffffff03821115620002e857620002e7620003e2565b5b828201905092915050565b6000620003008262000354565b91506200030d8362000354565b9250817fffffffffffffffffffffffffffffffffffffffffffffffffffffffffffffffff0483118215151615620003495762000348620003e2565b5b828202905092915050565b6000819050919050565b600060028204905060018216806200037757607f821691505b602082108114156200038e576200038d62000440565b5b50919050565b6000620003a18262000354565b91507fffffffffffffffffffffffffffffffffffffffffffffffffffffffffffffffff821415620003d757620003d6620003e2565b5b600182019050919050565b7f4e487b7100000000000000000000000000000000000000000000000000000000600052601160045260246000fd5b7f4e487b7100000000000000000000000000000000000000000000000000000000600052602160045260246000fd5b7f4e487b7100000000000000000000000000000000000000000000000000000000600052602260045260246000fd5b610db2806200047f6000396000f3fe608060405234801561001057600080fd5b50600436106100415760003560e01c8063196502c914610046578063cee2c18114610076578063eb876f2714610092575b600080fd5b610060600480360381019061005b91906107de565b6100c2565b60405161006d9190610960565b60405180910390f35b610090600480360381019061008b919061072e565b61025e565b005b6100ac60048036038101906100a791906107b1565b6103ba565b6040516100b9919061097b565b60405180910390f35b600080600090505b60018054905081101561024f5786600182815481106100ec576100eb610ca7565b5b906000526020600020906005020160000154141561023c57856001828154811061011957610118610ca7565b5b9060005260206000209060050201600101908051906020019061013d929190610585565b50846001828154811061015357610152610ca7565b5b906000526020600020906005020160020160006101000a81548160ff0219169083600181111561018657610185610c49565b5b0217905550620151808461019a9190610a65565b426101a59190610a0f565b600182815481106101b9576101b8610ca7565b5b90600052602060002090600502016003018190555082600182815481106101e3576101e2610ca7565b5b906000526020600020906005020160040160006101000a81548173ffffffffffffffffffffffffffffffffffffffff021916908373ffffffffffffffffffffffffffffffffffffffff1602179055506001915050610255565b808061024790610bd1565b9150506100ca565b50600090505b95945050505050565b60008081548092919061027090610bd1565b919050555060016040518060a0016040528060005481526020018681526020018560018111156102a3576102a2610c49565b5b815260200162015180856102b79190610a65565b426102c29190610a0f565b81526020018373ffffffffffffffffffffffffffffffffffffffff168152509080600181540180825580915050600190039060005260206000209060050201600090919091909150600082015181600001556020820151816001019080519060200190610330929190610585565b5060408201518160020160006101000a81548160ff0219169083600181111561035c5761035b610c49565b5b02179055506060820151816003015560808201518160040160006101000a81548173ffffffffffffffffffffffffffffffffffffffff021916908373ffffffffffffffffffffffffffffffffffffffff160217905550505050505050565b6103c261060b565b60005b60018054905081101561057e5782600182815481106103e7576103e6610ca7565b5b906000526020600020906005020160000154141561056b576001818154811061041357610412610ca7565b5b90600052602060002090600502016040518060a00160405290816000820154815260200160018201805461044690610b6e565b80601f016020809104026020016040519081016040528092919081815260200182805461047290610b6e565b80156104bf5780601f10610494576101008083540402835291602001916104bf565b820191906000526020600020905b8154815290600101906020018083116104a257829003601f168201915b505050505081526020016002820160009054906101000a900460ff1660018111156104ed576104ec610c49565b5b60018111156104ff576104fe610c49565b5b8152602001600382015481526020016004820160009054906101000a900473ffffffffffffffffffffffffffffffffffffffff1673ffffffffffffffffffffffffffffffffffffffff1673ffffffffffffffffffffffffffffffffffffffff1681525050915050610580565b808061057690610bd1565b9150506103c5565b505b919050565b82805461059190610b6e565b90600052602060002090601f0160209004810192826105b357600085556105fa565b82601f106105cc57805160ff19168380011785556105fa565b828001600101855582156105fa579182015b828111156105f95782518255916020019190600101906105de565b5b5090506106079190610662565b5090565b6040518060a0016040528060008152602001606081526020016000600181111561063857610637610c49565b5b815260200160008152602001600073ffffffffffffffffffffffffffffffffffffffff1681525090565b5b8082111561067b576000816000905550600101610663565b5090565b600061069261068d846109c2565b61099d565b9050828152602081018484840111156106ae576106ad610d0a565b5b6106b9848285610b2c565b509392505050565b6000813590506106d081610d3e565b92915050565b6000813590506106e581610d55565b92915050565b600082601f830112610700576106ff610d05565b5b813561071084826020860161067f565b91505092915050565b60008135905061072881610d65565b92915050565b6000806000806080858703121561074857610747610d14565b5b600085013567ffffffffffffffff81111561076657610765610d0f565b5b610772878288016106eb565b9450506020610783878288016106d6565b935050604061079487828801610719565b92505060606107a5878288016106c1565b91505092959194509250565b6000602082840312156107c7576107c6610d14565b5b60006107d584828501610719565b91505092915050565b600080600080600060a086880312156107fa576107f9610d14565b5b600061080888828901610719565b955050602086013567ffffffffffffffff81111561082957610828610d0f565b5b610835888289016106eb565b9450506040610846888289016106d6565b935050606061085788828901610719565b9250506080610868888289016106c1565b9150509295509295909350565b61087e81610abf565b82525050565b61088d81610ad1565b82525050565b61089c81610b1a565b82525050565b60006108ad826109f3565b6108b781856109fe565b93506108c7818560208601610b3b565b6108d081610d19565b840191505092915050565b600060a0830160008301516108f36000860182610951565b506020830151848203602086015261090b82826108a2565b91505060408301516109206040860182610893565b5060608301516109336060860182610951565b5060808301516109466080860182610875565b508091505092915050565b61095a81610b10565b82525050565b60006020820190506109756000830184610884565b92915050565b6000602082019050818103600083015261099581846108db565b905092915050565b60006109a76109b8565b90506109b38282610ba0565b919050565b6000604051905090565b600067ffffffffffffffff8211156109dd576109dc610cd6565b5b6109e682610d19565b9050602081019050919050565b600081519050919050565b600082825260208201905092915050565b6000610a1a82610b10565b9150610a2583610b10565b9250827fffffffffffffffffffffffffffffffffffffffffffffffffffffffffffffffff03821115610a5a57610a59610c1a565b5b828201905092915050565b6000610a7082610b10565b9150610a7b83610b10565b9250817fffffffffffffffffffffffffffffffffffffffffffffffffffffffffffffffff0483118215151615610ab457610ab3610c1a565b5b828202905092915050565b6000610aca82610af0565b9050919050565b60008115159050919050565b6000819050610aeb82610d2a565b919050565b600073ffffffffffffffffffffffffffffffffffffffff82169050919050565b6000819050919050565b6000610b2582610add565b9050919050565b82818337600083830152505050565b60005b83811015610b59578082015181840152602081019050610b3e565b83811115610b68576000848401525b50505050565b60006002820490506001821680610b8657607f821691505b60208210811415610b9a57610b99610c78565b5b50919050565b610ba982610d19565b810181811067ffffffffffffffff82111715610bc857610bc7610cd6565b5b80604052505050565b6000610bdc82610b10565b91507fffffffffffffffffffffffffffffffffffffffffffffffffffffffffffffffff821415610c0f57610c0e610c1a565b5b600182019050919050565b7f4e487b7100000000000000000000000000000000000000000000000000000000600052601160045260246000fd5b7f4e487b7100000000000000000000000000000000000000000000000000000000600052602160045260246000fd5b7f4e487b7100000000000000000000000000000000000000000000000000000000600052602260045260246000fd5b7f4e487b7100000000000000000000000000000000000000000000000000000000600052603260045260246000fd5b7f4e487b7100000000000000000000000000000000000000000000000000000000600052604160045260246000fd5b600080fd5b600080fd5b600080fd5b600080fd5b6000601f19601f8301169050919050565b60028110610d3b57610d3a610c49565b5b50565b610d4781610abf565b8114610d5257600080fd5b50565b60028110610d6257600080fd5b50565b610d6e81610b10565b8114610d7957600080fd5b5056fea264697066735822122019de2c6740744af561c73753de0714977ee91fb6d8eb3f0ae6322c1e57924d6064736f6c63430008070033",
			"opcodes": "PUSH1 0x80 PUSH1 0x40 MSTORE PUSH1 0x40 MLOAD PUSH2 0x10 SWAP1 PUSH2 0x83 JUMP JUMPDEST PUSH1 0x40 MLOAD DUP1 SWAP2 SUB SWAP1 PUSH1 0x0 CREATE DUP1 ISZERO DUP1 ISZERO PUSH2 0x2C JUMPI RETURNDATASIZE PUSH1 0x0 DUP1 RETURNDATACOPY RETURNDATASIZE PUSH1 0x0 REVERT JUMPDEST POP PUSH1 0x0 DUP1 PUSH2 0x100 EXP DUP2 SLOAD DUP2 PUSH20 0xFFFFFFFFFFFFFFFFFFFFFFFFFFFFFFFFFFFFFFFF MUL NOT AND SWAP1 DUP4 PUSH20 0xFFFFFFFFFFFFFFFFFFFFFFFFFFFFFFFFFFFFFFFF AND MUL OR SWAP1 SSTORE POP PUSH1 0x0 PUSH1 0x1 SSTORE CALLVALUE DUP1 ISZERO PUSH2 0x7D JUMPI PUSH1 0x0 DUP1 REVERT JUMPDEST POP PUSH2 0x90 JUMP JUMPDEST PUSH2 0x1231 DUP1 PUSH2 0x10D9 DUP4 CODECOPY ADD SWAP1 JUMP JUMPDEST PUSH2 0x103A DUP1 PUSH2 0x9F PUSH1 0x0 CODECOPY PUSH1 0x0 RETURN INVALID PUSH1 0x80 PUSH1 0x40 MSTORE CALLVALUE DUP1 ISZERO PUSH2 0x10 JUMPI PUSH1 0x0 DUP1 REVERT JUMPDEST POP PUSH1 0x4 CALLDATASIZE LT PUSH2 0x41 JUMPI PUSH1 0x0 CALLDATALOAD PUSH1 0xE0 SHR DUP1 PUSH4 0x356F31B5 EQ PUSH2 0x46 JUMPI DUP1 PUSH4 0x5AEF2447 EQ PUSH2 0x62 JUMPI DUP1 PUSH4 0x91BBDC49 EQ PUSH2 0x92 JUMPI JUMPDEST PUSH1 0x0 DUP1 REVERT JUMPDEST PUSH2 0x60 PUSH1 0x4 DUP1 CALLDATASIZE SUB DUP2 ADD SWAP1 PUSH2 0x5B SWAP2 SWAP1 PUSH2 0x881 JUMP JUMPDEST PUSH2 0xAE JUMP JUMPDEST STOP JUMPDEST PUSH2 0x7C PUSH1 0x4 DUP1 CALLDATASIZE SUB DUP2 ADD SWAP1 PUSH2 0x77 SWAP2 SWAP1 PUSH2 0x8F7 JUMP JUMPDEST PUSH2 0x145 JUMP JUMPDEST PUSH1 0x40 MLOAD PUSH2 0x89 SWAP2 SWAP1 PUSH2 0xBC0 JUMP JUMPDEST PUSH1 0x40 MLOAD DUP1 SWAP2 SUB SWAP1 RETURN JUMPDEST PUSH2 0xAC PUSH1 0x4 DUP1 CALLDATASIZE SUB DUP2 ADD SWAP1 PUSH2 0xA7 SWAP2 SWAP1 PUSH2 0x924 JUMP JUMPDEST PUSH2 0x1F0 JUMP JUMPDEST STOP JUMPDEST PUSH1 0x0 PUSH1 0x2 PUSH1 0x0 PUSH1 0x1 SLOAD DUP2 MSTORE PUSH1 0x20 ADD SWAP1 DUP2 MSTORE PUSH1 0x20 ADD PUSH1 0x0 KECCAK256 SWAP1 POP PUSH1 0x1 SLOAD DUP2 PUSH1 0x0 ADD DUP2 SWAP1 SSTORE POP DUP2 PUSH1 0x20 ADD MLOAD DUP2 PUSH1 0x1 ADD DUP2 SWAP1 SSTORE POP DUP2 PUSH1 0x40 ADD MLOAD DUP2 PUSH1 0x2 ADD PUSH1 0x0 PUSH2 0x100 EXP DUP2 SLOAD DUP2 PUSH1 0xFF MUL NOT AND SWAP1 DUP4 PUSH1 0x1 DUP2 GT ISZERO PUSH2 0x10A JUMPI PUSH2 0x109 PUSH2 0xDA6 JUMP JUMPDEST JUMPDEST MUL OR SWAP1 SSTORE POP DUP2 PUSH1 0x80 ADD MLOAD DUP2 PUSH1 0x3 ADD DUP2 SWAP1 SSTORE POP DUP2 PUSH1 0xA0 ADD MLOAD DUP2 PUSH1 0x4 ADD DUP2 SWAP1 SSTORE POP PUSH1 0x1 PUSH1 0x0 DUP2 SLOAD DUP1 SWAP3 SWAP2 SWAP1 PUSH2 0x13C SWAP1 PUSH2 0xD2E JUMP JUMPDEST SWAP2 SWAP1 POP SSTORE POP POP POP JUMP JUMPDEST PUSH2 0x14D PUSH2 0x601 JUMP JUMPDEST PUSH1 0x2 PUSH1 0x0 DUP4 DUP2 MSTORE PUSH1 0x20 ADD SWAP1 DUP2 MSTORE PUSH1 0x20 ADD PUSH1 0x0 KECCAK256 PUSH1 0x40 MLOAD DUP1 PUSH1 0xC0 ADD PUSH1 0x40 MSTORE SWAP1 DUP2 PUSH1 0x0 DUP3 ADD SLOAD DUP2 MSTORE PUSH1 0x20 ADD PUSH1 0x1 DUP3 ADD SLOAD DUP2 MSTORE PUSH1 0x20 ADD PUSH1 0x2 DUP3 ADD PUSH1 0x0 SWAP1 SLOAD SWAP1 PUSH2 0x100 EXP SWAP1 DIV PUSH1 0xFF AND PUSH1 0x1 DUP2 GT ISZERO PUSH2 0x1A4 JUMPI PUSH2 0x1A3 PUSH2 0xDA6 JUMP JUMPDEST JUMPDEST PUSH1 0x1 DUP2 GT ISZERO PUSH2 0x1B6 JUMPI PUSH2 0x1B5 PUSH2 0xDA6 JUMP JUMPDEST JUMPDEST DUP2 MSTORE PUSH1 0x20 ADD PUSH1 0x2 DUP3 ADD PUSH1 0x1 SWAP1 SLOAD SWAP1 PUSH2 0x100 EXP SWAP1 DIV PUSH1 0xFF AND ISZERO ISZERO ISZERO ISZERO DUP2 MSTORE PUSH1 0x20 ADD PUSH1 0x3 DUP3 ADD SLOAD DUP2 MSTORE PUSH1 0x20 ADD PUSH1 0x4 DUP3 ADD SLOAD DUP2 MSTORE POP POP SWAP1 POP SWAP2 SWAP1 POP JUMP JUMPDEST DUP3 PUSH1 0x0 DUP1 PUSH1 0x0 SWAP1 SLOAD SWAP1 PUSH2 0x100 EXP SWAP1 DIV PUSH20 0xFFFFFFFFFFFFFFFFFFFFFFFFFFFFFFFFFFFFFFFF AND PUSH20 0xFFFFFFFFFFFFFFFFFFFFFFFFFFFFFFFFFFFFFFFF AND PUSH4 0xEB876F27 DUP4 PUSH1 0x40 MLOAD DUP3 PUSH4 0xFFFFFFFF AND PUSH1 0xE0 SHL DUP2 MSTORE PUSH1 0x4 ADD PUSH2 0x24D SWAP2 SWAP1 PUSH2 0xBDB JUMP JUMPDEST PUSH1 0x0 PUSH1 0x40 MLOAD DUP1 DUP4 SUB DUP2 DUP7 DUP1 EXTCODESIZE ISZERO DUP1 ISZERO PUSH2 0x265 JUMPI PUSH1 0x0 DUP1 REVERT JUMPDEST POP GAS STATICCALL ISZERO DUP1 ISZERO PUSH2 0x279 JUMPI RETURNDATASIZE PUSH1 0x0 DUP1 RETURNDATACOPY RETURNDATASIZE PUSH1 0x0 REVERT JUMPDEST POP POP POP POP PUSH1 0x40 MLOAD RETURNDATASIZE PUSH1 0x0 DUP3 RETURNDATACOPY RETURNDATASIZE PUSH1 0x1F NOT PUSH1 0x1F DUP3 ADD AND DUP3 ADD DUP1 PUSH1 0x40 MSTORE POP DUP2 ADD SWAP1 PUSH2 0x2A2 SWAP2 SWAP1 PUSH2 0x8AE JUMP JUMPDEST PUSH1 0x0 ADD MLOAD EQ ISZERO PUSH2 0x2E7 JUMPI PUSH1 0x40 MLOAD PUSH32 0x8C379A000000000000000000000000000000000000000000000000000000000 DUP2 MSTORE PUSH1 0x4 ADD PUSH2 0x2DE SWAP1 PUSH2 0xB60 JUMP JUMPDEST PUSH1 0x40 MLOAD DUP1 SWAP2 SUB SWAP1 REVERT JUMPDEST DUP1 PUSH32 0xB6FADF247B8BF1DBF11CA028D218285198EC9CF906A4E1955B03661B91E2D415 PUSH1 0x40 MLOAD PUSH2 0x315 SWAP1 PUSH2 0xBA0 JUMP JUMPDEST PUSH1 0x40 MLOAD DUP1 SWAP2 SUB SWAP1 LOG2 DUP4 TIMESTAMP DUP1 PUSH1 0x0 DUP1 SLOAD SWAP1 PUSH2 0x100 EXP SWAP1 DIV PUSH20 0xFFFFFFFFFFFFFFFFFFFFFFFFFFFFFFFFFFFFFFFF AND PUSH20 0xFFFFFFFFFFFFFFFFFFFFFFFFFFFFFFFFFFFFFFFF AND PUSH4 0xEB876F27 DUP5 PUSH1 0x40 MLOAD DUP3 PUSH4 0xFFFFFFFF AND PUSH1 0xE0 SHL DUP2 MSTORE PUSH1 0x4 ADD PUSH2 0x379 SWAP2 SWAP1 PUSH2 0xBDB JUMP JUMPDEST PUSH1 0x0 PUSH1 0x40 MLOAD DUP1 DUP4 SUB DUP2 DUP7 DUP1 EXTCODESIZE ISZERO DUP1 ISZERO PUSH2 0x391 JUMPI PUSH1 0x0 DUP1 REVERT JUMPDEST POP GAS STATICCALL ISZERO DUP1 ISZERO PUSH2 0x3A5 JUMPI RETURNDATASIZE PUSH1 0x0 DUP1 RETURNDATACOPY RETURNDATASIZE PUSH1 0x0 REVERT JUMPDEST POP POP POP POP PUSH1 0x40 MLOAD RETURNDATASIZE PUSH1 0x0 DUP3 RETURNDATACOPY RETURNDATASIZE PUSH1 0x1F NOT PUSH1 0x1F DUP3 ADD AND DUP3 ADD DUP1 PUSH1 0x40 MSTORE POP DUP2 ADD SWAP1 PUSH2 0x3CE SWAP2 SWAP1 PUSH2 0x8AE JUMP JUMPDEST PUSH1 0x60 ADD MLOAD GT PUSH2 0x412 JUMPI PUSH1 0x40 MLOAD PUSH32 0x8C379A000000000000000000000000000000000000000000000000000000000 DUP2 MSTORE PUSH1 0x4 ADD PUSH2 0x409 SWAP1 PUSH2 0xB80 JUMP JUMPDEST PUSH1 0x40 MLOAD DUP1 SWAP2 SUB SWAP1 REVERT JUMPDEST DUP2 PUSH32 0xB6FADF247B8BF1DBF11CA028D218285198EC9CF906A4E1955B03661B91E2D415 PUSH1 0x40 MLOAD PUSH2 0x440 SWAP1 PUSH2 0xB20 JUMP JUMPDEST PUSH1 0x40 MLOAD DUP1 SWAP2 SUB SWAP1 LOG2 DUP6 DUP6 DUP1 PUSH1 0x1 DUP2 GT ISZERO PUSH2 0x45D JUMPI PUSH2 0x45C PUSH2 0xDA6 JUMP JUMPDEST JUMPDEST PUSH1 0x0 DUP1 SLOAD SWAP1 PUSH2 0x100 EXP SWAP1 DIV PUSH20 0xFFFFFFFFFFFFFFFFFFFFFFFFFFFFFFFFFFFFFFFF AND PUSH20 0xFFFFFFFFFFFFFFFFFFFFFFFFFFFFFFFFFFFFFFFF AND PUSH4 0xEB876F27 DUP5 PUSH1 0x40 MLOAD DUP3 PUSH4 0xFFFFFFFF AND PUSH1 0xE0 SHL DUP2 MSTORE PUSH1 0x4 ADD PUSH2 0x4B6 SWAP2 SWAP1 PUSH2 0xBDB JUMP JUMPDEST PUSH1 0x0 PUSH1 0x40 MLOAD DUP1 DUP4 SUB DUP2 DUP7 DUP1 EXTCODESIZE ISZERO DUP1 ISZERO PUSH2 0x4CE JUMPI PUSH1 0x0 DUP1 REVERT JUMPDEST POP GAS STATICCALL ISZERO DUP1 ISZERO PUSH2 0x4E2 JUMPI RETURNDATASIZE PUSH1 0x0 DUP1 RETURNDATACOPY RETURNDATASIZE PUSH1 0x0 REVERT JUMPDEST POP POP POP POP PUSH1 0x40 MLOAD RETURNDATASIZE PUSH1 0x0 DUP3 RETURNDATACOPY RETURNDATASIZE PUSH1 0x1F NOT PUSH1 0x1F DUP3 ADD AND DUP3 ADD DUP1 PUSH1 0x40 MSTORE POP DUP2 ADD SWAP1 PUSH2 0x50B SWAP2 SWAP1 PUSH2 0x8AE JUMP JUMPDEST PUSH1 0x40 ADD MLOAD PUSH1 0x1 DUP2 GT ISZERO PUSH2 0x521 JUMPI PUSH2 0x520 PUSH2 0xDA6 JUMP JUMPDEST JUMPDEST EQ PUSH2 0x561 JUMPI PUSH1 0x40 MLOAD PUSH32 0x8C379A000000000000000000000000000000000000000000000000000000000 DUP2 MSTORE PUSH1 0x4 ADD PUSH2 0x558 SWAP1 PUSH2 0xB40 JUMP JUMPDEST PUSH1 0x40 MLOAD DUP1 SWAP2 SUB SWAP1 REVERT JUMPDEST DUP2 PUSH32 0xB6FADF247B8BF1DBF11CA028D218285198EC9CF906A4E1955B03661B91E2D415 PUSH1 0x40 MLOAD PUSH2 0x58F SWAP1 PUSH2 0xB00 JUMP JUMPDEST PUSH1 0x40 MLOAD DUP1 SWAP2 SUB SWAP1 LOG2 PUSH2 0x59F PUSH2 0x601 JUMP JUMPDEST DUP9 DUP2 PUSH1 0x20 ADD DUP2 DUP2 MSTORE POP POP DUP8 DUP2 PUSH1 0x40 ADD SWAP1 PUSH1 0x1 DUP2 GT ISZERO PUSH2 0x5C1 JUMPI PUSH2 0x5C0 PUSH2 0xDA6 JUMP JUMPDEST JUMPDEST SWAP1 DUP2 PUSH1 0x1 DUP2 GT ISZERO PUSH2 0x5D5 JUMPI PUSH2 0x5D4 PUSH2 0xDA6 JUMP JUMPDEST JUMPDEST DUP2 MSTORE POP POP TIMESTAMP DUP2 PUSH1 0x80 ADD DUP2 DUP2 MSTORE POP POP DUP7 DUP2 PUSH1 0xA0 ADD DUP2 DUP2 MSTORE POP POP PUSH2 0x5F6 DUP2 PUSH2 0xAE JUMP JUMPDEST POP POP POP POP POP POP POP POP POP JUMP JUMPDEST PUSH1 0x40 MLOAD DUP1 PUSH1 0xC0 ADD PUSH1 0x40 MSTORE DUP1 PUSH1 0x0 DUP2 MSTORE PUSH1 0x20 ADD PUSH1 0x0 DUP2 MSTORE PUSH1 0x20 ADD PUSH1 0x0 PUSH1 0x1 DUP2 GT ISZERO PUSH2 0x62E JUMPI PUSH2 0x62D PUSH2 0xDA6 JUMP JUMPDEST JUMPDEST DUP2 MSTORE PUSH1 0x20 ADD PUSH1 0x0 ISZERO ISZERO DUP2 MSTORE PUSH1 0x20 ADD PUSH1 0x0 DUP2 MSTORE PUSH1 0x20 ADD PUSH1 0x0 DUP2 MSTORE POP SWAP1 JUMP JUMPDEST PUSH1 0x0 PUSH2 0x65E PUSH2 0x659 DUP5 PUSH2 0xC1B JUMP JUMPDEST PUSH2 0xBF6 JUMP JUMPDEST SWAP1 POP DUP3 DUP2 MSTORE PUSH1 0x20 DUP2 ADD DUP5 DUP5 DUP5 ADD GT ISZERO PUSH2 0x67A JUMPI PUSH2 0x679 PUSH2 0xE13 JUMP JUMPDEST JUMPDEST PUSH2 0x685 DUP5 DUP3 DUP6 PUSH2 0xCCA JUMP JUMPDEST POP SWAP4 SWAP3 POP POP POP JUMP JUMPDEST PUSH1 0x0 DUP2 MLOAD SWAP1 POP PUSH2 0x69C DUP2 PUSH2 0xFAF JUMP JUMPDEST SWAP3 SWAP2 POP POP JUMP JUMPDEST PUSH1 0x0 DUP2 CALLDATALOAD SWAP1 POP PUSH2 0x6B1 DUP2 PUSH2 0xFC6 JUMP JUMPDEST SWAP3 SWAP2 POP POP JUMP JUMPDEST PUSH1 0x0 DUP2 CALLDATALOAD SWAP1 POP PUSH2 0x6C6 DUP2 PUSH2 0xFDD JUMP JUMPDEST SWAP3 SWAP2 POP POP JUMP JUMPDEST PUSH1 0x0 DUP2 MLOAD SWAP1 POP PUSH2 0x6DB DUP2 PUSH2 0xFDD JUMP JUMPDEST SWAP3 SWAP2 POP POP JUMP JUMPDEST PUSH1 0x0 DUP3 PUSH1 0x1F DUP4 ADD SLT PUSH2 0x6F6 JUMPI PUSH2 0x6F5 PUSH2 0xE04 JUMP JUMPDEST JUMPDEST DUP2 MLOAD PUSH2 0x706 DUP5 DUP3 PUSH1 0x20 DUP7 ADD PUSH2 0x64B JUMP JUMPDEST SWAP2 POP POP SWAP3 SWAP2 POP POP JUMP JUMPDEST PUSH1 0x0 PUSH1 0xC0 DUP3 DUP5 SUB SLT ISZERO PUSH2 0x725 JUMPI PUSH2 0x724 PUSH2 0xE09 JUMP JUMPDEST JUMPDEST PUSH2 0x72F PUSH1 0xC0 PUSH2 0xBF6 JUMP JUMPDEST SWAP1 POP PUSH1 0x0 PUSH2 0x73F DUP5 DUP3 DUP6 ADD PUSH2 0x857 JUMP JUMPDEST PUSH1 0x0 DUP4 ADD MSTORE POP PUSH1 0x20 PUSH2 0x753 DUP5 DUP3 DUP6 ADD PUSH2 0x857 JUMP JUMPDEST PUSH1 0x20 DUP4 ADD MSTORE POP PUSH1 0x40 PUSH2 0x767 DUP5 DUP3 DUP6 ADD PUSH2 0x6B7 JUMP JUMPDEST PUSH1 0x40 DUP4 ADD MSTORE POP PUSH1 0x60 PUSH2 0x77B DUP5 DUP3 DUP6 ADD PUSH2 0x6A2 JUMP JUMPDEST PUSH1 0x60 DUP4 ADD MSTORE POP PUSH1 0x80 PUSH2 0x78F DUP5 DUP3 DUP6 ADD PUSH2 0x857 JUMP JUMPDEST PUSH1 0x80 DUP4 ADD MSTORE POP PUSH1 0xA0 PUSH2 0x7A3 DUP5 DUP3 DUP6 ADD PUSH2 0x857 JUMP JUMPDEST PUSH1 0xA0 DUP4 ADD MSTORE POP SWAP3 SWAP2 POP POP JUMP JUMPDEST PUSH1 0x0 PUSH1 0xA0 DUP3 DUP5 SUB SLT ISZERO PUSH2 0x7C5 JUMPI PUSH2 0x7C4 PUSH2 0xE09 JUMP JUMPDEST JUMPDEST PUSH2 0x7CF PUSH1 0xA0 PUSH2 0xBF6 JUMP JUMPDEST SWAP1 POP PUSH1 0x0 PUSH2 0x7DF DUP5 DUP3 DUP6 ADD PUSH2 0x86C JUMP JUMPDEST PUSH1 0x0 DUP4 ADD MSTORE POP PUSH1 0x20 DUP3 ADD MLOAD PUSH8 0xFFFFFFFFFFFFFFFF DUP2 GT ISZERO PUSH2 0x803 JUMPI PUSH2 0x802 PUSH2 0xE0E JUMP JUMPDEST JUMPDEST PUSH2 0x80F DUP5 DUP3 DUP6 ADD PUSH2 0x6E1 JUMP JUMPDEST PUSH1 0x20 DUP4 ADD MSTORE POP PUSH1 0x40 PUSH2 0x823 DUP5 DUP3 DUP6 ADD PUSH2 0x6CC JUMP JUMPDEST PUSH1 0x40 DUP4 ADD MSTORE POP PUSH1 0x60 PUSH2 0x837 DUP5 DUP3 DUP6 ADD PUSH2 0x86C JUMP JUMPDEST PUSH1 0x60 DUP4 ADD MSTORE POP PUSH1 0x80 PUSH2 0x84B DUP5 DUP3 DUP6 ADD PUSH2 0x68D JUMP JUMPDEST PUSH1 0x80 DUP4 ADD MSTORE POP SWAP3 SWAP2 POP POP JUMP JUMPDEST PUSH1 0x0 DUP2 CALLDATALOAD SWAP1 POP PUSH2 0x866 DUP2 PUSH2 0xFED JUMP JUMPDEST SWAP3 SWAP2 POP POP JUMP JUMPDEST PUSH1 0x0 DUP2 MLOAD SWAP1 POP PUSH2 0x87B DUP2 PUSH2 0xFED JUMP JUMPDEST SWAP3 SWAP2 POP POP JUMP JUMPDEST PUSH1 0x0 PUSH1 0xC0 DUP3 DUP5 SUB SLT ISZERO PUSH2 0x897 JUMPI PUSH2 0x896 PUSH2 0xE1D JUMP JUMPDEST JUMPDEST PUSH1 0x0 PUSH2 0x8A5 DUP5 DUP3 DUP6 ADD PUSH2 0x70F JUMP JUMPDEST SWAP2 POP POP SWAP3 SWAP2 POP POP JUMP JUMPDEST PUSH1 0x0 PUSH1 0x20 DUP3 DUP5 SUB SLT ISZERO PUSH2 0x8C4 JUMPI PUSH2 0x8C3 PUSH2 0xE1D JUMP JUMPDEST JUMPDEST PUSH1 0x0 DUP3 ADD MLOAD PUSH8 0xFFFFFFFFFFFFFFFF DUP2 GT ISZERO PUSH2 0x8E2 JUMPI PUSH2 0x8E1 PUSH2 0xE18 JUMP JUMPDEST JUMPDEST PUSH2 0x8EE DUP5 DUP3 DUP6 ADD PUSH2 0x7AF JUMP JUMPDEST SWAP2 POP POP SWAP3 SWAP2 POP POP JUMP JUMPDEST PUSH1 0x0 PUSH1 0x20 DUP3 DUP5 SUB SLT ISZERO PUSH2 0x90D JUMPI PUSH2 0x90C PUSH2 0xE1D JUMP JUMPDEST JUMPDEST PUSH1 0x0 PUSH2 0x91B DUP5 DUP3 DUP6 ADD PUSH2 0x857 JUMP JUMPDEST SWAP2 POP POP SWAP3 SWAP2 POP POP JUMP JUMPDEST PUSH1 0x0 DUP1 PUSH1 0x0 PUSH1 0x60 DUP5 DUP7 SUB SLT ISZERO PUSH2 0x93D JUMPI PUSH2 0x93C PUSH2 0xE1D JUMP JUMPDEST JUMPDEST PUSH1 0x0 PUSH2 0x94B DUP7 DUP3 DUP8 ADD PUSH2 0x857 JUMP JUMPDEST SWAP4 POP POP PUSH1 0x20 PUSH2 0x95C DUP7 DUP3 DUP8 ADD PUSH2 0x6B7 JUMP JUMPDEST SWAP3 POP POP PUSH1 0x40 PUSH2 0x96D DUP7 DUP3 DUP8 ADD PUSH2 0x857 JUMP JUMPDEST SWAP2 POP POP SWAP3 POP SWAP3 POP SWAP3 JUMP JUMPDEST PUSH2 0x980 DUP2 PUSH2 0xC6F JUMP JUMPDEST DUP3 MSTORE POP POP JUMP JUMPDEST PUSH2 0x98F DUP2 PUSH2 0xCB8 JUMP JUMPDEST DUP3 MSTORE POP POP JUMP JUMPDEST PUSH1 0x0 PUSH2 0x9A2 PUSH1 0x2E DUP4 PUSH2 0xC4C JUMP JUMPDEST SWAP2 POP PUSH2 0x9AD DUP3 PUSH2 0xE33 JUMP JUMPDEST PUSH1 0x40 DUP3 ADD SWAP1 POP SWAP2 SWAP1 POP JUMP JUMPDEST PUSH1 0x0 PUSH2 0x9C5 PUSH1 0x35 DUP4 PUSH2 0xC4C JUMP JUMPDEST SWAP2 POP PUSH2 0x9D0 DUP3 PUSH2 0xE82 JUMP JUMPDEST PUSH1 0x40 DUP3 ADD SWAP1 POP SWAP2 SWAP1 POP JUMP JUMPDEST PUSH1 0x0 PUSH2 0x9E8 PUSH1 0x2E DUP4 PUSH2 0xC4C JUMP JUMPDEST SWAP2 POP PUSH2 0x9F3 DUP3 PUSH2 0xED1 JUMP JUMPDEST PUSH1 0x40 DUP3 ADD SWAP1 POP SWAP2 SWAP1 POP JUMP JUMPDEST PUSH1 0x0 PUSH2 0xA0B PUSH1 0x13 DUP4 PUSH2 0xC4C JUMP JUMPDEST SWAP2 POP PUSH2 0xA16 DUP3 PUSH2 0xF20 JUMP JUMPDEST PUSH1 0x20 DUP3 ADD SWAP1 POP SWAP2 SWAP1 POP JUMP JUMPDEST PUSH1 0x0 PUSH2 0xA2E PUSH1 0x13 DUP4 PUSH2 0xC4C JUMP JUMPDEST SWAP2 POP PUSH2 0xA39 DUP3 PUSH2 0xF49 JUMP JUMPDEST PUSH1 0x20 DUP3 ADD SWAP1 POP SWAP2 SWAP1 POP JUMP JUMPDEST PUSH1 0x0 PUSH2 0xA51 PUSH1 0x1F DUP4 PUSH2 0xC4C JUMP JUMPDEST SWAP2 POP PUSH2 0xA5C DUP3 PUSH2 0xF72 JUMP JUMPDEST PUSH1 0x20 DUP3 ADD SWAP1 POP SWAP2 SWAP1 POP JUMP JUMPDEST PUSH1 0xC0 DUP3 ADD PUSH1 0x0 DUP3 ADD MLOAD PUSH2 0xA7D PUSH1 0x0 DUP6 ADD DUP3 PUSH2 0xAE2 JUMP JUMPDEST POP PUSH1 0x20 DUP3 ADD MLOAD PUSH2 0xA90 PUSH1 0x20 DUP6 ADD DUP3 PUSH2 0xAE2 JUMP JUMPDEST POP PUSH1 0x40 DUP3 ADD MLOAD PUSH2 0xAA3 PUSH1 0x40 DUP6 ADD DUP3 PUSH2 0x986 JUMP JUMPDEST POP PUSH1 0x60 DUP3 ADD MLOAD PUSH2 0xAB6 PUSH1 0x60 DUP6 ADD DUP3 PUSH2 0x977 JUMP JUMPDEST POP PUSH1 0x80 DUP3 ADD MLOAD PUSH2 0xAC9 PUSH1 0x80 DUP6 ADD DUP3 PUSH2 0xAE2 JUMP JUMPDEST POP PUSH1 0xA0 DUP3 ADD MLOAD PUSH2 0xADC PUSH1 0xA0 DUP6 ADD DUP3 PUSH2 0xAE2 JUMP JUMPDEST POP POP POP POP JUMP JUMPDEST PUSH2 0xAEB DUP2 PUSH2 0xCAE JUMP JUMPDEST DUP3 MSTORE POP POP JUMP JUMPDEST PUSH2 0xAFA DUP2 PUSH2 0xCAE JUMP JUMPDEST DUP3 MSTORE POP POP JUMP JUMPDEST PUSH1 0x0 PUSH1 0x20 DUP3 ADD SWAP1 POP DUP2 DUP2 SUB PUSH1 0x0 DUP4 ADD MSTORE PUSH2 0xB19 DUP2 PUSH2 0x995 JUMP JUMPDEST SWAP1 POP SWAP2 SWAP1 POP JUMP JUMPDEST PUSH1 0x0 PUSH1 0x20 DUP3 ADD SWAP1 POP DUP2 DUP2 SUB PUSH1 0x0 DUP4 ADD MSTORE PUSH2 0xB39 DUP2 PUSH2 0x9B8 JUMP JUMPDEST SWAP1 POP SWAP2 SWAP1 POP JUMP JUMPDEST PUSH1 0x0 PUSH1 0x20 DUP3 ADD SWAP1 POP DUP2 DUP2 SUB PUSH1 0x0 DUP4 ADD MSTORE PUSH2 0xB59 DUP2 PUSH2 0x9DB JUMP JUMPDEST SWAP1 POP SWAP2 SWAP1 POP JUMP JUMPDEST PUSH1 0x0 PUSH1 0x20 DUP3 ADD SWAP1 POP DUP2 DUP2 SUB PUSH1 0x0 DUP4 ADD MSTORE PUSH2 0xB79 DUP2 PUSH2 0x9FE JUMP JUMPDEST SWAP1 POP SWAP2 SWAP1 POP JUMP JUMPDEST PUSH1 0x0 PUSH1 0x20 DUP3 ADD SWAP1 POP DUP2 DUP2 SUB PUSH1 0x0 DUP4 ADD MSTORE PUSH2 0xB99 DUP2 PUSH2 0xA21 JUMP JUMPDEST SWAP1 POP SWAP2 SWAP1 POP JUMP JUMPDEST PUSH1 0x0 PUSH1 0x20 DUP3 ADD SWAP1 POP DUP2 DUP2 SUB PUSH1 0x0 DUP4 ADD MSTORE PUSH2 0xBB9 DUP2 PUSH2 0xA44 JUMP JUMPDEST SWAP1 POP SWAP2 SWAP1 POP JUMP JUMPDEST PUSH1 0x0 PUSH1 0xC0 DUP3 ADD SWAP1 POP PUSH2 0xBD5 PUSH1 0x0 DUP4 ADD DUP5 PUSH2 0xA67 JUMP JUMPDEST SWAP3 SWAP2 POP POP JUMP JUMPDEST PUSH1 0x0 PUSH1 0x20 DUP3 ADD SWAP1 POP PUSH2 0xBF0 PUSH1 0x0 DUP4 ADD DUP5 PUSH2 0xAF1 JUMP JUMPDEST SWAP3 SWAP2 POP POP JUMP JUMPDEST PUSH1 0x0 PUSH2 0xC00 PUSH2 0xC11 JUMP JUMPDEST SWAP1 POP PUSH2 0xC0C DUP3 DUP3 PUSH2 0xCFD JUMP JUMPDEST SWAP2 SWAP1 POP JUMP JUMPDEST PUSH1 0x0 PUSH1 0x40 MLOAD SWAP1 POP SWAP1 JUMP JUMPDEST PUSH1 0x0 PUSH8 0xFFFFFFFFFFFFFFFF DUP3 GT ISZERO PUSH2 0xC36 JUMPI PUSH2 0xC35 PUSH2 0xDD5 JUMP JUMPDEST JUMPDEST PUSH2 0xC3F DUP3 PUSH2 0xE22 JUMP JUMPDEST SWAP1 POP PUSH1 0x20 DUP2 ADD SWAP1 POP SWAP2 SWAP1 POP JUMP JUMPDEST PUSH1 0x0 DUP3 DUP3 MSTORE PUSH1 0x20 DUP3 ADD SWAP1 POP SWAP3 SWAP2 POP POP JUMP JUMPDEST PUSH1 0x0 PUSH2 0xC68 DUP3 PUSH2 0xC8E JUMP JUMPDEST SWAP1 POP SWAP2 SWAP1 POP JUMP JUMPDEST PUSH1 0x0 DUP2 ISZERO ISZERO SWAP1 POP SWAP2 SWAP1 POP JUMP JUMPDEST PUSH1 0x0 DUP2 SWAP1 POP PUSH2 0xC89 DUP3 PUSH2 0xF9B JUMP JUMPDEST SWAP2 SWAP1 POP JUMP JUMPDEST PUSH1 0x0 PUSH20 0xFFFFFFFFFFFFFFFFFFFFFFFFFFFFFFFFFFFFFFFF DUP3 AND SWAP1 POP SWAP2 SWAP1 POP JUMP JUMPDEST PUSH1 0x0 DUP2 SWAP1 POP SWAP2 SWAP1 POP JUMP JUMPDEST PUSH1 0x0 PUSH2 0xCC3 DUP3 PUSH2 0xC7B JUMP JUMPDEST SWAP1 POP SWAP2 SWAP1 POP JUMP JUMPDEST PUSH1 0x0 JUMPDEST DUP4 DUP2 LT ISZERO PUSH2 0xCE8 JUMPI DUP1 DUP3 ADD MLOAD DUP2 DUP5 ADD MSTORE PUSH1 0x20 DUP2 ADD SWAP1 POP PUSH2 0xCCD JUMP JUMPDEST DUP4 DUP2 GT ISZERO PUSH2 0xCF7 JUMPI PUSH1 0x0 DUP5 DUP5 ADD MSTORE JUMPDEST POP POP POP POP JUMP JUMPDEST PUSH2 0xD06 DUP3 PUSH2 0xE22 JUMP JUMPDEST DUP2 ADD DUP2 DUP2 LT PUSH8 0xFFFFFFFFFFFFFFFF DUP3 GT OR ISZERO PUSH2 0xD25 JUMPI PUSH2 0xD24 PUSH2 0xDD5 JUMP JUMPDEST JUMPDEST DUP1 PUSH1 0x40 MSTORE POP POP POP JUMP JUMPDEST PUSH1 0x0 PUSH2 0xD39 DUP3 PUSH2 0xCAE JUMP JUMPDEST SWAP2 POP PUSH32 0xFFFFFFFFFFFFFFFFFFFFFFFFFFFFFFFFFFFFFFFFFFFFFFFFFFFFFFFFFFFFFFFF DUP3 EQ ISZERO PUSH2 0xD6C JUMPI PUSH2 0xD6B PUSH2 0xD77 JUMP JUMPDEST JUMPDEST PUSH1 0x1 DUP3 ADD SWAP1 POP SWAP2 SWAP1 POP JUMP JUMPDEST PUSH32 0x4E487B7100000000000000000000000000000000000000000000000000000000 PUSH1 0x0 MSTORE PUSH1 0x11 PUSH1 0x4 MSTORE PUSH1 0x24 PUSH1 0x0 REVERT JUMPDEST PUSH32 0x4E487B7100000000000000000000000000000000000000000000000000000000 PUSH1 0x0 MSTORE PUSH1 0x21 PUSH1 0x4 MSTORE PUSH1 0x24 PUSH1 0x0 REVERT JUMPDEST PUSH32 0x4E487B7100000000000000000000000000000000000000000000000000000000 PUSH1 0x0 MSTORE PUSH1 0x41 PUSH1 0x4 MSTORE PUSH1 0x24 PUSH1 0x0 REVERT JUMPDEST PUSH1 0x0 DUP1 REVERT JUMPDEST PUSH1 0x0 DUP1 REVERT JUMPDEST PUSH1 0x0 DUP1 REVERT JUMPDEST PUSH1 0x0 DUP1 REVERT JUMPDEST PUSH1 0x0 DUP1 REVERT JUMPDEST PUSH1 0x0 DUP1 REVERT JUMPDEST PUSH1 0x0 PUSH1 0x1F NOT PUSH1 0x1F DUP4 ADD AND SWAP1 POP SWAP2 SWAP1 POP JUMP JUMPDEST PUSH32 0x437573746F6D657220616E6420636C61696D20706F6C69637920686176652074 PUSH1 0x0 DUP3 ADD MSTORE PUSH32 0x6F206265207468652073616D652E000000000000000000000000000000000000 PUSH1 0x20 DUP3 ADD MSTORE POP JUMP JUMPDEST PUSH32 0x506F6C69637920646174652068617320657870697265642C20706C6561736520 PUSH1 0x0 DUP3 ADD MSTORE PUSH32 0x75706461746520796F757220636F6E74726163742E0000000000000000000000 PUSH1 0x20 DUP3 ADD MSTORE POP JUMP JUMPDEST PUSH32 0x437573746F6D657220616E6420636C61696D20706F6C6963792063616E6E6F74 PUSH1 0x0 DUP3 ADD MSTORE PUSH32 0x20626520646966666572656E742E000000000000000000000000000000000000 PUSH1 0x20 DUP3 ADD MSTORE POP JUMP JUMPDEST PUSH32 0x437573746F6D6572206E6F7420666F756E642E00000000000000000000000000 PUSH1 0x0 DUP3 ADD MSTORE POP JUMP JUMPDEST PUSH32 0x506F6C6963792068617320657870697265642E00000000000000000000000000 PUSH1 0x0 DUP3 ADD MSTORE POP JUMP JUMPDEST PUSH32 0x437573746F6D6572206964656E74697479206973206E6F742076616C69642E00 PUSH1 0x0 DUP3 ADD MSTORE POP JUMP JUMPDEST PUSH1 0x2 DUP2 LT PUSH2 0xFAC JUMPI PUSH2 0xFAB PUSH2 0xDA6 JUMP JUMPDEST JUMPDEST POP JUMP JUMPDEST PUSH2 0xFB8 DUP2 PUSH2 0xC5D JUMP JUMPDEST DUP2 EQ PUSH2 0xFC3 JUMPI PUSH1 0x0 DUP1 REVERT JUMPDEST POP JUMP JUMPDEST PUSH2 0xFCF DUP2 PUSH2 0xC6F JUMP JUMPDEST DUP2 EQ PUSH2 0xFDA JUMPI PUSH1 0x0 DUP1 REVERT JUMPDEST POP JUMP JUMPDEST PUSH1 0x2 DUP2 LT PUSH2 0xFEA JUMPI PUSH1 0x0 DUP1 REVERT JUMPDEST POP JUMP JUMPDEST PUSH2 0xFF6 DUP2 PUSH2 0xCAE JUMP JUMPDEST DUP2 EQ PUSH2 0x1001 JUMPI PUSH1 0x0 DUP1 REVERT JUMPDEST POP JUMP INVALID LOG2 PUSH5 0x6970667358 0x22 SLT KECCAK256 PUSH5 0xC4735E3E86 0x4B DELEGATECALL SIGNEXTEND 0xE3 PC 0xD6 0xC2 PUSH9 0x20AEAD859CCEC0758B DUP6 0x23 0xAD 0x2A ADD NOT 0x27 PUSH2 0xB664 PUSH20 0x6F6C634300080700336080604052600080553480 ISZERO PUSH3 0x15 JUMPI PUSH1 0x0 DUP1 REVERT JUMPDEST POP PUSH3 0x76 PUSH1 0x40 MLOAD DUP1 PUSH1 0x40 ADD PUSH1 0x40 MSTORE DUP1 PUSH1 0x3 DUP2 MSTORE PUSH1 0x20 ADD PUSH32 0x546F6D0000000000000000000000000000000000000000000000000000000000 DUP2 MSTORE POP PUSH1 0x1 PUSH2 0x12C PUSH20 0x5B38DA6A701C568545DCFCB03FCB875F56BEDDC4 PUSH3 0x7C PUSH1 0x20 SHL PUSH1 0x20 SHR JUMP JUMPDEST PUSH3 0x46F JUMP JUMPDEST PUSH1 0x0 DUP1 DUP2 SLOAD DUP1 SWAP3 SWAP2 SWAP1 PUSH3 0x90 SWAP1 PUSH3 0x394 JUMP JUMPDEST SWAP2 SWAP1 POP SSTORE POP PUSH1 0x1 PUSH1 0x40 MLOAD DUP1 PUSH1 0xA0 ADD PUSH1 0x40 MSTORE DUP1 PUSH1 0x0 SLOAD DUP2 MSTORE PUSH1 0x20 ADD DUP7 DUP2 MSTORE PUSH1 0x20 ADD DUP6 PUSH1 0x1 DUP2 GT ISZERO PUSH3 0xC6 JUMPI PUSH3 0xC5 PUSH3 0x411 JUMP JUMPDEST JUMPDEST DUP2 MSTORE PUSH1 0x20 ADD PUSH3 0x15180 DUP6 PUSH3 0xDC SWAP2 SWAP1 PUSH3 0x2F3 JUMP JUMPDEST TIMESTAMP PUSH3 0xE9 SWAP2 SWAP1 PUSH3 0x296 JUMP JUMPDEST DUP2 MSTORE PUSH1 0x20 ADD DUP4 PUSH20 0xFFFFFFFFFFFFFFFFFFFFFFFFFFFFFFFFFFFFFFFF AND DUP2 MSTORE POP SWAP1 DUP1 PUSH1 0x1 DUP2 SLOAD ADD DUP1 DUP3 SSTORE DUP1 SWAP2 POP POP PUSH1 0x1 SWAP1 SUB SWAP1 PUSH1 0x0 MSTORE PUSH1 0x20 PUSH1 0x0 KECCAK256 SWAP1 PUSH1 0x5 MUL ADD PUSH1 0x0 SWAP1 SWAP2 SWAP1 SWAP2 SWAP1 SWAP2 POP PUSH1 0x0 DUP3 ADD MLOAD DUP2 PUSH1 0x0 ADD SSTORE PUSH1 0x20 DUP3 ADD MLOAD DUP2 PUSH1 0x1 ADD SWAP1 DUP1 MLOAD SWAP1 PUSH1 0x20 ADD SWAP1 PUSH3 0x159 SWAP3 SWAP2 SWAP1 PUSH3 0x1E6 JUMP JUMPDEST POP PUSH1 0x40 DUP3 ADD MLOAD DUP2 PUSH1 0x2 ADD PUSH1 0x0 PUSH2 0x100 EXP DUP2 SLOAD DUP2 PUSH1 0xFF MUL NOT AND SWAP1 DUP4 PUSH1 0x1 DUP2 GT ISZERO PUSH3 0x188 JUMPI PUSH3 0x187 PUSH3 0x411 JUMP JUMPDEST JUMPDEST MUL OR SWAP1 SSTORE POP PUSH1 0x60 DUP3 ADD MLOAD DUP2 PUSH1 0x3 ADD SSTORE PUSH1 0x80 DUP3 ADD MLOAD DUP2 PUSH1 0x4 ADD PUSH1 0x0 PUSH2 0x100 EXP DUP2 SLOAD DUP2 PUSH20 0xFFFFFFFFFFFFFFFFFFFFFFFFFFFFFFFFFFFFFFFF MUL NOT AND SWAP1 DUP4 PUSH20 0xFFFFFFFFFFFFFFFFFFFFFFFFFFFFFFFFFFFFFFFF AND MUL OR SWAP1 SSTORE POP POP POP POP POP POP POP JUMP JUMPDEST DUP3 DUP1 SLOAD PUSH3 0x1F4 SWAP1 PUSH3 0x35E JUMP JUMPDEST SWAP1 PUSH1 0x0 MSTORE PUSH1 0x20 PUSH1 0x0 KECCAK256 SWAP1 PUSH1 0x1F ADD PUSH1 0x20 SWAP1 DIV DUP2 ADD SWAP3 DUP3 PUSH3 0x218 JUMPI PUSH1 0x0 DUP6 SSTORE PUSH3 0x264 JUMP JUMPDEST DUP3 PUSH1 0x1F LT PUSH3 0x233 JUMPI DUP1 MLOAD PUSH1 0xFF NOT AND DUP4 DUP1 ADD OR DUP6 SSTORE PUSH3 0x264 JUMP JUMPDEST DUP3 DUP1 ADD PUSH1 0x1 ADD DUP6 SSTORE DUP3 ISZERO PUSH3 0x264 JUMPI SWAP2 DUP3 ADD JUMPDEST DUP3 DUP2 GT ISZERO PUSH3 0x263 JUMPI DUP3 MLOAD DUP3 SSTORE SWAP2 PUSH1 0x20 ADD SWAP2 SWAP1 PUSH1 0x1 ADD SWAP1 PUSH3 0x246 JUMP JUMPDEST JUMPDEST POP SWAP1 POP PUSH3 0x273 SWAP2 SWAP1 PUSH3 0x277 JUMP JUMPDEST POP SWAP1 JUMP JUMPDEST JUMPDEST DUP1 DUP3 GT ISZERO PUSH3 0x292 JUMPI PUSH1 0x0 DUP2 PUSH1 0x0 SWAP1 SSTORE POP PUSH1 0x1 ADD PUSH3 0x278 JUMP JUMPDEST POP SWAP1 JUMP JUMPDEST PUSH1 0x0 PUSH3 0x2A3 DUP3 PUSH3 0x354 JUMP JUMPDEST SWAP2 POP PUSH3 0x2B0 DUP4 PUSH3 0x354 JUMP JUMPDEST SWAP3 POP DUP3 PUSH32 0xFFFFFFFFFFFFFFFFFFFFFFFFFFFFFFFFFFFFFFFFFFFFFFFFFFFFFFFFFFFFFFFF SUB DUP3 GT ISZERO PUSH3 0x2E8 JUMPI PUSH3 0x2E7 PUSH3 0x3E2 JUMP JUMPDEST JUMPDEST DUP3 DUP3 ADD SWAP1 POP SWAP3 SWAP2 POP POP JUMP JUMPDEST PUSH1 0x0 PUSH3 0x300 DUP3 PUSH3 0x354 JUMP JUMPDEST SWAP2 POP PUSH3 0x30D DUP4 PUSH3 0x354 JUMP JUMPDEST SWAP3 POP DUP2 PUSH32 0xFFFFFFFFFFFFFFFFFFFFFFFFFFFFFFFFFFFFFFFFFFFFFFFFFFFFFFFFFFFFFFFF DIV DUP4 GT DUP3 ISZERO ISZERO AND ISZERO PUSH3 0x349 JUMPI PUSH3 0x348 PUSH3 0x3E2 JUMP JUMPDEST JUMPDEST DUP3 DUP3 MUL SWAP1 POP SWAP3 SWAP2 POP POP JUMP JUMPDEST PUSH1 0x0 DUP2 SWAP1 POP SWAP2 SWAP1 POP JUMP JUMPDEST PUSH1 0x0 PUSH1 0x2 DUP3 DIV SWAP1 POP PUSH1 0x1 DUP3 AND DUP1 PUSH3 0x377 JUMPI PUSH1 0x7F DUP3 AND SWAP2 POP JUMPDEST PUSH1 0x20 DUP3 LT DUP2 EQ ISZERO PUSH3 0x38E JUMPI PUSH3 0x38D PUSH3 0x440 JUMP JUMPDEST JUMPDEST POP SWAP2 SWAP1 POP JUMP JUMPDEST PUSH1 0x0 PUSH3 0x3A1 DUP3 PUSH3 0x354 JUMP JUMPDEST SWAP2 POP PUSH32 0xFFFFFFFFFFFFFFFFFFFFFFFFFFFFFFFFFFFFFFFFFFFFFFFFFFFFFFFFFFFFFFFF DUP3 EQ ISZERO PUSH3 0x3D7 JUMPI PUSH3 0x3D6 PUSH3 0x3E2 JUMP JUMPDEST JUMPDEST PUSH1 0x1 DUP3 ADD SWAP1 POP SWAP2 SWAP1 POP JUMP JUMPDEST PUSH32 0x4E487B7100000000000000000000000000000000000000000000000000000000 PUSH1 0x0 MSTORE PUSH1 0x11 PUSH1 0x4 MSTORE PUSH1 0x24 PUSH1 0x0 REVERT JUMPDEST PUSH32 0x4E487B7100000000000000000000000000000000000000000000000000000000 PUSH1 0x0 MSTORE PUSH1 0x21 PUSH1 0x4 MSTORE PUSH1 0x24 PUSH1 0x0 REVERT JUMPDEST PUSH32 0x4E487B7100000000000000000000000000000000000000000000000000000000 PUSH1 0x0 MSTORE PUSH1 0x22 PUSH1 0x4 MSTORE PUSH1 0x24 PUSH1 0x0 REVERT JUMPDEST PUSH2 0xDB2 DUP1 PUSH3 0x47F PUSH1 0x0 CODECOPY PUSH1 0x0 RETURN INVALID PUSH1 0x80 PUSH1 0x40 MSTORE CALLVALUE DUP1 ISZERO PUSH2 0x10 JUMPI PUSH1 0x0 DUP1 REVERT JUMPDEST POP PUSH1 0x4 CALLDATASIZE LT PUSH2 0x41 JUMPI PUSH1 0x0 CALLDATALOAD PUSH1 0xE0 SHR DUP1 PUSH4 0x196502C9 EQ PUSH2 0x46 JUMPI DUP1 PUSH4 0xCEE2C181 EQ PUSH2 0x76 JUMPI DUP1 PUSH4 0xEB876F27 EQ PUSH2 0x92 JUMPI JUMPDEST PUSH1 0x0 DUP1 REVERT JUMPDEST PUSH2 0x60 PUSH1 0x4 DUP1 CALLDATASIZE SUB DUP2 ADD SWAP1 PUSH2 0x5B SWAP2 SWAP1 PUSH2 0x7DE JUMP JUMPDEST PUSH2 0xC2 JUMP JUMPDEST PUSH1 0x40 MLOAD PUSH2 0x6D SWAP2 SWAP1 PUSH2 0x960 JUMP JUMPDEST PUSH1 0x40 MLOAD DUP1 SWAP2 SUB SWAP1 RETURN JUMPDEST PUSH2 0x90 PUSH1 0x4 DUP1 CALLDATASIZE SUB DUP2 ADD SWAP1 PUSH2 0x8B SWAP2 SWAP1 PUSH2 0x72E JUMP JUMPDEST PUSH2 0x25E JUMP JUMPDEST STOP JUMPDEST PUSH2 0xAC PUSH1 0x4 DUP1 CALLDATASIZE SUB DUP2 ADD SWAP1 PUSH2 0xA7 SWAP2 SWAP1 PUSH2 0x7B1 JUMP JUMPDEST PUSH2 0x3BA JUMP JUMPDEST PUSH1 0x40 MLOAD PUSH2 0xB9 SWAP2 SWAP1 PUSH2 0x97B JUMP JUMPDEST PUSH1 0x40 MLOAD DUP1 SWAP2 SUB SWAP1 RETURN JUMPDEST PUSH1 0x0 DUP1 PUSH1 0x0 SWAP1 POP JUMPDEST PUSH1 0x1 DUP1 SLOAD SWAP1 POP DUP2 LT ISZERO PUSH2 0x24F JUMPI DUP7 PUSH1 0x1 DUP3 DUP2 SLOAD DUP2 LT PUSH2 0xEC JUMPI PUSH2 0xEB PUSH2 0xCA7 JUMP JUMPDEST JUMPDEST SWAP1 PUSH1 0x0 MSTORE PUSH1 0x20 PUSH1 0x0 KECCAK256 SWAP1 PUSH1 0x5 MUL ADD PUSH1 0x0 ADD SLOAD EQ ISZERO PUSH2 0x23C JUMPI DUP6 PUSH1 0x1 DUP3 DUP2 SLOAD DUP2 LT PUSH2 0x119 JUMPI PUSH2 0x118 PUSH2 0xCA7 JUMP JUMPDEST JUMPDEST SWAP1 PUSH1 0x0 MSTORE PUSH1 0x20 PUSH1 0x0 KECCAK256 SWAP1 PUSH1 0x5 MUL ADD PUSH1 0x1 ADD SWAP1 DUP1 MLOAD SWAP1 PUSH1 0x20 ADD SWAP1 PUSH2 0x13D SWAP3 SWAP2 SWAP1 PUSH2 0x585 JUMP JUMPDEST POP DUP5 PUSH1 0x1 DUP3 DUP2 SLOAD DUP2 LT PUSH2 0x153 JUMPI PUSH2 0x152 PUSH2 0xCA7 JUMP JUMPDEST JUMPDEST SWAP1 PUSH1 0x0 MSTORE PUSH1 0x20 PUSH1 0x0 KECCAK256 SWAP1 PUSH1 0x5 MUL ADD PUSH1 0x2 ADD PUSH1 0x0 PUSH2 0x100 EXP DUP2 SLOAD DUP2 PUSH1 0xFF MUL NOT AND SWAP1 DUP4 PUSH1 0x1 DUP2 GT ISZERO PUSH2 0x186 JUMPI PUSH2 0x185 PUSH2 0xC49 JUMP JUMPDEST JUMPDEST MUL OR SWAP1 SSTORE POP PUSH3 0x15180 DUP5 PUSH2 0x19A SWAP2 SWAP1 PUSH2 0xA65 JUMP JUMPDEST TIMESTAMP PUSH2 0x1A5 SWAP2 SWAP1 PUSH2 0xA0F JUMP JUMPDEST PUSH1 0x1 DUP3 DUP2 SLOAD DUP2 LT PUSH2 0x1B9 JUMPI PUSH2 0x1B8 PUSH2 0xCA7 JUMP JUMPDEST JUMPDEST SWAP1 PUSH1 0x0 MSTORE PUSH1 0x20 PUSH1 0x0 KECCAK256 SWAP1 PUSH1 0x5 MUL ADD PUSH1 0x3 ADD DUP2 SWAP1 SSTORE POP DUP3 PUSH1 0x1 DUP3 DUP2 SLOAD DUP2 LT PUSH2 0x1E3 JUMPI PUSH2 0x1E2 PUSH2 0xCA7 JUMP JUMPDEST JUMPDEST SWAP1 PUSH1 0x0 MSTORE PUSH1 0x20 PUSH1 0x0 KECCAK256 SWAP1 PUSH1 0x5 MUL ADD PUSH1 0x4 ADD PUSH1 0x0 PUSH2 0x100 EXP DUP2 SLOAD DUP2 PUSH20 0xFFFFFFFFFFFFFFFFFFFFFFFFFFFFFFFFFFFFFFFF MUL NOT AND SWAP1 DUP4 PUSH20 0xFFFFFFFFFFFFFFFFFFFFFFFFFFFFFFFFFFFFFFFF AND MUL OR SWAP1 SSTORE POP PUSH1 0x1 SWAP2 POP POP PUSH2 0x255 JUMP JUMPDEST DUP1 DUP1 PUSH2 0x247 SWAP1 PUSH2 0xBD1 JUMP JUMPDEST SWAP2 POP POP PUSH2 0xCA JUMP JUMPDEST POP PUSH1 0x0 SWAP1 POP JUMPDEST SWAP6 SWAP5 POP POP POP POP POP JUMP JUMPDEST PUSH1 0x0 DUP1 DUP2 SLOAD DUP1 SWAP3 SWAP2 SWAP1 PUSH2 0x270 SWAP1 PUSH2 0xBD1 JUMP JUMPDEST SWAP2 SWAP1 POP SSTORE POP PUSH1 0x1 PUSH1 0x40 MLOAD DUP1 PUSH1 0xA0 ADD PUSH1 0x40 MSTORE DUP1 PUSH1 0x0 SLOAD DUP2 MSTORE PUSH1 0x20 ADD DUP7 DUP2 MSTORE PUSH1 0x20 ADD DUP6 PUSH1 0x1 DUP2 GT ISZERO PUSH2 0x2A3 JUMPI PUSH2 0x2A2 PUSH2 0xC49 JUMP JUMPDEST JUMPDEST DUP2 MSTORE PUSH1 0x20 ADD PUSH3 0x15180 DUP6 PUSH2 0x2B7 SWAP2 SWAP1 PUSH2 0xA65 JUMP JUMPDEST TIMESTAMP PUSH2 0x2C2 SWAP2 SWAP1 PUSH2 0xA0F JUMP JUMPDEST DUP2 MSTORE PUSH1 0x20 ADD DUP4 PUSH20 0xFFFFFFFFFFFFFFFFFFFFFFFFFFFFFFFFFFFFFFFF AND DUP2 MSTORE POP SWAP1 DUP1 PUSH1 0x1 DUP2 SLOAD ADD DUP1 DUP3 SSTORE DUP1 SWAP2 POP POP PUSH1 0x1 SWAP1 SUB SWAP1 PUSH1 0x0 MSTORE PUSH1 0x20 PUSH1 0x0 KECCAK256 SWAP1 PUSH1 0x5 MUL ADD PUSH1 0x0 SWAP1 SWAP2 SWAP1 SWAP2 SWAP1 SWAP2 POP PUSH1 0x0 DUP3 ADD MLOAD DUP2 PUSH1 0x0 ADD SSTORE PUSH1 0x20 DUP3 ADD MLOAD DUP2 PUSH1 0x1 ADD SWAP1 DUP1 MLOAD SWAP1 PUSH1 0x20 ADD SWAP1 PUSH2 0x330 SWAP3 SWAP2 SWAP1 PUSH2 0x585 JUMP JUMPDEST POP PUSH1 0x40 DUP3 ADD MLOAD DUP2 PUSH1 0x2 ADD PUSH1 0x0 PUSH2 0x100 EXP DUP2 SLOAD DUP2 PUSH1 0xFF MUL NOT AND SWAP1 DUP4 PUSH1 0x1 DUP2 GT ISZERO PUSH2 0x35C JUMPI PUSH2 0x35B PUSH2 0xC49 JUMP JUMPDEST JUMPDEST MUL OR SWAP1 SSTORE POP PUSH1 0x60 DUP3 ADD MLOAD DUP2 PUSH1 0x3 ADD SSTORE PUSH1 0x80 DUP3 ADD MLOAD DUP2 PUSH1 0x4 ADD PUSH1 0x0 PUSH2 0x100 EXP DUP2 SLOAD DUP2 PUSH20 0xFFFFFFFFFFFFFFFFFFFFFFFFFFFFFFFFFFFFFFFF MUL NOT AND SWAP1 DUP4 PUSH20 0xFFFFFFFFFFFFFFFFFFFFFFFFFFFFFFFFFFFFFFFF AND MUL OR SWAP1 SSTORE POP POP POP POP POP POP POP JUMP JUMPDEST PUSH2 0x3C2 PUSH2 0x60B JUMP JUMPDEST PUSH1 0x0 JUMPDEST PUSH1 0x1 DUP1 SLOAD SWAP1 POP DUP2 LT ISZERO PUSH2 0x57E JUMPI DUP3 PUSH1 0x1 DUP3 DUP2 SLOAD DUP2 LT PUSH2 0x3E7 JUMPI PUSH2 0x3E6 PUSH2 0xCA7 JUMP JUMPDEST JUMPDEST SWAP1 PUSH1 0x0 MSTORE PUSH1 0x20 PUSH1 0x0 KECCAK256 SWAP1 PUSH1 0x5 MUL ADD PUSH1 0x0 ADD SLOAD EQ ISZERO PUSH2 0x56B JUMPI PUSH1 0x1 DUP2 DUP2 SLOAD DUP2 LT PUSH2 0x413 JUMPI PUSH2 0x412 PUSH2 0xCA7 JUMP JUMPDEST JUMPDEST SWAP1 PUSH1 0x0 MSTORE PUSH1 0x20 PUSH1 0x0 KECCAK256 SWAP1 PUSH1 0x5 MUL ADD PUSH1 0x40 MLOAD DUP1 PUSH1 0xA0 ADD PUSH1 0x40 MSTORE SWAP1 DUP2 PUSH1 0x0 DUP3 ADD SLOAD DUP2 MSTORE PUSH1 0x20 ADD PUSH1 0x1 DUP3 ADD DUP1 SLOAD PUSH2 0x446 SWAP1 PUSH2 0xB6E JUMP JUMPDEST DUP1 PUSH1 0x1F ADD PUSH1 0x20 DUP1 SWAP2 DIV MUL PUSH1 0x20 ADD PUSH1 0x40 MLOAD SWAP1 DUP2 ADD PUSH1 0x40 MSTORE DUP1 SWAP3 SWAP2 SWAP1 DUP2 DUP2 MSTORE PUSH1 0x20 ADD DUP3 DUP1 SLOAD PUSH2 0x472 SWAP1 PUSH2 0xB6E JUMP JUMPDEST DUP1 ISZERO PUSH2 0x4BF JUMPI DUP1 PUSH1 0x1F LT PUSH2 0x494 JUMPI PUSH2 0x100 DUP1 DUP4 SLOAD DIV MUL DUP4 MSTORE SWAP2 PUSH1 0x20 ADD SWAP2 PUSH2 0x4BF JUMP JUMPDEST DUP3 ADD SWAP2 SWAP1 PUSH1 0x0 MSTORE PUSH1 0x20 PUSH1 0x0 KECCAK256 SWAP1 JUMPDEST DUP2 SLOAD DUP2 MSTORE SWAP1 PUSH1 0x1 ADD SWAP1 PUSH1 0x20 ADD DUP1 DUP4 GT PUSH2 0x4A2 JUMPI DUP3 SWAP1 SUB PUSH1 0x1F AND DUP3 ADD SWAP2 JUMPDEST POP POP POP POP POP DUP2 MSTORE PUSH1 0x20 ADD PUSH1 0x2 DUP3 ADD PUSH1 0x0 SWAP1 SLOAD SWAP1 PUSH2 0x100 EXP SWAP1 DIV PUSH1 0xFF AND PUSH1 0x1 DUP2 GT ISZERO PUSH2 0x4ED JUMPI PUSH2 0x4EC PUSH2 0xC49 JUMP JUMPDEST JUMPDEST PUSH1 0x1 DUP2 GT ISZERO PUSH2 0x4FF JUMPI PUSH2 0x4FE PUSH2 0xC49 JUMP JUMPDEST JUMPDEST DUP2 MSTORE PUSH1 0x20 ADD PUSH1 0x3 DUP3 ADD SLOAD DUP2 MSTORE PUSH1 0x20 ADD PUSH1 0x4 DUP3 ADD PUSH1 0x0 SWAP1 SLOAD SWAP1 PUSH2 0x100 EXP SWAP1 DIV PUSH20 0xFFFFFFFFFFFFFFFFFFFFFFFFFFFFFFFFFFFFFFFF AND PUSH20 0xFFFFFFFFFFFFFFFFFFFFFFFFFFFFFFFFFFFFFFFF AND PUSH20 0xFFFFFFFFFFFFFFFFFFFFFFFFFFFFFFFFFFFFFFFF AND DUP2 MSTORE POP POP SWAP2 POP POP PUSH2 0x580 JUMP JUMPDEST DUP1 DUP1 PUSH2 0x576 SWAP1 PUSH2 0xBD1 JUMP JUMPDEST SWAP2 POP POP PUSH2 0x3C5 JUMP JUMPDEST POP JUMPDEST SWAP2 SWAP1 POP JUMP JUMPDEST DUP3 DUP1 SLOAD PUSH2 0x591 SWAP1 PUSH2 0xB6E JUMP JUMPDEST SWAP1 PUSH1 0x0 MSTORE PUSH1 0x20 PUSH1 0x0 KECCAK256 SWAP1 PUSH1 0x1F ADD PUSH1 0x20 SWAP1 DIV DUP2 ADD SWAP3 DUP3 PUSH2 0x5B3 JUMPI PUSH1 0x0 DUP6 SSTORE PUSH2 0x5FA JUMP JUMPDEST DUP3 PUSH1 0x1F LT PUSH2 0x5CC JUMPI DUP1 MLOAD PUSH1 0xFF NOT AND DUP4 DUP1 ADD OR DUP6 SSTORE PUSH2 0x5FA JUMP JUMPDEST DUP3 DUP1 ADD PUSH1 0x1 ADD DUP6 SSTORE DUP3 ISZERO PUSH2 0x5FA JUMPI SWAP2 DUP3 ADD JUMPDEST DUP3 DUP2 GT ISZERO PUSH2 0x5F9 JUMPI DUP3 MLOAD DUP3 SSTORE SWAP2 PUSH1 0x20 ADD SWAP2 SWAP1 PUSH1 0x1 ADD SWAP1 PUSH2 0x5DE JUMP JUMPDEST JUMPDEST POP SWAP1 POP PUSH2 0x607 SWAP2 SWAP1 PUSH2 0x662 JUMP JUMPDEST POP SWAP1 JUMP JUMPDEST PUSH1 0x40 MLOAD DUP1 PUSH1 0xA0 ADD PUSH1 0x40 MSTORE DUP1 PUSH1 0x0 DUP2 MSTORE PUSH1 0x20 ADD PUSH1 0x60 DUP2 MSTORE PUSH1 0x20 ADD PUSH1 0x0 PUSH1 0x1 DUP2 GT ISZERO PUSH2 0x638 JUMPI PUSH2 0x637 PUSH2 0xC49 JUMP JUMPDEST JUMPDEST DUP2 MSTORE PUSH1 0x20 ADD PUSH1 0x0 DUP2 MSTORE PUSH1 0x20 ADD PUSH1 0x0 PUSH20 0xFFFFFFFFFFFFFFFFFFFFFFFFFFFFFFFFFFFFFFFF AND DUP2 MSTORE POP SWAP1 JUMP JUMPDEST JUMPDEST DUP1 DUP3 GT ISZERO PUSH2 0x67B JUMPI PUSH1 0x0 DUP2 PUSH1 0x0 SWAP1 SSTORE POP PUSH1 0x1 ADD PUSH2 0x663 JUMP JUMPDEST POP SWAP1 JUMP JUMPDEST PUSH1 0x0 PUSH2 0x692 PUSH2 0x68D DUP5 PUSH2 0x9C2 JUMP JUMPDEST PUSH2 0x99D JUMP JUMPDEST SWAP1 POP DUP3 DUP2 MSTORE PUSH1 0x20 DUP2 ADD DUP5 DUP5 DUP5 ADD GT ISZERO PUSH2 0x6AE JUMPI PUSH2 0x6AD PUSH2 0xD0A JUMP JUMPDEST JUMPDEST PUSH2 0x6B9 DUP5 DUP3 DUP6 PUSH2 0xB2C JUMP JUMPDEST POP SWAP4 SWAP3 POP POP POP JUMP JUMPDEST PUSH1 0x0 DUP2 CALLDATALOAD SWAP1 POP PUSH2 0x6D0 DUP2 PUSH2 0xD3E JUMP JUMPDEST SWAP3 SWAP2 POP POP JUMP JUMPDEST PUSH1 0x0 DUP2 CALLDATALOAD SWAP1 POP PUSH2 0x6E5 DUP2 PUSH2 0xD55 JUMP JUMPDEST SWAP3 SWAP2 POP POP JUMP JUMPDEST PUSH1 0x0 DUP3 PUSH1 0x1F DUP4 ADD SLT PUSH2 0x700 JUMPI PUSH2 0x6FF PUSH2 0xD05 JUMP JUMPDEST JUMPDEST DUP2 CALLDATALOAD PUSH2 0x710 DUP5 DUP3 PUSH1 0x20 DUP7 ADD PUSH2 0x67F JUMP JUMPDEST SWAP2 POP POP SWAP3 SWAP2 POP POP JUMP JUMPDEST PUSH1 0x0 DUP2 CALLDATALOAD SWAP1 POP PUSH2 0x728 DUP2 PUSH2 0xD65 JUMP JUMPDEST SWAP3 SWAP2 POP POP JUMP JUMPDEST PUSH1 0x0 DUP1 PUSH1 0x0 DUP1 PUSH1 0x80 DUP6 DUP8 SUB SLT ISZERO PUSH2 0x748 JUMPI PUSH2 0x747 PUSH2 0xD14 JUMP JUMPDEST JUMPDEST PUSH1 0x0 DUP6 ADD CALLDATALOAD PUSH8 0xFFFFFFFFFFFFFFFF DUP2 GT ISZERO PUSH2 0x766 JUMPI PUSH2 0x765 PUSH2 0xD0F JUMP JUMPDEST JUMPDEST PUSH2 0x772 DUP8 DUP3 DUP9 ADD PUSH2 0x6EB JUMP JUMPDEST SWAP5 POP POP PUSH1 0x20 PUSH2 0x783 DUP8 DUP3 DUP9 ADD PUSH2 0x6D6 JUMP JUMPDEST SWAP4 POP POP PUSH1 0x40 PUSH2 0x794 DUP8 DUP3 DUP9 ADD PUSH2 0x719 JUMP JUMPDEST SWAP3 POP POP PUSH1 0x60 PUSH2 0x7A5 DUP8 DUP3 DUP9 ADD PUSH2 0x6C1 JUMP JUMPDEST SWAP2 POP POP SWAP3 SWAP6 SWAP2 SWAP5 POP SWAP3 POP JUMP JUMPDEST PUSH1 0x0 PUSH1 0x20 DUP3 DUP5 SUB SLT ISZERO PUSH2 0x7C7 JUMPI PUSH2 0x7C6 PUSH2 0xD14 JUMP JUMPDEST JUMPDEST PUSH1 0x0 PUSH2 0x7D5 DUP5 DUP3 DUP6 ADD PUSH2 0x719 JUMP JUMPDEST SWAP2 POP POP SWAP3 SWAP2 POP POP JUMP JUMPDEST PUSH1 0x0 DUP1 PUSH1 0x0 DUP1 PUSH1 0x0 PUSH1 0xA0 DUP7 DUP9 SUB SLT ISZERO PUSH2 0x7FA JUMPI PUSH2 0x7F9 PUSH2 0xD14 JUMP JUMPDEST JUMPDEST PUSH1 0x0 PUSH2 0x808 DUP9 DUP3 DUP10 ADD PUSH2 0x719 JUMP JUMPDEST SWAP6 POP POP PUSH1 0x20 DUP7 ADD CALLDATALOAD PUSH8 0xFFFFFFFFFFFFFFFF DUP2 GT ISZERO PUSH2 0x829 JUMPI PUSH2 0x828 PUSH2 0xD0F JUMP JUMPDEST JUMPDEST PUSH2 0x835 DUP9 DUP3 DUP10 ADD PUSH2 0x6EB JUMP JUMPDEST SWAP5 POP POP PUSH1 0x40 PUSH2 0x846 DUP9 DUP3 DUP10 ADD PUSH2 0x6D6 JUMP JUMPDEST SWAP4 POP POP PUSH1 0x60 PUSH2 0x857 DUP9 DUP3 DUP10 ADD PUSH2 0x719 JUMP JUMPDEST SWAP3 POP POP PUSH1 0x80 PUSH2 0x868 DUP9 DUP3 DUP10 ADD PUSH2 0x6C1 JUMP JUMPDEST SWAP2 POP POP SWAP3 SWAP6 POP SWAP3 SWAP6 SWAP1 SWAP4 POP JUMP JUMPDEST PUSH2 0x87E DUP2 PUSH2 0xABF JUMP JUMPDEST DUP3 MSTORE POP POP JUMP JUMPDEST PUSH2 0x88D DUP2 PUSH2 0xAD1 JUMP JUMPDEST DUP3 MSTORE POP POP JUMP JUMPDEST PUSH2 0x89C DUP2 PUSH2 0xB1A JUMP JUMPDEST DUP3 MSTORE POP POP JUMP JUMPDEST PUSH1 0x0 PUSH2 0x8AD DUP3 PUSH2 0x9F3 JUMP JUMPDEST PUSH2 0x8B7 DUP2 DUP6 PUSH2 0x9FE JUMP JUMPDEST SWAP4 POP PUSH2 0x8C7 DUP2 DUP6 PUSH1 0x20 DUP7 ADD PUSH2 0xB3B JUMP JUMPDEST PUSH2 0x8D0 DUP2 PUSH2 0xD19 JUMP JUMPDEST DUP5 ADD SWAP2 POP POP SWAP3 SWAP2 POP POP JUMP JUMPDEST PUSH1 0x0 PUSH1 0xA0 DUP4 ADD PUSH1 0x0 DUP4 ADD MLOAD PUSH2 0x8F3 PUSH1 0x0 DUP7 ADD DUP3 PUSH2 0x951 JUMP JUMPDEST POP PUSH1 0x20 DUP4 ADD MLOAD DUP5 DUP3 SUB PUSH1 0x20 DUP7 ADD MSTORE PUSH2 0x90B DUP3 DUP3 PUSH2 0x8A2 JUMP JUMPDEST SWAP2 POP POP PUSH1 0x40 DUP4 ADD MLOAD PUSH2 0x920 PUSH1 0x40 DUP7 ADD DUP3 PUSH2 0x893 JUMP JUMPDEST POP PUSH1 0x60 DUP4 ADD MLOAD PUSH2 0x933 PUSH1 0x60 DUP7 ADD DUP3 PUSH2 0x951 JUMP JUMPDEST POP PUSH1 0x80 DUP4 ADD MLOAD PUSH2 0x946 PUSH1 0x80 DUP7 ADD DUP3 PUSH2 0x875 JUMP JUMPDEST POP DUP1 SWAP2 POP POP SWAP3 SWAP2 POP POP JUMP JUMPDEST PUSH2 0x95A DUP2 PUSH2 0xB10 JUMP JUMPDEST DUP3 MSTORE POP POP JUMP JUMPDEST PUSH1 0x0 PUSH1 0x20 DUP3 ADD SWAP1 POP PUSH2 0x975 PUSH1 0x0 DUP4 ADD DUP5 PUSH2 0x884 JUMP JUMPDEST SWAP3 SWAP2 POP POP JUMP JUMPDEST PUSH1 0x0 PUSH1 0x20 DUP3 ADD SWAP1 POP DUP2 DUP2 SUB PUSH1 0x0 DUP4 ADD MSTORE PUSH2 0x995 DUP2 DUP5 PUSH2 0x8DB JUMP JUMPDEST SWAP1 POP SWAP3 SWAP2 POP POP JUMP JUMPDEST PUSH1 0x0 PUSH2 0x9A7 PUSH2 0x9B8 JUMP JUMPDEST SWAP1 POP PUSH2 0x9B3 DUP3 DUP3 PUSH2 0xBA0 JUMP JUMPDEST SWAP2 SWAP1 POP JUMP JUMPDEST PUSH1 0x0 PUSH1 0x40 MLOAD SWAP1 POP SWAP1 JUMP JUMPDEST PUSH1 0x0 PUSH8 0xFFFFFFFFFFFFFFFF DUP3 GT ISZERO PUSH2 0x9DD JUMPI PUSH2 0x9DC PUSH2 0xCD6 JUMP JUMPDEST JUMPDEST PUSH2 0x9E6 DUP3 PUSH2 0xD19 JUMP JUMPDEST SWAP1 POP PUSH1 0x20 DUP2 ADD SWAP1 POP SWAP2 SWAP1 POP JUMP JUMPDEST PUSH1 0x0 DUP2 MLOAD SWAP1 POP SWAP2 SWAP1 POP JUMP JUMPDEST PUSH1 0x0 DUP3 DUP3 MSTORE PUSH1 0x20 DUP3 ADD SWAP1 POP SWAP3 SWAP2 POP POP JUMP JUMPDEST PUSH1 0x0 PUSH2 0xA1A DUP3 PUSH2 0xB10 JUMP JUMPDEST SWAP2 POP PUSH2 0xA25 DUP4 PUSH2 0xB10 JUMP JUMPDEST SWAP3 POP DUP3 PUSH32 0xFFFFFFFFFFFFFFFFFFFFFFFFFFFFFFFFFFFFFFFFFFFFFFFFFFFFFFFFFFFFFFFF SUB DUP3 GT ISZERO PUSH2 0xA5A JUMPI PUSH2 0xA59 PUSH2 0xC1A JUMP JUMPDEST JUMPDEST DUP3 DUP3 ADD SWAP1 POP SWAP3 SWAP2 POP POP JUMP JUMPDEST PUSH1 0x0 PUSH2 0xA70 DUP3 PUSH2 0xB10 JUMP JUMPDEST SWAP2 POP PUSH2 0xA7B DUP4 PUSH2 0xB10 JUMP JUMPDEST SWAP3 POP DUP2 PUSH32 0xFFFFFFFFFFFFFFFFFFFFFFFFFFFFFFFFFFFFFFFFFFFFFFFFFFFFFFFFFFFFFFFF DIV DUP4 GT DUP3 ISZERO ISZERO AND ISZERO PUSH2 0xAB4 JUMPI PUSH2 0xAB3 PUSH2 0xC1A JUMP JUMPDEST JUMPDEST DUP3 DUP3 MUL SWAP1 POP SWAP3 SWAP2 POP POP JUMP JUMPDEST PUSH1 0x0 PUSH2 0xACA DUP3 PUSH2 0xAF0 JUMP JUMPDEST SWAP1 POP SWAP2 SWAP1 POP JUMP JUMPDEST PUSH1 0x0 DUP2 ISZERO ISZERO SWAP1 POP SWAP2 SWAP1 POP JUMP JUMPDEST PUSH1 0x0 DUP2 SWAP1 POP PUSH2 0xAEB DUP3 PUSH2 0xD2A JUMP JUMPDEST SWAP2 SWAP1 POP JUMP JUMPDEST PUSH1 0x0 PUSH20 0xFFFFFFFFFFFFFFFFFFFFFFFFFFFFFFFFFFFFFFFF DUP3 AND SWAP1 POP SWAP2 SWAP1 POP JUMP JUMPDEST PUSH1 0x0 DUP2 SWAP1 POP SWAP2 SWAP1 POP JUMP JUMPDEST PUSH1 0x0 PUSH2 0xB25 DUP3 PUSH2 0xADD JUMP JUMPDEST SWAP1 POP SWAP2 SWAP1 POP JUMP JUMPDEST DUP3 DUP2 DUP4 CALLDATACOPY PUSH1 0x0 DUP4 DUP4 ADD MSTORE POP POP POP JUMP JUMPDEST PUSH1 0x0 JUMPDEST DUP4 DUP2 LT ISZERO PUSH2 0xB59 JUMPI DUP1 DUP3 ADD MLOAD DUP2 DUP5 ADD MSTORE PUSH1 0x20 DUP2 ADD SWAP1 POP PUSH2 0xB3E JUMP JUMPDEST DUP4 DUP2 GT ISZERO PUSH2 0xB68 JUMPI PUSH1 0x0 DUP5 DUP5 ADD MSTORE JUMPDEST POP POP POP POP JUMP JUMPDEST PUSH1 0x0 PUSH1 0x2 DUP3 DIV SWAP1 POP PUSH1 0x1 DUP3 AND DUP1 PUSH2 0xB86 JUMPI PUSH1 0x7F DUP3 AND SWAP2 POP JUMPDEST PUSH1 0x20 DUP3 LT DUP2 EQ ISZERO PUSH2 0xB9A JUMPI PUSH2 0xB99 PUSH2 0xC78 JUMP JUMPDEST JUMPDEST POP SWAP2 SWAP1 POP JUMP JUMPDEST PUSH2 0xBA9 DUP3 PUSH2 0xD19 JUMP JUMPDEST DUP2 ADD DUP2 DUP2 LT PUSH8 0xFFFFFFFFFFFFFFFF DUP3 GT OR ISZERO PUSH2 0xBC8 JUMPI PUSH2 0xBC7 PUSH2 0xCD6 JUMP JUMPDEST JUMPDEST DUP1 PUSH1 0x40 MSTORE POP POP POP JUMP JUMPDEST PUSH1 0x0 PUSH2 0xBDC DUP3 PUSH2 0xB10 JUMP JUMPDEST SWAP2 POP PUSH32 0xFFFFFFFFFFFFFFFFFFFFFFFFFFFFFFFFFFFFFFFFFFFFFFFFFFFFFFFFFFFFFFFF DUP3 EQ ISZERO PUSH2 0xC0F JUMPI PUSH2 0xC0E PUSH2 0xC1A JUMP JUMPDEST JUMPDEST PUSH1 0x1 DUP3 ADD SWAP1 POP SWAP2 SWAP1 POP JUMP JUMPDEST PUSH32 0x4E487B7100000000000000000000000000000000000000000000000000000000 PUSH1 0x0 MSTORE PUSH1 0x11 PUSH1 0x4 MSTORE PUSH1 0x24 PUSH1 0x0 REVERT JUMPDEST PUSH32 0x4E487B7100000000000000000000000000000000000000000000000000000000 PUSH1 0x0 MSTORE PUSH1 0x21 PUSH1 0x4 MSTORE PUSH1 0x24 PUSH1 0x0 REVERT JUMPDEST PUSH32 0x4E487B7100000000000000000000000000000000000000000000000000000000 PUSH1 0x0 MSTORE PUSH1 0x22 PUSH1 0x4 MSTORE PUSH1 0x24 PUSH1 0x0 REVERT JUMPDEST PUSH32 0x4E487B7100000000000000000000000000000000000000000000000000000000 PUSH1 0x0 MSTORE PUSH1 0x32 PUSH1 0x4 MSTORE PUSH1 0x24 PUSH1 0x0 REVERT JUMPDEST PUSH32 0x4E487B7100000000000000000000000000000000000000000000000000000000 PUSH1 0x0 MSTORE PUSH1 0x41 PUSH1 0x4 MSTORE PUSH1 0x24 PUSH1 0x0 REVERT JUMPDEST PUSH1 0x0 DUP1 REVERT JUMPDEST PUSH1 0x0 DUP1 REVERT JUMPDEST PUSH1 0x0 DUP1 REVERT JUMPDEST PUSH1 0x0 DUP1 REVERT JUMPDEST PUSH1 0x0 PUSH1 0x1F NOT PUSH1 0x1F DUP4 ADD AND SWAP1 POP SWAP2 SWAP1 POP JUMP JUMPDEST PUSH1 0x2 DUP2 LT PUSH2 0xD3B JUMPI PUSH2 0xD3A PUSH2 0xC49 JUMP JUMPDEST JUMPDEST POP JUMP JUMPDEST PUSH2 0xD47 DUP2 PUSH2 0xABF JUMP JUMPDEST DUP2 EQ PUSH2 0xD52 JUMPI PUSH1 0x0 DUP1 REVERT JUMPDEST POP JUMP JUMPDEST PUSH1 0x2 DUP2 LT PUSH2 0xD62 JUMPI PUSH1 0x0 DUP1 REVERT JUMPDEST POP JUMP JUMPDEST PUSH2 0xD6E DUP2 PUSH2 0xB10 JUMP JUMPDEST DUP2 EQ PUSH2 0xD79 JUMPI PUSH1 0x0 DUP1 REVERT JUMPDEST POP JUMP INVALID LOG2 PUSH5 0x6970667358 0x22 SLT KECCAK256 NOT 0xDE 0x2C PUSH8 0x40744AF561C73753 0xDE SMOD EQ SWAP8 PUSH31 0xE91FB6D8EB3F0AE6322C1E57924D6064736F6C634300080700330000000000 "
		},
		"gasEstimates": {
			"creation": {
				"codeDepositCost": "830800",
				"executionCost": "infinite",
				"totalCost": "infinite"
			},
			"external": {
				"getClaim(uint256)": "infinite",
				"newClaim((uint256,uint256,uint8,bool,uint256,uint256))": "infinite",
				"receiveAClaim(uint256,uint8,uint256)": "infinite"
			}
		},
		"methodIdentifiers": {
			"getClaim(uint256)": "5aef2447",
			"newClaim((uint256,uint256,uint8,bool,uint256,uint256))": "356f31b5",
			"receiveAClaim(uint256,uint8,uint256)": "91bbdc49"
		}
	},
	"abi": [
		{
			"anonymous": false,
			"inputs": [
				{
					"indexed": true,
					"internalType": "uint256",
					"name": "_customerId",
					"type": "uint256"
				},
				{
					"indexed": false,
					"internalType": "string",
					"name": "_notification",
					"type": "string"
				}
			],
			"name": "CustomerAdvNotif",
			"type": "event"
		},
		{
			"inputs": [
				{
					"internalType": "uint256",
					"name": "id",
					"type": "uint256"
				}
			],
			"name": "getClaim",
			"outputs": [
				{
					"components": [
						{
							"internalType": "uint256",
							"name": "id",
							"type": "uint256"
						},
						{
							"internalType": "uint256",
							"name": "customerId",
							"type": "uint256"
						},
						{
							"internalType": "enum InsuranceCompanyContract.insurancePolicy",
							"name": "policyType",
							"type": "uint8"
						},
						{
							"internalType": "bool",
							"name": "assesment",
							"type": "bool"
						},
						{
							"internalType": "uint256",
							"name": "claimDate",
							"type": "uint256"
						},
						{
							"internalType": "uint256",
							"name": "damagePercentage",
							"type": "uint256"
						}
					],
					"internalType": "struct InsuranceCompanyContract.Claim",
					"name": "claim",
					"type": "tuple"
				}
			],
			"stateMutability": "view",
			"type": "function"
		},
		{
			"inputs": [
				{
					"components": [
						{
							"internalType": "uint256",
							"name": "id",
							"type": "uint256"
						},
						{
							"internalType": "uint256",
							"name": "customerId",
							"type": "uint256"
						},
						{
							"internalType": "enum InsuranceCompanyContract.insurancePolicy",
							"name": "policyType",
							"type": "uint8"
						},
						{
							"internalType": "bool",
							"name": "assesment",
							"type": "bool"
						},
						{
							"internalType": "uint256",
							"name": "claimDate",
							"type": "uint256"
						},
						{
							"internalType": "uint256",
							"name": "damagePercentage",
							"type": "uint256"
						}
					],
					"internalType": "struct InsuranceCompanyContract.Claim",
					"name": "claim",
					"type": "tuple"
				}
			],
			"name": "newClaim",
			"outputs": [],
			"stateMutability": "nonpayable",
			"type": "function"
		},
		{
			"inputs": [
				{
					"internalType": "uint256",
					"name": "customerId",
					"type": "uint256"
				},
				{
					"internalType": "enum InsuranceCompanyContract.insurancePolicy",
					"name": "policyType",
					"type": "uint8"
				},
				{
					"internalType": "uint256",
					"name": "damagePercentage",
					"type": "uint256"
				}
			],
			"name": "receiveAClaim",
			"outputs": [],
			"stateMutability": "nonpayable",
			"type": "function"
		}
	]
}